{
	"data": {
		"bytecode": {
			"linkReferences": {},
			"object": "60806040523480156200001157600080fd5b506040518060200160405280600081525062000033816200005a60201b60201c565b5062000054620000486200006f60201b60201c565b6200007760201b60201c565b6200049e565b80600290816200006b9190620003b7565b5050565b600033905090565b6000600360009054906101000a900473ffffffffffffffffffffffffffffffffffffffff16905081600360006101000a81548173ffffffffffffffffffffffffffffffffffffffff021916908373ffffffffffffffffffffffffffffffffffffffff1602179055508173ffffffffffffffffffffffffffffffffffffffff168173ffffffffffffffffffffffffffffffffffffffff167f8be0079c531659141344cd1fd0a4f28419497f9722a3daafe3b4186f6b6457e060405160405180910390a35050565b600081519050919050565b7f4e487b7100000000000000000000000000000000000000000000000000000000600052604160045260246000fd5b7f4e487b7100000000000000000000000000000000000000000000000000000000600052602260045260246000fd5b60006002820490506001821680620001bf57607f821691505b602082108103620001d557620001d462000177565b5b50919050565b60008190508160005260206000209050919050565b60006020601f8301049050919050565b600082821b905092915050565b6000600883026200023f7fffffffffffffffffffffffffffffffffffffffffffffffffffffffffffffffff8262000200565b6200024b868362000200565b95508019841693508086168417925050509392505050565b6000819050919050565b6000819050919050565b600062000298620002926200028c8462000263565b6200026d565b62000263565b9050919050565b6000819050919050565b620002b48362000277565b620002cc620002c3826200029f565b8484546200020d565b825550505050565b600090565b620002e3620002d4565b620002f0818484620002a9565b505050565b5b8181101562000318576200030c600082620002d9565b600181019050620002f6565b5050565b601f82111562000367576200033181620001db565b6200033c84620001f0565b810160208510156200034c578190505b620003646200035b85620001f0565b830182620002f5565b50505b505050565b600082821c905092915050565b60006200038c600019846008026200036c565b1980831691505092915050565b6000620003a7838362000379565b9150826002028217905092915050565b620003c2826200013d565b67ffffffffffffffff811115620003de57620003dd62000148565b5b620003ea8254620001a6565b620003f78282856200031c565b600060209050601f8311600181146200042f57600084156200041a578287015190505b62000426858262000399565b86555062000496565b601f1984166200043f86620001db565b60005b82811015620004695784890151825560018201915060208501945060208101905062000442565b8683101562000489578489015162000485601f89168262000379565b8355505b6001600288020188555050505b505050505050565b61588f80620004ae6000396000f3fe608060405234801561001057600080fd5b50600436106102105760003560e01c80638da5cb5b11610125578063d68ad7a0116100ad578063f2fde38b1161007c578063f2fde38b1461065a578063f4a3a92b14610676578063f8a14f4614610692578063fac333ac146106c7578063fcc1ff5c146106f757610210565b8063d68ad7a0146105c2578063e29be1a1146105f2578063e985e9c51461060e578063f242432a1461063e57610210565b8063beb9eb30116100f4578063beb9eb301461050c578063c31f4b5814610528578063c87b56dd14610544578063cfaad27c14610574578063d198cc01146105a657610210565b80638da5cb5b146104865780639d835c5f146104a4578063a22cb465146104c0578063aee4a42a146104dc57610210565b806346a0d50a116101a857806361b1b23c1161017757806361b1b23c146103f4578063715018a614610412578063773790821461041c5780637abfee42146104385780638d63193d1461045657610210565b806346a0d50a146103485780634b77f8d0146103785780634e1273f4146103945780634f4eacd8146103c457610210565b80632374fdcf116101e45780632374fdcf146102d65780632eb2c2d6146102f2578063325d20c41461030e5780634672a6021461032c57610210565b8062fdd58e1461021557806301ffc9a7146102455780630e89341c146102755780630fe2a68d146102a5575b600080fd5b61022f600480360381019061022a9190613428565b610713565b60405161023c9190613477565b60405180910390f35b61025f600480360381019061025a91906134ea565b610727565b60405161026c9190613532565b60405180910390f35b61028f600480360381019061028a919061354d565b610809565b60405161029c919061360a565b60405180910390f35b6102bf60048036038101906102ba919061354d565b61089d565b6040516102cd92919061362c565b60405180910390f35b6102f060048036038101906102eb919061354d565b6108c1565b005b61030c60048036038101906103079190613852565b610a32565b005b610316610ad3565b6040516103239190613980565b60405180910390f35b6103466004803603810190610341919061399b565b610af9565b005b610362600480360381019061035d91906139c8565b610bab565b60405161036f9190613a77565b60405180910390f35b610392600480360381019061038d919061399b565b610c65565b005b6103ae60048036038101906103a99190613b55565b610c73565b6040516103bb9190613c7c565b60405180910390f35b6103de60048036038101906103d9919061354d565b610d8c565b6040516103eb9190613477565b60405180910390f35b6103fc610dac565b6040516104099190613cbf565b60405180910390f35b61041a610dd2565b005b61043660048036038101906104319190613cda565b610de6565b005b610440610e50565b60405161044d9190613c7c565b60405180910390f35b610470600480360381019061046b919061354d565b610ea8565b60405161047d9190613da8565b60405180910390f35b61048e610f6e565b60405161049b9190613dd2565b60405180910390f35b6104be60048036038101906104b99190613e8e565b610f98565b005b6104da60048036038101906104d59190613f78565b61120b565b005b6104f660048036038101906104f1919061354d565b611221565b6040516105039190613477565b60405180910390f35b61052660048036038101906105219190613fb8565b61123e565b005b610542600480360381019061053d919061354d565b6113a8565b005b61055e6004803603810190610559919061354d565b611519565b60405161056b919061360a565b60405180910390f35b61058e600480360381019061058991906139c8565b6115be565b60405161059d9392919061400b565b60405180910390f35b6105c060048036038101906105bb9190614042565b611622565b005b6105dc60048036038101906105d7919061354d565b6117a1565b6040516105e99190613477565b60405180910390f35b61060c6004803603810190610607919061399b565b6117b9565b005b61062860048036038101906106239190614082565b61193d565b6040516106359190613532565b60405180910390f35b610658600480360381019061065391906140c2565b6119d1565b005b610674600480360381019061066f919061399b565b611a72565b005b610690600480360381019061068b9190614159565b611af5565b005b6106ac60048036038101906106a7919061354d565b611b99565b6040516106be969594939291906141c0565b60405180910390f35b6106e160048036038101906106dc919061354d565b611c02565b6040516106ee9190613477565b60405180910390f35b610711600480360381019061070c9190614042565b611c26565b005b600061071f8383612025565b905092915050565b60007fd9b67a26000000000000000000000000000000000000000000000000000000007bffffffffffffffffffffffffffffffffffffffffffffffffffffffff1916827bffffffffffffffffffffffffffffffffffffffffffffffffffffffff191614806107f257507f0e89341c000000000000000000000000000000000000000000000000000000007bffffffffffffffffffffffffffffffffffffffffffffffffffffffff1916827bffffffffffffffffffffffffffffffffffffffffffffffffffffffff1916145b806108025750610801826120ed565b5b9050919050565b60606002805461081890614250565b80601f016020809104026020016040519081016040528092919081815260200182805461084490614250565b80156108915780601f1061086657610100808354040283529160200191610891565b820191906000526020600020905b81548152906001019060200180831161087457829003601f168201915b50505050509050919050565b600b6020528060005260406000206000915090508060000154908060010154905082565b60006109036008600084815260200190815260200160002060000160009054906101000a900473ffffffffffffffffffffffffffffffffffffffff1683612025565b11610943576040517f08c379a000000000000000000000000000000000000000000000000000000000815260040161093a906142cd565b60405180910390fd5b6008600082815260200190815260200160002060010154600660009054906101000a900473ffffffffffffffffffffffffffffffffffffffff1673ffffffffffffffffffffffffffffffffffffffff166349e5465c836040518263ffffffff1660e01b81526004016109b59190613477565b602060405180830381865afa1580156109d2573d6000803e3d6000fd5b505050506040513d601f19601f820116820180604052508101906109f69190614302565b03610a0057600080fd5b60006008600083815260200190815260200160002060050160006101000a81548160ff02191690831515021790555050565b610a3a612157565b73ffffffffffffffffffffffffffffffffffffffff168573ffffffffffffffffffffffffffffffffffffffff161480610a805750610a7f85610a7a612157565b61193d565b5b610abf576040517f08c379a0000000000000000000000000000000000000000000000000000000008152600401610ab6906143a1565b60405180910390fd5b610acc858585858561215f565b5050505050565b600660009054906101000a900473ffffffffffffffffffffffffffffffffffffffff1681565b3373ffffffffffffffffffffffffffffffffffffffff168173ffffffffffffffffffffffffffffffffffffffff1614610b67576040517f08c379a0000000000000000000000000000000000000000000000000000000008152600401610b5e9061440d565b60405180910390fd5b80600760006101000a81548173ffffffffffffffffffffffffffffffffffffffff021916908373ffffffffffffffffffffffffffffffffffffffff16021790555050565b610bb36132f9565b6009600084815260200190815260200160002060008381526020019081526020016000206040518060600160405290816000820160009054906101000a900473ffffffffffffffffffffffffffffffffffffffff1673ffffffffffffffffffffffffffffffffffffffff1673ffffffffffffffffffffffffffffffffffffffff168152602001600182015481526020016002820160009054906101000a900460ff161515151581525050905092915050565b610c7081600061120b565b50565b60608151835114610cb9576040517f08c379a0000000000000000000000000000000000000000000000000000000008152600401610cb09061449f565b60405180910390fd5b6000835167ffffffffffffffff811115610cd657610cd561365a565b5b604051908082528060200260200182016040528015610d045781602001602082028036833780820191505090505b50905060005b8451811015610d8157610d51858281518110610d2957610d286144bf565b5b6020026020010151858381518110610d4457610d436144bf565b5b6020026020010151610713565b828281518110610d6457610d636144bf565b5b60200260200101818152505080610d7a9061451d565b9050610d0a565b508091505092915050565b6000600b6000838152602001908152602001600020600001549050919050565b600760009054906101000a900473ffffffffffffffffffffffffffffffffffffffff1681565b610dda612480565b610de460006124fe565b565b600560009054906101000a900473ffffffffffffffffffffffffffffffffffffffff1673ffffffffffffffffffffffffffffffffffffffff163373ffffffffffffffffffffffffffffffffffffffff1614610e4057600080fd5b610e4b8383836125c4565b505050565b60606004805480602002602001604051908101604052809291908181526020018280548015610e9e57602002820191906000526020600020905b815481526020019060010190808311610e8a575b5050505050905090565b610eb0613332565b600860008381526020019081526020016000206040518060c00160405290816000820160009054906101000a900473ffffffffffffffffffffffffffffffffffffffff1673ffffffffffffffffffffffffffffffffffffffff1673ffffffffffffffffffffffffffffffffffffffff168152602001600182015481526020016002820154815260200160038201548152602001600482015481526020016005820160009054906101000a900460ff1615151515815250509050919050565b6000600360009054906101000a900473ffffffffffffffffffffffffffffffffffffffff16905090565b6000600860008781526020019081526020016000206001015414610ff1576040517f08c379a0000000000000000000000000000000000000000000000000000000008152600401610fe8906145b1565b60405180910390fd5b3373ffffffffffffffffffffffffffffffffffffffff168773ffffffffffffffffffffffffffffffffffffffff161461105f576040517f08c379a00000000000000000000000000000000000000000000000000000000081526004016110569061461d565b60405180910390fd5b60006040518060400160405280601381526020017f66756e6464696e67206973207365636365737300000000000000000000000000815250905060006110a78987878761280a565b9050806008600089815260200190815260200160002060008201518160000160006101000a81548173ffffffffffffffffffffffffffffffffffffffff021916908373ffffffffffffffffffffffffffffffffffffffff1602179055506020820151816001015560408201518160020155606082015181600301556080820151816004015560a08201518160050160006101000a81548160ff02191690831515021790555090505061116a898888604051806020016040528060008152506128e7565b61117588600161120b565b600487908060018154018082558091505060019003906000526020600020016000909190919091505582600c600089815260200190815260200160002090816111be91906147df565b507f8bdc0347739a882305e00b5fa613e8629b5da77a48abac45661315c45619c5483388888888876040516111f8969594939291906148b1565b60405180910390a1505050505050505050565b61121d611216612157565b8383612a97565b5050565b6000600a6000838152602001908152602001600020549050919050565b600061124a3385612025565b0361128a576040517f08c379a000000000000000000000000000000000000000000000000000000000815260040161128190614965565b60405180910390fd5b6201518060086000858152602001908152602001600020600401546112af9190614985565b82426112bb91906149b9565b116112fb576040517f08c379a00000000000000000000000000000000000000000000000000000000081526004016112f290614a6d565b60405180910390fd5b6000600b60008581526020019081526020016000206000015414611354576040517f08c379a000000000000000000000000000000000000000000000000000000000815260040161134b90614ad9565b60405180910390fd5b816201518061136391906149b9565b4261136e9190614af9565b600b60008581526020019081526020016000206000018190555080600b600085815260200190815260200160002060010181905550505050565b60006113ea6008600084815260200190815260200160002060000160009054906101000a900473ffffffffffffffffffffffffffffffffffffffff1683612025565b1461142a576040517f08c379a000000000000000000000000000000000000000000000000000000000815260040161142190614b79565b60405180910390fd5b6008600082815260200190815260200160002060010154600660009054906101000a900473ffffffffffffffffffffffffffffffffffffffff1673ffffffffffffffffffffffffffffffffffffffff166349e5465c836040518263ffffffff1660e01b815260040161149c9190613477565b602060405180830381865afa1580156114b9573d6000803e3d6000fd5b505050506040513d601f19601f820116820180604052508101906114dd9190614302565b146114e757600080fd5b60016008600083815260200190815260200160002060050160006101000a81548160ff02191690831515021790555050565b6060600c6000838152602001908152602001600020805461153990614250565b80601f016020809104026020016040519081016040528092919081815260200182805461156590614250565b80156115b25780601f10611587576101008083540402835291602001916115b2565b820191906000526020600020905b81548152906001019060200180831161159557829003601f168201915b50505050509050919050565b6009602052816000526040600020602052806000526040600020600091509150508060000160009054906101000a900473ffffffffffffffffffffffffffffffffffffffff16908060010154908060020160009054906101000a900460ff16905083565b42600b6000848152602001908152602001600020600001541061167a576040517f08c379a000000000000000000000000000000000000000000000000000000000815260040161167190614be5565b60405180910390fd5b60006116863384612025565b036116c6576040517f08c379a00000000000000000000000000000000000000000000000000000000081526004016116bd90614c51565b60405180910390fd5b600115156008600084815260200190815260200160002060050160009054906101000a900460ff16151503611730576040517f08c379a000000000000000000000000000000000000000000000000000000000815260040161172790614cbd565b60405180910390fd5b600115158115150361179d57600b6000838152602001908152602001600020600101546201518061176191906149b9565b60086000848152602001908152602001600020600401546117829190614af9565b60086000848152602001908152602001600020600401819055505b5050565b600a6020528060005260406000206000915090505481565b3373ffffffffffffffffffffffffffffffffffffffff168173ffffffffffffffffffffffffffffffffffffffff1614611827576040517f08c379a000000000000000000000000000000000000000000000000000000000815260040161181e90614d29565b60405180910390fd5b600073ffffffffffffffffffffffffffffffffffffffff16600560009054906101000a900473ffffffffffffffffffffffffffffffffffffffff1673ffffffffffffffffffffffffffffffffffffffff16146118b8576040517f08c379a00000000000000000000000000000000000000000000000000000000081526004016118af90614d95565b60405180910390fd5b80600560006101000a81548173ffffffffffffffffffffffffffffffffffffffff021916908373ffffffffffffffffffffffffffffffffffffffff16021790555080600660006101000a81548173ffffffffffffffffffffffffffffffffffffffff021916908373ffffffffffffffffffffffffffffffffffffffff16021790555050565b6000600160008473ffffffffffffffffffffffffffffffffffffffff1673ffffffffffffffffffffffffffffffffffffffff16815260200190815260200160002060008373ffffffffffffffffffffffffffffffffffffffff1673ffffffffffffffffffffffffffffffffffffffff16815260200190815260200160002060009054906101000a900460ff16905092915050565b6119d9612157565b73ffffffffffffffffffffffffffffffffffffffff168573ffffffffffffffffffffffffffffffffffffffff161480611a1f5750611a1e85611a19612157565b61193d565b5b611a5e576040517f08c379a0000000000000000000000000000000000000000000000000000000008152600401611a55906143a1565b60405180910390fd5b611a6b8585858585612c03565b5050505050565b611a7a612480565b600073ffffffffffffffffffffffffffffffffffffffff168173ffffffffffffffffffffffffffffffffffffffff1603611ae9576040517f08c379a0000000000000000000000000000000000000000000000000000000008152600401611ae090614e27565b60405180910390fd5b611af2816124fe565b50565b600760009054906101000a900473ffffffffffffffffffffffffffffffffffffffff1673ffffffffffffffffffffffffffffffffffffffff166323dc2e65338585856040518563ffffffff1660e01b8152600401611b569493929190614e47565b600060405180830381600087803b158015611b7057600080fd5b505af1158015611b84573d6000803e3d6000fd5b50505050611b9384600161120b565b50505050565b60086020528060005260406000206000915090508060000160009054906101000a900473ffffffffffffffffffffffffffffffffffffffff16908060010154908060020154908060030154908060040154908060050160009054906101000a900460ff16905086565b60048181548110611c1257600080fd5b906000526020600020016000915090505481565b6000611c323384612025565b03611c72576040517f08c379a0000000000000000000000000000000000000000000000000000000008152600401611c6990614c51565b60405180910390fd5b600b600083815260200190815260200160002060000154421115611ccb576040517f08c379a0000000000000000000000000000000000000000000000000000000008152600401611cc290614ed8565b60405180910390fd5b3373ffffffffffffffffffffffffffffffffffffffff166008600084815260200190815260200160002060000160009054906101000a900473ffffffffffffffffffffffffffffffffffffffff1673ffffffffffffffffffffffffffffffffffffffff1603611d6f576040517f08c379a0000000000000000000000000000000000000000000000000000000008152600401611d6690614f6a565b60405180910390fd5b6000611d7b3384612025565b9050600080600190505b600a6000868152602001908152602001600020548111611efc573373ffffffffffffffffffffffffffffffffffffffff1660096000878152602001908152602001600020600083815260200190815260200160002060000160009054906101000a900473ffffffffffffffffffffffffffffffffffffffff1673ffffffffffffffffffffffffffffffffffffffff1603611ee95760405180606001604052803373ffffffffffffffffffffffffffffffffffffffff16815260200184815260200185151581525060096000878152602001908152602001600020600083815260200190815260200160002060008201518160000160006101000a81548173ffffffffffffffffffffffffffffffffffffffff021916908373ffffffffffffffffffffffffffffffffffffffff1602179055506020820151816001015560408201518160020160006101000a81548160ff021916908315150217905550905050600191505b8080611ef49061451d565b915050611d85565b50600015158115150361201f576001600a600086815260200190815260200160002054611f299190614af9565b600a60008681526020019081526020016000208190555060405180606001604052803373ffffffffffffffffffffffffffffffffffffffff168152602001838152602001841515815250600960008681526020019081526020016000206000600a600088815260200190815260200160002054815260200190815260200160002060008201518160000160006101000a81548173ffffffffffffffffffffffffffffffffffffffff021916908373ffffffffffffffffffffffffffffffffffffffff1602179055506020820151816001015560408201518160020160006101000a81548160ff0219169083151502179055509050505b50505050565b60008073ffffffffffffffffffffffffffffffffffffffff168373ffffffffffffffffffffffffffffffffffffffff1603612095576040517f08c379a000000000000000000000000000000000000000000000000000000000815260040161208c90614ffc565b60405180910390fd5b60008083815260200190815260200160002060008473ffffffffffffffffffffffffffffffffffffffff1673ffffffffffffffffffffffffffffffffffffffff16815260200190815260200160002054905092915050565b60007f01ffc9a7000000000000000000000000000000000000000000000000000000007bffffffffffffffffffffffffffffffffffffffffffffffffffffffff1916827bffffffffffffffffffffffffffffffffffffffffffffffffffffffff1916149050919050565b600033905090565b81518351146121a3576040517f08c379a000000000000000000000000000000000000000000000000000000000815260040161219a9061508e565b60405180910390fd5b600073ffffffffffffffffffffffffffffffffffffffff168473ffffffffffffffffffffffffffffffffffffffff1603612212576040517f08c379a000000000000000000000000000000000000000000000000000000000815260040161220990615120565b60405180910390fd5b600061221c612157565b905061222c818787878787612e9e565b60005b84518110156123dd57600085828151811061224d5761224c6144bf565b5b60200260200101519050600085838151811061226c5761226b6144bf565b5b60200260200101519050600080600084815260200190815260200160002060008b73ffffffffffffffffffffffffffffffffffffffff1673ffffffffffffffffffffffffffffffffffffffff1681526020019081526020016000205490508181101561230d576040517f08c379a0000000000000000000000000000000000000000000000000000000008152600401612304906151b2565b60405180910390fd5b81810360008085815260200190815260200160002060008c73ffffffffffffffffffffffffffffffffffffffff1673ffffffffffffffffffffffffffffffffffffffff168152602001908152602001600020819055508160008085815260200190815260200160002060008b73ffffffffffffffffffffffffffffffffffffffff1673ffffffffffffffffffffffffffffffffffffffff16815260200190815260200160002060008282546123c29190614af9565b92505081905550505050806123d69061451d565b905061222f565b508473ffffffffffffffffffffffffffffffffffffffff168673ffffffffffffffffffffffffffffffffffffffff168273ffffffffffffffffffffffffffffffffffffffff167f4a39dc06d4c0dbc64b70af90fd698a233a518aa5d07e595d983b8c0526c8f7fb87876040516124549291906151d2565b60405180910390a461246a818787878787612ea6565b612478818787878787612eae565b505050505050565b612488612157565b73ffffffffffffffffffffffffffffffffffffffff166124a6610f6e565b73ffffffffffffffffffffffffffffffffffffffff16146124fc576040517f08c379a00000000000000000000000000000000000000000000000000000000081526004016124f390615255565b60405180910390fd5b565b6000600360009054906101000a900473ffffffffffffffffffffffffffffffffffffffff16905081600360006101000a81548173ffffffffffffffffffffffffffffffffffffffff021916908373ffffffffffffffffffffffffffffffffffffffff1602179055508173ffffffffffffffffffffffffffffffffffffffff168173ffffffffffffffffffffffffffffffffffffffff167f8be0079c531659141344cd1fd0a4f28419497f9722a3daafe3b4186f6b6457e060405160405180910390a35050565b600073ffffffffffffffffffffffffffffffffffffffff168373ffffffffffffffffffffffffffffffffffffffff1603612633576040517f08c379a000000000000000000000000000000000000000000000000000000000815260040161262a906152e7565b60405180910390fd5b600061263d612157565b9050600061264a84613085565b9050600061265784613085565b905061267783876000858560405180602001604052806000815250612e9e565b600080600087815260200190815260200160002060008873ffffffffffffffffffffffffffffffffffffffff1673ffffffffffffffffffffffffffffffffffffffff1681526020019081526020016000205490508481101561270e576040517f08c379a000000000000000000000000000000000000000000000000000000000815260040161270590615379565b60405180910390fd5b84810360008088815260200190815260200160002060008973ffffffffffffffffffffffffffffffffffffffff1673ffffffffffffffffffffffffffffffffffffffff16815260200190815260200160002081905550600073ffffffffffffffffffffffffffffffffffffffff168773ffffffffffffffffffffffffffffffffffffffff168573ffffffffffffffffffffffffffffffffffffffff167fc3d58168c5ae7397731d063d5bbf3d657854427343f4c083240f7aacaa2d0f6289896040516127db92919061362c565b60405180910390a461280184886000868660405180602001604052806000815250612ea6565b50505050505050565b612812613332565b61281a613332565b600085670de0b6b3a76400008661283191906149b9565b61283b91906153c8565b905086826000019073ffffffffffffffffffffffffffffffffffffffff16908173ffffffffffffffffffffffffffffffffffffffff168152505085826020018181525050670de0b6b3a76400008561289391906149b9565b8260400181815250508082606001818152505083620151806128b591906149b9565b426128c09190614af9565b82608001818152505060008260a00190151590811515815250508192505050949350505050565b600073ffffffffffffffffffffffffffffffffffffffff168473ffffffffffffffffffffffffffffffffffffffff1603612956576040517f08c379a000000000000000000000000000000000000000000000000000000000815260040161294d9061546b565b60405180910390fd5b6000612960612157565b9050600061296d85613085565b9050600061297a85613085565b905061298b83600089858589612e9e565b8460008088815260200190815260200160002060008973ffffffffffffffffffffffffffffffffffffffff1673ffffffffffffffffffffffffffffffffffffffff16815260200190815260200160002060008282546129ea9190614af9565b925050819055508673ffffffffffffffffffffffffffffffffffffffff16600073ffffffffffffffffffffffffffffffffffffffff168473ffffffffffffffffffffffffffffffffffffffff167fc3d58168c5ae7397731d063d5bbf3d657854427343f4c083240f7aacaa2d0f628989604051612a6892919061362c565b60405180910390a4612a7f83600089858589612ea6565b612a8e836000898989896130ff565b50505050505050565b8173ffffffffffffffffffffffffffffffffffffffff168373ffffffffffffffffffffffffffffffffffffffff1603612b05576040517f08c379a0000000000000000000000000000000000000000000000000000000008152600401612afc906154fd565b60405180910390fd5b80600160008573ffffffffffffffffffffffffffffffffffffffff1673ffffffffffffffffffffffffffffffffffffffff16815260200190815260200160002060008473ffffffffffffffffffffffffffffffffffffffff1673ffffffffffffffffffffffffffffffffffffffff16815260200190815260200160002060006101000a81548160ff0219169083151502179055508173ffffffffffffffffffffffffffffffffffffffff168373ffffffffffffffffffffffffffffffffffffffff167f17307eab39ab6107e8899845ad3d59bd9653f200f220920489ca2b5937696c3183604051612bf69190613532565b60405180910390a3505050565b600073ffffffffffffffffffffffffffffffffffffffff168473ffffffffffffffffffffffffffffffffffffffff1603612c72576040517f08c379a0000000000000000000000000000000000000000000000000000000008152600401612c6990615120565b60405180910390fd5b6000612c7c612157565b90506000612c8985613085565b90506000612c9685613085565b9050612ca6838989858589612e9e565b600080600088815260200190815260200160002060008a73ffffffffffffffffffffffffffffffffffffffff1673ffffffffffffffffffffffffffffffffffffffff16815260200190815260200160002054905085811015612d3d576040517f08c379a0000000000000000000000000000000000000000000000000000000008152600401612d34906151b2565b60405180910390fd5b85810360008089815260200190815260200160002060008b73ffffffffffffffffffffffffffffffffffffffff1673ffffffffffffffffffffffffffffffffffffffff168152602001908152602001600020819055508560008089815260200190815260200160002060008a73ffffffffffffffffffffffffffffffffffffffff1673ffffffffffffffffffffffffffffffffffffffff1681526020019081526020016000206000828254612df29190614af9565b925050819055508773ffffffffffffffffffffffffffffffffffffffff168973ffffffffffffffffffffffffffffffffffffffff168573ffffffffffffffffffffffffffffffffffffffff167fc3d58168c5ae7397731d063d5bbf3d657854427343f4c083240f7aacaa2d0f628a8a604051612e6f92919061362c565b60405180910390a4612e85848a8a86868a612ea6565b612e93848a8a8a8a8a6130ff565b505050505050505050565b505050505050565b505050505050565b612ecd8473ffffffffffffffffffffffffffffffffffffffff166132d6565b1561307d578373ffffffffffffffffffffffffffffffffffffffff1663bc197c8187878686866040518663ffffffff1660e01b8152600401612f13959493929190615572565b6020604051808303816000875af1925050508015612f4f57506040513d601f19601f82011682018060405250810190612f4c91906155ef565b60015b612ff457612f5b615629565b806308c379a003612fb75750612f6f61564b565b80612f7a5750612fb9565b806040517f08c379a0000000000000000000000000000000000000000000000000000000008152600401612fae919061360a565b60405180910390fd5b505b6040517f08c379a0000000000000000000000000000000000000000000000000000000008152600401612feb9061574d565b60405180910390fd5b63bc197c8160e01b7bffffffffffffffffffffffffffffffffffffffffffffffffffffffff1916817bffffffffffffffffffffffffffffffffffffffffffffffffffffffff19161461307b576040517f08c379a0000000000000000000000000000000000000000000000000000000008152600401613072906157df565b60405180910390fd5b505b505050505050565b60606000600167ffffffffffffffff8111156130a4576130a361365a565b5b6040519080825280602002602001820160405280156130d25781602001602082028036833780820191505090505b50905082816000815181106130ea576130e96144bf565b5b60200260200101818152505080915050919050565b61311e8473ffffffffffffffffffffffffffffffffffffffff166132d6565b156132ce578373ffffffffffffffffffffffffffffffffffffffff1663f23a6e6187878686866040518663ffffffff1660e01b81526004016131649594939291906157ff565b6020604051808303816000875af19250505080156131a057506040513d601f19601f8201168201806040525081019061319d91906155ef565b60015b613245576131ac615629565b806308c379a00361320857506131c061564b565b806131cb575061320a565b806040517f08c379a00000000000000000000000000000000000000000000000000000000081526004016131ff919061360a565b60405180910390fd5b505b6040517f08c379a000000000000000000000000000000000000000000000000000000000815260040161323c9061574d565b60405180910390fd5b63f23a6e6160e01b7bffffffffffffffffffffffffffffffffffffffffffffffffffffffff1916817bffffffffffffffffffffffffffffffffffffffffffffffffffffffff1916146132cc576040517f08c379a00000000000000000000000000000000000000000000000000000000081526004016132c3906157df565b60405180910390fd5b505b505050505050565b6000808273ffffffffffffffffffffffffffffffffffffffff163b119050919050565b6040518060600160405280600073ffffffffffffffffffffffffffffffffffffffff168152602001600081526020016000151581525090565b6040518060c00160405280600073ffffffffffffffffffffffffffffffffffffffff168152602001600081526020016000815260200160008152602001600081526020016000151581525090565b6000604051905090565b600080fd5b600080fd5b600073ffffffffffffffffffffffffffffffffffffffff82169050919050565b60006133bf82613394565b9050919050565b6133cf816133b4565b81146133da57600080fd5b50565b6000813590506133ec816133c6565b92915050565b6000819050919050565b613405816133f2565b811461341057600080fd5b50565b600081359050613422816133fc565b92915050565b6000806040838503121561343f5761343e61338a565b5b600061344d858286016133dd565b925050602061345e85828601613413565b9150509250929050565b613471816133f2565b82525050565b600060208201905061348c6000830184613468565b92915050565b60007fffffffff0000000000000000000000000000000000000000000000000000000082169050919050565b6134c781613492565b81146134d257600080fd5b50565b6000813590506134e4816134be565b92915050565b600060208284031215613500576134ff61338a565b5b600061350e848285016134d5565b91505092915050565b60008115159050919050565b61352c81613517565b82525050565b60006020820190506135476000830184613523565b92915050565b6000602082840312156135635761356261338a565b5b600061357184828501613413565b91505092915050565b600081519050919050565b600082825260208201905092915050565b60005b838110156135b4578082015181840152602081019050613599565b60008484015250505050565b6000601f19601f8301169050919050565b60006135dc8261357a565b6135e68185613585565b93506135f6818560208601613596565b6135ff816135c0565b840191505092915050565b6000602082019050818103600083015261362481846135d1565b905092915050565b60006040820190506136416000830185613468565b61364e6020830184613468565b9392505050565b600080fd5b7f4e487b7100000000000000000000000000000000000000000000000000000000600052604160045260246000fd5b613692826135c0565b810181811067ffffffffffffffff821117156136b1576136b061365a565b5b80604052505050565b60006136c4613380565b90506136d08282613689565b919050565b600067ffffffffffffffff8211156136f0576136ef61365a565b5b602082029050602081019050919050565b600080fd5b6000613719613714846136d5565b6136ba565b9050808382526020820190506020840283018581111561373c5761373b613701565b5b835b8181101561376557806137518882613413565b84526020840193505060208101905061373e565b5050509392505050565b600082601f83011261378457613783613655565b5b8135613794848260208601613706565b91505092915050565b600080fd5b600067ffffffffffffffff8211156137bd576137bc61365a565b5b6137c6826135c0565b9050602081019050919050565b82818337600083830152505050565b60006137f56137f0846137a2565b6136ba565b9050828152602081018484840111156138115761381061379d565b5b61381c8482856137d3565b509392505050565b600082601f83011261383957613838613655565b5b81356138498482602086016137e2565b91505092915050565b600080600080600060a0868803121561386e5761386d61338a565b5b600061387c888289016133dd565b955050602061388d888289016133dd565b945050604086013567ffffffffffffffff8111156138ae576138ad61338f565b5b6138ba8882890161376f565b935050606086013567ffffffffffffffff8111156138db576138da61338f565b5b6138e78882890161376f565b925050608086013567ffffffffffffffff8111156139085761390761338f565b5b61391488828901613824565b9150509295509295909350565b6000819050919050565b600061394661394161393c84613394565b613921565b613394565b9050919050565b60006139588261392b565b9050919050565b600061396a8261394d565b9050919050565b61397a8161395f565b82525050565b60006020820190506139956000830184613971565b92915050565b6000602082840312156139b1576139b061338a565b5b60006139bf848285016133dd565b91505092915050565b600080604083850312156139df576139de61338a565b5b60006139ed85828601613413565b92505060206139fe85828601613413565b9150509250929050565b613a11816133b4565b82525050565b613a20816133f2565b82525050565b613a2f81613517565b82525050565b606082016000820151613a4b6000850182613a08565b506020820151613a5e6020850182613a17565b506040820151613a716040850182613a26565b50505050565b6000606082019050613a8c6000830184613a35565b92915050565b600067ffffffffffffffff821115613aad57613aac61365a565b5b602082029050602081019050919050565b6000613ad1613acc84613a92565b6136ba565b90508083825260208201905060208402830185811115613af457613af3613701565b5b835b81811015613b1d5780613b0988826133dd565b845260208401935050602081019050613af6565b5050509392505050565b600082601f830112613b3c57613b3b613655565b5b8135613b4c848260208601613abe565b91505092915050565b60008060408385031215613b6c57613b6b61338a565b5b600083013567ffffffffffffffff811115613b8a57613b8961338f565b5b613b9685828601613b27565b925050602083013567ffffffffffffffff811115613bb757613bb661338f565b5b613bc38582860161376f565b9150509250929050565b600081519050919050565b600082825260208201905092915050565b6000819050602082019050919050565b6000613c058383613a17565b60208301905092915050565b6000602082019050919050565b6000613c2982613bcd565b613c338185613bd8565b9350613c3e83613be9565b8060005b83811015613c6f578151613c568882613bf9565b9750613c6183613c11565b925050600181019050613c42565b5085935050505092915050565b60006020820190508181036000830152613c968184613c1e565b905092915050565b6000613ca98261394d565b9050919050565b613cb981613c9e565b82525050565b6000602082019050613cd46000830184613cb0565b92915050565b600080600060608486031215613cf357613cf261338a565b5b6000613d01868287016133dd565b9350506020613d1286828701613413565b9250506040613d2386828701613413565b9150509250925092565b60c082016000820151613d436000850182613a08565b506020820151613d566020850182613a17565b506040820151613d696040850182613a17565b506060820151613d7c6060850182613a17565b506080820151613d8f6080850182613a17565b5060a0820151613da260a0850182613a26565b50505050565b600060c082019050613dbd6000830184613d2d565b92915050565b613dcc816133b4565b82525050565b6000602082019050613de76000830184613dc3565b92915050565b600067ffffffffffffffff821115613e0857613e0761365a565b5b613e11826135c0565b9050602081019050919050565b6000613e31613e2c84613ded565b6136ba565b905082815260208101848484011115613e4d57613e4c61379d565b5b613e588482856137d3565b509392505050565b600082601f830112613e7557613e74613655565b5b8135613e85848260208601613e1e565b91505092915050565b600080600080600080600060e0888a031215613ead57613eac61338a565b5b6000613ebb8a828b016133dd565b9750506020613ecc8a828b016133dd565b9650506040613edd8a828b01613413565b9550506060613eee8a828b01613413565b9450506080613eff8a828b01613413565b93505060a0613f108a828b01613413565b92505060c088013567ffffffffffffffff811115613f3157613f3061338f565b5b613f3d8a828b01613e60565b91505092959891949750929550565b613f5581613517565b8114613f6057600080fd5b50565b600081359050613f7281613f4c565b92915050565b60008060408385031215613f8f57613f8e61338a565b5b6000613f9d858286016133dd565b9250506020613fae85828601613f63565b9150509250929050565b600080600060608486031215613fd157613fd061338a565b5b6000613fdf86828701613413565b9350506020613ff086828701613413565b925050604061400186828701613413565b9150509250925092565b60006060820190506140206000830186613dc3565b61402d6020830185613468565b61403a6040830184613523565b949350505050565b600080604083850312156140595761405861338a565b5b600061406785828601613413565b925050602061407885828601613f63565b9150509250929050565b600080604083850312156140995761409861338a565b5b60006140a7858286016133dd565b92505060206140b8858286016133dd565b9150509250929050565b600080600080600060a086880312156140de576140dd61338a565b5b60006140ec888289016133dd565b95505060206140fd888289016133dd565b945050604061410e88828901613413565b935050606061411f88828901613413565b925050608086013567ffffffffffffffff8111156141405761413f61338f565b5b61414c88828901613824565b9150509295509295909350565b600080600080608085870312156141735761417261338a565b5b6000614181878288016133dd565b945050602061419287828801613413565b93505060406141a387828801613413565b92505060606141b487828801613413565b91505092959194509250565b600060c0820190506141d56000830189613dc3565b6141e26020830188613468565b6141ef6040830187613468565b6141fc6060830186613468565b6142096080830185613468565b61421660a0830184613523565b979650505050505050565b7f4e487b7100000000000000000000000000000000000000000000000000000000600052602260045260246000fd5b6000600282049050600182168061426857607f821691505b60208210810361427b5761427a614221565b5b50919050565b7f4973206974206e6f7420736f6c64206f75743f00000000000000000000000000600082015250565b60006142b7601383613585565b91506142c282614281565b602082019050919050565b600060208201905081810360008301526142e6816142aa565b9050919050565b6000815190506142fc816133fc565b92915050565b6000602082840312156143185761431761338a565b5b6000614326848285016142ed565b91505092915050565b7f455243313135353a2063616c6c6572206973206e6f7420746f6b656e206f776e60008201527f6572206f7220617070726f766564000000000000000000000000000000000000602082015250565b600061438b602e83613585565b91506143968261432f565b604082019050919050565b600060208201905081810360008301526143ba8161437e565b9050919050565b7f53616c6543413f3f3f3f00000000000000000000000000000000000000000000600082015250565b60006143f7600a83613585565b9150614402826143c1565b602082019050919050565b60006020820190508181036000830152614426816143ea565b9050919050565b7f455243313135353a206163636f756e747320616e6420696473206c656e67746860008201527f206d69736d617463680000000000000000000000000000000000000000000000602082015250565b6000614489602983613585565b91506144948261442d565b604082019050919050565b600060208201905081810360008301526144b88161447c565b9050919050565b7f4e487b7100000000000000000000000000000000000000000000000000000000600052603260045260246000fd5b7f4e487b7100000000000000000000000000000000000000000000000000000000600052601160045260246000fd5b6000614528826133f2565b91507fffffffffffffffffffffffffffffffffffffffffffffffffffffffffffffffff820361455a576145596144ee565b5b600182019050919050565b7f6861766520616c7265616479206265656e206973737565640000000000000000600082015250565b600061459b601883613585565b91506145a682614565565b602082019050919050565b600060208201905081810360008301526145ca8161458e565b9050919050565b7f49742773206e6f7420796f752e00000000000000000000000000000000000000600082015250565b6000614607600d83613585565b9150614612826145d1565b602082019050919050565b60006020820190508181036000830152614636816145fa565b9050919050565b60008190508160005260206000209050919050565b60006020601f8301049050919050565b600082821b905092915050565b60006008830261469f7fffffffffffffffffffffffffffffffffffffffffffffffffffffffffffffffff82614662565b6146a98683614662565b95508019841693508086168417925050509392505050565b60006146dc6146d76146d2846133f2565b613921565b6133f2565b9050919050565b6000819050919050565b6146f6836146c1565b61470a614702826146e3565b84845461466f565b825550505050565b600090565b61471f614712565b61472a8184846146ed565b505050565b5b8181101561474e57614743600082614717565b600181019050614730565b5050565b601f821115614793576147648161463d565b61476d84614652565b8101602085101561477c578190505b61479061478885614652565b83018261472f565b50505b505050565b600082821c905092915050565b60006147b660001984600802614798565b1980831691505092915050565b60006147cf83836147a5565b9150826002028217905092915050565b6147e88261357a565b67ffffffffffffffff8111156148015761480061365a565b5b61480b8254614250565b614816828285614752565b600060209050601f8311600181146148495760008415614837578287015190505b61484185826147c3565b8655506148a9565b601f1984166148578661463d565b60005b8281101561487f5784890151825560018201915060208501945060208101905061485a565b8683101561489c5784890151614898601f8916826147a5565b8355505b6001600288020188555050505b505050505050565b600060c0820190506148c66000830189613dc3565b6148d36020830188613468565b6148e06040830187613468565b6148ed6060830186613468565b6148fa6080830185613468565b81810360a083015261490c81846135d1565b9050979650505050505050565b7f6e6f20616d6f756e742e00000000000000000000000000000000000000000000600082015250565b600061494f600a83613585565b915061495a82614919565b602082019050919050565b6000602082019050818103600083015261497e81614942565b9050919050565b6000614990826133f2565b915061499b836133f2565b92508282039050818111156149b3576149b26144ee565b5b92915050565b60006149c4826133f2565b91506149cf836133f2565b92508282026149dd816133f2565b915082820484148315176149f4576149f36144ee565b5b5092915050565b7f54686520766f74696e6720706572696f64206973206d6178696d756d20756e7460008201527f696c206f6e6520646179206265666f72652e0000000000000000000000000000602082015250565b6000614a57603283613585565b9150614a62826149fb565b604082019050919050565b60006020820190508181036000830152614a8681614a4a565b9050919050565b7f546865726520697320616c7265616479206120766f74652e0000000000000000600082015250565b6000614ac3601883613585565b9150614ace82614a8d565b602082019050919050565b60006020820190508181036000830152614af281614ab6565b9050919050565b6000614b04826133f2565b9150614b0f836133f2565b9250828201905080821115614b2757614b266144ee565b5b92915050565b7f497320697420736f6c64206f75743f0000000000000000000000000000000000600082015250565b6000614b63600f83613585565b9150614b6e82614b2d565b602082019050919050565b60006020820190508181036000830152614b9281614b56565b9050919050565b7f54696d65204f75743f0000000000000000000000000000000000000000000000600082015250565b6000614bcf600983613585565b9150614bda82614b99565b602082019050919050565b60006020820190508181036000830152614bfe81614bc2565b9050919050565b7f6e6f20616d6f756e740000000000000000000000000000000000000000000000600082015250565b6000614c3b600983613585565b9150614c4682614c05565b602082019050919050565b60006020820190508181036000830152614c6a81614c2e565b9050919050565b7f656e642046756e6464696e673f00000000000000000000000000000000000000600082015250565b6000614ca7600d83613585565b9150614cb282614c71565b602082019050919050565b60006020820190508181036000830152614cd681614c9a565b9050919050565b7f46756e6464696e6743413f3f3f3f000000000000000000000000000000000000600082015250565b6000614d13600e83613585565b9150614d1e82614cdd565b602082019050919050565b60006020820190508181036000830152614d4281614d06565b9050919050565b7f52756e206f6e6365206f6e6c7920696e2074686520626567696e6e696e670000600082015250565b6000614d7f601e83613585565b9150614d8a82614d49565b602082019050919050565b60006020820190508181036000830152614dae81614d72565b9050919050565b7f4f776e61626c653a206e6577206f776e657220697320746865207a65726f206160008201527f6464726573730000000000000000000000000000000000000000000000000000602082015250565b6000614e11602683613585565b9150614e1c82614db5565b604082019050919050565b60006020820190508181036000830152614e4081614e04565b9050919050565b6000608082019050614e5c6000830187613dc3565b614e696020830186613468565b614e766040830185613468565b614e836060830184613468565b95945050505050565b7f54696d65204f7574000000000000000000000000000000000000000000000000600082015250565b6000614ec2600883613585565b9150614ecd82614e8c565b602082019050919050565b60006020820190508181036000830152614ef181614eb5565b9050919050565b7f43726561746f727320617265206e6f7420616c6c6f77656420746f207061727460008201527f6963697061746500000000000000000000000000000000000000000000000000602082015250565b6000614f54602783613585565b9150614f5f82614ef8565b604082019050919050565b60006020820190508181036000830152614f8381614f47565b9050919050565b7f455243313135353a2061646472657373207a65726f206973206e6f742061207660008201527f616c6964206f776e657200000000000000000000000000000000000000000000602082015250565b6000614fe6602a83613585565b9150614ff182614f8a565b604082019050919050565b6000602082019050818103600083015261501581614fd9565b9050919050565b7f455243313135353a2069647320616e6420616d6f756e7473206c656e6774682060008201527f6d69736d61746368000000000000000000000000000000000000000000000000602082015250565b6000615078602883613585565b91506150838261501c565b604082019050919050565b600060208201905081810360008301526150a78161506b565b9050919050565b7f455243313135353a207472616e7366657220746f20746865207a65726f20616460008201527f6472657373000000000000000000000000000000000000000000000000000000602082015250565b600061510a602583613585565b9150615115826150ae565b604082019050919050565b60006020820190508181036000830152615139816150fd565b9050919050565b7f455243313135353a20696e73756666696369656e742062616c616e636520666f60008201527f72207472616e7366657200000000000000000000000000000000000000000000602082015250565b600061519c602a83613585565b91506151a782615140565b604082019050919050565b600060208201905081810360008301526151cb8161518f565b9050919050565b600060408201905081810360008301526151ec8185613c1e565b905081810360208301526152008184613c1e565b90509392505050565b7f4f776e61626c653a2063616c6c6572206973206e6f7420746865206f776e6572600082015250565b600061523f602083613585565b915061524a82615209565b602082019050919050565b6000602082019050818103600083015261526e81615232565b9050919050565b7f455243313135353a206275726e2066726f6d20746865207a65726f206164647260008201527f6573730000000000000000000000000000000000000000000000000000000000602082015250565b60006152d1602383613585565b91506152dc82615275565b604082019050919050565b60006020820190508181036000830152615300816152c4565b9050919050565b7f455243313135353a206275726e20616d6f756e7420657863656564732062616c60008201527f616e636500000000000000000000000000000000000000000000000000000000602082015250565b6000615363602483613585565b915061536e82615307565b604082019050919050565b6000602082019050818103600083015261539281615356565b9050919050565b7f4e487b7100000000000000000000000000000000000000000000000000000000600052601260045260246000fd5b60006153d3826133f2565b91506153de836133f2565b9250826153ee576153ed615399565b5b828204905092915050565b7f455243313135353a206d696e7420746f20746865207a65726f2061646472657360008201527f7300000000000000000000000000000000000000000000000000000000000000602082015250565b6000615455602183613585565b9150615460826153f9565b604082019050919050565b6000602082019050818103600083015261548481615448565b9050919050565b7f455243313135353a2073657474696e6720617070726f76616c2073746174757360008201527f20666f722073656c660000000000000000000000000000000000000000000000602082015250565b60006154e7602983613585565b91506154f28261548b565b604082019050919050565b60006020820190508181036000830152615516816154da565b9050919050565b600081519050919050565b600082825260208201905092915050565b60006155448261551d565b61554e8185615528565b935061555e818560208601613596565b615567816135c0565b840191505092915050565b600060a0820190506155876000830188613dc3565b6155946020830187613dc3565b81810360408301526155a68186613c1e565b905081810360608301526155ba8185613c1e565b905081810360808301526155ce8184615539565b90509695505050505050565b6000815190506155e9816134be565b92915050565b6000602082840312156156055761560461338a565b5b6000615613848285016155da565b91505092915050565b60008160e01c9050919050565b600060033d11156156485760046000803e61564560005161561c565b90505b90565b600060443d106156d85761565d613380565b60043d036004823e80513d602482011167ffffffffffffffff821117156156855750506156d8565b808201805167ffffffffffffffff8111156156a357505050506156d8565b80602083010160043d0385018111156156c05750505050506156d8565b6156cf82602001850186613689565b82955050505050505b90565b7f455243313135353a207472616e7366657220746f206e6f6e2d4552433131353560008201527f526563656976657220696d706c656d656e746572000000000000000000000000602082015250565b6000615737603483613585565b9150615742826156db565b604082019050919050565b600060208201905081810360008301526157668161572a565b9050919050565b7f455243313135353a204552433131353552656365697665722072656a6563746560008201527f6420746f6b656e73000000000000000000000000000000000000000000000000602082015250565b60006157c9602883613585565b91506157d48261576d565b604082019050919050565b600060208201905081810360008301526157f8816157bc565b9050919050565b600060a0820190506158146000830188613dc3565b6158216020830187613dc3565b61582e6040830186613468565b61583b6060830185613468565b818103608083015261584d8184615539565b9050969550505050505056fea2646970667358221220f1ae625c38211eee8e92b8137a2df7947c482548db0a50ba426ab7ffce16584c64736f6c63430008110033",
			"opcodes": "PUSH1 0x80 PUSH1 0x40 MSTORE CALLVALUE DUP1 ISZERO PUSH3 0x11 JUMPI PUSH1 0x0 DUP1 REVERT JUMPDEST POP PUSH1 0x40 MLOAD DUP1 PUSH1 0x20 ADD PUSH1 0x40 MSTORE DUP1 PUSH1 0x0 DUP2 MSTORE POP PUSH3 0x33 DUP2 PUSH3 0x5A PUSH1 0x20 SHL PUSH1 0x20 SHR JUMP JUMPDEST POP PUSH3 0x54 PUSH3 0x48 PUSH3 0x6F PUSH1 0x20 SHL PUSH1 0x20 SHR JUMP JUMPDEST PUSH3 0x77 PUSH1 0x20 SHL PUSH1 0x20 SHR JUMP JUMPDEST PUSH3 0x49E JUMP JUMPDEST DUP1 PUSH1 0x2 SWAP1 DUP2 PUSH3 0x6B SWAP2 SWAP1 PUSH3 0x3B7 JUMP JUMPDEST POP POP JUMP JUMPDEST PUSH1 0x0 CALLER SWAP1 POP SWAP1 JUMP JUMPDEST PUSH1 0x0 PUSH1 0x3 PUSH1 0x0 SWAP1 SLOAD SWAP1 PUSH2 0x100 EXP SWAP1 DIV PUSH20 0xFFFFFFFFFFFFFFFFFFFFFFFFFFFFFFFFFFFFFFFF AND SWAP1 POP DUP2 PUSH1 0x3 PUSH1 0x0 PUSH2 0x100 EXP DUP2 SLOAD DUP2 PUSH20 0xFFFFFFFFFFFFFFFFFFFFFFFFFFFFFFFFFFFFFFFF MUL NOT AND SWAP1 DUP4 PUSH20 0xFFFFFFFFFFFFFFFFFFFFFFFFFFFFFFFFFFFFFFFF AND MUL OR SWAP1 SSTORE POP DUP2 PUSH20 0xFFFFFFFFFFFFFFFFFFFFFFFFFFFFFFFFFFFFFFFF AND DUP2 PUSH20 0xFFFFFFFFFFFFFFFFFFFFFFFFFFFFFFFFFFFFFFFF AND PUSH32 0x8BE0079C531659141344CD1FD0A4F28419497F9722A3DAAFE3B4186F6B6457E0 PUSH1 0x40 MLOAD PUSH1 0x40 MLOAD DUP1 SWAP2 SUB SWAP1 LOG3 POP POP JUMP JUMPDEST PUSH1 0x0 DUP2 MLOAD SWAP1 POP SWAP2 SWAP1 POP JUMP JUMPDEST PUSH32 0x4E487B7100000000000000000000000000000000000000000000000000000000 PUSH1 0x0 MSTORE PUSH1 0x41 PUSH1 0x4 MSTORE PUSH1 0x24 PUSH1 0x0 REVERT JUMPDEST PUSH32 0x4E487B7100000000000000000000000000000000000000000000000000000000 PUSH1 0x0 MSTORE PUSH1 0x22 PUSH1 0x4 MSTORE PUSH1 0x24 PUSH1 0x0 REVERT JUMPDEST PUSH1 0x0 PUSH1 0x2 DUP3 DIV SWAP1 POP PUSH1 0x1 DUP3 AND DUP1 PUSH3 0x1BF JUMPI PUSH1 0x7F DUP3 AND SWAP2 POP JUMPDEST PUSH1 0x20 DUP3 LT DUP2 SUB PUSH3 0x1D5 JUMPI PUSH3 0x1D4 PUSH3 0x177 JUMP JUMPDEST JUMPDEST POP SWAP2 SWAP1 POP JUMP JUMPDEST PUSH1 0x0 DUP2 SWAP1 POP DUP2 PUSH1 0x0 MSTORE PUSH1 0x20 PUSH1 0x0 KECCAK256 SWAP1 POP SWAP2 SWAP1 POP JUMP JUMPDEST PUSH1 0x0 PUSH1 0x20 PUSH1 0x1F DUP4 ADD DIV SWAP1 POP SWAP2 SWAP1 POP JUMP JUMPDEST PUSH1 0x0 DUP3 DUP3 SHL SWAP1 POP SWAP3 SWAP2 POP POP JUMP JUMPDEST PUSH1 0x0 PUSH1 0x8 DUP4 MUL PUSH3 0x23F PUSH32 0xFFFFFFFFFFFFFFFFFFFFFFFFFFFFFFFFFFFFFFFFFFFFFFFFFFFFFFFFFFFFFFFF DUP3 PUSH3 0x200 JUMP JUMPDEST PUSH3 0x24B DUP7 DUP4 PUSH3 0x200 JUMP JUMPDEST SWAP6 POP DUP1 NOT DUP5 AND SWAP4 POP DUP1 DUP7 AND DUP5 OR SWAP3 POP POP POP SWAP4 SWAP3 POP POP POP JUMP JUMPDEST PUSH1 0x0 DUP2 SWAP1 POP SWAP2 SWAP1 POP JUMP JUMPDEST PUSH1 0x0 DUP2 SWAP1 POP SWAP2 SWAP1 POP JUMP JUMPDEST PUSH1 0x0 PUSH3 0x298 PUSH3 0x292 PUSH3 0x28C DUP5 PUSH3 0x263 JUMP JUMPDEST PUSH3 0x26D JUMP JUMPDEST PUSH3 0x263 JUMP JUMPDEST SWAP1 POP SWAP2 SWAP1 POP JUMP JUMPDEST PUSH1 0x0 DUP2 SWAP1 POP SWAP2 SWAP1 POP JUMP JUMPDEST PUSH3 0x2B4 DUP4 PUSH3 0x277 JUMP JUMPDEST PUSH3 0x2CC PUSH3 0x2C3 DUP3 PUSH3 0x29F JUMP JUMPDEST DUP5 DUP5 SLOAD PUSH3 0x20D JUMP JUMPDEST DUP3 SSTORE POP POP POP POP JUMP JUMPDEST PUSH1 0x0 SWAP1 JUMP JUMPDEST PUSH3 0x2E3 PUSH3 0x2D4 JUMP JUMPDEST PUSH3 0x2F0 DUP2 DUP5 DUP5 PUSH3 0x2A9 JUMP JUMPDEST POP POP POP JUMP JUMPDEST JUMPDEST DUP2 DUP2 LT ISZERO PUSH3 0x318 JUMPI PUSH3 0x30C PUSH1 0x0 DUP3 PUSH3 0x2D9 JUMP JUMPDEST PUSH1 0x1 DUP2 ADD SWAP1 POP PUSH3 0x2F6 JUMP JUMPDEST POP POP JUMP JUMPDEST PUSH1 0x1F DUP3 GT ISZERO PUSH3 0x367 JUMPI PUSH3 0x331 DUP2 PUSH3 0x1DB JUMP JUMPDEST PUSH3 0x33C DUP5 PUSH3 0x1F0 JUMP JUMPDEST DUP2 ADD PUSH1 0x20 DUP6 LT ISZERO PUSH3 0x34C JUMPI DUP2 SWAP1 POP JUMPDEST PUSH3 0x364 PUSH3 0x35B DUP6 PUSH3 0x1F0 JUMP JUMPDEST DUP4 ADD DUP3 PUSH3 0x2F5 JUMP JUMPDEST POP POP JUMPDEST POP POP POP JUMP JUMPDEST PUSH1 0x0 DUP3 DUP3 SHR SWAP1 POP SWAP3 SWAP2 POP POP JUMP JUMPDEST PUSH1 0x0 PUSH3 0x38C PUSH1 0x0 NOT DUP5 PUSH1 0x8 MUL PUSH3 0x36C JUMP JUMPDEST NOT DUP1 DUP4 AND SWAP2 POP POP SWAP3 SWAP2 POP POP JUMP JUMPDEST PUSH1 0x0 PUSH3 0x3A7 DUP4 DUP4 PUSH3 0x379 JUMP JUMPDEST SWAP2 POP DUP3 PUSH1 0x2 MUL DUP3 OR SWAP1 POP SWAP3 SWAP2 POP POP JUMP JUMPDEST PUSH3 0x3C2 DUP3 PUSH3 0x13D JUMP JUMPDEST PUSH8 0xFFFFFFFFFFFFFFFF DUP2 GT ISZERO PUSH3 0x3DE JUMPI PUSH3 0x3DD PUSH3 0x148 JUMP JUMPDEST JUMPDEST PUSH3 0x3EA DUP3 SLOAD PUSH3 0x1A6 JUMP JUMPDEST PUSH3 0x3F7 DUP3 DUP3 DUP6 PUSH3 0x31C JUMP JUMPDEST PUSH1 0x0 PUSH1 0x20 SWAP1 POP PUSH1 0x1F DUP4 GT PUSH1 0x1 DUP2 EQ PUSH3 0x42F JUMPI PUSH1 0x0 DUP5 ISZERO PUSH3 0x41A JUMPI DUP3 DUP8 ADD MLOAD SWAP1 POP JUMPDEST PUSH3 0x426 DUP6 DUP3 PUSH3 0x399 JUMP JUMPDEST DUP7 SSTORE POP PUSH3 0x496 JUMP JUMPDEST PUSH1 0x1F NOT DUP5 AND PUSH3 0x43F DUP7 PUSH3 0x1DB JUMP JUMPDEST PUSH1 0x0 JUMPDEST DUP3 DUP2 LT ISZERO PUSH3 0x469 JUMPI DUP5 DUP10 ADD MLOAD DUP3 SSTORE PUSH1 0x1 DUP3 ADD SWAP2 POP PUSH1 0x20 DUP6 ADD SWAP5 POP PUSH1 0x20 DUP2 ADD SWAP1 POP PUSH3 0x442 JUMP JUMPDEST DUP7 DUP4 LT ISZERO PUSH3 0x489 JUMPI DUP5 DUP10 ADD MLOAD PUSH3 0x485 PUSH1 0x1F DUP10 AND DUP3 PUSH3 0x379 JUMP JUMPDEST DUP4 SSTORE POP JUMPDEST PUSH1 0x1 PUSH1 0x2 DUP9 MUL ADD DUP9 SSTORE POP POP POP JUMPDEST POP POP POP POP POP POP JUMP JUMPDEST PUSH2 0x588F DUP1 PUSH3 0x4AE PUSH1 0x0 CODECOPY PUSH1 0x0 RETURN INVALID PUSH1 0x80 PUSH1 0x40 MSTORE CALLVALUE DUP1 ISZERO PUSH2 0x10 JUMPI PUSH1 0x0 DUP1 REVERT JUMPDEST POP PUSH1 0x4 CALLDATASIZE LT PUSH2 0x210 JUMPI PUSH1 0x0 CALLDATALOAD PUSH1 0xE0 SHR DUP1 PUSH4 0x8DA5CB5B GT PUSH2 0x125 JUMPI DUP1 PUSH4 0xD68AD7A0 GT PUSH2 0xAD JUMPI DUP1 PUSH4 0xF2FDE38B GT PUSH2 0x7C JUMPI DUP1 PUSH4 0xF2FDE38B EQ PUSH2 0x65A JUMPI DUP1 PUSH4 0xF4A3A92B EQ PUSH2 0x676 JUMPI DUP1 PUSH4 0xF8A14F46 EQ PUSH2 0x692 JUMPI DUP1 PUSH4 0xFAC333AC EQ PUSH2 0x6C7 JUMPI DUP1 PUSH4 0xFCC1FF5C EQ PUSH2 0x6F7 JUMPI PUSH2 0x210 JUMP JUMPDEST DUP1 PUSH4 0xD68AD7A0 EQ PUSH2 0x5C2 JUMPI DUP1 PUSH4 0xE29BE1A1 EQ PUSH2 0x5F2 JUMPI DUP1 PUSH4 0xE985E9C5 EQ PUSH2 0x60E JUMPI DUP1 PUSH4 0xF242432A EQ PUSH2 0x63E JUMPI PUSH2 0x210 JUMP JUMPDEST DUP1 PUSH4 0xBEB9EB30 GT PUSH2 0xF4 JUMPI DUP1 PUSH4 0xBEB9EB30 EQ PUSH2 0x50C JUMPI DUP1 PUSH4 0xC31F4B58 EQ PUSH2 0x528 JUMPI DUP1 PUSH4 0xC87B56DD EQ PUSH2 0x544 JUMPI DUP1 PUSH4 0xCFAAD27C EQ PUSH2 0x574 JUMPI DUP1 PUSH4 0xD198CC01 EQ PUSH2 0x5A6 JUMPI PUSH2 0x210 JUMP JUMPDEST DUP1 PUSH4 0x8DA5CB5B EQ PUSH2 0x486 JUMPI DUP1 PUSH4 0x9D835C5F EQ PUSH2 0x4A4 JUMPI DUP1 PUSH4 0xA22CB465 EQ PUSH2 0x4C0 JUMPI DUP1 PUSH4 0xAEE4A42A EQ PUSH2 0x4DC JUMPI PUSH2 0x210 JUMP JUMPDEST DUP1 PUSH4 0x46A0D50A GT PUSH2 0x1A8 JUMPI DUP1 PUSH4 0x61B1B23C GT PUSH2 0x177 JUMPI DUP1 PUSH4 0x61B1B23C EQ PUSH2 0x3F4 JUMPI DUP1 PUSH4 0x715018A6 EQ PUSH2 0x412 JUMPI DUP1 PUSH4 0x77379082 EQ PUSH2 0x41C JUMPI DUP1 PUSH4 0x7ABFEE42 EQ PUSH2 0x438 JUMPI DUP1 PUSH4 0x8D63193D EQ PUSH2 0x456 JUMPI PUSH2 0x210 JUMP JUMPDEST DUP1 PUSH4 0x46A0D50A EQ PUSH2 0x348 JUMPI DUP1 PUSH4 0x4B77F8D0 EQ PUSH2 0x378 JUMPI DUP1 PUSH4 0x4E1273F4 EQ PUSH2 0x394 JUMPI DUP1 PUSH4 0x4F4EACD8 EQ PUSH2 0x3C4 JUMPI PUSH2 0x210 JUMP JUMPDEST DUP1 PUSH4 0x2374FDCF GT PUSH2 0x1E4 JUMPI DUP1 PUSH4 0x2374FDCF EQ PUSH2 0x2D6 JUMPI DUP1 PUSH4 0x2EB2C2D6 EQ PUSH2 0x2F2 JUMPI DUP1 PUSH4 0x325D20C4 EQ PUSH2 0x30E JUMPI DUP1 PUSH4 0x4672A602 EQ PUSH2 0x32C JUMPI PUSH2 0x210 JUMP JUMPDEST DUP1 PUSH3 0xFDD58E EQ PUSH2 0x215 JUMPI DUP1 PUSH4 0x1FFC9A7 EQ PUSH2 0x245 JUMPI DUP1 PUSH4 0xE89341C EQ PUSH2 0x275 JUMPI DUP1 PUSH4 0xFE2A68D EQ PUSH2 0x2A5 JUMPI JUMPDEST PUSH1 0x0 DUP1 REVERT JUMPDEST PUSH2 0x22F PUSH1 0x4 DUP1 CALLDATASIZE SUB DUP2 ADD SWAP1 PUSH2 0x22A SWAP2 SWAP1 PUSH2 0x3428 JUMP JUMPDEST PUSH2 0x713 JUMP JUMPDEST PUSH1 0x40 MLOAD PUSH2 0x23C SWAP2 SWAP1 PUSH2 0x3477 JUMP JUMPDEST PUSH1 0x40 MLOAD DUP1 SWAP2 SUB SWAP1 RETURN JUMPDEST PUSH2 0x25F PUSH1 0x4 DUP1 CALLDATASIZE SUB DUP2 ADD SWAP1 PUSH2 0x25A SWAP2 SWAP1 PUSH2 0x34EA JUMP JUMPDEST PUSH2 0x727 JUMP JUMPDEST PUSH1 0x40 MLOAD PUSH2 0x26C SWAP2 SWAP1 PUSH2 0x3532 JUMP JUMPDEST PUSH1 0x40 MLOAD DUP1 SWAP2 SUB SWAP1 RETURN JUMPDEST PUSH2 0x28F PUSH1 0x4 DUP1 CALLDATASIZE SUB DUP2 ADD SWAP1 PUSH2 0x28A SWAP2 SWAP1 PUSH2 0x354D JUMP JUMPDEST PUSH2 0x809 JUMP JUMPDEST PUSH1 0x40 MLOAD PUSH2 0x29C SWAP2 SWAP1 PUSH2 0x360A JUMP JUMPDEST PUSH1 0x40 MLOAD DUP1 SWAP2 SUB SWAP1 RETURN JUMPDEST PUSH2 0x2BF PUSH1 0x4 DUP1 CALLDATASIZE SUB DUP2 ADD SWAP1 PUSH2 0x2BA SWAP2 SWAP1 PUSH2 0x354D JUMP JUMPDEST PUSH2 0x89D JUMP JUMPDEST PUSH1 0x40 MLOAD PUSH2 0x2CD SWAP3 SWAP2 SWAP1 PUSH2 0x362C JUMP JUMPDEST PUSH1 0x40 MLOAD DUP1 SWAP2 SUB SWAP1 RETURN JUMPDEST PUSH2 0x2F0 PUSH1 0x4 DUP1 CALLDATASIZE SUB DUP2 ADD SWAP1 PUSH2 0x2EB SWAP2 SWAP1 PUSH2 0x354D JUMP JUMPDEST PUSH2 0x8C1 JUMP JUMPDEST STOP JUMPDEST PUSH2 0x30C PUSH1 0x4 DUP1 CALLDATASIZE SUB DUP2 ADD SWAP1 PUSH2 0x307 SWAP2 SWAP1 PUSH2 0x3852 JUMP JUMPDEST PUSH2 0xA32 JUMP JUMPDEST STOP JUMPDEST PUSH2 0x316 PUSH2 0xAD3 JUMP JUMPDEST PUSH1 0x40 MLOAD PUSH2 0x323 SWAP2 SWAP1 PUSH2 0x3980 JUMP JUMPDEST PUSH1 0x40 MLOAD DUP1 SWAP2 SUB SWAP1 RETURN JUMPDEST PUSH2 0x346 PUSH1 0x4 DUP1 CALLDATASIZE SUB DUP2 ADD SWAP1 PUSH2 0x341 SWAP2 SWAP1 PUSH2 0x399B JUMP JUMPDEST PUSH2 0xAF9 JUMP JUMPDEST STOP JUMPDEST PUSH2 0x362 PUSH1 0x4 DUP1 CALLDATASIZE SUB DUP2 ADD SWAP1 PUSH2 0x35D SWAP2 SWAP1 PUSH2 0x39C8 JUMP JUMPDEST PUSH2 0xBAB JUMP JUMPDEST PUSH1 0x40 MLOAD PUSH2 0x36F SWAP2 SWAP1 PUSH2 0x3A77 JUMP JUMPDEST PUSH1 0x40 MLOAD DUP1 SWAP2 SUB SWAP1 RETURN JUMPDEST PUSH2 0x392 PUSH1 0x4 DUP1 CALLDATASIZE SUB DUP2 ADD SWAP1 PUSH2 0x38D SWAP2 SWAP1 PUSH2 0x399B JUMP JUMPDEST PUSH2 0xC65 JUMP JUMPDEST STOP JUMPDEST PUSH2 0x3AE PUSH1 0x4 DUP1 CALLDATASIZE SUB DUP2 ADD SWAP1 PUSH2 0x3A9 SWAP2 SWAP1 PUSH2 0x3B55 JUMP JUMPDEST PUSH2 0xC73 JUMP JUMPDEST PUSH1 0x40 MLOAD PUSH2 0x3BB SWAP2 SWAP1 PUSH2 0x3C7C JUMP JUMPDEST PUSH1 0x40 MLOAD DUP1 SWAP2 SUB SWAP1 RETURN JUMPDEST PUSH2 0x3DE PUSH1 0x4 DUP1 CALLDATASIZE SUB DUP2 ADD SWAP1 PUSH2 0x3D9 SWAP2 SWAP1 PUSH2 0x354D JUMP JUMPDEST PUSH2 0xD8C JUMP JUMPDEST PUSH1 0x40 MLOAD PUSH2 0x3EB SWAP2 SWAP1 PUSH2 0x3477 JUMP JUMPDEST PUSH1 0x40 MLOAD DUP1 SWAP2 SUB SWAP1 RETURN JUMPDEST PUSH2 0x3FC PUSH2 0xDAC JUMP JUMPDEST PUSH1 0x40 MLOAD PUSH2 0x409 SWAP2 SWAP1 PUSH2 0x3CBF JUMP JUMPDEST PUSH1 0x40 MLOAD DUP1 SWAP2 SUB SWAP1 RETURN JUMPDEST PUSH2 0x41A PUSH2 0xDD2 JUMP JUMPDEST STOP JUMPDEST PUSH2 0x436 PUSH1 0x4 DUP1 CALLDATASIZE SUB DUP2 ADD SWAP1 PUSH2 0x431 SWAP2 SWAP1 PUSH2 0x3CDA JUMP JUMPDEST PUSH2 0xDE6 JUMP JUMPDEST STOP JUMPDEST PUSH2 0x440 PUSH2 0xE50 JUMP JUMPDEST PUSH1 0x40 MLOAD PUSH2 0x44D SWAP2 SWAP1 PUSH2 0x3C7C JUMP JUMPDEST PUSH1 0x40 MLOAD DUP1 SWAP2 SUB SWAP1 RETURN JUMPDEST PUSH2 0x470 PUSH1 0x4 DUP1 CALLDATASIZE SUB DUP2 ADD SWAP1 PUSH2 0x46B SWAP2 SWAP1 PUSH2 0x354D JUMP JUMPDEST PUSH2 0xEA8 JUMP JUMPDEST PUSH1 0x40 MLOAD PUSH2 0x47D SWAP2 SWAP1 PUSH2 0x3DA8 JUMP JUMPDEST PUSH1 0x40 MLOAD DUP1 SWAP2 SUB SWAP1 RETURN JUMPDEST PUSH2 0x48E PUSH2 0xF6E JUMP JUMPDEST PUSH1 0x40 MLOAD PUSH2 0x49B SWAP2 SWAP1 PUSH2 0x3DD2 JUMP JUMPDEST PUSH1 0x40 MLOAD DUP1 SWAP2 SUB SWAP1 RETURN JUMPDEST PUSH2 0x4BE PUSH1 0x4 DUP1 CALLDATASIZE SUB DUP2 ADD SWAP1 PUSH2 0x4B9 SWAP2 SWAP1 PUSH2 0x3E8E JUMP JUMPDEST PUSH2 0xF98 JUMP JUMPDEST STOP JUMPDEST PUSH2 0x4DA PUSH1 0x4 DUP1 CALLDATASIZE SUB DUP2 ADD SWAP1 PUSH2 0x4D5 SWAP2 SWAP1 PUSH2 0x3F78 JUMP JUMPDEST PUSH2 0x120B JUMP JUMPDEST STOP JUMPDEST PUSH2 0x4F6 PUSH1 0x4 DUP1 CALLDATASIZE SUB DUP2 ADD SWAP1 PUSH2 0x4F1 SWAP2 SWAP1 PUSH2 0x354D JUMP JUMPDEST PUSH2 0x1221 JUMP JUMPDEST PUSH1 0x40 MLOAD PUSH2 0x503 SWAP2 SWAP1 PUSH2 0x3477 JUMP JUMPDEST PUSH1 0x40 MLOAD DUP1 SWAP2 SUB SWAP1 RETURN JUMPDEST PUSH2 0x526 PUSH1 0x4 DUP1 CALLDATASIZE SUB DUP2 ADD SWAP1 PUSH2 0x521 SWAP2 SWAP1 PUSH2 0x3FB8 JUMP JUMPDEST PUSH2 0x123E JUMP JUMPDEST STOP JUMPDEST PUSH2 0x542 PUSH1 0x4 DUP1 CALLDATASIZE SUB DUP2 ADD SWAP1 PUSH2 0x53D SWAP2 SWAP1 PUSH2 0x354D JUMP JUMPDEST PUSH2 0x13A8 JUMP JUMPDEST STOP JUMPDEST PUSH2 0x55E PUSH1 0x4 DUP1 CALLDATASIZE SUB DUP2 ADD SWAP1 PUSH2 0x559 SWAP2 SWAP1 PUSH2 0x354D JUMP JUMPDEST PUSH2 0x1519 JUMP JUMPDEST PUSH1 0x40 MLOAD PUSH2 0x56B SWAP2 SWAP1 PUSH2 0x360A JUMP JUMPDEST PUSH1 0x40 MLOAD DUP1 SWAP2 SUB SWAP1 RETURN JUMPDEST PUSH2 0x58E PUSH1 0x4 DUP1 CALLDATASIZE SUB DUP2 ADD SWAP1 PUSH2 0x589 SWAP2 SWAP1 PUSH2 0x39C8 JUMP JUMPDEST PUSH2 0x15BE JUMP JUMPDEST PUSH1 0x40 MLOAD PUSH2 0x59D SWAP4 SWAP3 SWAP2 SWAP1 PUSH2 0x400B JUMP JUMPDEST PUSH1 0x40 MLOAD DUP1 SWAP2 SUB SWAP1 RETURN JUMPDEST PUSH2 0x5C0 PUSH1 0x4 DUP1 CALLDATASIZE SUB DUP2 ADD SWAP1 PUSH2 0x5BB SWAP2 SWAP1 PUSH2 0x4042 JUMP JUMPDEST PUSH2 0x1622 JUMP JUMPDEST STOP JUMPDEST PUSH2 0x5DC PUSH1 0x4 DUP1 CALLDATASIZE SUB DUP2 ADD SWAP1 PUSH2 0x5D7 SWAP2 SWAP1 PUSH2 0x354D JUMP JUMPDEST PUSH2 0x17A1 JUMP JUMPDEST PUSH1 0x40 MLOAD PUSH2 0x5E9 SWAP2 SWAP1 PUSH2 0x3477 JUMP JUMPDEST PUSH1 0x40 MLOAD DUP1 SWAP2 SUB SWAP1 RETURN JUMPDEST PUSH2 0x60C PUSH1 0x4 DUP1 CALLDATASIZE SUB DUP2 ADD SWAP1 PUSH2 0x607 SWAP2 SWAP1 PUSH2 0x399B JUMP JUMPDEST PUSH2 0x17B9 JUMP JUMPDEST STOP JUMPDEST PUSH2 0x628 PUSH1 0x4 DUP1 CALLDATASIZE SUB DUP2 ADD SWAP1 PUSH2 0x623 SWAP2 SWAP1 PUSH2 0x4082 JUMP JUMPDEST PUSH2 0x193D JUMP JUMPDEST PUSH1 0x40 MLOAD PUSH2 0x635 SWAP2 SWAP1 PUSH2 0x3532 JUMP JUMPDEST PUSH1 0x40 MLOAD DUP1 SWAP2 SUB SWAP1 RETURN JUMPDEST PUSH2 0x658 PUSH1 0x4 DUP1 CALLDATASIZE SUB DUP2 ADD SWAP1 PUSH2 0x653 SWAP2 SWAP1 PUSH2 0x40C2 JUMP JUMPDEST PUSH2 0x19D1 JUMP JUMPDEST STOP JUMPDEST PUSH2 0x674 PUSH1 0x4 DUP1 CALLDATASIZE SUB DUP2 ADD SWAP1 PUSH2 0x66F SWAP2 SWAP1 PUSH2 0x399B JUMP JUMPDEST PUSH2 0x1A72 JUMP JUMPDEST STOP JUMPDEST PUSH2 0x690 PUSH1 0x4 DUP1 CALLDATASIZE SUB DUP2 ADD SWAP1 PUSH2 0x68B SWAP2 SWAP1 PUSH2 0x4159 JUMP JUMPDEST PUSH2 0x1AF5 JUMP JUMPDEST STOP JUMPDEST PUSH2 0x6AC PUSH1 0x4 DUP1 CALLDATASIZE SUB DUP2 ADD SWAP1 PUSH2 0x6A7 SWAP2 SWAP1 PUSH2 0x354D JUMP JUMPDEST PUSH2 0x1B99 JUMP JUMPDEST PUSH1 0x40 MLOAD PUSH2 0x6BE SWAP7 SWAP6 SWAP5 SWAP4 SWAP3 SWAP2 SWAP1 PUSH2 0x41C0 JUMP JUMPDEST PUSH1 0x40 MLOAD DUP1 SWAP2 SUB SWAP1 RETURN JUMPDEST PUSH2 0x6E1 PUSH1 0x4 DUP1 CALLDATASIZE SUB DUP2 ADD SWAP1 PUSH2 0x6DC SWAP2 SWAP1 PUSH2 0x354D JUMP JUMPDEST PUSH2 0x1C02 JUMP JUMPDEST PUSH1 0x40 MLOAD PUSH2 0x6EE SWAP2 SWAP1 PUSH2 0x3477 JUMP JUMPDEST PUSH1 0x40 MLOAD DUP1 SWAP2 SUB SWAP1 RETURN JUMPDEST PUSH2 0x711 PUSH1 0x4 DUP1 CALLDATASIZE SUB DUP2 ADD SWAP1 PUSH2 0x70C SWAP2 SWAP1 PUSH2 0x4042 JUMP JUMPDEST PUSH2 0x1C26 JUMP JUMPDEST STOP JUMPDEST PUSH1 0x0 PUSH2 0x71F DUP4 DUP4 PUSH2 0x2025 JUMP JUMPDEST SWAP1 POP SWAP3 SWAP2 POP POP JUMP JUMPDEST PUSH1 0x0 PUSH32 0xD9B67A2600000000000000000000000000000000000000000000000000000000 PUSH28 0xFFFFFFFFFFFFFFFFFFFFFFFFFFFFFFFFFFFFFFFFFFFFFFFFFFFFFFFF NOT AND DUP3 PUSH28 0xFFFFFFFFFFFFFFFFFFFFFFFFFFFFFFFFFFFFFFFFFFFFFFFFFFFFFFFF NOT AND EQ DUP1 PUSH2 0x7F2 JUMPI POP PUSH32 0xE89341C00000000000000000000000000000000000000000000000000000000 PUSH28 0xFFFFFFFFFFFFFFFFFFFFFFFFFFFFFFFFFFFFFFFFFFFFFFFFFFFFFFFF NOT AND DUP3 PUSH28 0xFFFFFFFFFFFFFFFFFFFFFFFFFFFFFFFFFFFFFFFFFFFFFFFFFFFFFFFF NOT AND EQ JUMPDEST DUP1 PUSH2 0x802 JUMPI POP PUSH2 0x801 DUP3 PUSH2 0x20ED JUMP JUMPDEST JUMPDEST SWAP1 POP SWAP2 SWAP1 POP JUMP JUMPDEST PUSH1 0x60 PUSH1 0x2 DUP1 SLOAD PUSH2 0x818 SWAP1 PUSH2 0x4250 JUMP JUMPDEST DUP1 PUSH1 0x1F ADD PUSH1 0x20 DUP1 SWAP2 DIV MUL PUSH1 0x20 ADD PUSH1 0x40 MLOAD SWAP1 DUP2 ADD PUSH1 0x40 MSTORE DUP1 SWAP3 SWAP2 SWAP1 DUP2 DUP2 MSTORE PUSH1 0x20 ADD DUP3 DUP1 SLOAD PUSH2 0x844 SWAP1 PUSH2 0x4250 JUMP JUMPDEST DUP1 ISZERO PUSH2 0x891 JUMPI DUP1 PUSH1 0x1F LT PUSH2 0x866 JUMPI PUSH2 0x100 DUP1 DUP4 SLOAD DIV MUL DUP4 MSTORE SWAP2 PUSH1 0x20 ADD SWAP2 PUSH2 0x891 JUMP JUMPDEST DUP3 ADD SWAP2 SWAP1 PUSH1 0x0 MSTORE PUSH1 0x20 PUSH1 0x0 KECCAK256 SWAP1 JUMPDEST DUP2 SLOAD DUP2 MSTORE SWAP1 PUSH1 0x1 ADD SWAP1 PUSH1 0x20 ADD DUP1 DUP4 GT PUSH2 0x874 JUMPI DUP3 SWAP1 SUB PUSH1 0x1F AND DUP3 ADD SWAP2 JUMPDEST POP POP POP POP POP SWAP1 POP SWAP2 SWAP1 POP JUMP JUMPDEST PUSH1 0xB PUSH1 0x20 MSTORE DUP1 PUSH1 0x0 MSTORE PUSH1 0x40 PUSH1 0x0 KECCAK256 PUSH1 0x0 SWAP2 POP SWAP1 POP DUP1 PUSH1 0x0 ADD SLOAD SWAP1 DUP1 PUSH1 0x1 ADD SLOAD SWAP1 POP DUP3 JUMP JUMPDEST PUSH1 0x0 PUSH2 0x903 PUSH1 0x8 PUSH1 0x0 DUP5 DUP2 MSTORE PUSH1 0x20 ADD SWAP1 DUP2 MSTORE PUSH1 0x20 ADD PUSH1 0x0 KECCAK256 PUSH1 0x0 ADD PUSH1 0x0 SWAP1 SLOAD SWAP1 PUSH2 0x100 EXP SWAP1 DIV PUSH20 0xFFFFFFFFFFFFFFFFFFFFFFFFFFFFFFFFFFFFFFFF AND DUP4 PUSH2 0x2025 JUMP JUMPDEST GT PUSH2 0x943 JUMPI PUSH1 0x40 MLOAD PUSH32 0x8C379A000000000000000000000000000000000000000000000000000000000 DUP2 MSTORE PUSH1 0x4 ADD PUSH2 0x93A SWAP1 PUSH2 0x42CD JUMP JUMPDEST PUSH1 0x40 MLOAD DUP1 SWAP2 SUB SWAP1 REVERT JUMPDEST PUSH1 0x8 PUSH1 0x0 DUP3 DUP2 MSTORE PUSH1 0x20 ADD SWAP1 DUP2 MSTORE PUSH1 0x20 ADD PUSH1 0x0 KECCAK256 PUSH1 0x1 ADD SLOAD PUSH1 0x6 PUSH1 0x0 SWAP1 SLOAD SWAP1 PUSH2 0x100 EXP SWAP1 DIV PUSH20 0xFFFFFFFFFFFFFFFFFFFFFFFFFFFFFFFFFFFFFFFF AND PUSH20 0xFFFFFFFFFFFFFFFFFFFFFFFFFFFFFFFFFFFFFFFF AND PUSH4 0x49E5465C DUP4 PUSH1 0x40 MLOAD DUP3 PUSH4 0xFFFFFFFF AND PUSH1 0xE0 SHL DUP2 MSTORE PUSH1 0x4 ADD PUSH2 0x9B5 SWAP2 SWAP1 PUSH2 0x3477 JUMP JUMPDEST PUSH1 0x20 PUSH1 0x40 MLOAD DUP1 DUP4 SUB DUP2 DUP7 GAS STATICCALL ISZERO DUP1 ISZERO PUSH2 0x9D2 JUMPI RETURNDATASIZE PUSH1 0x0 DUP1 RETURNDATACOPY RETURNDATASIZE PUSH1 0x0 REVERT JUMPDEST POP POP POP POP PUSH1 0x40 MLOAD RETURNDATASIZE PUSH1 0x1F NOT PUSH1 0x1F DUP3 ADD AND DUP3 ADD DUP1 PUSH1 0x40 MSTORE POP DUP2 ADD SWAP1 PUSH2 0x9F6 SWAP2 SWAP1 PUSH2 0x4302 JUMP JUMPDEST SUB PUSH2 0xA00 JUMPI PUSH1 0x0 DUP1 REVERT JUMPDEST PUSH1 0x0 PUSH1 0x8 PUSH1 0x0 DUP4 DUP2 MSTORE PUSH1 0x20 ADD SWAP1 DUP2 MSTORE PUSH1 0x20 ADD PUSH1 0x0 KECCAK256 PUSH1 0x5 ADD PUSH1 0x0 PUSH2 0x100 EXP DUP2 SLOAD DUP2 PUSH1 0xFF MUL NOT AND SWAP1 DUP4 ISZERO ISZERO MUL OR SWAP1 SSTORE POP POP JUMP JUMPDEST PUSH2 0xA3A PUSH2 0x2157 JUMP JUMPDEST PUSH20 0xFFFFFFFFFFFFFFFFFFFFFFFFFFFFFFFFFFFFFFFF AND DUP6 PUSH20 0xFFFFFFFFFFFFFFFFFFFFFFFFFFFFFFFFFFFFFFFF AND EQ DUP1 PUSH2 0xA80 JUMPI POP PUSH2 0xA7F DUP6 PUSH2 0xA7A PUSH2 0x2157 JUMP JUMPDEST PUSH2 0x193D JUMP JUMPDEST JUMPDEST PUSH2 0xABF JUMPI PUSH1 0x40 MLOAD PUSH32 0x8C379A000000000000000000000000000000000000000000000000000000000 DUP2 MSTORE PUSH1 0x4 ADD PUSH2 0xAB6 SWAP1 PUSH2 0x43A1 JUMP JUMPDEST PUSH1 0x40 MLOAD DUP1 SWAP2 SUB SWAP1 REVERT JUMPDEST PUSH2 0xACC DUP6 DUP6 DUP6 DUP6 DUP6 PUSH2 0x215F JUMP JUMPDEST POP POP POP POP POP JUMP JUMPDEST PUSH1 0x6 PUSH1 0x0 SWAP1 SLOAD SWAP1 PUSH2 0x100 EXP SWAP1 DIV PUSH20 0xFFFFFFFFFFFFFFFFFFFFFFFFFFFFFFFFFFFFFFFF AND DUP2 JUMP JUMPDEST CALLER PUSH20 0xFFFFFFFFFFFFFFFFFFFFFFFFFFFFFFFFFFFFFFFF AND DUP2 PUSH20 0xFFFFFFFFFFFFFFFFFFFFFFFFFFFFFFFFFFFFFFFF AND EQ PUSH2 0xB67 JUMPI PUSH1 0x40 MLOAD PUSH32 0x8C379A000000000000000000000000000000000000000000000000000000000 DUP2 MSTORE PUSH1 0x4 ADD PUSH2 0xB5E SWAP1 PUSH2 0x440D JUMP JUMPDEST PUSH1 0x40 MLOAD DUP1 SWAP2 SUB SWAP1 REVERT JUMPDEST DUP1 PUSH1 0x7 PUSH1 0x0 PUSH2 0x100 EXP DUP2 SLOAD DUP2 PUSH20 0xFFFFFFFFFFFFFFFFFFFFFFFFFFFFFFFFFFFFFFFF MUL NOT AND SWAP1 DUP4 PUSH20 0xFFFFFFFFFFFFFFFFFFFFFFFFFFFFFFFFFFFFFFFF AND MUL OR SWAP1 SSTORE POP POP JUMP JUMPDEST PUSH2 0xBB3 PUSH2 0x32F9 JUMP JUMPDEST PUSH1 0x9 PUSH1 0x0 DUP5 DUP2 MSTORE PUSH1 0x20 ADD SWAP1 DUP2 MSTORE PUSH1 0x20 ADD PUSH1 0x0 KECCAK256 PUSH1 0x0 DUP4 DUP2 MSTORE PUSH1 0x20 ADD SWAP1 DUP2 MSTORE PUSH1 0x20 ADD PUSH1 0x0 KECCAK256 PUSH1 0x40 MLOAD DUP1 PUSH1 0x60 ADD PUSH1 0x40 MSTORE SWAP1 DUP2 PUSH1 0x0 DUP3 ADD PUSH1 0x0 SWAP1 SLOAD SWAP1 PUSH2 0x100 EXP SWAP1 DIV PUSH20 0xFFFFFFFFFFFFFFFFFFFFFFFFFFFFFFFFFFFFFFFF AND PUSH20 0xFFFFFFFFFFFFFFFFFFFFFFFFFFFFFFFFFFFFFFFF AND PUSH20 0xFFFFFFFFFFFFFFFFFFFFFFFFFFFFFFFFFFFFFFFF AND DUP2 MSTORE PUSH1 0x20 ADD PUSH1 0x1 DUP3 ADD SLOAD DUP2 MSTORE PUSH1 0x20 ADD PUSH1 0x2 DUP3 ADD PUSH1 0x0 SWAP1 SLOAD SWAP1 PUSH2 0x100 EXP SWAP1 DIV PUSH1 0xFF AND ISZERO ISZERO ISZERO ISZERO DUP2 MSTORE POP POP SWAP1 POP SWAP3 SWAP2 POP POP JUMP JUMPDEST PUSH2 0xC70 DUP2 PUSH1 0x0 PUSH2 0x120B JUMP JUMPDEST POP JUMP JUMPDEST PUSH1 0x60 DUP2 MLOAD DUP4 MLOAD EQ PUSH2 0xCB9 JUMPI PUSH1 0x40 MLOAD PUSH32 0x8C379A000000000000000000000000000000000000000000000000000000000 DUP2 MSTORE PUSH1 0x4 ADD PUSH2 0xCB0 SWAP1 PUSH2 0x449F JUMP JUMPDEST PUSH1 0x40 MLOAD DUP1 SWAP2 SUB SWAP1 REVERT JUMPDEST PUSH1 0x0 DUP4 MLOAD PUSH8 0xFFFFFFFFFFFFFFFF DUP2 GT ISZERO PUSH2 0xCD6 JUMPI PUSH2 0xCD5 PUSH2 0x365A JUMP JUMPDEST JUMPDEST PUSH1 0x40 MLOAD SWAP1 DUP1 DUP3 MSTORE DUP1 PUSH1 0x20 MUL PUSH1 0x20 ADD DUP3 ADD PUSH1 0x40 MSTORE DUP1 ISZERO PUSH2 0xD04 JUMPI DUP2 PUSH1 0x20 ADD PUSH1 0x20 DUP3 MUL DUP1 CALLDATASIZE DUP4 CALLDATACOPY DUP1 DUP3 ADD SWAP2 POP POP SWAP1 POP JUMPDEST POP SWAP1 POP PUSH1 0x0 JUMPDEST DUP5 MLOAD DUP2 LT ISZERO PUSH2 0xD81 JUMPI PUSH2 0xD51 DUP6 DUP3 DUP2 MLOAD DUP2 LT PUSH2 0xD29 JUMPI PUSH2 0xD28 PUSH2 0x44BF JUMP JUMPDEST JUMPDEST PUSH1 0x20 MUL PUSH1 0x20 ADD ADD MLOAD DUP6 DUP4 DUP2 MLOAD DUP2 LT PUSH2 0xD44 JUMPI PUSH2 0xD43 PUSH2 0x44BF JUMP JUMPDEST JUMPDEST PUSH1 0x20 MUL PUSH1 0x20 ADD ADD MLOAD PUSH2 0x713 JUMP JUMPDEST DUP3 DUP3 DUP2 MLOAD DUP2 LT PUSH2 0xD64 JUMPI PUSH2 0xD63 PUSH2 0x44BF JUMP JUMPDEST JUMPDEST PUSH1 0x20 MUL PUSH1 0x20 ADD ADD DUP2 DUP2 MSTORE POP POP DUP1 PUSH2 0xD7A SWAP1 PUSH2 0x451D JUMP JUMPDEST SWAP1 POP PUSH2 0xD0A JUMP JUMPDEST POP DUP1 SWAP2 POP POP SWAP3 SWAP2 POP POP JUMP JUMPDEST PUSH1 0x0 PUSH1 0xB PUSH1 0x0 DUP4 DUP2 MSTORE PUSH1 0x20 ADD SWAP1 DUP2 MSTORE PUSH1 0x20 ADD PUSH1 0x0 KECCAK256 PUSH1 0x0 ADD SLOAD SWAP1 POP SWAP2 SWAP1 POP JUMP JUMPDEST PUSH1 0x7 PUSH1 0x0 SWAP1 SLOAD SWAP1 PUSH2 0x100 EXP SWAP1 DIV PUSH20 0xFFFFFFFFFFFFFFFFFFFFFFFFFFFFFFFFFFFFFFFF AND DUP2 JUMP JUMPDEST PUSH2 0xDDA PUSH2 0x2480 JUMP JUMPDEST PUSH2 0xDE4 PUSH1 0x0 PUSH2 0x24FE JUMP JUMPDEST JUMP JUMPDEST PUSH1 0x5 PUSH1 0x0 SWAP1 SLOAD SWAP1 PUSH2 0x100 EXP SWAP1 DIV PUSH20 0xFFFFFFFFFFFFFFFFFFFFFFFFFFFFFFFFFFFFFFFF AND PUSH20 0xFFFFFFFFFFFFFFFFFFFFFFFFFFFFFFFFFFFFFFFF AND CALLER PUSH20 0xFFFFFFFFFFFFFFFFFFFFFFFFFFFFFFFFFFFFFFFF AND EQ PUSH2 0xE40 JUMPI PUSH1 0x0 DUP1 REVERT JUMPDEST PUSH2 0xE4B DUP4 DUP4 DUP4 PUSH2 0x25C4 JUMP JUMPDEST POP POP POP JUMP JUMPDEST PUSH1 0x60 PUSH1 0x4 DUP1 SLOAD DUP1 PUSH1 0x20 MUL PUSH1 0x20 ADD PUSH1 0x40 MLOAD SWAP1 DUP2 ADD PUSH1 0x40 MSTORE DUP1 SWAP3 SWAP2 SWAP1 DUP2 DUP2 MSTORE PUSH1 0x20 ADD DUP3 DUP1 SLOAD DUP1 ISZERO PUSH2 0xE9E JUMPI PUSH1 0x20 MUL DUP3 ADD SWAP2 SWAP1 PUSH1 0x0 MSTORE PUSH1 0x20 PUSH1 0x0 KECCAK256 SWAP1 JUMPDEST DUP2 SLOAD DUP2 MSTORE PUSH1 0x20 ADD SWAP1 PUSH1 0x1 ADD SWAP1 DUP1 DUP4 GT PUSH2 0xE8A JUMPI JUMPDEST POP POP POP POP POP SWAP1 POP SWAP1 JUMP JUMPDEST PUSH2 0xEB0 PUSH2 0x3332 JUMP JUMPDEST PUSH1 0x8 PUSH1 0x0 DUP4 DUP2 MSTORE PUSH1 0x20 ADD SWAP1 DUP2 MSTORE PUSH1 0x20 ADD PUSH1 0x0 KECCAK256 PUSH1 0x40 MLOAD DUP1 PUSH1 0xC0 ADD PUSH1 0x40 MSTORE SWAP1 DUP2 PUSH1 0x0 DUP3 ADD PUSH1 0x0 SWAP1 SLOAD SWAP1 PUSH2 0x100 EXP SWAP1 DIV PUSH20 0xFFFFFFFFFFFFFFFFFFFFFFFFFFFFFFFFFFFFFFFF AND PUSH20 0xFFFFFFFFFFFFFFFFFFFFFFFFFFFFFFFFFFFFFFFF AND PUSH20 0xFFFFFFFFFFFFFFFFFFFFFFFFFFFFFFFFFFFFFFFF AND DUP2 MSTORE PUSH1 0x20 ADD PUSH1 0x1 DUP3 ADD SLOAD DUP2 MSTORE PUSH1 0x20 ADD PUSH1 0x2 DUP3 ADD SLOAD DUP2 MSTORE PUSH1 0x20 ADD PUSH1 0x3 DUP3 ADD SLOAD DUP2 MSTORE PUSH1 0x20 ADD PUSH1 0x4 DUP3 ADD SLOAD DUP2 MSTORE PUSH1 0x20 ADD PUSH1 0x5 DUP3 ADD PUSH1 0x0 SWAP1 SLOAD SWAP1 PUSH2 0x100 EXP SWAP1 DIV PUSH1 0xFF AND ISZERO ISZERO ISZERO ISZERO DUP2 MSTORE POP POP SWAP1 POP SWAP2 SWAP1 POP JUMP JUMPDEST PUSH1 0x0 PUSH1 0x3 PUSH1 0x0 SWAP1 SLOAD SWAP1 PUSH2 0x100 EXP SWAP1 DIV PUSH20 0xFFFFFFFFFFFFFFFFFFFFFFFFFFFFFFFFFFFFFFFF AND SWAP1 POP SWAP1 JUMP JUMPDEST PUSH1 0x0 PUSH1 0x8 PUSH1 0x0 DUP8 DUP2 MSTORE PUSH1 0x20 ADD SWAP1 DUP2 MSTORE PUSH1 0x20 ADD PUSH1 0x0 KECCAK256 PUSH1 0x1 ADD SLOAD EQ PUSH2 0xFF1 JUMPI PUSH1 0x40 MLOAD PUSH32 0x8C379A000000000000000000000000000000000000000000000000000000000 DUP2 MSTORE PUSH1 0x4 ADD PUSH2 0xFE8 SWAP1 PUSH2 0x45B1 JUMP JUMPDEST PUSH1 0x40 MLOAD DUP1 SWAP2 SUB SWAP1 REVERT JUMPDEST CALLER PUSH20 0xFFFFFFFFFFFFFFFFFFFFFFFFFFFFFFFFFFFFFFFF AND DUP8 PUSH20 0xFFFFFFFFFFFFFFFFFFFFFFFFFFFFFFFFFFFFFFFF AND EQ PUSH2 0x105F JUMPI PUSH1 0x40 MLOAD PUSH32 0x8C379A000000000000000000000000000000000000000000000000000000000 DUP2 MSTORE PUSH1 0x4 ADD PUSH2 0x1056 SWAP1 PUSH2 0x461D JUMP JUMPDEST PUSH1 0x40 MLOAD DUP1 SWAP2 SUB SWAP1 REVERT JUMPDEST PUSH1 0x0 PUSH1 0x40 MLOAD DUP1 PUSH1 0x40 ADD PUSH1 0x40 MSTORE DUP1 PUSH1 0x13 DUP2 MSTORE PUSH1 0x20 ADD PUSH32 0x66756E6464696E67206973207365636365737300000000000000000000000000 DUP2 MSTORE POP SWAP1 POP PUSH1 0x0 PUSH2 0x10A7 DUP10 DUP8 DUP8 DUP8 PUSH2 0x280A JUMP JUMPDEST SWAP1 POP DUP1 PUSH1 0x8 PUSH1 0x0 DUP10 DUP2 MSTORE PUSH1 0x20 ADD SWAP1 DUP2 MSTORE PUSH1 0x20 ADD PUSH1 0x0 KECCAK256 PUSH1 0x0 DUP3 ADD MLOAD DUP2 PUSH1 0x0 ADD PUSH1 0x0 PUSH2 0x100 EXP DUP2 SLOAD DUP2 PUSH20 0xFFFFFFFFFFFFFFFFFFFFFFFFFFFFFFFFFFFFFFFF MUL NOT AND SWAP1 DUP4 PUSH20 0xFFFFFFFFFFFFFFFFFFFFFFFFFFFFFFFFFFFFFFFF AND MUL OR SWAP1 SSTORE POP PUSH1 0x20 DUP3 ADD MLOAD DUP2 PUSH1 0x1 ADD SSTORE PUSH1 0x40 DUP3 ADD MLOAD DUP2 PUSH1 0x2 ADD SSTORE PUSH1 0x60 DUP3 ADD MLOAD DUP2 PUSH1 0x3 ADD SSTORE PUSH1 0x80 DUP3 ADD MLOAD DUP2 PUSH1 0x4 ADD SSTORE PUSH1 0xA0 DUP3 ADD MLOAD DUP2 PUSH1 0x5 ADD PUSH1 0x0 PUSH2 0x100 EXP DUP2 SLOAD DUP2 PUSH1 0xFF MUL NOT AND SWAP1 DUP4 ISZERO ISZERO MUL OR SWAP1 SSTORE POP SWAP1 POP POP PUSH2 0x116A DUP10 DUP9 DUP9 PUSH1 0x40 MLOAD DUP1 PUSH1 0x20 ADD PUSH1 0x40 MSTORE DUP1 PUSH1 0x0 DUP2 MSTORE POP PUSH2 0x28E7 JUMP JUMPDEST PUSH2 0x1175 DUP9 PUSH1 0x1 PUSH2 0x120B JUMP JUMPDEST PUSH1 0x4 DUP8 SWAP1 DUP1 PUSH1 0x1 DUP2 SLOAD ADD DUP1 DUP3 SSTORE DUP1 SWAP2 POP POP PUSH1 0x1 SWAP1 SUB SWAP1 PUSH1 0x0 MSTORE PUSH1 0x20 PUSH1 0x0 KECCAK256 ADD PUSH1 0x0 SWAP1 SWAP2 SWAP1 SWAP2 SWAP1 SWAP2 POP SSTORE DUP3 PUSH1 0xC PUSH1 0x0 DUP10 DUP2 MSTORE PUSH1 0x20 ADD SWAP1 DUP2 MSTORE PUSH1 0x20 ADD PUSH1 0x0 KECCAK256 SWAP1 DUP2 PUSH2 0x11BE SWAP2 SWAP1 PUSH2 0x47DF JUMP JUMPDEST POP PUSH32 0x8BDC0347739A882305E00B5FA613E8629B5DA77A48ABAC45661315C45619C548 CALLER DUP9 DUP9 DUP9 DUP9 DUP8 PUSH1 0x40 MLOAD PUSH2 0x11F8 SWAP7 SWAP6 SWAP5 SWAP4 SWAP3 SWAP2 SWAP1 PUSH2 0x48B1 JUMP JUMPDEST PUSH1 0x40 MLOAD DUP1 SWAP2 SUB SWAP1 LOG1 POP POP POP POP POP POP POP POP POP JUMP JUMPDEST PUSH2 0x121D PUSH2 0x1216 PUSH2 0x2157 JUMP JUMPDEST DUP4 DUP4 PUSH2 0x2A97 JUMP JUMPDEST POP POP JUMP JUMPDEST PUSH1 0x0 PUSH1 0xA PUSH1 0x0 DUP4 DUP2 MSTORE PUSH1 0x20 ADD SWAP1 DUP2 MSTORE PUSH1 0x20 ADD PUSH1 0x0 KECCAK256 SLOAD SWAP1 POP SWAP2 SWAP1 POP JUMP JUMPDEST PUSH1 0x0 PUSH2 0x124A CALLER DUP6 PUSH2 0x2025 JUMP JUMPDEST SUB PUSH2 0x128A JUMPI PUSH1 0x40 MLOAD PUSH32 0x8C379A000000000000000000000000000000000000000000000000000000000 DUP2 MSTORE PUSH1 0x4 ADD PUSH2 0x1281 SWAP1 PUSH2 0x4965 JUMP JUMPDEST PUSH1 0x40 MLOAD DUP1 SWAP2 SUB SWAP1 REVERT JUMPDEST PUSH3 0x15180 PUSH1 0x8 PUSH1 0x0 DUP6 DUP2 MSTORE PUSH1 0x20 ADD SWAP1 DUP2 MSTORE PUSH1 0x20 ADD PUSH1 0x0 KECCAK256 PUSH1 0x4 ADD SLOAD PUSH2 0x12AF SWAP2 SWAP1 PUSH2 0x4985 JUMP JUMPDEST DUP3 TIMESTAMP PUSH2 0x12BB SWAP2 SWAP1 PUSH2 0x49B9 JUMP JUMPDEST GT PUSH2 0x12FB JUMPI PUSH1 0x40 MLOAD PUSH32 0x8C379A000000000000000000000000000000000000000000000000000000000 DUP2 MSTORE PUSH1 0x4 ADD PUSH2 0x12F2 SWAP1 PUSH2 0x4A6D JUMP JUMPDEST PUSH1 0x40 MLOAD DUP1 SWAP2 SUB SWAP1 REVERT JUMPDEST PUSH1 0x0 PUSH1 0xB PUSH1 0x0 DUP6 DUP2 MSTORE PUSH1 0x20 ADD SWAP1 DUP2 MSTORE PUSH1 0x20 ADD PUSH1 0x0 KECCAK256 PUSH1 0x0 ADD SLOAD EQ PUSH2 0x1354 JUMPI PUSH1 0x40 MLOAD PUSH32 0x8C379A000000000000000000000000000000000000000000000000000000000 DUP2 MSTORE PUSH1 0x4 ADD PUSH2 0x134B SWAP1 PUSH2 0x4AD9 JUMP JUMPDEST PUSH1 0x40 MLOAD DUP1 SWAP2 SUB SWAP1 REVERT JUMPDEST DUP2 PUSH3 0x15180 PUSH2 0x1363 SWAP2 SWAP1 PUSH2 0x49B9 JUMP JUMPDEST TIMESTAMP PUSH2 0x136E SWAP2 SWAP1 PUSH2 0x4AF9 JUMP JUMPDEST PUSH1 0xB PUSH1 0x0 DUP6 DUP2 MSTORE PUSH1 0x20 ADD SWAP1 DUP2 MSTORE PUSH1 0x20 ADD PUSH1 0x0 KECCAK256 PUSH1 0x0 ADD DUP2 SWAP1 SSTORE POP DUP1 PUSH1 0xB PUSH1 0x0 DUP6 DUP2 MSTORE PUSH1 0x20 ADD SWAP1 DUP2 MSTORE PUSH1 0x20 ADD PUSH1 0x0 KECCAK256 PUSH1 0x1 ADD DUP2 SWAP1 SSTORE POP POP POP POP JUMP JUMPDEST PUSH1 0x0 PUSH2 0x13EA PUSH1 0x8 PUSH1 0x0 DUP5 DUP2 MSTORE PUSH1 0x20 ADD SWAP1 DUP2 MSTORE PUSH1 0x20 ADD PUSH1 0x0 KECCAK256 PUSH1 0x0 ADD PUSH1 0x0 SWAP1 SLOAD SWAP1 PUSH2 0x100 EXP SWAP1 DIV PUSH20 0xFFFFFFFFFFFFFFFFFFFFFFFFFFFFFFFFFFFFFFFF AND DUP4 PUSH2 0x2025 JUMP JUMPDEST EQ PUSH2 0x142A JUMPI PUSH1 0x40 MLOAD PUSH32 0x8C379A000000000000000000000000000000000000000000000000000000000 DUP2 MSTORE PUSH1 0x4 ADD PUSH2 0x1421 SWAP1 PUSH2 0x4B79 JUMP JUMPDEST PUSH1 0x40 MLOAD DUP1 SWAP2 SUB SWAP1 REVERT JUMPDEST PUSH1 0x8 PUSH1 0x0 DUP3 DUP2 MSTORE PUSH1 0x20 ADD SWAP1 DUP2 MSTORE PUSH1 0x20 ADD PUSH1 0x0 KECCAK256 PUSH1 0x1 ADD SLOAD PUSH1 0x6 PUSH1 0x0 SWAP1 SLOAD SWAP1 PUSH2 0x100 EXP SWAP1 DIV PUSH20 0xFFFFFFFFFFFFFFFFFFFFFFFFFFFFFFFFFFFFFFFF AND PUSH20 0xFFFFFFFFFFFFFFFFFFFFFFFFFFFFFFFFFFFFFFFF AND PUSH4 0x49E5465C DUP4 PUSH1 0x40 MLOAD DUP3 PUSH4 0xFFFFFFFF AND PUSH1 0xE0 SHL DUP2 MSTORE PUSH1 0x4 ADD PUSH2 0x149C SWAP2 SWAP1 PUSH2 0x3477 JUMP JUMPDEST PUSH1 0x20 PUSH1 0x40 MLOAD DUP1 DUP4 SUB DUP2 DUP7 GAS STATICCALL ISZERO DUP1 ISZERO PUSH2 0x14B9 JUMPI RETURNDATASIZE PUSH1 0x0 DUP1 RETURNDATACOPY RETURNDATASIZE PUSH1 0x0 REVERT JUMPDEST POP POP POP POP PUSH1 0x40 MLOAD RETURNDATASIZE PUSH1 0x1F NOT PUSH1 0x1F DUP3 ADD AND DUP3 ADD DUP1 PUSH1 0x40 MSTORE POP DUP2 ADD SWAP1 PUSH2 0x14DD SWAP2 SWAP1 PUSH2 0x4302 JUMP JUMPDEST EQ PUSH2 0x14E7 JUMPI PUSH1 0x0 DUP1 REVERT JUMPDEST PUSH1 0x1 PUSH1 0x8 PUSH1 0x0 DUP4 DUP2 MSTORE PUSH1 0x20 ADD SWAP1 DUP2 MSTORE PUSH1 0x20 ADD PUSH1 0x0 KECCAK256 PUSH1 0x5 ADD PUSH1 0x0 PUSH2 0x100 EXP DUP2 SLOAD DUP2 PUSH1 0xFF MUL NOT AND SWAP1 DUP4 ISZERO ISZERO MUL OR SWAP1 SSTORE POP POP JUMP JUMPDEST PUSH1 0x60 PUSH1 0xC PUSH1 0x0 DUP4 DUP2 MSTORE PUSH1 0x20 ADD SWAP1 DUP2 MSTORE PUSH1 0x20 ADD PUSH1 0x0 KECCAK256 DUP1 SLOAD PUSH2 0x1539 SWAP1 PUSH2 0x4250 JUMP JUMPDEST DUP1 PUSH1 0x1F ADD PUSH1 0x20 DUP1 SWAP2 DIV MUL PUSH1 0x20 ADD PUSH1 0x40 MLOAD SWAP1 DUP2 ADD PUSH1 0x40 MSTORE DUP1 SWAP3 SWAP2 SWAP1 DUP2 DUP2 MSTORE PUSH1 0x20 ADD DUP3 DUP1 SLOAD PUSH2 0x1565 SWAP1 PUSH2 0x4250 JUMP JUMPDEST DUP1 ISZERO PUSH2 0x15B2 JUMPI DUP1 PUSH1 0x1F LT PUSH2 0x1587 JUMPI PUSH2 0x100 DUP1 DUP4 SLOAD DIV MUL DUP4 MSTORE SWAP2 PUSH1 0x20 ADD SWAP2 PUSH2 0x15B2 JUMP JUMPDEST DUP3 ADD SWAP2 SWAP1 PUSH1 0x0 MSTORE PUSH1 0x20 PUSH1 0x0 KECCAK256 SWAP1 JUMPDEST DUP2 SLOAD DUP2 MSTORE SWAP1 PUSH1 0x1 ADD SWAP1 PUSH1 0x20 ADD DUP1 DUP4 GT PUSH2 0x1595 JUMPI DUP3 SWAP1 SUB PUSH1 0x1F AND DUP3 ADD SWAP2 JUMPDEST POP POP POP POP POP SWAP1 POP SWAP2 SWAP1 POP JUMP JUMPDEST PUSH1 0x9 PUSH1 0x20 MSTORE DUP2 PUSH1 0x0 MSTORE PUSH1 0x40 PUSH1 0x0 KECCAK256 PUSH1 0x20 MSTORE DUP1 PUSH1 0x0 MSTORE PUSH1 0x40 PUSH1 0x0 KECCAK256 PUSH1 0x0 SWAP2 POP SWAP2 POP POP DUP1 PUSH1 0x0 ADD PUSH1 0x0 SWAP1 SLOAD SWAP1 PUSH2 0x100 EXP SWAP1 DIV PUSH20 0xFFFFFFFFFFFFFFFFFFFFFFFFFFFFFFFFFFFFFFFF AND SWAP1 DUP1 PUSH1 0x1 ADD SLOAD SWAP1 DUP1 PUSH1 0x2 ADD PUSH1 0x0 SWAP1 SLOAD SWAP1 PUSH2 0x100 EXP SWAP1 DIV PUSH1 0xFF AND SWAP1 POP DUP4 JUMP JUMPDEST TIMESTAMP PUSH1 0xB PUSH1 0x0 DUP5 DUP2 MSTORE PUSH1 0x20 ADD SWAP1 DUP2 MSTORE PUSH1 0x20 ADD PUSH1 0x0 KECCAK256 PUSH1 0x0 ADD SLOAD LT PUSH2 0x167A JUMPI PUSH1 0x40 MLOAD PUSH32 0x8C379A000000000000000000000000000000000000000000000000000000000 DUP2 MSTORE PUSH1 0x4 ADD PUSH2 0x1671 SWAP1 PUSH2 0x4BE5 JUMP JUMPDEST PUSH1 0x40 MLOAD DUP1 SWAP2 SUB SWAP1 REVERT JUMPDEST PUSH1 0x0 PUSH2 0x1686 CALLER DUP5 PUSH2 0x2025 JUMP JUMPDEST SUB PUSH2 0x16C6 JUMPI PUSH1 0x40 MLOAD PUSH32 0x8C379A000000000000000000000000000000000000000000000000000000000 DUP2 MSTORE PUSH1 0x4 ADD PUSH2 0x16BD SWAP1 PUSH2 0x4C51 JUMP JUMPDEST PUSH1 0x40 MLOAD DUP1 SWAP2 SUB SWAP1 REVERT JUMPDEST PUSH1 0x1 ISZERO ISZERO PUSH1 0x8 PUSH1 0x0 DUP5 DUP2 MSTORE PUSH1 0x20 ADD SWAP1 DUP2 MSTORE PUSH1 0x20 ADD PUSH1 0x0 KECCAK256 PUSH1 0x5 ADD PUSH1 0x0 SWAP1 SLOAD SWAP1 PUSH2 0x100 EXP SWAP1 DIV PUSH1 0xFF AND ISZERO ISZERO SUB PUSH2 0x1730 JUMPI PUSH1 0x40 MLOAD PUSH32 0x8C379A000000000000000000000000000000000000000000000000000000000 DUP2 MSTORE PUSH1 0x4 ADD PUSH2 0x1727 SWAP1 PUSH2 0x4CBD JUMP JUMPDEST PUSH1 0x40 MLOAD DUP1 SWAP2 SUB SWAP1 REVERT JUMPDEST PUSH1 0x1 ISZERO ISZERO DUP2 ISZERO ISZERO SUB PUSH2 0x179D JUMPI PUSH1 0xB PUSH1 0x0 DUP4 DUP2 MSTORE PUSH1 0x20 ADD SWAP1 DUP2 MSTORE PUSH1 0x20 ADD PUSH1 0x0 KECCAK256 PUSH1 0x1 ADD SLOAD PUSH3 0x15180 PUSH2 0x1761 SWAP2 SWAP1 PUSH2 0x49B9 JUMP JUMPDEST PUSH1 0x8 PUSH1 0x0 DUP5 DUP2 MSTORE PUSH1 0x20 ADD SWAP1 DUP2 MSTORE PUSH1 0x20 ADD PUSH1 0x0 KECCAK256 PUSH1 0x4 ADD SLOAD PUSH2 0x1782 SWAP2 SWAP1 PUSH2 0x4AF9 JUMP JUMPDEST PUSH1 0x8 PUSH1 0x0 DUP5 DUP2 MSTORE PUSH1 0x20 ADD SWAP1 DUP2 MSTORE PUSH1 0x20 ADD PUSH1 0x0 KECCAK256 PUSH1 0x4 ADD DUP2 SWAP1 SSTORE POP JUMPDEST POP POP JUMP JUMPDEST PUSH1 0xA PUSH1 0x20 MSTORE DUP1 PUSH1 0x0 MSTORE PUSH1 0x40 PUSH1 0x0 KECCAK256 PUSH1 0x0 SWAP2 POP SWAP1 POP SLOAD DUP2 JUMP JUMPDEST CALLER PUSH20 0xFFFFFFFFFFFFFFFFFFFFFFFFFFFFFFFFFFFFFFFF AND DUP2 PUSH20 0xFFFFFFFFFFFFFFFFFFFFFFFFFFFFFFFFFFFFFFFF AND EQ PUSH2 0x1827 JUMPI PUSH1 0x40 MLOAD PUSH32 0x8C379A000000000000000000000000000000000000000000000000000000000 DUP2 MSTORE PUSH1 0x4 ADD PUSH2 0x181E SWAP1 PUSH2 0x4D29 JUMP JUMPDEST PUSH1 0x40 MLOAD DUP1 SWAP2 SUB SWAP1 REVERT JUMPDEST PUSH1 0x0 PUSH20 0xFFFFFFFFFFFFFFFFFFFFFFFFFFFFFFFFFFFFFFFF AND PUSH1 0x5 PUSH1 0x0 SWAP1 SLOAD SWAP1 PUSH2 0x100 EXP SWAP1 DIV PUSH20 0xFFFFFFFFFFFFFFFFFFFFFFFFFFFFFFFFFFFFFFFF AND PUSH20 0xFFFFFFFFFFFFFFFFFFFFFFFFFFFFFFFFFFFFFFFF AND EQ PUSH2 0x18B8 JUMPI PUSH1 0x40 MLOAD PUSH32 0x8C379A000000000000000000000000000000000000000000000000000000000 DUP2 MSTORE PUSH1 0x4 ADD PUSH2 0x18AF SWAP1 PUSH2 0x4D95 JUMP JUMPDEST PUSH1 0x40 MLOAD DUP1 SWAP2 SUB SWAP1 REVERT JUMPDEST DUP1 PUSH1 0x5 PUSH1 0x0 PUSH2 0x100 EXP DUP2 SLOAD DUP2 PUSH20 0xFFFFFFFFFFFFFFFFFFFFFFFFFFFFFFFFFFFFFFFF MUL NOT AND SWAP1 DUP4 PUSH20 0xFFFFFFFFFFFFFFFFFFFFFFFFFFFFFFFFFFFFFFFF AND MUL OR SWAP1 SSTORE POP DUP1 PUSH1 0x6 PUSH1 0x0 PUSH2 0x100 EXP DUP2 SLOAD DUP2 PUSH20 0xFFFFFFFFFFFFFFFFFFFFFFFFFFFFFFFFFFFFFFFF MUL NOT AND SWAP1 DUP4 PUSH20 0xFFFFFFFFFFFFFFFFFFFFFFFFFFFFFFFFFFFFFFFF AND MUL OR SWAP1 SSTORE POP POP JUMP JUMPDEST PUSH1 0x0 PUSH1 0x1 PUSH1 0x0 DUP5 PUSH20 0xFFFFFFFFFFFFFFFFFFFFFFFFFFFFFFFFFFFFFFFF AND PUSH20 0xFFFFFFFFFFFFFFFFFFFFFFFFFFFFFFFFFFFFFFFF AND DUP2 MSTORE PUSH1 0x20 ADD SWAP1 DUP2 MSTORE PUSH1 0x20 ADD PUSH1 0x0 KECCAK256 PUSH1 0x0 DUP4 PUSH20 0xFFFFFFFFFFFFFFFFFFFFFFFFFFFFFFFFFFFFFFFF AND PUSH20 0xFFFFFFFFFFFFFFFFFFFFFFFFFFFFFFFFFFFFFFFF AND DUP2 MSTORE PUSH1 0x20 ADD SWAP1 DUP2 MSTORE PUSH1 0x20 ADD PUSH1 0x0 KECCAK256 PUSH1 0x0 SWAP1 SLOAD SWAP1 PUSH2 0x100 EXP SWAP1 DIV PUSH1 0xFF AND SWAP1 POP SWAP3 SWAP2 POP POP JUMP JUMPDEST PUSH2 0x19D9 PUSH2 0x2157 JUMP JUMPDEST PUSH20 0xFFFFFFFFFFFFFFFFFFFFFFFFFFFFFFFFFFFFFFFF AND DUP6 PUSH20 0xFFFFFFFFFFFFFFFFFFFFFFFFFFFFFFFFFFFFFFFF AND EQ DUP1 PUSH2 0x1A1F JUMPI POP PUSH2 0x1A1E DUP6 PUSH2 0x1A19 PUSH2 0x2157 JUMP JUMPDEST PUSH2 0x193D JUMP JUMPDEST JUMPDEST PUSH2 0x1A5E JUMPI PUSH1 0x40 MLOAD PUSH32 0x8C379A000000000000000000000000000000000000000000000000000000000 DUP2 MSTORE PUSH1 0x4 ADD PUSH2 0x1A55 SWAP1 PUSH2 0x43A1 JUMP JUMPDEST PUSH1 0x40 MLOAD DUP1 SWAP2 SUB SWAP1 REVERT JUMPDEST PUSH2 0x1A6B DUP6 DUP6 DUP6 DUP6 DUP6 PUSH2 0x2C03 JUMP JUMPDEST POP POP POP POP POP JUMP JUMPDEST PUSH2 0x1A7A PUSH2 0x2480 JUMP JUMPDEST PUSH1 0x0 PUSH20 0xFFFFFFFFFFFFFFFFFFFFFFFFFFFFFFFFFFFFFFFF AND DUP2 PUSH20 0xFFFFFFFFFFFFFFFFFFFFFFFFFFFFFFFFFFFFFFFF AND SUB PUSH2 0x1AE9 JUMPI PUSH1 0x40 MLOAD PUSH32 0x8C379A000000000000000000000000000000000000000000000000000000000 DUP2 MSTORE PUSH1 0x4 ADD PUSH2 0x1AE0 SWAP1 PUSH2 0x4E27 JUMP JUMPDEST PUSH1 0x40 MLOAD DUP1 SWAP2 SUB SWAP1 REVERT JUMPDEST PUSH2 0x1AF2 DUP2 PUSH2 0x24FE JUMP JUMPDEST POP JUMP JUMPDEST PUSH1 0x7 PUSH1 0x0 SWAP1 SLOAD SWAP1 PUSH2 0x100 EXP SWAP1 DIV PUSH20 0xFFFFFFFFFFFFFFFFFFFFFFFFFFFFFFFFFFFFFFFF AND PUSH20 0xFFFFFFFFFFFFFFFFFFFFFFFFFFFFFFFFFFFFFFFF AND PUSH4 0x23DC2E65 CALLER DUP6 DUP6 DUP6 PUSH1 0x40 MLOAD DUP6 PUSH4 0xFFFFFFFF AND PUSH1 0xE0 SHL DUP2 MSTORE PUSH1 0x4 ADD PUSH2 0x1B56 SWAP5 SWAP4 SWAP3 SWAP2 SWAP1 PUSH2 0x4E47 JUMP JUMPDEST PUSH1 0x0 PUSH1 0x40 MLOAD DUP1 DUP4 SUB DUP2 PUSH1 0x0 DUP8 DUP1 EXTCODESIZE ISZERO DUP1 ISZERO PUSH2 0x1B70 JUMPI PUSH1 0x0 DUP1 REVERT JUMPDEST POP GAS CALL ISZERO DUP1 ISZERO PUSH2 0x1B84 JUMPI RETURNDATASIZE PUSH1 0x0 DUP1 RETURNDATACOPY RETURNDATASIZE PUSH1 0x0 REVERT JUMPDEST POP POP POP POP PUSH2 0x1B93 DUP5 PUSH1 0x1 PUSH2 0x120B JUMP JUMPDEST POP POP POP POP JUMP JUMPDEST PUSH1 0x8 PUSH1 0x20 MSTORE DUP1 PUSH1 0x0 MSTORE PUSH1 0x40 PUSH1 0x0 KECCAK256 PUSH1 0x0 SWAP2 POP SWAP1 POP DUP1 PUSH1 0x0 ADD PUSH1 0x0 SWAP1 SLOAD SWAP1 PUSH2 0x100 EXP SWAP1 DIV PUSH20 0xFFFFFFFFFFFFFFFFFFFFFFFFFFFFFFFFFFFFFFFF AND SWAP1 DUP1 PUSH1 0x1 ADD SLOAD SWAP1 DUP1 PUSH1 0x2 ADD SLOAD SWAP1 DUP1 PUSH1 0x3 ADD SLOAD SWAP1 DUP1 PUSH1 0x4 ADD SLOAD SWAP1 DUP1 PUSH1 0x5 ADD PUSH1 0x0 SWAP1 SLOAD SWAP1 PUSH2 0x100 EXP SWAP1 DIV PUSH1 0xFF AND SWAP1 POP DUP7 JUMP JUMPDEST PUSH1 0x4 DUP2 DUP2 SLOAD DUP2 LT PUSH2 0x1C12 JUMPI PUSH1 0x0 DUP1 REVERT JUMPDEST SWAP1 PUSH1 0x0 MSTORE PUSH1 0x20 PUSH1 0x0 KECCAK256 ADD PUSH1 0x0 SWAP2 POP SWAP1 POP SLOAD DUP2 JUMP JUMPDEST PUSH1 0x0 PUSH2 0x1C32 CALLER DUP5 PUSH2 0x2025 JUMP JUMPDEST SUB PUSH2 0x1C72 JUMPI PUSH1 0x40 MLOAD PUSH32 0x8C379A000000000000000000000000000000000000000000000000000000000 DUP2 MSTORE PUSH1 0x4 ADD PUSH2 0x1C69 SWAP1 PUSH2 0x4C51 JUMP JUMPDEST PUSH1 0x40 MLOAD DUP1 SWAP2 SUB SWAP1 REVERT JUMPDEST PUSH1 0xB PUSH1 0x0 DUP4 DUP2 MSTORE PUSH1 0x20 ADD SWAP1 DUP2 MSTORE PUSH1 0x20 ADD PUSH1 0x0 KECCAK256 PUSH1 0x0 ADD SLOAD TIMESTAMP GT ISZERO PUSH2 0x1CCB JUMPI PUSH1 0x40 MLOAD PUSH32 0x8C379A000000000000000000000000000000000000000000000000000000000 DUP2 MSTORE PUSH1 0x4 ADD PUSH2 0x1CC2 SWAP1 PUSH2 0x4ED8 JUMP JUMPDEST PUSH1 0x40 MLOAD DUP1 SWAP2 SUB SWAP1 REVERT JUMPDEST CALLER PUSH20 0xFFFFFFFFFFFFFFFFFFFFFFFFFFFFFFFFFFFFFFFF AND PUSH1 0x8 PUSH1 0x0 DUP5 DUP2 MSTORE PUSH1 0x20 ADD SWAP1 DUP2 MSTORE PUSH1 0x20 ADD PUSH1 0x0 KECCAK256 PUSH1 0x0 ADD PUSH1 0x0 SWAP1 SLOAD SWAP1 PUSH2 0x100 EXP SWAP1 DIV PUSH20 0xFFFFFFFFFFFFFFFFFFFFFFFFFFFFFFFFFFFFFFFF AND PUSH20 0xFFFFFFFFFFFFFFFFFFFFFFFFFFFFFFFFFFFFFFFF AND SUB PUSH2 0x1D6F JUMPI PUSH1 0x40 MLOAD PUSH32 0x8C379A000000000000000000000000000000000000000000000000000000000 DUP2 MSTORE PUSH1 0x4 ADD PUSH2 0x1D66 SWAP1 PUSH2 0x4F6A JUMP JUMPDEST PUSH1 0x40 MLOAD DUP1 SWAP2 SUB SWAP1 REVERT JUMPDEST PUSH1 0x0 PUSH2 0x1D7B CALLER DUP5 PUSH2 0x2025 JUMP JUMPDEST SWAP1 POP PUSH1 0x0 DUP1 PUSH1 0x1 SWAP1 POP JUMPDEST PUSH1 0xA PUSH1 0x0 DUP7 DUP2 MSTORE PUSH1 0x20 ADD SWAP1 DUP2 MSTORE PUSH1 0x20 ADD PUSH1 0x0 KECCAK256 SLOAD DUP2 GT PUSH2 0x1EFC JUMPI CALLER PUSH20 0xFFFFFFFFFFFFFFFFFFFFFFFFFFFFFFFFFFFFFFFF AND PUSH1 0x9 PUSH1 0x0 DUP8 DUP2 MSTORE PUSH1 0x20 ADD SWAP1 DUP2 MSTORE PUSH1 0x20 ADD PUSH1 0x0 KECCAK256 PUSH1 0x0 DUP4 DUP2 MSTORE PUSH1 0x20 ADD SWAP1 DUP2 MSTORE PUSH1 0x20 ADD PUSH1 0x0 KECCAK256 PUSH1 0x0 ADD PUSH1 0x0 SWAP1 SLOAD SWAP1 PUSH2 0x100 EXP SWAP1 DIV PUSH20 0xFFFFFFFFFFFFFFFFFFFFFFFFFFFFFFFFFFFFFFFF AND PUSH20 0xFFFFFFFFFFFFFFFFFFFFFFFFFFFFFFFFFFFFFFFF AND SUB PUSH2 0x1EE9 JUMPI PUSH1 0x40 MLOAD DUP1 PUSH1 0x60 ADD PUSH1 0x40 MSTORE DUP1 CALLER PUSH20 0xFFFFFFFFFFFFFFFFFFFFFFFFFFFFFFFFFFFFFFFF AND DUP2 MSTORE PUSH1 0x20 ADD DUP5 DUP2 MSTORE PUSH1 0x20 ADD DUP6 ISZERO ISZERO DUP2 MSTORE POP PUSH1 0x9 PUSH1 0x0 DUP8 DUP2 MSTORE PUSH1 0x20 ADD SWAP1 DUP2 MSTORE PUSH1 0x20 ADD PUSH1 0x0 KECCAK256 PUSH1 0x0 DUP4 DUP2 MSTORE PUSH1 0x20 ADD SWAP1 DUP2 MSTORE PUSH1 0x20 ADD PUSH1 0x0 KECCAK256 PUSH1 0x0 DUP3 ADD MLOAD DUP2 PUSH1 0x0 ADD PUSH1 0x0 PUSH2 0x100 EXP DUP2 SLOAD DUP2 PUSH20 0xFFFFFFFFFFFFFFFFFFFFFFFFFFFFFFFFFFFFFFFF MUL NOT AND SWAP1 DUP4 PUSH20 0xFFFFFFFFFFFFFFFFFFFFFFFFFFFFFFFFFFFFFFFF AND MUL OR SWAP1 SSTORE POP PUSH1 0x20 DUP3 ADD MLOAD DUP2 PUSH1 0x1 ADD SSTORE PUSH1 0x40 DUP3 ADD MLOAD DUP2 PUSH1 0x2 ADD PUSH1 0x0 PUSH2 0x100 EXP DUP2 SLOAD DUP2 PUSH1 0xFF MUL NOT AND SWAP1 DUP4 ISZERO ISZERO MUL OR SWAP1 SSTORE POP SWAP1 POP POP PUSH1 0x1 SWAP2 POP JUMPDEST DUP1 DUP1 PUSH2 0x1EF4 SWAP1 PUSH2 0x451D JUMP JUMPDEST SWAP2 POP POP PUSH2 0x1D85 JUMP JUMPDEST POP PUSH1 0x0 ISZERO ISZERO DUP2 ISZERO ISZERO SUB PUSH2 0x201F JUMPI PUSH1 0x1 PUSH1 0xA PUSH1 0x0 DUP7 DUP2 MSTORE PUSH1 0x20 ADD SWAP1 DUP2 MSTORE PUSH1 0x20 ADD PUSH1 0x0 KECCAK256 SLOAD PUSH2 0x1F29 SWAP2 SWAP1 PUSH2 0x4AF9 JUMP JUMPDEST PUSH1 0xA PUSH1 0x0 DUP7 DUP2 MSTORE PUSH1 0x20 ADD SWAP1 DUP2 MSTORE PUSH1 0x20 ADD PUSH1 0x0 KECCAK256 DUP2 SWAP1 SSTORE POP PUSH1 0x40 MLOAD DUP1 PUSH1 0x60 ADD PUSH1 0x40 MSTORE DUP1 CALLER PUSH20 0xFFFFFFFFFFFFFFFFFFFFFFFFFFFFFFFFFFFFFFFF AND DUP2 MSTORE PUSH1 0x20 ADD DUP4 DUP2 MSTORE PUSH1 0x20 ADD DUP5 ISZERO ISZERO DUP2 MSTORE POP PUSH1 0x9 PUSH1 0x0 DUP7 DUP2 MSTORE PUSH1 0x20 ADD SWAP1 DUP2 MSTORE PUSH1 0x20 ADD PUSH1 0x0 KECCAK256 PUSH1 0x0 PUSH1 0xA PUSH1 0x0 DUP9 DUP2 MSTORE PUSH1 0x20 ADD SWAP1 DUP2 MSTORE PUSH1 0x20 ADD PUSH1 0x0 KECCAK256 SLOAD DUP2 MSTORE PUSH1 0x20 ADD SWAP1 DUP2 MSTORE PUSH1 0x20 ADD PUSH1 0x0 KECCAK256 PUSH1 0x0 DUP3 ADD MLOAD DUP2 PUSH1 0x0 ADD PUSH1 0x0 PUSH2 0x100 EXP DUP2 SLOAD DUP2 PUSH20 0xFFFFFFFFFFFFFFFFFFFFFFFFFFFFFFFFFFFFFFFF MUL NOT AND SWAP1 DUP4 PUSH20 0xFFFFFFFFFFFFFFFFFFFFFFFFFFFFFFFFFFFFFFFF AND MUL OR SWAP1 SSTORE POP PUSH1 0x20 DUP3 ADD MLOAD DUP2 PUSH1 0x1 ADD SSTORE PUSH1 0x40 DUP3 ADD MLOAD DUP2 PUSH1 0x2 ADD PUSH1 0x0 PUSH2 0x100 EXP DUP2 SLOAD DUP2 PUSH1 0xFF MUL NOT AND SWAP1 DUP4 ISZERO ISZERO MUL OR SWAP1 SSTORE POP SWAP1 POP POP JUMPDEST POP POP POP POP JUMP JUMPDEST PUSH1 0x0 DUP1 PUSH20 0xFFFFFFFFFFFFFFFFFFFFFFFFFFFFFFFFFFFFFFFF AND DUP4 PUSH20 0xFFFFFFFFFFFFFFFFFFFFFFFFFFFFFFFFFFFFFFFF AND SUB PUSH2 0x2095 JUMPI PUSH1 0x40 MLOAD PUSH32 0x8C379A000000000000000000000000000000000000000000000000000000000 DUP2 MSTORE PUSH1 0x4 ADD PUSH2 0x208C SWAP1 PUSH2 0x4FFC JUMP JUMPDEST PUSH1 0x40 MLOAD DUP1 SWAP2 SUB SWAP1 REVERT JUMPDEST PUSH1 0x0 DUP1 DUP4 DUP2 MSTORE PUSH1 0x20 ADD SWAP1 DUP2 MSTORE PUSH1 0x20 ADD PUSH1 0x0 KECCAK256 PUSH1 0x0 DUP5 PUSH20 0xFFFFFFFFFFFFFFFFFFFFFFFFFFFFFFFFFFFFFFFF AND PUSH20 0xFFFFFFFFFFFFFFFFFFFFFFFFFFFFFFFFFFFFFFFF AND DUP2 MSTORE PUSH1 0x20 ADD SWAP1 DUP2 MSTORE PUSH1 0x20 ADD PUSH1 0x0 KECCAK256 SLOAD SWAP1 POP SWAP3 SWAP2 POP POP JUMP JUMPDEST PUSH1 0x0 PUSH32 0x1FFC9A700000000000000000000000000000000000000000000000000000000 PUSH28 0xFFFFFFFFFFFFFFFFFFFFFFFFFFFFFFFFFFFFFFFFFFFFFFFFFFFFFFFF NOT AND DUP3 PUSH28 0xFFFFFFFFFFFFFFFFFFFFFFFFFFFFFFFFFFFFFFFFFFFFFFFFFFFFFFFF NOT AND EQ SWAP1 POP SWAP2 SWAP1 POP JUMP JUMPDEST PUSH1 0x0 CALLER SWAP1 POP SWAP1 JUMP JUMPDEST DUP2 MLOAD DUP4 MLOAD EQ PUSH2 0x21A3 JUMPI PUSH1 0x40 MLOAD PUSH32 0x8C379A000000000000000000000000000000000000000000000000000000000 DUP2 MSTORE PUSH1 0x4 ADD PUSH2 0x219A SWAP1 PUSH2 0x508E JUMP JUMPDEST PUSH1 0x40 MLOAD DUP1 SWAP2 SUB SWAP1 REVERT JUMPDEST PUSH1 0x0 PUSH20 0xFFFFFFFFFFFFFFFFFFFFFFFFFFFFFFFFFFFFFFFF AND DUP5 PUSH20 0xFFFFFFFFFFFFFFFFFFFFFFFFFFFFFFFFFFFFFFFF AND SUB PUSH2 0x2212 JUMPI PUSH1 0x40 MLOAD PUSH32 0x8C379A000000000000000000000000000000000000000000000000000000000 DUP2 MSTORE PUSH1 0x4 ADD PUSH2 0x2209 SWAP1 PUSH2 0x5120 JUMP JUMPDEST PUSH1 0x40 MLOAD DUP1 SWAP2 SUB SWAP1 REVERT JUMPDEST PUSH1 0x0 PUSH2 0x221C PUSH2 0x2157 JUMP JUMPDEST SWAP1 POP PUSH2 0x222C DUP2 DUP8 DUP8 DUP8 DUP8 DUP8 PUSH2 0x2E9E JUMP JUMPDEST PUSH1 0x0 JUMPDEST DUP5 MLOAD DUP2 LT ISZERO PUSH2 0x23DD JUMPI PUSH1 0x0 DUP6 DUP3 DUP2 MLOAD DUP2 LT PUSH2 0x224D JUMPI PUSH2 0x224C PUSH2 0x44BF JUMP JUMPDEST JUMPDEST PUSH1 0x20 MUL PUSH1 0x20 ADD ADD MLOAD SWAP1 POP PUSH1 0x0 DUP6 DUP4 DUP2 MLOAD DUP2 LT PUSH2 0x226C JUMPI PUSH2 0x226B PUSH2 0x44BF JUMP JUMPDEST JUMPDEST PUSH1 0x20 MUL PUSH1 0x20 ADD ADD MLOAD SWAP1 POP PUSH1 0x0 DUP1 PUSH1 0x0 DUP5 DUP2 MSTORE PUSH1 0x20 ADD SWAP1 DUP2 MSTORE PUSH1 0x20 ADD PUSH1 0x0 KECCAK256 PUSH1 0x0 DUP12 PUSH20 0xFFFFFFFFFFFFFFFFFFFFFFFFFFFFFFFFFFFFFFFF AND PUSH20 0xFFFFFFFFFFFFFFFFFFFFFFFFFFFFFFFFFFFFFFFF AND DUP2 MSTORE PUSH1 0x20 ADD SWAP1 DUP2 MSTORE PUSH1 0x20 ADD PUSH1 0x0 KECCAK256 SLOAD SWAP1 POP DUP2 DUP2 LT ISZERO PUSH2 0x230D JUMPI PUSH1 0x40 MLOAD PUSH32 0x8C379A000000000000000000000000000000000000000000000000000000000 DUP2 MSTORE PUSH1 0x4 ADD PUSH2 0x2304 SWAP1 PUSH2 0x51B2 JUMP JUMPDEST PUSH1 0x40 MLOAD DUP1 SWAP2 SUB SWAP1 REVERT JUMPDEST DUP2 DUP2 SUB PUSH1 0x0 DUP1 DUP6 DUP2 MSTORE PUSH1 0x20 ADD SWAP1 DUP2 MSTORE PUSH1 0x20 ADD PUSH1 0x0 KECCAK256 PUSH1 0x0 DUP13 PUSH20 0xFFFFFFFFFFFFFFFFFFFFFFFFFFFFFFFFFFFFFFFF AND PUSH20 0xFFFFFFFFFFFFFFFFFFFFFFFFFFFFFFFFFFFFFFFF AND DUP2 MSTORE PUSH1 0x20 ADD SWAP1 DUP2 MSTORE PUSH1 0x20 ADD PUSH1 0x0 KECCAK256 DUP2 SWAP1 SSTORE POP DUP2 PUSH1 0x0 DUP1 DUP6 DUP2 MSTORE PUSH1 0x20 ADD SWAP1 DUP2 MSTORE PUSH1 0x20 ADD PUSH1 0x0 KECCAK256 PUSH1 0x0 DUP12 PUSH20 0xFFFFFFFFFFFFFFFFFFFFFFFFFFFFFFFFFFFFFFFF AND PUSH20 0xFFFFFFFFFFFFFFFFFFFFFFFFFFFFFFFFFFFFFFFF AND DUP2 MSTORE PUSH1 0x20 ADD SWAP1 DUP2 MSTORE PUSH1 0x20 ADD PUSH1 0x0 KECCAK256 PUSH1 0x0 DUP3 DUP3 SLOAD PUSH2 0x23C2 SWAP2 SWAP1 PUSH2 0x4AF9 JUMP JUMPDEST SWAP3 POP POP DUP2 SWAP1 SSTORE POP POP POP POP DUP1 PUSH2 0x23D6 SWAP1 PUSH2 0x451D JUMP JUMPDEST SWAP1 POP PUSH2 0x222F JUMP JUMPDEST POP DUP5 PUSH20 0xFFFFFFFFFFFFFFFFFFFFFFFFFFFFFFFFFFFFFFFF AND DUP7 PUSH20 0xFFFFFFFFFFFFFFFFFFFFFFFFFFFFFFFFFFFFFFFF AND DUP3 PUSH20 0xFFFFFFFFFFFFFFFFFFFFFFFFFFFFFFFFFFFFFFFF AND PUSH32 0x4A39DC06D4C0DBC64B70AF90FD698A233A518AA5D07E595D983B8C0526C8F7FB DUP8 DUP8 PUSH1 0x40 MLOAD PUSH2 0x2454 SWAP3 SWAP2 SWAP1 PUSH2 0x51D2 JUMP JUMPDEST PUSH1 0x40 MLOAD DUP1 SWAP2 SUB SWAP1 LOG4 PUSH2 0x246A DUP2 DUP8 DUP8 DUP8 DUP8 DUP8 PUSH2 0x2EA6 JUMP JUMPDEST PUSH2 0x2478 DUP2 DUP8 DUP8 DUP8 DUP8 DUP8 PUSH2 0x2EAE JUMP JUMPDEST POP POP POP POP POP POP JUMP JUMPDEST PUSH2 0x2488 PUSH2 0x2157 JUMP JUMPDEST PUSH20 0xFFFFFFFFFFFFFFFFFFFFFFFFFFFFFFFFFFFFFFFF AND PUSH2 0x24A6 PUSH2 0xF6E JUMP JUMPDEST PUSH20 0xFFFFFFFFFFFFFFFFFFFFFFFFFFFFFFFFFFFFFFFF AND EQ PUSH2 0x24FC JUMPI PUSH1 0x40 MLOAD PUSH32 0x8C379A000000000000000000000000000000000000000000000000000000000 DUP2 MSTORE PUSH1 0x4 ADD PUSH2 0x24F3 SWAP1 PUSH2 0x5255 JUMP JUMPDEST PUSH1 0x40 MLOAD DUP1 SWAP2 SUB SWAP1 REVERT JUMPDEST JUMP JUMPDEST PUSH1 0x0 PUSH1 0x3 PUSH1 0x0 SWAP1 SLOAD SWAP1 PUSH2 0x100 EXP SWAP1 DIV PUSH20 0xFFFFFFFFFFFFFFFFFFFFFFFFFFFFFFFFFFFFFFFF AND SWAP1 POP DUP2 PUSH1 0x3 PUSH1 0x0 PUSH2 0x100 EXP DUP2 SLOAD DUP2 PUSH20 0xFFFFFFFFFFFFFFFFFFFFFFFFFFFFFFFFFFFFFFFF MUL NOT AND SWAP1 DUP4 PUSH20 0xFFFFFFFFFFFFFFFFFFFFFFFFFFFFFFFFFFFFFFFF AND MUL OR SWAP1 SSTORE POP DUP2 PUSH20 0xFFFFFFFFFFFFFFFFFFFFFFFFFFFFFFFFFFFFFFFF AND DUP2 PUSH20 0xFFFFFFFFFFFFFFFFFFFFFFFFFFFFFFFFFFFFFFFF AND PUSH32 0x8BE0079C531659141344CD1FD0A4F28419497F9722A3DAAFE3B4186F6B6457E0 PUSH1 0x40 MLOAD PUSH1 0x40 MLOAD DUP1 SWAP2 SUB SWAP1 LOG3 POP POP JUMP JUMPDEST PUSH1 0x0 PUSH20 0xFFFFFFFFFFFFFFFFFFFFFFFFFFFFFFFFFFFFFFFF AND DUP4 PUSH20 0xFFFFFFFFFFFFFFFFFFFFFFFFFFFFFFFFFFFFFFFF AND SUB PUSH2 0x2633 JUMPI PUSH1 0x40 MLOAD PUSH32 0x8C379A000000000000000000000000000000000000000000000000000000000 DUP2 MSTORE PUSH1 0x4 ADD PUSH2 0x262A SWAP1 PUSH2 0x52E7 JUMP JUMPDEST PUSH1 0x40 MLOAD DUP1 SWAP2 SUB SWAP1 REVERT JUMPDEST PUSH1 0x0 PUSH2 0x263D PUSH2 0x2157 JUMP JUMPDEST SWAP1 POP PUSH1 0x0 PUSH2 0x264A DUP5 PUSH2 0x3085 JUMP JUMPDEST SWAP1 POP PUSH1 0x0 PUSH2 0x2657 DUP5 PUSH2 0x3085 JUMP JUMPDEST SWAP1 POP PUSH2 0x2677 DUP4 DUP8 PUSH1 0x0 DUP6 DUP6 PUSH1 0x40 MLOAD DUP1 PUSH1 0x20 ADD PUSH1 0x40 MSTORE DUP1 PUSH1 0x0 DUP2 MSTORE POP PUSH2 0x2E9E JUMP JUMPDEST PUSH1 0x0 DUP1 PUSH1 0x0 DUP8 DUP2 MSTORE PUSH1 0x20 ADD SWAP1 DUP2 MSTORE PUSH1 0x20 ADD PUSH1 0x0 KECCAK256 PUSH1 0x0 DUP9 PUSH20 0xFFFFFFFFFFFFFFFFFFFFFFFFFFFFFFFFFFFFFFFF AND PUSH20 0xFFFFFFFFFFFFFFFFFFFFFFFFFFFFFFFFFFFFFFFF AND DUP2 MSTORE PUSH1 0x20 ADD SWAP1 DUP2 MSTORE PUSH1 0x20 ADD PUSH1 0x0 KECCAK256 SLOAD SWAP1 POP DUP5 DUP2 LT ISZERO PUSH2 0x270E JUMPI PUSH1 0x40 MLOAD PUSH32 0x8C379A000000000000000000000000000000000000000000000000000000000 DUP2 MSTORE PUSH1 0x4 ADD PUSH2 0x2705 SWAP1 PUSH2 0x5379 JUMP JUMPDEST PUSH1 0x40 MLOAD DUP1 SWAP2 SUB SWAP1 REVERT JUMPDEST DUP5 DUP2 SUB PUSH1 0x0 DUP1 DUP9 DUP2 MSTORE PUSH1 0x20 ADD SWAP1 DUP2 MSTORE PUSH1 0x20 ADD PUSH1 0x0 KECCAK256 PUSH1 0x0 DUP10 PUSH20 0xFFFFFFFFFFFFFFFFFFFFFFFFFFFFFFFFFFFFFFFF AND PUSH20 0xFFFFFFFFFFFFFFFFFFFFFFFFFFFFFFFFFFFFFFFF AND DUP2 MSTORE PUSH1 0x20 ADD SWAP1 DUP2 MSTORE PUSH1 0x20 ADD PUSH1 0x0 KECCAK256 DUP2 SWAP1 SSTORE POP PUSH1 0x0 PUSH20 0xFFFFFFFFFFFFFFFFFFFFFFFFFFFFFFFFFFFFFFFF AND DUP8 PUSH20 0xFFFFFFFFFFFFFFFFFFFFFFFFFFFFFFFFFFFFFFFF AND DUP6 PUSH20 0xFFFFFFFFFFFFFFFFFFFFFFFFFFFFFFFFFFFFFFFF AND PUSH32 0xC3D58168C5AE7397731D063D5BBF3D657854427343F4C083240F7AACAA2D0F62 DUP10 DUP10 PUSH1 0x40 MLOAD PUSH2 0x27DB SWAP3 SWAP2 SWAP1 PUSH2 0x362C JUMP JUMPDEST PUSH1 0x40 MLOAD DUP1 SWAP2 SUB SWAP1 LOG4 PUSH2 0x2801 DUP5 DUP9 PUSH1 0x0 DUP7 DUP7 PUSH1 0x40 MLOAD DUP1 PUSH1 0x20 ADD PUSH1 0x40 MSTORE DUP1 PUSH1 0x0 DUP2 MSTORE POP PUSH2 0x2EA6 JUMP JUMPDEST POP POP POP POP POP POP POP JUMP JUMPDEST PUSH2 0x2812 PUSH2 0x3332 JUMP JUMPDEST PUSH2 0x281A PUSH2 0x3332 JUMP JUMPDEST PUSH1 0x0 DUP6 PUSH8 0xDE0B6B3A7640000 DUP7 PUSH2 0x2831 SWAP2 SWAP1 PUSH2 0x49B9 JUMP JUMPDEST PUSH2 0x283B SWAP2 SWAP1 PUSH2 0x53C8 JUMP JUMPDEST SWAP1 POP DUP7 DUP3 PUSH1 0x0 ADD SWAP1 PUSH20 0xFFFFFFFFFFFFFFFFFFFFFFFFFFFFFFFFFFFFFFFF AND SWAP1 DUP2 PUSH20 0xFFFFFFFFFFFFFFFFFFFFFFFFFFFFFFFFFFFFFFFF AND DUP2 MSTORE POP POP DUP6 DUP3 PUSH1 0x20 ADD DUP2 DUP2 MSTORE POP POP PUSH8 0xDE0B6B3A7640000 DUP6 PUSH2 0x2893 SWAP2 SWAP1 PUSH2 0x49B9 JUMP JUMPDEST DUP3 PUSH1 0x40 ADD DUP2 DUP2 MSTORE POP POP DUP1 DUP3 PUSH1 0x60 ADD DUP2 DUP2 MSTORE POP POP DUP4 PUSH3 0x15180 PUSH2 0x28B5 SWAP2 SWAP1 PUSH2 0x49B9 JUMP JUMPDEST TIMESTAMP PUSH2 0x28C0 SWAP2 SWAP1 PUSH2 0x4AF9 JUMP JUMPDEST DUP3 PUSH1 0x80 ADD DUP2 DUP2 MSTORE POP POP PUSH1 0x0 DUP3 PUSH1 0xA0 ADD SWAP1 ISZERO ISZERO SWAP1 DUP2 ISZERO ISZERO DUP2 MSTORE POP POP DUP2 SWAP3 POP POP POP SWAP5 SWAP4 POP POP POP POP JUMP JUMPDEST PUSH1 0x0 PUSH20 0xFFFFFFFFFFFFFFFFFFFFFFFFFFFFFFFFFFFFFFFF AND DUP5 PUSH20 0xFFFFFFFFFFFFFFFFFFFFFFFFFFFFFFFFFFFFFFFF AND SUB PUSH2 0x2956 JUMPI PUSH1 0x40 MLOAD PUSH32 0x8C379A000000000000000000000000000000000000000000000000000000000 DUP2 MSTORE PUSH1 0x4 ADD PUSH2 0x294D SWAP1 PUSH2 0x546B JUMP JUMPDEST PUSH1 0x40 MLOAD DUP1 SWAP2 SUB SWAP1 REVERT JUMPDEST PUSH1 0x0 PUSH2 0x2960 PUSH2 0x2157 JUMP JUMPDEST SWAP1 POP PUSH1 0x0 PUSH2 0x296D DUP6 PUSH2 0x3085 JUMP JUMPDEST SWAP1 POP PUSH1 0x0 PUSH2 0x297A DUP6 PUSH2 0x3085 JUMP JUMPDEST SWAP1 POP PUSH2 0x298B DUP4 PUSH1 0x0 DUP10 DUP6 DUP6 DUP10 PUSH2 0x2E9E JUMP JUMPDEST DUP5 PUSH1 0x0 DUP1 DUP9 DUP2 MSTORE PUSH1 0x20 ADD SWAP1 DUP2 MSTORE PUSH1 0x20 ADD PUSH1 0x0 KECCAK256 PUSH1 0x0 DUP10 PUSH20 0xFFFFFFFFFFFFFFFFFFFFFFFFFFFFFFFFFFFFFFFF AND PUSH20 0xFFFFFFFFFFFFFFFFFFFFFFFFFFFFFFFFFFFFFFFF AND DUP2 MSTORE PUSH1 0x20 ADD SWAP1 DUP2 MSTORE PUSH1 0x20 ADD PUSH1 0x0 KECCAK256 PUSH1 0x0 DUP3 DUP3 SLOAD PUSH2 0x29EA SWAP2 SWAP1 PUSH2 0x4AF9 JUMP JUMPDEST SWAP3 POP POP DUP2 SWAP1 SSTORE POP DUP7 PUSH20 0xFFFFFFFFFFFFFFFFFFFFFFFFFFFFFFFFFFFFFFFF AND PUSH1 0x0 PUSH20 0xFFFFFFFFFFFFFFFFFFFFFFFFFFFFFFFFFFFFFFFF AND DUP5 PUSH20 0xFFFFFFFFFFFFFFFFFFFFFFFFFFFFFFFFFFFFFFFF AND PUSH32 0xC3D58168C5AE7397731D063D5BBF3D657854427343F4C083240F7AACAA2D0F62 DUP10 DUP10 PUSH1 0x40 MLOAD PUSH2 0x2A68 SWAP3 SWAP2 SWAP1 PUSH2 0x362C JUMP JUMPDEST PUSH1 0x40 MLOAD DUP1 SWAP2 SUB SWAP1 LOG4 PUSH2 0x2A7F DUP4 PUSH1 0x0 DUP10 DUP6 DUP6 DUP10 PUSH2 0x2EA6 JUMP JUMPDEST PUSH2 0x2A8E DUP4 PUSH1 0x0 DUP10 DUP10 DUP10 DUP10 PUSH2 0x30FF JUMP JUMPDEST POP POP POP POP POP POP POP JUMP JUMPDEST DUP2 PUSH20 0xFFFFFFFFFFFFFFFFFFFFFFFFFFFFFFFFFFFFFFFF AND DUP4 PUSH20 0xFFFFFFFFFFFFFFFFFFFFFFFFFFFFFFFFFFFFFFFF AND SUB PUSH2 0x2B05 JUMPI PUSH1 0x40 MLOAD PUSH32 0x8C379A000000000000000000000000000000000000000000000000000000000 DUP2 MSTORE PUSH1 0x4 ADD PUSH2 0x2AFC SWAP1 PUSH2 0x54FD JUMP JUMPDEST PUSH1 0x40 MLOAD DUP1 SWAP2 SUB SWAP1 REVERT JUMPDEST DUP1 PUSH1 0x1 PUSH1 0x0 DUP6 PUSH20 0xFFFFFFFFFFFFFFFFFFFFFFFFFFFFFFFFFFFFFFFF AND PUSH20 0xFFFFFFFFFFFFFFFFFFFFFFFFFFFFFFFFFFFFFFFF AND DUP2 MSTORE PUSH1 0x20 ADD SWAP1 DUP2 MSTORE PUSH1 0x20 ADD PUSH1 0x0 KECCAK256 PUSH1 0x0 DUP5 PUSH20 0xFFFFFFFFFFFFFFFFFFFFFFFFFFFFFFFFFFFFFFFF AND PUSH20 0xFFFFFFFFFFFFFFFFFFFFFFFFFFFFFFFFFFFFFFFF AND DUP2 MSTORE PUSH1 0x20 ADD SWAP1 DUP2 MSTORE PUSH1 0x20 ADD PUSH1 0x0 KECCAK256 PUSH1 0x0 PUSH2 0x100 EXP DUP2 SLOAD DUP2 PUSH1 0xFF MUL NOT AND SWAP1 DUP4 ISZERO ISZERO MUL OR SWAP1 SSTORE POP DUP2 PUSH20 0xFFFFFFFFFFFFFFFFFFFFFFFFFFFFFFFFFFFFFFFF AND DUP4 PUSH20 0xFFFFFFFFFFFFFFFFFFFFFFFFFFFFFFFFFFFFFFFF AND PUSH32 0x17307EAB39AB6107E8899845AD3D59BD9653F200F220920489CA2B5937696C31 DUP4 PUSH1 0x40 MLOAD PUSH2 0x2BF6 SWAP2 SWAP1 PUSH2 0x3532 JUMP JUMPDEST PUSH1 0x40 MLOAD DUP1 SWAP2 SUB SWAP1 LOG3 POP POP POP JUMP JUMPDEST PUSH1 0x0 PUSH20 0xFFFFFFFFFFFFFFFFFFFFFFFFFFFFFFFFFFFFFFFF AND DUP5 PUSH20 0xFFFFFFFFFFFFFFFFFFFFFFFFFFFFFFFFFFFFFFFF AND SUB PUSH2 0x2C72 JUMPI PUSH1 0x40 MLOAD PUSH32 0x8C379A000000000000000000000000000000000000000000000000000000000 DUP2 MSTORE PUSH1 0x4 ADD PUSH2 0x2C69 SWAP1 PUSH2 0x5120 JUMP JUMPDEST PUSH1 0x40 MLOAD DUP1 SWAP2 SUB SWAP1 REVERT JUMPDEST PUSH1 0x0 PUSH2 0x2C7C PUSH2 0x2157 JUMP JUMPDEST SWAP1 POP PUSH1 0x0 PUSH2 0x2C89 DUP6 PUSH2 0x3085 JUMP JUMPDEST SWAP1 POP PUSH1 0x0 PUSH2 0x2C96 DUP6 PUSH2 0x3085 JUMP JUMPDEST SWAP1 POP PUSH2 0x2CA6 DUP4 DUP10 DUP10 DUP6 DUP6 DUP10 PUSH2 0x2E9E JUMP JUMPDEST PUSH1 0x0 DUP1 PUSH1 0x0 DUP9 DUP2 MSTORE PUSH1 0x20 ADD SWAP1 DUP2 MSTORE PUSH1 0x20 ADD PUSH1 0x0 KECCAK256 PUSH1 0x0 DUP11 PUSH20 0xFFFFFFFFFFFFFFFFFFFFFFFFFFFFFFFFFFFFFFFF AND PUSH20 0xFFFFFFFFFFFFFFFFFFFFFFFFFFFFFFFFFFFFFFFF AND DUP2 MSTORE PUSH1 0x20 ADD SWAP1 DUP2 MSTORE PUSH1 0x20 ADD PUSH1 0x0 KECCAK256 SLOAD SWAP1 POP DUP6 DUP2 LT ISZERO PUSH2 0x2D3D JUMPI PUSH1 0x40 MLOAD PUSH32 0x8C379A000000000000000000000000000000000000000000000000000000000 DUP2 MSTORE PUSH1 0x4 ADD PUSH2 0x2D34 SWAP1 PUSH2 0x51B2 JUMP JUMPDEST PUSH1 0x40 MLOAD DUP1 SWAP2 SUB SWAP1 REVERT JUMPDEST DUP6 DUP2 SUB PUSH1 0x0 DUP1 DUP10 DUP2 MSTORE PUSH1 0x20 ADD SWAP1 DUP2 MSTORE PUSH1 0x20 ADD PUSH1 0x0 KECCAK256 PUSH1 0x0 DUP12 PUSH20 0xFFFFFFFFFFFFFFFFFFFFFFFFFFFFFFFFFFFFFFFF AND PUSH20 0xFFFFFFFFFFFFFFFFFFFFFFFFFFFFFFFFFFFFFFFF AND DUP2 MSTORE PUSH1 0x20 ADD SWAP1 DUP2 MSTORE PUSH1 0x20 ADD PUSH1 0x0 KECCAK256 DUP2 SWAP1 SSTORE POP DUP6 PUSH1 0x0 DUP1 DUP10 DUP2 MSTORE PUSH1 0x20 ADD SWAP1 DUP2 MSTORE PUSH1 0x20 ADD PUSH1 0x0 KECCAK256 PUSH1 0x0 DUP11 PUSH20 0xFFFFFFFFFFFFFFFFFFFFFFFFFFFFFFFFFFFFFFFF AND PUSH20 0xFFFFFFFFFFFFFFFFFFFFFFFFFFFFFFFFFFFFFFFF AND DUP2 MSTORE PUSH1 0x20 ADD SWAP1 DUP2 MSTORE PUSH1 0x20 ADD PUSH1 0x0 KECCAK256 PUSH1 0x0 DUP3 DUP3 SLOAD PUSH2 0x2DF2 SWAP2 SWAP1 PUSH2 0x4AF9 JUMP JUMPDEST SWAP3 POP POP DUP2 SWAP1 SSTORE POP DUP8 PUSH20 0xFFFFFFFFFFFFFFFFFFFFFFFFFFFFFFFFFFFFFFFF AND DUP10 PUSH20 0xFFFFFFFFFFFFFFFFFFFFFFFFFFFFFFFFFFFFFFFF AND DUP6 PUSH20 0xFFFFFFFFFFFFFFFFFFFFFFFFFFFFFFFFFFFFFFFF AND PUSH32 0xC3D58168C5AE7397731D063D5BBF3D657854427343F4C083240F7AACAA2D0F62 DUP11 DUP11 PUSH1 0x40 MLOAD PUSH2 0x2E6F SWAP3 SWAP2 SWAP1 PUSH2 0x362C JUMP JUMPDEST PUSH1 0x40 MLOAD DUP1 SWAP2 SUB SWAP1 LOG4 PUSH2 0x2E85 DUP5 DUP11 DUP11 DUP7 DUP7 DUP11 PUSH2 0x2EA6 JUMP JUMPDEST PUSH2 0x2E93 DUP5 DUP11 DUP11 DUP11 DUP11 DUP11 PUSH2 0x30FF JUMP JUMPDEST POP POP POP POP POP POP POP POP POP JUMP JUMPDEST POP POP POP POP POP POP JUMP JUMPDEST POP POP POP POP POP POP JUMP JUMPDEST PUSH2 0x2ECD DUP5 PUSH20 0xFFFFFFFFFFFFFFFFFFFFFFFFFFFFFFFFFFFFFFFF AND PUSH2 0x32D6 JUMP JUMPDEST ISZERO PUSH2 0x307D JUMPI DUP4 PUSH20 0xFFFFFFFFFFFFFFFFFFFFFFFFFFFFFFFFFFFFFFFF AND PUSH4 0xBC197C81 DUP8 DUP8 DUP7 DUP7 DUP7 PUSH1 0x40 MLOAD DUP7 PUSH4 0xFFFFFFFF AND PUSH1 0xE0 SHL DUP2 MSTORE PUSH1 0x4 ADD PUSH2 0x2F13 SWAP6 SWAP5 SWAP4 SWAP3 SWAP2 SWAP1 PUSH2 0x5572 JUMP JUMPDEST PUSH1 0x20 PUSH1 0x40 MLOAD DUP1 DUP4 SUB DUP2 PUSH1 0x0 DUP8 GAS CALL SWAP3 POP POP POP DUP1 ISZERO PUSH2 0x2F4F JUMPI POP PUSH1 0x40 MLOAD RETURNDATASIZE PUSH1 0x1F NOT PUSH1 0x1F DUP3 ADD AND DUP3 ADD DUP1 PUSH1 0x40 MSTORE POP DUP2 ADD SWAP1 PUSH2 0x2F4C SWAP2 SWAP1 PUSH2 0x55EF JUMP JUMPDEST PUSH1 0x1 JUMPDEST PUSH2 0x2FF4 JUMPI PUSH2 0x2F5B PUSH2 0x5629 JUMP JUMPDEST DUP1 PUSH4 0x8C379A0 SUB PUSH2 0x2FB7 JUMPI POP PUSH2 0x2F6F PUSH2 0x564B JUMP JUMPDEST DUP1 PUSH2 0x2F7A JUMPI POP PUSH2 0x2FB9 JUMP JUMPDEST DUP1 PUSH1 0x40 MLOAD PUSH32 0x8C379A000000000000000000000000000000000000000000000000000000000 DUP2 MSTORE PUSH1 0x4 ADD PUSH2 0x2FAE SWAP2 SWAP1 PUSH2 0x360A JUMP JUMPDEST PUSH1 0x40 MLOAD DUP1 SWAP2 SUB SWAP1 REVERT JUMPDEST POP JUMPDEST PUSH1 0x40 MLOAD PUSH32 0x8C379A000000000000000000000000000000000000000000000000000000000 DUP2 MSTORE PUSH1 0x4 ADD PUSH2 0x2FEB SWAP1 PUSH2 0x574D JUMP JUMPDEST PUSH1 0x40 MLOAD DUP1 SWAP2 SUB SWAP1 REVERT JUMPDEST PUSH4 0xBC197C81 PUSH1 0xE0 SHL PUSH28 0xFFFFFFFFFFFFFFFFFFFFFFFFFFFFFFFFFFFFFFFFFFFFFFFFFFFFFFFF NOT AND DUP2 PUSH28 0xFFFFFFFFFFFFFFFFFFFFFFFFFFFFFFFFFFFFFFFFFFFFFFFFFFFFFFFF NOT AND EQ PUSH2 0x307B JUMPI PUSH1 0x40 MLOAD PUSH32 0x8C379A000000000000000000000000000000000000000000000000000000000 DUP2 MSTORE PUSH1 0x4 ADD PUSH2 0x3072 SWAP1 PUSH2 0x57DF JUMP JUMPDEST PUSH1 0x40 MLOAD DUP1 SWAP2 SUB SWAP1 REVERT JUMPDEST POP JUMPDEST POP POP POP POP POP POP JUMP JUMPDEST PUSH1 0x60 PUSH1 0x0 PUSH1 0x1 PUSH8 0xFFFFFFFFFFFFFFFF DUP2 GT ISZERO PUSH2 0x30A4 JUMPI PUSH2 0x30A3 PUSH2 0x365A JUMP JUMPDEST JUMPDEST PUSH1 0x40 MLOAD SWAP1 DUP1 DUP3 MSTORE DUP1 PUSH1 0x20 MUL PUSH1 0x20 ADD DUP3 ADD PUSH1 0x40 MSTORE DUP1 ISZERO PUSH2 0x30D2 JUMPI DUP2 PUSH1 0x20 ADD PUSH1 0x20 DUP3 MUL DUP1 CALLDATASIZE DUP4 CALLDATACOPY DUP1 DUP3 ADD SWAP2 POP POP SWAP1 POP JUMPDEST POP SWAP1 POP DUP3 DUP2 PUSH1 0x0 DUP2 MLOAD DUP2 LT PUSH2 0x30EA JUMPI PUSH2 0x30E9 PUSH2 0x44BF JUMP JUMPDEST JUMPDEST PUSH1 0x20 MUL PUSH1 0x20 ADD ADD DUP2 DUP2 MSTORE POP POP DUP1 SWAP2 POP POP SWAP2 SWAP1 POP JUMP JUMPDEST PUSH2 0x311E DUP5 PUSH20 0xFFFFFFFFFFFFFFFFFFFFFFFFFFFFFFFFFFFFFFFF AND PUSH2 0x32D6 JUMP JUMPDEST ISZERO PUSH2 0x32CE JUMPI DUP4 PUSH20 0xFFFFFFFFFFFFFFFFFFFFFFFFFFFFFFFFFFFFFFFF AND PUSH4 0xF23A6E61 DUP8 DUP8 DUP7 DUP7 DUP7 PUSH1 0x40 MLOAD DUP7 PUSH4 0xFFFFFFFF AND PUSH1 0xE0 SHL DUP2 MSTORE PUSH1 0x4 ADD PUSH2 0x3164 SWAP6 SWAP5 SWAP4 SWAP3 SWAP2 SWAP1 PUSH2 0x57FF JUMP JUMPDEST PUSH1 0x20 PUSH1 0x40 MLOAD DUP1 DUP4 SUB DUP2 PUSH1 0x0 DUP8 GAS CALL SWAP3 POP POP POP DUP1 ISZERO PUSH2 0x31A0 JUMPI POP PUSH1 0x40 MLOAD RETURNDATASIZE PUSH1 0x1F NOT PUSH1 0x1F DUP3 ADD AND DUP3 ADD DUP1 PUSH1 0x40 MSTORE POP DUP2 ADD SWAP1 PUSH2 0x319D SWAP2 SWAP1 PUSH2 0x55EF JUMP JUMPDEST PUSH1 0x1 JUMPDEST PUSH2 0x3245 JUMPI PUSH2 0x31AC PUSH2 0x5629 JUMP JUMPDEST DUP1 PUSH4 0x8C379A0 SUB PUSH2 0x3208 JUMPI POP PUSH2 0x31C0 PUSH2 0x564B JUMP JUMPDEST DUP1 PUSH2 0x31CB JUMPI POP PUSH2 0x320A JUMP JUMPDEST DUP1 PUSH1 0x40 MLOAD PUSH32 0x8C379A000000000000000000000000000000000000000000000000000000000 DUP2 MSTORE PUSH1 0x4 ADD PUSH2 0x31FF SWAP2 SWAP1 PUSH2 0x360A JUMP JUMPDEST PUSH1 0x40 MLOAD DUP1 SWAP2 SUB SWAP1 REVERT JUMPDEST POP JUMPDEST PUSH1 0x40 MLOAD PUSH32 0x8C379A000000000000000000000000000000000000000000000000000000000 DUP2 MSTORE PUSH1 0x4 ADD PUSH2 0x323C SWAP1 PUSH2 0x574D JUMP JUMPDEST PUSH1 0x40 MLOAD DUP1 SWAP2 SUB SWAP1 REVERT JUMPDEST PUSH4 0xF23A6E61 PUSH1 0xE0 SHL PUSH28 0xFFFFFFFFFFFFFFFFFFFFFFFFFFFFFFFFFFFFFFFFFFFFFFFFFFFFFFFF NOT AND DUP2 PUSH28 0xFFFFFFFFFFFFFFFFFFFFFFFFFFFFFFFFFFFFFFFFFFFFFFFFFFFFFFFF NOT AND EQ PUSH2 0x32CC JUMPI PUSH1 0x40 MLOAD PUSH32 0x8C379A000000000000000000000000000000000000000000000000000000000 DUP2 MSTORE PUSH1 0x4 ADD PUSH2 0x32C3 SWAP1 PUSH2 0x57DF JUMP JUMPDEST PUSH1 0x40 MLOAD DUP1 SWAP2 SUB SWAP1 REVERT JUMPDEST POP JUMPDEST POP POP POP POP POP POP JUMP JUMPDEST PUSH1 0x0 DUP1 DUP3 PUSH20 0xFFFFFFFFFFFFFFFFFFFFFFFFFFFFFFFFFFFFFFFF AND EXTCODESIZE GT SWAP1 POP SWAP2 SWAP1 POP JUMP JUMPDEST PUSH1 0x40 MLOAD DUP1 PUSH1 0x60 ADD PUSH1 0x40 MSTORE DUP1 PUSH1 0x0 PUSH20 0xFFFFFFFFFFFFFFFFFFFFFFFFFFFFFFFFFFFFFFFF AND DUP2 MSTORE PUSH1 0x20 ADD PUSH1 0x0 DUP2 MSTORE PUSH1 0x20 ADD PUSH1 0x0 ISZERO ISZERO DUP2 MSTORE POP SWAP1 JUMP JUMPDEST PUSH1 0x40 MLOAD DUP1 PUSH1 0xC0 ADD PUSH1 0x40 MSTORE DUP1 PUSH1 0x0 PUSH20 0xFFFFFFFFFFFFFFFFFFFFFFFFFFFFFFFFFFFFFFFF AND DUP2 MSTORE PUSH1 0x20 ADD PUSH1 0x0 DUP2 MSTORE PUSH1 0x20 ADD PUSH1 0x0 DUP2 MSTORE PUSH1 0x20 ADD PUSH1 0x0 DUP2 MSTORE PUSH1 0x20 ADD PUSH1 0x0 DUP2 MSTORE PUSH1 0x20 ADD PUSH1 0x0 ISZERO ISZERO DUP2 MSTORE POP SWAP1 JUMP JUMPDEST PUSH1 0x0 PUSH1 0x40 MLOAD SWAP1 POP SWAP1 JUMP JUMPDEST PUSH1 0x0 DUP1 REVERT JUMPDEST PUSH1 0x0 DUP1 REVERT JUMPDEST PUSH1 0x0 PUSH20 0xFFFFFFFFFFFFFFFFFFFFFFFFFFFFFFFFFFFFFFFF DUP3 AND SWAP1 POP SWAP2 SWAP1 POP JUMP JUMPDEST PUSH1 0x0 PUSH2 0x33BF DUP3 PUSH2 0x3394 JUMP JUMPDEST SWAP1 POP SWAP2 SWAP1 POP JUMP JUMPDEST PUSH2 0x33CF DUP2 PUSH2 0x33B4 JUMP JUMPDEST DUP2 EQ PUSH2 0x33DA JUMPI PUSH1 0x0 DUP1 REVERT JUMPDEST POP JUMP JUMPDEST PUSH1 0x0 DUP2 CALLDATALOAD SWAP1 POP PUSH2 0x33EC DUP2 PUSH2 0x33C6 JUMP JUMPDEST SWAP3 SWAP2 POP POP JUMP JUMPDEST PUSH1 0x0 DUP2 SWAP1 POP SWAP2 SWAP1 POP JUMP JUMPDEST PUSH2 0x3405 DUP2 PUSH2 0x33F2 JUMP JUMPDEST DUP2 EQ PUSH2 0x3410 JUMPI PUSH1 0x0 DUP1 REVERT JUMPDEST POP JUMP JUMPDEST PUSH1 0x0 DUP2 CALLDATALOAD SWAP1 POP PUSH2 0x3422 DUP2 PUSH2 0x33FC JUMP JUMPDEST SWAP3 SWAP2 POP POP JUMP JUMPDEST PUSH1 0x0 DUP1 PUSH1 0x40 DUP4 DUP6 SUB SLT ISZERO PUSH2 0x343F JUMPI PUSH2 0x343E PUSH2 0x338A JUMP JUMPDEST JUMPDEST PUSH1 0x0 PUSH2 0x344D DUP6 DUP3 DUP7 ADD PUSH2 0x33DD JUMP JUMPDEST SWAP3 POP POP PUSH1 0x20 PUSH2 0x345E DUP6 DUP3 DUP7 ADD PUSH2 0x3413 JUMP JUMPDEST SWAP2 POP POP SWAP3 POP SWAP3 SWAP1 POP JUMP JUMPDEST PUSH2 0x3471 DUP2 PUSH2 0x33F2 JUMP JUMPDEST DUP3 MSTORE POP POP JUMP JUMPDEST PUSH1 0x0 PUSH1 0x20 DUP3 ADD SWAP1 POP PUSH2 0x348C PUSH1 0x0 DUP4 ADD DUP5 PUSH2 0x3468 JUMP JUMPDEST SWAP3 SWAP2 POP POP JUMP JUMPDEST PUSH1 0x0 PUSH32 0xFFFFFFFF00000000000000000000000000000000000000000000000000000000 DUP3 AND SWAP1 POP SWAP2 SWAP1 POP JUMP JUMPDEST PUSH2 0x34C7 DUP2 PUSH2 0x3492 JUMP JUMPDEST DUP2 EQ PUSH2 0x34D2 JUMPI PUSH1 0x0 DUP1 REVERT JUMPDEST POP JUMP JUMPDEST PUSH1 0x0 DUP2 CALLDATALOAD SWAP1 POP PUSH2 0x34E4 DUP2 PUSH2 0x34BE JUMP JUMPDEST SWAP3 SWAP2 POP POP JUMP JUMPDEST PUSH1 0x0 PUSH1 0x20 DUP3 DUP5 SUB SLT ISZERO PUSH2 0x3500 JUMPI PUSH2 0x34FF PUSH2 0x338A JUMP JUMPDEST JUMPDEST PUSH1 0x0 PUSH2 0x350E DUP5 DUP3 DUP6 ADD PUSH2 0x34D5 JUMP JUMPDEST SWAP2 POP POP SWAP3 SWAP2 POP POP JUMP JUMPDEST PUSH1 0x0 DUP2 ISZERO ISZERO SWAP1 POP SWAP2 SWAP1 POP JUMP JUMPDEST PUSH2 0x352C DUP2 PUSH2 0x3517 JUMP JUMPDEST DUP3 MSTORE POP POP JUMP JUMPDEST PUSH1 0x0 PUSH1 0x20 DUP3 ADD SWAP1 POP PUSH2 0x3547 PUSH1 0x0 DUP4 ADD DUP5 PUSH2 0x3523 JUMP JUMPDEST SWAP3 SWAP2 POP POP JUMP JUMPDEST PUSH1 0x0 PUSH1 0x20 DUP3 DUP5 SUB SLT ISZERO PUSH2 0x3563 JUMPI PUSH2 0x3562 PUSH2 0x338A JUMP JUMPDEST JUMPDEST PUSH1 0x0 PUSH2 0x3571 DUP5 DUP3 DUP6 ADD PUSH2 0x3413 JUMP JUMPDEST SWAP2 POP POP SWAP3 SWAP2 POP POP JUMP JUMPDEST PUSH1 0x0 DUP2 MLOAD SWAP1 POP SWAP2 SWAP1 POP JUMP JUMPDEST PUSH1 0x0 DUP3 DUP3 MSTORE PUSH1 0x20 DUP3 ADD SWAP1 POP SWAP3 SWAP2 POP POP JUMP JUMPDEST PUSH1 0x0 JUMPDEST DUP4 DUP2 LT ISZERO PUSH2 0x35B4 JUMPI DUP1 DUP3 ADD MLOAD DUP2 DUP5 ADD MSTORE PUSH1 0x20 DUP2 ADD SWAP1 POP PUSH2 0x3599 JUMP JUMPDEST PUSH1 0x0 DUP5 DUP5 ADD MSTORE POP POP POP POP JUMP JUMPDEST PUSH1 0x0 PUSH1 0x1F NOT PUSH1 0x1F DUP4 ADD AND SWAP1 POP SWAP2 SWAP1 POP JUMP JUMPDEST PUSH1 0x0 PUSH2 0x35DC DUP3 PUSH2 0x357A JUMP JUMPDEST PUSH2 0x35E6 DUP2 DUP6 PUSH2 0x3585 JUMP JUMPDEST SWAP4 POP PUSH2 0x35F6 DUP2 DUP6 PUSH1 0x20 DUP7 ADD PUSH2 0x3596 JUMP JUMPDEST PUSH2 0x35FF DUP2 PUSH2 0x35C0 JUMP JUMPDEST DUP5 ADD SWAP2 POP POP SWAP3 SWAP2 POP POP JUMP JUMPDEST PUSH1 0x0 PUSH1 0x20 DUP3 ADD SWAP1 POP DUP2 DUP2 SUB PUSH1 0x0 DUP4 ADD MSTORE PUSH2 0x3624 DUP2 DUP5 PUSH2 0x35D1 JUMP JUMPDEST SWAP1 POP SWAP3 SWAP2 POP POP JUMP JUMPDEST PUSH1 0x0 PUSH1 0x40 DUP3 ADD SWAP1 POP PUSH2 0x3641 PUSH1 0x0 DUP4 ADD DUP6 PUSH2 0x3468 JUMP JUMPDEST PUSH2 0x364E PUSH1 0x20 DUP4 ADD DUP5 PUSH2 0x3468 JUMP JUMPDEST SWAP4 SWAP3 POP POP POP JUMP JUMPDEST PUSH1 0x0 DUP1 REVERT JUMPDEST PUSH32 0x4E487B7100000000000000000000000000000000000000000000000000000000 PUSH1 0x0 MSTORE PUSH1 0x41 PUSH1 0x4 MSTORE PUSH1 0x24 PUSH1 0x0 REVERT JUMPDEST PUSH2 0x3692 DUP3 PUSH2 0x35C0 JUMP JUMPDEST DUP2 ADD DUP2 DUP2 LT PUSH8 0xFFFFFFFFFFFFFFFF DUP3 GT OR ISZERO PUSH2 0x36B1 JUMPI PUSH2 0x36B0 PUSH2 0x365A JUMP JUMPDEST JUMPDEST DUP1 PUSH1 0x40 MSTORE POP POP POP JUMP JUMPDEST PUSH1 0x0 PUSH2 0x36C4 PUSH2 0x3380 JUMP JUMPDEST SWAP1 POP PUSH2 0x36D0 DUP3 DUP3 PUSH2 0x3689 JUMP JUMPDEST SWAP2 SWAP1 POP JUMP JUMPDEST PUSH1 0x0 PUSH8 0xFFFFFFFFFFFFFFFF DUP3 GT ISZERO PUSH2 0x36F0 JUMPI PUSH2 0x36EF PUSH2 0x365A JUMP JUMPDEST JUMPDEST PUSH1 0x20 DUP3 MUL SWAP1 POP PUSH1 0x20 DUP2 ADD SWAP1 POP SWAP2 SWAP1 POP JUMP JUMPDEST PUSH1 0x0 DUP1 REVERT JUMPDEST PUSH1 0x0 PUSH2 0x3719 PUSH2 0x3714 DUP5 PUSH2 0x36D5 JUMP JUMPDEST PUSH2 0x36BA JUMP JUMPDEST SWAP1 POP DUP1 DUP4 DUP3 MSTORE PUSH1 0x20 DUP3 ADD SWAP1 POP PUSH1 0x20 DUP5 MUL DUP4 ADD DUP6 DUP2 GT ISZERO PUSH2 0x373C JUMPI PUSH2 0x373B PUSH2 0x3701 JUMP JUMPDEST JUMPDEST DUP4 JUMPDEST DUP2 DUP2 LT ISZERO PUSH2 0x3765 JUMPI DUP1 PUSH2 0x3751 DUP9 DUP3 PUSH2 0x3413 JUMP JUMPDEST DUP5 MSTORE PUSH1 0x20 DUP5 ADD SWAP4 POP POP PUSH1 0x20 DUP2 ADD SWAP1 POP PUSH2 0x373E JUMP JUMPDEST POP POP POP SWAP4 SWAP3 POP POP POP JUMP JUMPDEST PUSH1 0x0 DUP3 PUSH1 0x1F DUP4 ADD SLT PUSH2 0x3784 JUMPI PUSH2 0x3783 PUSH2 0x3655 JUMP JUMPDEST JUMPDEST DUP2 CALLDATALOAD PUSH2 0x3794 DUP5 DUP3 PUSH1 0x20 DUP7 ADD PUSH2 0x3706 JUMP JUMPDEST SWAP2 POP POP SWAP3 SWAP2 POP POP JUMP JUMPDEST PUSH1 0x0 DUP1 REVERT JUMPDEST PUSH1 0x0 PUSH8 0xFFFFFFFFFFFFFFFF DUP3 GT ISZERO PUSH2 0x37BD JUMPI PUSH2 0x37BC PUSH2 0x365A JUMP JUMPDEST JUMPDEST PUSH2 0x37C6 DUP3 PUSH2 0x35C0 JUMP JUMPDEST SWAP1 POP PUSH1 0x20 DUP2 ADD SWAP1 POP SWAP2 SWAP1 POP JUMP JUMPDEST DUP3 DUP2 DUP4 CALLDATACOPY PUSH1 0x0 DUP4 DUP4 ADD MSTORE POP POP POP JUMP JUMPDEST PUSH1 0x0 PUSH2 0x37F5 PUSH2 0x37F0 DUP5 PUSH2 0x37A2 JUMP JUMPDEST PUSH2 0x36BA JUMP JUMPDEST SWAP1 POP DUP3 DUP2 MSTORE PUSH1 0x20 DUP2 ADD DUP5 DUP5 DUP5 ADD GT ISZERO PUSH2 0x3811 JUMPI PUSH2 0x3810 PUSH2 0x379D JUMP JUMPDEST JUMPDEST PUSH2 0x381C DUP5 DUP3 DUP6 PUSH2 0x37D3 JUMP JUMPDEST POP SWAP4 SWAP3 POP POP POP JUMP JUMPDEST PUSH1 0x0 DUP3 PUSH1 0x1F DUP4 ADD SLT PUSH2 0x3839 JUMPI PUSH2 0x3838 PUSH2 0x3655 JUMP JUMPDEST JUMPDEST DUP2 CALLDATALOAD PUSH2 0x3849 DUP5 DUP3 PUSH1 0x20 DUP7 ADD PUSH2 0x37E2 JUMP JUMPDEST SWAP2 POP POP SWAP3 SWAP2 POP POP JUMP JUMPDEST PUSH1 0x0 DUP1 PUSH1 0x0 DUP1 PUSH1 0x0 PUSH1 0xA0 DUP7 DUP9 SUB SLT ISZERO PUSH2 0x386E JUMPI PUSH2 0x386D PUSH2 0x338A JUMP JUMPDEST JUMPDEST PUSH1 0x0 PUSH2 0x387C DUP9 DUP3 DUP10 ADD PUSH2 0x33DD JUMP JUMPDEST SWAP6 POP POP PUSH1 0x20 PUSH2 0x388D DUP9 DUP3 DUP10 ADD PUSH2 0x33DD JUMP JUMPDEST SWAP5 POP POP PUSH1 0x40 DUP7 ADD CALLDATALOAD PUSH8 0xFFFFFFFFFFFFFFFF DUP2 GT ISZERO PUSH2 0x38AE JUMPI PUSH2 0x38AD PUSH2 0x338F JUMP JUMPDEST JUMPDEST PUSH2 0x38BA DUP9 DUP3 DUP10 ADD PUSH2 0x376F JUMP JUMPDEST SWAP4 POP POP PUSH1 0x60 DUP7 ADD CALLDATALOAD PUSH8 0xFFFFFFFFFFFFFFFF DUP2 GT ISZERO PUSH2 0x38DB JUMPI PUSH2 0x38DA PUSH2 0x338F JUMP JUMPDEST JUMPDEST PUSH2 0x38E7 DUP9 DUP3 DUP10 ADD PUSH2 0x376F JUMP JUMPDEST SWAP3 POP POP PUSH1 0x80 DUP7 ADD CALLDATALOAD PUSH8 0xFFFFFFFFFFFFFFFF DUP2 GT ISZERO PUSH2 0x3908 JUMPI PUSH2 0x3907 PUSH2 0x338F JUMP JUMPDEST JUMPDEST PUSH2 0x3914 DUP9 DUP3 DUP10 ADD PUSH2 0x3824 JUMP JUMPDEST SWAP2 POP POP SWAP3 SWAP6 POP SWAP3 SWAP6 SWAP1 SWAP4 POP JUMP JUMPDEST PUSH1 0x0 DUP2 SWAP1 POP SWAP2 SWAP1 POP JUMP JUMPDEST PUSH1 0x0 PUSH2 0x3946 PUSH2 0x3941 PUSH2 0x393C DUP5 PUSH2 0x3394 JUMP JUMPDEST PUSH2 0x3921 JUMP JUMPDEST PUSH2 0x3394 JUMP JUMPDEST SWAP1 POP SWAP2 SWAP1 POP JUMP JUMPDEST PUSH1 0x0 PUSH2 0x3958 DUP3 PUSH2 0x392B JUMP JUMPDEST SWAP1 POP SWAP2 SWAP1 POP JUMP JUMPDEST PUSH1 0x0 PUSH2 0x396A DUP3 PUSH2 0x394D JUMP JUMPDEST SWAP1 POP SWAP2 SWAP1 POP JUMP JUMPDEST PUSH2 0x397A DUP2 PUSH2 0x395F JUMP JUMPDEST DUP3 MSTORE POP POP JUMP JUMPDEST PUSH1 0x0 PUSH1 0x20 DUP3 ADD SWAP1 POP PUSH2 0x3995 PUSH1 0x0 DUP4 ADD DUP5 PUSH2 0x3971 JUMP JUMPDEST SWAP3 SWAP2 POP POP JUMP JUMPDEST PUSH1 0x0 PUSH1 0x20 DUP3 DUP5 SUB SLT ISZERO PUSH2 0x39B1 JUMPI PUSH2 0x39B0 PUSH2 0x338A JUMP JUMPDEST JUMPDEST PUSH1 0x0 PUSH2 0x39BF DUP5 DUP3 DUP6 ADD PUSH2 0x33DD JUMP JUMPDEST SWAP2 POP POP SWAP3 SWAP2 POP POP JUMP JUMPDEST PUSH1 0x0 DUP1 PUSH1 0x40 DUP4 DUP6 SUB SLT ISZERO PUSH2 0x39DF JUMPI PUSH2 0x39DE PUSH2 0x338A JUMP JUMPDEST JUMPDEST PUSH1 0x0 PUSH2 0x39ED DUP6 DUP3 DUP7 ADD PUSH2 0x3413 JUMP JUMPDEST SWAP3 POP POP PUSH1 0x20 PUSH2 0x39FE DUP6 DUP3 DUP7 ADD PUSH2 0x3413 JUMP JUMPDEST SWAP2 POP POP SWAP3 POP SWAP3 SWAP1 POP JUMP JUMPDEST PUSH2 0x3A11 DUP2 PUSH2 0x33B4 JUMP JUMPDEST DUP3 MSTORE POP POP JUMP JUMPDEST PUSH2 0x3A20 DUP2 PUSH2 0x33F2 JUMP JUMPDEST DUP3 MSTORE POP POP JUMP JUMPDEST PUSH2 0x3A2F DUP2 PUSH2 0x3517 JUMP JUMPDEST DUP3 MSTORE POP POP JUMP JUMPDEST PUSH1 0x60 DUP3 ADD PUSH1 0x0 DUP3 ADD MLOAD PUSH2 0x3A4B PUSH1 0x0 DUP6 ADD DUP3 PUSH2 0x3A08 JUMP JUMPDEST POP PUSH1 0x20 DUP3 ADD MLOAD PUSH2 0x3A5E PUSH1 0x20 DUP6 ADD DUP3 PUSH2 0x3A17 JUMP JUMPDEST POP PUSH1 0x40 DUP3 ADD MLOAD PUSH2 0x3A71 PUSH1 0x40 DUP6 ADD DUP3 PUSH2 0x3A26 JUMP JUMPDEST POP POP POP POP JUMP JUMPDEST PUSH1 0x0 PUSH1 0x60 DUP3 ADD SWAP1 POP PUSH2 0x3A8C PUSH1 0x0 DUP4 ADD DUP5 PUSH2 0x3A35 JUMP JUMPDEST SWAP3 SWAP2 POP POP JUMP JUMPDEST PUSH1 0x0 PUSH8 0xFFFFFFFFFFFFFFFF DUP3 GT ISZERO PUSH2 0x3AAD JUMPI PUSH2 0x3AAC PUSH2 0x365A JUMP JUMPDEST JUMPDEST PUSH1 0x20 DUP3 MUL SWAP1 POP PUSH1 0x20 DUP2 ADD SWAP1 POP SWAP2 SWAP1 POP JUMP JUMPDEST PUSH1 0x0 PUSH2 0x3AD1 PUSH2 0x3ACC DUP5 PUSH2 0x3A92 JUMP JUMPDEST PUSH2 0x36BA JUMP JUMPDEST SWAP1 POP DUP1 DUP4 DUP3 MSTORE PUSH1 0x20 DUP3 ADD SWAP1 POP PUSH1 0x20 DUP5 MUL DUP4 ADD DUP6 DUP2 GT ISZERO PUSH2 0x3AF4 JUMPI PUSH2 0x3AF3 PUSH2 0x3701 JUMP JUMPDEST JUMPDEST DUP4 JUMPDEST DUP2 DUP2 LT ISZERO PUSH2 0x3B1D JUMPI DUP1 PUSH2 0x3B09 DUP9 DUP3 PUSH2 0x33DD JUMP JUMPDEST DUP5 MSTORE PUSH1 0x20 DUP5 ADD SWAP4 POP POP PUSH1 0x20 DUP2 ADD SWAP1 POP PUSH2 0x3AF6 JUMP JUMPDEST POP POP POP SWAP4 SWAP3 POP POP POP JUMP JUMPDEST PUSH1 0x0 DUP3 PUSH1 0x1F DUP4 ADD SLT PUSH2 0x3B3C JUMPI PUSH2 0x3B3B PUSH2 0x3655 JUMP JUMPDEST JUMPDEST DUP2 CALLDATALOAD PUSH2 0x3B4C DUP5 DUP3 PUSH1 0x20 DUP7 ADD PUSH2 0x3ABE JUMP JUMPDEST SWAP2 POP POP SWAP3 SWAP2 POP POP JUMP JUMPDEST PUSH1 0x0 DUP1 PUSH1 0x40 DUP4 DUP6 SUB SLT ISZERO PUSH2 0x3B6C JUMPI PUSH2 0x3B6B PUSH2 0x338A JUMP JUMPDEST JUMPDEST PUSH1 0x0 DUP4 ADD CALLDATALOAD PUSH8 0xFFFFFFFFFFFFFFFF DUP2 GT ISZERO PUSH2 0x3B8A JUMPI PUSH2 0x3B89 PUSH2 0x338F JUMP JUMPDEST JUMPDEST PUSH2 0x3B96 DUP6 DUP3 DUP7 ADD PUSH2 0x3B27 JUMP JUMPDEST SWAP3 POP POP PUSH1 0x20 DUP4 ADD CALLDATALOAD PUSH8 0xFFFFFFFFFFFFFFFF DUP2 GT ISZERO PUSH2 0x3BB7 JUMPI PUSH2 0x3BB6 PUSH2 0x338F JUMP JUMPDEST JUMPDEST PUSH2 0x3BC3 DUP6 DUP3 DUP7 ADD PUSH2 0x376F JUMP JUMPDEST SWAP2 POP POP SWAP3 POP SWAP3 SWAP1 POP JUMP JUMPDEST PUSH1 0x0 DUP2 MLOAD SWAP1 POP SWAP2 SWAP1 POP JUMP JUMPDEST PUSH1 0x0 DUP3 DUP3 MSTORE PUSH1 0x20 DUP3 ADD SWAP1 POP SWAP3 SWAP2 POP POP JUMP JUMPDEST PUSH1 0x0 DUP2 SWAP1 POP PUSH1 0x20 DUP3 ADD SWAP1 POP SWAP2 SWAP1 POP JUMP JUMPDEST PUSH1 0x0 PUSH2 0x3C05 DUP4 DUP4 PUSH2 0x3A17 JUMP JUMPDEST PUSH1 0x20 DUP4 ADD SWAP1 POP SWAP3 SWAP2 POP POP JUMP JUMPDEST PUSH1 0x0 PUSH1 0x20 DUP3 ADD SWAP1 POP SWAP2 SWAP1 POP JUMP JUMPDEST PUSH1 0x0 PUSH2 0x3C29 DUP3 PUSH2 0x3BCD JUMP JUMPDEST PUSH2 0x3C33 DUP2 DUP6 PUSH2 0x3BD8 JUMP JUMPDEST SWAP4 POP PUSH2 0x3C3E DUP4 PUSH2 0x3BE9 JUMP JUMPDEST DUP1 PUSH1 0x0 JUMPDEST DUP4 DUP2 LT ISZERO PUSH2 0x3C6F JUMPI DUP2 MLOAD PUSH2 0x3C56 DUP9 DUP3 PUSH2 0x3BF9 JUMP JUMPDEST SWAP8 POP PUSH2 0x3C61 DUP4 PUSH2 0x3C11 JUMP JUMPDEST SWAP3 POP POP PUSH1 0x1 DUP2 ADD SWAP1 POP PUSH2 0x3C42 JUMP JUMPDEST POP DUP6 SWAP4 POP POP POP POP SWAP3 SWAP2 POP POP JUMP JUMPDEST PUSH1 0x0 PUSH1 0x20 DUP3 ADD SWAP1 POP DUP2 DUP2 SUB PUSH1 0x0 DUP4 ADD MSTORE PUSH2 0x3C96 DUP2 DUP5 PUSH2 0x3C1E JUMP JUMPDEST SWAP1 POP SWAP3 SWAP2 POP POP JUMP JUMPDEST PUSH1 0x0 PUSH2 0x3CA9 DUP3 PUSH2 0x394D JUMP JUMPDEST SWAP1 POP SWAP2 SWAP1 POP JUMP JUMPDEST PUSH2 0x3CB9 DUP2 PUSH2 0x3C9E JUMP JUMPDEST DUP3 MSTORE POP POP JUMP JUMPDEST PUSH1 0x0 PUSH1 0x20 DUP3 ADD SWAP1 POP PUSH2 0x3CD4 PUSH1 0x0 DUP4 ADD DUP5 PUSH2 0x3CB0 JUMP JUMPDEST SWAP3 SWAP2 POP POP JUMP JUMPDEST PUSH1 0x0 DUP1 PUSH1 0x0 PUSH1 0x60 DUP5 DUP7 SUB SLT ISZERO PUSH2 0x3CF3 JUMPI PUSH2 0x3CF2 PUSH2 0x338A JUMP JUMPDEST JUMPDEST PUSH1 0x0 PUSH2 0x3D01 DUP7 DUP3 DUP8 ADD PUSH2 0x33DD JUMP JUMPDEST SWAP4 POP POP PUSH1 0x20 PUSH2 0x3D12 DUP7 DUP3 DUP8 ADD PUSH2 0x3413 JUMP JUMPDEST SWAP3 POP POP PUSH1 0x40 PUSH2 0x3D23 DUP7 DUP3 DUP8 ADD PUSH2 0x3413 JUMP JUMPDEST SWAP2 POP POP SWAP3 POP SWAP3 POP SWAP3 JUMP JUMPDEST PUSH1 0xC0 DUP3 ADD PUSH1 0x0 DUP3 ADD MLOAD PUSH2 0x3D43 PUSH1 0x0 DUP6 ADD DUP3 PUSH2 0x3A08 JUMP JUMPDEST POP PUSH1 0x20 DUP3 ADD MLOAD PUSH2 0x3D56 PUSH1 0x20 DUP6 ADD DUP3 PUSH2 0x3A17 JUMP JUMPDEST POP PUSH1 0x40 DUP3 ADD MLOAD PUSH2 0x3D69 PUSH1 0x40 DUP6 ADD DUP3 PUSH2 0x3A17 JUMP JUMPDEST POP PUSH1 0x60 DUP3 ADD MLOAD PUSH2 0x3D7C PUSH1 0x60 DUP6 ADD DUP3 PUSH2 0x3A17 JUMP JUMPDEST POP PUSH1 0x80 DUP3 ADD MLOAD PUSH2 0x3D8F PUSH1 0x80 DUP6 ADD DUP3 PUSH2 0x3A17 JUMP JUMPDEST POP PUSH1 0xA0 DUP3 ADD MLOAD PUSH2 0x3DA2 PUSH1 0xA0 DUP6 ADD DUP3 PUSH2 0x3A26 JUMP JUMPDEST POP POP POP POP JUMP JUMPDEST PUSH1 0x0 PUSH1 0xC0 DUP3 ADD SWAP1 POP PUSH2 0x3DBD PUSH1 0x0 DUP4 ADD DUP5 PUSH2 0x3D2D JUMP JUMPDEST SWAP3 SWAP2 POP POP JUMP JUMPDEST PUSH2 0x3DCC DUP2 PUSH2 0x33B4 JUMP JUMPDEST DUP3 MSTORE POP POP JUMP JUMPDEST PUSH1 0x0 PUSH1 0x20 DUP3 ADD SWAP1 POP PUSH2 0x3DE7 PUSH1 0x0 DUP4 ADD DUP5 PUSH2 0x3DC3 JUMP JUMPDEST SWAP3 SWAP2 POP POP JUMP JUMPDEST PUSH1 0x0 PUSH8 0xFFFFFFFFFFFFFFFF DUP3 GT ISZERO PUSH2 0x3E08 JUMPI PUSH2 0x3E07 PUSH2 0x365A JUMP JUMPDEST JUMPDEST PUSH2 0x3E11 DUP3 PUSH2 0x35C0 JUMP JUMPDEST SWAP1 POP PUSH1 0x20 DUP2 ADD SWAP1 POP SWAP2 SWAP1 POP JUMP JUMPDEST PUSH1 0x0 PUSH2 0x3E31 PUSH2 0x3E2C DUP5 PUSH2 0x3DED JUMP JUMPDEST PUSH2 0x36BA JUMP JUMPDEST SWAP1 POP DUP3 DUP2 MSTORE PUSH1 0x20 DUP2 ADD DUP5 DUP5 DUP5 ADD GT ISZERO PUSH2 0x3E4D JUMPI PUSH2 0x3E4C PUSH2 0x379D JUMP JUMPDEST JUMPDEST PUSH2 0x3E58 DUP5 DUP3 DUP6 PUSH2 0x37D3 JUMP JUMPDEST POP SWAP4 SWAP3 POP POP POP JUMP JUMPDEST PUSH1 0x0 DUP3 PUSH1 0x1F DUP4 ADD SLT PUSH2 0x3E75 JUMPI PUSH2 0x3E74 PUSH2 0x3655 JUMP JUMPDEST JUMPDEST DUP2 CALLDATALOAD PUSH2 0x3E85 DUP5 DUP3 PUSH1 0x20 DUP7 ADD PUSH2 0x3E1E JUMP JUMPDEST SWAP2 POP POP SWAP3 SWAP2 POP POP JUMP JUMPDEST PUSH1 0x0 DUP1 PUSH1 0x0 DUP1 PUSH1 0x0 DUP1 PUSH1 0x0 PUSH1 0xE0 DUP9 DUP11 SUB SLT ISZERO PUSH2 0x3EAD JUMPI PUSH2 0x3EAC PUSH2 0x338A JUMP JUMPDEST JUMPDEST PUSH1 0x0 PUSH2 0x3EBB DUP11 DUP3 DUP12 ADD PUSH2 0x33DD JUMP JUMPDEST SWAP8 POP POP PUSH1 0x20 PUSH2 0x3ECC DUP11 DUP3 DUP12 ADD PUSH2 0x33DD JUMP JUMPDEST SWAP7 POP POP PUSH1 0x40 PUSH2 0x3EDD DUP11 DUP3 DUP12 ADD PUSH2 0x3413 JUMP JUMPDEST SWAP6 POP POP PUSH1 0x60 PUSH2 0x3EEE DUP11 DUP3 DUP12 ADD PUSH2 0x3413 JUMP JUMPDEST SWAP5 POP POP PUSH1 0x80 PUSH2 0x3EFF DUP11 DUP3 DUP12 ADD PUSH2 0x3413 JUMP JUMPDEST SWAP4 POP POP PUSH1 0xA0 PUSH2 0x3F10 DUP11 DUP3 DUP12 ADD PUSH2 0x3413 JUMP JUMPDEST SWAP3 POP POP PUSH1 0xC0 DUP9 ADD CALLDATALOAD PUSH8 0xFFFFFFFFFFFFFFFF DUP2 GT ISZERO PUSH2 0x3F31 JUMPI PUSH2 0x3F30 PUSH2 0x338F JUMP JUMPDEST JUMPDEST PUSH2 0x3F3D DUP11 DUP3 DUP12 ADD PUSH2 0x3E60 JUMP JUMPDEST SWAP2 POP POP SWAP3 SWAP6 SWAP9 SWAP2 SWAP5 SWAP8 POP SWAP3 SWAP6 POP JUMP JUMPDEST PUSH2 0x3F55 DUP2 PUSH2 0x3517 JUMP JUMPDEST DUP2 EQ PUSH2 0x3F60 JUMPI PUSH1 0x0 DUP1 REVERT JUMPDEST POP JUMP JUMPDEST PUSH1 0x0 DUP2 CALLDATALOAD SWAP1 POP PUSH2 0x3F72 DUP2 PUSH2 0x3F4C JUMP JUMPDEST SWAP3 SWAP2 POP POP JUMP JUMPDEST PUSH1 0x0 DUP1 PUSH1 0x40 DUP4 DUP6 SUB SLT ISZERO PUSH2 0x3F8F JUMPI PUSH2 0x3F8E PUSH2 0x338A JUMP JUMPDEST JUMPDEST PUSH1 0x0 PUSH2 0x3F9D DUP6 DUP3 DUP7 ADD PUSH2 0x33DD JUMP JUMPDEST SWAP3 POP POP PUSH1 0x20 PUSH2 0x3FAE DUP6 DUP3 DUP7 ADD PUSH2 0x3F63 JUMP JUMPDEST SWAP2 POP POP SWAP3 POP SWAP3 SWAP1 POP JUMP JUMPDEST PUSH1 0x0 DUP1 PUSH1 0x0 PUSH1 0x60 DUP5 DUP7 SUB SLT ISZERO PUSH2 0x3FD1 JUMPI PUSH2 0x3FD0 PUSH2 0x338A JUMP JUMPDEST JUMPDEST PUSH1 0x0 PUSH2 0x3FDF DUP7 DUP3 DUP8 ADD PUSH2 0x3413 JUMP JUMPDEST SWAP4 POP POP PUSH1 0x20 PUSH2 0x3FF0 DUP7 DUP3 DUP8 ADD PUSH2 0x3413 JUMP JUMPDEST SWAP3 POP POP PUSH1 0x40 PUSH2 0x4001 DUP7 DUP3 DUP8 ADD PUSH2 0x3413 JUMP JUMPDEST SWAP2 POP POP SWAP3 POP SWAP3 POP SWAP3 JUMP JUMPDEST PUSH1 0x0 PUSH1 0x60 DUP3 ADD SWAP1 POP PUSH2 0x4020 PUSH1 0x0 DUP4 ADD DUP7 PUSH2 0x3DC3 JUMP JUMPDEST PUSH2 0x402D PUSH1 0x20 DUP4 ADD DUP6 PUSH2 0x3468 JUMP JUMPDEST PUSH2 0x403A PUSH1 0x40 DUP4 ADD DUP5 PUSH2 0x3523 JUMP JUMPDEST SWAP5 SWAP4 POP POP POP POP JUMP JUMPDEST PUSH1 0x0 DUP1 PUSH1 0x40 DUP4 DUP6 SUB SLT ISZERO PUSH2 0x4059 JUMPI PUSH2 0x4058 PUSH2 0x338A JUMP JUMPDEST JUMPDEST PUSH1 0x0 PUSH2 0x4067 DUP6 DUP3 DUP7 ADD PUSH2 0x3413 JUMP JUMPDEST SWAP3 POP POP PUSH1 0x20 PUSH2 0x4078 DUP6 DUP3 DUP7 ADD PUSH2 0x3F63 JUMP JUMPDEST SWAP2 POP POP SWAP3 POP SWAP3 SWAP1 POP JUMP JUMPDEST PUSH1 0x0 DUP1 PUSH1 0x40 DUP4 DUP6 SUB SLT ISZERO PUSH2 0x4099 JUMPI PUSH2 0x4098 PUSH2 0x338A JUMP JUMPDEST JUMPDEST PUSH1 0x0 PUSH2 0x40A7 DUP6 DUP3 DUP7 ADD PUSH2 0x33DD JUMP JUMPDEST SWAP3 POP POP PUSH1 0x20 PUSH2 0x40B8 DUP6 DUP3 DUP7 ADD PUSH2 0x33DD JUMP JUMPDEST SWAP2 POP POP SWAP3 POP SWAP3 SWAP1 POP JUMP JUMPDEST PUSH1 0x0 DUP1 PUSH1 0x0 DUP1 PUSH1 0x0 PUSH1 0xA0 DUP7 DUP9 SUB SLT ISZERO PUSH2 0x40DE JUMPI PUSH2 0x40DD PUSH2 0x338A JUMP JUMPDEST JUMPDEST PUSH1 0x0 PUSH2 0x40EC DUP9 DUP3 DUP10 ADD PUSH2 0x33DD JUMP JUMPDEST SWAP6 POP POP PUSH1 0x20 PUSH2 0x40FD DUP9 DUP3 DUP10 ADD PUSH2 0x33DD JUMP JUMPDEST SWAP5 POP POP PUSH1 0x40 PUSH2 0x410E DUP9 DUP3 DUP10 ADD PUSH2 0x3413 JUMP JUMPDEST SWAP4 POP POP PUSH1 0x60 PUSH2 0x411F DUP9 DUP3 DUP10 ADD PUSH2 0x3413 JUMP JUMPDEST SWAP3 POP POP PUSH1 0x80 DUP7 ADD CALLDATALOAD PUSH8 0xFFFFFFFFFFFFFFFF DUP2 GT ISZERO PUSH2 0x4140 JUMPI PUSH2 0x413F PUSH2 0x338F JUMP JUMPDEST JUMPDEST PUSH2 0x414C DUP9 DUP3 DUP10 ADD PUSH2 0x3824 JUMP JUMPDEST SWAP2 POP POP SWAP3 SWAP6 POP SWAP3 SWAP6 SWAP1 SWAP4 POP JUMP JUMPDEST PUSH1 0x0 DUP1 PUSH1 0x0 DUP1 PUSH1 0x80 DUP6 DUP8 SUB SLT ISZERO PUSH2 0x4173 JUMPI PUSH2 0x4172 PUSH2 0x338A JUMP JUMPDEST JUMPDEST PUSH1 0x0 PUSH2 0x4181 DUP8 DUP3 DUP9 ADD PUSH2 0x33DD JUMP JUMPDEST SWAP5 POP POP PUSH1 0x20 PUSH2 0x4192 DUP8 DUP3 DUP9 ADD PUSH2 0x3413 JUMP JUMPDEST SWAP4 POP POP PUSH1 0x40 PUSH2 0x41A3 DUP8 DUP3 DUP9 ADD PUSH2 0x3413 JUMP JUMPDEST SWAP3 POP POP PUSH1 0x60 PUSH2 0x41B4 DUP8 DUP3 DUP9 ADD PUSH2 0x3413 JUMP JUMPDEST SWAP2 POP POP SWAP3 SWAP6 SWAP2 SWAP5 POP SWAP3 POP JUMP JUMPDEST PUSH1 0x0 PUSH1 0xC0 DUP3 ADD SWAP1 POP PUSH2 0x41D5 PUSH1 0x0 DUP4 ADD DUP10 PUSH2 0x3DC3 JUMP JUMPDEST PUSH2 0x41E2 PUSH1 0x20 DUP4 ADD DUP9 PUSH2 0x3468 JUMP JUMPDEST PUSH2 0x41EF PUSH1 0x40 DUP4 ADD DUP8 PUSH2 0x3468 JUMP JUMPDEST PUSH2 0x41FC PUSH1 0x60 DUP4 ADD DUP7 PUSH2 0x3468 JUMP JUMPDEST PUSH2 0x4209 PUSH1 0x80 DUP4 ADD DUP6 PUSH2 0x3468 JUMP JUMPDEST PUSH2 0x4216 PUSH1 0xA0 DUP4 ADD DUP5 PUSH2 0x3523 JUMP JUMPDEST SWAP8 SWAP7 POP POP POP POP POP POP POP JUMP JUMPDEST PUSH32 0x4E487B7100000000000000000000000000000000000000000000000000000000 PUSH1 0x0 MSTORE PUSH1 0x22 PUSH1 0x4 MSTORE PUSH1 0x24 PUSH1 0x0 REVERT JUMPDEST PUSH1 0x0 PUSH1 0x2 DUP3 DIV SWAP1 POP PUSH1 0x1 DUP3 AND DUP1 PUSH2 0x4268 JUMPI PUSH1 0x7F DUP3 AND SWAP2 POP JUMPDEST PUSH1 0x20 DUP3 LT DUP2 SUB PUSH2 0x427B JUMPI PUSH2 0x427A PUSH2 0x4221 JUMP JUMPDEST JUMPDEST POP SWAP2 SWAP1 POP JUMP JUMPDEST PUSH32 0x4973206974206E6F7420736F6C64206F75743F00000000000000000000000000 PUSH1 0x0 DUP3 ADD MSTORE POP JUMP JUMPDEST PUSH1 0x0 PUSH2 0x42B7 PUSH1 0x13 DUP4 PUSH2 0x3585 JUMP JUMPDEST SWAP2 POP PUSH2 0x42C2 DUP3 PUSH2 0x4281 JUMP JUMPDEST PUSH1 0x20 DUP3 ADD SWAP1 POP SWAP2 SWAP1 POP JUMP JUMPDEST PUSH1 0x0 PUSH1 0x20 DUP3 ADD SWAP1 POP DUP2 DUP2 SUB PUSH1 0x0 DUP4 ADD MSTORE PUSH2 0x42E6 DUP2 PUSH2 0x42AA JUMP JUMPDEST SWAP1 POP SWAP2 SWAP1 POP JUMP JUMPDEST PUSH1 0x0 DUP2 MLOAD SWAP1 POP PUSH2 0x42FC DUP2 PUSH2 0x33FC JUMP JUMPDEST SWAP3 SWAP2 POP POP JUMP JUMPDEST PUSH1 0x0 PUSH1 0x20 DUP3 DUP5 SUB SLT ISZERO PUSH2 0x4318 JUMPI PUSH2 0x4317 PUSH2 0x338A JUMP JUMPDEST JUMPDEST PUSH1 0x0 PUSH2 0x4326 DUP5 DUP3 DUP6 ADD PUSH2 0x42ED JUMP JUMPDEST SWAP2 POP POP SWAP3 SWAP2 POP POP JUMP JUMPDEST PUSH32 0x455243313135353A2063616C6C6572206973206E6F7420746F6B656E206F776E PUSH1 0x0 DUP3 ADD MSTORE PUSH32 0x6572206F7220617070726F766564000000000000000000000000000000000000 PUSH1 0x20 DUP3 ADD MSTORE POP JUMP JUMPDEST PUSH1 0x0 PUSH2 0x438B PUSH1 0x2E DUP4 PUSH2 0x3585 JUMP JUMPDEST SWAP2 POP PUSH2 0x4396 DUP3 PUSH2 0x432F JUMP JUMPDEST PUSH1 0x40 DUP3 ADD SWAP1 POP SWAP2 SWAP1 POP JUMP JUMPDEST PUSH1 0x0 PUSH1 0x20 DUP3 ADD SWAP1 POP DUP2 DUP2 SUB PUSH1 0x0 DUP4 ADD MSTORE PUSH2 0x43BA DUP2 PUSH2 0x437E JUMP JUMPDEST SWAP1 POP SWAP2 SWAP1 POP JUMP JUMPDEST PUSH32 0x53616C6543413F3F3F3F00000000000000000000000000000000000000000000 PUSH1 0x0 DUP3 ADD MSTORE POP JUMP JUMPDEST PUSH1 0x0 PUSH2 0x43F7 PUSH1 0xA DUP4 PUSH2 0x3585 JUMP JUMPDEST SWAP2 POP PUSH2 0x4402 DUP3 PUSH2 0x43C1 JUMP JUMPDEST PUSH1 0x20 DUP3 ADD SWAP1 POP SWAP2 SWAP1 POP JUMP JUMPDEST PUSH1 0x0 PUSH1 0x20 DUP3 ADD SWAP1 POP DUP2 DUP2 SUB PUSH1 0x0 DUP4 ADD MSTORE PUSH2 0x4426 DUP2 PUSH2 0x43EA JUMP JUMPDEST SWAP1 POP SWAP2 SWAP1 POP JUMP JUMPDEST PUSH32 0x455243313135353A206163636F756E747320616E6420696473206C656E677468 PUSH1 0x0 DUP3 ADD MSTORE PUSH32 0x206D69736D617463680000000000000000000000000000000000000000000000 PUSH1 0x20 DUP3 ADD MSTORE POP JUMP JUMPDEST PUSH1 0x0 PUSH2 0x4489 PUSH1 0x29 DUP4 PUSH2 0x3585 JUMP JUMPDEST SWAP2 POP PUSH2 0x4494 DUP3 PUSH2 0x442D JUMP JUMPDEST PUSH1 0x40 DUP3 ADD SWAP1 POP SWAP2 SWAP1 POP JUMP JUMPDEST PUSH1 0x0 PUSH1 0x20 DUP3 ADD SWAP1 POP DUP2 DUP2 SUB PUSH1 0x0 DUP4 ADD MSTORE PUSH2 0x44B8 DUP2 PUSH2 0x447C JUMP JUMPDEST SWAP1 POP SWAP2 SWAP1 POP JUMP JUMPDEST PUSH32 0x4E487B7100000000000000000000000000000000000000000000000000000000 PUSH1 0x0 MSTORE PUSH1 0x32 PUSH1 0x4 MSTORE PUSH1 0x24 PUSH1 0x0 REVERT JUMPDEST PUSH32 0x4E487B7100000000000000000000000000000000000000000000000000000000 PUSH1 0x0 MSTORE PUSH1 0x11 PUSH1 0x4 MSTORE PUSH1 0x24 PUSH1 0x0 REVERT JUMPDEST PUSH1 0x0 PUSH2 0x4528 DUP3 PUSH2 0x33F2 JUMP JUMPDEST SWAP2 POP PUSH32 0xFFFFFFFFFFFFFFFFFFFFFFFFFFFFFFFFFFFFFFFFFFFFFFFFFFFFFFFFFFFFFFFF DUP3 SUB PUSH2 0x455A JUMPI PUSH2 0x4559 PUSH2 0x44EE JUMP JUMPDEST JUMPDEST PUSH1 0x1 DUP3 ADD SWAP1 POP SWAP2 SWAP1 POP JUMP JUMPDEST PUSH32 0x6861766520616C7265616479206265656E206973737565640000000000000000 PUSH1 0x0 DUP3 ADD MSTORE POP JUMP JUMPDEST PUSH1 0x0 PUSH2 0x459B PUSH1 0x18 DUP4 PUSH2 0x3585 JUMP JUMPDEST SWAP2 POP PUSH2 0x45A6 DUP3 PUSH2 0x4565 JUMP JUMPDEST PUSH1 0x20 DUP3 ADD SWAP1 POP SWAP2 SWAP1 POP JUMP JUMPDEST PUSH1 0x0 PUSH1 0x20 DUP3 ADD SWAP1 POP DUP2 DUP2 SUB PUSH1 0x0 DUP4 ADD MSTORE PUSH2 0x45CA DUP2 PUSH2 0x458E JUMP JUMPDEST SWAP1 POP SWAP2 SWAP1 POP JUMP JUMPDEST PUSH32 0x49742773206E6F7420796F752E00000000000000000000000000000000000000 PUSH1 0x0 DUP3 ADD MSTORE POP JUMP JUMPDEST PUSH1 0x0 PUSH2 0x4607 PUSH1 0xD DUP4 PUSH2 0x3585 JUMP JUMPDEST SWAP2 POP PUSH2 0x4612 DUP3 PUSH2 0x45D1 JUMP JUMPDEST PUSH1 0x20 DUP3 ADD SWAP1 POP SWAP2 SWAP1 POP JUMP JUMPDEST PUSH1 0x0 PUSH1 0x20 DUP3 ADD SWAP1 POP DUP2 DUP2 SUB PUSH1 0x0 DUP4 ADD MSTORE PUSH2 0x4636 DUP2 PUSH2 0x45FA JUMP JUMPDEST SWAP1 POP SWAP2 SWAP1 POP JUMP JUMPDEST PUSH1 0x0 DUP2 SWAP1 POP DUP2 PUSH1 0x0 MSTORE PUSH1 0x20 PUSH1 0x0 KECCAK256 SWAP1 POP SWAP2 SWAP1 POP JUMP JUMPDEST PUSH1 0x0 PUSH1 0x20 PUSH1 0x1F DUP4 ADD DIV SWAP1 POP SWAP2 SWAP1 POP JUMP JUMPDEST PUSH1 0x0 DUP3 DUP3 SHL SWAP1 POP SWAP3 SWAP2 POP POP JUMP JUMPDEST PUSH1 0x0 PUSH1 0x8 DUP4 MUL PUSH2 0x469F PUSH32 0xFFFFFFFFFFFFFFFFFFFFFFFFFFFFFFFFFFFFFFFFFFFFFFFFFFFFFFFFFFFFFFFF DUP3 PUSH2 0x4662 JUMP JUMPDEST PUSH2 0x46A9 DUP7 DUP4 PUSH2 0x4662 JUMP JUMPDEST SWAP6 POP DUP1 NOT DUP5 AND SWAP4 POP DUP1 DUP7 AND DUP5 OR SWAP3 POP POP POP SWAP4 SWAP3 POP POP POP JUMP JUMPDEST PUSH1 0x0 PUSH2 0x46DC PUSH2 0x46D7 PUSH2 0x46D2 DUP5 PUSH2 0x33F2 JUMP JUMPDEST PUSH2 0x3921 JUMP JUMPDEST PUSH2 0x33F2 JUMP JUMPDEST SWAP1 POP SWAP2 SWAP1 POP JUMP JUMPDEST PUSH1 0x0 DUP2 SWAP1 POP SWAP2 SWAP1 POP JUMP JUMPDEST PUSH2 0x46F6 DUP4 PUSH2 0x46C1 JUMP JUMPDEST PUSH2 0x470A PUSH2 0x4702 DUP3 PUSH2 0x46E3 JUMP JUMPDEST DUP5 DUP5 SLOAD PUSH2 0x466F JUMP JUMPDEST DUP3 SSTORE POP POP POP POP JUMP JUMPDEST PUSH1 0x0 SWAP1 JUMP JUMPDEST PUSH2 0x471F PUSH2 0x4712 JUMP JUMPDEST PUSH2 0x472A DUP2 DUP5 DUP5 PUSH2 0x46ED JUMP JUMPDEST POP POP POP JUMP JUMPDEST JUMPDEST DUP2 DUP2 LT ISZERO PUSH2 0x474E JUMPI PUSH2 0x4743 PUSH1 0x0 DUP3 PUSH2 0x4717 JUMP JUMPDEST PUSH1 0x1 DUP2 ADD SWAP1 POP PUSH2 0x4730 JUMP JUMPDEST POP POP JUMP JUMPDEST PUSH1 0x1F DUP3 GT ISZERO PUSH2 0x4793 JUMPI PUSH2 0x4764 DUP2 PUSH2 0x463D JUMP JUMPDEST PUSH2 0x476D DUP5 PUSH2 0x4652 JUMP JUMPDEST DUP2 ADD PUSH1 0x20 DUP6 LT ISZERO PUSH2 0x477C JUMPI DUP2 SWAP1 POP JUMPDEST PUSH2 0x4790 PUSH2 0x4788 DUP6 PUSH2 0x4652 JUMP JUMPDEST DUP4 ADD DUP3 PUSH2 0x472F JUMP JUMPDEST POP POP JUMPDEST POP POP POP JUMP JUMPDEST PUSH1 0x0 DUP3 DUP3 SHR SWAP1 POP SWAP3 SWAP2 POP POP JUMP JUMPDEST PUSH1 0x0 PUSH2 0x47B6 PUSH1 0x0 NOT DUP5 PUSH1 0x8 MUL PUSH2 0x4798 JUMP JUMPDEST NOT DUP1 DUP4 AND SWAP2 POP POP SWAP3 SWAP2 POP POP JUMP JUMPDEST PUSH1 0x0 PUSH2 0x47CF DUP4 DUP4 PUSH2 0x47A5 JUMP JUMPDEST SWAP2 POP DUP3 PUSH1 0x2 MUL DUP3 OR SWAP1 POP SWAP3 SWAP2 POP POP JUMP JUMPDEST PUSH2 0x47E8 DUP3 PUSH2 0x357A JUMP JUMPDEST PUSH8 0xFFFFFFFFFFFFFFFF DUP2 GT ISZERO PUSH2 0x4801 JUMPI PUSH2 0x4800 PUSH2 0x365A JUMP JUMPDEST JUMPDEST PUSH2 0x480B DUP3 SLOAD PUSH2 0x4250 JUMP JUMPDEST PUSH2 0x4816 DUP3 DUP3 DUP6 PUSH2 0x4752 JUMP JUMPDEST PUSH1 0x0 PUSH1 0x20 SWAP1 POP PUSH1 0x1F DUP4 GT PUSH1 0x1 DUP2 EQ PUSH2 0x4849 JUMPI PUSH1 0x0 DUP5 ISZERO PUSH2 0x4837 JUMPI DUP3 DUP8 ADD MLOAD SWAP1 POP JUMPDEST PUSH2 0x4841 DUP6 DUP3 PUSH2 0x47C3 JUMP JUMPDEST DUP7 SSTORE POP PUSH2 0x48A9 JUMP JUMPDEST PUSH1 0x1F NOT DUP5 AND PUSH2 0x4857 DUP7 PUSH2 0x463D JUMP JUMPDEST PUSH1 0x0 JUMPDEST DUP3 DUP2 LT ISZERO PUSH2 0x487F JUMPI DUP5 DUP10 ADD MLOAD DUP3 SSTORE PUSH1 0x1 DUP3 ADD SWAP2 POP PUSH1 0x20 DUP6 ADD SWAP5 POP PUSH1 0x20 DUP2 ADD SWAP1 POP PUSH2 0x485A JUMP JUMPDEST DUP7 DUP4 LT ISZERO PUSH2 0x489C JUMPI DUP5 DUP10 ADD MLOAD PUSH2 0x4898 PUSH1 0x1F DUP10 AND DUP3 PUSH2 0x47A5 JUMP JUMPDEST DUP4 SSTORE POP JUMPDEST PUSH1 0x1 PUSH1 0x2 DUP9 MUL ADD DUP9 SSTORE POP POP POP JUMPDEST POP POP POP POP POP POP JUMP JUMPDEST PUSH1 0x0 PUSH1 0xC0 DUP3 ADD SWAP1 POP PUSH2 0x48C6 PUSH1 0x0 DUP4 ADD DUP10 PUSH2 0x3DC3 JUMP JUMPDEST PUSH2 0x48D3 PUSH1 0x20 DUP4 ADD DUP9 PUSH2 0x3468 JUMP JUMPDEST PUSH2 0x48E0 PUSH1 0x40 DUP4 ADD DUP8 PUSH2 0x3468 JUMP JUMPDEST PUSH2 0x48ED PUSH1 0x60 DUP4 ADD DUP7 PUSH2 0x3468 JUMP JUMPDEST PUSH2 0x48FA PUSH1 0x80 DUP4 ADD DUP6 PUSH2 0x3468 JUMP JUMPDEST DUP2 DUP2 SUB PUSH1 0xA0 DUP4 ADD MSTORE PUSH2 0x490C DUP2 DUP5 PUSH2 0x35D1 JUMP JUMPDEST SWAP1 POP SWAP8 SWAP7 POP POP POP POP POP POP POP JUMP JUMPDEST PUSH32 0x6E6F20616D6F756E742E00000000000000000000000000000000000000000000 PUSH1 0x0 DUP3 ADD MSTORE POP JUMP JUMPDEST PUSH1 0x0 PUSH2 0x494F PUSH1 0xA DUP4 PUSH2 0x3585 JUMP JUMPDEST SWAP2 POP PUSH2 0x495A DUP3 PUSH2 0x4919 JUMP JUMPDEST PUSH1 0x20 DUP3 ADD SWAP1 POP SWAP2 SWAP1 POP JUMP JUMPDEST PUSH1 0x0 PUSH1 0x20 DUP3 ADD SWAP1 POP DUP2 DUP2 SUB PUSH1 0x0 DUP4 ADD MSTORE PUSH2 0x497E DUP2 PUSH2 0x4942 JUMP JUMPDEST SWAP1 POP SWAP2 SWAP1 POP JUMP JUMPDEST PUSH1 0x0 PUSH2 0x4990 DUP3 PUSH2 0x33F2 JUMP JUMPDEST SWAP2 POP PUSH2 0x499B DUP4 PUSH2 0x33F2 JUMP JUMPDEST SWAP3 POP DUP3 DUP3 SUB SWAP1 POP DUP2 DUP2 GT ISZERO PUSH2 0x49B3 JUMPI PUSH2 0x49B2 PUSH2 0x44EE JUMP JUMPDEST JUMPDEST SWAP3 SWAP2 POP POP JUMP JUMPDEST PUSH1 0x0 PUSH2 0x49C4 DUP3 PUSH2 0x33F2 JUMP JUMPDEST SWAP2 POP PUSH2 0x49CF DUP4 PUSH2 0x33F2 JUMP JUMPDEST SWAP3 POP DUP3 DUP3 MUL PUSH2 0x49DD DUP2 PUSH2 0x33F2 JUMP JUMPDEST SWAP2 POP DUP3 DUP3 DIV DUP5 EQ DUP4 ISZERO OR PUSH2 0x49F4 JUMPI PUSH2 0x49F3 PUSH2 0x44EE JUMP JUMPDEST JUMPDEST POP SWAP3 SWAP2 POP POP JUMP JUMPDEST PUSH32 0x54686520766F74696E6720706572696F64206973206D6178696D756D20756E74 PUSH1 0x0 DUP3 ADD MSTORE PUSH32 0x696C206F6E6520646179206265666F72652E0000000000000000000000000000 PUSH1 0x20 DUP3 ADD MSTORE POP JUMP JUMPDEST PUSH1 0x0 PUSH2 0x4A57 PUSH1 0x32 DUP4 PUSH2 0x3585 JUMP JUMPDEST SWAP2 POP PUSH2 0x4A62 DUP3 PUSH2 0x49FB JUMP JUMPDEST PUSH1 0x40 DUP3 ADD SWAP1 POP SWAP2 SWAP1 POP JUMP JUMPDEST PUSH1 0x0 PUSH1 0x20 DUP3 ADD SWAP1 POP DUP2 DUP2 SUB PUSH1 0x0 DUP4 ADD MSTORE PUSH2 0x4A86 DUP2 PUSH2 0x4A4A JUMP JUMPDEST SWAP1 POP SWAP2 SWAP1 POP JUMP JUMPDEST PUSH32 0x546865726520697320616C7265616479206120766F74652E0000000000000000 PUSH1 0x0 DUP3 ADD MSTORE POP JUMP JUMPDEST PUSH1 0x0 PUSH2 0x4AC3 PUSH1 0x18 DUP4 PUSH2 0x3585 JUMP JUMPDEST SWAP2 POP PUSH2 0x4ACE DUP3 PUSH2 0x4A8D JUMP JUMPDEST PUSH1 0x20 DUP3 ADD SWAP1 POP SWAP2 SWAP1 POP JUMP JUMPDEST PUSH1 0x0 PUSH1 0x20 DUP3 ADD SWAP1 POP DUP2 DUP2 SUB PUSH1 0x0 DUP4 ADD MSTORE PUSH2 0x4AF2 DUP2 PUSH2 0x4AB6 JUMP JUMPDEST SWAP1 POP SWAP2 SWAP1 POP JUMP JUMPDEST PUSH1 0x0 PUSH2 0x4B04 DUP3 PUSH2 0x33F2 JUMP JUMPDEST SWAP2 POP PUSH2 0x4B0F DUP4 PUSH2 0x33F2 JUMP JUMPDEST SWAP3 POP DUP3 DUP3 ADD SWAP1 POP DUP1 DUP3 GT ISZERO PUSH2 0x4B27 JUMPI PUSH2 0x4B26 PUSH2 0x44EE JUMP JUMPDEST JUMPDEST SWAP3 SWAP2 POP POP JUMP JUMPDEST PUSH32 0x497320697420736F6C64206F75743F0000000000000000000000000000000000 PUSH1 0x0 DUP3 ADD MSTORE POP JUMP JUMPDEST PUSH1 0x0 PUSH2 0x4B63 PUSH1 0xF DUP4 PUSH2 0x3585 JUMP JUMPDEST SWAP2 POP PUSH2 0x4B6E DUP3 PUSH2 0x4B2D JUMP JUMPDEST PUSH1 0x20 DUP3 ADD SWAP1 POP SWAP2 SWAP1 POP JUMP JUMPDEST PUSH1 0x0 PUSH1 0x20 DUP3 ADD SWAP1 POP DUP2 DUP2 SUB PUSH1 0x0 DUP4 ADD MSTORE PUSH2 0x4B92 DUP2 PUSH2 0x4B56 JUMP JUMPDEST SWAP1 POP SWAP2 SWAP1 POP JUMP JUMPDEST PUSH32 0x54696D65204F75743F0000000000000000000000000000000000000000000000 PUSH1 0x0 DUP3 ADD MSTORE POP JUMP JUMPDEST PUSH1 0x0 PUSH2 0x4BCF PUSH1 0x9 DUP4 PUSH2 0x3585 JUMP JUMPDEST SWAP2 POP PUSH2 0x4BDA DUP3 PUSH2 0x4B99 JUMP JUMPDEST PUSH1 0x20 DUP3 ADD SWAP1 POP SWAP2 SWAP1 POP JUMP JUMPDEST PUSH1 0x0 PUSH1 0x20 DUP3 ADD SWAP1 POP DUP2 DUP2 SUB PUSH1 0x0 DUP4 ADD MSTORE PUSH2 0x4BFE DUP2 PUSH2 0x4BC2 JUMP JUMPDEST SWAP1 POP SWAP2 SWAP1 POP JUMP JUMPDEST PUSH32 0x6E6F20616D6F756E740000000000000000000000000000000000000000000000 PUSH1 0x0 DUP3 ADD MSTORE POP JUMP JUMPDEST PUSH1 0x0 PUSH2 0x4C3B PUSH1 0x9 DUP4 PUSH2 0x3585 JUMP JUMPDEST SWAP2 POP PUSH2 0x4C46 DUP3 PUSH2 0x4C05 JUMP JUMPDEST PUSH1 0x20 DUP3 ADD SWAP1 POP SWAP2 SWAP1 POP JUMP JUMPDEST PUSH1 0x0 PUSH1 0x20 DUP3 ADD SWAP1 POP DUP2 DUP2 SUB PUSH1 0x0 DUP4 ADD MSTORE PUSH2 0x4C6A DUP2 PUSH2 0x4C2E JUMP JUMPDEST SWAP1 POP SWAP2 SWAP1 POP JUMP JUMPDEST PUSH32 0x656E642046756E6464696E673F00000000000000000000000000000000000000 PUSH1 0x0 DUP3 ADD MSTORE POP JUMP JUMPDEST PUSH1 0x0 PUSH2 0x4CA7 PUSH1 0xD DUP4 PUSH2 0x3585 JUMP JUMPDEST SWAP2 POP PUSH2 0x4CB2 DUP3 PUSH2 0x4C71 JUMP JUMPDEST PUSH1 0x20 DUP3 ADD SWAP1 POP SWAP2 SWAP1 POP JUMP JUMPDEST PUSH1 0x0 PUSH1 0x20 DUP3 ADD SWAP1 POP DUP2 DUP2 SUB PUSH1 0x0 DUP4 ADD MSTORE PUSH2 0x4CD6 DUP2 PUSH2 0x4C9A JUMP JUMPDEST SWAP1 POP SWAP2 SWAP1 POP JUMP JUMPDEST PUSH32 0x46756E6464696E6743413F3F3F3F000000000000000000000000000000000000 PUSH1 0x0 DUP3 ADD MSTORE POP JUMP JUMPDEST PUSH1 0x0 PUSH2 0x4D13 PUSH1 0xE DUP4 PUSH2 0x3585 JUMP JUMPDEST SWAP2 POP PUSH2 0x4D1E DUP3 PUSH2 0x4CDD JUMP JUMPDEST PUSH1 0x20 DUP3 ADD SWAP1 POP SWAP2 SWAP1 POP JUMP JUMPDEST PUSH1 0x0 PUSH1 0x20 DUP3 ADD SWAP1 POP DUP2 DUP2 SUB PUSH1 0x0 DUP4 ADD MSTORE PUSH2 0x4D42 DUP2 PUSH2 0x4D06 JUMP JUMPDEST SWAP1 POP SWAP2 SWAP1 POP JUMP JUMPDEST PUSH32 0x52756E206F6E6365206F6E6C7920696E2074686520626567696E6E696E670000 PUSH1 0x0 DUP3 ADD MSTORE POP JUMP JUMPDEST PUSH1 0x0 PUSH2 0x4D7F PUSH1 0x1E DUP4 PUSH2 0x3585 JUMP JUMPDEST SWAP2 POP PUSH2 0x4D8A DUP3 PUSH2 0x4D49 JUMP JUMPDEST PUSH1 0x20 DUP3 ADD SWAP1 POP SWAP2 SWAP1 POP JUMP JUMPDEST PUSH1 0x0 PUSH1 0x20 DUP3 ADD SWAP1 POP DUP2 DUP2 SUB PUSH1 0x0 DUP4 ADD MSTORE PUSH2 0x4DAE DUP2 PUSH2 0x4D72 JUMP JUMPDEST SWAP1 POP SWAP2 SWAP1 POP JUMP JUMPDEST PUSH32 0x4F776E61626C653A206E6577206F776E657220697320746865207A65726F2061 PUSH1 0x0 DUP3 ADD MSTORE PUSH32 0x6464726573730000000000000000000000000000000000000000000000000000 PUSH1 0x20 DUP3 ADD MSTORE POP JUMP JUMPDEST PUSH1 0x0 PUSH2 0x4E11 PUSH1 0x26 DUP4 PUSH2 0x3585 JUMP JUMPDEST SWAP2 POP PUSH2 0x4E1C DUP3 PUSH2 0x4DB5 JUMP JUMPDEST PUSH1 0x40 DUP3 ADD SWAP1 POP SWAP2 SWAP1 POP JUMP JUMPDEST PUSH1 0x0 PUSH1 0x20 DUP3 ADD SWAP1 POP DUP2 DUP2 SUB PUSH1 0x0 DUP4 ADD MSTORE PUSH2 0x4E40 DUP2 PUSH2 0x4E04 JUMP JUMPDEST SWAP1 POP SWAP2 SWAP1 POP JUMP JUMPDEST PUSH1 0x0 PUSH1 0x80 DUP3 ADD SWAP1 POP PUSH2 0x4E5C PUSH1 0x0 DUP4 ADD DUP8 PUSH2 0x3DC3 JUMP JUMPDEST PUSH2 0x4E69 PUSH1 0x20 DUP4 ADD DUP7 PUSH2 0x3468 JUMP JUMPDEST PUSH2 0x4E76 PUSH1 0x40 DUP4 ADD DUP6 PUSH2 0x3468 JUMP JUMPDEST PUSH2 0x4E83 PUSH1 0x60 DUP4 ADD DUP5 PUSH2 0x3468 JUMP JUMPDEST SWAP6 SWAP5 POP POP POP POP POP JUMP JUMPDEST PUSH32 0x54696D65204F7574000000000000000000000000000000000000000000000000 PUSH1 0x0 DUP3 ADD MSTORE POP JUMP JUMPDEST PUSH1 0x0 PUSH2 0x4EC2 PUSH1 0x8 DUP4 PUSH2 0x3585 JUMP JUMPDEST SWAP2 POP PUSH2 0x4ECD DUP3 PUSH2 0x4E8C JUMP JUMPDEST PUSH1 0x20 DUP3 ADD SWAP1 POP SWAP2 SWAP1 POP JUMP JUMPDEST PUSH1 0x0 PUSH1 0x20 DUP3 ADD SWAP1 POP DUP2 DUP2 SUB PUSH1 0x0 DUP4 ADD MSTORE PUSH2 0x4EF1 DUP2 PUSH2 0x4EB5 JUMP JUMPDEST SWAP1 POP SWAP2 SWAP1 POP JUMP JUMPDEST PUSH32 0x43726561746F727320617265206E6F7420616C6C6F77656420746F2070617274 PUSH1 0x0 DUP3 ADD MSTORE PUSH32 0x6963697061746500000000000000000000000000000000000000000000000000 PUSH1 0x20 DUP3 ADD MSTORE POP JUMP JUMPDEST PUSH1 0x0 PUSH2 0x4F54 PUSH1 0x27 DUP4 PUSH2 0x3585 JUMP JUMPDEST SWAP2 POP PUSH2 0x4F5F DUP3 PUSH2 0x4EF8 JUMP JUMPDEST PUSH1 0x40 DUP3 ADD SWAP1 POP SWAP2 SWAP1 POP JUMP JUMPDEST PUSH1 0x0 PUSH1 0x20 DUP3 ADD SWAP1 POP DUP2 DUP2 SUB PUSH1 0x0 DUP4 ADD MSTORE PUSH2 0x4F83 DUP2 PUSH2 0x4F47 JUMP JUMPDEST SWAP1 POP SWAP2 SWAP1 POP JUMP JUMPDEST PUSH32 0x455243313135353A2061646472657373207A65726F206973206E6F7420612076 PUSH1 0x0 DUP3 ADD MSTORE PUSH32 0x616C6964206F776E657200000000000000000000000000000000000000000000 PUSH1 0x20 DUP3 ADD MSTORE POP JUMP JUMPDEST PUSH1 0x0 PUSH2 0x4FE6 PUSH1 0x2A DUP4 PUSH2 0x3585 JUMP JUMPDEST SWAP2 POP PUSH2 0x4FF1 DUP3 PUSH2 0x4F8A JUMP JUMPDEST PUSH1 0x40 DUP3 ADD SWAP1 POP SWAP2 SWAP1 POP JUMP JUMPDEST PUSH1 0x0 PUSH1 0x20 DUP3 ADD SWAP1 POP DUP2 DUP2 SUB PUSH1 0x0 DUP4 ADD MSTORE PUSH2 0x5015 DUP2 PUSH2 0x4FD9 JUMP JUMPDEST SWAP1 POP SWAP2 SWAP1 POP JUMP JUMPDEST PUSH32 0x455243313135353A2069647320616E6420616D6F756E7473206C656E67746820 PUSH1 0x0 DUP3 ADD MSTORE PUSH32 0x6D69736D61746368000000000000000000000000000000000000000000000000 PUSH1 0x20 DUP3 ADD MSTORE POP JUMP JUMPDEST PUSH1 0x0 PUSH2 0x5078 PUSH1 0x28 DUP4 PUSH2 0x3585 JUMP JUMPDEST SWAP2 POP PUSH2 0x5083 DUP3 PUSH2 0x501C JUMP JUMPDEST PUSH1 0x40 DUP3 ADD SWAP1 POP SWAP2 SWAP1 POP JUMP JUMPDEST PUSH1 0x0 PUSH1 0x20 DUP3 ADD SWAP1 POP DUP2 DUP2 SUB PUSH1 0x0 DUP4 ADD MSTORE PUSH2 0x50A7 DUP2 PUSH2 0x506B JUMP JUMPDEST SWAP1 POP SWAP2 SWAP1 POP JUMP JUMPDEST PUSH32 0x455243313135353A207472616E7366657220746F20746865207A65726F206164 PUSH1 0x0 DUP3 ADD MSTORE PUSH32 0x6472657373000000000000000000000000000000000000000000000000000000 PUSH1 0x20 DUP3 ADD MSTORE POP JUMP JUMPDEST PUSH1 0x0 PUSH2 0x510A PUSH1 0x25 DUP4 PUSH2 0x3585 JUMP JUMPDEST SWAP2 POP PUSH2 0x5115 DUP3 PUSH2 0x50AE JUMP JUMPDEST PUSH1 0x40 DUP3 ADD SWAP1 POP SWAP2 SWAP1 POP JUMP JUMPDEST PUSH1 0x0 PUSH1 0x20 DUP3 ADD SWAP1 POP DUP2 DUP2 SUB PUSH1 0x0 DUP4 ADD MSTORE PUSH2 0x5139 DUP2 PUSH2 0x50FD JUMP JUMPDEST SWAP1 POP SWAP2 SWAP1 POP JUMP JUMPDEST PUSH32 0x455243313135353A20696E73756666696369656E742062616C616E636520666F PUSH1 0x0 DUP3 ADD MSTORE PUSH32 0x72207472616E7366657200000000000000000000000000000000000000000000 PUSH1 0x20 DUP3 ADD MSTORE POP JUMP JUMPDEST PUSH1 0x0 PUSH2 0x519C PUSH1 0x2A DUP4 PUSH2 0x3585 JUMP JUMPDEST SWAP2 POP PUSH2 0x51A7 DUP3 PUSH2 0x5140 JUMP JUMPDEST PUSH1 0x40 DUP3 ADD SWAP1 POP SWAP2 SWAP1 POP JUMP JUMPDEST PUSH1 0x0 PUSH1 0x20 DUP3 ADD SWAP1 POP DUP2 DUP2 SUB PUSH1 0x0 DUP4 ADD MSTORE PUSH2 0x51CB DUP2 PUSH2 0x518F JUMP JUMPDEST SWAP1 POP SWAP2 SWAP1 POP JUMP JUMPDEST PUSH1 0x0 PUSH1 0x40 DUP3 ADD SWAP1 POP DUP2 DUP2 SUB PUSH1 0x0 DUP4 ADD MSTORE PUSH2 0x51EC DUP2 DUP6 PUSH2 0x3C1E JUMP JUMPDEST SWAP1 POP DUP2 DUP2 SUB PUSH1 0x20 DUP4 ADD MSTORE PUSH2 0x5200 DUP2 DUP5 PUSH2 0x3C1E JUMP JUMPDEST SWAP1 POP SWAP4 SWAP3 POP POP POP JUMP JUMPDEST PUSH32 0x4F776E61626C653A2063616C6C6572206973206E6F7420746865206F776E6572 PUSH1 0x0 DUP3 ADD MSTORE POP JUMP JUMPDEST PUSH1 0x0 PUSH2 0x523F PUSH1 0x20 DUP4 PUSH2 0x3585 JUMP JUMPDEST SWAP2 POP PUSH2 0x524A DUP3 PUSH2 0x5209 JUMP JUMPDEST PUSH1 0x20 DUP3 ADD SWAP1 POP SWAP2 SWAP1 POP JUMP JUMPDEST PUSH1 0x0 PUSH1 0x20 DUP3 ADD SWAP1 POP DUP2 DUP2 SUB PUSH1 0x0 DUP4 ADD MSTORE PUSH2 0x526E DUP2 PUSH2 0x5232 JUMP JUMPDEST SWAP1 POP SWAP2 SWAP1 POP JUMP JUMPDEST PUSH32 0x455243313135353A206275726E2066726F6D20746865207A65726F2061646472 PUSH1 0x0 DUP3 ADD MSTORE PUSH32 0x6573730000000000000000000000000000000000000000000000000000000000 PUSH1 0x20 DUP3 ADD MSTORE POP JUMP JUMPDEST PUSH1 0x0 PUSH2 0x52D1 PUSH1 0x23 DUP4 PUSH2 0x3585 JUMP JUMPDEST SWAP2 POP PUSH2 0x52DC DUP3 PUSH2 0x5275 JUMP JUMPDEST PUSH1 0x40 DUP3 ADD SWAP1 POP SWAP2 SWAP1 POP JUMP JUMPDEST PUSH1 0x0 PUSH1 0x20 DUP3 ADD SWAP1 POP DUP2 DUP2 SUB PUSH1 0x0 DUP4 ADD MSTORE PUSH2 0x5300 DUP2 PUSH2 0x52C4 JUMP JUMPDEST SWAP1 POP SWAP2 SWAP1 POP JUMP JUMPDEST PUSH32 0x455243313135353A206275726E20616D6F756E7420657863656564732062616C PUSH1 0x0 DUP3 ADD MSTORE PUSH32 0x616E636500000000000000000000000000000000000000000000000000000000 PUSH1 0x20 DUP3 ADD MSTORE POP JUMP JUMPDEST PUSH1 0x0 PUSH2 0x5363 PUSH1 0x24 DUP4 PUSH2 0x3585 JUMP JUMPDEST SWAP2 POP PUSH2 0x536E DUP3 PUSH2 0x5307 JUMP JUMPDEST PUSH1 0x40 DUP3 ADD SWAP1 POP SWAP2 SWAP1 POP JUMP JUMPDEST PUSH1 0x0 PUSH1 0x20 DUP3 ADD SWAP1 POP DUP2 DUP2 SUB PUSH1 0x0 DUP4 ADD MSTORE PUSH2 0x5392 DUP2 PUSH2 0x5356 JUMP JUMPDEST SWAP1 POP SWAP2 SWAP1 POP JUMP JUMPDEST PUSH32 0x4E487B7100000000000000000000000000000000000000000000000000000000 PUSH1 0x0 MSTORE PUSH1 0x12 PUSH1 0x4 MSTORE PUSH1 0x24 PUSH1 0x0 REVERT JUMPDEST PUSH1 0x0 PUSH2 0x53D3 DUP3 PUSH2 0x33F2 JUMP JUMPDEST SWAP2 POP PUSH2 0x53DE DUP4 PUSH2 0x33F2 JUMP JUMPDEST SWAP3 POP DUP3 PUSH2 0x53EE JUMPI PUSH2 0x53ED PUSH2 0x5399 JUMP JUMPDEST JUMPDEST DUP3 DUP3 DIV SWAP1 POP SWAP3 SWAP2 POP POP JUMP JUMPDEST PUSH32 0x455243313135353A206D696E7420746F20746865207A65726F20616464726573 PUSH1 0x0 DUP3 ADD MSTORE PUSH32 0x7300000000000000000000000000000000000000000000000000000000000000 PUSH1 0x20 DUP3 ADD MSTORE POP JUMP JUMPDEST PUSH1 0x0 PUSH2 0x5455 PUSH1 0x21 DUP4 PUSH2 0x3585 JUMP JUMPDEST SWAP2 POP PUSH2 0x5460 DUP3 PUSH2 0x53F9 JUMP JUMPDEST PUSH1 0x40 DUP3 ADD SWAP1 POP SWAP2 SWAP1 POP JUMP JUMPDEST PUSH1 0x0 PUSH1 0x20 DUP3 ADD SWAP1 POP DUP2 DUP2 SUB PUSH1 0x0 DUP4 ADD MSTORE PUSH2 0x5484 DUP2 PUSH2 0x5448 JUMP JUMPDEST SWAP1 POP SWAP2 SWAP1 POP JUMP JUMPDEST PUSH32 0x455243313135353A2073657474696E6720617070726F76616C20737461747573 PUSH1 0x0 DUP3 ADD MSTORE PUSH32 0x20666F722073656C660000000000000000000000000000000000000000000000 PUSH1 0x20 DUP3 ADD MSTORE POP JUMP JUMPDEST PUSH1 0x0 PUSH2 0x54E7 PUSH1 0x29 DUP4 PUSH2 0x3585 JUMP JUMPDEST SWAP2 POP PUSH2 0x54F2 DUP3 PUSH2 0x548B JUMP JUMPDEST PUSH1 0x40 DUP3 ADD SWAP1 POP SWAP2 SWAP1 POP JUMP JUMPDEST PUSH1 0x0 PUSH1 0x20 DUP3 ADD SWAP1 POP DUP2 DUP2 SUB PUSH1 0x0 DUP4 ADD MSTORE PUSH2 0x5516 DUP2 PUSH2 0x54DA JUMP JUMPDEST SWAP1 POP SWAP2 SWAP1 POP JUMP JUMPDEST PUSH1 0x0 DUP2 MLOAD SWAP1 POP SWAP2 SWAP1 POP JUMP JUMPDEST PUSH1 0x0 DUP3 DUP3 MSTORE PUSH1 0x20 DUP3 ADD SWAP1 POP SWAP3 SWAP2 POP POP JUMP JUMPDEST PUSH1 0x0 PUSH2 0x5544 DUP3 PUSH2 0x551D JUMP JUMPDEST PUSH2 0x554E DUP2 DUP6 PUSH2 0x5528 JUMP JUMPDEST SWAP4 POP PUSH2 0x555E DUP2 DUP6 PUSH1 0x20 DUP7 ADD PUSH2 0x3596 JUMP JUMPDEST PUSH2 0x5567 DUP2 PUSH2 0x35C0 JUMP JUMPDEST DUP5 ADD SWAP2 POP POP SWAP3 SWAP2 POP POP JUMP JUMPDEST PUSH1 0x0 PUSH1 0xA0 DUP3 ADD SWAP1 POP PUSH2 0x5587 PUSH1 0x0 DUP4 ADD DUP9 PUSH2 0x3DC3 JUMP JUMPDEST PUSH2 0x5594 PUSH1 0x20 DUP4 ADD DUP8 PUSH2 0x3DC3 JUMP JUMPDEST DUP2 DUP2 SUB PUSH1 0x40 DUP4 ADD MSTORE PUSH2 0x55A6 DUP2 DUP7 PUSH2 0x3C1E JUMP JUMPDEST SWAP1 POP DUP2 DUP2 SUB PUSH1 0x60 DUP4 ADD MSTORE PUSH2 0x55BA DUP2 DUP6 PUSH2 0x3C1E JUMP JUMPDEST SWAP1 POP DUP2 DUP2 SUB PUSH1 0x80 DUP4 ADD MSTORE PUSH2 0x55CE DUP2 DUP5 PUSH2 0x5539 JUMP JUMPDEST SWAP1 POP SWAP7 SWAP6 POP POP POP POP POP POP JUMP JUMPDEST PUSH1 0x0 DUP2 MLOAD SWAP1 POP PUSH2 0x55E9 DUP2 PUSH2 0x34BE JUMP JUMPDEST SWAP3 SWAP2 POP POP JUMP JUMPDEST PUSH1 0x0 PUSH1 0x20 DUP3 DUP5 SUB SLT ISZERO PUSH2 0x5605 JUMPI PUSH2 0x5604 PUSH2 0x338A JUMP JUMPDEST JUMPDEST PUSH1 0x0 PUSH2 0x5613 DUP5 DUP3 DUP6 ADD PUSH2 0x55DA JUMP JUMPDEST SWAP2 POP POP SWAP3 SWAP2 POP POP JUMP JUMPDEST PUSH1 0x0 DUP2 PUSH1 0xE0 SHR SWAP1 POP SWAP2 SWAP1 POP JUMP JUMPDEST PUSH1 0x0 PUSH1 0x3 RETURNDATASIZE GT ISZERO PUSH2 0x5648 JUMPI PUSH1 0x4 PUSH1 0x0 DUP1 RETURNDATACOPY PUSH2 0x5645 PUSH1 0x0 MLOAD PUSH2 0x561C JUMP JUMPDEST SWAP1 POP JUMPDEST SWAP1 JUMP JUMPDEST PUSH1 0x0 PUSH1 0x44 RETURNDATASIZE LT PUSH2 0x56D8 JUMPI PUSH2 0x565D PUSH2 0x3380 JUMP JUMPDEST PUSH1 0x4 RETURNDATASIZE SUB PUSH1 0x4 DUP3 RETURNDATACOPY DUP1 MLOAD RETURNDATASIZE PUSH1 0x24 DUP3 ADD GT PUSH8 0xFFFFFFFFFFFFFFFF DUP3 GT OR ISZERO PUSH2 0x5685 JUMPI POP POP PUSH2 0x56D8 JUMP JUMPDEST DUP1 DUP3 ADD DUP1 MLOAD PUSH8 0xFFFFFFFFFFFFFFFF DUP2 GT ISZERO PUSH2 0x56A3 JUMPI POP POP POP POP PUSH2 0x56D8 JUMP JUMPDEST DUP1 PUSH1 0x20 DUP4 ADD ADD PUSH1 0x4 RETURNDATASIZE SUB DUP6 ADD DUP2 GT ISZERO PUSH2 0x56C0 JUMPI POP POP POP POP POP PUSH2 0x56D8 JUMP JUMPDEST PUSH2 0x56CF DUP3 PUSH1 0x20 ADD DUP6 ADD DUP7 PUSH2 0x3689 JUMP JUMPDEST DUP3 SWAP6 POP POP POP POP POP POP JUMPDEST SWAP1 JUMP JUMPDEST PUSH32 0x455243313135353A207472616E7366657220746F206E6F6E2D45524331313535 PUSH1 0x0 DUP3 ADD MSTORE PUSH32 0x526563656976657220696D706C656D656E746572000000000000000000000000 PUSH1 0x20 DUP3 ADD MSTORE POP JUMP JUMPDEST PUSH1 0x0 PUSH2 0x5737 PUSH1 0x34 DUP4 PUSH2 0x3585 JUMP JUMPDEST SWAP2 POP PUSH2 0x5742 DUP3 PUSH2 0x56DB JUMP JUMPDEST PUSH1 0x40 DUP3 ADD SWAP1 POP SWAP2 SWAP1 POP JUMP JUMPDEST PUSH1 0x0 PUSH1 0x20 DUP3 ADD SWAP1 POP DUP2 DUP2 SUB PUSH1 0x0 DUP4 ADD MSTORE PUSH2 0x5766 DUP2 PUSH2 0x572A JUMP JUMPDEST SWAP1 POP SWAP2 SWAP1 POP JUMP JUMPDEST PUSH32 0x455243313135353A204552433131353552656365697665722072656A65637465 PUSH1 0x0 DUP3 ADD MSTORE PUSH32 0x6420746F6B656E73000000000000000000000000000000000000000000000000 PUSH1 0x20 DUP3 ADD MSTORE POP JUMP JUMPDEST PUSH1 0x0 PUSH2 0x57C9 PUSH1 0x28 DUP4 PUSH2 0x3585 JUMP JUMPDEST SWAP2 POP PUSH2 0x57D4 DUP3 PUSH2 0x576D JUMP JUMPDEST PUSH1 0x40 DUP3 ADD SWAP1 POP SWAP2 SWAP1 POP JUMP JUMPDEST PUSH1 0x0 PUSH1 0x20 DUP3 ADD SWAP1 POP DUP2 DUP2 SUB PUSH1 0x0 DUP4 ADD MSTORE PUSH2 0x57F8 DUP2 PUSH2 0x57BC JUMP JUMPDEST SWAP1 POP SWAP2 SWAP1 POP JUMP JUMPDEST PUSH1 0x0 PUSH1 0xA0 DUP3 ADD SWAP1 POP PUSH2 0x5814 PUSH1 0x0 DUP4 ADD DUP9 PUSH2 0x3DC3 JUMP JUMPDEST PUSH2 0x5821 PUSH1 0x20 DUP4 ADD DUP8 PUSH2 0x3DC3 JUMP JUMPDEST PUSH2 0x582E PUSH1 0x40 DUP4 ADD DUP7 PUSH2 0x3468 JUMP JUMPDEST PUSH2 0x583B PUSH1 0x60 DUP4 ADD DUP6 PUSH2 0x3468 JUMP JUMPDEST DUP2 DUP2 SUB PUSH1 0x80 DUP4 ADD MSTORE PUSH2 0x584D DUP2 DUP5 PUSH2 0x5539 JUMP JUMPDEST SWAP1 POP SWAP7 SWAP6 POP POP POP POP POP POP JUMP INVALID LOG2 PUSH5 0x6970667358 0x22 SLT KECCAK256 CALL 0xAE PUSH3 0x5C3821 0x1E 0xEE DUP15 SWAP3 0xB8 SGT PUSH27 0x2DF7947C482548DB0A50BA426AB7FFCE16584C64736F6C63430008 GT STOP CALLER "
		},
		"gasEstimates": {
			"creation": {
				"codeDepositCost": "4534200",
				"executionCost": "infinite",
				"totalCost": "infinite"
			},
			"external": {
				"Ftoken()": "infinite",
				"Stoken()": "infinite",
				"balanceOf(address,uint256)": "infinite",
				"balanceOfBatch(address[],uint256[])": "infinite",
				"endVoting(uint256,bool)": "infinite",
				"faildBurn(address,uint256,uint256)": "infinite",
				"getTokenOwnerData(uint256)": "infinite",
				"getVoting(uint256,uint256)": "infinite",
				"getVotingCount(uint256)": "infinite",
				"getVotingDate(uint256)": "infinite",
				"ids(uint256)": "infinite",
				"idsView()": "infinite",
				"isApprovedForAll(address,address)": "infinite",
				"isFunddingCA(address)": "51261",
				"isFunddingFalsed(uint256)": "infinite",
				"isFunddingSuccess(uint256)": "infinite",
				"isSaleCA(address)": "24868",
				"isSalesToken(address,uint256,uint256,uint256)": "infinite",
				"isVoting(uint256,bool)": "infinite",
				"mintFundding(address,address,uint256,uint256,uint256,uint256,string)": "infinite",
				"owner()": "2568",
				"renounceOwnership()": "30465",
				"safeBatchTransferFrom(address,address,uint256[],uint256[],bytes)": "infinite",
				"safeTransferFrom(address,address,uint256,uint256,bytes)": "infinite",
				"saleApprovalFalse(address)": "27077",
				"setApprovalForAll(address,bool)": "infinite",
				"startVoting(uint256,uint256,uint256)": "infinite",
				"supportsInterface(bytes4)": "842",
				"tokenOwners(uint256)": "infinite",
				"tokenURI(uint256)": "infinite",
				"transferOwnership(address)": "30788",
				"uri(uint256)": "infinite",
				"voting(uint256,uint256)": "infinite",
				"votingCount(uint256)": "infinite",
				"votingDate(uint256)": "infinite"
			},
			"internal": {
				"_getFunddingData(address,uint256,uint256,uint256)": "infinite"
			}
		},
		"methodIdentifiers": {
			"Ftoken()": "325d20c4",
			"Stoken()": "61b1b23c",
			"balanceOf(address,uint256)": "00fdd58e",
			"balanceOfBatch(address[],uint256[])": "4e1273f4",
			"endVoting(uint256,bool)": "d198cc01",
			"faildBurn(address,uint256,uint256)": "77379082",
			"getTokenOwnerData(uint256)": "8d63193d",
			"getVoting(uint256,uint256)": "46a0d50a",
			"getVotingCount(uint256)": "aee4a42a",
			"getVotingDate(uint256)": "4f4eacd8",
			"ids(uint256)": "fac333ac",
			"idsView()": "7abfee42",
			"isApprovedForAll(address,address)": "e985e9c5",
			"isFunddingCA(address)": "e29be1a1",
			"isFunddingFalsed(uint256)": "2374fdcf",
			"isFunddingSuccess(uint256)": "c31f4b58",
			"isSaleCA(address)": "4672a602",
			"isSalesToken(address,uint256,uint256,uint256)": "f4a3a92b",
			"isVoting(uint256,bool)": "fcc1ff5c",
			"mintFundding(address,address,uint256,uint256,uint256,uint256,string)": "9d835c5f",
			"owner()": "8da5cb5b",
			"renounceOwnership()": "715018a6",
			"safeBatchTransferFrom(address,address,uint256[],uint256[],bytes)": "2eb2c2d6",
			"safeTransferFrom(address,address,uint256,uint256,bytes)": "f242432a",
			"saleApprovalFalse(address)": "4b77f8d0",
			"setApprovalForAll(address,bool)": "a22cb465",
			"startVoting(uint256,uint256,uint256)": "beb9eb30",
			"supportsInterface(bytes4)": "01ffc9a7",
			"tokenOwners(uint256)": "f8a14f46",
			"tokenURI(uint256)": "c87b56dd",
			"transferOwnership(address)": "f2fde38b",
			"uri(uint256)": "0e89341c",
			"voting(uint256,uint256)": "cfaad27c",
			"votingCount(uint256)": "d68ad7a0",
			"votingDate(uint256)": "0fe2a68d"
		}
	},
	"abi": [
		{
			"inputs": [],
			"stateMutability": "nonpayable",
			"type": "constructor"
		},
		{
			"anonymous": false,
			"inputs": [
				{
					"indexed": true,
					"internalType": "address",
					"name": "account",
					"type": "address"
				},
				{
					"indexed": true,
					"internalType": "address",
					"name": "operator",
					"type": "address"
				},
				{
					"indexed": false,
					"internalType": "bool",
					"name": "approved",
					"type": "bool"
				}
			],
			"name": "ApprovalForAll",
			"type": "event"
		},
		{
			"anonymous": false,
			"inputs": [
				{
					"indexed": true,
					"internalType": "address",
					"name": "previousOwner",
					"type": "address"
				},
				{
					"indexed": true,
					"internalType": "address",
					"name": "newOwner",
					"type": "address"
				}
			],
			"name": "OwnershipTransferred",
			"type": "event"
		},
		{
			"anonymous": false,
			"inputs": [
				{
					"indexed": true,
					"internalType": "address",
					"name": "operator",
					"type": "address"
				},
				{
					"indexed": true,
					"internalType": "address",
					"name": "from",
					"type": "address"
				},
				{
					"indexed": true,
					"internalType": "address",
					"name": "to",
					"type": "address"
				},
				{
					"indexed": false,
					"internalType": "uint256[]",
					"name": "ids",
					"type": "uint256[]"
				},
				{
					"indexed": false,
					"internalType": "uint256[]",
					"name": "values",
					"type": "uint256[]"
				}
			],
			"name": "TransferBatch",
			"type": "event"
		},
		{
			"anonymous": false,
			"inputs": [
				{
					"indexed": true,
					"internalType": "address",
					"name": "operator",
					"type": "address"
				},
				{
					"indexed": true,
					"internalType": "address",
					"name": "from",
					"type": "address"
				},
				{
					"indexed": true,
					"internalType": "address",
					"name": "to",
					"type": "address"
				},
				{
					"indexed": false,
					"internalType": "uint256",
					"name": "id",
					"type": "uint256"
				},
				{
					"indexed": false,
					"internalType": "uint256",
					"name": "value",
					"type": "uint256"
				}
			],
			"name": "TransferSingle",
			"type": "event"
		},
		{
			"anonymous": false,
			"inputs": [
				{
					"indexed": false,
					"internalType": "string",
					"name": "value",
					"type": "string"
				},
				{
					"indexed": true,
					"internalType": "uint256",
					"name": "id",
					"type": "uint256"
				}
			],
			"name": "URI",
			"type": "event"
		},
		{
			"anonymous": false,
			"inputs": [
				{
					"indexed": false,
					"internalType": "address",
					"name": "account",
					"type": "address"
				},
				{
					"indexed": false,
					"internalType": "uint256",
					"name": "tokenId",
					"type": "uint256"
				},
				{
					"indexed": false,
					"internalType": "uint256",
					"name": "amount",
					"type": "uint256"
				},
				{
					"indexed": false,
					"internalType": "uint256",
					"name": "totalPrice",
					"type": "uint256"
				},
				{
					"indexed": false,
					"internalType": "uint256",
					"name": "getTime",
					"type": "uint256"
				},
				{
					"indexed": false,
					"internalType": "string",
					"name": "result",
					"type": "string"
				}
			],
			"name": "seccessFundding",
			"type": "event"
		},
		{
			"inputs": [],
			"name": "Ftoken",
			"outputs": [
				{
					"internalType": "contract FunddingToken",
					"name": "",
					"type": "address"
				}
			],
			"stateMutability": "view",
			"type": "function"
		},
		{
			"inputs": [],
			"name": "Stoken",
			"outputs": [
				{
					"internalType": "contract SaleToken",
					"name": "",
					"type": "address"
				}
			],
			"stateMutability": "view",
			"type": "function"
		},
		{
			"inputs": [
				{
					"internalType": "address",
					"name": "account",
					"type": "address"
				},
				{
					"internalType": "uint256",
					"name": "tokenId",
					"type": "uint256"
				}
			],
			"name": "balanceOf",
			"outputs": [
				{
					"internalType": "uint256",
					"name": "",
					"type": "uint256"
				}
			],
			"stateMutability": "view",
			"type": "function"
		},
		{
			"inputs": [
				{
					"internalType": "address[]",
					"name": "accounts",
					"type": "address[]"
				},
				{
					"internalType": "uint256[]",
					"name": "ids",
					"type": "uint256[]"
				}
			],
			"name": "balanceOfBatch",
			"outputs": [
				{
					"internalType": "uint256[]",
					"name": "",
					"type": "uint256[]"
				}
			],
			"stateMutability": "view",
			"type": "function"
		},
		{
			"inputs": [
				{
					"internalType": "uint256",
					"name": "tokenId",
					"type": "uint256"
				},
				{
					"internalType": "bool",
					"name": "result",
					"type": "bool"
				}
			],
			"name": "endVoting",
			"outputs": [],
			"stateMutability": "nonpayable",
			"type": "function"
		},
		{
			"inputs": [
				{
					"internalType": "address",
					"name": "account",
					"type": "address"
				},
				{
					"internalType": "uint256",
					"name": "tokenId",
					"type": "uint256"
				},
				{
					"internalType": "uint256",
					"name": "amount",
					"type": "uint256"
				}
			],
			"name": "faildBurn",
			"outputs": [],
			"stateMutability": "nonpayable",
			"type": "function"
		},
		{
			"inputs": [
				{
					"internalType": "uint256",
					"name": "tokenId",
					"type": "uint256"
				}
			],
			"name": "getTokenOwnerData",
			"outputs": [
				{
					"components": [
						{
							"internalType": "address",
							"name": "Creater",
							"type": "address"
						},
						{
							"internalType": "uint256",
							"name": "NftAmount",
							"type": "uint256"
						},
						{
							"internalType": "uint256",
							"name": "TotalPrice",
							"type": "uint256"
						},
						{
							"internalType": "uint256",
							"name": "UnitPrice",
							"type": "uint256"
						},
						{
							"internalType": "uint256",
							"name": "EndTime",
							"type": "uint256"
						},
						{
							"internalType": "bool",
							"name": "isSuccess",
							"type": "bool"
						}
					],
					"internalType": "struct DtsToken.tokenOwnerData",
					"name": "",
					"type": "tuple"
				}
			],
			"stateMutability": "view",
			"type": "function"
		},
		{
			"inputs": [
				{
					"internalType": "uint256",
					"name": "tokenId",
					"type": "uint256"
				},
				{
					"internalType": "uint256",
					"name": "votingNum",
					"type": "uint256"
				}
			],
			"name": "getVoting",
			"outputs": [
				{
					"components": [
						{
							"internalType": "address",
							"name": "account",
							"type": "address"
						},
						{
							"internalType": "uint256",
							"name": "Amount",
							"type": "uint256"
						},
						{
							"internalType": "bool",
							"name": "result",
							"type": "bool"
						}
					],
					"internalType": "struct DtsToken.votingData",
					"name": "",
					"type": "tuple"
				}
			],
			"stateMutability": "view",
			"type": "function"
		},
		{
			"inputs": [
				{
					"internalType": "uint256",
					"name": "tokenId",
					"type": "uint256"
				}
			],
			"name": "getVotingCount",
			"outputs": [
				{
					"internalType": "uint256",
					"name": "",
					"type": "uint256"
				}
			],
			"stateMutability": "view",
			"type": "function"
		},
		{
			"inputs": [
				{
					"internalType": "uint256",
					"name": "tokenId",
					"type": "uint256"
				}
			],
			"name": "getVotingDate",
			"outputs": [
				{
					"internalType": "uint256",
					"name": "",
					"type": "uint256"
				}
			],
			"stateMutability": "view",
			"type": "function"
		},
		{
			"inputs": [
				{
					"internalType": "uint256",
					"name": "",
					"type": "uint256"
				}
			],
			"name": "ids",
			"outputs": [
				{
					"internalType": "uint256",
					"name": "",
					"type": "uint256"
				}
			],
			"stateMutability": "view",
			"type": "function"
		},
		{
			"inputs": [],
			"name": "idsView",
			"outputs": [
				{
					"internalType": "uint256[]",
					"name": "",
					"type": "uint256[]"
				}
			],
			"stateMutability": "view",
			"type": "function"
		},
		{
			"inputs": [
				{
					"internalType": "address",
					"name": "account",
					"type": "address"
				},
				{
					"internalType": "address",
					"name": "operator",
					"type": "address"
				}
			],
			"name": "isApprovedForAll",
			"outputs": [
				{
					"internalType": "bool",
					"name": "",
					"type": "bool"
				}
			],
			"stateMutability": "view",
			"type": "function"
		},
		{
			"inputs": [
				{
					"internalType": "address",
					"name": "account",
					"type": "address"
				}
			],
			"name": "isFunddingCA",
			"outputs": [],
			"stateMutability": "nonpayable",
			"type": "function"
		},
		{
			"inputs": [
				{
					"internalType": "uint256",
					"name": "tokenId",
					"type": "uint256"
				}
			],
			"name": "isFunddingFalsed",
			"outputs": [],
			"stateMutability": "nonpayable",
			"type": "function"
		},
		{
			"inputs": [
				{
					"internalType": "uint256",
					"name": "tokenId",
					"type": "uint256"
				}
			],
			"name": "isFunddingSuccess",
			"outputs": [],
			"stateMutability": "nonpayable",
			"type": "function"
		},
		{
			"inputs": [
				{
					"internalType": "address",
					"name": "account",
					"type": "address"
				}
			],
			"name": "isSaleCA",
			"outputs": [],
			"stateMutability": "nonpayable",
			"type": "function"
		},
		{
			"inputs": [
				{
					"internalType": "address",
					"name": "saleCA",
					"type": "address"
				},
				{
					"internalType": "uint256",
					"name": "tokenId",
					"type": "uint256"
				},
				{
					"internalType": "uint256",
					"name": "amount",
					"type": "uint256"
				},
				{
					"internalType": "uint256",
					"name": "price",
					"type": "uint256"
				}
			],
			"name": "isSalesToken",
			"outputs": [],
			"stateMutability": "nonpayable",
			"type": "function"
		},
		{
			"inputs": [
				{
					"internalType": "uint256",
					"name": "tokenId",
					"type": "uint256"
				},
				{
					"internalType": "bool",
					"name": "governance",
					"type": "bool"
				}
			],
			"name": "isVoting",
			"outputs": [],
			"stateMutability": "nonpayable",
			"type": "function"
		},
		{
			"inputs": [
				{
					"internalType": "address",
					"name": "account",
					"type": "address"
				},
				{
					"internalType": "address",
					"name": "funddingTokenCA",
					"type": "address"
				},
				{
					"internalType": "uint256",
					"name": "tokenId",
					"type": "uint256"
				},
				{
					"internalType": "uint256",
					"name": "amount",
					"type": "uint256"
				},
				{
					"internalType": "uint256",
					"name": "totalPrice",
					"type": "uint256"
				},
				{
					"internalType": "uint256",
					"name": "getTime",
					"type": "uint256"
				},
				{
					"internalType": "string",
					"name": "metadata",
					"type": "string"
				}
			],
			"name": "mintFundding",
			"outputs": [],
			"stateMutability": "nonpayable",
			"type": "function"
		},
		{
			"inputs": [],
			"name": "owner",
			"outputs": [
				{
					"internalType": "address",
					"name": "",
					"type": "address"
				}
			],
			"stateMutability": "view",
			"type": "function"
		},
		{
			"inputs": [],
			"name": "renounceOwnership",
			"outputs": [],
			"stateMutability": "nonpayable",
			"type": "function"
		},
		{
			"inputs": [
				{
					"internalType": "address",
					"name": "from",
					"type": "address"
				},
				{
					"internalType": "address",
					"name": "to",
					"type": "address"
				},
				{
					"internalType": "uint256[]",
					"name": "ids",
					"type": "uint256[]"
				},
				{
					"internalType": "uint256[]",
					"name": "amounts",
					"type": "uint256[]"
				},
				{
					"internalType": "bytes",
					"name": "data",
					"type": "bytes"
				}
			],
			"name": "safeBatchTransferFrom",
			"outputs": [],
			"stateMutability": "nonpayable",
			"type": "function"
		},
		{
			"inputs": [
				{
					"internalType": "address",
					"name": "from",
					"type": "address"
				},
				{
					"internalType": "address",
					"name": "to",
					"type": "address"
				},
				{
					"internalType": "uint256",
					"name": "id",
					"type": "uint256"
				},
				{
					"internalType": "uint256",
					"name": "amount",
					"type": "uint256"
				},
				{
					"internalType": "bytes",
					"name": "data",
					"type": "bytes"
				}
			],
			"name": "safeTransferFrom",
			"outputs": [],
			"stateMutability": "nonpayable",
			"type": "function"
		},
		{
			"inputs": [
				{
					"internalType": "address",
					"name": "saleCA",
					"type": "address"
				}
			],
			"name": "saleApprovalFalse",
			"outputs": [],
			"stateMutability": "nonpayable",
			"type": "function"
		},
		{
			"inputs": [
				{
					"internalType": "address",
					"name": "operator",
					"type": "address"
				},
				{
					"internalType": "bool",
					"name": "approved",
					"type": "bool"
				}
			],
			"name": "setApprovalForAll",
			"outputs": [],
			"stateMutability": "nonpayable",
			"type": "function"
		},
		{
			"inputs": [
				{
					"internalType": "uint256",
					"name": "tokenId",
					"type": "uint256"
				},
				{
					"internalType": "uint256",
					"name": "date",
					"type": "uint256"
				},
				{
					"internalType": "uint256",
					"name": "changeDay",
					"type": "uint256"
				}
			],
			"name": "startVoting",
			"outputs": [],
			"stateMutability": "nonpayable",
			"type": "function"
		},
		{
			"inputs": [
				{
					"internalType": "bytes4",
					"name": "interfaceId",
					"type": "bytes4"
				}
			],
			"name": "supportsInterface",
			"outputs": [
				{
					"internalType": "bool",
					"name": "",
					"type": "bool"
				}
			],
			"stateMutability": "view",
			"type": "function"
		},
		{
			"inputs": [
				{
					"internalType": "uint256",
					"name": "",
					"type": "uint256"
				}
			],
			"name": "tokenOwners",
			"outputs": [
				{
					"internalType": "address",
					"name": "Creater",
					"type": "address"
				},
				{
					"internalType": "uint256",
					"name": "NftAmount",
					"type": "uint256"
				},
				{
					"internalType": "uint256",
					"name": "TotalPrice",
					"type": "uint256"
				},
				{
					"internalType": "uint256",
					"name": "UnitPrice",
					"type": "uint256"
				},
				{
					"internalType": "uint256",
					"name": "EndTime",
					"type": "uint256"
				},
				{
					"internalType": "bool",
					"name": "isSuccess",
					"type": "bool"
				}
			],
			"stateMutability": "view",
			"type": "function"
		},
		{
			"inputs": [
				{
					"internalType": "uint256",
					"name": "tokenId",
					"type": "uint256"
				}
			],
			"name": "tokenURI",
			"outputs": [
				{
					"internalType": "string",
					"name": "",
					"type": "string"
				}
			],
			"stateMutability": "view",
			"type": "function"
		},
		{
			"inputs": [
				{
					"internalType": "address",
					"name": "newOwner",
					"type": "address"
				}
			],
			"name": "transferOwnership",
			"outputs": [],
			"stateMutability": "nonpayable",
			"type": "function"
		},
		{
			"inputs": [
				{
					"internalType": "uint256",
					"name": "",
					"type": "uint256"
				}
			],
			"name": "uri",
			"outputs": [
				{
					"internalType": "string",
					"name": "",
					"type": "string"
				}
			],
			"stateMutability": "view",
			"type": "function"
		},
		{
			"inputs": [
				{
					"internalType": "uint256",
					"name": "",
					"type": "uint256"
				},
				{
					"internalType": "uint256",
					"name": "",
					"type": "uint256"
				}
			],
			"name": "voting",
			"outputs": [
				{
					"internalType": "address",
					"name": "account",
					"type": "address"
				},
				{
					"internalType": "uint256",
					"name": "Amount",
					"type": "uint256"
				},
				{
					"internalType": "bool",
					"name": "result",
					"type": "bool"
				}
			],
			"stateMutability": "view",
			"type": "function"
		},
		{
			"inputs": [
				{
					"internalType": "uint256",
					"name": "",
					"type": "uint256"
				}
			],
			"name": "votingCount",
			"outputs": [
				{
					"internalType": "uint256",
					"name": "",
					"type": "uint256"
				}
			],
			"stateMutability": "view",
			"type": "function"
		},
		{
			"inputs": [
				{
					"internalType": "uint256",
					"name": "",
					"type": "uint256"
				}
			],
			"name": "votingDate",
			"outputs": [
				{
					"internalType": "uint256",
					"name": "time",
					"type": "uint256"
				},
				{
					"internalType": "uint256",
					"name": "date",
					"type": "uint256"
				}
			],
			"stateMutability": "view",
			"type": "function"
		}
	]
}