{
	"data": {
		"bytecode": {
			"linkReferences": {},
			"object": "6080604052600a6002553480156200001657600080fd5b5060405162002c1e38038062002c1e83398181016040528101906200003c91906200026b565b6200005c620000506200013560201b60201c565b6200013d60201b60201c565b80600160006101000a81548173ffffffffffffffffffffffffffffffffffffffff021916908373ffffffffffffffffffffffffffffffffffffffff160217905550600160009054906101000a900473ffffffffffffffffffffffffffffffffffffffff1673ffffffffffffffffffffffffffffffffffffffff1663e29be1a1306040518263ffffffff1660e01b8152600401620000fa9190620002ae565b600060405180830381600087803b1580156200011557600080fd5b505af11580156200012a573d6000803e3d6000fd5b5050505050620002cb565b600033905090565b60008060009054906101000a900473ffffffffffffffffffffffffffffffffffffffff169050816000806101000a81548173ffffffffffffffffffffffffffffffffffffffff021916908373ffffffffffffffffffffffffffffffffffffffff1602179055508173ffffffffffffffffffffffffffffffffffffffff168173ffffffffffffffffffffffffffffffffffffffff167f8be0079c531659141344cd1fd0a4f28419497f9722a3daafe3b4186f6b6457e060405160405180910390a35050565b600080fd5b600073ffffffffffffffffffffffffffffffffffffffff82169050919050565b6000620002338262000206565b9050919050565b620002458162000226565b81146200025157600080fd5b50565b60008151905062000265816200023a565b92915050565b60006020828403121562000284576200028362000201565b5b6000620002948482850162000254565b91505092915050565b620002a88162000226565b82525050565b6000602082019050620002c560008301846200029d565b92915050565b61294380620002db6000396000f3fe6080604052600436106100a75760003560e01c80638e13b063116100645780638e13b0631461016d5780639ddca16a14610189578063af75c382146101c6578063cc8a416b14610203578063eaf85b5c1461022e578063f2fde38b14610259576100a7565b806329c51d2b146100ac57806349e5465c146100c857806350b9c7371461010557806364bbd1f114610121578063715018a61461012b5780638da5cb5b14610142575b600080fd5b6100c660048036038101906100c19190611ba6565b610282565b005b3480156100d457600080fd5b506100ef60048036038101906100ea9190611ba6565b610736565b6040516100fc9190611be2565b60405180910390f35b61011f600480360381019061011a9190611bfd565b610753565b005b610129610f89565b005b34801561013757600080fd5b506101406111ad565b005b34801561014e57600080fd5b506101576111c1565b6040516101649190611c7e565b60405180910390f35b61018760048036038101906101829190611cc5565b6111ea565b005b34801561019557600080fd5b506101b060048036038101906101ab9190611ba6565b6118b5565b6040516101bd9190611be2565b60405180910390f35b3480156101d257600080fd5b506101ed60048036038101906101e89190611d05565b6118cd565b6040516101fa9190611be2565b60405180910390f35b34801561020f57600080fd5b506102186118e5565b6040516102259190611d91565b60405180910390f35b34801561023a57600080fd5b5061024361190b565b6040516102509190611be2565b60405180910390f35b34801561026557600080fd5b50610280600480360381019061027b9190611d05565b611952565b005b600160009054906101000a900473ffffffffffffffffffffffffffffffffffffffff1673ffffffffffffffffffffffffffffffffffffffff16638d63193d826040518263ffffffff1660e01b81526004016102dd9190611be2565b60c060405180830381865afa1580156102fa573d6000803e3d6000fd5b505050506040513d601f19601f8201168201806040525081019061031e9190611f3f565b6000015173ffffffffffffffffffffffffffffffffffffffff163373ffffffffffffffffffffffffffffffffffffffff161461038f576040517f08c379a000000000000000000000000000000000000000000000000000000000815260040161038690611fc9565b60405180910390fd5b6003600082815260200190815260200160002054600160009054906101000a900473ffffffffffffffffffffffffffffffffffffffff1673ffffffffffffffffffffffffffffffffffffffff16638d63193d836040518263ffffffff1660e01b81526004016103fe9190611be2565b60c060405180830381865afa15801561041b573d6000803e3d6000fd5b505050506040513d601f19601f8201168201806040525081019061043f9190611f3f565b6060015161044d9190612018565b600160009054906101000a900473ffffffffffffffffffffffffffffffffffffffff1673ffffffffffffffffffffffffffffffffffffffff16638d63193d836040518263ffffffff1660e01b81526004016104a89190611be2565b60c060405180830381865afa1580156104c5573d6000803e3d6000fd5b505050506040513d601f19601f820116820180604052508101906104e99190611f3f565b604001511461052d576040517f08c379a0000000000000000000000000000000000000000000000000000000008152600401610524906120a6565b60405180910390fd5b60006105ed6105e6600254600160009054906101000a900473ffffffffffffffffffffffffffffffffffffffff1673ffffffffffffffffffffffffffffffffffffffff16638d63193d866040518263ffffffff1660e01b81526004016105939190611be2565b60c060405180830381865afa1580156105b0573d6000803e3d6000fd5b505050506040513d601f19601f820116820180604052508101906105d49190611f3f565b604001516119d590919063ffffffff16565b60646119eb565b905060006106ad6106a683600160009054906101000a900473ffffffffffffffffffffffffffffffffffffffff1673ffffffffffffffffffffffffffffffffffffffff16638d63193d876040518263ffffffff1660e01b81526004016106539190611be2565b60c060405180830381865afa158015610670573d6000803e3d6000fd5b505050506040513d601f19601f820116820180604052508101906106949190611f3f565b60400151611a0190919063ffffffff16565b60026119eb565b90503373ffffffffffffffffffffffffffffffffffffffff166108fc829081150290604051600060405180830381858888f193505050501580156106f5573d6000803e3d6000fd5b507f7fffb0a8155fcfdc6d8e1d3be816bb80ed703df69e0c247d54d9fa85eb9c52e2338483604051610729939291906120c6565b60405180910390a1505050565b600060036000838152602001908152602001600020549050919050565b6000600160009054906101000a900473ffffffffffffffffffffffffffffffffffffffff1673ffffffffffffffffffffffffffffffffffffffff16638d63193d846040518263ffffffff1660e01b81526004016107b09190611be2565b60c060405180830381865afa1580156107cd573d6000803e3d6000fd5b505050506040513d601f19601f820116820180604052508101906107f19190611f3f565b600001519050600082600160009054906101000a900473ffffffffffffffffffffffffffffffffffffffff1673ffffffffffffffffffffffffffffffffffffffff16638d63193d866040518263ffffffff1660e01b81526004016108559190611be2565b60c060405180830381865afa158015610872573d6000803e3d6000fd5b505050506040513d601f19601f820116820180604052508101906108969190611f3f565b606001516108a49190612018565b905042600160009054906101000a900473ffffffffffffffffffffffffffffffffffffffff1673ffffffffffffffffffffffffffffffffffffffff16638d63193d866040518263ffffffff1660e01b81526004016109029190611be2565b60c060405180830381865afa15801561091f573d6000803e3d6000fd5b505050506040513d601f19601f820116820180604052508101906109439190611f3f565b6080015111610987576040517f08c379a000000000000000000000000000000000000000000000000000000000815260040161097e90612149565b60405180910390fd5b8173ffffffffffffffffffffffffffffffffffffffff163373ffffffffffffffffffffffffffffffffffffffff16036109f5576040517f08c379a00000000000000000000000000000000000000000000000000000000081526004016109ec906121b5565b60405180910390fd5b60003403610a38576040517f08c379a0000000000000000000000000000000000000000000000000000000008152600401610a2f90612221565b60405180910390fd5b803414610a7a576040517f08c379a0000000000000000000000000000000000000000000000000000000008152600401610a719061228d565b60405180910390fd5b82600160009054906101000a900473ffffffffffffffffffffffffffffffffffffffff1673ffffffffffffffffffffffffffffffffffffffff1662fdd58e84876040518363ffffffff1660e01b8152600401610ad79291906122ad565b602060405180830381865afa158015610af4573d6000803e3d6000fd5b505050506040513d601f19601f82011682018060405250810190610b1891906122d6565b1015610b59576040517f08c379a0000000000000000000000000000000000000000000000000000000008152600401610b509061234f565b60405180910390fd5b826003600086815260200190815260200160002054600160009054906101000a900473ffffffffffffffffffffffffffffffffffffffff1673ffffffffffffffffffffffffffffffffffffffff16638d63193d876040518263ffffffff1660e01b8152600401610bc99190611be2565b60c060405180830381865afa158015610be6573d6000803e3d6000fd5b505050506040513d601f19601f82011682018060405250810190610c0a9190611f3f565b60200151610c18919061236f565b1015610c59576040517f08c379a0000000000000000000000000000000000000000000000000000000008152600401610c5090612415565b60405180910390fd5b600160009054906101000a900473ffffffffffffffffffffffffffffffffffffffff1673ffffffffffffffffffffffffffffffffffffffff1663e985e9c583306040518363ffffffff1660e01b8152600401610cb6929190612435565b602060405180830381865afa158015610cd3573d6000803e3d6000fd5b505050506040513d601f19601f82011682018060405250810190610cf7919061245e565b610d36576040517f08c379a0000000000000000000000000000000000000000000000000000000008152600401610d2d906124d7565b60405180910390fd5b826003600086815260200190815260200160002054610d5591906124f7565b6003600086815260200190815260200160002081905550600160009054906101000a900473ffffffffffffffffffffffffffffffffffffffff1673ffffffffffffffffffffffffffffffffffffffff1663f242432a833387876040518563ffffffff1660e01b8152600401610dcd9493929190612562565b600060405180830381600087803b158015610de757600080fd5b505af1158015610dfb573d6000803e3d6000fd5b505050507fc27ec451630f6e9734830d857edaa8a7ec58f1a497a5d7f15fad6d0c2828d12e33858584604051610e3494939291906125ba565b60405180910390a1600160009054906101000a900473ffffffffffffffffffffffffffffffffffffffff1673ffffffffffffffffffffffffffffffffffffffff16638d63193d856040518263ffffffff1660e01b8152600401610e979190611be2565b60c060405180830381865afa158015610eb4573d6000803e3d6000fd5b505050506040513d601f19601f82011682018060405250810190610ed89190611f3f565b60200151600360008681526020019081526020016000205403610f8357600160009054906101000a900473ffffffffffffffffffffffffffffffffffffffff1673ffffffffffffffffffffffffffffffffffffffff1663c31f4b58856040518263ffffffff1660e01b8152600401610f509190611be2565b600060405180830381600087803b158015610f6a57600080fd5b505af1158015610f7e573d6000803e3d6000fd5b505050505b50505050565b42600460003373ffffffffffffffffffffffffffffffffffffffff1673ffffffffffffffffffffffffffffffffffffffff168152602001908152602001600020541061100a576040517f08c379a00000000000000000000000000000000000000000000000000000000081526004016110019061264b565b60405180910390fd5b6706f05b59d3b200003414806110275750670de0b6b3a764000034145b806110395750671bc16d674ec8000034145b61104257600080fd5b6706f05b59d3b2000034036110a85762278d004261106091906124f7565b600460003373ffffffffffffffffffffffffffffffffffffffff1673ffffffffffffffffffffffffffffffffffffffff16815260200190815260200160002081905550611172565b670de0b6b3a7640000340361110e576276a700426110c691906124f7565b600460003373ffffffffffffffffffffffffffffffffffffffff1673ffffffffffffffffffffffffffffffffffffffff16815260200190815260200160002081905550611171565b671bc16d674ec8000034036111705762ed4e004261112c91906124f7565b600460003373ffffffffffffffffffffffffffffffffffffffff1673ffffffffffffffffffffffffffffffffffffffff168152602001908152602001600020819055505b5b5b7f1dda25a2ed0441a546199a85560617835bb47cae2094881f568e27468604e0e133346040516111a39291906122ad565b60405180910390a1565b6111b5611a17565b6111bf6000611a95565b565b60008060009054906101000a900473ffffffffffffffffffffffffffffffffffffffff16905090565b8173ffffffffffffffffffffffffffffffffffffffff163373ffffffffffffffffffffffffffffffffffffffff1614611258576040517f08c379a000000000000000000000000000000000000000000000000000000000815260040161124f90611fc9565b60405180910390fd5b6000600160009054906101000a900473ffffffffffffffffffffffffffffffffffffffff1673ffffffffffffffffffffffffffffffffffffffff1662fdd58e33846040518363ffffffff1660e01b81526004016112b69291906122ad565b602060405180830381865afa1580156112d3573d6000803e3d6000fd5b505050506040513d601f19601f820116820180604052508101906112f791906122d6565b11611337576040517f08c379a000000000000000000000000000000000000000000000000000000000815260040161132e906126b7565b60405180910390fd5b42600160009054906101000a900473ffffffffffffffffffffffffffffffffffffffff1673ffffffffffffffffffffffffffffffffffffffff16638d63193d836040518263ffffffff1660e01b81526004016113939190611be2565b60c060405180830381865afa1580156113b0573d6000803e3d6000fd5b505050506040513d601f19601f820116820180604052508101906113d49190611f3f565b6080015110611418576040517f08c379a000000000000000000000000000000000000000000000000000000000815260040161140f90612723565b60405180910390fd5b6003600082815260200190815260200160002054600160009054906101000a900473ffffffffffffffffffffffffffffffffffffffff1673ffffffffffffffffffffffffffffffffffffffff16638d63193d836040518263ffffffff1660e01b81526004016114879190611be2565b60c060405180830381865afa1580156114a4573d6000803e3d6000fd5b505050506040513d601f19601f820116820180604052508101906114c89190611f3f565b606001516114d69190612018565b600160009054906101000a900473ffffffffffffffffffffffffffffffffffffffff1673ffffffffffffffffffffffffffffffffffffffff16638d63193d836040518263ffffffff1660e01b81526004016115319190611be2565b60c060405180830381865afa15801561154e573d6000803e3d6000fd5b505050506040513d601f19601f820116820180604052508101906115729190611f3f565b60400151116115b6576040517f08c379a00000000000000000000000000000000000000000000000000000000081526004016115ad9061278f565b60405180910390fd5b6000600160009054906101000a900473ffffffffffffffffffffffffffffffffffffffff1673ffffffffffffffffffffffffffffffffffffffff16638d63193d836040518263ffffffff1660e01b81526004016116139190611be2565b60c060405180830381865afa158015611630573d6000803e3d6000fd5b505050506040513d601f19601f820116820180604052508101906116549190611f3f565b60600151600160009054906101000a900473ffffffffffffffffffffffffffffffffffffffff1673ffffffffffffffffffffffffffffffffffffffff1662fdd58e33856040518363ffffffff1660e01b81526004016116b49291906122ad565b602060405180830381865afa1580156116d1573d6000803e3d6000fd5b505050506040513d601f19601f820116820180604052508101906116f591906122d6565b6116ff9190612018565b90503373ffffffffffffffffffffffffffffffffffffffff166108fc829081150290604051600060405180830381858888f19350505050158015611747573d6000803e3d6000fd5b50600160009054906101000a900473ffffffffffffffffffffffffffffffffffffffff1673ffffffffffffffffffffffffffffffffffffffff1663773790823384600160009054906101000a900473ffffffffffffffffffffffffffffffffffffffff1673ffffffffffffffffffffffffffffffffffffffff1662fdd58e33886040518363ffffffff1660e01b81526004016117e49291906122ad565b602060405180830381865afa158015611801573d6000803e3d6000fd5b505050506040513d601f19601f8201168201806040525081019061182591906122d6565b6040518463ffffffff1660e01b8152600401611843939291906120c6565b600060405180830381600087803b15801561185d57600080fd5b505af1158015611871573d6000803e3d6000fd5b505050507f951805d264d8848d533c4ccc957476a4271d9adb9c446cc7fb3d5f9808fab1c83383836040516118a8939291906120c6565b60405180910390a1505050565b60036020528060005260406000206000915090505481565b60046020528060005260406000206000915090505481565b600160009054906101000a900473ffffffffffffffffffffffffffffffffffffffff1681565b6000600460003373ffffffffffffffffffffffffffffffffffffffff1673ffffffffffffffffffffffffffffffffffffffff16815260200190815260200160002054905090565b61195a611a17565b600073ffffffffffffffffffffffffffffffffffffffff168173ffffffffffffffffffffffffffffffffffffffff16036119c9576040517f08c379a00000000000000000000000000000000000000000000000000000000081526004016119c090612821565b60405180910390fd5b6119d281611a95565b50565b600081836119e39190612018565b905092915050565b600081836119f99190612870565b905092915050565b60008183611a0f919061236f565b905092915050565b611a1f611b59565b73ffffffffffffffffffffffffffffffffffffffff16611a3d6111c1565b73ffffffffffffffffffffffffffffffffffffffff1614611a93576040517f08c379a0000000000000000000000000000000000000000000000000000000008152600401611a8a906128ed565b60405180910390fd5b565b60008060009054906101000a900473ffffffffffffffffffffffffffffffffffffffff169050816000806101000a81548173ffffffffffffffffffffffffffffffffffffffff021916908373ffffffffffffffffffffffffffffffffffffffff1602179055508173ffffffffffffffffffffffffffffffffffffffff168173ffffffffffffffffffffffffffffffffffffffff167f8be0079c531659141344cd1fd0a4f28419497f9722a3daafe3b4186f6b6457e060405160405180910390a35050565b600033905090565b6000604051905090565b600080fd5b6000819050919050565b611b8381611b70565b8114611b8e57600080fd5b50565b600081359050611ba081611b7a565b92915050565b600060208284031215611bbc57611bbb611b6b565b5b6000611bca84828501611b91565b91505092915050565b611bdc81611b70565b82525050565b6000602082019050611bf76000830184611bd3565b92915050565b60008060408385031215611c1457611c13611b6b565b5b6000611c2285828601611b91565b9250506020611c3385828601611b91565b9150509250929050565b600073ffffffffffffffffffffffffffffffffffffffff82169050919050565b6000611c6882611c3d565b9050919050565b611c7881611c5d565b82525050565b6000602082019050611c936000830184611c6f565b92915050565b611ca281611c5d565b8114611cad57600080fd5b50565b600081359050611cbf81611c99565b92915050565b60008060408385031215611cdc57611cdb611b6b565b5b6000611cea85828601611cb0565b9250506020611cfb85828601611b91565b9150509250929050565b600060208284031215611d1b57611d1a611b6b565b5b6000611d2984828501611cb0565b91505092915050565b6000819050919050565b6000611d57611d52611d4d84611c3d565b611d32565b611c3d565b9050919050565b6000611d6982611d3c565b9050919050565b6000611d7b82611d5e565b9050919050565b611d8b81611d70565b82525050565b6000602082019050611da66000830184611d82565b92915050565b600080fd5b6000601f19601f8301169050919050565b7f4e487b7100000000000000000000000000000000000000000000000000000000600052604160045260246000fd5b611dfa82611db1565b810181811067ffffffffffffffff82111715611e1957611e18611dc2565b5b80604052505050565b6000611e2c611b61565b9050611e388282611df1565b919050565b600081519050611e4c81611c99565b92915050565b600081519050611e6181611b7a565b92915050565b60008115159050919050565b611e7c81611e67565b8114611e8757600080fd5b50565b600081519050611e9981611e73565b92915050565b600060c08284031215611eb557611eb4611dac565b5b611ebf60c0611e22565b90506000611ecf84828501611e3d565b6000830152506020611ee384828501611e52565b6020830152506040611ef784828501611e52565b6040830152506060611f0b84828501611e52565b6060830152506080611f1f84828501611e52565b60808301525060a0611f3384828501611e8a565b60a08301525092915050565b600060c08284031215611f5557611f54611b6b565b5b6000611f6384828501611e9f565b91505092915050565b600082825260208201905092915050565b7f4973207468617420796f75722077616c6c65743f000000000000000000000000600082015250565b6000611fb3601483611f6c565b9150611fbe82611f7d565b602082019050919050565b60006020820190508181036000830152611fe281611fa6565b9050919050565b7f4e487b7100000000000000000000000000000000000000000000000000000000600052601160045260246000fd5b600061202382611b70565b915061202e83611b70565b925082820261203c81611b70565b9150828204841483151761205357612052611fe9565b5b5092915050565b7f46756e64696e672073656363657373203f000000000000000000000000000000600082015250565b6000612090601183611f6c565b915061209b8261205a565b602082019050919050565b600060208201905081810360008301526120bf81612083565b9050919050565b60006060820190506120db6000830186611c6f565b6120e86020830185611bd3565b6120f56040830184611bd3565b949350505050565b7f54696d65204f7665720000000000000000000000000000000000000000000000600082015250565b6000612133600983611f6c565b915061213e826120fd565b602082019050919050565b6000602082019050818103600083015261216281612126565b9050919050565b7f637265617465722063616e277420627579000000000000000000000000000000600082015250565b600061219f601183611f6c565b91506121aa82612169565b602082019050919050565b600060208201905081810360008301526121ce81612192565b9050919050565b7f68617665206e6f206d6f6e65792073656e740000000000000000000000000000600082015250565b600061220b601283611f6c565b9150612216826121d5565b602082019050919050565b6000602082019050818103600083015261223a816121fe565b9050919050565b7f54686520707269636520646f65736e2774206d617463682e0000000000000000600082015250565b6000612277601883611f6c565b915061228282612241565b602082019050919050565b600060208201905081810360008301526122a68161226a565b9050919050565b60006040820190506122c26000830185611c6f565b6122cf6020830184611bd3565b9392505050565b6000602082840312156122ec576122eb611b6b565b5b60006122fa84828501611e52565b91505092915050565b7f63616e277420627579207468696e67732e000000000000000000000000000000600082015250565b6000612339601183611f6c565b915061234482612303565b602082019050919050565b600060208201905081810360008301526123688161232c565b9050919050565b600061237a82611b70565b915061238583611b70565b925082820390508181111561239d5761239c611fe9565b5b92915050565b7f6265206f7574206f662073746f636b20616e6420756e61626c6520746f20627560008201527f7920676f6f647300000000000000000000000000000000000000000000000000602082015250565b60006123ff602783611f6c565b915061240a826123a3565b604082019050919050565b6000602082019050818103600083015261242e816123f2565b9050919050565b600060408201905061244a6000830185611c6f565b6124576020830184611c6f565b9392505050565b60006020828403121561247457612473611b6b565b5b600061248284828501611e8a565b91505092915050565b7f6265206e6f7420617070726f7665640000000000000000000000000000000000600082015250565b60006124c1600f83611f6c565b91506124cc8261248b565b602082019050919050565b600060208201905081810360008301526124f0816124b4565b9050919050565b600061250282611b70565b915061250d83611b70565b925082820190508082111561252557612524611fe9565b5b92915050565b600082825260208201905092915050565b50565b600061254c60008361252b565b91506125578261253c565b600082019050919050565b600060a0820190506125776000830187611c6f565b6125846020830186611c6f565b6125916040830185611bd3565b61259e6060830184611bd3565b81810360808301526125af8161253f565b905095945050505050565b60006080820190506125cf6000830187611c6f565b6125dc6020830186611bd3565b6125e96040830185611bd3565b6125f66060830184611bd3565b95945050505050565b7f546865726520697320616c7265616479206120737562736372697074696f6e2e600082015250565b6000612635602083611f6c565b9150612640826125ff565b602082019050919050565b6000602082019050818103600083015261266481612628565b9050919050565b7f49732069742061206275796572203f0000000000000000000000000000000000600082015250565b60006126a1600f83611f6c565b91506126ac8261266b565b602082019050919050565b600060208201905081810360008301526126d081612694565b9050919050565b7f54696d65204f766572203f000000000000000000000000000000000000000000600082015250565b600061270d600b83611f6c565b9150612718826126d7565b602082019050919050565b6000602082019050818103600083015261273c81612700565b9050919050565b7f46756e64696e67206661696c6564203f00000000000000000000000000000000600082015250565b6000612779601083611f6c565b915061278482612743565b602082019050919050565b600060208201905081810360008301526127a88161276c565b9050919050565b7f4f776e61626c653a206e6577206f776e657220697320746865207a65726f206160008201527f6464726573730000000000000000000000000000000000000000000000000000602082015250565b600061280b602683611f6c565b9150612816826127af565b604082019050919050565b6000602082019050818103600083015261283a816127fe565b9050919050565b7f4e487b7100000000000000000000000000000000000000000000000000000000600052601260045260246000fd5b600061287b82611b70565b915061288683611b70565b92508261289657612895612841565b5b828204905092915050565b7f4f776e61626c653a2063616c6c6572206973206e6f7420746865206f776e6572600082015250565b60006128d7602083611f6c565b91506128e2826128a1565b602082019050919050565b60006020820190508181036000830152612906816128ca565b905091905056fea2646970667358221220a61dc4c751494592a5cef8737e09aecefb031381c3357af0b53414af8dcce86164736f6c63430008110033",
			"opcodes": "PUSH1 0x80 PUSH1 0x40 MSTORE PUSH1 0xA PUSH1 0x2 SSTORE CALLVALUE DUP1 ISZERO PUSH3 0x16 JUMPI PUSH1 0x0 DUP1 REVERT JUMPDEST POP PUSH1 0x40 MLOAD PUSH3 0x2C1E CODESIZE SUB DUP1 PUSH3 0x2C1E DUP4 CODECOPY DUP2 DUP2 ADD PUSH1 0x40 MSTORE DUP2 ADD SWAP1 PUSH3 0x3C SWAP2 SWAP1 PUSH3 0x26B JUMP JUMPDEST PUSH3 0x5C PUSH3 0x50 PUSH3 0x135 PUSH1 0x20 SHL PUSH1 0x20 SHR JUMP JUMPDEST PUSH3 0x13D PUSH1 0x20 SHL PUSH1 0x20 SHR JUMP JUMPDEST DUP1 PUSH1 0x1 PUSH1 0x0 PUSH2 0x100 EXP DUP2 SLOAD DUP2 PUSH20 0xFFFFFFFFFFFFFFFFFFFFFFFFFFFFFFFFFFFFFFFF MUL NOT AND SWAP1 DUP4 PUSH20 0xFFFFFFFFFFFFFFFFFFFFFFFFFFFFFFFFFFFFFFFF AND MUL OR SWAP1 SSTORE POP PUSH1 0x1 PUSH1 0x0 SWAP1 SLOAD SWAP1 PUSH2 0x100 EXP SWAP1 DIV PUSH20 0xFFFFFFFFFFFFFFFFFFFFFFFFFFFFFFFFFFFFFFFF AND PUSH20 0xFFFFFFFFFFFFFFFFFFFFFFFFFFFFFFFFFFFFFFFF AND PUSH4 0xE29BE1A1 ADDRESS PUSH1 0x40 MLOAD DUP3 PUSH4 0xFFFFFFFF AND PUSH1 0xE0 SHL DUP2 MSTORE PUSH1 0x4 ADD PUSH3 0xFA SWAP2 SWAP1 PUSH3 0x2AE JUMP JUMPDEST PUSH1 0x0 PUSH1 0x40 MLOAD DUP1 DUP4 SUB DUP2 PUSH1 0x0 DUP8 DUP1 EXTCODESIZE ISZERO DUP1 ISZERO PUSH3 0x115 JUMPI PUSH1 0x0 DUP1 REVERT JUMPDEST POP GAS CALL ISZERO DUP1 ISZERO PUSH3 0x12A JUMPI RETURNDATASIZE PUSH1 0x0 DUP1 RETURNDATACOPY RETURNDATASIZE PUSH1 0x0 REVERT JUMPDEST POP POP POP POP POP PUSH3 0x2CB JUMP JUMPDEST PUSH1 0x0 CALLER SWAP1 POP SWAP1 JUMP JUMPDEST PUSH1 0x0 DUP1 PUSH1 0x0 SWAP1 SLOAD SWAP1 PUSH2 0x100 EXP SWAP1 DIV PUSH20 0xFFFFFFFFFFFFFFFFFFFFFFFFFFFFFFFFFFFFFFFF AND SWAP1 POP DUP2 PUSH1 0x0 DUP1 PUSH2 0x100 EXP DUP2 SLOAD DUP2 PUSH20 0xFFFFFFFFFFFFFFFFFFFFFFFFFFFFFFFFFFFFFFFF MUL NOT AND SWAP1 DUP4 PUSH20 0xFFFFFFFFFFFFFFFFFFFFFFFFFFFFFFFFFFFFFFFF AND MUL OR SWAP1 SSTORE POP DUP2 PUSH20 0xFFFFFFFFFFFFFFFFFFFFFFFFFFFFFFFFFFFFFFFF AND DUP2 PUSH20 0xFFFFFFFFFFFFFFFFFFFFFFFFFFFFFFFFFFFFFFFF AND PUSH32 0x8BE0079C531659141344CD1FD0A4F28419497F9722A3DAAFE3B4186F6B6457E0 PUSH1 0x40 MLOAD PUSH1 0x40 MLOAD DUP1 SWAP2 SUB SWAP1 LOG3 POP POP JUMP JUMPDEST PUSH1 0x0 DUP1 REVERT JUMPDEST PUSH1 0x0 PUSH20 0xFFFFFFFFFFFFFFFFFFFFFFFFFFFFFFFFFFFFFFFF DUP3 AND SWAP1 POP SWAP2 SWAP1 POP JUMP JUMPDEST PUSH1 0x0 PUSH3 0x233 DUP3 PUSH3 0x206 JUMP JUMPDEST SWAP1 POP SWAP2 SWAP1 POP JUMP JUMPDEST PUSH3 0x245 DUP2 PUSH3 0x226 JUMP JUMPDEST DUP2 EQ PUSH3 0x251 JUMPI PUSH1 0x0 DUP1 REVERT JUMPDEST POP JUMP JUMPDEST PUSH1 0x0 DUP2 MLOAD SWAP1 POP PUSH3 0x265 DUP2 PUSH3 0x23A JUMP JUMPDEST SWAP3 SWAP2 POP POP JUMP JUMPDEST PUSH1 0x0 PUSH1 0x20 DUP3 DUP5 SUB SLT ISZERO PUSH3 0x284 JUMPI PUSH3 0x283 PUSH3 0x201 JUMP JUMPDEST JUMPDEST PUSH1 0x0 PUSH3 0x294 DUP5 DUP3 DUP6 ADD PUSH3 0x254 JUMP JUMPDEST SWAP2 POP POP SWAP3 SWAP2 POP POP JUMP JUMPDEST PUSH3 0x2A8 DUP2 PUSH3 0x226 JUMP JUMPDEST DUP3 MSTORE POP POP JUMP JUMPDEST PUSH1 0x0 PUSH1 0x20 DUP3 ADD SWAP1 POP PUSH3 0x2C5 PUSH1 0x0 DUP4 ADD DUP5 PUSH3 0x29D JUMP JUMPDEST SWAP3 SWAP2 POP POP JUMP JUMPDEST PUSH2 0x2943 DUP1 PUSH3 0x2DB PUSH1 0x0 CODECOPY PUSH1 0x0 RETURN INVALID PUSH1 0x80 PUSH1 0x40 MSTORE PUSH1 0x4 CALLDATASIZE LT PUSH2 0xA7 JUMPI PUSH1 0x0 CALLDATALOAD PUSH1 0xE0 SHR DUP1 PUSH4 0x8E13B063 GT PUSH2 0x64 JUMPI DUP1 PUSH4 0x8E13B063 EQ PUSH2 0x16D JUMPI DUP1 PUSH4 0x9DDCA16A EQ PUSH2 0x189 JUMPI DUP1 PUSH4 0xAF75C382 EQ PUSH2 0x1C6 JUMPI DUP1 PUSH4 0xCC8A416B EQ PUSH2 0x203 JUMPI DUP1 PUSH4 0xEAF85B5C EQ PUSH2 0x22E JUMPI DUP1 PUSH4 0xF2FDE38B EQ PUSH2 0x259 JUMPI PUSH2 0xA7 JUMP JUMPDEST DUP1 PUSH4 0x29C51D2B EQ PUSH2 0xAC JUMPI DUP1 PUSH4 0x49E5465C EQ PUSH2 0xC8 JUMPI DUP1 PUSH4 0x50B9C737 EQ PUSH2 0x105 JUMPI DUP1 PUSH4 0x64BBD1F1 EQ PUSH2 0x121 JUMPI DUP1 PUSH4 0x715018A6 EQ PUSH2 0x12B JUMPI DUP1 PUSH4 0x8DA5CB5B EQ PUSH2 0x142 JUMPI JUMPDEST PUSH1 0x0 DUP1 REVERT JUMPDEST PUSH2 0xC6 PUSH1 0x4 DUP1 CALLDATASIZE SUB DUP2 ADD SWAP1 PUSH2 0xC1 SWAP2 SWAP1 PUSH2 0x1BA6 JUMP JUMPDEST PUSH2 0x282 JUMP JUMPDEST STOP JUMPDEST CALLVALUE DUP1 ISZERO PUSH2 0xD4 JUMPI PUSH1 0x0 DUP1 REVERT JUMPDEST POP PUSH2 0xEF PUSH1 0x4 DUP1 CALLDATASIZE SUB DUP2 ADD SWAP1 PUSH2 0xEA SWAP2 SWAP1 PUSH2 0x1BA6 JUMP JUMPDEST PUSH2 0x736 JUMP JUMPDEST PUSH1 0x40 MLOAD PUSH2 0xFC SWAP2 SWAP1 PUSH2 0x1BE2 JUMP JUMPDEST PUSH1 0x40 MLOAD DUP1 SWAP2 SUB SWAP1 RETURN JUMPDEST PUSH2 0x11F PUSH1 0x4 DUP1 CALLDATASIZE SUB DUP2 ADD SWAP1 PUSH2 0x11A SWAP2 SWAP1 PUSH2 0x1BFD JUMP JUMPDEST PUSH2 0x753 JUMP JUMPDEST STOP JUMPDEST PUSH2 0x129 PUSH2 0xF89 JUMP JUMPDEST STOP JUMPDEST CALLVALUE DUP1 ISZERO PUSH2 0x137 JUMPI PUSH1 0x0 DUP1 REVERT JUMPDEST POP PUSH2 0x140 PUSH2 0x11AD JUMP JUMPDEST STOP JUMPDEST CALLVALUE DUP1 ISZERO PUSH2 0x14E JUMPI PUSH1 0x0 DUP1 REVERT JUMPDEST POP PUSH2 0x157 PUSH2 0x11C1 JUMP JUMPDEST PUSH1 0x40 MLOAD PUSH2 0x164 SWAP2 SWAP1 PUSH2 0x1C7E JUMP JUMPDEST PUSH1 0x40 MLOAD DUP1 SWAP2 SUB SWAP1 RETURN JUMPDEST PUSH2 0x187 PUSH1 0x4 DUP1 CALLDATASIZE SUB DUP2 ADD SWAP1 PUSH2 0x182 SWAP2 SWAP1 PUSH2 0x1CC5 JUMP JUMPDEST PUSH2 0x11EA JUMP JUMPDEST STOP JUMPDEST CALLVALUE DUP1 ISZERO PUSH2 0x195 JUMPI PUSH1 0x0 DUP1 REVERT JUMPDEST POP PUSH2 0x1B0 PUSH1 0x4 DUP1 CALLDATASIZE SUB DUP2 ADD SWAP1 PUSH2 0x1AB SWAP2 SWAP1 PUSH2 0x1BA6 JUMP JUMPDEST PUSH2 0x18B5 JUMP JUMPDEST PUSH1 0x40 MLOAD PUSH2 0x1BD SWAP2 SWAP1 PUSH2 0x1BE2 JUMP JUMPDEST PUSH1 0x40 MLOAD DUP1 SWAP2 SUB SWAP1 RETURN JUMPDEST CALLVALUE DUP1 ISZERO PUSH2 0x1D2 JUMPI PUSH1 0x0 DUP1 REVERT JUMPDEST POP PUSH2 0x1ED PUSH1 0x4 DUP1 CALLDATASIZE SUB DUP2 ADD SWAP1 PUSH2 0x1E8 SWAP2 SWAP1 PUSH2 0x1D05 JUMP JUMPDEST PUSH2 0x18CD JUMP JUMPDEST PUSH1 0x40 MLOAD PUSH2 0x1FA SWAP2 SWAP1 PUSH2 0x1BE2 JUMP JUMPDEST PUSH1 0x40 MLOAD DUP1 SWAP2 SUB SWAP1 RETURN JUMPDEST CALLVALUE DUP1 ISZERO PUSH2 0x20F JUMPI PUSH1 0x0 DUP1 REVERT JUMPDEST POP PUSH2 0x218 PUSH2 0x18E5 JUMP JUMPDEST PUSH1 0x40 MLOAD PUSH2 0x225 SWAP2 SWAP1 PUSH2 0x1D91 JUMP JUMPDEST PUSH1 0x40 MLOAD DUP1 SWAP2 SUB SWAP1 RETURN JUMPDEST CALLVALUE DUP1 ISZERO PUSH2 0x23A JUMPI PUSH1 0x0 DUP1 REVERT JUMPDEST POP PUSH2 0x243 PUSH2 0x190B JUMP JUMPDEST PUSH1 0x40 MLOAD PUSH2 0x250 SWAP2 SWAP1 PUSH2 0x1BE2 JUMP JUMPDEST PUSH1 0x40 MLOAD DUP1 SWAP2 SUB SWAP1 RETURN JUMPDEST CALLVALUE DUP1 ISZERO PUSH2 0x265 JUMPI PUSH1 0x0 DUP1 REVERT JUMPDEST POP PUSH2 0x280 PUSH1 0x4 DUP1 CALLDATASIZE SUB DUP2 ADD SWAP1 PUSH2 0x27B SWAP2 SWAP1 PUSH2 0x1D05 JUMP JUMPDEST PUSH2 0x1952 JUMP JUMPDEST STOP JUMPDEST PUSH1 0x1 PUSH1 0x0 SWAP1 SLOAD SWAP1 PUSH2 0x100 EXP SWAP1 DIV PUSH20 0xFFFFFFFFFFFFFFFFFFFFFFFFFFFFFFFFFFFFFFFF AND PUSH20 0xFFFFFFFFFFFFFFFFFFFFFFFFFFFFFFFFFFFFFFFF AND PUSH4 0x8D63193D DUP3 PUSH1 0x40 MLOAD DUP3 PUSH4 0xFFFFFFFF AND PUSH1 0xE0 SHL DUP2 MSTORE PUSH1 0x4 ADD PUSH2 0x2DD SWAP2 SWAP1 PUSH2 0x1BE2 JUMP JUMPDEST PUSH1 0xC0 PUSH1 0x40 MLOAD DUP1 DUP4 SUB DUP2 DUP7 GAS STATICCALL ISZERO DUP1 ISZERO PUSH2 0x2FA JUMPI RETURNDATASIZE PUSH1 0x0 DUP1 RETURNDATACOPY RETURNDATASIZE PUSH1 0x0 REVERT JUMPDEST POP POP POP POP PUSH1 0x40 MLOAD RETURNDATASIZE PUSH1 0x1F NOT PUSH1 0x1F DUP3 ADD AND DUP3 ADD DUP1 PUSH1 0x40 MSTORE POP DUP2 ADD SWAP1 PUSH2 0x31E SWAP2 SWAP1 PUSH2 0x1F3F JUMP JUMPDEST PUSH1 0x0 ADD MLOAD PUSH20 0xFFFFFFFFFFFFFFFFFFFFFFFFFFFFFFFFFFFFFFFF AND CALLER PUSH20 0xFFFFFFFFFFFFFFFFFFFFFFFFFFFFFFFFFFFFFFFF AND EQ PUSH2 0x38F JUMPI PUSH1 0x40 MLOAD PUSH32 0x8C379A000000000000000000000000000000000000000000000000000000000 DUP2 MSTORE PUSH1 0x4 ADD PUSH2 0x386 SWAP1 PUSH2 0x1FC9 JUMP JUMPDEST PUSH1 0x40 MLOAD DUP1 SWAP2 SUB SWAP1 REVERT JUMPDEST PUSH1 0x3 PUSH1 0x0 DUP3 DUP2 MSTORE PUSH1 0x20 ADD SWAP1 DUP2 MSTORE PUSH1 0x20 ADD PUSH1 0x0 KECCAK256 SLOAD PUSH1 0x1 PUSH1 0x0 SWAP1 SLOAD SWAP1 PUSH2 0x100 EXP SWAP1 DIV PUSH20 0xFFFFFFFFFFFFFFFFFFFFFFFFFFFFFFFFFFFFFFFF AND PUSH20 0xFFFFFFFFFFFFFFFFFFFFFFFFFFFFFFFFFFFFFFFF AND PUSH4 0x8D63193D DUP4 PUSH1 0x40 MLOAD DUP3 PUSH4 0xFFFFFFFF AND PUSH1 0xE0 SHL DUP2 MSTORE PUSH1 0x4 ADD PUSH2 0x3FE SWAP2 SWAP1 PUSH2 0x1BE2 JUMP JUMPDEST PUSH1 0xC0 PUSH1 0x40 MLOAD DUP1 DUP4 SUB DUP2 DUP7 GAS STATICCALL ISZERO DUP1 ISZERO PUSH2 0x41B JUMPI RETURNDATASIZE PUSH1 0x0 DUP1 RETURNDATACOPY RETURNDATASIZE PUSH1 0x0 REVERT JUMPDEST POP POP POP POP PUSH1 0x40 MLOAD RETURNDATASIZE PUSH1 0x1F NOT PUSH1 0x1F DUP3 ADD AND DUP3 ADD DUP1 PUSH1 0x40 MSTORE POP DUP2 ADD SWAP1 PUSH2 0x43F SWAP2 SWAP1 PUSH2 0x1F3F JUMP JUMPDEST PUSH1 0x60 ADD MLOAD PUSH2 0x44D SWAP2 SWAP1 PUSH2 0x2018 JUMP JUMPDEST PUSH1 0x1 PUSH1 0x0 SWAP1 SLOAD SWAP1 PUSH2 0x100 EXP SWAP1 DIV PUSH20 0xFFFFFFFFFFFFFFFFFFFFFFFFFFFFFFFFFFFFFFFF AND PUSH20 0xFFFFFFFFFFFFFFFFFFFFFFFFFFFFFFFFFFFFFFFF AND PUSH4 0x8D63193D DUP4 PUSH1 0x40 MLOAD DUP3 PUSH4 0xFFFFFFFF AND PUSH1 0xE0 SHL DUP2 MSTORE PUSH1 0x4 ADD PUSH2 0x4A8 SWAP2 SWAP1 PUSH2 0x1BE2 JUMP JUMPDEST PUSH1 0xC0 PUSH1 0x40 MLOAD DUP1 DUP4 SUB DUP2 DUP7 GAS STATICCALL ISZERO DUP1 ISZERO PUSH2 0x4C5 JUMPI RETURNDATASIZE PUSH1 0x0 DUP1 RETURNDATACOPY RETURNDATASIZE PUSH1 0x0 REVERT JUMPDEST POP POP POP POP PUSH1 0x40 MLOAD RETURNDATASIZE PUSH1 0x1F NOT PUSH1 0x1F DUP3 ADD AND DUP3 ADD DUP1 PUSH1 0x40 MSTORE POP DUP2 ADD SWAP1 PUSH2 0x4E9 SWAP2 SWAP1 PUSH2 0x1F3F JUMP JUMPDEST PUSH1 0x40 ADD MLOAD EQ PUSH2 0x52D JUMPI PUSH1 0x40 MLOAD PUSH32 0x8C379A000000000000000000000000000000000000000000000000000000000 DUP2 MSTORE PUSH1 0x4 ADD PUSH2 0x524 SWAP1 PUSH2 0x20A6 JUMP JUMPDEST PUSH1 0x40 MLOAD DUP1 SWAP2 SUB SWAP1 REVERT JUMPDEST PUSH1 0x0 PUSH2 0x5ED PUSH2 0x5E6 PUSH1 0x2 SLOAD PUSH1 0x1 PUSH1 0x0 SWAP1 SLOAD SWAP1 PUSH2 0x100 EXP SWAP1 DIV PUSH20 0xFFFFFFFFFFFFFFFFFFFFFFFFFFFFFFFFFFFFFFFF AND PUSH20 0xFFFFFFFFFFFFFFFFFFFFFFFFFFFFFFFFFFFFFFFF AND PUSH4 0x8D63193D DUP7 PUSH1 0x40 MLOAD DUP3 PUSH4 0xFFFFFFFF AND PUSH1 0xE0 SHL DUP2 MSTORE PUSH1 0x4 ADD PUSH2 0x593 SWAP2 SWAP1 PUSH2 0x1BE2 JUMP JUMPDEST PUSH1 0xC0 PUSH1 0x40 MLOAD DUP1 DUP4 SUB DUP2 DUP7 GAS STATICCALL ISZERO DUP1 ISZERO PUSH2 0x5B0 JUMPI RETURNDATASIZE PUSH1 0x0 DUP1 RETURNDATACOPY RETURNDATASIZE PUSH1 0x0 REVERT JUMPDEST POP POP POP POP PUSH1 0x40 MLOAD RETURNDATASIZE PUSH1 0x1F NOT PUSH1 0x1F DUP3 ADD AND DUP3 ADD DUP1 PUSH1 0x40 MSTORE POP DUP2 ADD SWAP1 PUSH2 0x5D4 SWAP2 SWAP1 PUSH2 0x1F3F JUMP JUMPDEST PUSH1 0x40 ADD MLOAD PUSH2 0x19D5 SWAP1 SWAP2 SWAP1 PUSH4 0xFFFFFFFF AND JUMP JUMPDEST PUSH1 0x64 PUSH2 0x19EB JUMP JUMPDEST SWAP1 POP PUSH1 0x0 PUSH2 0x6AD PUSH2 0x6A6 DUP4 PUSH1 0x1 PUSH1 0x0 SWAP1 SLOAD SWAP1 PUSH2 0x100 EXP SWAP1 DIV PUSH20 0xFFFFFFFFFFFFFFFFFFFFFFFFFFFFFFFFFFFFFFFF AND PUSH20 0xFFFFFFFFFFFFFFFFFFFFFFFFFFFFFFFFFFFFFFFF AND PUSH4 0x8D63193D DUP8 PUSH1 0x40 MLOAD DUP3 PUSH4 0xFFFFFFFF AND PUSH1 0xE0 SHL DUP2 MSTORE PUSH1 0x4 ADD PUSH2 0x653 SWAP2 SWAP1 PUSH2 0x1BE2 JUMP JUMPDEST PUSH1 0xC0 PUSH1 0x40 MLOAD DUP1 DUP4 SUB DUP2 DUP7 GAS STATICCALL ISZERO DUP1 ISZERO PUSH2 0x670 JUMPI RETURNDATASIZE PUSH1 0x0 DUP1 RETURNDATACOPY RETURNDATASIZE PUSH1 0x0 REVERT JUMPDEST POP POP POP POP PUSH1 0x40 MLOAD RETURNDATASIZE PUSH1 0x1F NOT PUSH1 0x1F DUP3 ADD AND DUP3 ADD DUP1 PUSH1 0x40 MSTORE POP DUP2 ADD SWAP1 PUSH2 0x694 SWAP2 SWAP1 PUSH2 0x1F3F JUMP JUMPDEST PUSH1 0x40 ADD MLOAD PUSH2 0x1A01 SWAP1 SWAP2 SWAP1 PUSH4 0xFFFFFFFF AND JUMP JUMPDEST PUSH1 0x2 PUSH2 0x19EB JUMP JUMPDEST SWAP1 POP CALLER PUSH20 0xFFFFFFFFFFFFFFFFFFFFFFFFFFFFFFFFFFFFFFFF AND PUSH2 0x8FC DUP3 SWAP1 DUP2 ISZERO MUL SWAP1 PUSH1 0x40 MLOAD PUSH1 0x0 PUSH1 0x40 MLOAD DUP1 DUP4 SUB DUP2 DUP6 DUP9 DUP9 CALL SWAP4 POP POP POP POP ISZERO DUP1 ISZERO PUSH2 0x6F5 JUMPI RETURNDATASIZE PUSH1 0x0 DUP1 RETURNDATACOPY RETURNDATASIZE PUSH1 0x0 REVERT JUMPDEST POP PUSH32 0x7FFFB0A8155FCFDC6D8E1D3BE816BB80ED703DF69E0C247D54D9FA85EB9C52E2 CALLER DUP5 DUP4 PUSH1 0x40 MLOAD PUSH2 0x729 SWAP4 SWAP3 SWAP2 SWAP1 PUSH2 0x20C6 JUMP JUMPDEST PUSH1 0x40 MLOAD DUP1 SWAP2 SUB SWAP1 LOG1 POP POP POP JUMP JUMPDEST PUSH1 0x0 PUSH1 0x3 PUSH1 0x0 DUP4 DUP2 MSTORE PUSH1 0x20 ADD SWAP1 DUP2 MSTORE PUSH1 0x20 ADD PUSH1 0x0 KECCAK256 SLOAD SWAP1 POP SWAP2 SWAP1 POP JUMP JUMPDEST PUSH1 0x0 PUSH1 0x1 PUSH1 0x0 SWAP1 SLOAD SWAP1 PUSH2 0x100 EXP SWAP1 DIV PUSH20 0xFFFFFFFFFFFFFFFFFFFFFFFFFFFFFFFFFFFFFFFF AND PUSH20 0xFFFFFFFFFFFFFFFFFFFFFFFFFFFFFFFFFFFFFFFF AND PUSH4 0x8D63193D DUP5 PUSH1 0x40 MLOAD DUP3 PUSH4 0xFFFFFFFF AND PUSH1 0xE0 SHL DUP2 MSTORE PUSH1 0x4 ADD PUSH2 0x7B0 SWAP2 SWAP1 PUSH2 0x1BE2 JUMP JUMPDEST PUSH1 0xC0 PUSH1 0x40 MLOAD DUP1 DUP4 SUB DUP2 DUP7 GAS STATICCALL ISZERO DUP1 ISZERO PUSH2 0x7CD JUMPI RETURNDATASIZE PUSH1 0x0 DUP1 RETURNDATACOPY RETURNDATASIZE PUSH1 0x0 REVERT JUMPDEST POP POP POP POP PUSH1 0x40 MLOAD RETURNDATASIZE PUSH1 0x1F NOT PUSH1 0x1F DUP3 ADD AND DUP3 ADD DUP1 PUSH1 0x40 MSTORE POP DUP2 ADD SWAP1 PUSH2 0x7F1 SWAP2 SWAP1 PUSH2 0x1F3F JUMP JUMPDEST PUSH1 0x0 ADD MLOAD SWAP1 POP PUSH1 0x0 DUP3 PUSH1 0x1 PUSH1 0x0 SWAP1 SLOAD SWAP1 PUSH2 0x100 EXP SWAP1 DIV PUSH20 0xFFFFFFFFFFFFFFFFFFFFFFFFFFFFFFFFFFFFFFFF AND PUSH20 0xFFFFFFFFFFFFFFFFFFFFFFFFFFFFFFFFFFFFFFFF AND PUSH4 0x8D63193D DUP7 PUSH1 0x40 MLOAD DUP3 PUSH4 0xFFFFFFFF AND PUSH1 0xE0 SHL DUP2 MSTORE PUSH1 0x4 ADD PUSH2 0x855 SWAP2 SWAP1 PUSH2 0x1BE2 JUMP JUMPDEST PUSH1 0xC0 PUSH1 0x40 MLOAD DUP1 DUP4 SUB DUP2 DUP7 GAS STATICCALL ISZERO DUP1 ISZERO PUSH2 0x872 JUMPI RETURNDATASIZE PUSH1 0x0 DUP1 RETURNDATACOPY RETURNDATASIZE PUSH1 0x0 REVERT JUMPDEST POP POP POP POP PUSH1 0x40 MLOAD RETURNDATASIZE PUSH1 0x1F NOT PUSH1 0x1F DUP3 ADD AND DUP3 ADD DUP1 PUSH1 0x40 MSTORE POP DUP2 ADD SWAP1 PUSH2 0x896 SWAP2 SWAP1 PUSH2 0x1F3F JUMP JUMPDEST PUSH1 0x60 ADD MLOAD PUSH2 0x8A4 SWAP2 SWAP1 PUSH2 0x2018 JUMP JUMPDEST SWAP1 POP TIMESTAMP PUSH1 0x1 PUSH1 0x0 SWAP1 SLOAD SWAP1 PUSH2 0x100 EXP SWAP1 DIV PUSH20 0xFFFFFFFFFFFFFFFFFFFFFFFFFFFFFFFFFFFFFFFF AND PUSH20 0xFFFFFFFFFFFFFFFFFFFFFFFFFFFFFFFFFFFFFFFF AND PUSH4 0x8D63193D DUP7 PUSH1 0x40 MLOAD DUP3 PUSH4 0xFFFFFFFF AND PUSH1 0xE0 SHL DUP2 MSTORE PUSH1 0x4 ADD PUSH2 0x902 SWAP2 SWAP1 PUSH2 0x1BE2 JUMP JUMPDEST PUSH1 0xC0 PUSH1 0x40 MLOAD DUP1 DUP4 SUB DUP2 DUP7 GAS STATICCALL ISZERO DUP1 ISZERO PUSH2 0x91F JUMPI RETURNDATASIZE PUSH1 0x0 DUP1 RETURNDATACOPY RETURNDATASIZE PUSH1 0x0 REVERT JUMPDEST POP POP POP POP PUSH1 0x40 MLOAD RETURNDATASIZE PUSH1 0x1F NOT PUSH1 0x1F DUP3 ADD AND DUP3 ADD DUP1 PUSH1 0x40 MSTORE POP DUP2 ADD SWAP1 PUSH2 0x943 SWAP2 SWAP1 PUSH2 0x1F3F JUMP JUMPDEST PUSH1 0x80 ADD MLOAD GT PUSH2 0x987 JUMPI PUSH1 0x40 MLOAD PUSH32 0x8C379A000000000000000000000000000000000000000000000000000000000 DUP2 MSTORE PUSH1 0x4 ADD PUSH2 0x97E SWAP1 PUSH2 0x2149 JUMP JUMPDEST PUSH1 0x40 MLOAD DUP1 SWAP2 SUB SWAP1 REVERT JUMPDEST DUP2 PUSH20 0xFFFFFFFFFFFFFFFFFFFFFFFFFFFFFFFFFFFFFFFF AND CALLER PUSH20 0xFFFFFFFFFFFFFFFFFFFFFFFFFFFFFFFFFFFFFFFF AND SUB PUSH2 0x9F5 JUMPI PUSH1 0x40 MLOAD PUSH32 0x8C379A000000000000000000000000000000000000000000000000000000000 DUP2 MSTORE PUSH1 0x4 ADD PUSH2 0x9EC SWAP1 PUSH2 0x21B5 JUMP JUMPDEST PUSH1 0x40 MLOAD DUP1 SWAP2 SUB SWAP1 REVERT JUMPDEST PUSH1 0x0 CALLVALUE SUB PUSH2 0xA38 JUMPI PUSH1 0x40 MLOAD PUSH32 0x8C379A000000000000000000000000000000000000000000000000000000000 DUP2 MSTORE PUSH1 0x4 ADD PUSH2 0xA2F SWAP1 PUSH2 0x2221 JUMP JUMPDEST PUSH1 0x40 MLOAD DUP1 SWAP2 SUB SWAP1 REVERT JUMPDEST DUP1 CALLVALUE EQ PUSH2 0xA7A JUMPI PUSH1 0x40 MLOAD PUSH32 0x8C379A000000000000000000000000000000000000000000000000000000000 DUP2 MSTORE PUSH1 0x4 ADD PUSH2 0xA71 SWAP1 PUSH2 0x228D JUMP JUMPDEST PUSH1 0x40 MLOAD DUP1 SWAP2 SUB SWAP1 REVERT JUMPDEST DUP3 PUSH1 0x1 PUSH1 0x0 SWAP1 SLOAD SWAP1 PUSH2 0x100 EXP SWAP1 DIV PUSH20 0xFFFFFFFFFFFFFFFFFFFFFFFFFFFFFFFFFFFFFFFF AND PUSH20 0xFFFFFFFFFFFFFFFFFFFFFFFFFFFFFFFFFFFFFFFF AND PUSH3 0xFDD58E DUP5 DUP8 PUSH1 0x40 MLOAD DUP4 PUSH4 0xFFFFFFFF AND PUSH1 0xE0 SHL DUP2 MSTORE PUSH1 0x4 ADD PUSH2 0xAD7 SWAP3 SWAP2 SWAP1 PUSH2 0x22AD JUMP JUMPDEST PUSH1 0x20 PUSH1 0x40 MLOAD DUP1 DUP4 SUB DUP2 DUP7 GAS STATICCALL ISZERO DUP1 ISZERO PUSH2 0xAF4 JUMPI RETURNDATASIZE PUSH1 0x0 DUP1 RETURNDATACOPY RETURNDATASIZE PUSH1 0x0 REVERT JUMPDEST POP POP POP POP PUSH1 0x40 MLOAD RETURNDATASIZE PUSH1 0x1F NOT PUSH1 0x1F DUP3 ADD AND DUP3 ADD DUP1 PUSH1 0x40 MSTORE POP DUP2 ADD SWAP1 PUSH2 0xB18 SWAP2 SWAP1 PUSH2 0x22D6 JUMP JUMPDEST LT ISZERO PUSH2 0xB59 JUMPI PUSH1 0x40 MLOAD PUSH32 0x8C379A000000000000000000000000000000000000000000000000000000000 DUP2 MSTORE PUSH1 0x4 ADD PUSH2 0xB50 SWAP1 PUSH2 0x234F JUMP JUMPDEST PUSH1 0x40 MLOAD DUP1 SWAP2 SUB SWAP1 REVERT JUMPDEST DUP3 PUSH1 0x3 PUSH1 0x0 DUP7 DUP2 MSTORE PUSH1 0x20 ADD SWAP1 DUP2 MSTORE PUSH1 0x20 ADD PUSH1 0x0 KECCAK256 SLOAD PUSH1 0x1 PUSH1 0x0 SWAP1 SLOAD SWAP1 PUSH2 0x100 EXP SWAP1 DIV PUSH20 0xFFFFFFFFFFFFFFFFFFFFFFFFFFFFFFFFFFFFFFFF AND PUSH20 0xFFFFFFFFFFFFFFFFFFFFFFFFFFFFFFFFFFFFFFFF AND PUSH4 0x8D63193D DUP8 PUSH1 0x40 MLOAD DUP3 PUSH4 0xFFFFFFFF AND PUSH1 0xE0 SHL DUP2 MSTORE PUSH1 0x4 ADD PUSH2 0xBC9 SWAP2 SWAP1 PUSH2 0x1BE2 JUMP JUMPDEST PUSH1 0xC0 PUSH1 0x40 MLOAD DUP1 DUP4 SUB DUP2 DUP7 GAS STATICCALL ISZERO DUP1 ISZERO PUSH2 0xBE6 JUMPI RETURNDATASIZE PUSH1 0x0 DUP1 RETURNDATACOPY RETURNDATASIZE PUSH1 0x0 REVERT JUMPDEST POP POP POP POP PUSH1 0x40 MLOAD RETURNDATASIZE PUSH1 0x1F NOT PUSH1 0x1F DUP3 ADD AND DUP3 ADD DUP1 PUSH1 0x40 MSTORE POP DUP2 ADD SWAP1 PUSH2 0xC0A SWAP2 SWAP1 PUSH2 0x1F3F JUMP JUMPDEST PUSH1 0x20 ADD MLOAD PUSH2 0xC18 SWAP2 SWAP1 PUSH2 0x236F JUMP JUMPDEST LT ISZERO PUSH2 0xC59 JUMPI PUSH1 0x40 MLOAD PUSH32 0x8C379A000000000000000000000000000000000000000000000000000000000 DUP2 MSTORE PUSH1 0x4 ADD PUSH2 0xC50 SWAP1 PUSH2 0x2415 JUMP JUMPDEST PUSH1 0x40 MLOAD DUP1 SWAP2 SUB SWAP1 REVERT JUMPDEST PUSH1 0x1 PUSH1 0x0 SWAP1 SLOAD SWAP1 PUSH2 0x100 EXP SWAP1 DIV PUSH20 0xFFFFFFFFFFFFFFFFFFFFFFFFFFFFFFFFFFFFFFFF AND PUSH20 0xFFFFFFFFFFFFFFFFFFFFFFFFFFFFFFFFFFFFFFFF AND PUSH4 0xE985E9C5 DUP4 ADDRESS PUSH1 0x40 MLOAD DUP4 PUSH4 0xFFFFFFFF AND PUSH1 0xE0 SHL DUP2 MSTORE PUSH1 0x4 ADD PUSH2 0xCB6 SWAP3 SWAP2 SWAP1 PUSH2 0x2435 JUMP JUMPDEST PUSH1 0x20 PUSH1 0x40 MLOAD DUP1 DUP4 SUB DUP2 DUP7 GAS STATICCALL ISZERO DUP1 ISZERO PUSH2 0xCD3 JUMPI RETURNDATASIZE PUSH1 0x0 DUP1 RETURNDATACOPY RETURNDATASIZE PUSH1 0x0 REVERT JUMPDEST POP POP POP POP PUSH1 0x40 MLOAD RETURNDATASIZE PUSH1 0x1F NOT PUSH1 0x1F DUP3 ADD AND DUP3 ADD DUP1 PUSH1 0x40 MSTORE POP DUP2 ADD SWAP1 PUSH2 0xCF7 SWAP2 SWAP1 PUSH2 0x245E JUMP JUMPDEST PUSH2 0xD36 JUMPI PUSH1 0x40 MLOAD PUSH32 0x8C379A000000000000000000000000000000000000000000000000000000000 DUP2 MSTORE PUSH1 0x4 ADD PUSH2 0xD2D SWAP1 PUSH2 0x24D7 JUMP JUMPDEST PUSH1 0x40 MLOAD DUP1 SWAP2 SUB SWAP1 REVERT JUMPDEST DUP3 PUSH1 0x3 PUSH1 0x0 DUP7 DUP2 MSTORE PUSH1 0x20 ADD SWAP1 DUP2 MSTORE PUSH1 0x20 ADD PUSH1 0x0 KECCAK256 SLOAD PUSH2 0xD55 SWAP2 SWAP1 PUSH2 0x24F7 JUMP JUMPDEST PUSH1 0x3 PUSH1 0x0 DUP7 DUP2 MSTORE PUSH1 0x20 ADD SWAP1 DUP2 MSTORE PUSH1 0x20 ADD PUSH1 0x0 KECCAK256 DUP2 SWAP1 SSTORE POP PUSH1 0x1 PUSH1 0x0 SWAP1 SLOAD SWAP1 PUSH2 0x100 EXP SWAP1 DIV PUSH20 0xFFFFFFFFFFFFFFFFFFFFFFFFFFFFFFFFFFFFFFFF AND PUSH20 0xFFFFFFFFFFFFFFFFFFFFFFFFFFFFFFFFFFFFFFFF AND PUSH4 0xF242432A DUP4 CALLER DUP8 DUP8 PUSH1 0x40 MLOAD DUP6 PUSH4 0xFFFFFFFF AND PUSH1 0xE0 SHL DUP2 MSTORE PUSH1 0x4 ADD PUSH2 0xDCD SWAP5 SWAP4 SWAP3 SWAP2 SWAP1 PUSH2 0x2562 JUMP JUMPDEST PUSH1 0x0 PUSH1 0x40 MLOAD DUP1 DUP4 SUB DUP2 PUSH1 0x0 DUP8 DUP1 EXTCODESIZE ISZERO DUP1 ISZERO PUSH2 0xDE7 JUMPI PUSH1 0x0 DUP1 REVERT JUMPDEST POP GAS CALL ISZERO DUP1 ISZERO PUSH2 0xDFB JUMPI RETURNDATASIZE PUSH1 0x0 DUP1 RETURNDATACOPY RETURNDATASIZE PUSH1 0x0 REVERT JUMPDEST POP POP POP POP PUSH32 0xC27EC451630F6E9734830D857EDAA8A7EC58F1A497A5D7F15FAD6D0C2828D12E CALLER DUP6 DUP6 DUP5 PUSH1 0x40 MLOAD PUSH2 0xE34 SWAP5 SWAP4 SWAP3 SWAP2 SWAP1 PUSH2 0x25BA JUMP JUMPDEST PUSH1 0x40 MLOAD DUP1 SWAP2 SUB SWAP1 LOG1 PUSH1 0x1 PUSH1 0x0 SWAP1 SLOAD SWAP1 PUSH2 0x100 EXP SWAP1 DIV PUSH20 0xFFFFFFFFFFFFFFFFFFFFFFFFFFFFFFFFFFFFFFFF AND PUSH20 0xFFFFFFFFFFFFFFFFFFFFFFFFFFFFFFFFFFFFFFFF AND PUSH4 0x8D63193D DUP6 PUSH1 0x40 MLOAD DUP3 PUSH4 0xFFFFFFFF AND PUSH1 0xE0 SHL DUP2 MSTORE PUSH1 0x4 ADD PUSH2 0xE97 SWAP2 SWAP1 PUSH2 0x1BE2 JUMP JUMPDEST PUSH1 0xC0 PUSH1 0x40 MLOAD DUP1 DUP4 SUB DUP2 DUP7 GAS STATICCALL ISZERO DUP1 ISZERO PUSH2 0xEB4 JUMPI RETURNDATASIZE PUSH1 0x0 DUP1 RETURNDATACOPY RETURNDATASIZE PUSH1 0x0 REVERT JUMPDEST POP POP POP POP PUSH1 0x40 MLOAD RETURNDATASIZE PUSH1 0x1F NOT PUSH1 0x1F DUP3 ADD AND DUP3 ADD DUP1 PUSH1 0x40 MSTORE POP DUP2 ADD SWAP1 PUSH2 0xED8 SWAP2 SWAP1 PUSH2 0x1F3F JUMP JUMPDEST PUSH1 0x20 ADD MLOAD PUSH1 0x3 PUSH1 0x0 DUP7 DUP2 MSTORE PUSH1 0x20 ADD SWAP1 DUP2 MSTORE PUSH1 0x20 ADD PUSH1 0x0 KECCAK256 SLOAD SUB PUSH2 0xF83 JUMPI PUSH1 0x1 PUSH1 0x0 SWAP1 SLOAD SWAP1 PUSH2 0x100 EXP SWAP1 DIV PUSH20 0xFFFFFFFFFFFFFFFFFFFFFFFFFFFFFFFFFFFFFFFF AND PUSH20 0xFFFFFFFFFFFFFFFFFFFFFFFFFFFFFFFFFFFFFFFF AND PUSH4 0xC31F4B58 DUP6 PUSH1 0x40 MLOAD DUP3 PUSH4 0xFFFFFFFF AND PUSH1 0xE0 SHL DUP2 MSTORE PUSH1 0x4 ADD PUSH2 0xF50 SWAP2 SWAP1 PUSH2 0x1BE2 JUMP JUMPDEST PUSH1 0x0 PUSH1 0x40 MLOAD DUP1 DUP4 SUB DUP2 PUSH1 0x0 DUP8 DUP1 EXTCODESIZE ISZERO DUP1 ISZERO PUSH2 0xF6A JUMPI PUSH1 0x0 DUP1 REVERT JUMPDEST POP GAS CALL ISZERO DUP1 ISZERO PUSH2 0xF7E JUMPI RETURNDATASIZE PUSH1 0x0 DUP1 RETURNDATACOPY RETURNDATASIZE PUSH1 0x0 REVERT JUMPDEST POP POP POP POP JUMPDEST POP POP POP POP JUMP JUMPDEST TIMESTAMP PUSH1 0x4 PUSH1 0x0 CALLER PUSH20 0xFFFFFFFFFFFFFFFFFFFFFFFFFFFFFFFFFFFFFFFF AND PUSH20 0xFFFFFFFFFFFFFFFFFFFFFFFFFFFFFFFFFFFFFFFF AND DUP2 MSTORE PUSH1 0x20 ADD SWAP1 DUP2 MSTORE PUSH1 0x20 ADD PUSH1 0x0 KECCAK256 SLOAD LT PUSH2 0x100A JUMPI PUSH1 0x40 MLOAD PUSH32 0x8C379A000000000000000000000000000000000000000000000000000000000 DUP2 MSTORE PUSH1 0x4 ADD PUSH2 0x1001 SWAP1 PUSH2 0x264B JUMP JUMPDEST PUSH1 0x40 MLOAD DUP1 SWAP2 SUB SWAP1 REVERT JUMPDEST PUSH8 0x6F05B59D3B20000 CALLVALUE EQ DUP1 PUSH2 0x1027 JUMPI POP PUSH8 0xDE0B6B3A7640000 CALLVALUE EQ JUMPDEST DUP1 PUSH2 0x1039 JUMPI POP PUSH8 0x1BC16D674EC80000 CALLVALUE EQ JUMPDEST PUSH2 0x1042 JUMPI PUSH1 0x0 DUP1 REVERT JUMPDEST PUSH8 0x6F05B59D3B20000 CALLVALUE SUB PUSH2 0x10A8 JUMPI PUSH3 0x278D00 TIMESTAMP PUSH2 0x1060 SWAP2 SWAP1 PUSH2 0x24F7 JUMP JUMPDEST PUSH1 0x4 PUSH1 0x0 CALLER PUSH20 0xFFFFFFFFFFFFFFFFFFFFFFFFFFFFFFFFFFFFFFFF AND PUSH20 0xFFFFFFFFFFFFFFFFFFFFFFFFFFFFFFFFFFFFFFFF AND DUP2 MSTORE PUSH1 0x20 ADD SWAP1 DUP2 MSTORE PUSH1 0x20 ADD PUSH1 0x0 KECCAK256 DUP2 SWAP1 SSTORE POP PUSH2 0x1172 JUMP JUMPDEST PUSH8 0xDE0B6B3A7640000 CALLVALUE SUB PUSH2 0x110E JUMPI PUSH3 0x76A700 TIMESTAMP PUSH2 0x10C6 SWAP2 SWAP1 PUSH2 0x24F7 JUMP JUMPDEST PUSH1 0x4 PUSH1 0x0 CALLER PUSH20 0xFFFFFFFFFFFFFFFFFFFFFFFFFFFFFFFFFFFFFFFF AND PUSH20 0xFFFFFFFFFFFFFFFFFFFFFFFFFFFFFFFFFFFFFFFF AND DUP2 MSTORE PUSH1 0x20 ADD SWAP1 DUP2 MSTORE PUSH1 0x20 ADD PUSH1 0x0 KECCAK256 DUP2 SWAP1 SSTORE POP PUSH2 0x1171 JUMP JUMPDEST PUSH8 0x1BC16D674EC80000 CALLVALUE SUB PUSH2 0x1170 JUMPI PUSH3 0xED4E00 TIMESTAMP PUSH2 0x112C SWAP2 SWAP1 PUSH2 0x24F7 JUMP JUMPDEST PUSH1 0x4 PUSH1 0x0 CALLER PUSH20 0xFFFFFFFFFFFFFFFFFFFFFFFFFFFFFFFFFFFFFFFF AND PUSH20 0xFFFFFFFFFFFFFFFFFFFFFFFFFFFFFFFFFFFFFFFF AND DUP2 MSTORE PUSH1 0x20 ADD SWAP1 DUP2 MSTORE PUSH1 0x20 ADD PUSH1 0x0 KECCAK256 DUP2 SWAP1 SSTORE POP JUMPDEST JUMPDEST JUMPDEST PUSH32 0x1DDA25A2ED0441A546199A85560617835BB47CAE2094881F568E27468604E0E1 CALLER CALLVALUE PUSH1 0x40 MLOAD PUSH2 0x11A3 SWAP3 SWAP2 SWAP1 PUSH2 0x22AD JUMP JUMPDEST PUSH1 0x40 MLOAD DUP1 SWAP2 SUB SWAP1 LOG1 JUMP JUMPDEST PUSH2 0x11B5 PUSH2 0x1A17 JUMP JUMPDEST PUSH2 0x11BF PUSH1 0x0 PUSH2 0x1A95 JUMP JUMPDEST JUMP JUMPDEST PUSH1 0x0 DUP1 PUSH1 0x0 SWAP1 SLOAD SWAP1 PUSH2 0x100 EXP SWAP1 DIV PUSH20 0xFFFFFFFFFFFFFFFFFFFFFFFFFFFFFFFFFFFFFFFF AND SWAP1 POP SWAP1 JUMP JUMPDEST DUP2 PUSH20 0xFFFFFFFFFFFFFFFFFFFFFFFFFFFFFFFFFFFFFFFF AND CALLER PUSH20 0xFFFFFFFFFFFFFFFFFFFFFFFFFFFFFFFFFFFFFFFF AND EQ PUSH2 0x1258 JUMPI PUSH1 0x40 MLOAD PUSH32 0x8C379A000000000000000000000000000000000000000000000000000000000 DUP2 MSTORE PUSH1 0x4 ADD PUSH2 0x124F SWAP1 PUSH2 0x1FC9 JUMP JUMPDEST PUSH1 0x40 MLOAD DUP1 SWAP2 SUB SWAP1 REVERT JUMPDEST PUSH1 0x0 PUSH1 0x1 PUSH1 0x0 SWAP1 SLOAD SWAP1 PUSH2 0x100 EXP SWAP1 DIV PUSH20 0xFFFFFFFFFFFFFFFFFFFFFFFFFFFFFFFFFFFFFFFF AND PUSH20 0xFFFFFFFFFFFFFFFFFFFFFFFFFFFFFFFFFFFFFFFF AND PUSH3 0xFDD58E CALLER DUP5 PUSH1 0x40 MLOAD DUP4 PUSH4 0xFFFFFFFF AND PUSH1 0xE0 SHL DUP2 MSTORE PUSH1 0x4 ADD PUSH2 0x12B6 SWAP3 SWAP2 SWAP1 PUSH2 0x22AD JUMP JUMPDEST PUSH1 0x20 PUSH1 0x40 MLOAD DUP1 DUP4 SUB DUP2 DUP7 GAS STATICCALL ISZERO DUP1 ISZERO PUSH2 0x12D3 JUMPI RETURNDATASIZE PUSH1 0x0 DUP1 RETURNDATACOPY RETURNDATASIZE PUSH1 0x0 REVERT JUMPDEST POP POP POP POP PUSH1 0x40 MLOAD RETURNDATASIZE PUSH1 0x1F NOT PUSH1 0x1F DUP3 ADD AND DUP3 ADD DUP1 PUSH1 0x40 MSTORE POP DUP2 ADD SWAP1 PUSH2 0x12F7 SWAP2 SWAP1 PUSH2 0x22D6 JUMP JUMPDEST GT PUSH2 0x1337 JUMPI PUSH1 0x40 MLOAD PUSH32 0x8C379A000000000000000000000000000000000000000000000000000000000 DUP2 MSTORE PUSH1 0x4 ADD PUSH2 0x132E SWAP1 PUSH2 0x26B7 JUMP JUMPDEST PUSH1 0x40 MLOAD DUP1 SWAP2 SUB SWAP1 REVERT JUMPDEST TIMESTAMP PUSH1 0x1 PUSH1 0x0 SWAP1 SLOAD SWAP1 PUSH2 0x100 EXP SWAP1 DIV PUSH20 0xFFFFFFFFFFFFFFFFFFFFFFFFFFFFFFFFFFFFFFFF AND PUSH20 0xFFFFFFFFFFFFFFFFFFFFFFFFFFFFFFFFFFFFFFFF AND PUSH4 0x8D63193D DUP4 PUSH1 0x40 MLOAD DUP3 PUSH4 0xFFFFFFFF AND PUSH1 0xE0 SHL DUP2 MSTORE PUSH1 0x4 ADD PUSH2 0x1393 SWAP2 SWAP1 PUSH2 0x1BE2 JUMP JUMPDEST PUSH1 0xC0 PUSH1 0x40 MLOAD DUP1 DUP4 SUB DUP2 DUP7 GAS STATICCALL ISZERO DUP1 ISZERO PUSH2 0x13B0 JUMPI RETURNDATASIZE PUSH1 0x0 DUP1 RETURNDATACOPY RETURNDATASIZE PUSH1 0x0 REVERT JUMPDEST POP POP POP POP PUSH1 0x40 MLOAD RETURNDATASIZE PUSH1 0x1F NOT PUSH1 0x1F DUP3 ADD AND DUP3 ADD DUP1 PUSH1 0x40 MSTORE POP DUP2 ADD SWAP1 PUSH2 0x13D4 SWAP2 SWAP1 PUSH2 0x1F3F JUMP JUMPDEST PUSH1 0x80 ADD MLOAD LT PUSH2 0x1418 JUMPI PUSH1 0x40 MLOAD PUSH32 0x8C379A000000000000000000000000000000000000000000000000000000000 DUP2 MSTORE PUSH1 0x4 ADD PUSH2 0x140F SWAP1 PUSH2 0x2723 JUMP JUMPDEST PUSH1 0x40 MLOAD DUP1 SWAP2 SUB SWAP1 REVERT JUMPDEST PUSH1 0x3 PUSH1 0x0 DUP3 DUP2 MSTORE PUSH1 0x20 ADD SWAP1 DUP2 MSTORE PUSH1 0x20 ADD PUSH1 0x0 KECCAK256 SLOAD PUSH1 0x1 PUSH1 0x0 SWAP1 SLOAD SWAP1 PUSH2 0x100 EXP SWAP1 DIV PUSH20 0xFFFFFFFFFFFFFFFFFFFFFFFFFFFFFFFFFFFFFFFF AND PUSH20 0xFFFFFFFFFFFFFFFFFFFFFFFFFFFFFFFFFFFFFFFF AND PUSH4 0x8D63193D DUP4 PUSH1 0x40 MLOAD DUP3 PUSH4 0xFFFFFFFF AND PUSH1 0xE0 SHL DUP2 MSTORE PUSH1 0x4 ADD PUSH2 0x1487 SWAP2 SWAP1 PUSH2 0x1BE2 JUMP JUMPDEST PUSH1 0xC0 PUSH1 0x40 MLOAD DUP1 DUP4 SUB DUP2 DUP7 GAS STATICCALL ISZERO DUP1 ISZERO PUSH2 0x14A4 JUMPI RETURNDATASIZE PUSH1 0x0 DUP1 RETURNDATACOPY RETURNDATASIZE PUSH1 0x0 REVERT JUMPDEST POP POP POP POP PUSH1 0x40 MLOAD RETURNDATASIZE PUSH1 0x1F NOT PUSH1 0x1F DUP3 ADD AND DUP3 ADD DUP1 PUSH1 0x40 MSTORE POP DUP2 ADD SWAP1 PUSH2 0x14C8 SWAP2 SWAP1 PUSH2 0x1F3F JUMP JUMPDEST PUSH1 0x60 ADD MLOAD PUSH2 0x14D6 SWAP2 SWAP1 PUSH2 0x2018 JUMP JUMPDEST PUSH1 0x1 PUSH1 0x0 SWAP1 SLOAD SWAP1 PUSH2 0x100 EXP SWAP1 DIV PUSH20 0xFFFFFFFFFFFFFFFFFFFFFFFFFFFFFFFFFFFFFFFF AND PUSH20 0xFFFFFFFFFFFFFFFFFFFFFFFFFFFFFFFFFFFFFFFF AND PUSH4 0x8D63193D DUP4 PUSH1 0x40 MLOAD DUP3 PUSH4 0xFFFFFFFF AND PUSH1 0xE0 SHL DUP2 MSTORE PUSH1 0x4 ADD PUSH2 0x1531 SWAP2 SWAP1 PUSH2 0x1BE2 JUMP JUMPDEST PUSH1 0xC0 PUSH1 0x40 MLOAD DUP1 DUP4 SUB DUP2 DUP7 GAS STATICCALL ISZERO DUP1 ISZERO PUSH2 0x154E JUMPI RETURNDATASIZE PUSH1 0x0 DUP1 RETURNDATACOPY RETURNDATASIZE PUSH1 0x0 REVERT JUMPDEST POP POP POP POP PUSH1 0x40 MLOAD RETURNDATASIZE PUSH1 0x1F NOT PUSH1 0x1F DUP3 ADD AND DUP3 ADD DUP1 PUSH1 0x40 MSTORE POP DUP2 ADD SWAP1 PUSH2 0x1572 SWAP2 SWAP1 PUSH2 0x1F3F JUMP JUMPDEST PUSH1 0x40 ADD MLOAD GT PUSH2 0x15B6 JUMPI PUSH1 0x40 MLOAD PUSH32 0x8C379A000000000000000000000000000000000000000000000000000000000 DUP2 MSTORE PUSH1 0x4 ADD PUSH2 0x15AD SWAP1 PUSH2 0x278F JUMP JUMPDEST PUSH1 0x40 MLOAD DUP1 SWAP2 SUB SWAP1 REVERT JUMPDEST PUSH1 0x0 PUSH1 0x1 PUSH1 0x0 SWAP1 SLOAD SWAP1 PUSH2 0x100 EXP SWAP1 DIV PUSH20 0xFFFFFFFFFFFFFFFFFFFFFFFFFFFFFFFFFFFFFFFF AND PUSH20 0xFFFFFFFFFFFFFFFFFFFFFFFFFFFFFFFFFFFFFFFF AND PUSH4 0x8D63193D DUP4 PUSH1 0x40 MLOAD DUP3 PUSH4 0xFFFFFFFF AND PUSH1 0xE0 SHL DUP2 MSTORE PUSH1 0x4 ADD PUSH2 0x1613 SWAP2 SWAP1 PUSH2 0x1BE2 JUMP JUMPDEST PUSH1 0xC0 PUSH1 0x40 MLOAD DUP1 DUP4 SUB DUP2 DUP7 GAS STATICCALL ISZERO DUP1 ISZERO PUSH2 0x1630 JUMPI RETURNDATASIZE PUSH1 0x0 DUP1 RETURNDATACOPY RETURNDATASIZE PUSH1 0x0 REVERT JUMPDEST POP POP POP POP PUSH1 0x40 MLOAD RETURNDATASIZE PUSH1 0x1F NOT PUSH1 0x1F DUP3 ADD AND DUP3 ADD DUP1 PUSH1 0x40 MSTORE POP DUP2 ADD SWAP1 PUSH2 0x1654 SWAP2 SWAP1 PUSH2 0x1F3F JUMP JUMPDEST PUSH1 0x60 ADD MLOAD PUSH1 0x1 PUSH1 0x0 SWAP1 SLOAD SWAP1 PUSH2 0x100 EXP SWAP1 DIV PUSH20 0xFFFFFFFFFFFFFFFFFFFFFFFFFFFFFFFFFFFFFFFF AND PUSH20 0xFFFFFFFFFFFFFFFFFFFFFFFFFFFFFFFFFFFFFFFF AND PUSH3 0xFDD58E CALLER DUP6 PUSH1 0x40 MLOAD DUP4 PUSH4 0xFFFFFFFF AND PUSH1 0xE0 SHL DUP2 MSTORE PUSH1 0x4 ADD PUSH2 0x16B4 SWAP3 SWAP2 SWAP1 PUSH2 0x22AD JUMP JUMPDEST PUSH1 0x20 PUSH1 0x40 MLOAD DUP1 DUP4 SUB DUP2 DUP7 GAS STATICCALL ISZERO DUP1 ISZERO PUSH2 0x16D1 JUMPI RETURNDATASIZE PUSH1 0x0 DUP1 RETURNDATACOPY RETURNDATASIZE PUSH1 0x0 REVERT JUMPDEST POP POP POP POP PUSH1 0x40 MLOAD RETURNDATASIZE PUSH1 0x1F NOT PUSH1 0x1F DUP3 ADD AND DUP3 ADD DUP1 PUSH1 0x40 MSTORE POP DUP2 ADD SWAP1 PUSH2 0x16F5 SWAP2 SWAP1 PUSH2 0x22D6 JUMP JUMPDEST PUSH2 0x16FF SWAP2 SWAP1 PUSH2 0x2018 JUMP JUMPDEST SWAP1 POP CALLER PUSH20 0xFFFFFFFFFFFFFFFFFFFFFFFFFFFFFFFFFFFFFFFF AND PUSH2 0x8FC DUP3 SWAP1 DUP2 ISZERO MUL SWAP1 PUSH1 0x40 MLOAD PUSH1 0x0 PUSH1 0x40 MLOAD DUP1 DUP4 SUB DUP2 DUP6 DUP9 DUP9 CALL SWAP4 POP POP POP POP ISZERO DUP1 ISZERO PUSH2 0x1747 JUMPI RETURNDATASIZE PUSH1 0x0 DUP1 RETURNDATACOPY RETURNDATASIZE PUSH1 0x0 REVERT JUMPDEST POP PUSH1 0x1 PUSH1 0x0 SWAP1 SLOAD SWAP1 PUSH2 0x100 EXP SWAP1 DIV PUSH20 0xFFFFFFFFFFFFFFFFFFFFFFFFFFFFFFFFFFFFFFFF AND PUSH20 0xFFFFFFFFFFFFFFFFFFFFFFFFFFFFFFFFFFFFFFFF AND PUSH4 0x77379082 CALLER DUP5 PUSH1 0x1 PUSH1 0x0 SWAP1 SLOAD SWAP1 PUSH2 0x100 EXP SWAP1 DIV PUSH20 0xFFFFFFFFFFFFFFFFFFFFFFFFFFFFFFFFFFFFFFFF AND PUSH20 0xFFFFFFFFFFFFFFFFFFFFFFFFFFFFFFFFFFFFFFFF AND PUSH3 0xFDD58E CALLER DUP9 PUSH1 0x40 MLOAD DUP4 PUSH4 0xFFFFFFFF AND PUSH1 0xE0 SHL DUP2 MSTORE PUSH1 0x4 ADD PUSH2 0x17E4 SWAP3 SWAP2 SWAP1 PUSH2 0x22AD JUMP JUMPDEST PUSH1 0x20 PUSH1 0x40 MLOAD DUP1 DUP4 SUB DUP2 DUP7 GAS STATICCALL ISZERO DUP1 ISZERO PUSH2 0x1801 JUMPI RETURNDATASIZE PUSH1 0x0 DUP1 RETURNDATACOPY RETURNDATASIZE PUSH1 0x0 REVERT JUMPDEST POP POP POP POP PUSH1 0x40 MLOAD RETURNDATASIZE PUSH1 0x1F NOT PUSH1 0x1F DUP3 ADD AND DUP3 ADD DUP1 PUSH1 0x40 MSTORE POP DUP2 ADD SWAP1 PUSH2 0x1825 SWAP2 SWAP1 PUSH2 0x22D6 JUMP JUMPDEST PUSH1 0x40 MLOAD DUP5 PUSH4 0xFFFFFFFF AND PUSH1 0xE0 SHL DUP2 MSTORE PUSH1 0x4 ADD PUSH2 0x1843 SWAP4 SWAP3 SWAP2 SWAP1 PUSH2 0x20C6 JUMP JUMPDEST PUSH1 0x0 PUSH1 0x40 MLOAD DUP1 DUP4 SUB DUP2 PUSH1 0x0 DUP8 DUP1 EXTCODESIZE ISZERO DUP1 ISZERO PUSH2 0x185D JUMPI PUSH1 0x0 DUP1 REVERT JUMPDEST POP GAS CALL ISZERO DUP1 ISZERO PUSH2 0x1871 JUMPI RETURNDATASIZE PUSH1 0x0 DUP1 RETURNDATACOPY RETURNDATASIZE PUSH1 0x0 REVERT JUMPDEST POP POP POP POP PUSH32 0x951805D264D8848D533C4CCC957476A4271D9ADB9C446CC7FB3D5F9808FAB1C8 CALLER DUP4 DUP4 PUSH1 0x40 MLOAD PUSH2 0x18A8 SWAP4 SWAP3 SWAP2 SWAP1 PUSH2 0x20C6 JUMP JUMPDEST PUSH1 0x40 MLOAD DUP1 SWAP2 SUB SWAP1 LOG1 POP POP POP JUMP JUMPDEST PUSH1 0x3 PUSH1 0x20 MSTORE DUP1 PUSH1 0x0 MSTORE PUSH1 0x40 PUSH1 0x0 KECCAK256 PUSH1 0x0 SWAP2 POP SWAP1 POP SLOAD DUP2 JUMP JUMPDEST PUSH1 0x4 PUSH1 0x20 MSTORE DUP1 PUSH1 0x0 MSTORE PUSH1 0x40 PUSH1 0x0 KECCAK256 PUSH1 0x0 SWAP2 POP SWAP1 POP SLOAD DUP2 JUMP JUMPDEST PUSH1 0x1 PUSH1 0x0 SWAP1 SLOAD SWAP1 PUSH2 0x100 EXP SWAP1 DIV PUSH20 0xFFFFFFFFFFFFFFFFFFFFFFFFFFFFFFFFFFFFFFFF AND DUP2 JUMP JUMPDEST PUSH1 0x0 PUSH1 0x4 PUSH1 0x0 CALLER PUSH20 0xFFFFFFFFFFFFFFFFFFFFFFFFFFFFFFFFFFFFFFFF AND PUSH20 0xFFFFFFFFFFFFFFFFFFFFFFFFFFFFFFFFFFFFFFFF AND DUP2 MSTORE PUSH1 0x20 ADD SWAP1 DUP2 MSTORE PUSH1 0x20 ADD PUSH1 0x0 KECCAK256 SLOAD SWAP1 POP SWAP1 JUMP JUMPDEST PUSH2 0x195A PUSH2 0x1A17 JUMP JUMPDEST PUSH1 0x0 PUSH20 0xFFFFFFFFFFFFFFFFFFFFFFFFFFFFFFFFFFFFFFFF AND DUP2 PUSH20 0xFFFFFFFFFFFFFFFFFFFFFFFFFFFFFFFFFFFFFFFF AND SUB PUSH2 0x19C9 JUMPI PUSH1 0x40 MLOAD PUSH32 0x8C379A000000000000000000000000000000000000000000000000000000000 DUP2 MSTORE PUSH1 0x4 ADD PUSH2 0x19C0 SWAP1 PUSH2 0x2821 JUMP JUMPDEST PUSH1 0x40 MLOAD DUP1 SWAP2 SUB SWAP1 REVERT JUMPDEST PUSH2 0x19D2 DUP2 PUSH2 0x1A95 JUMP JUMPDEST POP JUMP JUMPDEST PUSH1 0x0 DUP2 DUP4 PUSH2 0x19E3 SWAP2 SWAP1 PUSH2 0x2018 JUMP JUMPDEST SWAP1 POP SWAP3 SWAP2 POP POP JUMP JUMPDEST PUSH1 0x0 DUP2 DUP4 PUSH2 0x19F9 SWAP2 SWAP1 PUSH2 0x2870 JUMP JUMPDEST SWAP1 POP SWAP3 SWAP2 POP POP JUMP JUMPDEST PUSH1 0x0 DUP2 DUP4 PUSH2 0x1A0F SWAP2 SWAP1 PUSH2 0x236F JUMP JUMPDEST SWAP1 POP SWAP3 SWAP2 POP POP JUMP JUMPDEST PUSH2 0x1A1F PUSH2 0x1B59 JUMP JUMPDEST PUSH20 0xFFFFFFFFFFFFFFFFFFFFFFFFFFFFFFFFFFFFFFFF AND PUSH2 0x1A3D PUSH2 0x11C1 JUMP JUMPDEST PUSH20 0xFFFFFFFFFFFFFFFFFFFFFFFFFFFFFFFFFFFFFFFF AND EQ PUSH2 0x1A93 JUMPI PUSH1 0x40 MLOAD PUSH32 0x8C379A000000000000000000000000000000000000000000000000000000000 DUP2 MSTORE PUSH1 0x4 ADD PUSH2 0x1A8A SWAP1 PUSH2 0x28ED JUMP JUMPDEST PUSH1 0x40 MLOAD DUP1 SWAP2 SUB SWAP1 REVERT JUMPDEST JUMP JUMPDEST PUSH1 0x0 DUP1 PUSH1 0x0 SWAP1 SLOAD SWAP1 PUSH2 0x100 EXP SWAP1 DIV PUSH20 0xFFFFFFFFFFFFFFFFFFFFFFFFFFFFFFFFFFFFFFFF AND SWAP1 POP DUP2 PUSH1 0x0 DUP1 PUSH2 0x100 EXP DUP2 SLOAD DUP2 PUSH20 0xFFFFFFFFFFFFFFFFFFFFFFFFFFFFFFFFFFFFFFFF MUL NOT AND SWAP1 DUP4 PUSH20 0xFFFFFFFFFFFFFFFFFFFFFFFFFFFFFFFFFFFFFFFF AND MUL OR SWAP1 SSTORE POP DUP2 PUSH20 0xFFFFFFFFFFFFFFFFFFFFFFFFFFFFFFFFFFFFFFFF AND DUP2 PUSH20 0xFFFFFFFFFFFFFFFFFFFFFFFFFFFFFFFFFFFFFFFF AND PUSH32 0x8BE0079C531659141344CD1FD0A4F28419497F9722A3DAAFE3B4186F6B6457E0 PUSH1 0x40 MLOAD PUSH1 0x40 MLOAD DUP1 SWAP2 SUB SWAP1 LOG3 POP POP JUMP JUMPDEST PUSH1 0x0 CALLER SWAP1 POP SWAP1 JUMP JUMPDEST PUSH1 0x0 PUSH1 0x40 MLOAD SWAP1 POP SWAP1 JUMP JUMPDEST PUSH1 0x0 DUP1 REVERT JUMPDEST PUSH1 0x0 DUP2 SWAP1 POP SWAP2 SWAP1 POP JUMP JUMPDEST PUSH2 0x1B83 DUP2 PUSH2 0x1B70 JUMP JUMPDEST DUP2 EQ PUSH2 0x1B8E JUMPI PUSH1 0x0 DUP1 REVERT JUMPDEST POP JUMP JUMPDEST PUSH1 0x0 DUP2 CALLDATALOAD SWAP1 POP PUSH2 0x1BA0 DUP2 PUSH2 0x1B7A JUMP JUMPDEST SWAP3 SWAP2 POP POP JUMP JUMPDEST PUSH1 0x0 PUSH1 0x20 DUP3 DUP5 SUB SLT ISZERO PUSH2 0x1BBC JUMPI PUSH2 0x1BBB PUSH2 0x1B6B JUMP JUMPDEST JUMPDEST PUSH1 0x0 PUSH2 0x1BCA DUP5 DUP3 DUP6 ADD PUSH2 0x1B91 JUMP JUMPDEST SWAP2 POP POP SWAP3 SWAP2 POP POP JUMP JUMPDEST PUSH2 0x1BDC DUP2 PUSH2 0x1B70 JUMP JUMPDEST DUP3 MSTORE POP POP JUMP JUMPDEST PUSH1 0x0 PUSH1 0x20 DUP3 ADD SWAP1 POP PUSH2 0x1BF7 PUSH1 0x0 DUP4 ADD DUP5 PUSH2 0x1BD3 JUMP JUMPDEST SWAP3 SWAP2 POP POP JUMP JUMPDEST PUSH1 0x0 DUP1 PUSH1 0x40 DUP4 DUP6 SUB SLT ISZERO PUSH2 0x1C14 JUMPI PUSH2 0x1C13 PUSH2 0x1B6B JUMP JUMPDEST JUMPDEST PUSH1 0x0 PUSH2 0x1C22 DUP6 DUP3 DUP7 ADD PUSH2 0x1B91 JUMP JUMPDEST SWAP3 POP POP PUSH1 0x20 PUSH2 0x1C33 DUP6 DUP3 DUP7 ADD PUSH2 0x1B91 JUMP JUMPDEST SWAP2 POP POP SWAP3 POP SWAP3 SWAP1 POP JUMP JUMPDEST PUSH1 0x0 PUSH20 0xFFFFFFFFFFFFFFFFFFFFFFFFFFFFFFFFFFFFFFFF DUP3 AND SWAP1 POP SWAP2 SWAP1 POP JUMP JUMPDEST PUSH1 0x0 PUSH2 0x1C68 DUP3 PUSH2 0x1C3D JUMP JUMPDEST SWAP1 POP SWAP2 SWAP1 POP JUMP JUMPDEST PUSH2 0x1C78 DUP2 PUSH2 0x1C5D JUMP JUMPDEST DUP3 MSTORE POP POP JUMP JUMPDEST PUSH1 0x0 PUSH1 0x20 DUP3 ADD SWAP1 POP PUSH2 0x1C93 PUSH1 0x0 DUP4 ADD DUP5 PUSH2 0x1C6F JUMP JUMPDEST SWAP3 SWAP2 POP POP JUMP JUMPDEST PUSH2 0x1CA2 DUP2 PUSH2 0x1C5D JUMP JUMPDEST DUP2 EQ PUSH2 0x1CAD JUMPI PUSH1 0x0 DUP1 REVERT JUMPDEST POP JUMP JUMPDEST PUSH1 0x0 DUP2 CALLDATALOAD SWAP1 POP PUSH2 0x1CBF DUP2 PUSH2 0x1C99 JUMP JUMPDEST SWAP3 SWAP2 POP POP JUMP JUMPDEST PUSH1 0x0 DUP1 PUSH1 0x40 DUP4 DUP6 SUB SLT ISZERO PUSH2 0x1CDC JUMPI PUSH2 0x1CDB PUSH2 0x1B6B JUMP JUMPDEST JUMPDEST PUSH1 0x0 PUSH2 0x1CEA DUP6 DUP3 DUP7 ADD PUSH2 0x1CB0 JUMP JUMPDEST SWAP3 POP POP PUSH1 0x20 PUSH2 0x1CFB DUP6 DUP3 DUP7 ADD PUSH2 0x1B91 JUMP JUMPDEST SWAP2 POP POP SWAP3 POP SWAP3 SWAP1 POP JUMP JUMPDEST PUSH1 0x0 PUSH1 0x20 DUP3 DUP5 SUB SLT ISZERO PUSH2 0x1D1B JUMPI PUSH2 0x1D1A PUSH2 0x1B6B JUMP JUMPDEST JUMPDEST PUSH1 0x0 PUSH2 0x1D29 DUP5 DUP3 DUP6 ADD PUSH2 0x1CB0 JUMP JUMPDEST SWAP2 POP POP SWAP3 SWAP2 POP POP JUMP JUMPDEST PUSH1 0x0 DUP2 SWAP1 POP SWAP2 SWAP1 POP JUMP JUMPDEST PUSH1 0x0 PUSH2 0x1D57 PUSH2 0x1D52 PUSH2 0x1D4D DUP5 PUSH2 0x1C3D JUMP JUMPDEST PUSH2 0x1D32 JUMP JUMPDEST PUSH2 0x1C3D JUMP JUMPDEST SWAP1 POP SWAP2 SWAP1 POP JUMP JUMPDEST PUSH1 0x0 PUSH2 0x1D69 DUP3 PUSH2 0x1D3C JUMP JUMPDEST SWAP1 POP SWAP2 SWAP1 POP JUMP JUMPDEST PUSH1 0x0 PUSH2 0x1D7B DUP3 PUSH2 0x1D5E JUMP JUMPDEST SWAP1 POP SWAP2 SWAP1 POP JUMP JUMPDEST PUSH2 0x1D8B DUP2 PUSH2 0x1D70 JUMP JUMPDEST DUP3 MSTORE POP POP JUMP JUMPDEST PUSH1 0x0 PUSH1 0x20 DUP3 ADD SWAP1 POP PUSH2 0x1DA6 PUSH1 0x0 DUP4 ADD DUP5 PUSH2 0x1D82 JUMP JUMPDEST SWAP3 SWAP2 POP POP JUMP JUMPDEST PUSH1 0x0 DUP1 REVERT JUMPDEST PUSH1 0x0 PUSH1 0x1F NOT PUSH1 0x1F DUP4 ADD AND SWAP1 POP SWAP2 SWAP1 POP JUMP JUMPDEST PUSH32 0x4E487B7100000000000000000000000000000000000000000000000000000000 PUSH1 0x0 MSTORE PUSH1 0x41 PUSH1 0x4 MSTORE PUSH1 0x24 PUSH1 0x0 REVERT JUMPDEST PUSH2 0x1DFA DUP3 PUSH2 0x1DB1 JUMP JUMPDEST DUP2 ADD DUP2 DUP2 LT PUSH8 0xFFFFFFFFFFFFFFFF DUP3 GT OR ISZERO PUSH2 0x1E19 JUMPI PUSH2 0x1E18 PUSH2 0x1DC2 JUMP JUMPDEST JUMPDEST DUP1 PUSH1 0x40 MSTORE POP POP POP JUMP JUMPDEST PUSH1 0x0 PUSH2 0x1E2C PUSH2 0x1B61 JUMP JUMPDEST SWAP1 POP PUSH2 0x1E38 DUP3 DUP3 PUSH2 0x1DF1 JUMP JUMPDEST SWAP2 SWAP1 POP JUMP JUMPDEST PUSH1 0x0 DUP2 MLOAD SWAP1 POP PUSH2 0x1E4C DUP2 PUSH2 0x1C99 JUMP JUMPDEST SWAP3 SWAP2 POP POP JUMP JUMPDEST PUSH1 0x0 DUP2 MLOAD SWAP1 POP PUSH2 0x1E61 DUP2 PUSH2 0x1B7A JUMP JUMPDEST SWAP3 SWAP2 POP POP JUMP JUMPDEST PUSH1 0x0 DUP2 ISZERO ISZERO SWAP1 POP SWAP2 SWAP1 POP JUMP JUMPDEST PUSH2 0x1E7C DUP2 PUSH2 0x1E67 JUMP JUMPDEST DUP2 EQ PUSH2 0x1E87 JUMPI PUSH1 0x0 DUP1 REVERT JUMPDEST POP JUMP JUMPDEST PUSH1 0x0 DUP2 MLOAD SWAP1 POP PUSH2 0x1E99 DUP2 PUSH2 0x1E73 JUMP JUMPDEST SWAP3 SWAP2 POP POP JUMP JUMPDEST PUSH1 0x0 PUSH1 0xC0 DUP3 DUP5 SUB SLT ISZERO PUSH2 0x1EB5 JUMPI PUSH2 0x1EB4 PUSH2 0x1DAC JUMP JUMPDEST JUMPDEST PUSH2 0x1EBF PUSH1 0xC0 PUSH2 0x1E22 JUMP JUMPDEST SWAP1 POP PUSH1 0x0 PUSH2 0x1ECF DUP5 DUP3 DUP6 ADD PUSH2 0x1E3D JUMP JUMPDEST PUSH1 0x0 DUP4 ADD MSTORE POP PUSH1 0x20 PUSH2 0x1EE3 DUP5 DUP3 DUP6 ADD PUSH2 0x1E52 JUMP JUMPDEST PUSH1 0x20 DUP4 ADD MSTORE POP PUSH1 0x40 PUSH2 0x1EF7 DUP5 DUP3 DUP6 ADD PUSH2 0x1E52 JUMP JUMPDEST PUSH1 0x40 DUP4 ADD MSTORE POP PUSH1 0x60 PUSH2 0x1F0B DUP5 DUP3 DUP6 ADD PUSH2 0x1E52 JUMP JUMPDEST PUSH1 0x60 DUP4 ADD MSTORE POP PUSH1 0x80 PUSH2 0x1F1F DUP5 DUP3 DUP6 ADD PUSH2 0x1E52 JUMP JUMPDEST PUSH1 0x80 DUP4 ADD MSTORE POP PUSH1 0xA0 PUSH2 0x1F33 DUP5 DUP3 DUP6 ADD PUSH2 0x1E8A JUMP JUMPDEST PUSH1 0xA0 DUP4 ADD MSTORE POP SWAP3 SWAP2 POP POP JUMP JUMPDEST PUSH1 0x0 PUSH1 0xC0 DUP3 DUP5 SUB SLT ISZERO PUSH2 0x1F55 JUMPI PUSH2 0x1F54 PUSH2 0x1B6B JUMP JUMPDEST JUMPDEST PUSH1 0x0 PUSH2 0x1F63 DUP5 DUP3 DUP6 ADD PUSH2 0x1E9F JUMP JUMPDEST SWAP2 POP POP SWAP3 SWAP2 POP POP JUMP JUMPDEST PUSH1 0x0 DUP3 DUP3 MSTORE PUSH1 0x20 DUP3 ADD SWAP1 POP SWAP3 SWAP2 POP POP JUMP JUMPDEST PUSH32 0x4973207468617420796F75722077616C6C65743F000000000000000000000000 PUSH1 0x0 DUP3 ADD MSTORE POP JUMP JUMPDEST PUSH1 0x0 PUSH2 0x1FB3 PUSH1 0x14 DUP4 PUSH2 0x1F6C JUMP JUMPDEST SWAP2 POP PUSH2 0x1FBE DUP3 PUSH2 0x1F7D JUMP JUMPDEST PUSH1 0x20 DUP3 ADD SWAP1 POP SWAP2 SWAP1 POP JUMP JUMPDEST PUSH1 0x0 PUSH1 0x20 DUP3 ADD SWAP1 POP DUP2 DUP2 SUB PUSH1 0x0 DUP4 ADD MSTORE PUSH2 0x1FE2 DUP2 PUSH2 0x1FA6 JUMP JUMPDEST SWAP1 POP SWAP2 SWAP1 POP JUMP JUMPDEST PUSH32 0x4E487B7100000000000000000000000000000000000000000000000000000000 PUSH1 0x0 MSTORE PUSH1 0x11 PUSH1 0x4 MSTORE PUSH1 0x24 PUSH1 0x0 REVERT JUMPDEST PUSH1 0x0 PUSH2 0x2023 DUP3 PUSH2 0x1B70 JUMP JUMPDEST SWAP2 POP PUSH2 0x202E DUP4 PUSH2 0x1B70 JUMP JUMPDEST SWAP3 POP DUP3 DUP3 MUL PUSH2 0x203C DUP2 PUSH2 0x1B70 JUMP JUMPDEST SWAP2 POP DUP3 DUP3 DIV DUP5 EQ DUP4 ISZERO OR PUSH2 0x2053 JUMPI PUSH2 0x2052 PUSH2 0x1FE9 JUMP JUMPDEST JUMPDEST POP SWAP3 SWAP2 POP POP JUMP JUMPDEST PUSH32 0x46756E64696E672073656363657373203F000000000000000000000000000000 PUSH1 0x0 DUP3 ADD MSTORE POP JUMP JUMPDEST PUSH1 0x0 PUSH2 0x2090 PUSH1 0x11 DUP4 PUSH2 0x1F6C JUMP JUMPDEST SWAP2 POP PUSH2 0x209B DUP3 PUSH2 0x205A JUMP JUMPDEST PUSH1 0x20 DUP3 ADD SWAP1 POP SWAP2 SWAP1 POP JUMP JUMPDEST PUSH1 0x0 PUSH1 0x20 DUP3 ADD SWAP1 POP DUP2 DUP2 SUB PUSH1 0x0 DUP4 ADD MSTORE PUSH2 0x20BF DUP2 PUSH2 0x2083 JUMP JUMPDEST SWAP1 POP SWAP2 SWAP1 POP JUMP JUMPDEST PUSH1 0x0 PUSH1 0x60 DUP3 ADD SWAP1 POP PUSH2 0x20DB PUSH1 0x0 DUP4 ADD DUP7 PUSH2 0x1C6F JUMP JUMPDEST PUSH2 0x20E8 PUSH1 0x20 DUP4 ADD DUP6 PUSH2 0x1BD3 JUMP JUMPDEST PUSH2 0x20F5 PUSH1 0x40 DUP4 ADD DUP5 PUSH2 0x1BD3 JUMP JUMPDEST SWAP5 SWAP4 POP POP POP POP JUMP JUMPDEST PUSH32 0x54696D65204F7665720000000000000000000000000000000000000000000000 PUSH1 0x0 DUP3 ADD MSTORE POP JUMP JUMPDEST PUSH1 0x0 PUSH2 0x2133 PUSH1 0x9 DUP4 PUSH2 0x1F6C JUMP JUMPDEST SWAP2 POP PUSH2 0x213E DUP3 PUSH2 0x20FD JUMP JUMPDEST PUSH1 0x20 DUP3 ADD SWAP1 POP SWAP2 SWAP1 POP JUMP JUMPDEST PUSH1 0x0 PUSH1 0x20 DUP3 ADD SWAP1 POP DUP2 DUP2 SUB PUSH1 0x0 DUP4 ADD MSTORE PUSH2 0x2162 DUP2 PUSH2 0x2126 JUMP JUMPDEST SWAP1 POP SWAP2 SWAP1 POP JUMP JUMPDEST PUSH32 0x637265617465722063616E277420627579000000000000000000000000000000 PUSH1 0x0 DUP3 ADD MSTORE POP JUMP JUMPDEST PUSH1 0x0 PUSH2 0x219F PUSH1 0x11 DUP4 PUSH2 0x1F6C JUMP JUMPDEST SWAP2 POP PUSH2 0x21AA DUP3 PUSH2 0x2169 JUMP JUMPDEST PUSH1 0x20 DUP3 ADD SWAP1 POP SWAP2 SWAP1 POP JUMP JUMPDEST PUSH1 0x0 PUSH1 0x20 DUP3 ADD SWAP1 POP DUP2 DUP2 SUB PUSH1 0x0 DUP4 ADD MSTORE PUSH2 0x21CE DUP2 PUSH2 0x2192 JUMP JUMPDEST SWAP1 POP SWAP2 SWAP1 POP JUMP JUMPDEST PUSH32 0x68617665206E6F206D6F6E65792073656E740000000000000000000000000000 PUSH1 0x0 DUP3 ADD MSTORE POP JUMP JUMPDEST PUSH1 0x0 PUSH2 0x220B PUSH1 0x12 DUP4 PUSH2 0x1F6C JUMP JUMPDEST SWAP2 POP PUSH2 0x2216 DUP3 PUSH2 0x21D5 JUMP JUMPDEST PUSH1 0x20 DUP3 ADD SWAP1 POP SWAP2 SWAP1 POP JUMP JUMPDEST PUSH1 0x0 PUSH1 0x20 DUP3 ADD SWAP1 POP DUP2 DUP2 SUB PUSH1 0x0 DUP4 ADD MSTORE PUSH2 0x223A DUP2 PUSH2 0x21FE JUMP JUMPDEST SWAP1 POP SWAP2 SWAP1 POP JUMP JUMPDEST PUSH32 0x54686520707269636520646F65736E2774206D617463682E0000000000000000 PUSH1 0x0 DUP3 ADD MSTORE POP JUMP JUMPDEST PUSH1 0x0 PUSH2 0x2277 PUSH1 0x18 DUP4 PUSH2 0x1F6C JUMP JUMPDEST SWAP2 POP PUSH2 0x2282 DUP3 PUSH2 0x2241 JUMP JUMPDEST PUSH1 0x20 DUP3 ADD SWAP1 POP SWAP2 SWAP1 POP JUMP JUMPDEST PUSH1 0x0 PUSH1 0x20 DUP3 ADD SWAP1 POP DUP2 DUP2 SUB PUSH1 0x0 DUP4 ADD MSTORE PUSH2 0x22A6 DUP2 PUSH2 0x226A JUMP JUMPDEST SWAP1 POP SWAP2 SWAP1 POP JUMP JUMPDEST PUSH1 0x0 PUSH1 0x40 DUP3 ADD SWAP1 POP PUSH2 0x22C2 PUSH1 0x0 DUP4 ADD DUP6 PUSH2 0x1C6F JUMP JUMPDEST PUSH2 0x22CF PUSH1 0x20 DUP4 ADD DUP5 PUSH2 0x1BD3 JUMP JUMPDEST SWAP4 SWAP3 POP POP POP JUMP JUMPDEST PUSH1 0x0 PUSH1 0x20 DUP3 DUP5 SUB SLT ISZERO PUSH2 0x22EC JUMPI PUSH2 0x22EB PUSH2 0x1B6B JUMP JUMPDEST JUMPDEST PUSH1 0x0 PUSH2 0x22FA DUP5 DUP3 DUP6 ADD PUSH2 0x1E52 JUMP JUMPDEST SWAP2 POP POP SWAP3 SWAP2 POP POP JUMP JUMPDEST PUSH32 0x63616E277420627579207468696E67732E000000000000000000000000000000 PUSH1 0x0 DUP3 ADD MSTORE POP JUMP JUMPDEST PUSH1 0x0 PUSH2 0x2339 PUSH1 0x11 DUP4 PUSH2 0x1F6C JUMP JUMPDEST SWAP2 POP PUSH2 0x2344 DUP3 PUSH2 0x2303 JUMP JUMPDEST PUSH1 0x20 DUP3 ADD SWAP1 POP SWAP2 SWAP1 POP JUMP JUMPDEST PUSH1 0x0 PUSH1 0x20 DUP3 ADD SWAP1 POP DUP2 DUP2 SUB PUSH1 0x0 DUP4 ADD MSTORE PUSH2 0x2368 DUP2 PUSH2 0x232C JUMP JUMPDEST SWAP1 POP SWAP2 SWAP1 POP JUMP JUMPDEST PUSH1 0x0 PUSH2 0x237A DUP3 PUSH2 0x1B70 JUMP JUMPDEST SWAP2 POP PUSH2 0x2385 DUP4 PUSH2 0x1B70 JUMP JUMPDEST SWAP3 POP DUP3 DUP3 SUB SWAP1 POP DUP2 DUP2 GT ISZERO PUSH2 0x239D JUMPI PUSH2 0x239C PUSH2 0x1FE9 JUMP JUMPDEST JUMPDEST SWAP3 SWAP2 POP POP JUMP JUMPDEST PUSH32 0x6265206F7574206F662073746F636B20616E6420756E61626C6520746F206275 PUSH1 0x0 DUP3 ADD MSTORE PUSH32 0x7920676F6F647300000000000000000000000000000000000000000000000000 PUSH1 0x20 DUP3 ADD MSTORE POP JUMP JUMPDEST PUSH1 0x0 PUSH2 0x23FF PUSH1 0x27 DUP4 PUSH2 0x1F6C JUMP JUMPDEST SWAP2 POP PUSH2 0x240A DUP3 PUSH2 0x23A3 JUMP JUMPDEST PUSH1 0x40 DUP3 ADD SWAP1 POP SWAP2 SWAP1 POP JUMP JUMPDEST PUSH1 0x0 PUSH1 0x20 DUP3 ADD SWAP1 POP DUP2 DUP2 SUB PUSH1 0x0 DUP4 ADD MSTORE PUSH2 0x242E DUP2 PUSH2 0x23F2 JUMP JUMPDEST SWAP1 POP SWAP2 SWAP1 POP JUMP JUMPDEST PUSH1 0x0 PUSH1 0x40 DUP3 ADD SWAP1 POP PUSH2 0x244A PUSH1 0x0 DUP4 ADD DUP6 PUSH2 0x1C6F JUMP JUMPDEST PUSH2 0x2457 PUSH1 0x20 DUP4 ADD DUP5 PUSH2 0x1C6F JUMP JUMPDEST SWAP4 SWAP3 POP POP POP JUMP JUMPDEST PUSH1 0x0 PUSH1 0x20 DUP3 DUP5 SUB SLT ISZERO PUSH2 0x2474 JUMPI PUSH2 0x2473 PUSH2 0x1B6B JUMP JUMPDEST JUMPDEST PUSH1 0x0 PUSH2 0x2482 DUP5 DUP3 DUP6 ADD PUSH2 0x1E8A JUMP JUMPDEST SWAP2 POP POP SWAP3 SWAP2 POP POP JUMP JUMPDEST PUSH32 0x6265206E6F7420617070726F7665640000000000000000000000000000000000 PUSH1 0x0 DUP3 ADD MSTORE POP JUMP JUMPDEST PUSH1 0x0 PUSH2 0x24C1 PUSH1 0xF DUP4 PUSH2 0x1F6C JUMP JUMPDEST SWAP2 POP PUSH2 0x24CC DUP3 PUSH2 0x248B JUMP JUMPDEST PUSH1 0x20 DUP3 ADD SWAP1 POP SWAP2 SWAP1 POP JUMP JUMPDEST PUSH1 0x0 PUSH1 0x20 DUP3 ADD SWAP1 POP DUP2 DUP2 SUB PUSH1 0x0 DUP4 ADD MSTORE PUSH2 0x24F0 DUP2 PUSH2 0x24B4 JUMP JUMPDEST SWAP1 POP SWAP2 SWAP1 POP JUMP JUMPDEST PUSH1 0x0 PUSH2 0x2502 DUP3 PUSH2 0x1B70 JUMP JUMPDEST SWAP2 POP PUSH2 0x250D DUP4 PUSH2 0x1B70 JUMP JUMPDEST SWAP3 POP DUP3 DUP3 ADD SWAP1 POP DUP1 DUP3 GT ISZERO PUSH2 0x2525 JUMPI PUSH2 0x2524 PUSH2 0x1FE9 JUMP JUMPDEST JUMPDEST SWAP3 SWAP2 POP POP JUMP JUMPDEST PUSH1 0x0 DUP3 DUP3 MSTORE PUSH1 0x20 DUP3 ADD SWAP1 POP SWAP3 SWAP2 POP POP JUMP JUMPDEST POP JUMP JUMPDEST PUSH1 0x0 PUSH2 0x254C PUSH1 0x0 DUP4 PUSH2 0x252B JUMP JUMPDEST SWAP2 POP PUSH2 0x2557 DUP3 PUSH2 0x253C JUMP JUMPDEST PUSH1 0x0 DUP3 ADD SWAP1 POP SWAP2 SWAP1 POP JUMP JUMPDEST PUSH1 0x0 PUSH1 0xA0 DUP3 ADD SWAP1 POP PUSH2 0x2577 PUSH1 0x0 DUP4 ADD DUP8 PUSH2 0x1C6F JUMP JUMPDEST PUSH2 0x2584 PUSH1 0x20 DUP4 ADD DUP7 PUSH2 0x1C6F JUMP JUMPDEST PUSH2 0x2591 PUSH1 0x40 DUP4 ADD DUP6 PUSH2 0x1BD3 JUMP JUMPDEST PUSH2 0x259E PUSH1 0x60 DUP4 ADD DUP5 PUSH2 0x1BD3 JUMP JUMPDEST DUP2 DUP2 SUB PUSH1 0x80 DUP4 ADD MSTORE PUSH2 0x25AF DUP2 PUSH2 0x253F JUMP JUMPDEST SWAP1 POP SWAP6 SWAP5 POP POP POP POP POP JUMP JUMPDEST PUSH1 0x0 PUSH1 0x80 DUP3 ADD SWAP1 POP PUSH2 0x25CF PUSH1 0x0 DUP4 ADD DUP8 PUSH2 0x1C6F JUMP JUMPDEST PUSH2 0x25DC PUSH1 0x20 DUP4 ADD DUP7 PUSH2 0x1BD3 JUMP JUMPDEST PUSH2 0x25E9 PUSH1 0x40 DUP4 ADD DUP6 PUSH2 0x1BD3 JUMP JUMPDEST PUSH2 0x25F6 PUSH1 0x60 DUP4 ADD DUP5 PUSH2 0x1BD3 JUMP JUMPDEST SWAP6 SWAP5 POP POP POP POP POP JUMP JUMPDEST PUSH32 0x546865726520697320616C7265616479206120737562736372697074696F6E2E PUSH1 0x0 DUP3 ADD MSTORE POP JUMP JUMPDEST PUSH1 0x0 PUSH2 0x2635 PUSH1 0x20 DUP4 PUSH2 0x1F6C JUMP JUMPDEST SWAP2 POP PUSH2 0x2640 DUP3 PUSH2 0x25FF JUMP JUMPDEST PUSH1 0x20 DUP3 ADD SWAP1 POP SWAP2 SWAP1 POP JUMP JUMPDEST PUSH1 0x0 PUSH1 0x20 DUP3 ADD SWAP1 POP DUP2 DUP2 SUB PUSH1 0x0 DUP4 ADD MSTORE PUSH2 0x2664 DUP2 PUSH2 0x2628 JUMP JUMPDEST SWAP1 POP SWAP2 SWAP1 POP JUMP JUMPDEST PUSH32 0x49732069742061206275796572203F0000000000000000000000000000000000 PUSH1 0x0 DUP3 ADD MSTORE POP JUMP JUMPDEST PUSH1 0x0 PUSH2 0x26A1 PUSH1 0xF DUP4 PUSH2 0x1F6C JUMP JUMPDEST SWAP2 POP PUSH2 0x26AC DUP3 PUSH2 0x266B JUMP JUMPDEST PUSH1 0x20 DUP3 ADD SWAP1 POP SWAP2 SWAP1 POP JUMP JUMPDEST PUSH1 0x0 PUSH1 0x20 DUP3 ADD SWAP1 POP DUP2 DUP2 SUB PUSH1 0x0 DUP4 ADD MSTORE PUSH2 0x26D0 DUP2 PUSH2 0x2694 JUMP JUMPDEST SWAP1 POP SWAP2 SWAP1 POP JUMP JUMPDEST PUSH32 0x54696D65204F766572203F000000000000000000000000000000000000000000 PUSH1 0x0 DUP3 ADD MSTORE POP JUMP JUMPDEST PUSH1 0x0 PUSH2 0x270D PUSH1 0xB DUP4 PUSH2 0x1F6C JUMP JUMPDEST SWAP2 POP PUSH2 0x2718 DUP3 PUSH2 0x26D7 JUMP JUMPDEST PUSH1 0x20 DUP3 ADD SWAP1 POP SWAP2 SWAP1 POP JUMP JUMPDEST PUSH1 0x0 PUSH1 0x20 DUP3 ADD SWAP1 POP DUP2 DUP2 SUB PUSH1 0x0 DUP4 ADD MSTORE PUSH2 0x273C DUP2 PUSH2 0x2700 JUMP JUMPDEST SWAP1 POP SWAP2 SWAP1 POP JUMP JUMPDEST PUSH32 0x46756E64696E67206661696C6564203F00000000000000000000000000000000 PUSH1 0x0 DUP3 ADD MSTORE POP JUMP JUMPDEST PUSH1 0x0 PUSH2 0x2779 PUSH1 0x10 DUP4 PUSH2 0x1F6C JUMP JUMPDEST SWAP2 POP PUSH2 0x2784 DUP3 PUSH2 0x2743 JUMP JUMPDEST PUSH1 0x20 DUP3 ADD SWAP1 POP SWAP2 SWAP1 POP JUMP JUMPDEST PUSH1 0x0 PUSH1 0x20 DUP3 ADD SWAP1 POP DUP2 DUP2 SUB PUSH1 0x0 DUP4 ADD MSTORE PUSH2 0x27A8 DUP2 PUSH2 0x276C JUMP JUMPDEST SWAP1 POP SWAP2 SWAP1 POP JUMP JUMPDEST PUSH32 0x4F776E61626C653A206E6577206F776E657220697320746865207A65726F2061 PUSH1 0x0 DUP3 ADD MSTORE PUSH32 0x6464726573730000000000000000000000000000000000000000000000000000 PUSH1 0x20 DUP3 ADD MSTORE POP JUMP JUMPDEST PUSH1 0x0 PUSH2 0x280B PUSH1 0x26 DUP4 PUSH2 0x1F6C JUMP JUMPDEST SWAP2 POP PUSH2 0x2816 DUP3 PUSH2 0x27AF JUMP JUMPDEST PUSH1 0x40 DUP3 ADD SWAP1 POP SWAP2 SWAP1 POP JUMP JUMPDEST PUSH1 0x0 PUSH1 0x20 DUP3 ADD SWAP1 POP DUP2 DUP2 SUB PUSH1 0x0 DUP4 ADD MSTORE PUSH2 0x283A DUP2 PUSH2 0x27FE JUMP JUMPDEST SWAP1 POP SWAP2 SWAP1 POP JUMP JUMPDEST PUSH32 0x4E487B7100000000000000000000000000000000000000000000000000000000 PUSH1 0x0 MSTORE PUSH1 0x12 PUSH1 0x4 MSTORE PUSH1 0x24 PUSH1 0x0 REVERT JUMPDEST PUSH1 0x0 PUSH2 0x287B DUP3 PUSH2 0x1B70 JUMP JUMPDEST SWAP2 POP PUSH2 0x2886 DUP4 PUSH2 0x1B70 JUMP JUMPDEST SWAP3 POP DUP3 PUSH2 0x2896 JUMPI PUSH2 0x2895 PUSH2 0x2841 JUMP JUMPDEST JUMPDEST DUP3 DUP3 DIV SWAP1 POP SWAP3 SWAP2 POP POP JUMP JUMPDEST PUSH32 0x4F776E61626C653A2063616C6C6572206973206E6F7420746865206F776E6572 PUSH1 0x0 DUP3 ADD MSTORE POP JUMP JUMPDEST PUSH1 0x0 PUSH2 0x28D7 PUSH1 0x20 DUP4 PUSH2 0x1F6C JUMP JUMPDEST SWAP2 POP PUSH2 0x28E2 DUP3 PUSH2 0x28A1 JUMP JUMPDEST PUSH1 0x20 DUP3 ADD SWAP1 POP SWAP2 SWAP1 POP JUMP JUMPDEST PUSH1 0x0 PUSH1 0x20 DUP3 ADD SWAP1 POP DUP2 DUP2 SUB PUSH1 0x0 DUP4 ADD MSTORE PUSH2 0x2906 DUP2 PUSH2 0x28CA JUMP JUMPDEST SWAP1 POP SWAP2 SWAP1 POP JUMP INVALID LOG2 PUSH5 0x6970667358 0x22 SLT KECCAK256 0xA6 SAR 0xC4 0xC7 MLOAD 0x49 GASLIMIT SWAP3 0xA5 0xCE 0xF8 PUSH20 0x7E09AECEFB031381C3357AF0B53414AF8DCCE861 PUSH5 0x736F6C6343 STOP ADDMOD GT STOP CALLER "
		},
		"gasEstimates": {
			"creation": {
				"codeDepositCost": "2112600",
				"executionCost": "infinite",
				"totalCost": "infinite"
			},
			"external": {
				"Dtoken()": "infinite",
				"isSuccessFundding(uint256)": "infinite",
				"isfalsedFundding(address,uint256)": "infinite",
				"owner()": "2633",
				"priceCheck(uint256)": "infinite",
				"renounceOwnership()": "30487",
				"streamingView()": "2614",
				"subscriptionBuy()": "infinite",
				"timeOwner(address)": "2858",
				"totalAmout(uint256)": "infinite",
				"transferOwnership(address)": "30854",
				"userFundding(uint256,uint256)": "infinite"
			}
		},
		"methodIdentifiers": {
			"Dtoken()": "cc8a416b",
			"isSuccessFundding(uint256)": "29c51d2b",
			"isfalsedFundding(address,uint256)": "8e13b063",
			"owner()": "8da5cb5b",
			"priceCheck(uint256)": "49e5465c",
			"renounceOwnership()": "715018a6",
			"streamingView()": "eaf85b5c",
			"subscriptionBuy()": "64bbd1f1",
			"timeOwner(address)": "af75c382",
			"totalAmout(uint256)": "9ddca16a",
			"transferOwnership(address)": "f2fde38b",
			"userFundding(uint256,uint256)": "50b9c737"
		}
	},
	"abi": [
		{
			"inputs": [
				{
					"internalType": "address",
					"name": "DtsTokenCA",
					"type": "address"
				}
			],
			"stateMutability": "nonpayable",
			"type": "constructor"
		},
		{
			"anonymous": false,
			"inputs": [
				{
					"indexed": true,
					"internalType": "address",
					"name": "previousOwner",
					"type": "address"
				},
				{
					"indexed": true,
					"internalType": "address",
					"name": "newOwner",
					"type": "address"
				}
			],
			"name": "OwnershipTransferred",
			"type": "event"
		},
		{
			"anonymous": false,
			"inputs": [
				{
					"indexed": false,
					"internalType": "address",
					"name": "account",
					"type": "address"
				},
				{
					"indexed": false,
					"internalType": "uint256",
					"name": "tokenId",
					"type": "uint256"
				},
				{
					"indexed": false,
					"internalType": "uint256",
					"name": "price",
					"type": "uint256"
				}
			],
			"name": "isSuccessFunddingEvent",
			"type": "event"
		},
		{
			"anonymous": false,
			"inputs": [
				{
					"indexed": false,
					"internalType": "address",
					"name": "account",
					"type": "address"
				},
				{
					"indexed": false,
					"internalType": "uint256",
					"name": "tokenId",
					"type": "uint256"
				},
				{
					"indexed": false,
					"internalType": "uint256",
					"name": "price",
					"type": "uint256"
				}
			],
			"name": "isfalsedFunddingEvnet",
			"type": "event"
		},
		{
			"anonymous": false,
			"inputs": [
				{
					"indexed": false,
					"internalType": "address",
					"name": "account",
					"type": "address"
				},
				{
					"indexed": false,
					"internalType": "uint256",
					"name": "price",
					"type": "uint256"
				}
			],
			"name": "subscriptionBuyEvent",
			"type": "event"
		},
		{
			"anonymous": false,
			"inputs": [
				{
					"indexed": false,
					"internalType": "address",
					"name": "account",
					"type": "address"
				},
				{
					"indexed": false,
					"internalType": "uint256",
					"name": "tokenId",
					"type": "uint256"
				},
				{
					"indexed": false,
					"internalType": "uint256",
					"name": "amount",
					"type": "uint256"
				},
				{
					"indexed": false,
					"internalType": "uint256",
					"name": "price",
					"type": "uint256"
				}
			],
			"name": "userFunddingEvent",
			"type": "event"
		},
		{
			"inputs": [],
			"name": "Dtoken",
			"outputs": [
				{
					"internalType": "contract DtsToken",
					"name": "",
					"type": "address"
				}
			],
			"stateMutability": "view",
			"type": "function"
		},
		{
			"inputs": [
				{
					"internalType": "uint256",
					"name": "tokenId",
					"type": "uint256"
				}
			],
			"name": "isSuccessFundding",
			"outputs": [],
			"stateMutability": "payable",
			"type": "function"
		},
		{
			"inputs": [
				{
					"internalType": "address",
					"name": "account",
					"type": "address"
				},
				{
					"internalType": "uint256",
					"name": "tokenId",
					"type": "uint256"
				}
			],
			"name": "isfalsedFundding",
			"outputs": [],
			"stateMutability": "payable",
			"type": "function"
		},
		{
			"inputs": [],
			"name": "owner",
			"outputs": [
				{
					"internalType": "address",
					"name": "",
					"type": "address"
				}
			],
			"stateMutability": "view",
			"type": "function"
		},
		{
			"inputs": [
				{
					"internalType": "uint256",
					"name": "tokenId",
					"type": "uint256"
				}
			],
			"name": "priceCheck",
			"outputs": [
				{
					"internalType": "uint256",
					"name": "",
					"type": "uint256"
				}
			],
			"stateMutability": "view",
			"type": "function"
		},
		{
			"inputs": [],
			"name": "renounceOwnership",
			"outputs": [],
			"stateMutability": "nonpayable",
			"type": "function"
		},
		{
			"inputs": [],
			"name": "streamingView",
			"outputs": [
				{
					"internalType": "uint256",
					"name": "",
					"type": "uint256"
				}
			],
			"stateMutability": "view",
			"type": "function"
		},
		{
			"inputs": [],
			"name": "subscriptionBuy",
			"outputs": [],
			"stateMutability": "payable",
			"type": "function"
		},
		{
			"inputs": [
				{
					"internalType": "address",
					"name": "",
					"type": "address"
				}
			],
			"name": "timeOwner",
			"outputs": [
				{
					"internalType": "uint256",
					"name": "",
					"type": "uint256"
				}
			],
			"stateMutability": "view",
			"type": "function"
		},
		{
			"inputs": [
				{
					"internalType": "uint256",
					"name": "",
					"type": "uint256"
				}
			],
			"name": "totalAmout",
			"outputs": [
				{
					"internalType": "uint256",
					"name": "",
					"type": "uint256"
				}
			],
			"stateMutability": "view",
			"type": "function"
		},
		{
			"inputs": [
				{
					"internalType": "address",
					"name": "newOwner",
					"type": "address"
				}
			],
			"name": "transferOwnership",
			"outputs": [],
			"stateMutability": "nonpayable",
			"type": "function"
		},
		{
			"inputs": [
				{
					"internalType": "uint256",
					"name": "tokenId",
					"type": "uint256"
				},
				{
					"internalType": "uint256",
					"name": "amount",
					"type": "uint256"
				}
			],
			"name": "userFundding",
			"outputs": [],
			"stateMutability": "payable",
			"type": "function"
		}
	]
}