{
  "contractName": "DtsToken",
  "abi": [
    {
      "inputs": [],
      "stateMutability": "nonpayable",
      "type": "constructor"
    },
    {
      "anonymous": false,
      "inputs": [
        {
          "indexed": true,
          "internalType": "address",
          "name": "account",
          "type": "address"
        },
        {
          "indexed": true,
          "internalType": "address",
          "name": "operator",
          "type": "address"
        },
        {
          "indexed": false,
          "internalType": "bool",
          "name": "approved",
          "type": "bool"
        }
      ],
      "name": "ApprovalForAll",
      "type": "event"
    },
    {
      "anonymous": false,
      "inputs": [
        {
          "indexed": true,
          "internalType": "address",
          "name": "previousOwner",
          "type": "address"
        },
        {
          "indexed": true,
          "internalType": "address",
          "name": "newOwner",
          "type": "address"
        }
      ],
      "name": "OwnershipTransferred",
      "type": "event"
    },
    {
      "anonymous": false,
      "inputs": [
        {
          "indexed": true,
          "internalType": "address",
          "name": "operator",
          "type": "address"
        },
        {
          "indexed": true,
          "internalType": "address",
          "name": "from",
          "type": "address"
        },
        {
          "indexed": true,
          "internalType": "address",
          "name": "to",
          "type": "address"
        },
        {
          "indexed": false,
          "internalType": "uint256[]",
          "name": "ids",
          "type": "uint256[]"
        },
        {
          "indexed": false,
          "internalType": "uint256[]",
          "name": "values",
          "type": "uint256[]"
        }
      ],
      "name": "TransferBatch",
      "type": "event"
    },
    {
      "anonymous": false,
      "inputs": [
        {
          "indexed": true,
          "internalType": "address",
          "name": "operator",
          "type": "address"
        },
        {
          "indexed": true,
          "internalType": "address",
          "name": "from",
          "type": "address"
        },
        {
          "indexed": true,
          "internalType": "address",
          "name": "to",
          "type": "address"
        },
        {
          "indexed": false,
          "internalType": "uint256",
          "name": "id",
          "type": "uint256"
        },
        {
          "indexed": false,
          "internalType": "uint256",
          "name": "value",
          "type": "uint256"
        }
      ],
      "name": "TransferSingle",
      "type": "event"
    },
    {
      "anonymous": false,
      "inputs": [
        {
          "indexed": false,
          "internalType": "string",
          "name": "value",
          "type": "string"
        },
        {
          "indexed": true,
          "internalType": "uint256",
          "name": "id",
          "type": "uint256"
        }
      ],
      "name": "URI",
      "type": "event"
    },
    {
      "anonymous": false,
      "inputs": [
        {
          "indexed": false,
          "internalType": "address",
          "name": "account",
          "type": "address"
        },
        {
          "indexed": false,
          "internalType": "uint256",
          "name": "tokenId",
          "type": "uint256"
        },
        {
          "indexed": false,
          "internalType": "uint256",
          "name": "amount",
          "type": "uint256"
        },
        {
          "indexed": false,
          "internalType": "uint256",
          "name": "totalPrice",
          "type": "uint256"
        },
        {
          "indexed": false,
          "internalType": "uint256",
          "name": "getTime",
          "type": "uint256"
        },
        {
          "indexed": false,
          "internalType": "string",
          "name": "result",
          "type": "string"
        }
      ],
      "name": "seccessFundding",
      "type": "event"
    },
    {
      "inputs": [],
      "name": "Ftoken",
      "outputs": [
        {
          "internalType": "contract FunddingToken",
          "name": "",
          "type": "address"
        }
      ],
      "stateMutability": "view",
      "type": "function",
      "constant": true
    },
    {
      "inputs": [],
      "name": "Stoken",
      "outputs": [
        {
          "internalType": "contract SaleToken",
          "name": "",
          "type": "address"
        }
      ],
      "stateMutability": "view",
      "type": "function",
      "constant": true
    },
    {
      "inputs": [
        {
          "internalType": "address[]",
          "name": "accounts",
          "type": "address[]"
        },
        {
          "internalType": "uint256[]",
          "name": "ids",
          "type": "uint256[]"
        }
      ],
      "name": "balanceOfBatch",
      "outputs": [
        {
          "internalType": "uint256[]",
          "name": "",
          "type": "uint256[]"
        }
      ],
      "stateMutability": "view",
      "type": "function",
      "constant": true
    },
    {
      "inputs": [
        {
          "internalType": "uint256",
          "name": "",
          "type": "uint256"
        }
      ],
      "name": "ids",
      "outputs": [
        {
          "internalType": "uint256",
          "name": "",
          "type": "uint256"
        }
      ],
      "stateMutability": "view",
      "type": "function",
      "constant": true
    },
    {
      "inputs": [
        {
          "internalType": "address",
          "name": "account",
          "type": "address"
        },
        {
          "internalType": "address",
          "name": "operator",
          "type": "address"
        }
      ],
      "name": "isApprovedForAll",
      "outputs": [
        {
          "internalType": "bool",
          "name": "",
          "type": "bool"
        }
      ],
      "stateMutability": "view",
      "type": "function",
      "constant": true
    },
    {
      "inputs": [],
      "name": "owner",
      "outputs": [
        {
          "internalType": "address",
          "name": "",
          "type": "address"
        }
      ],
      "stateMutability": "view",
      "type": "function",
      "constant": true
    },
    {
      "inputs": [],
      "name": "renounceOwnership",
      "outputs": [],
      "stateMutability": "nonpayable",
      "type": "function"
    },
    {
      "inputs": [
        {
          "internalType": "address",
          "name": "from",
          "type": "address"
        },
        {
          "internalType": "address",
          "name": "to",
          "type": "address"
        },
        {
          "internalType": "uint256[]",
          "name": "ids",
          "type": "uint256[]"
        },
        {
          "internalType": "uint256[]",
          "name": "amounts",
          "type": "uint256[]"
        },
        {
          "internalType": "bytes",
          "name": "data",
          "type": "bytes"
        }
      ],
      "name": "safeBatchTransferFrom",
      "outputs": [],
      "stateMutability": "nonpayable",
      "type": "function"
    },
    {
      "inputs": [
        {
          "internalType": "address",
          "name": "from",
          "type": "address"
        },
        {
          "internalType": "address",
          "name": "to",
          "type": "address"
        },
        {
          "internalType": "uint256",
          "name": "id",
          "type": "uint256"
        },
        {
          "internalType": "uint256",
          "name": "amount",
          "type": "uint256"
        },
        {
          "internalType": "bytes",
          "name": "data",
          "type": "bytes"
        }
      ],
      "name": "safeTransferFrom",
      "outputs": [],
      "stateMutability": "nonpayable",
      "type": "function"
    },
    {
      "inputs": [
        {
          "internalType": "address",
          "name": "operator",
          "type": "address"
        },
        {
          "internalType": "bool",
          "name": "approved",
          "type": "bool"
        }
      ],
      "name": "setApprovalForAll",
      "outputs": [],
      "stateMutability": "nonpayable",
      "type": "function"
    },
    {
      "inputs": [
        {
          "internalType": "bytes4",
          "name": "interfaceId",
          "type": "bytes4"
        }
      ],
      "name": "supportsInterface",
      "outputs": [
        {
          "internalType": "bool",
          "name": "",
          "type": "bool"
        }
      ],
      "stateMutability": "view",
      "type": "function",
      "constant": true
    },
    {
      "inputs": [
        {
          "internalType": "uint256",
          "name": "",
          "type": "uint256"
        }
      ],
      "name": "tokenOwners",
      "outputs": [
        {
          "internalType": "address",
          "name": "Creater",
          "type": "address"
        },
        {
          "internalType": "uint256",
          "name": "NftAmount",
          "type": "uint256"
        },
        {
          "internalType": "uint256",
          "name": "TotalPrice",
          "type": "uint256"
        },
        {
          "internalType": "uint256",
          "name": "UnitPrice",
          "type": "uint256"
        },
        {
          "internalType": "uint256",
          "name": "EndTime",
          "type": "uint256"
        },
        {
          "internalType": "bool",
          "name": "isSuccess",
          "type": "bool"
        }
      ],
      "stateMutability": "view",
      "type": "function",
      "constant": true
    },
    {
      "inputs": [
        {
          "internalType": "address",
          "name": "newOwner",
          "type": "address"
        }
      ],
      "name": "transferOwnership",
      "outputs": [],
      "stateMutability": "nonpayable",
      "type": "function"
    },
    {
      "inputs": [
        {
          "internalType": "uint256",
          "name": "",
          "type": "uint256"
        }
      ],
      "name": "uri",
      "outputs": [
        {
          "internalType": "string",
          "name": "",
          "type": "string"
        }
      ],
      "stateMutability": "view",
      "type": "function",
      "constant": true
    },
    {
      "inputs": [
        {
          "internalType": "uint256",
          "name": "",
          "type": "uint256"
        },
        {
          "internalType": "uint256",
          "name": "",
          "type": "uint256"
        }
      ],
      "name": "voting",
      "outputs": [
        {
          "internalType": "address",
          "name": "account",
          "type": "address"
        },
        {
          "internalType": "uint256",
          "name": "Amount",
          "type": "uint256"
        },
        {
          "internalType": "bool",
          "name": "result",
          "type": "bool"
        }
      ],
      "stateMutability": "view",
      "type": "function",
      "constant": true
    },
    {
      "inputs": [
        {
          "internalType": "uint256",
          "name": "",
          "type": "uint256"
        }
      ],
      "name": "votingCount",
      "outputs": [
        {
          "internalType": "uint256",
          "name": "",
          "type": "uint256"
        }
      ],
      "stateMutability": "view",
      "type": "function",
      "constant": true
    },
    {
      "inputs": [
        {
          "internalType": "uint256",
          "name": "",
          "type": "uint256"
        }
      ],
      "name": "votingDate",
      "outputs": [
        {
          "internalType": "uint256",
          "name": "time",
          "type": "uint256"
        },
        {
          "internalType": "uint256",
          "name": "date",
          "type": "uint256"
        }
      ],
      "stateMutability": "view",
      "type": "function",
      "constant": true
    },
    {
      "inputs": [
        {
          "internalType": "address",
          "name": "account",
          "type": "address"
        },
        {
          "internalType": "uint256",
          "name": "tokenId",
          "type": "uint256"
        }
      ],
      "name": "balanceOf",
      "outputs": [
        {
          "internalType": "uint256",
          "name": "",
          "type": "uint256"
        }
      ],
      "stateMutability": "view",
      "type": "function",
      "constant": true
    },
    {
      "inputs": [],
      "name": "idsView",
      "outputs": [
        {
          "internalType": "uint256[]",
          "name": "",
          "type": "uint256[]"
        }
      ],
      "stateMutability": "view",
      "type": "function",
      "constant": true
    },
    {
      "inputs": [
        {
          "internalType": "address",
          "name": "account",
          "type": "address"
        },
        {
          "internalType": "address",
          "name": "funddingTokenCA",
          "type": "address"
        },
        {
          "internalType": "uint256",
          "name": "tokenId",
          "type": "uint256"
        },
        {
          "internalType": "uint256",
          "name": "amount",
          "type": "uint256"
        },
        {
          "internalType": "uint256",
          "name": "totalPrice",
          "type": "uint256"
        },
        {
          "internalType": "uint256",
          "name": "getTime",
          "type": "uint256"
        },
        {
          "internalType": "string",
          "name": "metadata",
          "type": "string"
        }
      ],
      "name": "mintFundding",
      "outputs": [],
      "stateMutability": "nonpayable",
      "type": "function"
    },
    {
      "inputs": [
        {
          "internalType": "uint256",
          "name": "tokenId",
          "type": "uint256"
        },
        {
          "internalType": "uint256",
          "name": "date",
          "type": "uint256"
        },
        {
          "internalType": "uint256",
          "name": "changeDay",
          "type": "uint256"
        }
      ],
      "name": "startVoting",
      "outputs": [],
      "stateMutability": "nonpayable",
      "type": "function"
    },
    {
      "inputs": [
        {
          "internalType": "uint256",
          "name": "tokenId",
          "type": "uint256"
        },
        {
          "internalType": "bool",
          "name": "governance",
          "type": "bool"
        }
      ],
      "name": "isVoting",
      "outputs": [],
      "stateMutability": "nonpayable",
      "type": "function"
    },
    {
      "inputs": [
        {
          "internalType": "uint256",
          "name": "tokenId",
          "type": "uint256"
        },
        {
          "internalType": "bool",
          "name": "result",
          "type": "bool"
        }
      ],
      "name": "endVoting",
      "outputs": [],
      "stateMutability": "nonpayable",
      "type": "function"
    },
    {
      "inputs": [
        {
          "internalType": "uint256",
          "name": "tokenId",
          "type": "uint256"
        }
      ],
      "name": "getVotingDate",
      "outputs": [
        {
          "internalType": "uint256",
          "name": "",
          "type": "uint256"
        }
      ],
      "stateMutability": "view",
      "type": "function",
      "constant": true
    },
    {
      "inputs": [
        {
          "internalType": "uint256",
          "name": "tokenId",
          "type": "uint256"
        }
      ],
      "name": "getVotingCount",
      "outputs": [
        {
          "internalType": "uint256",
          "name": "",
          "type": "uint256"
        }
      ],
      "stateMutability": "view",
      "type": "function",
      "constant": true
    },
    {
      "inputs": [
        {
          "internalType": "uint256",
          "name": "tokenId",
          "type": "uint256"
        },
        {
          "internalType": "uint256",
          "name": "votingNum",
          "type": "uint256"
        }
      ],
      "name": "getVoting",
      "outputs": [
        {
          "components": [
            {
              "internalType": "address",
              "name": "account",
              "type": "address"
            },
            {
              "internalType": "uint256",
              "name": "Amount",
              "type": "uint256"
            },
            {
              "internalType": "bool",
              "name": "result",
              "type": "bool"
            }
          ],
          "internalType": "struct DtsToken.votingData",
          "name": "",
          "type": "tuple"
        }
      ],
      "stateMutability": "view",
      "type": "function",
      "constant": true
    },
    {
      "inputs": [
        {
          "internalType": "uint256",
          "name": "tokenId",
          "type": "uint256"
        }
      ],
      "name": "getTokenOwnerData",
      "outputs": [
        {
          "components": [
            {
              "internalType": "address",
              "name": "Creater",
              "type": "address"
            },
            {
              "internalType": "uint256",
              "name": "NftAmount",
              "type": "uint256"
            },
            {
              "internalType": "uint256",
              "name": "TotalPrice",
              "type": "uint256"
            },
            {
              "internalType": "uint256",
              "name": "UnitPrice",
              "type": "uint256"
            },
            {
              "internalType": "uint256",
              "name": "EndTime",
              "type": "uint256"
            },
            {
              "internalType": "bool",
              "name": "isSuccess",
              "type": "bool"
            }
          ],
          "internalType": "struct DtsToken.tokenOwnerData",
          "name": "",
          "type": "tuple"
        }
      ],
      "stateMutability": "view",
      "type": "function",
      "constant": true
    },
    {
      "inputs": [
        {
          "internalType": "uint256",
          "name": "tokenId",
          "type": "uint256"
        }
      ],
      "name": "isFunddingSuccess",
      "outputs": [],
      "stateMutability": "nonpayable",
      "type": "function"
    },
    {
      "inputs": [
        {
          "internalType": "uint256",
          "name": "tokenId",
          "type": "uint256"
        }
      ],
      "name": "isFunddingFalsed",
      "outputs": [],
      "stateMutability": "nonpayable",
      "type": "function"
    },
    {
      "inputs": [
        {
          "internalType": "address",
          "name": "saleCA",
          "type": "address"
        },
        {
          "internalType": "uint256",
          "name": "tokenId",
          "type": "uint256"
        },
        {
          "internalType": "uint256",
          "name": "amount",
          "type": "uint256"
        },
        {
          "internalType": "uint256",
          "name": "price",
          "type": "uint256"
        }
      ],
      "name": "isSalesToken",
      "outputs": [],
      "stateMutability": "nonpayable",
      "type": "function"
    },
    {
      "inputs": [
        {
          "internalType": "address",
          "name": "saleCA",
          "type": "address"
        }
      ],
      "name": "saleApprovalFalse",
      "outputs": [],
      "stateMutability": "nonpayable",
      "type": "function"
    },
    {
      "inputs": [
        {
          "internalType": "address",
          "name": "account",
          "type": "address"
        },
        {
          "internalType": "uint256",
          "name": "tokenId",
          "type": "uint256"
        },
        {
          "internalType": "uint256",
          "name": "amount",
          "type": "uint256"
        }
      ],
      "name": "faildBurn",
      "outputs": [],
      "stateMutability": "nonpayable",
      "type": "function"
    },
    {
      "inputs": [
        {
          "internalType": "address",
          "name": "account",
          "type": "address"
        }
      ],
      "name": "isFunddingCA",
      "outputs": [],
      "stateMutability": "nonpayable",
      "type": "function"
    },
    {
      "inputs": [
        {
          "internalType": "address",
          "name": "account",
          "type": "address"
        }
      ],
      "name": "isSaleCA",
      "outputs": [],
      "stateMutability": "nonpayable",
      "type": "function"
    },
    {
      "inputs": [
        {
          "internalType": "uint256",
          "name": "tokenId",
          "type": "uint256"
        }
      ],
      "name": "tokenURI",
      "outputs": [
        {
          "internalType": "string",
          "name": "",
          "type": "string"
        }
      ],
      "stateMutability": "view",
      "type": "function",
      "constant": true
    }
  ],
  "bytecode": "0x60806040523480156200001157600080fd5b506040518060200160405280600081525062000033816200005a60201b60201c565b5062000054620000486200006f60201b60201c565b6200007760201b60201c565b6200049e565b80600290816200006b9190620003b7565b5050565b600033905090565b6000600360009054906101000a900473ffffffffffffffffffffffffffffffffffffffff16905081600360006101000a81548173ffffffffffffffffffffffffffffffffffffffff021916908373ffffffffffffffffffffffffffffffffffffffff1602179055508173ffffffffffffffffffffffffffffffffffffffff168173ffffffffffffffffffffffffffffffffffffffff167f8be0079c531659141344cd1fd0a4f28419497f9722a3daafe3b4186f6b6457e060405160405180910390a35050565b600081519050919050565b7f4e487b7100000000000000000000000000000000000000000000000000000000600052604160045260246000fd5b7f4e487b7100000000000000000000000000000000000000000000000000000000600052602260045260246000fd5b60006002820490506001821680620001bf57607f821691505b602082108103620001d557620001d462000177565b5b50919050565b60008190508160005260206000209050919050565b60006020601f8301049050919050565b600082821b905092915050565b6000600883026200023f7fffffffffffffffffffffffffffffffffffffffffffffffffffffffffffffffff8262000200565b6200024b868362000200565b95508019841693508086168417925050509392505050565b6000819050919050565b6000819050919050565b600062000298620002926200028c8462000263565b6200026d565b62000263565b9050919050565b6000819050919050565b620002b48362000277565b620002cc620002c3826200029f565b8484546200020d565b825550505050565b600090565b620002e3620002d4565b620002f0818484620002a9565b505050565b5b8181101562000318576200030c600082620002d9565b600181019050620002f6565b5050565b601f82111562000367576200033181620001db565b6200033c84620001f0565b810160208510156200034c578190505b620003646200035b85620001f0565b830182620002f5565b50505b505050565b600082821c905092915050565b60006200038c600019846008026200036c565b1980831691505092915050565b6000620003a7838362000379565b9150826002028217905092915050565b620003c2826200013d565b67ffffffffffffffff811115620003de57620003dd62000148565b5b620003ea8254620001a6565b620003f78282856200031c565b600060209050601f8311600181146200042f57600084156200041a578287015190505b62000426858262000399565b86555062000496565b601f1984166200043f86620001db565b60005b82811015620004695784890151825560018201915060208501945060208101905062000442565b8683101562000489578489015162000485601f89168262000379565b8355505b6001600288020188555050505b505050505050565b61598b80620004ae6000396000f3fe608060405234801561001057600080fd5b50600436106102105760003560e01c80638da5cb5b11610125578063d68ad7a0116100ad578063f2fde38b1161007c578063f2fde38b1461065a578063f4a3a92b14610676578063f8a14f4614610692578063fac333ac146106c7578063fcc1ff5c146106f757610210565b8063d68ad7a0146105c2578063e29be1a1146105f2578063e985e9c51461060e578063f242432a1461063e57610210565b8063beb9eb30116100f4578063beb9eb301461050c578063c31f4b5814610528578063c87b56dd14610544578063cfaad27c14610574578063d198cc01146105a657610210565b80638da5cb5b146104865780639d835c5f146104a4578063a22cb465146104c0578063aee4a42a146104dc57610210565b806346a0d50a116101a857806361b1b23c1161017757806361b1b23c146103f4578063715018a614610412578063773790821461041c5780637abfee42146104385780638d63193d1461045657610210565b806346a0d50a146103485780634b77f8d0146103785780634e1273f4146103945780634f4eacd8146103c457610210565b80632374fdcf116101e45780632374fdcf146102d65780632eb2c2d6146102f2578063325d20c41461030e5780634672a6021461032c57610210565b8062fdd58e1461021557806301ffc9a7146102455780630e89341c146102755780630fe2a68d146102a5575b600080fd5b61022f600480360381019061022a9190613492565b610713565b60405161023c91906134e1565b60405180910390f35b61025f600480360381019061025a9190613554565b610727565b60405161026c919061359c565b60405180910390f35b61028f600480360381019061028a91906135b7565b610809565b60405161029c9190613674565b60405180910390f35b6102bf60048036038101906102ba91906135b7565b61089d565b6040516102cd929190613696565b60405180910390f35b6102f060048036038101906102eb91906135b7565b6108c1565b005b61030c600480360381019061030791906138bc565b610a32565b005b610316610ad3565b60405161032391906139ea565b60405180910390f35b61034660048036038101906103419190613a05565b610af9565b005b610362600480360381019061035d9190613a32565b610bab565b60405161036f9190613ae1565b60405180910390f35b610392600480360381019061038d9190613a05565b610c65565b005b6103ae60048036038101906103a99190613bbf565b610c73565b6040516103bb9190613ce6565b60405180910390f35b6103de60048036038101906103d991906135b7565b610d8c565b6040516103eb91906134e1565b60405180910390f35b6103fc610dac565b6040516104099190613d29565b60405180910390f35b61041a610dd2565b005b61043660048036038101906104319190613d44565b610e5a565b005b610440610ec4565b60405161044d9190613ce6565b60405180910390f35b610470600480360381019061046b91906135b7565b610f1c565b60405161047d9190613e12565b60405180910390f35b61048e610fe2565b60405161049b9190613e3c565b60405180910390f35b6104be60048036038101906104b99190613ef8565b61100c565b005b6104da60048036038101906104d59190613fe2565b61127f565b005b6104f660048036038101906104f191906135b7565b611295565b60405161050391906134e1565b60405180910390f35b61052660048036038101906105219190614022565b6112b2565b005b610542600480360381019061053d91906135b7565b61141c565b005b61055e600480360381019061055991906135b7565b61158d565b60405161056b9190613674565b60405180910390f35b61058e60048036038101906105899190613a32565b611632565b60405161059d93929190614075565b60405180910390f35b6105c060048036038101906105bb91906140ac565b611696565b005b6105dc60048036038101906105d791906135b7565b611815565b6040516105e991906134e1565b60405180910390f35b61060c60048036038101906106079190613a05565b61182d565b005b610628600480360381019061062391906140ec565b6119b1565b604051610635919061359c565b60405180910390f35b6106586004803603810190610653919061412c565b611a45565b005b610674600480360381019061066f9190613a05565b611ae6565b005b610690600480360381019061068b91906141c3565b611bdd565b005b6106ac60048036038101906106a791906135b7565b611c81565b6040516106be9695949392919061422a565b60405180910390f35b6106e160048036038101906106dc91906135b7565b611cea565b6040516106ee91906134e1565b60405180910390f35b610711600480360381019061070c91906140ac565b611d0e565b005b600061071f838361210d565b905092915050565b60007fd9b67a26000000000000000000000000000000000000000000000000000000007bffffffffffffffffffffffffffffffffffffffffffffffffffffffff1916827bffffffffffffffffffffffffffffffffffffffffffffffffffffffff191614806107f257507f0e89341c000000000000000000000000000000000000000000000000000000007bffffffffffffffffffffffffffffffffffffffffffffffffffffffff1916827bffffffffffffffffffffffffffffffffffffffffffffffffffffffff1916145b806108025750610801826121d5565b5b9050919050565b606060028054610818906142ba565b80601f0160208091040260200160405190810160405280929190818152602001828054610844906142ba565b80156108915780601f1061086657610100808354040283529160200191610891565b820191906000526020600020905b81548152906001019060200180831161087457829003601f168201915b50505050509050919050565b600b6020528060005260406000206000915090508060000154908060010154905082565b60006109036008600084815260200190815260200160002060000160009054906101000a900473ffffffffffffffffffffffffffffffffffffffff168361210d565b11610943576040517f08c379a000000000000000000000000000000000000000000000000000000000815260040161093a90614337565b60405180910390fd5b6008600082815260200190815260200160002060010154600660009054906101000a900473ffffffffffffffffffffffffffffffffffffffff1673ffffffffffffffffffffffffffffffffffffffff166349e5465c836040518263ffffffff1660e01b81526004016109b591906134e1565b602060405180830381865afa1580156109d2573d6000803e3d6000fd5b505050506040513d601f19601f820116820180604052508101906109f6919061436c565b03610a0057600080fd5b60006008600083815260200190815260200160002060050160006101000a81548160ff02191690831515021790555050565b610a3a61223f565b73ffffffffffffffffffffffffffffffffffffffff168573ffffffffffffffffffffffffffffffffffffffff161480610a805750610a7f85610a7a61223f565b6119b1565b5b610abf576040517f08c379a0000000000000000000000000000000000000000000000000000000008152600401610ab69061440b565b60405180910390fd5b610acc8585858585612247565b5050505050565b600660009054906101000a900473ffffffffffffffffffffffffffffffffffffffff1681565b3373ffffffffffffffffffffffffffffffffffffffff168173ffffffffffffffffffffffffffffffffffffffff1614610b67576040517f08c379a0000000000000000000000000000000000000000000000000000000008152600401610b5e90614477565b60405180910390fd5b80600760006101000a81548173ffffffffffffffffffffffffffffffffffffffff021916908373ffffffffffffffffffffffffffffffffffffffff16021790555050565b610bb3613363565b6009600084815260200190815260200160002060008381526020019081526020016000206040518060600160405290816000820160009054906101000a900473ffffffffffffffffffffffffffffffffffffffff1673ffffffffffffffffffffffffffffffffffffffff1673ffffffffffffffffffffffffffffffffffffffff168152602001600182015481526020016002820160009054906101000a900460ff161515151581525050905092915050565b610c7081600061127f565b50565b60608151835114610cb9576040517f08c379a0000000000000000000000000000000000000000000000000000000008152600401610cb090614509565b60405180910390fd5b6000835167ffffffffffffffff811115610cd657610cd56136c4565b5b604051908082528060200260200182016040528015610d045781602001602082028036833780820191505090505b50905060005b8451811015610d8157610d51858281518110610d2957610d28614529565b5b6020026020010151858381518110610d4457610d43614529565b5b6020026020010151610713565b828281518110610d6457610d63614529565b5b60200260200101818152505080610d7a90614587565b9050610d0a565b508091505092915050565b6000600b6000838152602001908152602001600020600001549050919050565b600760009054906101000a900473ffffffffffffffffffffffffffffffffffffffff1681565b610dda61223f565b73ffffffffffffffffffffffffffffffffffffffff16610df8610fe2565b73ffffffffffffffffffffffffffffffffffffffff1614610e4e576040517f08c379a0000000000000000000000000000000000000000000000000000000008152600401610e459061461b565b60405180910390fd5b610e586000612568565b565b600560009054906101000a900473ffffffffffffffffffffffffffffffffffffffff1673ffffffffffffffffffffffffffffffffffffffff163373ffffffffffffffffffffffffffffffffffffffff1614610eb457600080fd5b610ebf83838361262e565b505050565b60606004805480602002602001604051908101604052809291908181526020018280548015610f1257602002820191906000526020600020905b815481526020019060010190808311610efe575b5050505050905090565b610f2461339c565b600860008381526020019081526020016000206040518060c00160405290816000820160009054906101000a900473ffffffffffffffffffffffffffffffffffffffff1673ffffffffffffffffffffffffffffffffffffffff1673ffffffffffffffffffffffffffffffffffffffff168152602001600182015481526020016002820154815260200160038201548152602001600482015481526020016005820160009054906101000a900460ff1615151515815250509050919050565b6000600360009054906101000a900473ffffffffffffffffffffffffffffffffffffffff16905090565b6000600860008781526020019081526020016000206001015414611065576040517f08c379a000000000000000000000000000000000000000000000000000000000815260040161105c90614687565b60405180910390fd5b3373ffffffffffffffffffffffffffffffffffffffff168773ffffffffffffffffffffffffffffffffffffffff16146110d3576040517f08c379a00000000000000000000000000000000000000000000000000000000081526004016110ca906146f3565b60405180910390fd5b60006040518060400160405280601381526020017f66756e6464696e672069732073656363657373000000000000000000000000008152509050600061111b89878787612874565b9050806008600089815260200190815260200160002060008201518160000160006101000a81548173ffffffffffffffffffffffffffffffffffffffff021916908373ffffffffffffffffffffffffffffffffffffffff1602179055506020820151816001015560408201518160020155606082015181600301556080820151816004015560a08201518160050160006101000a81548160ff0219169083151502179055509050506111de89888860405180602001604052806000815250612951565b6111e988600161127f565b600487908060018154018082558091505060019003906000526020600020016000909190919091505582600c6000898152602001908152602001600020908161123291906148b5565b507f8bdc0347739a882305e00b5fa613e8629b5da77a48abac45661315c45619c54833888888888760405161126c96959493929190614987565b60405180910390a1505050505050505050565b61129161128a61223f565b8383612b01565b5050565b6000600a6000838152602001908152602001600020549050919050565b60006112be338561210d565b036112fe576040517f08c379a00000000000000000000000000000000000000000000000000000000081526004016112f590614a3b565b60405180910390fd5b6201518060086000858152602001908152602001600020600401546113239190614a5b565b824261132f9190614a8f565b1161136f576040517f08c379a000000000000000000000000000000000000000000000000000000000815260040161136690614b43565b60405180910390fd5b6000600b600085815260200190815260200160002060000154036113c8576040517f08c379a00000000000000000000000000000000000000000000000000000000081526004016113bf90614baf565b60405180910390fd5b81620151806113d79190614a8f565b426113e29190614bcf565b600b60008581526020019081526020016000206000018190555080600b600085815260200190815260200160002060010181905550505050565b600061145e6008600084815260200190815260200160002060000160009054906101000a900473ffffffffffffffffffffffffffffffffffffffff168361210d565b1461149e576040517f08c379a000000000000000000000000000000000000000000000000000000000815260040161149590614c4f565b60405180910390fd5b6008600082815260200190815260200160002060010154600660009054906101000a900473ffffffffffffffffffffffffffffffffffffffff1673ffffffffffffffffffffffffffffffffffffffff166349e5465c836040518263ffffffff1660e01b815260040161151091906134e1565b602060405180830381865afa15801561152d573d6000803e3d6000fd5b505050506040513d601f19601f82011682018060405250810190611551919061436c565b1461155b57600080fd5b60016008600083815260200190815260200160002060050160006101000a81548160ff02191690831515021790555050565b6060600c600083815260200190815260200160002080546115ad906142ba565b80601f01602080910402602001604051908101604052809291908181526020018280546115d9906142ba565b80156116265780601f106115fb57610100808354040283529160200191611626565b820191906000526020600020905b81548152906001019060200180831161160957829003601f168201915b50505050509050919050565b6009602052816000526040600020602052806000526040600020600091509150508060000160009054906101000a900473ffffffffffffffffffffffffffffffffffffffff16908060010154908060020160009054906101000a900460ff16905083565b42600b600084815260200190815260200160002060000154106116ee576040517f08c379a00000000000000000000000000000000000000000000000000000000081526004016116e590614cbb565b60405180910390fd5b60006116fa338461210d565b0361173a576040517f08c379a000000000000000000000000000000000000000000000000000000000815260040161173190614d27565b60405180910390fd5b600115156008600084815260200190815260200160002060050160009054906101000a900460ff161515036117a4576040517f08c379a000000000000000000000000000000000000000000000000000000000815260040161179b90614d93565b60405180910390fd5b600115158115150361181157600b600083815260200190815260200160002060010154620151806117d59190614a8f565b60086000848152602001908152602001600020600401546117f69190614bcf565b60086000848152602001908152602001600020600401819055505b5050565b600a6020528060005260406000206000915090505481565b3373ffffffffffffffffffffffffffffffffffffffff168173ffffffffffffffffffffffffffffffffffffffff161461189b576040517f08c379a000000000000000000000000000000000000000000000000000000000815260040161189290614dff565b60405180910390fd5b600073ffffffffffffffffffffffffffffffffffffffff16600560009054906101000a900473ffffffffffffffffffffffffffffffffffffffff1673ffffffffffffffffffffffffffffffffffffffff161461192c576040517f08c379a000000000000000000000000000000000000000000000000000000000815260040161192390614e6b565b60405180910390fd5b80600560006101000a81548173ffffffffffffffffffffffffffffffffffffffff021916908373ffffffffffffffffffffffffffffffffffffffff16021790555080600660006101000a81548173ffffffffffffffffffffffffffffffffffffffff021916908373ffffffffffffffffffffffffffffffffffffffff16021790555050565b6000600160008473ffffffffffffffffffffffffffffffffffffffff1673ffffffffffffffffffffffffffffffffffffffff16815260200190815260200160002060008373ffffffffffffffffffffffffffffffffffffffff1673ffffffffffffffffffffffffffffffffffffffff16815260200190815260200160002060009054906101000a900460ff16905092915050565b611a4d61223f565b73ffffffffffffffffffffffffffffffffffffffff168573ffffffffffffffffffffffffffffffffffffffff161480611a935750611a9285611a8d61223f565b6119b1565b5b611ad2576040517f08c379a0000000000000000000000000000000000000000000000000000000008152600401611ac990614efd565b60405180910390fd5b611adf8585858585612c6d565b5050505050565b611aee61223f565b73ffffffffffffffffffffffffffffffffffffffff16611b0c610fe2565b73ffffffffffffffffffffffffffffffffffffffff1614611b62576040517f08c379a0000000000000000000000000000000000000000000000000000000008152600401611b599061461b565b60405180910390fd5b600073ffffffffffffffffffffffffffffffffffffffff168173ffffffffffffffffffffffffffffffffffffffff1603611bd1576040517f08c379a0000000000000000000000000000000000000000000000000000000008152600401611bc890614f8f565b60405180910390fd5b611bda81612568565b50565b600760009054906101000a900473ffffffffffffffffffffffffffffffffffffffff1673ffffffffffffffffffffffffffffffffffffffff166323dc2e65338585856040518563ffffffff1660e01b8152600401611c3e9493929190614faf565b600060405180830381600087803b158015611c5857600080fd5b505af1158015611c6c573d6000803e3d6000fd5b50505050611c7b84600161127f565b50505050565b60086020528060005260406000206000915090508060000160009054906101000a900473ffffffffffffffffffffffffffffffffffffffff16908060010154908060020154908060030154908060040154908060050160009054906101000a900460ff16905086565b60048181548110611cfa57600080fd5b906000526020600020016000915090505481565b6000611d1a338461210d565b03611d5a576040517f08c379a0000000000000000000000000000000000000000000000000000000008152600401611d5190614d27565b60405180910390fd5b600b600083815260200190815260200160002060000154421115611db3576040517f08c379a0000000000000000000000000000000000000000000000000000000008152600401611daa90615040565b60405180910390fd5b3373ffffffffffffffffffffffffffffffffffffffff166008600084815260200190815260200160002060000160009054906101000a900473ffffffffffffffffffffffffffffffffffffffff1673ffffffffffffffffffffffffffffffffffffffff1603611e57576040517f08c379a0000000000000000000000000000000000000000000000000000000008152600401611e4e906150d2565b60405180910390fd5b6000611e63338461210d565b9050600080600190505b600a6000868152602001908152602001600020548111611fe4573373ffffffffffffffffffffffffffffffffffffffff1660096000878152602001908152602001600020600083815260200190815260200160002060000160009054906101000a900473ffffffffffffffffffffffffffffffffffffffff1673ffffffffffffffffffffffffffffffffffffffff1603611fd15760405180606001604052803373ffffffffffffffffffffffffffffffffffffffff16815260200184815260200185151581525060096000878152602001908152602001600020600083815260200190815260200160002060008201518160000160006101000a81548173ffffffffffffffffffffffffffffffffffffffff021916908373ffffffffffffffffffffffffffffffffffffffff1602179055506020820151816001015560408201518160020160006101000a81548160ff021916908315150217905550905050600191505b8080611fdc90614587565b915050611e6d565b506000151581151503612107576001600a6000868152602001908152602001600020546120119190614bcf565b600a60008681526020019081526020016000208190555060405180606001604052803373ffffffffffffffffffffffffffffffffffffffff168152602001838152602001841515815250600960008681526020019081526020016000206000600a600088815260200190815260200160002054815260200190815260200160002060008201518160000160006101000a81548173ffffffffffffffffffffffffffffffffffffffff021916908373ffffffffffffffffffffffffffffffffffffffff1602179055506020820151816001015560408201518160020160006101000a81548160ff0219169083151502179055509050505b50505050565b60008073ffffffffffffffffffffffffffffffffffffffff168373ffffffffffffffffffffffffffffffffffffffff160361217d576040517f08c379a000000000000000000000000000000000000000000000000000000000815260040161217490615164565b60405180910390fd5b60008083815260200190815260200160002060008473ffffffffffffffffffffffffffffffffffffffff1673ffffffffffffffffffffffffffffffffffffffff16815260200190815260200160002054905092915050565b60007f01ffc9a7000000000000000000000000000000000000000000000000000000007bffffffffffffffffffffffffffffffffffffffffffffffffffffffff1916827bffffffffffffffffffffffffffffffffffffffffffffffffffffffff1916149050919050565b600033905090565b815183511461228b576040517f08c379a0000000000000000000000000000000000000000000000000000000008152600401612282906151f6565b60405180910390fd5b600073ffffffffffffffffffffffffffffffffffffffff168473ffffffffffffffffffffffffffffffffffffffff16036122fa576040517f08c379a00000000000000000000000000000000000000000000000000000000081526004016122f190615288565b60405180910390fd5b600061230461223f565b9050612314818787878787612f08565b60005b84518110156124c557600085828151811061233557612334614529565b5b60200260200101519050600085838151811061235457612353614529565b5b60200260200101519050600080600084815260200190815260200160002060008b73ffffffffffffffffffffffffffffffffffffffff1673ffffffffffffffffffffffffffffffffffffffff168152602001908152602001600020549050818110156123f5576040517f08c379a00000000000000000000000000000000000000000000000000000000081526004016123ec9061531a565b60405180910390fd5b81810360008085815260200190815260200160002060008c73ffffffffffffffffffffffffffffffffffffffff1673ffffffffffffffffffffffffffffffffffffffff168152602001908152602001600020819055508160008085815260200190815260200160002060008b73ffffffffffffffffffffffffffffffffffffffff1673ffffffffffffffffffffffffffffffffffffffff16815260200190815260200160002060008282546124aa9190614bcf565b92505081905550505050806124be90614587565b9050612317565b508473ffffffffffffffffffffffffffffffffffffffff168673ffffffffffffffffffffffffffffffffffffffff168273ffffffffffffffffffffffffffffffffffffffff167f4a39dc06d4c0dbc64b70af90fd698a233a518aa5d07e595d983b8c0526c8f7fb878760405161253c92919061533a565b60405180910390a4612552818787878787612f10565b612560818787878787612f18565b505050505050565b6000600360009054906101000a900473ffffffffffffffffffffffffffffffffffffffff16905081600360006101000a81548173ffffffffffffffffffffffffffffffffffffffff021916908373ffffffffffffffffffffffffffffffffffffffff1602179055508173ffffffffffffffffffffffffffffffffffffffff168173ffffffffffffffffffffffffffffffffffffffff167f8be0079c531659141344cd1fd0a4f28419497f9722a3daafe3b4186f6b6457e060405160405180910390a35050565b600073ffffffffffffffffffffffffffffffffffffffff168373ffffffffffffffffffffffffffffffffffffffff160361269d576040517f08c379a0000000000000000000000000000000000000000000000000000000008152600401612694906153e3565b60405180910390fd5b60006126a761223f565b905060006126b4846130ef565b905060006126c1846130ef565b90506126e183876000858560405180602001604052806000815250612f08565b600080600087815260200190815260200160002060008873ffffffffffffffffffffffffffffffffffffffff1673ffffffffffffffffffffffffffffffffffffffff16815260200190815260200160002054905084811015612778576040517f08c379a000000000000000000000000000000000000000000000000000000000815260040161276f90615475565b60405180910390fd5b84810360008088815260200190815260200160002060008973ffffffffffffffffffffffffffffffffffffffff1673ffffffffffffffffffffffffffffffffffffffff16815260200190815260200160002081905550600073ffffffffffffffffffffffffffffffffffffffff168773ffffffffffffffffffffffffffffffffffffffff168573ffffffffffffffffffffffffffffffffffffffff167fc3d58168c5ae7397731d063d5bbf3d657854427343f4c083240f7aacaa2d0f628989604051612845929190613696565b60405180910390a461286b84886000868660405180602001604052806000815250612f10565b50505050505050565b61287c61339c565b61288461339c565b600085670de0b6b3a76400008661289b9190614a8f565b6128a591906154c4565b905086826000019073ffffffffffffffffffffffffffffffffffffffff16908173ffffffffffffffffffffffffffffffffffffffff168152505085826020018181525050670de0b6b3a7640000856128fd9190614a8f565b82604001818152505080826060018181525050836201518061291f9190614a8f565b4261292a9190614bcf565b82608001818152505060008260a00190151590811515815250508192505050949350505050565b600073ffffffffffffffffffffffffffffffffffffffff168473ffffffffffffffffffffffffffffffffffffffff16036129c0576040517f08c379a00000000000000000000000000000000000000000000000000000000081526004016129b790615567565b60405180910390fd5b60006129ca61223f565b905060006129d7856130ef565b905060006129e4856130ef565b90506129f583600089858589612f08565b8460008088815260200190815260200160002060008973ffffffffffffffffffffffffffffffffffffffff1673ffffffffffffffffffffffffffffffffffffffff1681526020019081526020016000206000828254612a549190614bcf565b925050819055508673ffffffffffffffffffffffffffffffffffffffff16600073ffffffffffffffffffffffffffffffffffffffff168473ffffffffffffffffffffffffffffffffffffffff167fc3d58168c5ae7397731d063d5bbf3d657854427343f4c083240f7aacaa2d0f628989604051612ad2929190613696565b60405180910390a4612ae983600089858589612f10565b612af883600089898989613169565b50505050505050565b8173ffffffffffffffffffffffffffffffffffffffff168373ffffffffffffffffffffffffffffffffffffffff1603612b6f576040517f08c379a0000000000000000000000000000000000000000000000000000000008152600401612b66906155f9565b60405180910390fd5b80600160008573ffffffffffffffffffffffffffffffffffffffff1673ffffffffffffffffffffffffffffffffffffffff16815260200190815260200160002060008473ffffffffffffffffffffffffffffffffffffffff1673ffffffffffffffffffffffffffffffffffffffff16815260200190815260200160002060006101000a81548160ff0219169083151502179055508173ffffffffffffffffffffffffffffffffffffffff168373ffffffffffffffffffffffffffffffffffffffff167f17307eab39ab6107e8899845ad3d59bd9653f200f220920489ca2b5937696c3183604051612c60919061359c565b60405180910390a3505050565b600073ffffffffffffffffffffffffffffffffffffffff168473ffffffffffffffffffffffffffffffffffffffff1603612cdc576040517f08c379a0000000000000000000000000000000000000000000000000000000008152600401612cd390615288565b60405180910390fd5b6000612ce661223f565b90506000612cf3856130ef565b90506000612d00856130ef565b9050612d10838989858589612f08565b600080600088815260200190815260200160002060008a73ffffffffffffffffffffffffffffffffffffffff1673ffffffffffffffffffffffffffffffffffffffff16815260200190815260200160002054905085811015612da7576040517f08c379a0000000000000000000000000000000000000000000000000000000008152600401612d9e9061531a565b60405180910390fd5b85810360008089815260200190815260200160002060008b73ffffffffffffffffffffffffffffffffffffffff1673ffffffffffffffffffffffffffffffffffffffff168152602001908152602001600020819055508560008089815260200190815260200160002060008a73ffffffffffffffffffffffffffffffffffffffff1673ffffffffffffffffffffffffffffffffffffffff1681526020019081526020016000206000828254612e5c9190614bcf565b925050819055508773ffffffffffffffffffffffffffffffffffffffff168973ffffffffffffffffffffffffffffffffffffffff168573ffffffffffffffffffffffffffffffffffffffff167fc3d58168c5ae7397731d063d5bbf3d657854427343f4c083240f7aacaa2d0f628a8a604051612ed9929190613696565b60405180910390a4612eef848a8a86868a612f10565b612efd848a8a8a8a8a613169565b505050505050505050565b505050505050565b505050505050565b612f378473ffffffffffffffffffffffffffffffffffffffff16613340565b156130e7578373ffffffffffffffffffffffffffffffffffffffff1663bc197c8187878686866040518663ffffffff1660e01b8152600401612f7d95949392919061566e565b6020604051808303816000875af1925050508015612fb957506040513d601f19601f82011682018060405250810190612fb691906156eb565b60015b61305e57612fc5615725565b806308c379a0036130215750612fd9615747565b80612fe45750613023565b806040517f08c379a00000000000000000000000000000000000000000000000000000000081526004016130189190613674565b60405180910390fd5b505b6040517f08c379a000000000000000000000000000000000000000000000000000000000815260040161305590615849565b60405180910390fd5b63bc197c8160e01b7bffffffffffffffffffffffffffffffffffffffffffffffffffffffff1916817bffffffffffffffffffffffffffffffffffffffffffffffffffffffff1916146130e5576040517f08c379a00000000000000000000000000000000000000000000000000000000081526004016130dc906158db565b60405180910390fd5b505b505050505050565b60606000600167ffffffffffffffff81111561310e5761310d6136c4565b5b60405190808252806020026020018201604052801561313c5781602001602082028036833780820191505090505b509050828160008151811061315457613153614529565b5b60200260200101818152505080915050919050565b6131888473ffffffffffffffffffffffffffffffffffffffff16613340565b15613338578373ffffffffffffffffffffffffffffffffffffffff1663f23a6e6187878686866040518663ffffffff1660e01b81526004016131ce9594939291906158fb565b6020604051808303816000875af192505050801561320a57506040513d601f19601f8201168201806040525081019061320791906156eb565b60015b6132af57613216615725565b806308c379a003613272575061322a615747565b806132355750613274565b806040517f08c379a00000000000000000000000000000000000000000000000000000000081526004016132699190613674565b60405180910390fd5b505b6040517f08c379a00000000000000000000000000000000000000000000000000000000081526004016132a690615849565b60405180910390fd5b63f23a6e6160e01b7bffffffffffffffffffffffffffffffffffffffffffffffffffffffff1916817bffffffffffffffffffffffffffffffffffffffffffffffffffffffff191614613336576040517f08c379a000000000000000000000000000000000000000000000000000000000815260040161332d906158db565b60405180910390fd5b505b505050505050565b6000808273ffffffffffffffffffffffffffffffffffffffff163b119050919050565b6040518060600160405280600073ffffffffffffffffffffffffffffffffffffffff168152602001600081526020016000151581525090565b6040518060c00160405280600073ffffffffffffffffffffffffffffffffffffffff168152602001600081526020016000815260200160008152602001600081526020016000151581525090565b6000604051905090565b600080fd5b600080fd5b600073ffffffffffffffffffffffffffffffffffffffff82169050919050565b6000613429826133fe565b9050919050565b6134398161341e565b811461344457600080fd5b50565b60008135905061345681613430565b92915050565b6000819050919050565b61346f8161345c565b811461347a57600080fd5b50565b60008135905061348c81613466565b92915050565b600080604083850312156134a9576134a86133f4565b5b60006134b785828601613447565b92505060206134c88582860161347d565b9150509250929050565b6134db8161345c565b82525050565b60006020820190506134f660008301846134d2565b92915050565b60007fffffffff0000000000000000000000000000000000000000000000000000000082169050919050565b613531816134fc565b811461353c57600080fd5b50565b60008135905061354e81613528565b92915050565b60006020828403121561356a576135696133f4565b5b60006135788482850161353f565b91505092915050565b60008115159050919050565b61359681613581565b82525050565b60006020820190506135b1600083018461358d565b92915050565b6000602082840312156135cd576135cc6133f4565b5b60006135db8482850161347d565b91505092915050565b600081519050919050565b600082825260208201905092915050565b60005b8381101561361e578082015181840152602081019050613603565b60008484015250505050565b6000601f19601f8301169050919050565b6000613646826135e4565b61365081856135ef565b9350613660818560208601613600565b6136698161362a565b840191505092915050565b6000602082019050818103600083015261368e818461363b565b905092915050565b60006040820190506136ab60008301856134d2565b6136b860208301846134d2565b9392505050565b600080fd5b7f4e487b7100000000000000000000000000000000000000000000000000000000600052604160045260246000fd5b6136fc8261362a565b810181811067ffffffffffffffff8211171561371b5761371a6136c4565b5b80604052505050565b600061372e6133ea565b905061373a82826136f3565b919050565b600067ffffffffffffffff82111561375a576137596136c4565b5b602082029050602081019050919050565b600080fd5b600061378361377e8461373f565b613724565b905080838252602082019050602084028301858111156137a6576137a561376b565b5b835b818110156137cf57806137bb888261347d565b8452602084019350506020810190506137a8565b5050509392505050565b600082601f8301126137ee576137ed6136bf565b5b81356137fe848260208601613770565b91505092915050565b600080fd5b600067ffffffffffffffff821115613827576138266136c4565b5b6138308261362a565b9050602081019050919050565b82818337600083830152505050565b600061385f61385a8461380c565b613724565b90508281526020810184848401111561387b5761387a613807565b5b61388684828561383d565b509392505050565b600082601f8301126138a3576138a26136bf565b5b81356138b384826020860161384c565b91505092915050565b600080600080600060a086880312156138d8576138d76133f4565b5b60006138e688828901613447565b95505060206138f788828901613447565b945050604086013567ffffffffffffffff811115613918576139176133f9565b5b613924888289016137d9565b935050606086013567ffffffffffffffff811115613945576139446133f9565b5b613951888289016137d9565b925050608086013567ffffffffffffffff811115613972576139716133f9565b5b61397e8882890161388e565b9150509295509295909350565b6000819050919050565b60006139b06139ab6139a6846133fe565b61398b565b6133fe565b9050919050565b60006139c282613995565b9050919050565b60006139d4826139b7565b9050919050565b6139e4816139c9565b82525050565b60006020820190506139ff60008301846139db565b92915050565b600060208284031215613a1b57613a1a6133f4565b5b6000613a2984828501613447565b91505092915050565b60008060408385031215613a4957613a486133f4565b5b6000613a578582860161347d565b9250506020613a688582860161347d565b9150509250929050565b613a7b8161341e565b82525050565b613a8a8161345c565b82525050565b613a9981613581565b82525050565b606082016000820151613ab56000850182613a72565b506020820151613ac86020850182613a81565b506040820151613adb6040850182613a90565b50505050565b6000606082019050613af66000830184613a9f565b92915050565b600067ffffffffffffffff821115613b1757613b166136c4565b5b602082029050602081019050919050565b6000613b3b613b3684613afc565b613724565b90508083825260208201905060208402830185811115613b5e57613b5d61376b565b5b835b81811015613b875780613b738882613447565b845260208401935050602081019050613b60565b5050509392505050565b600082601f830112613ba657613ba56136bf565b5b8135613bb6848260208601613b28565b91505092915050565b60008060408385031215613bd657613bd56133f4565b5b600083013567ffffffffffffffff811115613bf457613bf36133f9565b5b613c0085828601613b91565b925050602083013567ffffffffffffffff811115613c2157613c206133f9565b5b613c2d858286016137d9565b9150509250929050565b600081519050919050565b600082825260208201905092915050565b6000819050602082019050919050565b6000613c6f8383613a81565b60208301905092915050565b6000602082019050919050565b6000613c9382613c37565b613c9d8185613c42565b9350613ca883613c53565b8060005b83811015613cd9578151613cc08882613c63565b9750613ccb83613c7b565b925050600181019050613cac565b5085935050505092915050565b60006020820190508181036000830152613d008184613c88565b905092915050565b6000613d13826139b7565b9050919050565b613d2381613d08565b82525050565b6000602082019050613d3e6000830184613d1a565b92915050565b600080600060608486031215613d5d57613d5c6133f4565b5b6000613d6b86828701613447565b9350506020613d7c8682870161347d565b9250506040613d8d8682870161347d565b9150509250925092565b60c082016000820151613dad6000850182613a72565b506020820151613dc06020850182613a81565b506040820151613dd36040850182613a81565b506060820151613de66060850182613a81565b506080820151613df96080850182613a81565b5060a0820151613e0c60a0850182613a90565b50505050565b600060c082019050613e276000830184613d97565b92915050565b613e368161341e565b82525050565b6000602082019050613e516000830184613e2d565b92915050565b600067ffffffffffffffff821115613e7257613e716136c4565b5b613e7b8261362a565b9050602081019050919050565b6000613e9b613e9684613e57565b613724565b905082815260208101848484011115613eb757613eb6613807565b5b613ec284828561383d565b509392505050565b600082601f830112613edf57613ede6136bf565b5b8135613eef848260208601613e88565b91505092915050565b600080600080600080600060e0888a031215613f1757613f166133f4565b5b6000613f258a828b01613447565b9750506020613f368a828b01613447565b9650506040613f478a828b0161347d565b9550506060613f588a828b0161347d565b9450506080613f698a828b0161347d565b93505060a0613f7a8a828b0161347d565b92505060c088013567ffffffffffffffff811115613f9b57613f9a6133f9565b5b613fa78a828b01613eca565b91505092959891949750929550565b613fbf81613581565b8114613fca57600080fd5b50565b600081359050613fdc81613fb6565b92915050565b60008060408385031215613ff957613ff86133f4565b5b600061400785828601613447565b925050602061401885828601613fcd565b9150509250929050565b60008060006060848603121561403b5761403a6133f4565b5b60006140498682870161347d565b935050602061405a8682870161347d565b925050604061406b8682870161347d565b9150509250925092565b600060608201905061408a6000830186613e2d565b61409760208301856134d2565b6140a4604083018461358d565b949350505050565b600080604083850312156140c3576140c26133f4565b5b60006140d18582860161347d565b92505060206140e285828601613fcd565b9150509250929050565b60008060408385031215614103576141026133f4565b5b600061411185828601613447565b925050602061412285828601613447565b9150509250929050565b600080600080600060a08688031215614148576141476133f4565b5b600061415688828901613447565b955050602061416788828901613447565b94505060406141788882890161347d565b93505060606141898882890161347d565b925050608086013567ffffffffffffffff8111156141aa576141a96133f9565b5b6141b68882890161388e565b9150509295509295909350565b600080600080608085870312156141dd576141dc6133f4565b5b60006141eb87828801613447565b94505060206141fc8782880161347d565b935050604061420d8782880161347d565b925050606061421e8782880161347d565b91505092959194509250565b600060c08201905061423f6000830189613e2d565b61424c60208301886134d2565b61425960408301876134d2565b61426660608301866134d2565b61427360808301856134d2565b61428060a083018461358d565b979650505050505050565b7f4e487b7100000000000000000000000000000000000000000000000000000000600052602260045260246000fd5b600060028204905060018216806142d257607f821691505b6020821081036142e5576142e461428b565b5b50919050565b7f4973206974206e6f7420736f6c64206f75743f00000000000000000000000000600082015250565b60006143216013836135ef565b915061432c826142eb565b602082019050919050565b6000602082019050818103600083015261435081614314565b9050919050565b60008151905061436681613466565b92915050565b600060208284031215614382576143816133f4565b5b600061439084828501614357565b91505092915050565b7f455243313135353a207472616e736665722063616c6c6572206973206e6f742060008201527f6f776e6572206e6f7220617070726f7665640000000000000000000000000000602082015250565b60006143f56032836135ef565b915061440082614399565b604082019050919050565b60006020820190508181036000830152614424816143e8565b9050919050565b7f53616c6543413f3f3f3f00000000000000000000000000000000000000000000600082015250565b6000614461600a836135ef565b915061446c8261442b565b602082019050919050565b6000602082019050818103600083015261449081614454565b9050919050565b7f455243313135353a206163636f756e747320616e6420696473206c656e67746860008201527f206d69736d617463680000000000000000000000000000000000000000000000602082015250565b60006144f36029836135ef565b91506144fe82614497565b604082019050919050565b60006020820190508181036000830152614522816144e6565b9050919050565b7f4e487b7100000000000000000000000000000000000000000000000000000000600052603260045260246000fd5b7f4e487b7100000000000000000000000000000000000000000000000000000000600052601160045260246000fd5b60006145928261345c565b91507fffffffffffffffffffffffffffffffffffffffffffffffffffffffffffffffff82036145c4576145c3614558565b5b600182019050919050565b7f4f776e61626c653a2063616c6c6572206973206e6f7420746865206f776e6572600082015250565b60006146056020836135ef565b9150614610826145cf565b602082019050919050565b60006020820190508181036000830152614634816145f8565b9050919050565b7f6861766520616c7265616479206265656e206973737565640000000000000000600082015250565b60006146716018836135ef565b915061467c8261463b565b602082019050919050565b600060208201905081810360008301526146a081614664565b9050919050565b7f49742773206e6f7420796f752e00000000000000000000000000000000000000600082015250565b60006146dd600d836135ef565b91506146e8826146a7565b602082019050919050565b6000602082019050818103600083015261470c816146d0565b9050919050565b60008190508160005260206000209050919050565b60006020601f8301049050919050565b600082821b905092915050565b6000600883026147757fffffffffffffffffffffffffffffffffffffffffffffffffffffffffffffffff82614738565b61477f8683614738565b95508019841693508086168417925050509392505050565b60006147b26147ad6147a88461345c565b61398b565b61345c565b9050919050565b6000819050919050565b6147cc83614797565b6147e06147d8826147b9565b848454614745565b825550505050565b600090565b6147f56147e8565b6148008184846147c3565b505050565b5b81811015614824576148196000826147ed565b600181019050614806565b5050565b601f8211156148695761483a81614713565b61484384614728565b81016020851015614852578190505b61486661485e85614728565b830182614805565b50505b505050565b600082821c905092915050565b600061488c6000198460080261486e565b1980831691505092915050565b60006148a5838361487b565b9150826002028217905092915050565b6148be826135e4565b67ffffffffffffffff8111156148d7576148d66136c4565b5b6148e182546142ba565b6148ec828285614828565b600060209050601f83116001811461491f576000841561490d578287015190505b6149178582614899565b86555061497f565b601f19841661492d86614713565b60005b8281101561495557848901518255600182019150602085019450602081019050614930565b86831015614972578489015161496e601f89168261487b565b8355505b6001600288020188555050505b505050505050565b600060c08201905061499c6000830189613e2d565b6149a960208301886134d2565b6149b660408301876134d2565b6149c360608301866134d2565b6149d060808301856134d2565b81810360a08301526149e2818461363b565b9050979650505050505050565b7f6e6f20616d6f756e742e00000000000000000000000000000000000000000000600082015250565b6000614a25600a836135ef565b9150614a30826149ef565b602082019050919050565b60006020820190508181036000830152614a5481614a18565b9050919050565b6000614a668261345c565b9150614a718361345c565b9250828203905081811115614a8957614a88614558565b5b92915050565b6000614a9a8261345c565b9150614aa58361345c565b9250828202614ab38161345c565b91508282048414831517614aca57614ac9614558565b5b5092915050565b7f54686520766f74696e6720706572696f64206973206d6178696d756d20756e7460008201527f696c206f6e6520646179206265666f72652e0000000000000000000000000000602082015250565b6000614b2d6032836135ef565b9150614b3882614ad1565b604082019050919050565b60006020820190508181036000830152614b5c81614b20565b9050919050565b7f546865726520697320616c7265616479206120766f74652e0000000000000000600082015250565b6000614b996018836135ef565b9150614ba482614b63565b602082019050919050565b60006020820190508181036000830152614bc881614b8c565b9050919050565b6000614bda8261345c565b9150614be58361345c565b9250828201905080821115614bfd57614bfc614558565b5b92915050565b7f497320697420736f6c64206f75743f0000000000000000000000000000000000600082015250565b6000614c39600f836135ef565b9150614c4482614c03565b602082019050919050565b60006020820190508181036000830152614c6881614c2c565b9050919050565b7f54696d65204f75743f0000000000000000000000000000000000000000000000600082015250565b6000614ca56009836135ef565b9150614cb082614c6f565b602082019050919050565b60006020820190508181036000830152614cd481614c98565b9050919050565b7f6e6f20616d6f756e740000000000000000000000000000000000000000000000600082015250565b6000614d116009836135ef565b9150614d1c82614cdb565b602082019050919050565b60006020820190508181036000830152614d4081614d04565b9050919050565b7f656e642046756e6464696e673f00000000000000000000000000000000000000600082015250565b6000614d7d600d836135ef565b9150614d8882614d47565b602082019050919050565b60006020820190508181036000830152614dac81614d70565b9050919050565b7f46756e6464696e6743413f3f3f3f000000000000000000000000000000000000600082015250565b6000614de9600e836135ef565b9150614df482614db3565b602082019050919050565b60006020820190508181036000830152614e1881614ddc565b9050919050565b7f52756e206f6e6365206f6e6c7920696e2074686520626567696e6e696e670000600082015250565b6000614e55601e836135ef565b9150614e6082614e1f565b602082019050919050565b60006020820190508181036000830152614e8481614e48565b9050919050565b7f455243313135353a2063616c6c6572206973206e6f74206f776e6572206e6f7260008201527f20617070726f7665640000000000000000000000000000000000000000000000602082015250565b6000614ee76029836135ef565b9150614ef282614e8b565b604082019050919050565b60006020820190508181036000830152614f1681614eda565b9050919050565b7f4f776e61626c653a206e6577206f776e657220697320746865207a65726f206160008201527f6464726573730000000000000000000000000000000000000000000000000000602082015250565b6000614f796026836135ef565b9150614f8482614f1d565b604082019050919050565b60006020820190508181036000830152614fa881614f6c565b9050919050565b6000608082019050614fc46000830187613e2d565b614fd160208301866134d2565b614fde60408301856134d2565b614feb60608301846134d2565b95945050505050565b7f54696d65204f7574000000000000000000000000000000000000000000000000600082015250565b600061502a6008836135ef565b915061503582614ff4565b602082019050919050565b600060208201905081810360008301526150598161501d565b9050919050565b7f43726561746f727320617265206e6f7420616c6c6f77656420746f207061727460008201527f6963697061746500000000000000000000000000000000000000000000000000602082015250565b60006150bc6027836135ef565b91506150c782615060565b604082019050919050565b600060208201905081810360008301526150eb816150af565b9050919050565b7f455243313135353a2062616c616e636520717565727920666f7220746865207a60008201527f65726f2061646472657373000000000000000000000000000000000000000000602082015250565b600061514e602b836135ef565b9150615159826150f2565b604082019050919050565b6000602082019050818103600083015261517d81615141565b9050919050565b7f455243313135353a2069647320616e6420616d6f756e7473206c656e6774682060008201527f6d69736d61746368000000000000000000000000000000000000000000000000602082015250565b60006151e06028836135ef565b91506151eb82615184565b604082019050919050565b6000602082019050818103600083015261520f816151d3565b9050919050565b7f455243313135353a207472616e7366657220746f20746865207a65726f20616460008201527f6472657373000000000000000000000000000000000000000000000000000000602082015250565b60006152726025836135ef565b915061527d82615216565b604082019050919050565b600060208201905081810360008301526152a181615265565b9050919050565b7f455243313135353a20696e73756666696369656e742062616c616e636520666f60008201527f72207472616e7366657200000000000000000000000000000000000000000000602082015250565b6000615304602a836135ef565b915061530f826152a8565b604082019050919050565b60006020820190508181036000830152615333816152f7565b9050919050565b600060408201905081810360008301526153548185613c88565b905081810360208301526153688184613c88565b90509392505050565b7f455243313135353a206275726e2066726f6d20746865207a65726f206164647260008201527f6573730000000000000000000000000000000000000000000000000000000000602082015250565b60006153cd6023836135ef565b91506153d882615371565b604082019050919050565b600060208201905081810360008301526153fc816153c0565b9050919050565b7f455243313135353a206275726e20616d6f756e7420657863656564732062616c60008201527f616e636500000000000000000000000000000000000000000000000000000000602082015250565b600061545f6024836135ef565b915061546a82615403565b604082019050919050565b6000602082019050818103600083015261548e81615452565b9050919050565b7f4e487b7100000000000000000000000000000000000000000000000000000000600052601260045260246000fd5b60006154cf8261345c565b91506154da8361345c565b9250826154ea576154e9615495565b5b828204905092915050565b7f455243313135353a206d696e7420746f20746865207a65726f2061646472657360008201527f7300000000000000000000000000000000000000000000000000000000000000602082015250565b60006155516021836135ef565b915061555c826154f5565b604082019050919050565b6000602082019050818103600083015261558081615544565b9050919050565b7f455243313135353a2073657474696e6720617070726f76616c2073746174757360008201527f20666f722073656c660000000000000000000000000000000000000000000000602082015250565b60006155e36029836135ef565b91506155ee82615587565b604082019050919050565b60006020820190508181036000830152615612816155d6565b9050919050565b600081519050919050565b600082825260208201905092915050565b600061564082615619565b61564a8185615624565b935061565a818560208601613600565b6156638161362a565b840191505092915050565b600060a0820190506156836000830188613e2d565b6156906020830187613e2d565b81810360408301526156a28186613c88565b905081810360608301526156b68185613c88565b905081810360808301526156ca8184615635565b90509695505050505050565b6000815190506156e581613528565b92915050565b600060208284031215615701576157006133f4565b5b600061570f848285016156d6565b91505092915050565b60008160e01c9050919050565b600060033d11156157445760046000803e615741600051615718565b90505b90565b600060443d106157d4576157596133ea565b60043d036004823e80513d602482011167ffffffffffffffff821117156157815750506157d4565b808201805167ffffffffffffffff81111561579f57505050506157d4565b80602083010160043d0385018111156157bc5750505050506157d4565b6157cb826020018501866136f3565b82955050505050505b90565b7f455243313135353a207472616e7366657220746f206e6f6e204552433131353560008201527f526563656976657220696d706c656d656e746572000000000000000000000000602082015250565b60006158336034836135ef565b915061583e826157d7565b604082019050919050565b6000602082019050818103600083015261586281615826565b9050919050565b7f455243313135353a204552433131353552656365697665722072656a6563746560008201527f6420746f6b656e73000000000000000000000000000000000000000000000000602082015250565b60006158c56028836135ef565b91506158d082615869565b604082019050919050565b600060208201905081810360008301526158f4816158b8565b9050919050565b600060a0820190506159106000830188613e2d565b61591d6020830187613e2d565b61592a60408301866134d2565b61593760608301856134d2565b81810360808301526159498184615635565b9050969550505050505056fea2646970667358221220b390f7308d1b715bbe9b1eaee969fff6450e8847ddfcb0c027773b1951416ca264736f6c63430008110033",
  "immutableReferences": {},
  "source": "// SPDX-License-Identifier: MIT\r\npragma solidity ^0.8.17;\r\n\r\nimport \"../node_modules/openzeppelin-solidity/contracts/token/ERC1155/extensions/ERC1155Burnable.sol\";\r\nimport \"../node_modules/openzeppelin-solidity/contracts/token/ERC1155/ERC1155.sol\";\r\nimport \"../node_modules/openzeppelin-solidity/contracts/access/Ownable.sol\";\r\n// import \"@openzeppelin/contracts/token/ERC1155/extensions/ERC1155Burnable.sol\";\r\n// import \"@openzeppelin/contracts/token/ERC1155/ERC1155.sol\";\r\n// import \"@openzeppelin/contracts/access/Ownable.sol\";\r\n\r\nimport \"./FunddingToken.sol\";\r\nimport \"./SaleToken.sol\";\r\n\r\n//     owner    EOA  .\r\n\r\ncontract DtsToken is ERC1155, Ownable{\r\n\r\n    constructor() ERC1155(\"\"){\r\n    \r\n    }\r\n\r\n    // // json metadata URI;\r\n    // string public metadataURI;\r\n\r\n    //      \r\n    struct tokenOwnerData{\r\n        //  \r\n        address Creater;\r\n        // nft \r\n        uint256 NftAmount;\r\n        //   ;\r\n        uint256 TotalPrice;\r\n        // nft  \r\n        uint256 UnitPrice;\r\n        //  \r\n        uint256 EndTime;\r\n        //   \r\n        bool isSuccess;\r\n    }\r\n\r\n    //       \r\n    struct votingData{\r\n        //  \r\n        address account;\r\n        // \r\n        uint256 Amount;\r\n        //  \r\n        bool result;\r\n    }\r\n    \r\n    //     \r\n    struct votingDay{\r\n        //   \r\n        uint256 time;\r\n        //   \r\n        uint256 date;\r\n    }\r\n    \r\n    //    nft  \r\n    // ids[]    .       balance. \r\n    uint256[] public ids;\r\n\r\n    // FunddingTokenCA  \r\n    address private _funddingCA;\r\n\r\n    FunddingToken public Ftoken;\r\n\r\n    // SaleTokenCA  \r\n    SaleToken public Stoken;\r\n\r\n    //     ,  , , NFT ,      \r\n    mapping(uint256 => tokenOwnerData) public tokenOwners;\r\n\r\n    //  \r\n    mapping(uint256 => mapping(uint256 => votingData)) public voting;\r\n\r\n    //      \r\n    mapping (uint256 => uint256) public votingCount;\r\n\r\n    //   \r\n    mapping (uint256 => votingDay) public votingDate;\r\n\r\n    //  uri  \r\n     mapping (uint256=>string) metadataURL;\r\n\r\n    //    \r\n    event seccessFundding(address account, uint256 tokenId, uint256 amount, uint256 totalPrice, uint256 getTime, string result);\r\n\r\n    //  nft \r\n    function balanceOf(address account, uint256 tokenId) public view override returns (uint) {\r\n        return ERC1155.balanceOf(account, tokenId);\r\n    }\r\n\r\n    //    nft tokenId    \r\n    function idsView() public view returns(uint256[] memory){\r\n        return ids;\r\n    }\r\n    \r\n\r\n    //   NFT    \r\n    // msg.sender       CA         .\r\n    function mintFundding(address account, address funddingTokenCA, uint256 tokenId, uint256 amount, uint256 totalPrice, uint256 getTime, string memory metadata) public{\r\n        // nft    \r\n        require(tokenOwners[tokenId].NftAmount == 0, \"have already been issued\");\r\n        //     .\r\n        require(account == msg.sender, \"It's not you.\");\r\n        //    \r\n        string memory result = \"fundding is seccess\";\r\n        \r\n        //     .\r\n        tokenOwnerData memory data = _getFunddingData(account,amount,totalPrice,getTime);\r\n        //     Id .\r\n        tokenOwners[tokenId] = data;\r\n        // nft \r\n        ERC1155._mint(account, tokenId, amount, \"\");\r\n        //   NFT  CA .\r\n        ERC1155.setApprovalForAll(funddingTokenCA, true);\r\n        ids.push(tokenId);\r\n\r\n        //  uri  \r\n        metadataURL[tokenId] = metadata;\r\n        // mintFundding  \r\n        emit seccessFundding(msg.sender, tokenId, amount, totalPrice, getTime, result);\r\n    }\r\n\r\n    //      \r\n    function _getFunddingData(address _account, uint256 _amount, uint256 _totalPrice, uint256 _getTime) private view returns(tokenOwnerData memory){\r\n        tokenOwnerData memory data;\r\n        uint256 _unitPrice = (_totalPrice * (10 ** 18)) /  _amount;\r\n        data.Creater = _account;\r\n        data.NftAmount = _amount;\r\n        data.TotalPrice = _totalPrice *(10 ** 18);\r\n        data.UnitPrice = _unitPrice;\r\n        data.EndTime = block.timestamp + (86400 * _getTime);\r\n        data.isSuccess = false;\r\n        \r\n        return data;\r\n    }\r\n\r\n    //   \r\n    function startVoting(uint256 tokenId, uint256 date, uint256 changeDay) public{\r\n        // nft       .\r\n        require(ERC1155.balanceOf(msg.sender, tokenId) != 0, \"no amount.\");\r\n        //     \r\n        require(block.timestamp * date > tokenOwners[tokenId].EndTime - 86400,\"The voting period is maximum until one day before.\");\r\n        //     \r\n        require(votingDate[tokenId].time != 0, \"There is already a vote.\");\r\n        \r\n        votingDate[tokenId].time = block.timestamp + (86400 * date);\r\n        votingDate[tokenId].date = changeDay;\r\n    }\r\n\r\n    //    \r\n    function isVoting(uint256 tokenId, bool governance) public{\r\n        // nft   \r\n        require(ERC1155.balanceOf(msg.sender, tokenId) != 0, \"no amount\");\r\n        //     \r\n        require(block.timestamp <= votingDate[tokenId].time, \"Time Out\" );\r\n        //   (  )\r\n        require(tokenOwners[tokenId].Creater != msg.sender, \"Creators are not allowed to participate\");\r\n        uint256 amount = ERC1155.balanceOf(msg.sender,tokenId);\r\n        bool result = false;\r\n        for(uint256 i = 1; i <= votingCount[tokenId]; i++){\r\n            if(voting[tokenId][i].account == msg.sender){\r\n                voting[tokenId][i] = votingData({account : msg.sender, Amount : amount, result : governance});\r\n                result = true;\r\n            }\r\n        }\r\n        if(result == false){\r\n        votingCount[tokenId] = votingCount[tokenId] + 1;\r\n        voting[tokenId][votingCount[tokenId]] = votingData({account : msg.sender, Amount : amount, result : governance});\r\n        }\r\n    }\r\n\r\n    //      (      .     nft     .)\r\n    function endVoting(uint256 tokenId, bool result) public{\r\n        //      \r\n        require(votingDate[tokenId].time < block.timestamp,\"Time Out?\");\r\n        // nft  ?\r\n        require(ERC1155.balanceOf(msg.sender, tokenId) != 0, \"no amount\");\r\n        //   \r\n        require(tokenOwners[tokenId].isSuccess != true,\"end Fundding?\");\r\n\r\n        if(result == true){\r\n        tokenOwners[tokenId].EndTime = tokenOwners[tokenId].EndTime + (86400 * votingDate[tokenId].date);\r\n        }\r\n    }\r\n\r\n    //     \r\n    function getVotingDate(uint256 tokenId)public view returns(uint256){\r\n        return votingDate[tokenId].time;\r\n    }\r\n    //      \r\n    function getVotingCount(uint256 tokenId) public view returns(uint256){\r\n        return votingCount[tokenId];\r\n    }\r\n    //   (address amount result)\r\n    function getVoting(uint256 tokenId, uint256 votingNum) public view returns(votingData memory){\r\n        return voting[tokenId][votingNum];\r\n    }\r\n    \r\n    //     \r\n    function getTokenOwnerData(uint256 tokenId) public view returns(tokenOwnerData memory){\r\n        return tokenOwners[tokenId];\r\n    }\r\n\r\n    //        true;\r\n    function isFunddingSuccess(uint256 tokenId) external{\r\n        require(ERC1155.balanceOf(tokenOwners[tokenId].Creater, tokenId) == 0, \"Is it sold out?\");\r\n        require(Ftoken.priceCheck(tokenId) == tokenOwners[tokenId].NftAmount);\r\n        tokenOwners[tokenId].isSuccess = true;\r\n    }\r\n    //           false;\r\n    function isFunddingFalsed(uint256 tokenId) external{\r\n        require(ERC1155.balanceOf(tokenOwners[tokenId].Creater, tokenId) > 0, \"Is it not sold out?\");\r\n        require(Ftoken.priceCheck(tokenId) != tokenOwners[tokenId].NftAmount);\r\n        tokenOwners[tokenId].isSuccess = false;\r\n    }\r\n\r\n    // saleToken   Dtoken .(      )\r\n    //      saleToken   .\r\n    function isSalesToken(address saleCA, uint256 tokenId, uint256 amount, uint256 price) public{\r\n        Stoken.salesToken(msg.sender, tokenId, amount, price);\r\n        // saleCA  \r\n        ERC1155.setApprovalForAll(saleCA, true);\r\n    }\r\n\r\n    // saleToken    \r\n    function saleApprovalFalse(address saleCA) public{\r\n        ERC1155.setApprovalForAll(saleCA, false);\r\n    }\r\n\r\n    //   .(FunddingOwnerOnly    SaleCA    . )\r\n    function faildBurn(address account, uint256 tokenId, uint256 amount) external FunddingOwnerOnly{\r\n        ERC1155._burn(account, tokenId, amount);\r\n    }\r\n\r\n    // FunddingToken        .  (FunddingOwnerOnly     .)\r\n    function isFunddingCA(address account) external {\r\n        require(account == msg.sender,\"FunddingCA????\");\r\n        require(_funddingCA == address(0),\"Run once only in the beginning\");\r\n        _funddingCA = account;\r\n        //   FunddingToken CA  Ftoken  .\r\n        Ftoken = FunddingToken(account);\r\n    }\r\n\r\n    // FunddingToken        . saleCA    \r\n    function isSaleCA(address account) external {\r\n        require(account == msg.sender,\"SaleCA????\");\r\n        //   SaleToken CA  Stoken  .\r\n        Stoken = SaleToken(account);\r\n    }\r\n\r\n    //   SaleCA   \r\n    modifier FunddingOwnerOnly() {\r\n        require(msg.sender == _funddingCA);\r\n        _;\r\n    }\r\n\r\n    //  view\r\n    function tokenURI(uint256 tokenId)public view returns(string memory){\r\n        return metadataURL[tokenId];\r\n    }\r\n\r\n    // // URI      .\r\n    // function setURI(string memory newuri) public onlyOwner {\r\n    //     _setURI(newuri);\r\n    // }\r\n    // // nft json \r\n    // function tokenURI(uint _tokenId) public override view returns (string memory) {\r\n    //     return string(abi.encodePacked(metadataURI, '/', Strings.toString(_tokenId), '.json'));\r\n    // }\r\n}",
  "sourcePath": "C:\\Users\\1225_\\OneDrive\\ \\bell\\contract\\contracts\\DtsToken.sol",
  "compiler": {
    "name": "solc",
    "version": "0.8.17+commit.8df45f5f.Emscripten.clang"
  },
  "schemaVersion": "3.4.11",
  "updatedAt": "2023-02-14T11:19:53.067Z",
  "networkType": "ethereum",
  "devdoc": {
    "kind": "dev",
    "methods": {
      "balanceOfBatch(address[],uint256[])": {
        "details": "See {IERC1155-balanceOfBatch}. Requirements: - `accounts` and `ids` must have the same length."
      },
      "isApprovedForAll(address,address)": {
        "details": "See {IERC1155-isApprovedForAll}."
      },
      "owner()": {
        "details": "Returns the address of the current owner."
      },
      "renounceOwnership()": {
        "details": "Leaves the contract without owner. It will not be possible to call `onlyOwner` functions anymore. Can only be called by the current owner. NOTE: Renouncing ownership will leave the contract without an owner, thereby removing any functionality that is only available to the owner."
      },
      "safeBatchTransferFrom(address,address,uint256[],uint256[],bytes)": {
        "details": "See {IERC1155-safeBatchTransferFrom}."
      },
      "safeTransferFrom(address,address,uint256,uint256,bytes)": {
        "details": "See {IERC1155-safeTransferFrom}."
      },
      "setApprovalForAll(address,bool)": {
        "details": "See {IERC1155-setApprovalForAll}."
      },
      "supportsInterface(bytes4)": {
        "details": "See {IERC165-supportsInterface}."
      },
      "transferOwnership(address)": {
        "details": "Transfers ownership of the contract to a new account (`newOwner`). Can only be called by the current owner."
      },
      "uri(uint256)": {
        "details": "See {IERC1155MetadataURI-uri}. This implementation returns the same URI for *all* token types. It relies on the token type ID substitution mechanism https://eips.ethereum.org/EIPS/eip-1155#metadata[defined in the EIP]. Clients calling this function must replace the `\\{id\\}` substring with the actual token type ID."
      }
    },
    "version": 1
  },
  "userdoc": {
    "kind": "user",
    "methods": {},
    "version": 1
  }
}