{
  "contractName": "DtsToken",
  "abi": [
    {
      "inputs": [],
      "stateMutability": "nonpayable",
      "type": "constructor"
    },
    {
      "anonymous": false,
      "inputs": [
        {
          "indexed": true,
          "internalType": "address",
          "name": "account",
          "type": "address"
        },
        {
          "indexed": true,
          "internalType": "address",
          "name": "operator",
          "type": "address"
        },
        {
          "indexed": false,
          "internalType": "bool",
          "name": "approved",
          "type": "bool"
        }
      ],
      "name": "ApprovalForAll",
      "type": "event"
    },
    {
      "anonymous": false,
      "inputs": [
        {
          "indexed": true,
          "internalType": "address",
          "name": "previousOwner",
          "type": "address"
        },
        {
          "indexed": true,
          "internalType": "address",
          "name": "newOwner",
          "type": "address"
        }
      ],
      "name": "OwnershipTransferred",
      "type": "event"
    },
    {
      "anonymous": false,
      "inputs": [
        {
          "indexed": true,
          "internalType": "address",
          "name": "operator",
          "type": "address"
        },
        {
          "indexed": true,
          "internalType": "address",
          "name": "from",
          "type": "address"
        },
        {
          "indexed": true,
          "internalType": "address",
          "name": "to",
          "type": "address"
        },
        {
          "indexed": false,
          "internalType": "uint256[]",
          "name": "ids",
          "type": "uint256[]"
        },
        {
          "indexed": false,
          "internalType": "uint256[]",
          "name": "values",
          "type": "uint256[]"
        }
      ],
      "name": "TransferBatch",
      "type": "event"
    },
    {
      "anonymous": false,
      "inputs": [
        {
          "indexed": true,
          "internalType": "address",
          "name": "operator",
          "type": "address"
        },
        {
          "indexed": true,
          "internalType": "address",
          "name": "from",
          "type": "address"
        },
        {
          "indexed": true,
          "internalType": "address",
          "name": "to",
          "type": "address"
        },
        {
          "indexed": false,
          "internalType": "uint256",
          "name": "id",
          "type": "uint256"
        },
        {
          "indexed": false,
          "internalType": "uint256",
          "name": "value",
          "type": "uint256"
        }
      ],
      "name": "TransferSingle",
      "type": "event"
    },
    {
      "anonymous": false,
      "inputs": [
        {
          "indexed": false,
          "internalType": "string",
          "name": "value",
          "type": "string"
        },
        {
          "indexed": true,
          "internalType": "uint256",
          "name": "id",
          "type": "uint256"
        }
      ],
      "name": "URI",
      "type": "event"
    },
    {
      "anonymous": false,
      "inputs": [
        {
          "indexed": false,
          "internalType": "address",
          "name": "account",
          "type": "address"
        },
        {
          "indexed": false,
          "internalType": "uint256",
          "name": "tokenId",
          "type": "uint256"
        },
        {
          "indexed": false,
          "internalType": "uint256",
          "name": "amount",
          "type": "uint256"
        },
        {
          "indexed": false,
          "internalType": "uint256",
          "name": "totalPrice",
          "type": "uint256"
        },
        {
          "indexed": false,
          "internalType": "uint256",
          "name": "getTime",
          "type": "uint256"
        },
        {
          "indexed": false,
          "internalType": "string",
          "name": "result",
          "type": "string"
        }
      ],
      "name": "seccessFundding",
      "type": "event"
    },
    {
      "inputs": [],
      "name": "Ftoken",
      "outputs": [
        {
          "internalType": "contract FunddingToken",
          "name": "",
          "type": "address"
        }
      ],
      "stateMutability": "view",
      "type": "function",
      "constant": true
    },
    {
      "inputs": [],
      "name": "Stoken",
      "outputs": [
        {
          "internalType": "contract SaleToken",
          "name": "",
          "type": "address"
        }
      ],
      "stateMutability": "view",
      "type": "function",
      "constant": true
    },
    {
      "inputs": [
        {
          "internalType": "address",
          "name": "account",
          "type": "address"
        },
        {
          "internalType": "uint256",
          "name": "id",
          "type": "uint256"
        }
      ],
      "name": "balanceOf",
      "outputs": [
        {
          "internalType": "uint256",
          "name": "",
          "type": "uint256"
        }
      ],
      "stateMutability": "view",
      "type": "function",
      "constant": true
    },
    {
      "inputs": [
        {
          "internalType": "address[]",
          "name": "accounts",
          "type": "address[]"
        },
        {
          "internalType": "uint256[]",
          "name": "ids",
          "type": "uint256[]"
        }
      ],
      "name": "balanceOfBatch",
      "outputs": [
        {
          "internalType": "uint256[]",
          "name": "",
          "type": "uint256[]"
        }
      ],
      "stateMutability": "view",
      "type": "function",
      "constant": true
    },
    {
      "inputs": [
        {
          "internalType": "uint256",
          "name": "",
          "type": "uint256"
        }
      ],
      "name": "ids",
      "outputs": [
        {
          "internalType": "uint256",
          "name": "",
          "type": "uint256"
        }
      ],
      "stateMutability": "view",
      "type": "function",
      "constant": true
    },
    {
      "inputs": [
        {
          "internalType": "address",
          "name": "account",
          "type": "address"
        },
        {
          "internalType": "address",
          "name": "operator",
          "type": "address"
        }
      ],
      "name": "isApprovedForAll",
      "outputs": [
        {
          "internalType": "bool",
          "name": "",
          "type": "bool"
        }
      ],
      "stateMutability": "view",
      "type": "function",
      "constant": true
    },
    {
      "inputs": [],
      "name": "owner",
      "outputs": [
        {
          "internalType": "address",
          "name": "",
          "type": "address"
        }
      ],
      "stateMutability": "view",
      "type": "function",
      "constant": true
    },
    {
      "inputs": [],
      "name": "renounceOwnership",
      "outputs": [],
      "stateMutability": "nonpayable",
      "type": "function"
    },
    {
      "inputs": [
        {
          "internalType": "address",
          "name": "from",
          "type": "address"
        },
        {
          "internalType": "address",
          "name": "to",
          "type": "address"
        },
        {
          "internalType": "uint256[]",
          "name": "ids",
          "type": "uint256[]"
        },
        {
          "internalType": "uint256[]",
          "name": "amounts",
          "type": "uint256[]"
        },
        {
          "internalType": "bytes",
          "name": "data",
          "type": "bytes"
        }
      ],
      "name": "safeBatchTransferFrom",
      "outputs": [],
      "stateMutability": "nonpayable",
      "type": "function"
    },
    {
      "inputs": [
        {
          "internalType": "address",
          "name": "from",
          "type": "address"
        },
        {
          "internalType": "address",
          "name": "to",
          "type": "address"
        },
        {
          "internalType": "uint256",
          "name": "id",
          "type": "uint256"
        },
        {
          "internalType": "uint256",
          "name": "amount",
          "type": "uint256"
        },
        {
          "internalType": "bytes",
          "name": "data",
          "type": "bytes"
        }
      ],
      "name": "safeTransferFrom",
      "outputs": [],
      "stateMutability": "nonpayable",
      "type": "function"
    },
    {
      "inputs": [
        {
          "internalType": "address",
          "name": "operator",
          "type": "address"
        },
        {
          "internalType": "bool",
          "name": "approved",
          "type": "bool"
        }
      ],
      "name": "setApprovalForAll",
      "outputs": [],
      "stateMutability": "nonpayable",
      "type": "function"
    },
    {
      "inputs": [
        {
          "internalType": "bytes4",
          "name": "interfaceId",
          "type": "bytes4"
        }
      ],
      "name": "supportsInterface",
      "outputs": [
        {
          "internalType": "bool",
          "name": "",
          "type": "bool"
        }
      ],
      "stateMutability": "view",
      "type": "function",
      "constant": true
    },
    {
      "inputs": [
        {
          "internalType": "uint256",
          "name": "",
          "type": "uint256"
        }
      ],
      "name": "tokenOwners",
      "outputs": [
        {
          "internalType": "address",
          "name": "Creater",
          "type": "address"
        },
        {
          "internalType": "uint256",
          "name": "NftAmount",
          "type": "uint256"
        },
        {
          "internalType": "uint256",
          "name": "TotalPrice",
          "type": "uint256"
        },
        {
          "internalType": "uint256",
          "name": "UnitPrice",
          "type": "uint256"
        },
        {
          "internalType": "uint256",
          "name": "EndTime",
          "type": "uint256"
        },
        {
          "internalType": "bool",
          "name": "isSuccess",
          "type": "bool"
        }
      ],
      "stateMutability": "view",
      "type": "function",
      "constant": true
    },
    {
      "inputs": [
        {
          "internalType": "address",
          "name": "newOwner",
          "type": "address"
        }
      ],
      "name": "transferOwnership",
      "outputs": [],
      "stateMutability": "nonpayable",
      "type": "function"
    },
    {
      "inputs": [
        {
          "internalType": "uint256",
          "name": "",
          "type": "uint256"
        }
      ],
      "name": "uri",
      "outputs": [
        {
          "internalType": "string",
          "name": "",
          "type": "string"
        }
      ],
      "stateMutability": "view",
      "type": "function",
      "constant": true
    },
    {
      "inputs": [
        {
          "internalType": "uint256",
          "name": "",
          "type": "uint256"
        },
        {
          "internalType": "uint256",
          "name": "",
          "type": "uint256"
        }
      ],
      "name": "voting",
      "outputs": [
        {
          "internalType": "address",
          "name": "account",
          "type": "address"
        },
        {
          "internalType": "uint256",
          "name": "Amount",
          "type": "uint256"
        },
        {
          "internalType": "bool",
          "name": "result",
          "type": "bool"
        }
      ],
      "stateMutability": "view",
      "type": "function",
      "constant": true
    },
    {
      "inputs": [
        {
          "internalType": "uint256",
          "name": "",
          "type": "uint256"
        }
      ],
      "name": "votingCount",
      "outputs": [
        {
          "internalType": "uint256",
          "name": "",
          "type": "uint256"
        }
      ],
      "stateMutability": "view",
      "type": "function",
      "constant": true
    },
    {
      "inputs": [
        {
          "internalType": "uint256",
          "name": "",
          "type": "uint256"
        }
      ],
      "name": "votingDate",
      "outputs": [
        {
          "internalType": "uint256",
          "name": "time",
          "type": "uint256"
        },
        {
          "internalType": "uint256",
          "name": "date",
          "type": "uint256"
        }
      ],
      "stateMutability": "view",
      "type": "function",
      "constant": true
    },
    {
      "inputs": [
        {
          "internalType": "uint256",
          "name": "tokenId",
          "type": "uint256"
        }
      ],
      "name": "tbalanceOf",
      "outputs": [
        {
          "internalType": "uint256",
          "name": "",
          "type": "uint256"
        }
      ],
      "stateMutability": "view",
      "type": "function",
      "constant": true
    },
    {
      "inputs": [],
      "name": "idsView",
      "outputs": [
        {
          "internalType": "uint256[]",
          "name": "",
          "type": "uint256[]"
        }
      ],
      "stateMutability": "view",
      "type": "function",
      "constant": true
    },
    {
      "inputs": [
        {
          "internalType": "address",
          "name": "account",
          "type": "address"
        },
        {
          "internalType": "address",
          "name": "funddingTokenCA",
          "type": "address"
        },
        {
          "internalType": "uint256",
          "name": "tokenId",
          "type": "uint256"
        },
        {
          "internalType": "uint256",
          "name": "amount",
          "type": "uint256"
        },
        {
          "internalType": "uint256",
          "name": "totalPrice",
          "type": "uint256"
        },
        {
          "internalType": "uint256",
          "name": "getTime",
          "type": "uint256"
        },
        {
          "internalType": "string",
          "name": "metadata",
          "type": "string"
        }
      ],
      "name": "mintFundding",
      "outputs": [],
      "stateMutability": "nonpayable",
      "type": "function"
    },
    {
      "inputs": [
        {
          "internalType": "uint256",
          "name": "tokenId",
          "type": "uint256"
        },
        {
          "internalType": "uint256",
          "name": "date",
          "type": "uint256"
        },
        {
          "internalType": "uint256",
          "name": "changeDay",
          "type": "uint256"
        }
      ],
      "name": "startVoting",
      "outputs": [],
      "stateMutability": "nonpayable",
      "type": "function"
    },
    {
      "inputs": [
        {
          "internalType": "uint256",
          "name": "tokenId",
          "type": "uint256"
        },
        {
          "internalType": "bool",
          "name": "governance",
          "type": "bool"
        }
      ],
      "name": "isVoting",
      "outputs": [],
      "stateMutability": "nonpayable",
      "type": "function"
    },
    {
      "inputs": [
        {
          "internalType": "uint256",
          "name": "tokenId",
          "type": "uint256"
        },
        {
          "internalType": "bool",
          "name": "result",
          "type": "bool"
        }
      ],
      "name": "endVoting",
      "outputs": [],
      "stateMutability": "nonpayable",
      "type": "function"
    },
    {
      "inputs": [
        {
          "internalType": "uint256",
          "name": "tokenId",
          "type": "uint256"
        }
      ],
      "name": "getVotingDate",
      "outputs": [
        {
          "internalType": "uint256",
          "name": "",
          "type": "uint256"
        }
      ],
      "stateMutability": "view",
      "type": "function",
      "constant": true
    },
    {
      "inputs": [
        {
          "internalType": "uint256",
          "name": "tokenId",
          "type": "uint256"
        }
      ],
      "name": "getVotingCount",
      "outputs": [
        {
          "internalType": "uint256",
          "name": "",
          "type": "uint256"
        }
      ],
      "stateMutability": "view",
      "type": "function",
      "constant": true
    },
    {
      "inputs": [
        {
          "internalType": "uint256",
          "name": "tokenId",
          "type": "uint256"
        },
        {
          "internalType": "uint256",
          "name": "votingNum",
          "type": "uint256"
        }
      ],
      "name": "getVoting",
      "outputs": [
        {
          "components": [
            {
              "internalType": "address",
              "name": "account",
              "type": "address"
            },
            {
              "internalType": "uint256",
              "name": "Amount",
              "type": "uint256"
            },
            {
              "internalType": "bool",
              "name": "result",
              "type": "bool"
            }
          ],
          "internalType": "struct DtsToken.votingData",
          "name": "",
          "type": "tuple"
        }
      ],
      "stateMutability": "view",
      "type": "function",
      "constant": true
    },
    {
      "inputs": [
        {
          "internalType": "uint256",
          "name": "tokenId",
          "type": "uint256"
        }
      ],
      "name": "getTokenOwnerData",
      "outputs": [
        {
          "components": [
            {
              "internalType": "address",
              "name": "Creater",
              "type": "address"
            },
            {
              "internalType": "uint256",
              "name": "NftAmount",
              "type": "uint256"
            },
            {
              "internalType": "uint256",
              "name": "TotalPrice",
              "type": "uint256"
            },
            {
              "internalType": "uint256",
              "name": "UnitPrice",
              "type": "uint256"
            },
            {
              "internalType": "uint256",
              "name": "EndTime",
              "type": "uint256"
            },
            {
              "internalType": "bool",
              "name": "isSuccess",
              "type": "bool"
            }
          ],
          "internalType": "struct DtsToken.tokenOwnerData",
          "name": "",
          "type": "tuple"
        }
      ],
      "stateMutability": "view",
      "type": "function",
      "constant": true
    },
    {
      "inputs": [
        {
          "internalType": "uint256",
          "name": "tokenId",
          "type": "uint256"
        }
      ],
      "name": "isFunddingSuccess",
      "outputs": [],
      "stateMutability": "nonpayable",
      "type": "function"
    },
    {
      "inputs": [
        {
          "internalType": "uint256",
          "name": "tokenId",
          "type": "uint256"
        }
      ],
      "name": "isFunddingFalsed",
      "outputs": [],
      "stateMutability": "nonpayable",
      "type": "function"
    },
    {
      "inputs": [
        {
          "internalType": "address",
          "name": "saleCA",
          "type": "address"
        },
        {
          "internalType": "uint256",
          "name": "tokenId",
          "type": "uint256"
        },
        {
          "internalType": "uint256",
          "name": "amount",
          "type": "uint256"
        },
        {
          "internalType": "uint256",
          "name": "price",
          "type": "uint256"
        }
      ],
      "name": "isSalesToken",
      "outputs": [],
      "stateMutability": "nonpayable",
      "type": "function"
    },
    {
      "inputs": [
        {
          "internalType": "address",
          "name": "saleCA",
          "type": "address"
        }
      ],
      "name": "saleApprovalFalse",
      "outputs": [],
      "stateMutability": "nonpayable",
      "type": "function"
    },
    {
      "inputs": [
        {
          "internalType": "address",
          "name": "account",
          "type": "address"
        },
        {
          "internalType": "uint256",
          "name": "tokenId",
          "type": "uint256"
        },
        {
          "internalType": "uint256",
          "name": "amount",
          "type": "uint256"
        }
      ],
      "name": "faildBurn",
      "outputs": [],
      "stateMutability": "nonpayable",
      "type": "function"
    },
    {
      "inputs": [
        {
          "internalType": "address",
          "name": "account",
          "type": "address"
        }
      ],
      "name": "isFunddingCA",
      "outputs": [],
      "stateMutability": "nonpayable",
      "type": "function"
    },
    {
      "inputs": [
        {
          "internalType": "address",
          "name": "account",
          "type": "address"
        }
      ],
      "name": "isSaleCA",
      "outputs": [],
      "stateMutability": "nonpayable",
      "type": "function"
    },
    {
      "inputs": [
        {
          "internalType": "uint256",
          "name": "tokenId",
          "type": "uint256"
        }
      ],
      "name": "tokenURI",
      "outputs": [
        {
          "internalType": "string",
          "name": "",
          "type": "string"
        }
      ],
      "stateMutability": "view",
      "type": "function",
      "constant": true
    }
  ],
  "bytecode": "0x60806040523480156200001157600080fd5b506040518060200160405280600081525062000033816200005a60201b60201c565b5062000054620000486200006f60201b60201c565b6200007760201b60201c565b6200049e565b80600290816200006b9190620003b7565b5050565b600033905090565b6000600360009054906101000a900473ffffffffffffffffffffffffffffffffffffffff16905081600360006101000a81548173ffffffffffffffffffffffffffffffffffffffff021916908373ffffffffffffffffffffffffffffffffffffffff1602179055508173ffffffffffffffffffffffffffffffffffffffff168173ffffffffffffffffffffffffffffffffffffffff167f8be0079c531659141344cd1fd0a4f28419497f9722a3daafe3b4186f6b6457e060405160405180910390a35050565b600081519050919050565b7f4e487b7100000000000000000000000000000000000000000000000000000000600052604160045260246000fd5b7f4e487b7100000000000000000000000000000000000000000000000000000000600052602260045260246000fd5b60006002820490506001821680620001bf57607f821691505b602082108103620001d557620001d462000177565b5b50919050565b60008190508160005260206000209050919050565b60006020601f8301049050919050565b600082821b905092915050565b6000600883026200023f7fffffffffffffffffffffffffffffffffffffffffffffffffffffffffffffffff8262000200565b6200024b868362000200565b95508019841693508086168417925050509392505050565b6000819050919050565b6000819050919050565b600062000298620002926200028c8462000263565b6200026d565b62000263565b9050919050565b6000819050919050565b620002b48362000277565b620002cc620002c3826200029f565b8484546200020d565b825550505050565b600090565b620002e3620002d4565b620002f0818484620002a9565b505050565b5b8181101562000318576200030c600082620002d9565b600181019050620002f6565b5050565b601f82111562000367576200033181620001db565b6200033c84620001f0565b810160208510156200034c578190505b620003646200035b85620001f0565b830182620002f5565b50505b505050565b600082821c905092915050565b60006200038c600019846008026200036c565b1980831691505092915050565b6000620003a7838362000379565b9150826002028217905092915050565b620003c2826200013d565b67ffffffffffffffff811115620003de57620003dd62000148565b5b620003ea8254620001a6565b620003f78282856200031c565b600060209050601f8311600181146200042f57600084156200041a578287015190505b62000426858262000399565b86555062000496565b601f1984166200043f86620001db565b60005b82811015620004695784890151825560018201915060208501945060208101905062000442565b8683101562000489578489015162000485601f89168262000379565b8355505b6001600288020188555050505b505050505050565b6159c580620004ae6000396000f3fe608060405234801561001057600080fd5b506004361061021b5760003560e01c80639d835c5f11610125578063d68ad7a0116100ad578063f2fde38b1161007c578063f2fde38b14610695578063f4a3a92b146106b1578063f8a14f46146106cd578063fac333ac14610702578063fcc1ff5c146107325761021b565b8063d68ad7a0146105fd578063e29be1a11461062d578063e985e9c514610649578063f242432a146106795761021b565b8063beb9eb30116100f4578063beb9eb3014610547578063c31f4b5814610563578063c87b56dd1461057f578063cfaad27c146105af578063d198cc01146105e15761021b565b80639d835c5f146104af578063a22cb465146104cb578063a2727c9a146104e7578063aee4a42a146105175761021b565b80634b77f8d0116101a8578063715018a611610177578063715018a61461041d57806377379082146104275780637abfee42146104435780638d63193d146104615780638da5cb5b146104915761021b565b80634b77f8d0146103835780634e1273f41461039f5780634f4eacd8146103cf57806361b1b23c146103ff5761021b565b80632374fdcf116101ef5780632374fdcf146102e15780632eb2c2d6146102fd578063325d20c4146103195780634672a6021461033757806346a0d50a146103535761021b565b8062fdd58e1461022057806301ffc9a7146102505780630e89341c146102805780630fe2a68d146102b0575b600080fd5b61023a600480360381019061023591906134cc565b61074e565b604051610247919061351b565b60405180910390f35b61026a6004803603810190610265919061358e565b610816565b60405161027791906135d6565b60405180910390f35b61029a600480360381019061029591906135f1565b6108f8565b6040516102a791906136ae565b60405180910390f35b6102ca60048036038101906102c591906135f1565b61098c565b6040516102d89291906136d0565b60405180910390f35b6102fb60048036038101906102f691906135f1565b6109b0565b005b610317600480360381019061031291906138f6565b610b21565b005b610321610bc2565b60405161032e9190613a24565b60405180910390f35b610351600480360381019061034c9190613a3f565b610be8565b005b61036d60048036038101906103689190613a6c565b610c9a565b60405161037a9190613b1b565b60405180910390f35b61039d60048036038101906103989190613a3f565b610d54565b005b6103b960048036038101906103b49190613bf9565b610d62565b6040516103c69190613d20565b60405180910390f35b6103e960048036038101906103e491906135f1565b610e7b565b6040516103f6919061351b565b60405180910390f35b610407610e9b565b6040516104149190613d63565b60405180910390f35b610425610ec1565b005b610441600480360381019061043c9190613d7e565b610f49565b005b61044b610fb3565b6040516104589190613d20565b60405180910390f35b61047b600480360381019061047691906135f1565b61100b565b6040516104889190613e4c565b60405180910390f35b6104996110d1565b6040516104a69190613e76565b60405180910390f35b6104c960048036038101906104c49190613f32565b6110fb565b005b6104e560048036038101906104e0919061401c565b61136e565b005b61050160048036038101906104fc91906135f1565b611384565b60405161050e919061351b565b60405180910390f35b610531600480360381019061052c91906135f1565b611397565b60405161053e919061351b565b60405180910390f35b610561600480360381019061055c919061405c565b6113b4565b005b61057d600480360381019061057891906135f1565b61151e565b005b610599600480360381019061059491906135f1565b61168f565b6040516105a691906136ae565b60405180910390f35b6105c960048036038101906105c49190613a6c565b611734565b6040516105d8939291906140af565b60405180910390f35b6105fb60048036038101906105f691906140e6565b611798565b005b610617600480360381019061061291906135f1565b611917565b604051610624919061351b565b60405180910390f35b61064760048036038101906106429190613a3f565b61192f565b005b610663600480360381019061065e9190614126565b611ab3565b60405161067091906135d6565b60405180910390f35b610693600480360381019061068e9190614166565b611b47565b005b6106af60048036038101906106aa9190613a3f565b611be8565b005b6106cb60048036038101906106c691906141fd565b611cdf565b005b6106e760048036038101906106e291906135f1565b611d83565b6040516106f996959493929190614264565b60405180910390f35b61071c600480360381019061071791906135f1565b611dec565b604051610729919061351b565b60405180910390f35b61074c600480360381019061074791906140e6565b611e10565b005b60008073ffffffffffffffffffffffffffffffffffffffff168373ffffffffffffffffffffffffffffffffffffffff16036107be576040517f08c379a00000000000000000000000000000000000000000000000000000000081526004016107b590614337565b60405180910390fd5b60008083815260200190815260200160002060008473ffffffffffffffffffffffffffffffffffffffff1673ffffffffffffffffffffffffffffffffffffffff16815260200190815260200160002054905092915050565b60007fd9b67a26000000000000000000000000000000000000000000000000000000007bffffffffffffffffffffffffffffffffffffffffffffffffffffffff1916827bffffffffffffffffffffffffffffffffffffffffffffffffffffffff191614806108e157507f0e89341c000000000000000000000000000000000000000000000000000000007bffffffffffffffffffffffffffffffffffffffffffffffffffffffff1916827bffffffffffffffffffffffffffffffffffffffffffffffffffffffff1916145b806108f157506108f08261220f565b5b9050919050565b60606002805461090790614386565b80601f016020809104026020016040519081016040528092919081815260200182805461093390614386565b80156109805780601f1061095557610100808354040283529160200191610980565b820191906000526020600020905b81548152906001019060200180831161096357829003601f168201915b50505050509050919050565b600b6020528060005260406000206000915090508060000154908060010154905082565b60006109f26008600084815260200190815260200160002060000160009054906101000a900473ffffffffffffffffffffffffffffffffffffffff168361074e565b11610a32576040517f08c379a0000000000000000000000000000000000000000000000000000000008152600401610a2990614403565b60405180910390fd5b6008600082815260200190815260200160002060010154600660009054906101000a900473ffffffffffffffffffffffffffffffffffffffff1673ffffffffffffffffffffffffffffffffffffffff166349e5465c836040518263ffffffff1660e01b8152600401610aa4919061351b565b602060405180830381865afa158015610ac1573d6000803e3d6000fd5b505050506040513d601f19601f82011682018060405250810190610ae59190614438565b03610aef57600080fd5b60006008600083815260200190815260200160002060050160006101000a81548160ff02191690831515021790555050565b610b29612279565b73ffffffffffffffffffffffffffffffffffffffff168573ffffffffffffffffffffffffffffffffffffffff161480610b6f5750610b6e85610b69612279565b611ab3565b5b610bae576040517f08c379a0000000000000000000000000000000000000000000000000000000008152600401610ba5906144d7565b60405180910390fd5b610bbb8585858585612281565b5050505050565b600660009054906101000a900473ffffffffffffffffffffffffffffffffffffffff1681565b3373ffffffffffffffffffffffffffffffffffffffff168173ffffffffffffffffffffffffffffffffffffffff1614610c56576040517f08c379a0000000000000000000000000000000000000000000000000000000008152600401610c4d90614543565b60405180910390fd5b80600760006101000a81548173ffffffffffffffffffffffffffffffffffffffff021916908373ffffffffffffffffffffffffffffffffffffffff16021790555050565b610ca261339d565b6009600084815260200190815260200160002060008381526020019081526020016000206040518060600160405290816000820160009054906101000a900473ffffffffffffffffffffffffffffffffffffffff1673ffffffffffffffffffffffffffffffffffffffff1673ffffffffffffffffffffffffffffffffffffffff168152602001600182015481526020016002820160009054906101000a900460ff161515151581525050905092915050565b610d5f81600061136e565b50565b60608151835114610da8576040517f08c379a0000000000000000000000000000000000000000000000000000000008152600401610d9f906145d5565b60405180910390fd5b6000835167ffffffffffffffff811115610dc557610dc46136fe565b5b604051908082528060200260200182016040528015610df35781602001602082028036833780820191505090505b50905060005b8451811015610e7057610e40858281518110610e1857610e176145f5565b5b6020026020010151858381518110610e3357610e326145f5565b5b602002602001015161074e565b828281518110610e5357610e526145f5565b5b60200260200101818152505080610e6990614653565b9050610df9565b508091505092915050565b6000600b6000838152602001908152602001600020600001549050919050565b600760009054906101000a900473ffffffffffffffffffffffffffffffffffffffff1681565b610ec9612279565b73ffffffffffffffffffffffffffffffffffffffff16610ee76110d1565b73ffffffffffffffffffffffffffffffffffffffff1614610f3d576040517f08c379a0000000000000000000000000000000000000000000000000000000008152600401610f34906146e7565b60405180910390fd5b610f4760006125a2565b565b600560009054906101000a900473ffffffffffffffffffffffffffffffffffffffff1673ffffffffffffffffffffffffffffffffffffffff163373ffffffffffffffffffffffffffffffffffffffff1614610fa357600080fd5b610fae838383612668565b505050565b6060600480548060200260200160405190810160405280929190818152602001828054801561100157602002820191906000526020600020905b815481526020019060010190808311610fed575b5050505050905090565b6110136133d6565b600860008381526020019081526020016000206040518060c00160405290816000820160009054906101000a900473ffffffffffffffffffffffffffffffffffffffff1673ffffffffffffffffffffffffffffffffffffffff1673ffffffffffffffffffffffffffffffffffffffff168152602001600182015481526020016002820154815260200160038201548152602001600482015481526020016005820160009054906101000a900460ff1615151515815250509050919050565b6000600360009054906101000a900473ffffffffffffffffffffffffffffffffffffffff16905090565b6000600860008781526020019081526020016000206001015414611154576040517f08c379a000000000000000000000000000000000000000000000000000000000815260040161114b90614753565b60405180910390fd5b3373ffffffffffffffffffffffffffffffffffffffff168773ffffffffffffffffffffffffffffffffffffffff16146111c2576040517f08c379a00000000000000000000000000000000000000000000000000000000081526004016111b9906147bf565b60405180910390fd5b60006040518060400160405280601381526020017f66756e6464696e672069732073656363657373000000000000000000000000008152509050600061120a898787876128ae565b9050806008600089815260200190815260200160002060008201518160000160006101000a81548173ffffffffffffffffffffffffffffffffffffffff021916908373ffffffffffffffffffffffffffffffffffffffff1602179055506020820151816001015560408201518160020155606082015181600301556080820151816004015560a08201518160050160006101000a81548160ff0219169083151502179055509050506112cd8988886040518060200160405280600081525061298b565b6112d888600161136e565b600487908060018154018082558091505060019003906000526020600020016000909190919091505582600c600089815260200190815260200160002090816113219190614981565b507f8bdc0347739a882305e00b5fa613e8629b5da77a48abac45661315c45619c54833888888888760405161135b96959493929190614a53565b60405180910390a1505050505050505050565b611380611379612279565b8383612b3b565b5050565b6000611390338361074e565b9050919050565b6000600a6000838152602001908152602001600020549050919050565b60006113c0338561074e565b03611400576040517f08c379a00000000000000000000000000000000000000000000000000000000081526004016113f790614b07565b60405180910390fd5b6201518060086000858152602001908152602001600020600401546114259190614b27565b82426114319190614b5b565b11611471576040517f08c379a000000000000000000000000000000000000000000000000000000000815260040161146890614c0f565b60405180910390fd5b6000600b600085815260200190815260200160002060000154146114ca576040517f08c379a00000000000000000000000000000000000000000000000000000000081526004016114c190614c7b565b60405180910390fd5b81620151806114d99190614b5b565b426114e49190614c9b565b600b60008581526020019081526020016000206000018190555080600b600085815260200190815260200160002060010181905550505050565b60006115606008600084815260200190815260200160002060000160009054906101000a900473ffffffffffffffffffffffffffffffffffffffff168361074e565b146115a0576040517f08c379a000000000000000000000000000000000000000000000000000000000815260040161159790614d1b565b60405180910390fd5b6008600082815260200190815260200160002060010154600660009054906101000a900473ffffffffffffffffffffffffffffffffffffffff1673ffffffffffffffffffffffffffffffffffffffff166349e5465c836040518263ffffffff1660e01b8152600401611612919061351b565b602060405180830381865afa15801561162f573d6000803e3d6000fd5b505050506040513d601f19601f820116820180604052508101906116539190614438565b1461165d57600080fd5b60016008600083815260200190815260200160002060050160006101000a81548160ff02191690831515021790555050565b6060600c600083815260200190815260200160002080546116af90614386565b80601f01602080910402602001604051908101604052809291908181526020018280546116db90614386565b80156117285780601f106116fd57610100808354040283529160200191611728565b820191906000526020600020905b81548152906001019060200180831161170b57829003601f168201915b50505050509050919050565b6009602052816000526040600020602052806000526040600020600091509150508060000160009054906101000a900473ffffffffffffffffffffffffffffffffffffffff16908060010154908060020160009054906101000a900460ff16905083565b42600b600084815260200190815260200160002060000154106117f0576040517f08c379a00000000000000000000000000000000000000000000000000000000081526004016117e790614d87565b60405180910390fd5b60006117fc338461074e565b0361183c576040517f08c379a000000000000000000000000000000000000000000000000000000000815260040161183390614df3565b60405180910390fd5b600115156008600084815260200190815260200160002060050160009054906101000a900460ff161515036118a6576040517f08c379a000000000000000000000000000000000000000000000000000000000815260040161189d90614e5f565b60405180910390fd5b600115158115150361191357600b600083815260200190815260200160002060010154620151806118d79190614b5b565b60086000848152602001908152602001600020600401546118f89190614c9b565b60086000848152602001908152602001600020600401819055505b5050565b600a6020528060005260406000206000915090505481565b3373ffffffffffffffffffffffffffffffffffffffff168173ffffffffffffffffffffffffffffffffffffffff161461199d576040517f08c379a000000000000000000000000000000000000000000000000000000000815260040161199490614ecb565b60405180910390fd5b600073ffffffffffffffffffffffffffffffffffffffff16600560009054906101000a900473ffffffffffffffffffffffffffffffffffffffff1673ffffffffffffffffffffffffffffffffffffffff1614611a2e576040517f08c379a0000000000000000000000000000000000000000000000000000000008152600401611a2590614f37565b60405180910390fd5b80600560006101000a81548173ffffffffffffffffffffffffffffffffffffffff021916908373ffffffffffffffffffffffffffffffffffffffff16021790555080600660006101000a81548173ffffffffffffffffffffffffffffffffffffffff021916908373ffffffffffffffffffffffffffffffffffffffff16021790555050565b6000600160008473ffffffffffffffffffffffffffffffffffffffff1673ffffffffffffffffffffffffffffffffffffffff16815260200190815260200160002060008373ffffffffffffffffffffffffffffffffffffffff1673ffffffffffffffffffffffffffffffffffffffff16815260200190815260200160002060009054906101000a900460ff16905092915050565b611b4f612279565b73ffffffffffffffffffffffffffffffffffffffff168573ffffffffffffffffffffffffffffffffffffffff161480611b955750611b9485611b8f612279565b611ab3565b5b611bd4576040517f08c379a0000000000000000000000000000000000000000000000000000000008152600401611bcb90614fc9565b60405180910390fd5b611be18585858585612ca7565b5050505050565b611bf0612279565b73ffffffffffffffffffffffffffffffffffffffff16611c0e6110d1565b73ffffffffffffffffffffffffffffffffffffffff1614611c64576040517f08c379a0000000000000000000000000000000000000000000000000000000008152600401611c5b906146e7565b60405180910390fd5b600073ffffffffffffffffffffffffffffffffffffffff168173ffffffffffffffffffffffffffffffffffffffff1603611cd3576040517f08c379a0000000000000000000000000000000000000000000000000000000008152600401611cca9061505b565b60405180910390fd5b611cdc816125a2565b50565b600760009054906101000a900473ffffffffffffffffffffffffffffffffffffffff1673ffffffffffffffffffffffffffffffffffffffff166323dc2e65338585856040518563ffffffff1660e01b8152600401611d40949392919061507b565b600060405180830381600087803b158015611d5a57600080fd5b505af1158015611d6e573d6000803e3d6000fd5b50505050611d7d84600161136e565b50505050565b60086020528060005260406000206000915090508060000160009054906101000a900473ffffffffffffffffffffffffffffffffffffffff16908060010154908060020154908060030154908060040154908060050160009054906101000a900460ff16905086565b60048181548110611dfc57600080fd5b906000526020600020016000915090505481565b6000611e1c338461074e565b03611e5c576040517f08c379a0000000000000000000000000000000000000000000000000000000008152600401611e5390614df3565b60405180910390fd5b600b600083815260200190815260200160002060000154421115611eb5576040517f08c379a0000000000000000000000000000000000000000000000000000000008152600401611eac9061510c565b60405180910390fd5b3373ffffffffffffffffffffffffffffffffffffffff166008600084815260200190815260200160002060000160009054906101000a900473ffffffffffffffffffffffffffffffffffffffff1673ffffffffffffffffffffffffffffffffffffffff1603611f59576040517f08c379a0000000000000000000000000000000000000000000000000000000008152600401611f509061519e565b60405180910390fd5b6000611f65338461074e565b9050600080600190505b600a60008681526020019081526020016000205481116120e6573373ffffffffffffffffffffffffffffffffffffffff1660096000878152602001908152602001600020600083815260200190815260200160002060000160009054906101000a900473ffffffffffffffffffffffffffffffffffffffff1673ffffffffffffffffffffffffffffffffffffffff16036120d35760405180606001604052803373ffffffffffffffffffffffffffffffffffffffff16815260200184815260200185151581525060096000878152602001908152602001600020600083815260200190815260200160002060008201518160000160006101000a81548173ffffffffffffffffffffffffffffffffffffffff021916908373ffffffffffffffffffffffffffffffffffffffff1602179055506020820151816001015560408201518160020160006101000a81548160ff021916908315150217905550905050600191505b80806120de90614653565b915050611f6f565b506000151581151503612209576001600a6000868152602001908152602001600020546121139190614c9b565b600a60008681526020019081526020016000208190555060405180606001604052803373ffffffffffffffffffffffffffffffffffffffff168152602001838152602001841515815250600960008681526020019081526020016000206000600a600088815260200190815260200160002054815260200190815260200160002060008201518160000160006101000a81548173ffffffffffffffffffffffffffffffffffffffff021916908373ffffffffffffffffffffffffffffffffffffffff1602179055506020820151816001015560408201518160020160006101000a81548160ff0219169083151502179055509050505b50505050565b60007f01ffc9a7000000000000000000000000000000000000000000000000000000007bffffffffffffffffffffffffffffffffffffffffffffffffffffffff1916827bffffffffffffffffffffffffffffffffffffffffffffffffffffffff1916149050919050565b600033905090565b81518351146122c5576040517f08c379a00000000000000000000000000000000000000000000000000000000081526004016122bc90615230565b60405180910390fd5b600073ffffffffffffffffffffffffffffffffffffffff168473ffffffffffffffffffffffffffffffffffffffff1603612334576040517f08c379a000000000000000000000000000000000000000000000000000000000815260040161232b906152c2565b60405180910390fd5b600061233e612279565b905061234e818787878787612f42565b60005b84518110156124ff57600085828151811061236f5761236e6145f5565b5b60200260200101519050600085838151811061238e5761238d6145f5565b5b60200260200101519050600080600084815260200190815260200160002060008b73ffffffffffffffffffffffffffffffffffffffff1673ffffffffffffffffffffffffffffffffffffffff1681526020019081526020016000205490508181101561242f576040517f08c379a000000000000000000000000000000000000000000000000000000000815260040161242690615354565b60405180910390fd5b81810360008085815260200190815260200160002060008c73ffffffffffffffffffffffffffffffffffffffff1673ffffffffffffffffffffffffffffffffffffffff168152602001908152602001600020819055508160008085815260200190815260200160002060008b73ffffffffffffffffffffffffffffffffffffffff1673ffffffffffffffffffffffffffffffffffffffff16815260200190815260200160002060008282546124e49190614c9b565b92505081905550505050806124f890614653565b9050612351565b508473ffffffffffffffffffffffffffffffffffffffff168673ffffffffffffffffffffffffffffffffffffffff168273ffffffffffffffffffffffffffffffffffffffff167f4a39dc06d4c0dbc64b70af90fd698a233a518aa5d07e595d983b8c0526c8f7fb8787604051612576929190615374565b60405180910390a461258c818787878787612f4a565b61259a818787878787612f52565b505050505050565b6000600360009054906101000a900473ffffffffffffffffffffffffffffffffffffffff16905081600360006101000a81548173ffffffffffffffffffffffffffffffffffffffff021916908373ffffffffffffffffffffffffffffffffffffffff1602179055508173ffffffffffffffffffffffffffffffffffffffff168173ffffffffffffffffffffffffffffffffffffffff167f8be0079c531659141344cd1fd0a4f28419497f9722a3daafe3b4186f6b6457e060405160405180910390a35050565b600073ffffffffffffffffffffffffffffffffffffffff168373ffffffffffffffffffffffffffffffffffffffff16036126d7576040517f08c379a00000000000000000000000000000000000000000000000000000000081526004016126ce9061541d565b60405180910390fd5b60006126e1612279565b905060006126ee84613129565b905060006126fb84613129565b905061271b83876000858560405180602001604052806000815250612f42565b600080600087815260200190815260200160002060008873ffffffffffffffffffffffffffffffffffffffff1673ffffffffffffffffffffffffffffffffffffffff168152602001908152602001600020549050848110156127b2576040517f08c379a00000000000000000000000000000000000000000000000000000000081526004016127a9906154af565b60405180910390fd5b84810360008088815260200190815260200160002060008973ffffffffffffffffffffffffffffffffffffffff1673ffffffffffffffffffffffffffffffffffffffff16815260200190815260200160002081905550600073ffffffffffffffffffffffffffffffffffffffff168773ffffffffffffffffffffffffffffffffffffffff168573ffffffffffffffffffffffffffffffffffffffff167fc3d58168c5ae7397731d063d5bbf3d657854427343f4c083240f7aacaa2d0f62898960405161287f9291906136d0565b60405180910390a46128a584886000868660405180602001604052806000815250612f4a565b50505050505050565b6128b66133d6565b6128be6133d6565b600085670de0b6b3a7640000866128d59190614b5b565b6128df91906154fe565b905086826000019073ffffffffffffffffffffffffffffffffffffffff16908173ffffffffffffffffffffffffffffffffffffffff168152505085826020018181525050670de0b6b3a7640000856129379190614b5b565b8260400181815250508082606001818152505083620151806129599190614b5b565b426129649190614c9b565b82608001818152505060008260a00190151590811515815250508192505050949350505050565b600073ffffffffffffffffffffffffffffffffffffffff168473ffffffffffffffffffffffffffffffffffffffff16036129fa576040517f08c379a00000000000000000000000000000000000000000000000000000000081526004016129f1906155a1565b60405180910390fd5b6000612a04612279565b90506000612a1185613129565b90506000612a1e85613129565b9050612a2f83600089858589612f42565b8460008088815260200190815260200160002060008973ffffffffffffffffffffffffffffffffffffffff1673ffffffffffffffffffffffffffffffffffffffff1681526020019081526020016000206000828254612a8e9190614c9b565b925050819055508673ffffffffffffffffffffffffffffffffffffffff16600073ffffffffffffffffffffffffffffffffffffffff168473ffffffffffffffffffffffffffffffffffffffff167fc3d58168c5ae7397731d063d5bbf3d657854427343f4c083240f7aacaa2d0f628989604051612b0c9291906136d0565b60405180910390a4612b2383600089858589612f4a565b612b32836000898989896131a3565b50505050505050565b8173ffffffffffffffffffffffffffffffffffffffff168373ffffffffffffffffffffffffffffffffffffffff1603612ba9576040517f08c379a0000000000000000000000000000000000000000000000000000000008152600401612ba090615633565b60405180910390fd5b80600160008573ffffffffffffffffffffffffffffffffffffffff1673ffffffffffffffffffffffffffffffffffffffff16815260200190815260200160002060008473ffffffffffffffffffffffffffffffffffffffff1673ffffffffffffffffffffffffffffffffffffffff16815260200190815260200160002060006101000a81548160ff0219169083151502179055508173ffffffffffffffffffffffffffffffffffffffff168373ffffffffffffffffffffffffffffffffffffffff167f17307eab39ab6107e8899845ad3d59bd9653f200f220920489ca2b5937696c3183604051612c9a91906135d6565b60405180910390a3505050565b600073ffffffffffffffffffffffffffffffffffffffff168473ffffffffffffffffffffffffffffffffffffffff1603612d16576040517f08c379a0000000000000000000000000000000000000000000000000000000008152600401612d0d906152c2565b60405180910390fd5b6000612d20612279565b90506000612d2d85613129565b90506000612d3a85613129565b9050612d4a838989858589612f42565b600080600088815260200190815260200160002060008a73ffffffffffffffffffffffffffffffffffffffff1673ffffffffffffffffffffffffffffffffffffffff16815260200190815260200160002054905085811015612de1576040517f08c379a0000000000000000000000000000000000000000000000000000000008152600401612dd890615354565b60405180910390fd5b85810360008089815260200190815260200160002060008b73ffffffffffffffffffffffffffffffffffffffff1673ffffffffffffffffffffffffffffffffffffffff168152602001908152602001600020819055508560008089815260200190815260200160002060008a73ffffffffffffffffffffffffffffffffffffffff1673ffffffffffffffffffffffffffffffffffffffff1681526020019081526020016000206000828254612e969190614c9b565b925050819055508773ffffffffffffffffffffffffffffffffffffffff168973ffffffffffffffffffffffffffffffffffffffff168573ffffffffffffffffffffffffffffffffffffffff167fc3d58168c5ae7397731d063d5bbf3d657854427343f4c083240f7aacaa2d0f628a8a604051612f139291906136d0565b60405180910390a4612f29848a8a86868a612f4a565b612f37848a8a8a8a8a6131a3565b505050505050505050565b505050505050565b505050505050565b612f718473ffffffffffffffffffffffffffffffffffffffff1661337a565b15613121578373ffffffffffffffffffffffffffffffffffffffff1663bc197c8187878686866040518663ffffffff1660e01b8152600401612fb79594939291906156a8565b6020604051808303816000875af1925050508015612ff357506040513d601f19601f82011682018060405250810190612ff09190615725565b60015b61309857612fff61575f565b806308c379a00361305b5750613013615781565b8061301e575061305d565b806040517f08c379a000000000000000000000000000000000000000000000000000000000815260040161305291906136ae565b60405180910390fd5b505b6040517f08c379a000000000000000000000000000000000000000000000000000000000815260040161308f90615883565b60405180910390fd5b63bc197c8160e01b7bffffffffffffffffffffffffffffffffffffffffffffffffffffffff1916817bffffffffffffffffffffffffffffffffffffffffffffffffffffffff19161461311f576040517f08c379a000000000000000000000000000000000000000000000000000000000815260040161311690615915565b60405180910390fd5b505b505050505050565b60606000600167ffffffffffffffff811115613148576131476136fe565b5b6040519080825280602002602001820160405280156131765781602001602082028036833780820191505090505b509050828160008151811061318e5761318d6145f5565b5b60200260200101818152505080915050919050565b6131c28473ffffffffffffffffffffffffffffffffffffffff1661337a565b15613372578373ffffffffffffffffffffffffffffffffffffffff1663f23a6e6187878686866040518663ffffffff1660e01b8152600401613208959493929190615935565b6020604051808303816000875af192505050801561324457506040513d601f19601f820116820180604052508101906132419190615725565b60015b6132e95761325061575f565b806308c379a0036132ac5750613264615781565b8061326f57506132ae565b806040517f08c379a00000000000000000000000000000000000000000000000000000000081526004016132a391906136ae565b60405180910390fd5b505b6040517f08c379a00000000000000000000000000000000000000000000000000000000081526004016132e090615883565b60405180910390fd5b63f23a6e6160e01b7bffffffffffffffffffffffffffffffffffffffffffffffffffffffff1916817bffffffffffffffffffffffffffffffffffffffffffffffffffffffff191614613370576040517f08c379a000000000000000000000000000000000000000000000000000000000815260040161336790615915565b60405180910390fd5b505b505050505050565b6000808273ffffffffffffffffffffffffffffffffffffffff163b119050919050565b6040518060600160405280600073ffffffffffffffffffffffffffffffffffffffff168152602001600081526020016000151581525090565b6040518060c00160405280600073ffffffffffffffffffffffffffffffffffffffff168152602001600081526020016000815260200160008152602001600081526020016000151581525090565b6000604051905090565b600080fd5b600080fd5b600073ffffffffffffffffffffffffffffffffffffffff82169050919050565b600061346382613438565b9050919050565b61347381613458565b811461347e57600080fd5b50565b6000813590506134908161346a565b92915050565b6000819050919050565b6134a981613496565b81146134b457600080fd5b50565b6000813590506134c6816134a0565b92915050565b600080604083850312156134e3576134e261342e565b5b60006134f185828601613481565b9250506020613502858286016134b7565b9150509250929050565b61351581613496565b82525050565b6000602082019050613530600083018461350c565b92915050565b60007fffffffff0000000000000000000000000000000000000000000000000000000082169050919050565b61356b81613536565b811461357657600080fd5b50565b60008135905061358881613562565b92915050565b6000602082840312156135a4576135a361342e565b5b60006135b284828501613579565b91505092915050565b60008115159050919050565b6135d0816135bb565b82525050565b60006020820190506135eb60008301846135c7565b92915050565b6000602082840312156136075761360661342e565b5b6000613615848285016134b7565b91505092915050565b600081519050919050565b600082825260208201905092915050565b60005b8381101561365857808201518184015260208101905061363d565b60008484015250505050565b6000601f19601f8301169050919050565b60006136808261361e565b61368a8185613629565b935061369a81856020860161363a565b6136a381613664565b840191505092915050565b600060208201905081810360008301526136c88184613675565b905092915050565b60006040820190506136e5600083018561350c565b6136f2602083018461350c565b9392505050565b600080fd5b7f4e487b7100000000000000000000000000000000000000000000000000000000600052604160045260246000fd5b61373682613664565b810181811067ffffffffffffffff82111715613755576137546136fe565b5b80604052505050565b6000613768613424565b9050613774828261372d565b919050565b600067ffffffffffffffff821115613794576137936136fe565b5b602082029050602081019050919050565b600080fd5b60006137bd6137b884613779565b61375e565b905080838252602082019050602084028301858111156137e0576137df6137a5565b5b835b8181101561380957806137f588826134b7565b8452602084019350506020810190506137e2565b5050509392505050565b600082601f830112613828576138276136f9565b5b81356138388482602086016137aa565b91505092915050565b600080fd5b600067ffffffffffffffff821115613861576138606136fe565b5b61386a82613664565b9050602081019050919050565b82818337600083830152505050565b600061389961389484613846565b61375e565b9050828152602081018484840111156138b5576138b4613841565b5b6138c0848285613877565b509392505050565b600082601f8301126138dd576138dc6136f9565b5b81356138ed848260208601613886565b91505092915050565b600080600080600060a086880312156139125761391161342e565b5b600061392088828901613481565b955050602061393188828901613481565b945050604086013567ffffffffffffffff81111561395257613951613433565b5b61395e88828901613813565b935050606086013567ffffffffffffffff81111561397f5761397e613433565b5b61398b88828901613813565b925050608086013567ffffffffffffffff8111156139ac576139ab613433565b5b6139b8888289016138c8565b9150509295509295909350565b6000819050919050565b60006139ea6139e56139e084613438565b6139c5565b613438565b9050919050565b60006139fc826139cf565b9050919050565b6000613a0e826139f1565b9050919050565b613a1e81613a03565b82525050565b6000602082019050613a396000830184613a15565b92915050565b600060208284031215613a5557613a5461342e565b5b6000613a6384828501613481565b91505092915050565b60008060408385031215613a8357613a8261342e565b5b6000613a91858286016134b7565b9250506020613aa2858286016134b7565b9150509250929050565b613ab581613458565b82525050565b613ac481613496565b82525050565b613ad3816135bb565b82525050565b606082016000820151613aef6000850182613aac565b506020820151613b026020850182613abb565b506040820151613b156040850182613aca565b50505050565b6000606082019050613b306000830184613ad9565b92915050565b600067ffffffffffffffff821115613b5157613b506136fe565b5b602082029050602081019050919050565b6000613b75613b7084613b36565b61375e565b90508083825260208201905060208402830185811115613b9857613b976137a5565b5b835b81811015613bc15780613bad8882613481565b845260208401935050602081019050613b9a565b5050509392505050565b600082601f830112613be057613bdf6136f9565b5b8135613bf0848260208601613b62565b91505092915050565b60008060408385031215613c1057613c0f61342e565b5b600083013567ffffffffffffffff811115613c2e57613c2d613433565b5b613c3a85828601613bcb565b925050602083013567ffffffffffffffff811115613c5b57613c5a613433565b5b613c6785828601613813565b9150509250929050565b600081519050919050565b600082825260208201905092915050565b6000819050602082019050919050565b6000613ca98383613abb565b60208301905092915050565b6000602082019050919050565b6000613ccd82613c71565b613cd78185613c7c565b9350613ce283613c8d565b8060005b83811015613d13578151613cfa8882613c9d565b9750613d0583613cb5565b925050600181019050613ce6565b5085935050505092915050565b60006020820190508181036000830152613d3a8184613cc2565b905092915050565b6000613d4d826139f1565b9050919050565b613d5d81613d42565b82525050565b6000602082019050613d786000830184613d54565b92915050565b600080600060608486031215613d9757613d9661342e565b5b6000613da586828701613481565b9350506020613db6868287016134b7565b9250506040613dc7868287016134b7565b9150509250925092565b60c082016000820151613de76000850182613aac565b506020820151613dfa6020850182613abb565b506040820151613e0d6040850182613abb565b506060820151613e206060850182613abb565b506080820151613e336080850182613abb565b5060a0820151613e4660a0850182613aca565b50505050565b600060c082019050613e616000830184613dd1565b92915050565b613e7081613458565b82525050565b6000602082019050613e8b6000830184613e67565b92915050565b600067ffffffffffffffff821115613eac57613eab6136fe565b5b613eb582613664565b9050602081019050919050565b6000613ed5613ed084613e91565b61375e565b905082815260208101848484011115613ef157613ef0613841565b5b613efc848285613877565b509392505050565b600082601f830112613f1957613f186136f9565b5b8135613f29848260208601613ec2565b91505092915050565b600080600080600080600060e0888a031215613f5157613f5061342e565b5b6000613f5f8a828b01613481565b9750506020613f708a828b01613481565b9650506040613f818a828b016134b7565b9550506060613f928a828b016134b7565b9450506080613fa38a828b016134b7565b93505060a0613fb48a828b016134b7565b92505060c088013567ffffffffffffffff811115613fd557613fd4613433565b5b613fe18a828b01613f04565b91505092959891949750929550565b613ff9816135bb565b811461400457600080fd5b50565b60008135905061401681613ff0565b92915050565b600080604083850312156140335761403261342e565b5b600061404185828601613481565b925050602061405285828601614007565b9150509250929050565b6000806000606084860312156140755761407461342e565b5b6000614083868287016134b7565b9350506020614094868287016134b7565b92505060406140a5868287016134b7565b9150509250925092565b60006060820190506140c46000830186613e67565b6140d1602083018561350c565b6140de60408301846135c7565b949350505050565b600080604083850312156140fd576140fc61342e565b5b600061410b858286016134b7565b925050602061411c85828601614007565b9150509250929050565b6000806040838503121561413d5761413c61342e565b5b600061414b85828601613481565b925050602061415c85828601613481565b9150509250929050565b600080600080600060a086880312156141825761418161342e565b5b600061419088828901613481565b95505060206141a188828901613481565b94505060406141b2888289016134b7565b93505060606141c3888289016134b7565b925050608086013567ffffffffffffffff8111156141e4576141e3613433565b5b6141f0888289016138c8565b9150509295509295909350565b600080600080608085870312156142175761421661342e565b5b600061422587828801613481565b9450506020614236878288016134b7565b9350506040614247878288016134b7565b9250506060614258878288016134b7565b91505092959194509250565b600060c0820190506142796000830189613e67565b614286602083018861350c565b614293604083018761350c565b6142a0606083018661350c565b6142ad608083018561350c565b6142ba60a08301846135c7565b979650505050505050565b7f455243313135353a2062616c616e636520717565727920666f7220746865207a60008201527f65726f2061646472657373000000000000000000000000000000000000000000602082015250565b6000614321602b83613629565b915061432c826142c5565b604082019050919050565b6000602082019050818103600083015261435081614314565b9050919050565b7f4e487b7100000000000000000000000000000000000000000000000000000000600052602260045260246000fd5b6000600282049050600182168061439e57607f821691505b6020821081036143b1576143b0614357565b5b50919050565b7f4973206974206e6f7420736f6c64206f75743f00000000000000000000000000600082015250565b60006143ed601383613629565b91506143f8826143b7565b602082019050919050565b6000602082019050818103600083015261441c816143e0565b9050919050565b600081519050614432816134a0565b92915050565b60006020828403121561444e5761444d61342e565b5b600061445c84828501614423565b91505092915050565b7f455243313135353a207472616e736665722063616c6c6572206973206e6f742060008201527f6f776e6572206e6f7220617070726f7665640000000000000000000000000000602082015250565b60006144c1603283613629565b91506144cc82614465565b604082019050919050565b600060208201905081810360008301526144f0816144b4565b9050919050565b7f53616c6543413f3f3f3f00000000000000000000000000000000000000000000600082015250565b600061452d600a83613629565b9150614538826144f7565b602082019050919050565b6000602082019050818103600083015261455c81614520565b9050919050565b7f455243313135353a206163636f756e747320616e6420696473206c656e67746860008201527f206d69736d617463680000000000000000000000000000000000000000000000602082015250565b60006145bf602983613629565b91506145ca82614563565b604082019050919050565b600060208201905081810360008301526145ee816145b2565b9050919050565b7f4e487b7100000000000000000000000000000000000000000000000000000000600052603260045260246000fd5b7f4e487b7100000000000000000000000000000000000000000000000000000000600052601160045260246000fd5b600061465e82613496565b91507fffffffffffffffffffffffffffffffffffffffffffffffffffffffffffffffff82036146905761468f614624565b5b600182019050919050565b7f4f776e61626c653a2063616c6c6572206973206e6f7420746865206f776e6572600082015250565b60006146d1602083613629565b91506146dc8261469b565b602082019050919050565b60006020820190508181036000830152614700816146c4565b9050919050565b7f6861766520616c7265616479206265656e206973737565640000000000000000600082015250565b600061473d601883613629565b915061474882614707565b602082019050919050565b6000602082019050818103600083015261476c81614730565b9050919050565b7f49742773206e6f7420796f752e00000000000000000000000000000000000000600082015250565b60006147a9600d83613629565b91506147b482614773565b602082019050919050565b600060208201905081810360008301526147d88161479c565b9050919050565b60008190508160005260206000209050919050565b60006020601f8301049050919050565b600082821b905092915050565b6000600883026148417fffffffffffffffffffffffffffffffffffffffffffffffffffffffffffffffff82614804565b61484b8683614804565b95508019841693508086168417925050509392505050565b600061487e61487961487484613496565b6139c5565b613496565b9050919050565b6000819050919050565b61489883614863565b6148ac6148a482614885565b848454614811565b825550505050565b600090565b6148c16148b4565b6148cc81848461488f565b505050565b5b818110156148f0576148e56000826148b9565b6001810190506148d2565b5050565b601f82111561493557614906816147df565b61490f846147f4565b8101602085101561491e578190505b61493261492a856147f4565b8301826148d1565b50505b505050565b600082821c905092915050565b60006149586000198460080261493a565b1980831691505092915050565b60006149718383614947565b9150826002028217905092915050565b61498a8261361e565b67ffffffffffffffff8111156149a3576149a26136fe565b5b6149ad8254614386565b6149b88282856148f4565b600060209050601f8311600181146149eb57600084156149d9578287015190505b6149e38582614965565b865550614a4b565b601f1984166149f9866147df565b60005b82811015614a21578489015182556001820191506020850194506020810190506149fc565b86831015614a3e5784890151614a3a601f891682614947565b8355505b6001600288020188555050505b505050505050565b600060c082019050614a686000830189613e67565b614a75602083018861350c565b614a82604083018761350c565b614a8f606083018661350c565b614a9c608083018561350c565b81810360a0830152614aae8184613675565b9050979650505050505050565b7f6e6f20616d6f756e742e00000000000000000000000000000000000000000000600082015250565b6000614af1600a83613629565b9150614afc82614abb565b602082019050919050565b60006020820190508181036000830152614b2081614ae4565b9050919050565b6000614b3282613496565b9150614b3d83613496565b9250828203905081811115614b5557614b54614624565b5b92915050565b6000614b6682613496565b9150614b7183613496565b9250828202614b7f81613496565b91508282048414831517614b9657614b95614624565b5b5092915050565b7f54686520766f74696e6720706572696f64206973206d6178696d756d20756e7460008201527f696c206f6e6520646179206265666f72652e0000000000000000000000000000602082015250565b6000614bf9603283613629565b9150614c0482614b9d565b604082019050919050565b60006020820190508181036000830152614c2881614bec565b9050919050565b7f546865726520697320616c7265616479206120766f74652e0000000000000000600082015250565b6000614c65601883613629565b9150614c7082614c2f565b602082019050919050565b60006020820190508181036000830152614c9481614c58565b9050919050565b6000614ca682613496565b9150614cb183613496565b9250828201905080821115614cc957614cc8614624565b5b92915050565b7f497320697420736f6c64206f75743f0000000000000000000000000000000000600082015250565b6000614d05600f83613629565b9150614d1082614ccf565b602082019050919050565b60006020820190508181036000830152614d3481614cf8565b9050919050565b7f54696d65204f75743f0000000000000000000000000000000000000000000000600082015250565b6000614d71600983613629565b9150614d7c82614d3b565b602082019050919050565b60006020820190508181036000830152614da081614d64565b9050919050565b7f6e6f20616d6f756e740000000000000000000000000000000000000000000000600082015250565b6000614ddd600983613629565b9150614de882614da7565b602082019050919050565b60006020820190508181036000830152614e0c81614dd0565b9050919050565b7f656e642046756e6464696e673f00000000000000000000000000000000000000600082015250565b6000614e49600d83613629565b9150614e5482614e13565b602082019050919050565b60006020820190508181036000830152614e7881614e3c565b9050919050565b7f46756e6464696e6743413f3f3f3f000000000000000000000000000000000000600082015250565b6000614eb5600e83613629565b9150614ec082614e7f565b602082019050919050565b60006020820190508181036000830152614ee481614ea8565b9050919050565b7f52756e206f6e6365206f6e6c7920696e2074686520626567696e6e696e670000600082015250565b6000614f21601e83613629565b9150614f2c82614eeb565b602082019050919050565b60006020820190508181036000830152614f5081614f14565b9050919050565b7f455243313135353a2063616c6c6572206973206e6f74206f776e6572206e6f7260008201527f20617070726f7665640000000000000000000000000000000000000000000000602082015250565b6000614fb3602983613629565b9150614fbe82614f57565b604082019050919050565b60006020820190508181036000830152614fe281614fa6565b9050919050565b7f4f776e61626c653a206e6577206f776e657220697320746865207a65726f206160008201527f6464726573730000000000000000000000000000000000000000000000000000602082015250565b6000615045602683613629565b915061505082614fe9565b604082019050919050565b6000602082019050818103600083015261507481615038565b9050919050565b60006080820190506150906000830187613e67565b61509d602083018661350c565b6150aa604083018561350c565b6150b7606083018461350c565b95945050505050565b7f54696d65204f7574000000000000000000000000000000000000000000000000600082015250565b60006150f6600883613629565b9150615101826150c0565b602082019050919050565b60006020820190508181036000830152615125816150e9565b9050919050565b7f43726561746f727320617265206e6f7420616c6c6f77656420746f207061727460008201527f6963697061746500000000000000000000000000000000000000000000000000602082015250565b6000615188602783613629565b91506151938261512c565b604082019050919050565b600060208201905081810360008301526151b78161517b565b9050919050565b7f455243313135353a2069647320616e6420616d6f756e7473206c656e6774682060008201527f6d69736d61746368000000000000000000000000000000000000000000000000602082015250565b600061521a602883613629565b9150615225826151be565b604082019050919050565b600060208201905081810360008301526152498161520d565b9050919050565b7f455243313135353a207472616e7366657220746f20746865207a65726f20616460008201527f6472657373000000000000000000000000000000000000000000000000000000602082015250565b60006152ac602583613629565b91506152b782615250565b604082019050919050565b600060208201905081810360008301526152db8161529f565b9050919050565b7f455243313135353a20696e73756666696369656e742062616c616e636520666f60008201527f72207472616e7366657200000000000000000000000000000000000000000000602082015250565b600061533e602a83613629565b9150615349826152e2565b604082019050919050565b6000602082019050818103600083015261536d81615331565b9050919050565b6000604082019050818103600083015261538e8185613cc2565b905081810360208301526153a28184613cc2565b90509392505050565b7f455243313135353a206275726e2066726f6d20746865207a65726f206164647260008201527f6573730000000000000000000000000000000000000000000000000000000000602082015250565b6000615407602383613629565b9150615412826153ab565b604082019050919050565b60006020820190508181036000830152615436816153fa565b9050919050565b7f455243313135353a206275726e20616d6f756e7420657863656564732062616c60008201527f616e636500000000000000000000000000000000000000000000000000000000602082015250565b6000615499602483613629565b91506154a48261543d565b604082019050919050565b600060208201905081810360008301526154c88161548c565b9050919050565b7f4e487b7100000000000000000000000000000000000000000000000000000000600052601260045260246000fd5b600061550982613496565b915061551483613496565b925082615524576155236154cf565b5b828204905092915050565b7f455243313135353a206d696e7420746f20746865207a65726f2061646472657360008201527f7300000000000000000000000000000000000000000000000000000000000000602082015250565b600061558b602183613629565b91506155968261552f565b604082019050919050565b600060208201905081810360008301526155ba8161557e565b9050919050565b7f455243313135353a2073657474696e6720617070726f76616c2073746174757360008201527f20666f722073656c660000000000000000000000000000000000000000000000602082015250565b600061561d602983613629565b9150615628826155c1565b604082019050919050565b6000602082019050818103600083015261564c81615610565b9050919050565b600081519050919050565b600082825260208201905092915050565b600061567a82615653565b615684818561565e565b935061569481856020860161363a565b61569d81613664565b840191505092915050565b600060a0820190506156bd6000830188613e67565b6156ca6020830187613e67565b81810360408301526156dc8186613cc2565b905081810360608301526156f08185613cc2565b90508181036080830152615704818461566f565b90509695505050505050565b60008151905061571f81613562565b92915050565b60006020828403121561573b5761573a61342e565b5b600061574984828501615710565b91505092915050565b60008160e01c9050919050565b600060033d111561577e5760046000803e61577b600051615752565b90505b90565b600060443d1061580e57615793613424565b60043d036004823e80513d602482011167ffffffffffffffff821117156157bb57505061580e565b808201805167ffffffffffffffff8111156157d9575050505061580e565b80602083010160043d0385018111156157f657505050505061580e565b6158058260200185018661372d565b82955050505050505b90565b7f455243313135353a207472616e7366657220746f206e6f6e204552433131353560008201527f526563656976657220696d706c656d656e746572000000000000000000000000602082015250565b600061586d603483613629565b915061587882615811565b604082019050919050565b6000602082019050818103600083015261589c81615860565b9050919050565b7f455243313135353a204552433131353552656365697665722072656a6563746560008201527f6420746f6b656e73000000000000000000000000000000000000000000000000602082015250565b60006158ff602883613629565b915061590a826158a3565b604082019050919050565b6000602082019050818103600083015261592e816158f2565b9050919050565b600060a08201905061594a6000830188613e67565b6159576020830187613e67565b615964604083018661350c565b615971606083018561350c565b8181036080830152615983818461566f565b9050969550505050505056fea264697066735822122012c32e0bf3c3c92fc15302c0415a15eb669e5cd0f89133290bf91bda3338368864736f6c63430008110033",
  "immutableReferences": {},
  "source": "// SPDX-License-Identifier: MIT\r\npragma solidity ^0.8.17;\r\n\r\nimport \"../node_modules/openzeppelin-solidity/contracts/token/ERC1155/extensions/ERC1155Burnable.sol\";\r\nimport \"../node_modules/openzeppelin-solidity/contracts/token/ERC1155/ERC1155.sol\";\r\nimport \"../node_modules/openzeppelin-solidity/contracts/access/Ownable.sol\";\r\n\r\n// import \"@openzeppelin/contracts/token/ERC1155/extensions/ERC1155Burnable.sol\";\r\n// import \"@openzeppelin/contracts/token/ERC1155/ERC1155.sol\";\r\n// import \"@openzeppelin/contracts/access/Ownable.sol\";\r\n\r\nimport \"./FunddingToken.sol\";\r\nimport \"./SaleToken.sol\";\r\n\r\n//     owner    EOA  .\r\n\r\ncontract DtsToken is ERC1155, Ownable{\r\n\r\n    constructor() ERC1155(\"\"){\r\n    \r\n    }\r\n\r\n    // // json metadata URI;\r\n    // string public metadataURI;\r\n\r\n    //      \r\n    struct tokenOwnerData{\r\n        //  \r\n        address Creater;\r\n        // nft \r\n        uint256 NftAmount;\r\n        //   ;\r\n        uint256 TotalPrice;\r\n        // nft  \r\n        uint256 UnitPrice;\r\n        //  \r\n        uint256 EndTime;\r\n        //   \r\n        bool isSuccess;\r\n    }\r\n\r\n    //       \r\n    struct votingData{\r\n        //  \r\n        address account;\r\n        // \r\n        uint256 Amount;\r\n        //  \r\n        bool result;\r\n    }\r\n    \r\n    //     \r\n    struct votingDay{\r\n        //   \r\n        uint256 time;\r\n        //   \r\n        uint256 date;\r\n    }\r\n    \r\n    //    nft  \r\n    // ids[]    .       balance. \r\n    uint256[] public ids;\r\n\r\n    // FunddingTokenCA  \r\n    address private _funddingCA;\r\n\r\n    FunddingToken public Ftoken;\r\n\r\n    // SaleTokenCA  \r\n    SaleToken public Stoken;\r\n\r\n    //     ,  , , NFT ,      \r\n    mapping(uint256 => tokenOwnerData) public tokenOwners;\r\n\r\n    //  \r\n    mapping(uint256 => mapping(uint256 => votingData)) public voting;\r\n\r\n    //      \r\n    mapping (uint256 => uint256) public votingCount;\r\n\r\n    //   \r\n    mapping (uint256 => votingDay) public votingDate;\r\n\r\n    //  uri  \r\n     mapping (uint256=>string) metadataURL;\r\n\r\n    //    \r\n    event seccessFundding(address account, uint256 tokenId, uint256 amount, uint256 totalPrice, uint256 getTime, string result);\r\n\r\n    //  nft \r\n    function tbalanceOf(uint256 tokenId) public view returns (uint) {\r\n        return ERC1155.balanceOf(msg.sender, tokenId);\r\n    }\r\n\r\n    //    nft tokenId    \r\n    function idsView() public view returns(uint256[] memory){\r\n        return ids;\r\n    }\r\n    \r\n\r\n    //   NFT    \r\n    // msg.sender       CA         .\r\n    function mintFundding(address account, address funddingTokenCA, uint256 tokenId, uint256 amount, uint256 totalPrice, uint256 getTime, string memory metadata) public{\r\n        // nft    \r\n        require(tokenOwners[tokenId].NftAmount == 0, \"have already been issued\");\r\n        //     .\r\n        require(account == msg.sender, \"It's not you.\");\r\n        //    \r\n        string memory result = \"fundding is seccess\";\r\n        \r\n        //     .\r\n        tokenOwnerData memory data = _getFunddingData(account,amount,totalPrice,getTime);\r\n        //     Id .\r\n        tokenOwners[tokenId] = data;\r\n        // nft \r\n        ERC1155._mint(account, tokenId, amount, \"\");\r\n        //   NFT  CA .\r\n        ERC1155.setApprovalForAll(funddingTokenCA, true);\r\n        ids.push(tokenId);\r\n\r\n        //  uri  \r\n        metadataURL[tokenId] = metadata;\r\n        // mintFundding  \r\n        emit seccessFundding(msg.sender, tokenId, amount, totalPrice, getTime, result);\r\n    }\r\n\r\n    //      \r\n    function _getFunddingData(address _account, uint256 _amount, uint256 _totalPrice, uint256 _getTime) private view returns(tokenOwnerData memory){\r\n        tokenOwnerData memory data;\r\n        uint256 _unitPrice = (_totalPrice * (10 ** 18)) /  _amount;\r\n        data.Creater = _account;\r\n        data.NftAmount = _amount;\r\n        data.TotalPrice = _totalPrice *(10 ** 18);\r\n        data.UnitPrice = _unitPrice;\r\n        data.EndTime = block.timestamp + (86400 * _getTime);\r\n        data.isSuccess = false;\r\n        \r\n        return data;\r\n    }\r\n\r\n    //   \r\n    function startVoting(uint256 tokenId, uint256 date, uint256 changeDay) public{\r\n        // nft       .\r\n        require(ERC1155.balanceOf(msg.sender, tokenId) != 0, \"no amount.\");\r\n        //     \r\n        require(block.timestamp * date > tokenOwners[tokenId].EndTime - 86400,\"The voting period is maximum until one day before.\");\r\n        //     \r\n        require(votingDate[tokenId].time == 0, \"There is already a vote.\");\r\n\r\n        \r\n        votingDate[tokenId].time = block.timestamp + (86400 * date);\r\n        votingDate[tokenId].date = changeDay;\r\n    }\r\n\r\n    //    \r\n    function isVoting(uint256 tokenId, bool governance) public{\r\n        // nft   \r\n        require(ERC1155.balanceOf(msg.sender, tokenId) != 0, \"no amount\");\r\n        //     \r\n        require(block.timestamp <= votingDate[tokenId].time, \"Time Out\" );\r\n        //   (  )\r\n        require(tokenOwners[tokenId].Creater != msg.sender, \"Creators are not allowed to participate\");\r\n        uint256 amount = ERC1155.balanceOf(msg.sender,tokenId);\r\n        bool result = false;\r\n        for(uint256 i = 1; i <= votingCount[tokenId]; i++){\r\n            if(voting[tokenId][i].account == msg.sender){\r\n                voting[tokenId][i] = votingData({account : msg.sender, Amount : amount, result : governance});\r\n                result = true;\r\n            }\r\n        }\r\n        if(result == false){\r\n        votingCount[tokenId] = votingCount[tokenId] + 1;\r\n        voting[tokenId][votingCount[tokenId]] = votingData({account : msg.sender, Amount : amount, result : governance});\r\n        }\r\n    }\r\n\r\n    //      (      .     nft     .)\r\n    function endVoting(uint256 tokenId, bool result) public{\r\n        //      \r\n        require(votingDate[tokenId].time < block.timestamp,\"Time Out?\");\r\n        // nft  ?\r\n        require(ERC1155.balanceOf(msg.sender, tokenId) != 0, \"no amount\");\r\n        //   \r\n        require(tokenOwners[tokenId].isSuccess != true,\"end Fundding?\");\r\n\r\n        if(result == true){\r\n        tokenOwners[tokenId].EndTime = tokenOwners[tokenId].EndTime + (86400 * votingDate[tokenId].date);\r\n        }\r\n    }\r\n\r\n    //     \r\n    function getVotingDate(uint256 tokenId)public view returns(uint256){\r\n        return votingDate[tokenId].time;\r\n    }\r\n    //      \r\n    function getVotingCount(uint256 tokenId) public view returns(uint256){\r\n        return votingCount[tokenId];\r\n    }\r\n    //   (address amount result)\r\n    function getVoting(uint256 tokenId, uint256 votingNum) public view returns(votingData memory){\r\n        return voting[tokenId][votingNum];\r\n    }\r\n    \r\n    //     \r\n    function getTokenOwnerData(uint256 tokenId) public view returns(tokenOwnerData memory){\r\n        return tokenOwners[tokenId];\r\n    }\r\n\r\n    //        true;\r\n    function isFunddingSuccess(uint256 tokenId) external{\r\n        require(ERC1155.balanceOf(tokenOwners[tokenId].Creater, tokenId) == 0, \"Is it sold out?\");\r\n        require(Ftoken.priceCheck(tokenId) == tokenOwners[tokenId].NftAmount);\r\n        tokenOwners[tokenId].isSuccess = true;\r\n    }\r\n    //           false;\r\n    function isFunddingFalsed(uint256 tokenId) external{\r\n        require(ERC1155.balanceOf(tokenOwners[tokenId].Creater, tokenId) > 0, \"Is it not sold out?\");\r\n        require(Ftoken.priceCheck(tokenId) != tokenOwners[tokenId].NftAmount);\r\n        tokenOwners[tokenId].isSuccess = false;\r\n    }\r\n\r\n    // saleToken   Dtoken .(      )\r\n    //      saleToken   .\r\n    function isSalesToken(address saleCA, uint256 tokenId, uint256 amount, uint256 price) public{\r\n        Stoken.salesToken(msg.sender, tokenId, amount, price);\r\n        // saleCA  \r\n        ERC1155.setApprovalForAll(saleCA, true);\r\n    }\r\n\r\n    // saleToken    \r\n    function saleApprovalFalse(address saleCA) public{\r\n        ERC1155.setApprovalForAll(saleCA, false);\r\n    }\r\n\r\n    //   .(FunddingOwnerOnly    SaleCA    . )\r\n    function faildBurn(address account, uint256 tokenId, uint256 amount) external FunddingOwnerOnly{\r\n        ERC1155._burn(account, tokenId, amount);\r\n    }\r\n\r\n    // FunddingToken        .  (FunddingOwnerOnly     .)\r\n    function isFunddingCA(address account) external {\r\n        require(account == msg.sender,\"FunddingCA????\");\r\n        require(_funddingCA == address(0),\"Run once only in the beginning\");\r\n        _funddingCA = account;\r\n        //   FunddingToken CA  Ftoken  .\r\n        Ftoken = FunddingToken(account);\r\n    }\r\n\r\n    // FunddingToken        . saleCA    \r\n    function isSaleCA(address account) external {\r\n        require(account == msg.sender,\"SaleCA????\");\r\n        //   SaleToken CA  Stoken  .\r\n        Stoken = SaleToken(account);\r\n    }\r\n\r\n    //   SaleCA   \r\n    modifier FunddingOwnerOnly() {\r\n        require(msg.sender == _funddingCA);\r\n        _;\r\n    }\r\n\r\n    //  view\r\n    function tokenURI(uint256 tokenId)public view returns(string memory){\r\n        return metadataURL[tokenId];\r\n    }\r\n\r\n    // // URI      .\r\n    // function setURI(string memory newuri) public onlyOwner {\r\n    //     _setURI(newuri);\r\n    // }\r\n    // // nft json \r\n    // function tokenURI(uint _tokenId) public override view returns (string memory) {\r\n    //     return string(abi.encodePacked(metadataURI, '/', Strings.toString(_tokenId), '.json'));\r\n    // }\r\n}",
  "sourcePath": "C:\\Users\\1225_\\OneDrive\\ \\bell\\contract\\contracts\\DtsToken.sol",
  "compiler": {
    "name": "solc",
    "version": "0.8.17+commit.8df45f5f.Emscripten.clang"
  },
  "schemaVersion": "3.4.11",
  "updatedAt": "2023-02-19T09:55:42.229Z",
  "networkType": "ethereum",
  "devdoc": {
    "kind": "dev",
    "methods": {
      "balanceOf(address,uint256)": {
        "details": "See {IERC1155-balanceOf}. Requirements: - `account` cannot be the zero address."
      },
      "balanceOfBatch(address[],uint256[])": {
        "details": "See {IERC1155-balanceOfBatch}. Requirements: - `accounts` and `ids` must have the same length."
      },
      "isApprovedForAll(address,address)": {
        "details": "See {IERC1155-isApprovedForAll}."
      },
      "owner()": {
        "details": "Returns the address of the current owner."
      },
      "renounceOwnership()": {
        "details": "Leaves the contract without owner. It will not be possible to call `onlyOwner` functions anymore. Can only be called by the current owner. NOTE: Renouncing ownership will leave the contract without an owner, thereby removing any functionality that is only available to the owner."
      },
      "safeBatchTransferFrom(address,address,uint256[],uint256[],bytes)": {
        "details": "See {IERC1155-safeBatchTransferFrom}."
      },
      "safeTransferFrom(address,address,uint256,uint256,bytes)": {
        "details": "See {IERC1155-safeTransferFrom}."
      },
      "setApprovalForAll(address,bool)": {
        "details": "See {IERC1155-setApprovalForAll}."
      },
      "supportsInterface(bytes4)": {
        "details": "See {IERC165-supportsInterface}."
      },
      "transferOwnership(address)": {
        "details": "Transfers ownership of the contract to a new account (`newOwner`). Can only be called by the current owner."
      },
      "uri(uint256)": {
        "details": "See {IERC1155MetadataURI-uri}. This implementation returns the same URI for *all* token types. It relies on the token type ID substitution mechanism https://eips.ethereum.org/EIPS/eip-1155#metadata[defined in the EIP]. Clients calling this function must replace the `\\{id\\}` substring with the actual token type ID."
      }
    },
    "version": 1
  },
  "userdoc": {
    "kind": "user",
    "methods": {},
    "version": 1
  }
}