{
  "contractName": "DtsToken",
  "abi": [
    {
      "inputs": [],
      "stateMutability": "nonpayable",
      "type": "constructor"
    },
    {
      "anonymous": false,
      "inputs": [
        {
          "indexed": true,
          "internalType": "address",
          "name": "account",
          "type": "address"
        },
        {
          "indexed": true,
          "internalType": "address",
          "name": "operator",
          "type": "address"
        },
        {
          "indexed": false,
          "internalType": "bool",
          "name": "approved",
          "type": "bool"
        }
      ],
      "name": "ApprovalForAll",
      "type": "event"
    },
    {
      "anonymous": false,
      "inputs": [
        {
          "indexed": true,
          "internalType": "address",
          "name": "previousOwner",
          "type": "address"
        },
        {
          "indexed": true,
          "internalType": "address",
          "name": "newOwner",
          "type": "address"
        }
      ],
      "name": "OwnershipTransferred",
      "type": "event"
    },
    {
      "anonymous": false,
      "inputs": [
        {
          "indexed": true,
          "internalType": "address",
          "name": "operator",
          "type": "address"
        },
        {
          "indexed": true,
          "internalType": "address",
          "name": "from",
          "type": "address"
        },
        {
          "indexed": true,
          "internalType": "address",
          "name": "to",
          "type": "address"
        },
        {
          "indexed": false,
          "internalType": "uint256[]",
          "name": "ids",
          "type": "uint256[]"
        },
        {
          "indexed": false,
          "internalType": "uint256[]",
          "name": "values",
          "type": "uint256[]"
        }
      ],
      "name": "TransferBatch",
      "type": "event"
    },
    {
      "anonymous": false,
      "inputs": [
        {
          "indexed": true,
          "internalType": "address",
          "name": "operator",
          "type": "address"
        },
        {
          "indexed": true,
          "internalType": "address",
          "name": "from",
          "type": "address"
        },
        {
          "indexed": true,
          "internalType": "address",
          "name": "to",
          "type": "address"
        },
        {
          "indexed": false,
          "internalType": "uint256",
          "name": "id",
          "type": "uint256"
        },
        {
          "indexed": false,
          "internalType": "uint256",
          "name": "value",
          "type": "uint256"
        }
      ],
      "name": "TransferSingle",
      "type": "event"
    },
    {
      "anonymous": false,
      "inputs": [
        {
          "indexed": false,
          "internalType": "string",
          "name": "value",
          "type": "string"
        },
        {
          "indexed": true,
          "internalType": "uint256",
          "name": "id",
          "type": "uint256"
        }
      ],
      "name": "URI",
      "type": "event"
    },
    {
      "anonymous": false,
      "inputs": [
        {
          "indexed": false,
          "internalType": "address",
          "name": "account",
          "type": "address"
        },
        {
          "indexed": false,
          "internalType": "uint256",
          "name": "tokenId",
          "type": "uint256"
        },
        {
          "indexed": false,
          "internalType": "uint256",
          "name": "amount",
          "type": "uint256"
        },
        {
          "indexed": false,
          "internalType": "uint256",
          "name": "totalPrice",
          "type": "uint256"
        },
        {
          "indexed": false,
          "internalType": "uint256",
          "name": "getTime",
          "type": "uint256"
        },
        {
          "indexed": false,
          "internalType": "string",
          "name": "result",
          "type": "string"
        }
      ],
      "name": "seccessFundding",
      "type": "event"
    },
    {
      "inputs": [],
      "name": "Ftoken",
      "outputs": [
        {
          "internalType": "contract FunddingToken",
          "name": "",
          "type": "address"
        }
      ],
      "stateMutability": "view",
      "type": "function",
      "constant": true
    },
    {
      "inputs": [],
      "name": "Stoken",
      "outputs": [
        {
          "internalType": "contract SaleToken",
          "name": "",
          "type": "address"
        }
      ],
      "stateMutability": "view",
      "type": "function",
      "constant": true
    },
    {
      "inputs": [
        {
          "internalType": "address[]",
          "name": "accounts",
          "type": "address[]"
        },
        {
          "internalType": "uint256[]",
          "name": "ids",
          "type": "uint256[]"
        }
      ],
      "name": "balanceOfBatch",
      "outputs": [
        {
          "internalType": "uint256[]",
          "name": "",
          "type": "uint256[]"
        }
      ],
      "stateMutability": "view",
      "type": "function",
      "constant": true
    },
    {
      "inputs": [
        {
          "internalType": "uint256",
          "name": "",
          "type": "uint256"
        }
      ],
      "name": "ids",
      "outputs": [
        {
          "internalType": "uint256",
          "name": "",
          "type": "uint256"
        }
      ],
      "stateMutability": "view",
      "type": "function",
      "constant": true
    },
    {
      "inputs": [
        {
          "internalType": "address",
          "name": "account",
          "type": "address"
        },
        {
          "internalType": "address",
          "name": "operator",
          "type": "address"
        }
      ],
      "name": "isApprovedForAll",
      "outputs": [
        {
          "internalType": "bool",
          "name": "",
          "type": "bool"
        }
      ],
      "stateMutability": "view",
      "type": "function",
      "constant": true
    },
    {
      "inputs": [],
      "name": "owner",
      "outputs": [
        {
          "internalType": "address",
          "name": "",
          "type": "address"
        }
      ],
      "stateMutability": "view",
      "type": "function",
      "constant": true
    },
    {
      "inputs": [],
      "name": "renounceOwnership",
      "outputs": [],
      "stateMutability": "nonpayable",
      "type": "function"
    },
    {
      "inputs": [
        {
          "internalType": "address",
          "name": "from",
          "type": "address"
        },
        {
          "internalType": "address",
          "name": "to",
          "type": "address"
        },
        {
          "internalType": "uint256[]",
          "name": "ids",
          "type": "uint256[]"
        },
        {
          "internalType": "uint256[]",
          "name": "amounts",
          "type": "uint256[]"
        },
        {
          "internalType": "bytes",
          "name": "data",
          "type": "bytes"
        }
      ],
      "name": "safeBatchTransferFrom",
      "outputs": [],
      "stateMutability": "nonpayable",
      "type": "function"
    },
    {
      "inputs": [
        {
          "internalType": "address",
          "name": "from",
          "type": "address"
        },
        {
          "internalType": "address",
          "name": "to",
          "type": "address"
        },
        {
          "internalType": "uint256",
          "name": "id",
          "type": "uint256"
        },
        {
          "internalType": "uint256",
          "name": "amount",
          "type": "uint256"
        },
        {
          "internalType": "bytes",
          "name": "data",
          "type": "bytes"
        }
      ],
      "name": "safeTransferFrom",
      "outputs": [],
      "stateMutability": "nonpayable",
      "type": "function"
    },
    {
      "inputs": [
        {
          "internalType": "address",
          "name": "operator",
          "type": "address"
        },
        {
          "internalType": "bool",
          "name": "approved",
          "type": "bool"
        }
      ],
      "name": "setApprovalForAll",
      "outputs": [],
      "stateMutability": "nonpayable",
      "type": "function"
    },
    {
      "inputs": [
        {
          "internalType": "bytes4",
          "name": "interfaceId",
          "type": "bytes4"
        }
      ],
      "name": "supportsInterface",
      "outputs": [
        {
          "internalType": "bool",
          "name": "",
          "type": "bool"
        }
      ],
      "stateMutability": "view",
      "type": "function",
      "constant": true
    },
    {
      "inputs": [
        {
          "internalType": "uint256",
          "name": "",
          "type": "uint256"
        }
      ],
      "name": "tokenOwners",
      "outputs": [
        {
          "internalType": "address",
          "name": "Creater",
          "type": "address"
        },
        {
          "internalType": "uint256",
          "name": "NftAmount",
          "type": "uint256"
        },
        {
          "internalType": "uint256",
          "name": "TotalPrice",
          "type": "uint256"
        },
        {
          "internalType": "uint256",
          "name": "UnitPrice",
          "type": "uint256"
        },
        {
          "internalType": "uint256",
          "name": "EndTime",
          "type": "uint256"
        },
        {
          "internalType": "bool",
          "name": "isSuccess",
          "type": "bool"
        }
      ],
      "stateMutability": "view",
      "type": "function",
      "constant": true
    },
    {
      "inputs": [
        {
          "internalType": "address",
          "name": "newOwner",
          "type": "address"
        }
      ],
      "name": "transferOwnership",
      "outputs": [],
      "stateMutability": "nonpayable",
      "type": "function"
    },
    {
      "inputs": [
        {
          "internalType": "uint256",
          "name": "",
          "type": "uint256"
        }
      ],
      "name": "uri",
      "outputs": [
        {
          "internalType": "string",
          "name": "",
          "type": "string"
        }
      ],
      "stateMutability": "view",
      "type": "function",
      "constant": true
    },
    {
      "inputs": [
        {
          "internalType": "uint256",
          "name": "",
          "type": "uint256"
        },
        {
          "internalType": "uint256",
          "name": "",
          "type": "uint256"
        }
      ],
      "name": "voting",
      "outputs": [
        {
          "internalType": "address",
          "name": "account",
          "type": "address"
        },
        {
          "internalType": "uint256",
          "name": "Amount",
          "type": "uint256"
        },
        {
          "internalType": "bool",
          "name": "result",
          "type": "bool"
        }
      ],
      "stateMutability": "view",
      "type": "function",
      "constant": true
    },
    {
      "inputs": [
        {
          "internalType": "uint256",
          "name": "",
          "type": "uint256"
        }
      ],
      "name": "votingCount",
      "outputs": [
        {
          "internalType": "uint256",
          "name": "",
          "type": "uint256"
        }
      ],
      "stateMutability": "view",
      "type": "function",
      "constant": true
    },
    {
      "inputs": [
        {
          "internalType": "uint256",
          "name": "",
          "type": "uint256"
        }
      ],
      "name": "votingDate",
      "outputs": [
        {
          "internalType": "uint256",
          "name": "",
          "type": "uint256"
        }
      ],
      "stateMutability": "view",
      "type": "function",
      "constant": true
    },
    {
      "inputs": [
        {
          "internalType": "address",
          "name": "account",
          "type": "address"
        },
        {
          "internalType": "uint256",
          "name": "tokenId",
          "type": "uint256"
        }
      ],
      "name": "balanceOf",
      "outputs": [
        {
          "internalType": "uint256",
          "name": "",
          "type": "uint256"
        }
      ],
      "stateMutability": "view",
      "type": "function",
      "constant": true
    },
    {
      "inputs": [],
      "name": "idsView",
      "outputs": [
        {
          "internalType": "uint256[]",
          "name": "",
          "type": "uint256[]"
        }
      ],
      "stateMutability": "view",
      "type": "function",
      "constant": true
    },
    {
      "inputs": [
        {
          "internalType": "address",
          "name": "account",
          "type": "address"
        },
        {
          "internalType": "address",
          "name": "funddingTokenCA",
          "type": "address"
        },
        {
          "internalType": "uint256",
          "name": "tokenId",
          "type": "uint256"
        },
        {
          "internalType": "uint256",
          "name": "amount",
          "type": "uint256"
        },
        {
          "internalType": "uint256",
          "name": "totalPrice",
          "type": "uint256"
        },
        {
          "internalType": "uint256",
          "name": "getTime",
          "type": "uint256"
        },
        {
          "internalType": "string",
          "name": "metadata",
          "type": "string"
        }
      ],
      "name": "mintFundding",
      "outputs": [],
      "stateMutability": "nonpayable",
      "type": "function"
    },
    {
      "inputs": [
        {
          "internalType": "uint256",
          "name": "tokenId",
          "type": "uint256"
        },
        {
          "internalType": "uint256",
          "name": "date",
          "type": "uint256"
        }
      ],
      "name": "startVoting",
      "outputs": [],
      "stateMutability": "nonpayable",
      "type": "function"
    },
    {
      "inputs": [
        {
          "internalType": "uint256",
          "name": "tokenId",
          "type": "uint256"
        },
        {
          "internalType": "bool",
          "name": "governance",
          "type": "bool"
        }
      ],
      "name": "isVoting",
      "outputs": [],
      "stateMutability": "nonpayable",
      "type": "function"
    },
    {
      "inputs": [
        {
          "internalType": "uint256",
          "name": "tokenId",
          "type": "uint256"
        },
        {
          "internalType": "bool",
          "name": "result",
          "type": "bool"
        }
      ],
      "name": "endVoting",
      "outputs": [],
      "stateMutability": "nonpayable",
      "type": "function"
    },
    {
      "inputs": [
        {
          "internalType": "uint256",
          "name": "tokenId",
          "type": "uint256"
        }
      ],
      "name": "getVotingDate",
      "outputs": [
        {
          "internalType": "uint256",
          "name": "",
          "type": "uint256"
        }
      ],
      "stateMutability": "view",
      "type": "function",
      "constant": true
    },
    {
      "inputs": [
        {
          "internalType": "uint256",
          "name": "tokenId",
          "type": "uint256"
        }
      ],
      "name": "getVotingCount",
      "outputs": [
        {
          "internalType": "uint256",
          "name": "",
          "type": "uint256"
        }
      ],
      "stateMutability": "view",
      "type": "function",
      "constant": true
    },
    {
      "inputs": [
        {
          "internalType": "uint256",
          "name": "tokenId",
          "type": "uint256"
        },
        {
          "internalType": "uint256",
          "name": "votingNum",
          "type": "uint256"
        }
      ],
      "name": "getVoting",
      "outputs": [
        {
          "components": [
            {
              "internalType": "address",
              "name": "account",
              "type": "address"
            },
            {
              "internalType": "uint256",
              "name": "Amount",
              "type": "uint256"
            },
            {
              "internalType": "bool",
              "name": "result",
              "type": "bool"
            }
          ],
          "internalType": "struct DtsToken.votingdata",
          "name": "",
          "type": "tuple"
        }
      ],
      "stateMutability": "view",
      "type": "function",
      "constant": true
    },
    {
      "inputs": [
        {
          "internalType": "uint256",
          "name": "tokenId",
          "type": "uint256"
        }
      ],
      "name": "getTokenOwnerData",
      "outputs": [
        {
          "components": [
            {
              "internalType": "address",
              "name": "Creater",
              "type": "address"
            },
            {
              "internalType": "uint256",
              "name": "NftAmount",
              "type": "uint256"
            },
            {
              "internalType": "uint256",
              "name": "TotalPrice",
              "type": "uint256"
            },
            {
              "internalType": "uint256",
              "name": "UnitPrice",
              "type": "uint256"
            },
            {
              "internalType": "uint256",
              "name": "EndTime",
              "type": "uint256"
            },
            {
              "internalType": "bool",
              "name": "isSuccess",
              "type": "bool"
            }
          ],
          "internalType": "struct DtsToken.tokenOwnerData",
          "name": "",
          "type": "tuple"
        }
      ],
      "stateMutability": "view",
      "type": "function",
      "constant": true
    },
    {
      "inputs": [
        {
          "internalType": "uint256",
          "name": "tokenId",
          "type": "uint256"
        }
      ],
      "name": "isFunddingSuccess",
      "outputs": [],
      "stateMutability": "nonpayable",
      "type": "function"
    },
    {
      "inputs": [
        {
          "internalType": "uint256",
          "name": "tokenId",
          "type": "uint256"
        }
      ],
      "name": "isFunddingFalsed",
      "outputs": [],
      "stateMutability": "nonpayable",
      "type": "function"
    },
    {
      "inputs": [
        {
          "internalType": "address",
          "name": "saleCA",
          "type": "address"
        },
        {
          "internalType": "uint256",
          "name": "tokenId",
          "type": "uint256"
        },
        {
          "internalType": "uint256",
          "name": "amount",
          "type": "uint256"
        },
        {
          "internalType": "uint256",
          "name": "price",
          "type": "uint256"
        }
      ],
      "name": "isSalesToken",
      "outputs": [],
      "stateMutability": "nonpayable",
      "type": "function"
    },
    {
      "inputs": [
        {
          "internalType": "address",
          "name": "saleCA",
          "type": "address"
        }
      ],
      "name": "saleApprovalFalse",
      "outputs": [],
      "stateMutability": "nonpayable",
      "type": "function"
    },
    {
      "inputs": [
        {
          "internalType": "address",
          "name": "account",
          "type": "address"
        },
        {
          "internalType": "uint256",
          "name": "tokenId",
          "type": "uint256"
        },
        {
          "internalType": "uint256",
          "name": "amount",
          "type": "uint256"
        }
      ],
      "name": "faildBurn",
      "outputs": [],
      "stateMutability": "nonpayable",
      "type": "function"
    },
    {
      "inputs": [
        {
          "internalType": "address",
          "name": "account",
          "type": "address"
        }
      ],
      "name": "isFunddingCA",
      "outputs": [],
      "stateMutability": "nonpayable",
      "type": "function"
    },
    {
      "inputs": [
        {
          "internalType": "address",
          "name": "account",
          "type": "address"
        }
      ],
      "name": "isSaleCA",
      "outputs": [],
      "stateMutability": "nonpayable",
      "type": "function"
    },
    {
      "inputs": [
        {
          "internalType": "uint256",
          "name": "tokenId",
          "type": "uint256"
        }
      ],
      "name": "tokenURI",
      "outputs": [
        {
          "internalType": "string",
          "name": "",
          "type": "string"
        }
      ],
      "stateMutability": "view",
      "type": "function",
      "constant": true
    }
  ],
  "bytecode": "0x60806040523480156200001157600080fd5b506040518060200160405280600081525062000033816200005a60201b60201c565b5062000054620000486200006f60201b60201c565b6200007760201b60201c565b6200049e565b80600290816200006b9190620003b7565b5050565b600033905090565b6000600360009054906101000a900473ffffffffffffffffffffffffffffffffffffffff16905081600360006101000a81548173ffffffffffffffffffffffffffffffffffffffff021916908373ffffffffffffffffffffffffffffffffffffffff1602179055508173ffffffffffffffffffffffffffffffffffffffff168173ffffffffffffffffffffffffffffffffffffffff167f8be0079c531659141344cd1fd0a4f28419497f9722a3daafe3b4186f6b6457e060405160405180910390a35050565b600081519050919050565b7f4e487b7100000000000000000000000000000000000000000000000000000000600052604160045260246000fd5b7f4e487b7100000000000000000000000000000000000000000000000000000000600052602260045260246000fd5b60006002820490506001821680620001bf57607f821691505b602082108103620001d557620001d462000177565b5b50919050565b60008190508160005260206000209050919050565b60006020601f8301049050919050565b600082821b905092915050565b6000600883026200023f7fffffffffffffffffffffffffffffffffffffffffffffffffffffffffffffffff8262000200565b6200024b868362000200565b95508019841693508086168417925050509392505050565b6000819050919050565b6000819050919050565b600062000298620002926200028c8462000263565b6200026d565b62000263565b9050919050565b6000819050919050565b620002b48362000277565b620002cc620002c3826200029f565b8484546200020d565b825550505050565b600090565b620002e3620002d4565b620002f0818484620002a9565b505050565b5b8181101562000318576200030c600082620002d9565b600181019050620002f6565b5050565b601f82111562000367576200033181620001db565b6200033c84620001f0565b810160208510156200034c578190505b620003646200035b85620001f0565b830182620002f5565b50505b505050565b600082821c905092915050565b60006200038c600019846008026200036c565b1980831691505092915050565b6000620003a7838362000379565b9150826002028217905092915050565b620003c2826200013d565b67ffffffffffffffff811115620003de57620003dd62000148565b5b620003ea8254620001a6565b620003f78282856200031c565b600060209050601f8311600181146200042f57600084156200041a578287015190505b62000426858262000399565b86555062000496565b601f1984166200043f86620001db565b60005b82811015620004695784890151825560018201915060208501945060208101905062000442565b8683101562000489578489015162000485601f89168262000379565b8355505b6001600288020188555050505b505050505050565b6158d180620004ae6000396000f3fe608060405234801561001057600080fd5b50600436106102105760003560e01c80638da5cb5b11610125578063d68ad7a0116100ad578063f2fde38b1161007c578063f2fde38b14610659578063f4a3a92b14610675578063f8a14f4614610691578063fac333ac146106c6578063fcc1ff5c146106f657610210565b8063d68ad7a0146105c1578063e29be1a1146105f1578063e985e9c51461060d578063f242432a1461063d57610210565b8063aee4a42a116100f4578063aee4a42a146104f7578063c31f4b5814610527578063c87b56dd14610543578063cfaad27c14610573578063d198cc01146105a557610210565b80638da5cb5b1461048557806390fe5609146104a35780639d835c5f146104bf578063a22cb465146104db57610210565b806346a0d50a116101a857806361b1b23c1161017757806361b1b23c146103f3578063715018a614610411578063773790821461041b5780637abfee42146104375780638d63193d1461045557610210565b806346a0d50a146103475780634b77f8d0146103775780634e1273f4146103935780634f4eacd8146103c357610210565b80632374fdcf116101e45780632374fdcf146102d55780632eb2c2d6146102f1578063325d20c41461030d5780634672a6021461032b57610210565b8062fdd58e1461021557806301ffc9a7146102455780630e89341c146102755780630fe2a68d146102a5575b600080fd5b61022f600480360381019061022a919061342b565b610712565b60405161023c919061347a565b60405180910390f35b61025f600480360381019061025a91906134ed565b610726565b60405161026c9190613535565b60405180910390f35b61028f600480360381019061028a9190613550565b610808565b60405161029c919061360d565b60405180910390f35b6102bf60048036038101906102ba9190613550565b61089c565b6040516102cc919061347a565b60405180910390f35b6102ef60048036038101906102ea9190613550565b6108b4565b005b61030b6004803603810190610306919061382c565b610a25565b005b610315610ac6565b604051610322919061395a565b60405180910390f35b61034560048036038101906103409190613975565b610aec565b005b610361600480360381019061035c91906139a2565b610b9e565b60405161036e9190613a51565b60405180910390f35b610391600480360381019061038c9190613975565b610c58565b005b6103ad60048036038101906103a89190613b2f565b610c66565b6040516103ba9190613c56565b60405180910390f35b6103dd60048036038101906103d89190613550565b610d7f565b6040516103ea919061347a565b60405180910390f35b6103fb610d9c565b6040516104089190613c99565b60405180910390f35b610419610dc2565b005b61043560048036038101906104309190613cb4565b610e4a565b005b61043f610eb4565b60405161044c9190613c56565b60405180910390f35b61046f600480360381019061046a9190613550565b610f0c565b60405161047c9190613d82565b60405180910390f35b61048d610fd2565b60405161049a9190613dac565b60405180910390f35b6104bd60048036038101906104b891906139a2565b610ffc565b005b6104d960048036038101906104d49190613e68565b611136565b005b6104f560048036038101906104f09190613f52565b6113a9565b005b610511600480360381019061050c9190613550565b6113bf565b60405161051e919061347a565b60405180910390f35b610541600480360381019061053c9190613550565b6113dc565b005b61055d60048036038101906105589190613550565b61154d565b60405161056a919061360d565b60405180910390f35b61058d600480360381019061058891906139a2565b6115f2565b60405161059c93929190613f92565b60405180910390f35b6105bf60048036038101906105ba9190613fc9565b611656565b005b6105db60048036038101906105d69190613550565b6117b1565b6040516105e8919061347a565b60405180910390f35b61060b60048036038101906106069190613975565b6117c9565b005b61062760048036038101906106229190614009565b61194d565b6040516106349190613535565b60405180910390f35b61065760048036038101906106529190614049565b6119e1565b005b610673600480360381019061066e9190613975565b611a82565b005b61068f600480360381019061068a91906140e0565b611b79565b005b6106ab60048036038101906106a69190613550565b611c1d565b6040516106bd96959493929190614147565b60405180910390f35b6106e060048036038101906106db9190613550565b611c86565b6040516106ed919061347a565b60405180910390f35b610710600480360381019061070b9190613fc9565b611caa565b005b600061071e83836120a6565b905092915050565b60007fd9b67a26000000000000000000000000000000000000000000000000000000007bffffffffffffffffffffffffffffffffffffffffffffffffffffffff1916827bffffffffffffffffffffffffffffffffffffffffffffffffffffffff191614806107f157507f0e89341c000000000000000000000000000000000000000000000000000000007bffffffffffffffffffffffffffffffffffffffffffffffffffffffff1916827bffffffffffffffffffffffffffffffffffffffffffffffffffffffff1916145b8061080157506108008261216e565b5b9050919050565b606060028054610817906141d7565b80601f0160208091040260200160405190810160405280929190818152602001828054610843906141d7565b80156108905780601f1061086557610100808354040283529160200191610890565b820191906000526020600020905b81548152906001019060200180831161087357829003601f168201915b50505050509050919050565b600b6020528060005260406000206000915090505481565b60006108f66008600084815260200190815260200160002060000160009054906101000a900473ffffffffffffffffffffffffffffffffffffffff16836120a6565b11610936576040517f08c379a000000000000000000000000000000000000000000000000000000000815260040161092d90614254565b60405180910390fd5b6008600082815260200190815260200160002060010154600660009054906101000a900473ffffffffffffffffffffffffffffffffffffffff1673ffffffffffffffffffffffffffffffffffffffff166349e5465c836040518263ffffffff1660e01b81526004016109a8919061347a565b602060405180830381865afa1580156109c5573d6000803e3d6000fd5b505050506040513d601f19601f820116820180604052508101906109e99190614289565b036109f357600080fd5b60006008600083815260200190815260200160002060050160006101000a81548160ff02191690831515021790555050565b610a2d6121d8565b73ffffffffffffffffffffffffffffffffffffffff168573ffffffffffffffffffffffffffffffffffffffff161480610a735750610a7285610a6d6121d8565b61194d565b5b610ab2576040517f08c379a0000000000000000000000000000000000000000000000000000000008152600401610aa990614328565b60405180910390fd5b610abf85858585856121e0565b5050505050565b600660009054906101000a900473ffffffffffffffffffffffffffffffffffffffff1681565b3373ffffffffffffffffffffffffffffffffffffffff168173ffffffffffffffffffffffffffffffffffffffff1614610b5a576040517f08c379a0000000000000000000000000000000000000000000000000000000008152600401610b5190614394565b60405180910390fd5b80600760006101000a81548173ffffffffffffffffffffffffffffffffffffffff021916908373ffffffffffffffffffffffffffffffffffffffff16021790555050565b610ba66132fc565b6009600084815260200190815260200160002060008381526020019081526020016000206040518060600160405290816000820160009054906101000a900473ffffffffffffffffffffffffffffffffffffffff1673ffffffffffffffffffffffffffffffffffffffff1673ffffffffffffffffffffffffffffffffffffffff168152602001600182015481526020016002820160009054906101000a900460ff161515151581525050905092915050565b610c638160006113a9565b50565b60608151835114610cac576040517f08c379a0000000000000000000000000000000000000000000000000000000008152600401610ca390614426565b60405180910390fd5b6000835167ffffffffffffffff811115610cc957610cc8613634565b5b604051908082528060200260200182016040528015610cf75781602001602082028036833780820191505090505b50905060005b8451811015610d7457610d44858281518110610d1c57610d1b614446565b5b6020026020010151858381518110610d3757610d36614446565b5b6020026020010151610712565b828281518110610d5757610d56614446565b5b60200260200101818152505080610d6d906144a4565b9050610cfd565b508091505092915050565b6000600b6000838152602001908152602001600020549050919050565b600760009054906101000a900473ffffffffffffffffffffffffffffffffffffffff1681565b610dca6121d8565b73ffffffffffffffffffffffffffffffffffffffff16610de8610fd2565b73ffffffffffffffffffffffffffffffffffffffff1614610e3e576040517f08c379a0000000000000000000000000000000000000000000000000000000008152600401610e3590614538565b60405180910390fd5b610e486000612501565b565b600560009054906101000a900473ffffffffffffffffffffffffffffffffffffffff1673ffffffffffffffffffffffffffffffffffffffff163373ffffffffffffffffffffffffffffffffffffffff1614610ea457600080fd5b610eaf8383836125c7565b505050565b60606004805480602002602001604051908101604052809291908181526020018280548015610f0257602002820191906000526020600020905b815481526020019060010190808311610eee575b5050505050905090565b610f14613335565b600860008381526020019081526020016000206040518060c00160405290816000820160009054906101000a900473ffffffffffffffffffffffffffffffffffffffff1673ffffffffffffffffffffffffffffffffffffffff1673ffffffffffffffffffffffffffffffffffffffff168152602001600182015481526020016002820154815260200160038201548152602001600482015481526020016005820160009054906101000a900460ff1615151515815250509050919050565b6000600360009054906101000a900473ffffffffffffffffffffffffffffffffffffffff16905090565b600061100833846120a6565b03611048576040517f08c379a000000000000000000000000000000000000000000000000000000000815260040161103f906145a4565b60405180910390fd5b62015180600860008481526020019081526020016000206004015461106d91906145c4565b814261107991906145f8565b116110b9576040517f08c379a00000000000000000000000000000000000000000000000000000000081526004016110b0906146ac565b60405180910390fd5b6000600b6000848152602001908152602001600020540361110f576040517f08c379a000000000000000000000000000000000000000000000000000000000815260040161110690614718565b60405180910390fd5b804261111b91906145f8565b600b6000848152602001908152602001600020819055505050565b600060086000878152602001908152602001600020600101541461118f576040517f08c379a000000000000000000000000000000000000000000000000000000000815260040161118690614784565b60405180910390fd5b3373ffffffffffffffffffffffffffffffffffffffff168773ffffffffffffffffffffffffffffffffffffffff16146111fd576040517f08c379a00000000000000000000000000000000000000000000000000000000081526004016111f4906147f0565b60405180910390fd5b60006040518060400160405280601381526020017f66756e6464696e67206973207365636365737300000000000000000000000000815250905060006112458987878761280d565b9050806008600089815260200190815260200160002060008201518160000160006101000a81548173ffffffffffffffffffffffffffffffffffffffff021916908373ffffffffffffffffffffffffffffffffffffffff1602179055506020820151816001015560408201518160020155606082015181600301556080820151816004015560a08201518160050160006101000a81548160ff021916908315150217905550905050611308898888604051806020016040528060008152506128ea565b6113138860016113a9565b600487908060018154018082558091505060019003906000526020600020016000909190919091505582600c6000898152602001908152602001600020908161135c91906149b2565b507f8bdc0347739a882305e00b5fa613e8629b5da77a48abac45661315c45619c54833888888888760405161139696959493929190614a84565b60405180910390a1505050505050505050565b6113bb6113b46121d8565b8383612a9a565b5050565b6000600a6000838152602001908152602001600020549050919050565b600061141e6008600084815260200190815260200160002060000160009054906101000a900473ffffffffffffffffffffffffffffffffffffffff16836120a6565b1461145e576040517f08c379a000000000000000000000000000000000000000000000000000000000815260040161145590614b38565b60405180910390fd5b6008600082815260200190815260200160002060010154600660009054906101000a900473ffffffffffffffffffffffffffffffffffffffff1673ffffffffffffffffffffffffffffffffffffffff166349e5465c836040518263ffffffff1660e01b81526004016114d0919061347a565b602060405180830381865afa1580156114ed573d6000803e3d6000fd5b505050506040513d601f19601f820116820180604052508101906115119190614289565b1461151b57600080fd5b60016008600083815260200190815260200160002060050160006101000a81548160ff02191690831515021790555050565b6060600c6000838152602001908152602001600020805461156d906141d7565b80601f0160208091040260200160405190810160405280929190818152602001828054611599906141d7565b80156115e65780601f106115bb576101008083540402835291602001916115e6565b820191906000526020600020905b8154815290600101906020018083116115c957829003601f168201915b50505050509050919050565b6009602052816000526040600020602052806000526040600020600091509150508060000160009054906101000a900473ffffffffffffffffffffffffffffffffffffffff16908060010154908060020160009054906101000a900460ff16905083565b42600b600084815260200190815260200160002054106116ab576040517f08c379a00000000000000000000000000000000000000000000000000000000081526004016116a290614ba4565b60405180910390fd5b60006116b733846120a6565b036116f7576040517f08c379a00000000000000000000000000000000000000000000000000000000081526004016116ee90614c10565b60405180910390fd5b600115156008600084815260200190815260200160002060050160009054906101000a900460ff16151503611761576040517f08c379a000000000000000000000000000000000000000000000000000000000815260040161175890614c7c565b60405180910390fd5b60011515811515036117ad576212750060086000848152602001908152602001600020600401546117929190614c9c565b60086000848152602001908152602001600020600401819055505b5050565b600a6020528060005260406000206000915090505481565b3373ffffffffffffffffffffffffffffffffffffffff168173ffffffffffffffffffffffffffffffffffffffff1614611837576040517f08c379a000000000000000000000000000000000000000000000000000000000815260040161182e90614d1c565b60405180910390fd5b600073ffffffffffffffffffffffffffffffffffffffff16600560009054906101000a900473ffffffffffffffffffffffffffffffffffffffff1673ffffffffffffffffffffffffffffffffffffffff16146118c8576040517f08c379a00000000000000000000000000000000000000000000000000000000081526004016118bf90614d88565b60405180910390fd5b80600560006101000a81548173ffffffffffffffffffffffffffffffffffffffff021916908373ffffffffffffffffffffffffffffffffffffffff16021790555080600660006101000a81548173ffffffffffffffffffffffffffffffffffffffff021916908373ffffffffffffffffffffffffffffffffffffffff16021790555050565b6000600160008473ffffffffffffffffffffffffffffffffffffffff1673ffffffffffffffffffffffffffffffffffffffff16815260200190815260200160002060008373ffffffffffffffffffffffffffffffffffffffff1673ffffffffffffffffffffffffffffffffffffffff16815260200190815260200160002060009054906101000a900460ff16905092915050565b6119e96121d8565b73ffffffffffffffffffffffffffffffffffffffff168573ffffffffffffffffffffffffffffffffffffffff161480611a2f5750611a2e85611a296121d8565b61194d565b5b611a6e576040517f08c379a0000000000000000000000000000000000000000000000000000000008152600401611a6590614e1a565b60405180910390fd5b611a7b8585858585612c06565b5050505050565b611a8a6121d8565b73ffffffffffffffffffffffffffffffffffffffff16611aa8610fd2565b73ffffffffffffffffffffffffffffffffffffffff1614611afe576040517f08c379a0000000000000000000000000000000000000000000000000000000008152600401611af590614538565b60405180910390fd5b600073ffffffffffffffffffffffffffffffffffffffff168173ffffffffffffffffffffffffffffffffffffffff1603611b6d576040517f08c379a0000000000000000000000000000000000000000000000000000000008152600401611b6490614eac565b60405180910390fd5b611b7681612501565b50565b600760009054906101000a900473ffffffffffffffffffffffffffffffffffffffff1673ffffffffffffffffffffffffffffffffffffffff166323dc2e65338585856040518563ffffffff1660e01b8152600401611bda9493929190614ecc565b600060405180830381600087803b158015611bf457600080fd5b505af1158015611c08573d6000803e3d6000fd5b50505050611c178460016113a9565b50505050565b60086020528060005260406000206000915090508060000160009054906101000a900473ffffffffffffffffffffffffffffffffffffffff16908060010154908060020154908060030154908060040154908060050160009054906101000a900460ff16905086565b60048181548110611c9657600080fd5b906000526020600020016000915090505481565b6000611cb633846120a6565b03611cf6576040517f08c379a0000000000000000000000000000000000000000000000000000000008152600401611ced90614c10565b60405180910390fd5b600b600083815260200190815260200160002054421115611d4c576040517f08c379a0000000000000000000000000000000000000000000000000000000008152600401611d4390614f5d565b60405180910390fd5b3373ffffffffffffffffffffffffffffffffffffffff166008600084815260200190815260200160002060000160009054906101000a900473ffffffffffffffffffffffffffffffffffffffff1673ffffffffffffffffffffffffffffffffffffffff1603611df0576040517f08c379a0000000000000000000000000000000000000000000000000000000008152600401611de790614fef565b60405180910390fd5b6000611dfc33846120a6565b9050600080600190505b600a6000868152602001908152602001600020548111611f7d573373ffffffffffffffffffffffffffffffffffffffff1660096000878152602001908152602001600020600083815260200190815260200160002060000160009054906101000a900473ffffffffffffffffffffffffffffffffffffffff1673ffffffffffffffffffffffffffffffffffffffff1603611f6a5760405180606001604052803373ffffffffffffffffffffffffffffffffffffffff16815260200184815260200185151581525060096000878152602001908152602001600020600083815260200190815260200160002060008201518160000160006101000a81548173ffffffffffffffffffffffffffffffffffffffff021916908373ffffffffffffffffffffffffffffffffffffffff1602179055506020820151816001015560408201518160020160006101000a81548160ff021916908315150217905550905050600191505b8080611f75906144a4565b915050611e06565b5060001515811515036120a0576001600a600086815260200190815260200160002054611faa9190614c9c565b600a60008681526020019081526020016000208190555060405180606001604052803373ffffffffffffffffffffffffffffffffffffffff168152602001838152602001841515815250600960008681526020019081526020016000206000600a600088815260200190815260200160002054815260200190815260200160002060008201518160000160006101000a81548173ffffffffffffffffffffffffffffffffffffffff021916908373ffffffffffffffffffffffffffffffffffffffff1602179055506020820151816001015560408201518160020160006101000a81548160ff0219169083151502179055509050505b50505050565b60008073ffffffffffffffffffffffffffffffffffffffff168373ffffffffffffffffffffffffffffffffffffffff1603612116576040517f08c379a000000000000000000000000000000000000000000000000000000000815260040161210d90615081565b60405180910390fd5b60008083815260200190815260200160002060008473ffffffffffffffffffffffffffffffffffffffff1673ffffffffffffffffffffffffffffffffffffffff16815260200190815260200160002054905092915050565b60007f01ffc9a7000000000000000000000000000000000000000000000000000000007bffffffffffffffffffffffffffffffffffffffffffffffffffffffff1916827bffffffffffffffffffffffffffffffffffffffffffffffffffffffff1916149050919050565b600033905090565b8151835114612224576040517f08c379a000000000000000000000000000000000000000000000000000000000815260040161221b90615113565b60405180910390fd5b600073ffffffffffffffffffffffffffffffffffffffff168473ffffffffffffffffffffffffffffffffffffffff1603612293576040517f08c379a000000000000000000000000000000000000000000000000000000000815260040161228a906151a5565b60405180910390fd5b600061229d6121d8565b90506122ad818787878787612ea1565b60005b845181101561245e5760008582815181106122ce576122cd614446565b5b6020026020010151905060008583815181106122ed576122ec614446565b5b60200260200101519050600080600084815260200190815260200160002060008b73ffffffffffffffffffffffffffffffffffffffff1673ffffffffffffffffffffffffffffffffffffffff1681526020019081526020016000205490508181101561238e576040517f08c379a000000000000000000000000000000000000000000000000000000000815260040161238590615237565b60405180910390fd5b81810360008085815260200190815260200160002060008c73ffffffffffffffffffffffffffffffffffffffff1673ffffffffffffffffffffffffffffffffffffffff168152602001908152602001600020819055508160008085815260200190815260200160002060008b73ffffffffffffffffffffffffffffffffffffffff1673ffffffffffffffffffffffffffffffffffffffff16815260200190815260200160002060008282546124439190614c9c565b9250508190555050505080612457906144a4565b90506122b0565b508473ffffffffffffffffffffffffffffffffffffffff168673ffffffffffffffffffffffffffffffffffffffff168273ffffffffffffffffffffffffffffffffffffffff167f4a39dc06d4c0dbc64b70af90fd698a233a518aa5d07e595d983b8c0526c8f7fb87876040516124d5929190615257565b60405180910390a46124eb818787878787612ea9565b6124f9818787878787612eb1565b505050505050565b6000600360009054906101000a900473ffffffffffffffffffffffffffffffffffffffff16905081600360006101000a81548173ffffffffffffffffffffffffffffffffffffffff021916908373ffffffffffffffffffffffffffffffffffffffff1602179055508173ffffffffffffffffffffffffffffffffffffffff168173ffffffffffffffffffffffffffffffffffffffff167f8be0079c531659141344cd1fd0a4f28419497f9722a3daafe3b4186f6b6457e060405160405180910390a35050565b600073ffffffffffffffffffffffffffffffffffffffff168373ffffffffffffffffffffffffffffffffffffffff1603612636576040517f08c379a000000000000000000000000000000000000000000000000000000000815260040161262d90615300565b60405180910390fd5b60006126406121d8565b9050600061264d84613088565b9050600061265a84613088565b905061267a83876000858560405180602001604052806000815250612ea1565b600080600087815260200190815260200160002060008873ffffffffffffffffffffffffffffffffffffffff1673ffffffffffffffffffffffffffffffffffffffff16815260200190815260200160002054905084811015612711576040517f08c379a000000000000000000000000000000000000000000000000000000000815260040161270890615392565b60405180910390fd5b84810360008088815260200190815260200160002060008973ffffffffffffffffffffffffffffffffffffffff1673ffffffffffffffffffffffffffffffffffffffff16815260200190815260200160002081905550600073ffffffffffffffffffffffffffffffffffffffff168773ffffffffffffffffffffffffffffffffffffffff168573ffffffffffffffffffffffffffffffffffffffff167fc3d58168c5ae7397731d063d5bbf3d657854427343f4c083240f7aacaa2d0f6289896040516127de9291906153b2565b60405180910390a461280484886000868660405180602001604052806000815250612ea9565b50505050505050565b612815613335565b61281d613335565b600085670de0b6b3a76400008661283491906145f8565b61283e919061540a565b905086826000019073ffffffffffffffffffffffffffffffffffffffff16908173ffffffffffffffffffffffffffffffffffffffff168152505085826020018181525050670de0b6b3a76400008561289691906145f8565b8260400181815250508082606001818152505083620151806128b891906145f8565b426128c39190614c9c565b82608001818152505060008260a00190151590811515815250508192505050949350505050565b600073ffffffffffffffffffffffffffffffffffffffff168473ffffffffffffffffffffffffffffffffffffffff1603612959576040517f08c379a0000000000000000000000000000000000000000000000000000000008152600401612950906154ad565b60405180910390fd5b60006129636121d8565b9050600061297085613088565b9050600061297d85613088565b905061298e83600089858589612ea1565b8460008088815260200190815260200160002060008973ffffffffffffffffffffffffffffffffffffffff1673ffffffffffffffffffffffffffffffffffffffff16815260200190815260200160002060008282546129ed9190614c9c565b925050819055508673ffffffffffffffffffffffffffffffffffffffff16600073ffffffffffffffffffffffffffffffffffffffff168473ffffffffffffffffffffffffffffffffffffffff167fc3d58168c5ae7397731d063d5bbf3d657854427343f4c083240f7aacaa2d0f628989604051612a6b9291906153b2565b60405180910390a4612a8283600089858589612ea9565b612a9183600089898989613102565b50505050505050565b8173ffffffffffffffffffffffffffffffffffffffff168373ffffffffffffffffffffffffffffffffffffffff1603612b08576040517f08c379a0000000000000000000000000000000000000000000000000000000008152600401612aff9061553f565b60405180910390fd5b80600160008573ffffffffffffffffffffffffffffffffffffffff1673ffffffffffffffffffffffffffffffffffffffff16815260200190815260200160002060008473ffffffffffffffffffffffffffffffffffffffff1673ffffffffffffffffffffffffffffffffffffffff16815260200190815260200160002060006101000a81548160ff0219169083151502179055508173ffffffffffffffffffffffffffffffffffffffff168373ffffffffffffffffffffffffffffffffffffffff167f17307eab39ab6107e8899845ad3d59bd9653f200f220920489ca2b5937696c3183604051612bf99190613535565b60405180910390a3505050565b600073ffffffffffffffffffffffffffffffffffffffff168473ffffffffffffffffffffffffffffffffffffffff1603612c75576040517f08c379a0000000000000000000000000000000000000000000000000000000008152600401612c6c906151a5565b60405180910390fd5b6000612c7f6121d8565b90506000612c8c85613088565b90506000612c9985613088565b9050612ca9838989858589612ea1565b600080600088815260200190815260200160002060008a73ffffffffffffffffffffffffffffffffffffffff1673ffffffffffffffffffffffffffffffffffffffff16815260200190815260200160002054905085811015612d40576040517f08c379a0000000000000000000000000000000000000000000000000000000008152600401612d3790615237565b60405180910390fd5b85810360008089815260200190815260200160002060008b73ffffffffffffffffffffffffffffffffffffffff1673ffffffffffffffffffffffffffffffffffffffff168152602001908152602001600020819055508560008089815260200190815260200160002060008a73ffffffffffffffffffffffffffffffffffffffff1673ffffffffffffffffffffffffffffffffffffffff1681526020019081526020016000206000828254612df59190614c9c565b925050819055508773ffffffffffffffffffffffffffffffffffffffff168973ffffffffffffffffffffffffffffffffffffffff168573ffffffffffffffffffffffffffffffffffffffff167fc3d58168c5ae7397731d063d5bbf3d657854427343f4c083240f7aacaa2d0f628a8a604051612e729291906153b2565b60405180910390a4612e88848a8a86868a612ea9565b612e96848a8a8a8a8a613102565b505050505050505050565b505050505050565b505050505050565b612ed08473ffffffffffffffffffffffffffffffffffffffff166132d9565b15613080578373ffffffffffffffffffffffffffffffffffffffff1663bc197c8187878686866040518663ffffffff1660e01b8152600401612f169594939291906155b4565b6020604051808303816000875af1925050508015612f5257506040513d601f19601f82011682018060405250810190612f4f9190615631565b60015b612ff757612f5e61566b565b806308c379a003612fba5750612f7261568d565b80612f7d5750612fbc565b806040517f08c379a0000000000000000000000000000000000000000000000000000000008152600401612fb1919061360d565b60405180910390fd5b505b6040517f08c379a0000000000000000000000000000000000000000000000000000000008152600401612fee9061578f565b60405180910390fd5b63bc197c8160e01b7bffffffffffffffffffffffffffffffffffffffffffffffffffffffff1916817bffffffffffffffffffffffffffffffffffffffffffffffffffffffff19161461307e576040517f08c379a000000000000000000000000000000000000000000000000000000000815260040161307590615821565b60405180910390fd5b505b505050505050565b60606000600167ffffffffffffffff8111156130a7576130a6613634565b5b6040519080825280602002602001820160405280156130d55781602001602082028036833780820191505090505b50905082816000815181106130ed576130ec614446565b5b60200260200101818152505080915050919050565b6131218473ffffffffffffffffffffffffffffffffffffffff166132d9565b156132d1578373ffffffffffffffffffffffffffffffffffffffff1663f23a6e6187878686866040518663ffffffff1660e01b8152600401613167959493929190615841565b6020604051808303816000875af19250505080156131a357506040513d601f19601f820116820180604052508101906131a09190615631565b60015b613248576131af61566b565b806308c379a00361320b57506131c361568d565b806131ce575061320d565b806040517f08c379a0000000000000000000000000000000000000000000000000000000008152600401613202919061360d565b60405180910390fd5b505b6040517f08c379a000000000000000000000000000000000000000000000000000000000815260040161323f9061578f565b60405180910390fd5b63f23a6e6160e01b7bffffffffffffffffffffffffffffffffffffffffffffffffffffffff1916817bffffffffffffffffffffffffffffffffffffffffffffffffffffffff1916146132cf576040517f08c379a00000000000000000000000000000000000000000000000000000000081526004016132c690615821565b60405180910390fd5b505b505050505050565b6000808273ffffffffffffffffffffffffffffffffffffffff163b119050919050565b6040518060600160405280600073ffffffffffffffffffffffffffffffffffffffff168152602001600081526020016000151581525090565b6040518060c00160405280600073ffffffffffffffffffffffffffffffffffffffff168152602001600081526020016000815260200160008152602001600081526020016000151581525090565b6000604051905090565b600080fd5b600080fd5b600073ffffffffffffffffffffffffffffffffffffffff82169050919050565b60006133c282613397565b9050919050565b6133d2816133b7565b81146133dd57600080fd5b50565b6000813590506133ef816133c9565b92915050565b6000819050919050565b613408816133f5565b811461341357600080fd5b50565b600081359050613425816133ff565b92915050565b600080604083850312156134425761344161338d565b5b6000613450858286016133e0565b925050602061346185828601613416565b9150509250929050565b613474816133f5565b82525050565b600060208201905061348f600083018461346b565b92915050565b60007fffffffff0000000000000000000000000000000000000000000000000000000082169050919050565b6134ca81613495565b81146134d557600080fd5b50565b6000813590506134e7816134c1565b92915050565b6000602082840312156135035761350261338d565b5b6000613511848285016134d8565b91505092915050565b60008115159050919050565b61352f8161351a565b82525050565b600060208201905061354a6000830184613526565b92915050565b6000602082840312156135665761356561338d565b5b600061357484828501613416565b91505092915050565b600081519050919050565b600082825260208201905092915050565b60005b838110156135b757808201518184015260208101905061359c565b60008484015250505050565b6000601f19601f8301169050919050565b60006135df8261357d565b6135e98185613588565b93506135f9818560208601613599565b613602816135c3565b840191505092915050565b6000602082019050818103600083015261362781846135d4565b905092915050565b600080fd5b7f4e487b7100000000000000000000000000000000000000000000000000000000600052604160045260246000fd5b61366c826135c3565b810181811067ffffffffffffffff8211171561368b5761368a613634565b5b80604052505050565b600061369e613383565b90506136aa8282613663565b919050565b600067ffffffffffffffff8211156136ca576136c9613634565b5b602082029050602081019050919050565b600080fd5b60006136f36136ee846136af565b613694565b90508083825260208201905060208402830185811115613716576137156136db565b5b835b8181101561373f578061372b8882613416565b845260208401935050602081019050613718565b5050509392505050565b600082601f83011261375e5761375d61362f565b5b813561376e8482602086016136e0565b91505092915050565b600080fd5b600067ffffffffffffffff82111561379757613796613634565b5b6137a0826135c3565b9050602081019050919050565b82818337600083830152505050565b60006137cf6137ca8461377c565b613694565b9050828152602081018484840111156137eb576137ea613777565b5b6137f68482856137ad565b509392505050565b600082601f8301126138135761381261362f565b5b81356138238482602086016137bc565b91505092915050565b600080600080600060a086880312156138485761384761338d565b5b6000613856888289016133e0565b9550506020613867888289016133e0565b945050604086013567ffffffffffffffff81111561388857613887613392565b5b61389488828901613749565b935050606086013567ffffffffffffffff8111156138b5576138b4613392565b5b6138c188828901613749565b925050608086013567ffffffffffffffff8111156138e2576138e1613392565b5b6138ee888289016137fe565b9150509295509295909350565b6000819050919050565b600061392061391b61391684613397565b6138fb565b613397565b9050919050565b600061393282613905565b9050919050565b600061394482613927565b9050919050565b61395481613939565b82525050565b600060208201905061396f600083018461394b565b92915050565b60006020828403121561398b5761398a61338d565b5b6000613999848285016133e0565b91505092915050565b600080604083850312156139b9576139b861338d565b5b60006139c785828601613416565b92505060206139d885828601613416565b9150509250929050565b6139eb816133b7565b82525050565b6139fa816133f5565b82525050565b613a098161351a565b82525050565b606082016000820151613a2560008501826139e2565b506020820151613a3860208501826139f1565b506040820151613a4b6040850182613a00565b50505050565b6000606082019050613a666000830184613a0f565b92915050565b600067ffffffffffffffff821115613a8757613a86613634565b5b602082029050602081019050919050565b6000613aab613aa684613a6c565b613694565b90508083825260208201905060208402830185811115613ace57613acd6136db565b5b835b81811015613af75780613ae388826133e0565b845260208401935050602081019050613ad0565b5050509392505050565b600082601f830112613b1657613b1561362f565b5b8135613b26848260208601613a98565b91505092915050565b60008060408385031215613b4657613b4561338d565b5b600083013567ffffffffffffffff811115613b6457613b63613392565b5b613b7085828601613b01565b925050602083013567ffffffffffffffff811115613b9157613b90613392565b5b613b9d85828601613749565b9150509250929050565b600081519050919050565b600082825260208201905092915050565b6000819050602082019050919050565b6000613bdf83836139f1565b60208301905092915050565b6000602082019050919050565b6000613c0382613ba7565b613c0d8185613bb2565b9350613c1883613bc3565b8060005b83811015613c49578151613c308882613bd3565b9750613c3b83613beb565b925050600181019050613c1c565b5085935050505092915050565b60006020820190508181036000830152613c708184613bf8565b905092915050565b6000613c8382613927565b9050919050565b613c9381613c78565b82525050565b6000602082019050613cae6000830184613c8a565b92915050565b600080600060608486031215613ccd57613ccc61338d565b5b6000613cdb868287016133e0565b9350506020613cec86828701613416565b9250506040613cfd86828701613416565b9150509250925092565b60c082016000820151613d1d60008501826139e2565b506020820151613d3060208501826139f1565b506040820151613d4360408501826139f1565b506060820151613d5660608501826139f1565b506080820151613d6960808501826139f1565b5060a0820151613d7c60a0850182613a00565b50505050565b600060c082019050613d976000830184613d07565b92915050565b613da6816133b7565b82525050565b6000602082019050613dc16000830184613d9d565b92915050565b600067ffffffffffffffff821115613de257613de1613634565b5b613deb826135c3565b9050602081019050919050565b6000613e0b613e0684613dc7565b613694565b905082815260208101848484011115613e2757613e26613777565b5b613e328482856137ad565b509392505050565b600082601f830112613e4f57613e4e61362f565b5b8135613e5f848260208601613df8565b91505092915050565b600080600080600080600060e0888a031215613e8757613e8661338d565b5b6000613e958a828b016133e0565b9750506020613ea68a828b016133e0565b9650506040613eb78a828b01613416565b9550506060613ec88a828b01613416565b9450506080613ed98a828b01613416565b93505060a0613eea8a828b01613416565b92505060c088013567ffffffffffffffff811115613f0b57613f0a613392565b5b613f178a828b01613e3a565b91505092959891949750929550565b613f2f8161351a565b8114613f3a57600080fd5b50565b600081359050613f4c81613f26565b92915050565b60008060408385031215613f6957613f6861338d565b5b6000613f77858286016133e0565b9250506020613f8885828601613f3d565b9150509250929050565b6000606082019050613fa76000830186613d9d565b613fb4602083018561346b565b613fc16040830184613526565b949350505050565b60008060408385031215613fe057613fdf61338d565b5b6000613fee85828601613416565b9250506020613fff85828601613f3d565b9150509250929050565b600080604083850312156140205761401f61338d565b5b600061402e858286016133e0565b925050602061403f858286016133e0565b9150509250929050565b600080600080600060a086880312156140655761406461338d565b5b6000614073888289016133e0565b9550506020614084888289016133e0565b945050604061409588828901613416565b93505060606140a688828901613416565b925050608086013567ffffffffffffffff8111156140c7576140c6613392565b5b6140d3888289016137fe565b9150509295509295909350565b600080600080608085870312156140fa576140f961338d565b5b6000614108878288016133e0565b945050602061411987828801613416565b935050604061412a87828801613416565b925050606061413b87828801613416565b91505092959194509250565b600060c08201905061415c6000830189613d9d565b614169602083018861346b565b614176604083018761346b565b614183606083018661346b565b614190608083018561346b565b61419d60a0830184613526565b979650505050505050565b7f4e487b7100000000000000000000000000000000000000000000000000000000600052602260045260246000fd5b600060028204905060018216806141ef57607f821691505b602082108103614202576142016141a8565b5b50919050565b7f4973206974206e6f7420736f6c64206f75743f00000000000000000000000000600082015250565b600061423e601383613588565b915061424982614208565b602082019050919050565b6000602082019050818103600083015261426d81614231565b9050919050565b600081519050614283816133ff565b92915050565b60006020828403121561429f5761429e61338d565b5b60006142ad84828501614274565b91505092915050565b7f455243313135353a207472616e736665722063616c6c6572206973206e6f742060008201527f6f776e6572206e6f7220617070726f7665640000000000000000000000000000602082015250565b6000614312603283613588565b915061431d826142b6565b604082019050919050565b6000602082019050818103600083015261434181614305565b9050919050565b7f53616c6543413f3f3f3f00000000000000000000000000000000000000000000600082015250565b600061437e600a83613588565b915061438982614348565b602082019050919050565b600060208201905081810360008301526143ad81614371565b9050919050565b7f455243313135353a206163636f756e747320616e6420696473206c656e67746860008201527f206d69736d617463680000000000000000000000000000000000000000000000602082015250565b6000614410602983613588565b915061441b826143b4565b604082019050919050565b6000602082019050818103600083015261443f81614403565b9050919050565b7f4e487b7100000000000000000000000000000000000000000000000000000000600052603260045260246000fd5b7f4e487b7100000000000000000000000000000000000000000000000000000000600052601160045260246000fd5b60006144af826133f5565b91507fffffffffffffffffffffffffffffffffffffffffffffffffffffffffffffffff82036144e1576144e0614475565b5b600182019050919050565b7f4f776e61626c653a2063616c6c6572206973206e6f7420746865206f776e6572600082015250565b6000614522602083613588565b915061452d826144ec565b602082019050919050565b6000602082019050818103600083015261455181614515565b9050919050565b7f6e6f20616d6f756e742e00000000000000000000000000000000000000000000600082015250565b600061458e600a83613588565b915061459982614558565b602082019050919050565b600060208201905081810360008301526145bd81614581565b9050919050565b60006145cf826133f5565b91506145da836133f5565b92508282039050818111156145f2576145f1614475565b5b92915050565b6000614603826133f5565b915061460e836133f5565b925082820261461c816133f5565b9150828204841483151761463357614632614475565b5b5092915050565b7f54686520766f74696e6720706572696f64206973206d6178696d756d20756e7460008201527f696c206f6e6520646179206265666f72652e0000000000000000000000000000602082015250565b6000614696603283613588565b91506146a18261463a565b604082019050919050565b600060208201905081810360008301526146c581614689565b9050919050565b7f546865726520697320616c7265616479206120766f74652e0000000000000000600082015250565b6000614702601883613588565b915061470d826146cc565b602082019050919050565b60006020820190508181036000830152614731816146f5565b9050919050565b7f6861766520616c7265616479206265656e206973737565640000000000000000600082015250565b600061476e601883613588565b915061477982614738565b602082019050919050565b6000602082019050818103600083015261479d81614761565b9050919050565b7f49742773206e6f7420796f752e00000000000000000000000000000000000000600082015250565b60006147da600d83613588565b91506147e5826147a4565b602082019050919050565b60006020820190508181036000830152614809816147cd565b9050919050565b60008190508160005260206000209050919050565b60006020601f8301049050919050565b600082821b905092915050565b6000600883026148727fffffffffffffffffffffffffffffffffffffffffffffffffffffffffffffffff82614835565b61487c8683614835565b95508019841693508086168417925050509392505050565b60006148af6148aa6148a5846133f5565b6138fb565b6133f5565b9050919050565b6000819050919050565b6148c983614894565b6148dd6148d5826148b6565b848454614842565b825550505050565b600090565b6148f26148e5565b6148fd8184846148c0565b505050565b5b81811015614921576149166000826148ea565b600181019050614903565b5050565b601f8211156149665761493781614810565b61494084614825565b8101602085101561494f578190505b61496361495b85614825565b830182614902565b50505b505050565b600082821c905092915050565b60006149896000198460080261496b565b1980831691505092915050565b60006149a28383614978565b9150826002028217905092915050565b6149bb8261357d565b67ffffffffffffffff8111156149d4576149d3613634565b5b6149de82546141d7565b6149e9828285614925565b600060209050601f831160018114614a1c5760008415614a0a578287015190505b614a148582614996565b865550614a7c565b601f198416614a2a86614810565b60005b82811015614a5257848901518255600182019150602085019450602081019050614a2d565b86831015614a6f5784890151614a6b601f891682614978565b8355505b6001600288020188555050505b505050505050565b600060c082019050614a996000830189613d9d565b614aa6602083018861346b565b614ab3604083018761346b565b614ac0606083018661346b565b614acd608083018561346b565b81810360a0830152614adf81846135d4565b9050979650505050505050565b7f497320697420736f6c64206f75743f0000000000000000000000000000000000600082015250565b6000614b22600f83613588565b9150614b2d82614aec565b602082019050919050565b60006020820190508181036000830152614b5181614b15565b9050919050565b7f54696d65204f75743f0000000000000000000000000000000000000000000000600082015250565b6000614b8e600983613588565b9150614b9982614b58565b602082019050919050565b60006020820190508181036000830152614bbd81614b81565b9050919050565b7f6e6f20616d6f756e740000000000000000000000000000000000000000000000600082015250565b6000614bfa600983613588565b9150614c0582614bc4565b602082019050919050565b60006020820190508181036000830152614c2981614bed565b9050919050565b7f656e642046756e6464696e673f00000000000000000000000000000000000000600082015250565b6000614c66600d83613588565b9150614c7182614c30565b602082019050919050565b60006020820190508181036000830152614c9581614c59565b9050919050565b6000614ca7826133f5565b9150614cb2836133f5565b9250828201905080821115614cca57614cc9614475565b5b92915050565b7f46756e6464696e6743413f3f3f3f000000000000000000000000000000000000600082015250565b6000614d06600e83613588565b9150614d1182614cd0565b602082019050919050565b60006020820190508181036000830152614d3581614cf9565b9050919050565b7f52756e206f6e6365206f6e6c7920696e2074686520626567696e6e696e670000600082015250565b6000614d72601e83613588565b9150614d7d82614d3c565b602082019050919050565b60006020820190508181036000830152614da181614d65565b9050919050565b7f455243313135353a2063616c6c6572206973206e6f74206f776e6572206e6f7260008201527f20617070726f7665640000000000000000000000000000000000000000000000602082015250565b6000614e04602983613588565b9150614e0f82614da8565b604082019050919050565b60006020820190508181036000830152614e3381614df7565b9050919050565b7f4f776e61626c653a206e6577206f776e657220697320746865207a65726f206160008201527f6464726573730000000000000000000000000000000000000000000000000000602082015250565b6000614e96602683613588565b9150614ea182614e3a565b604082019050919050565b60006020820190508181036000830152614ec581614e89565b9050919050565b6000608082019050614ee16000830187613d9d565b614eee602083018661346b565b614efb604083018561346b565b614f08606083018461346b565b95945050505050565b7f54696d65204f7574000000000000000000000000000000000000000000000000600082015250565b6000614f47600883613588565b9150614f5282614f11565b602082019050919050565b60006020820190508181036000830152614f7681614f3a565b9050919050565b7f43726561746f727320617265206e6f7420616c6c6f77656420746f207061727460008201527f6963697061746500000000000000000000000000000000000000000000000000602082015250565b6000614fd9602783613588565b9150614fe482614f7d565b604082019050919050565b6000602082019050818103600083015261500881614fcc565b9050919050565b7f455243313135353a2062616c616e636520717565727920666f7220746865207a60008201527f65726f2061646472657373000000000000000000000000000000000000000000602082015250565b600061506b602b83613588565b91506150768261500f565b604082019050919050565b6000602082019050818103600083015261509a8161505e565b9050919050565b7f455243313135353a2069647320616e6420616d6f756e7473206c656e6774682060008201527f6d69736d61746368000000000000000000000000000000000000000000000000602082015250565b60006150fd602883613588565b9150615108826150a1565b604082019050919050565b6000602082019050818103600083015261512c816150f0565b9050919050565b7f455243313135353a207472616e7366657220746f20746865207a65726f20616460008201527f6472657373000000000000000000000000000000000000000000000000000000602082015250565b600061518f602583613588565b915061519a82615133565b604082019050919050565b600060208201905081810360008301526151be81615182565b9050919050565b7f455243313135353a20696e73756666696369656e742062616c616e636520666f60008201527f72207472616e7366657200000000000000000000000000000000000000000000602082015250565b6000615221602a83613588565b915061522c826151c5565b604082019050919050565b6000602082019050818103600083015261525081615214565b9050919050565b600060408201905081810360008301526152718185613bf8565b905081810360208301526152858184613bf8565b90509392505050565b7f455243313135353a206275726e2066726f6d20746865207a65726f206164647260008201527f6573730000000000000000000000000000000000000000000000000000000000602082015250565b60006152ea602383613588565b91506152f58261528e565b604082019050919050565b60006020820190508181036000830152615319816152dd565b9050919050565b7f455243313135353a206275726e20616d6f756e7420657863656564732062616c60008201527f616e636500000000000000000000000000000000000000000000000000000000602082015250565b600061537c602483613588565b915061538782615320565b604082019050919050565b600060208201905081810360008301526153ab8161536f565b9050919050565b60006040820190506153c7600083018561346b565b6153d4602083018461346b565b9392505050565b7f4e487b7100000000000000000000000000000000000000000000000000000000600052601260045260246000fd5b6000615415826133f5565b9150615420836133f5565b9250826154305761542f6153db565b5b828204905092915050565b7f455243313135353a206d696e7420746f20746865207a65726f2061646472657360008201527f7300000000000000000000000000000000000000000000000000000000000000602082015250565b6000615497602183613588565b91506154a28261543b565b604082019050919050565b600060208201905081810360008301526154c68161548a565b9050919050565b7f455243313135353a2073657474696e6720617070726f76616c2073746174757360008201527f20666f722073656c660000000000000000000000000000000000000000000000602082015250565b6000615529602983613588565b9150615534826154cd565b604082019050919050565b600060208201905081810360008301526155588161551c565b9050919050565b600081519050919050565b600082825260208201905092915050565b60006155868261555f565b615590818561556a565b93506155a0818560208601613599565b6155a9816135c3565b840191505092915050565b600060a0820190506155c96000830188613d9d565b6155d66020830187613d9d565b81810360408301526155e88186613bf8565b905081810360608301526155fc8185613bf8565b90508181036080830152615610818461557b565b90509695505050505050565b60008151905061562b816134c1565b92915050565b6000602082840312156156475761564661338d565b5b60006156558482850161561c565b91505092915050565b60008160e01c9050919050565b600060033d111561568a5760046000803e61568760005161565e565b90505b90565b600060443d1061571a5761569f613383565b60043d036004823e80513d602482011167ffffffffffffffff821117156156c757505061571a565b808201805167ffffffffffffffff8111156156e5575050505061571a565b80602083010160043d03850181111561570257505050505061571a565b61571182602001850186613663565b82955050505050505b90565b7f455243313135353a207472616e7366657220746f206e6f6e204552433131353560008201527f526563656976657220696d706c656d656e746572000000000000000000000000602082015250565b6000615779603483613588565b91506157848261571d565b604082019050919050565b600060208201905081810360008301526157a88161576c565b9050919050565b7f455243313135353a204552433131353552656365697665722072656a6563746560008201527f6420746f6b656e73000000000000000000000000000000000000000000000000602082015250565b600061580b602883613588565b9150615816826157af565b604082019050919050565b6000602082019050818103600083015261583a816157fe565b9050919050565b600060a0820190506158566000830188613d9d565b6158636020830187613d9d565b615870604083018661346b565b61587d606083018561346b565b818103608083015261588f818461557b565b9050969550505050505056fea2646970667358221220009d4f6f22207fa443150e1c73a5af548fdbe89c47cf84758a4771422dc60db064736f6c63430008110033",
  "immutableReferences": {},
  "source": "// SPDX-License-Identifier: MIT\r\npragma solidity ^0.8.17;\r\n\r\nimport \"../node_modules/openzeppelin-solidity/contracts/token/ERC1155/extensions/ERC1155Burnable.sol\";\r\nimport \"../node_modules/openzeppelin-solidity/contracts/token/ERC1155/ERC1155.sol\";\r\nimport \"../node_modules/openzeppelin-solidity/contracts/access/Ownable.sol\";\r\n// import \"@openzeppelin/contracts/token/ERC1155/extensions/ERC1155Burnable.sol\";\r\n// import \"@openzeppelin/contracts/token/ERC1155/ERC1155.sol\";\r\n// import \"@openzeppelin/contracts/access/Ownable.sol\";\r\n\r\nimport \"./FunddingToken.sol\";\r\nimport \"./SaleToken.sol\";\r\n\r\n//     owner    EOA  .\r\n\r\ncontract DtsToken is ERC1155, Ownable{\r\n\r\n    constructor() ERC1155(\"\"){\r\n    \r\n    }\r\n\r\n    // // json metadata URI;\r\n    // string public metadataURI;\r\n\r\n    //      \r\n    struct tokenOwnerData{\r\n        //  \r\n        address Creater;\r\n        // nft \r\n        uint256 NftAmount;\r\n        //   ;\r\n        uint256 TotalPrice;\r\n        // nft  \r\n        uint256 UnitPrice;\r\n        //  \r\n        uint256 EndTime;\r\n        //   \r\n        bool isSuccess;\r\n    }\r\n\r\n    struct votingdata{\r\n        //  \r\n        address account;\r\n        // \r\n        uint256 Amount;\r\n        //  \r\n        bool result;\r\n    }\r\n\r\n    //    nft  \r\n    // ids[]    .       balance. \r\n    uint256[] public ids;\r\n\r\n    // FunddingTokenCA  \r\n    address private _funddingCA;\r\n\r\n    FunddingToken public Ftoken;\r\n\r\n    // SaleTokenCA  \r\n    SaleToken public Stoken;\r\n\r\n    //     ,  , , NFT ,      \r\n    mapping(uint256 => tokenOwnerData) public tokenOwners;\r\n\r\n    //  \r\n    mapping(uint256 => mapping(uint256 => votingdata)) public voting;\r\n\r\n    //      \r\n    mapping (uint256 => uint256) public votingCount;\r\n\r\n    //   \r\n    mapping (uint256 => uint256) public votingDate;\r\n\r\n    //  uri  \r\n     mapping (uint256=>string) metadataURL;\r\n\r\n    //    \r\n    event seccessFundding(address account, uint256 tokenId, uint256 amount, uint256 totalPrice, uint256 getTime, string result);\r\n\r\n    //  nft \r\n    function balanceOf(address account, uint256 tokenId) public view override returns (uint) {\r\n        return ERC1155.balanceOf(account, tokenId);\r\n    }\r\n\r\n    //    nft tokenId    \r\n    function idsView() public view returns(uint256[] memory){\r\n        return ids;\r\n    }\r\n    \r\n\r\n    //   NFT    \r\n    // msg.sender       CA         .\r\n    function mintFundding(address account, address funddingTokenCA, uint256 tokenId, uint256 amount, uint256 totalPrice, uint256 getTime, string memory metadata) public{\r\n        // nft    \r\n        require(tokenOwners[tokenId].NftAmount == 0, \"have already been issued\");\r\n        //     .\r\n        require(account == msg.sender, \"It's not you.\");\r\n        //    \r\n        string memory result = \"fundding is seccess\";\r\n        \r\n        //     .\r\n        tokenOwnerData memory data = _getFunddingData(account,amount,totalPrice,getTime);\r\n        //     Id .\r\n        tokenOwners[tokenId] = data;\r\n        // nft \r\n        ERC1155._mint(account, tokenId, amount, \"\");\r\n        //   NFT  CA .\r\n        ERC1155.setApprovalForAll(funddingTokenCA, true);\r\n        ids.push(tokenId);\r\n\r\n        //  uri  \r\n        metadataURL[tokenId] = metadata;\r\n        // mintFundding  \r\n        emit seccessFundding(msg.sender, tokenId, amount, totalPrice, getTime, result);\r\n    }\r\n\r\n    //      \r\n    function _getFunddingData(address _account, uint256 _amount, uint256 _totalPrice, uint256 _getTime) private view returns(tokenOwnerData memory){\r\n        tokenOwnerData memory data;\r\n        uint256 _unitPrice = (_totalPrice * (10 ** 18)) /  _amount;\r\n        data.Creater = _account;\r\n        data.NftAmount = _amount;\r\n        data.TotalPrice = _totalPrice *(10 ** 18);\r\n        data.UnitPrice = _unitPrice;\r\n        data.EndTime = block.timestamp + (86400 * _getTime);\r\n        data.isSuccess = false;\r\n        \r\n        return data;\r\n    }\r\n\r\n    //   \r\n    function startVoting(uint256 tokenId, uint256 date) public{\r\n        // nft       .\r\n        require(ERC1155.balanceOf(msg.sender, tokenId) != 0, \"no amount.\");\r\n        //     \r\n        require(block.timestamp * date > tokenOwners[tokenId].EndTime - 86400,\"The voting period is maximum until one day before.\");\r\n        //    \r\n        require(votingDate[tokenId] != 0, \"There is already a vote.\");\r\n        votingDate[tokenId] = block.timestamp * date;\r\n    }\r\n\r\n    //    \r\n    function isVoting(uint256 tokenId, bool governance) public{\r\n        // nft   \r\n        require(ERC1155.balanceOf(msg.sender, tokenId) != 0, \"no amount\");\r\n        //     \r\n        require(block.timestamp <= votingDate[tokenId], \"Time Out\" );\r\n        //   (  )\r\n        require(tokenOwners[tokenId].Creater != msg.sender, \"Creators are not allowed to participate\");\r\n        uint256 amount = ERC1155.balanceOf(msg.sender,tokenId);\r\n        bool result = false;\r\n        for(uint256 i = 1; i <= votingCount[tokenId]; i++){\r\n            if(voting[tokenId][i].account == msg.sender){\r\n                voting[tokenId][i] = votingdata({account : msg.sender, Amount : amount, result : governance});\r\n                result = true;\r\n            }\r\n        }\r\n        if(result == false){\r\n        votingCount[tokenId] = votingCount[tokenId] + 1;\r\n        voting[tokenId][votingCount[tokenId]] = votingdata({account : msg.sender, Amount : amount, result : governance});\r\n        }\r\n    }\r\n\r\n    //      (      .     nft     .)\r\n    function endVoting(uint256 tokenId, bool result) public{\r\n        //      \r\n        require(votingDate[tokenId] < block.timestamp,\"Time Out?\");\r\n        // nft  ?\r\n        require(ERC1155.balanceOf(msg.sender, tokenId) != 0, \"no amount\");\r\n        //   \r\n        require(tokenOwners[tokenId].isSuccess != true,\"end Fundding?\");\r\n\r\n        if(result == true){\r\n        tokenOwners[tokenId].EndTime = tokenOwners[tokenId].EndTime + 86400 * 14;\r\n        }\r\n    }\r\n\r\n    //     \r\n    function getVotingDate(uint256 tokenId)public view returns(uint256){\r\n        return votingDate[tokenId];\r\n    }\r\n    //      \r\n    function getVotingCount(uint256 tokenId) public view returns(uint256){\r\n        return votingCount[tokenId];\r\n    }\r\n    //   (address amount result)\r\n    function getVoting(uint256 tokenId, uint256 votingNum) public view returns(votingdata memory){\r\n        return voting[tokenId][votingNum];\r\n    }\r\n    \r\n    //     \r\n    function getTokenOwnerData(uint256 tokenId) public view returns(tokenOwnerData memory){\r\n        return tokenOwners[tokenId];\r\n    }\r\n\r\n    //        true;\r\n    function isFunddingSuccess(uint256 tokenId) external{\r\n        require(ERC1155.balanceOf(tokenOwners[tokenId].Creater, tokenId) == 0, \"Is it sold out?\");\r\n        require(Ftoken.priceCheck(tokenId) == tokenOwners[tokenId].NftAmount);\r\n        tokenOwners[tokenId].isSuccess = true;\r\n    }   \r\n    //           false;\r\n    function isFunddingFalsed(uint256 tokenId) external{\r\n        require(ERC1155.balanceOf(tokenOwners[tokenId].Creater, tokenId) > 0, \"Is it not sold out?\");\r\n        require(Ftoken.priceCheck(tokenId) != tokenOwners[tokenId].NftAmount);\r\n        tokenOwners[tokenId].isSuccess = false;\r\n    }\r\n\r\n    // saleToken   Dtoken .(      )\r\n    //      saleToken   .\r\n    function isSalesToken(address saleCA, uint256 tokenId, uint256 amount, uint256 price) public{\r\n        Stoken.salesToken(msg.sender, tokenId, amount, price);\r\n        // saleCA  \r\n        ERC1155.setApprovalForAll(saleCA, true);\r\n\r\n    }\r\n\r\n    // saleToken    \r\n    function saleApprovalFalse(address saleCA) public{\r\n        ERC1155.setApprovalForAll(saleCA, false);\r\n    }\r\n\r\n    //   .(FunddingOwnerOnly    SaleCA    . )\r\n    function faildBurn(address account, uint256 tokenId, uint256 amount) external FunddingOwnerOnly{\r\n        ERC1155._burn(account, tokenId, amount);\r\n    }\r\n\r\n    // FunddingToken        .  (FunddingOwnerOnly     .)\r\n    function isFunddingCA(address account) external {\r\n        require(account == msg.sender,\"FunddingCA????\");\r\n        require(_funddingCA == address(0),\"Run once only in the beginning\");\r\n        _funddingCA = account;\r\n        //   FunddingToken CA  Ftoken  .\r\n        Ftoken = FunddingToken(account);\r\n    }\r\n\r\n    // FunddingToken        . saleCA    \r\n    function isSaleCA(address account) external {\r\n        require(account == msg.sender,\"SaleCA????\");\r\n        //   SaleToken CA  Stoken  .\r\n        Stoken = SaleToken(account);\r\n    }\r\n\r\n    //   SaleCA   \r\n    modifier FunddingOwnerOnly() {\r\n        require(msg.sender == _funddingCA);\r\n        _;\r\n    }\r\n\r\n    //  view\r\n    function tokenURI(uint256 tokenId)public view returns(string memory){\r\n        return metadataURL[tokenId];\r\n    }\r\n\r\n    // // URI      .\r\n    // function setURI(string memory newuri) public onlyOwner {\r\n    //     _setURI(newuri);\r\n    // }\r\n    // // nft json \r\n    // function tokenURI(uint _tokenId) public override view returns (string memory) {\r\n    //     return string(abi.encodePacked(metadataURI, '/', Strings.toString(_tokenId), '.json'));\r\n    // }\r\n}",
  "sourcePath": "C:\\Users\\an\\Desktop\\DTS\\erc1155\\contracts\\DtsToken.sol",
  "compiler": {
    "name": "solc",
    "version": "0.8.17+commit.8df45f5f.Emscripten.clang"
  },
  "schemaVersion": "3.4.11",
  "updatedAt": "2023-02-13T00:33:25.887Z",
  "networkType": "ethereum",
  "devdoc": {
    "kind": "dev",
    "methods": {
      "balanceOfBatch(address[],uint256[])": {
        "details": "See {IERC1155-balanceOfBatch}. Requirements: - `accounts` and `ids` must have the same length."
      },
      "isApprovedForAll(address,address)": {
        "details": "See {IERC1155-isApprovedForAll}."
      },
      "owner()": {
        "details": "Returns the address of the current owner."
      },
      "renounceOwnership()": {
        "details": "Leaves the contract without owner. It will not be possible to call `onlyOwner` functions anymore. Can only be called by the current owner. NOTE: Renouncing ownership will leave the contract without an owner, thereby removing any functionality that is only available to the owner."
      },
      "safeBatchTransferFrom(address,address,uint256[],uint256[],bytes)": {
        "details": "See {IERC1155-safeBatchTransferFrom}."
      },
      "safeTransferFrom(address,address,uint256,uint256,bytes)": {
        "details": "See {IERC1155-safeTransferFrom}."
      },
      "setApprovalForAll(address,bool)": {
        "details": "See {IERC1155-setApprovalForAll}."
      },
      "supportsInterface(bytes4)": {
        "details": "See {IERC165-supportsInterface}."
      },
      "transferOwnership(address)": {
        "details": "Transfers ownership of the contract to a new account (`newOwner`). Can only be called by the current owner."
      },
      "uri(uint256)": {
        "details": "See {IERC1155MetadataURI-uri}. This implementation returns the same URI for *all* token types. It relies on the token type ID substitution mechanism https://eips.ethereum.org/EIPS/eip-1155#metadata[defined in the EIP]. Clients calling this function must replace the `\\{id\\}` substring with the actual token type ID."
      }
    },
    "version": 1
  },
  "userdoc": {
    "kind": "user",
    "methods": {},
    "version": 1
  }
}