{
  "contractName": "DtsToken",
  "abi": [
    {
      "inputs": [],
      "stateMutability": "nonpayable",
      "type": "constructor"
    },
    {
      "anonymous": false,
      "inputs": [
        {
          "indexed": true,
          "internalType": "address",
          "name": "account",
          "type": "address"
        },
        {
          "indexed": true,
          "internalType": "address",
          "name": "operator",
          "type": "address"
        },
        {
          "indexed": false,
          "internalType": "bool",
          "name": "approved",
          "type": "bool"
        }
      ],
      "name": "ApprovalForAll",
      "type": "event"
    },
    {
      "anonymous": false,
      "inputs": [
        {
          "indexed": true,
          "internalType": "address",
          "name": "previousOwner",
          "type": "address"
        },
        {
          "indexed": true,
          "internalType": "address",
          "name": "newOwner",
          "type": "address"
        }
      ],
      "name": "OwnershipTransferred",
      "type": "event"
    },
    {
      "anonymous": false,
      "inputs": [
        {
          "indexed": true,
          "internalType": "address",
          "name": "operator",
          "type": "address"
        },
        {
          "indexed": true,
          "internalType": "address",
          "name": "from",
          "type": "address"
        },
        {
          "indexed": true,
          "internalType": "address",
          "name": "to",
          "type": "address"
        },
        {
          "indexed": false,
          "internalType": "uint256[]",
          "name": "ids",
          "type": "uint256[]"
        },
        {
          "indexed": false,
          "internalType": "uint256[]",
          "name": "values",
          "type": "uint256[]"
        }
      ],
      "name": "TransferBatch",
      "type": "event"
    },
    {
      "anonymous": false,
      "inputs": [
        {
          "indexed": true,
          "internalType": "address",
          "name": "operator",
          "type": "address"
        },
        {
          "indexed": true,
          "internalType": "address",
          "name": "from",
          "type": "address"
        },
        {
          "indexed": true,
          "internalType": "address",
          "name": "to",
          "type": "address"
        },
        {
          "indexed": false,
          "internalType": "uint256",
          "name": "id",
          "type": "uint256"
        },
        {
          "indexed": false,
          "internalType": "uint256",
          "name": "value",
          "type": "uint256"
        }
      ],
      "name": "TransferSingle",
      "type": "event"
    },
    {
      "anonymous": false,
      "inputs": [
        {
          "indexed": false,
          "internalType": "string",
          "name": "value",
          "type": "string"
        },
        {
          "indexed": true,
          "internalType": "uint256",
          "name": "id",
          "type": "uint256"
        }
      ],
      "name": "URI",
      "type": "event"
    },
    {
      "anonymous": false,
      "inputs": [
        {
          "indexed": false,
          "internalType": "string",
          "name": "result",
          "type": "string"
        }
      ],
      "name": "seccessFundding",
      "type": "event"
    },
    {
      "inputs": [
        {
          "internalType": "address",
          "name": "account",
          "type": "address"
        },
        {
          "internalType": "address",
          "name": "operator",
          "type": "address"
        }
      ],
      "name": "isApprovedForAll",
      "outputs": [
        {
          "internalType": "bool",
          "name": "",
          "type": "bool"
        }
      ],
      "stateMutability": "view",
      "type": "function",
      "constant": true
    },
    {
      "inputs": [],
      "name": "owner",
      "outputs": [
        {
          "internalType": "address",
          "name": "",
          "type": "address"
        }
      ],
      "stateMutability": "view",
      "type": "function",
      "constant": true
    },
    {
      "inputs": [],
      "name": "renounceOwnership",
      "outputs": [],
      "stateMutability": "nonpayable",
      "type": "function"
    },
    {
      "inputs": [
        {
          "internalType": "address",
          "name": "from",
          "type": "address"
        },
        {
          "internalType": "address",
          "name": "to",
          "type": "address"
        },
        {
          "internalType": "uint256[]",
          "name": "ids",
          "type": "uint256[]"
        },
        {
          "internalType": "uint256[]",
          "name": "amounts",
          "type": "uint256[]"
        },
        {
          "internalType": "bytes",
          "name": "data",
          "type": "bytes"
        }
      ],
      "name": "safeBatchTransferFrom",
      "outputs": [],
      "stateMutability": "nonpayable",
      "type": "function"
    },
    {
      "inputs": [
        {
          "internalType": "address",
          "name": "from",
          "type": "address"
        },
        {
          "internalType": "address",
          "name": "to",
          "type": "address"
        },
        {
          "internalType": "uint256",
          "name": "id",
          "type": "uint256"
        },
        {
          "internalType": "uint256",
          "name": "amount",
          "type": "uint256"
        },
        {
          "internalType": "bytes",
          "name": "data",
          "type": "bytes"
        }
      ],
      "name": "safeTransferFrom",
      "outputs": [],
      "stateMutability": "nonpayable",
      "type": "function"
    },
    {
      "inputs": [
        {
          "internalType": "address",
          "name": "operator",
          "type": "address"
        },
        {
          "internalType": "bool",
          "name": "approved",
          "type": "bool"
        }
      ],
      "name": "setApprovalForAll",
      "outputs": [],
      "stateMutability": "nonpayable",
      "type": "function"
    },
    {
      "inputs": [
        {
          "internalType": "bytes4",
          "name": "interfaceId",
          "type": "bytes4"
        }
      ],
      "name": "supportsInterface",
      "outputs": [
        {
          "internalType": "bool",
          "name": "",
          "type": "bool"
        }
      ],
      "stateMutability": "view",
      "type": "function",
      "constant": true
    },
    {
      "inputs": [
        {
          "internalType": "address",
          "name": "newOwner",
          "type": "address"
        }
      ],
      "name": "transferOwnership",
      "outputs": [],
      "stateMutability": "nonpayable",
      "type": "function"
    },
    {
      "inputs": [
        {
          "internalType": "uint256",
          "name": "",
          "type": "uint256"
        }
      ],
      "name": "uri",
      "outputs": [
        {
          "internalType": "string",
          "name": "",
          "type": "string"
        }
      ],
      "stateMutability": "view",
      "type": "function",
      "constant": true
    },
    {
      "inputs": [
        {
          "internalType": "address",
          "name": "account",
          "type": "address"
        },
        {
          "internalType": "uint256",
          "name": "tokenId",
          "type": "uint256"
        }
      ],
      "name": "balanceOf",
      "outputs": [
        {
          "internalType": "uint256",
          "name": "",
          "type": "uint256"
        }
      ],
      "stateMutability": "view",
      "type": "function",
      "constant": true
    },
    {
      "inputs": [
        {
          "internalType": "address[]",
          "name": "account",
          "type": "address[]"
        },
        {
          "internalType": "uint256[]",
          "name": "tokenId",
          "type": "uint256[]"
        }
      ],
      "name": "balanceOfBatch",
      "outputs": [
        {
          "internalType": "uint256[]",
          "name": "",
          "type": "uint256[]"
        }
      ],
      "stateMutability": "view",
      "type": "function",
      "constant": true
    },
    {
      "inputs": [
        {
          "internalType": "address",
          "name": "creater",
          "type": "address"
        },
        {
          "internalType": "address",
          "name": "saletokenCA",
          "type": "address"
        },
        {
          "internalType": "uint256",
          "name": "tokenId",
          "type": "uint256"
        },
        {
          "internalType": "uint256",
          "name": "amount",
          "type": "uint256"
        },
        {
          "internalType": "uint256",
          "name": "totalPrice",
          "type": "uint256"
        },
        {
          "internalType": "uint256",
          "name": "getTime",
          "type": "uint256"
        }
      ],
      "name": "mintFundding",
      "outputs": [],
      "stateMutability": "nonpayable",
      "type": "function"
    },
    {
      "inputs": [
        {
          "internalType": "uint256",
          "name": "tokenId",
          "type": "uint256"
        }
      ],
      "name": "getTokenOwnerDataCreater",
      "outputs": [
        {
          "internalType": "address",
          "name": "",
          "type": "address"
        }
      ],
      "stateMutability": "view",
      "type": "function",
      "constant": true
    },
    {
      "inputs": [
        {
          "internalType": "uint256",
          "name": "tokenId",
          "type": "uint256"
        }
      ],
      "name": "getTokenOwnerDataNftAmount",
      "outputs": [
        {
          "internalType": "uint256",
          "name": "",
          "type": "uint256"
        }
      ],
      "stateMutability": "view",
      "type": "function",
      "constant": true
    },
    {
      "inputs": [
        {
          "internalType": "uint256",
          "name": "tokenId",
          "type": "uint256"
        }
      ],
      "name": "getTokenOwnerDataTotalPrice",
      "outputs": [
        {
          "internalType": "uint256",
          "name": "",
          "type": "uint256"
        }
      ],
      "stateMutability": "view",
      "type": "function",
      "constant": true
    },
    {
      "inputs": [
        {
          "internalType": "uint256",
          "name": "tokenId",
          "type": "uint256"
        }
      ],
      "name": "getTokenOwnerDataUnitPrice",
      "outputs": [
        {
          "internalType": "uint256",
          "name": "",
          "type": "uint256"
        }
      ],
      "stateMutability": "view",
      "type": "function",
      "constant": true
    },
    {
      "inputs": [
        {
          "internalType": "uint256",
          "name": "tokenId",
          "type": "uint256"
        }
      ],
      "name": "getTokenOwnerDataEndTime",
      "outputs": [
        {
          "internalType": "uint256",
          "name": "",
          "type": "uint256"
        }
      ],
      "stateMutability": "view",
      "type": "function",
      "constant": true
    },
    {
      "inputs": [
        {
          "internalType": "address",
          "name": "account",
          "type": "address"
        },
        {
          "internalType": "uint256",
          "name": "tokenId",
          "type": "uint256"
        },
        {
          "internalType": "uint256",
          "name": "amount",
          "type": "uint256"
        }
      ],
      "name": "faildBurn",
      "outputs": [],
      "stateMutability": "nonpayable",
      "type": "function"
    },
    {
      "inputs": [
        {
          "internalType": "address",
          "name": "account",
          "type": "address"
        }
      ],
      "name": "isChangedCA",
      "outputs": [],
      "stateMutability": "nonpayable",
      "type": "function"
    }
  ],
  "bytecode": "0x60806040523480156200001157600080fd5b506040518060200160405280600081525062000033816200005a60201b60201c565b5062000054620000486200006f60201b60201c565b6200007760201b60201c565b6200049e565b80600290816200006b9190620003b7565b5050565b600033905090565b6000600360009054906101000a900473ffffffffffffffffffffffffffffffffffffffff16905081600360006101000a81548173ffffffffffffffffffffffffffffffffffffffff021916908373ffffffffffffffffffffffffffffffffffffffff1602179055508173ffffffffffffffffffffffffffffffffffffffff168173ffffffffffffffffffffffffffffffffffffffff167f8be0079c531659141344cd1fd0a4f28419497f9722a3daafe3b4186f6b6457e060405160405180910390a35050565b600081519050919050565b7f4e487b7100000000000000000000000000000000000000000000000000000000600052604160045260246000fd5b7f4e487b7100000000000000000000000000000000000000000000000000000000600052602260045260246000fd5b60006002820490506001821680620001bf57607f821691505b602082108103620001d557620001d462000177565b5b50919050565b60008190508160005260206000209050919050565b60006020601f8301049050919050565b600082821b905092915050565b6000600883026200023f7fffffffffffffffffffffffffffffffffffffffffffffffffffffffffffffffff8262000200565b6200024b868362000200565b95508019841693508086168417925050509392505050565b6000819050919050565b6000819050919050565b600062000298620002926200028c8462000263565b6200026d565b62000263565b9050919050565b6000819050919050565b620002b48362000277565b620002cc620002c3826200029f565b8484546200020d565b825550505050565b600090565b620002e3620002d4565b620002f0818484620002a9565b505050565b5b8181101562000318576200030c600082620002d9565b600181019050620002f6565b5050565b601f82111562000367576200033181620001db565b6200033c84620001f0565b810160208510156200034c578190505b620003646200035b85620001f0565b830182620002f5565b50505b505050565b600082821c905092915050565b60006200038c600019846008026200036c565b1980831691505092915050565b6000620003a7838362000379565b9150826002028217905092915050565b620003c2826200013d565b67ffffffffffffffff811115620003de57620003dd62000148565b5b620003ea8254620001a6565b620003f78282856200031c565b600060209050601f8311600181146200042f57600084156200041a578287015190505b62000426858262000399565b86555062000496565b601f1984166200043f86620001db565b60005b82811015620004695784890151825560018201915060208501945060208101905062000442565b8683101562000489578489015162000485601f89168262000379565b8355505b6001600288020188555050505b505050505050565b61380980620004ae6000396000f3fe608060405234801561001057600080fd5b50600436106101205760003560e01c80638da5cb5b116100ad578063c78d462a11610071578063c78d462a14610329578063de269d2e14610359578063e985e9c514610389578063f242432a146103b9578063f2fde38b146103d557610120565b80638da5cb5b146102735780639165193214610291578063a22cb465146102c1578063ad216fb6146102dd578063c48a541e146102f957610120565b80632eb2c2d6116100f45780632eb2c2d6146101e55780634e1273f4146102015780636f0ea03814610231578063715018a61461024d578063773790821461025757610120565b8062fdd58e1461012557806301ffc9a7146101555780630e89341c146101855780631dbf4b74146101b5575b600080fd5b61013f600480360381019061013a91906120da565b6103f1565b60405161014c9190612129565b60405180910390f35b61016f600480360381019061016a919061219c565b610405565b60405161017c91906121e4565b60405180910390f35b61019f600480360381019061019a91906121ff565b6104e7565b6040516101ac91906122bc565b60405180910390f35b6101cf60048036038101906101ca91906121ff565b61057b565b6040516101dc91906122ed565b60405180910390f35b6101ff60048036038101906101fa9190612505565b6105bb565b005b61021b60048036038101906102169190612697565b61065c565b60405161022891906127cd565b60405180910390f35b61024b600480360381019061024691906127ef565b610670565b005b61025561086e565b005b610271600480360381019061026c919061287c565b6108f6565b005b61027b610960565b60405161028891906122ed565b60405180910390f35b6102ab60048036038101906102a691906121ff565b61098a565b6040516102b89190612129565b60405180910390f35b6102db60048036038101906102d691906128fb565b6109aa565b005b6102f760048036038101906102f2919061293b565b6109c0565b005b610313600480360381019061030e91906121ff565b610a04565b6040516103209190612129565b60405180910390f35b610343600480360381019061033e91906121ff565b610a24565b6040516103509190612129565b60405180910390f35b610373600480360381019061036e91906121ff565b610a44565b6040516103809190612129565b60405180910390f35b6103a3600480360381019061039e9190612968565b610a64565b6040516103b091906121e4565b60405180910390f35b6103d360048036038101906103ce91906129a8565b610af8565b005b6103ef60048036038101906103ea919061293b565b610b99565b005b60006103fd8383610c90565b905092915050565b60007fd9b67a26000000000000000000000000000000000000000000000000000000007bffffffffffffffffffffffffffffffffffffffffffffffffffffffff1916827bffffffffffffffffffffffffffffffffffffffffffffffffffffffff191614806104d057507f0e89341c000000000000000000000000000000000000000000000000000000007bffffffffffffffffffffffffffffffffffffffffffffffffffffffff1916827bffffffffffffffffffffffffffffffffffffffffffffffffffffffff1916145b806104e057506104df82610d58565b5b9050919050565b6060600280546104f690612a6e565b80601f016020809104026020016040519081016040528092919081815260200182805461052290612a6e565b801561056f5780601f106105445761010080835404028352916020019161056f565b820191906000526020600020905b81548152906001019060200180831161055257829003601f168201915b50505050509050919050565b60006005600083815260200190815260200160002060000160009054906101000a900473ffffffffffffffffffffffffffffffffffffffff169050919050565b6105c3610dc2565b73ffffffffffffffffffffffffffffffffffffffff168573ffffffffffffffffffffffffffffffffffffffff161480610609575061060885610603610dc2565b610a64565b5b610648576040517f08c379a000000000000000000000000000000000000000000000000000000000815260040161063f90612b11565b60405180910390fd5b6106558585858585610dca565b5050505050565b606061066883836110eb565b905092915050565b60006005600086815260200190815260200160002060010154146106c9576040517f08c379a00000000000000000000000000000000000000000000000000000000081526004016106c090612b7d565b60405180910390fd5b3373ffffffffffffffffffffffffffffffffffffffff168673ffffffffffffffffffffffffffffffffffffffff1614610737576040517f08c379a000000000000000000000000000000000000000000000000000000000815260040161072e90612be9565b60405180910390fd5b60006040518060400160405280601381526020017f66756e6464696e672069732073656363657373000000000000000000000000008152509050600061077f88868686611204565b9050806005600088815260200190815260200160002060008201518160000160006101000a81548173ffffffffffffffffffffffffffffffffffffffff021916908373ffffffffffffffffffffffffffffffffffffffff16021790555060208201518160010155604082015181600201556060820151816003015560808201518160040155905050610822888787604051806020016040528060008152506112cf565b61082d8760016109aa565b7fe34e59dac02d82471df6794f45f6963ba1435c415526d4097a7818777b14e3b48260405161085c91906122bc565b60405180910390a15050505050505050565b610876610dc2565b73ffffffffffffffffffffffffffffffffffffffff16610894610960565b73ffffffffffffffffffffffffffffffffffffffff16146108ea576040517f08c379a00000000000000000000000000000000000000000000000000000000081526004016108e190612c55565b60405180910390fd5b6108f4600061147f565b565b600460009054906101000a900473ffffffffffffffffffffffffffffffffffffffff1673ffffffffffffffffffffffffffffffffffffffff163373ffffffffffffffffffffffffffffffffffffffff161461095057600080fd5b61095b838383611545565b505050565b6000600360009054906101000a900473ffffffffffffffffffffffffffffffffffffffff16905090565b600060056000838152602001908152602001600020600301549050919050565b6109bc6109b5610dc2565b838361178b565b5050565b80600460006101000a81548173ffffffffffffffffffffffffffffffffffffffff021916908373ffffffffffffffffffffffffffffffffffffffff16021790555050565b600060056000838152602001908152602001600020600401549050919050565b600060056000838152602001908152602001600020600101549050919050565b600060056000838152602001908152602001600020600201549050919050565b6000600160008473ffffffffffffffffffffffffffffffffffffffff1673ffffffffffffffffffffffffffffffffffffffff16815260200190815260200160002060008373ffffffffffffffffffffffffffffffffffffffff1673ffffffffffffffffffffffffffffffffffffffff16815260200190815260200160002060009054906101000a900460ff16905092915050565b610b00610dc2565b73ffffffffffffffffffffffffffffffffffffffff168573ffffffffffffffffffffffffffffffffffffffff161480610b465750610b4585610b40610dc2565b610a64565b5b610b85576040517f08c379a0000000000000000000000000000000000000000000000000000000008152600401610b7c90612ce7565b60405180910390fd5b610b9285858585856118f7565b5050505050565b610ba1610dc2565b73ffffffffffffffffffffffffffffffffffffffff16610bbf610960565b73ffffffffffffffffffffffffffffffffffffffff1614610c15576040517f08c379a0000000000000000000000000000000000000000000000000000000008152600401610c0c90612c55565b60405180910390fd5b600073ffffffffffffffffffffffffffffffffffffffff168173ffffffffffffffffffffffffffffffffffffffff1603610c84576040517f08c379a0000000000000000000000000000000000000000000000000000000008152600401610c7b90612d79565b60405180910390fd5b610c8d8161147f565b50565b60008073ffffffffffffffffffffffffffffffffffffffff168373ffffffffffffffffffffffffffffffffffffffff1603610d00576040517f08c379a0000000000000000000000000000000000000000000000000000000008152600401610cf790612e0b565b60405180910390fd5b60008083815260200190815260200160002060008473ffffffffffffffffffffffffffffffffffffffff1673ffffffffffffffffffffffffffffffffffffffff16815260200190815260200160002054905092915050565b60007f01ffc9a7000000000000000000000000000000000000000000000000000000007bffffffffffffffffffffffffffffffffffffffffffffffffffffffff1916827bffffffffffffffffffffffffffffffffffffffffffffffffffffffff1916149050919050565b600033905090565b8151835114610e0e576040517f08c379a0000000000000000000000000000000000000000000000000000000008152600401610e0590612e9d565b60405180910390fd5b600073ffffffffffffffffffffffffffffffffffffffff168473ffffffffffffffffffffffffffffffffffffffff1603610e7d576040517f08c379a0000000000000000000000000000000000000000000000000000000008152600401610e7490612f2f565b60405180910390fd5b6000610e87610dc2565b9050610e97818787878787611b92565b60005b8451811015611048576000858281518110610eb857610eb7612f4f565b5b602002602001015190506000858381518110610ed757610ed6612f4f565b5b60200260200101519050600080600084815260200190815260200160002060008b73ffffffffffffffffffffffffffffffffffffffff1673ffffffffffffffffffffffffffffffffffffffff16815260200190815260200160002054905081811015610f78576040517f08c379a0000000000000000000000000000000000000000000000000000000008152600401610f6f90612ff0565b60405180910390fd5b81810360008085815260200190815260200160002060008c73ffffffffffffffffffffffffffffffffffffffff1673ffffffffffffffffffffffffffffffffffffffff168152602001908152602001600020819055508160008085815260200190815260200160002060008b73ffffffffffffffffffffffffffffffffffffffff1673ffffffffffffffffffffffffffffffffffffffff168152602001908152602001600020600082825461102d919061303f565b925050819055505050508061104190613073565b9050610e9a565b508473ffffffffffffffffffffffffffffffffffffffff168673ffffffffffffffffffffffffffffffffffffffff168273ffffffffffffffffffffffffffffffffffffffff167f4a39dc06d4c0dbc64b70af90fd698a233a518aa5d07e595d983b8c0526c8f7fb87876040516110bf9291906130bb565b60405180910390a46110d5818787878787611b9a565b6110e3818787878787611ba2565b505050505050565b60608151835114611131576040517f08c379a000000000000000000000000000000000000000000000000000000000815260040161112890613164565b60405180910390fd5b6000835167ffffffffffffffff81111561114e5761114d61230d565b5b60405190808252806020026020018201604052801561117c5781602001602082028036833780820191505090505b50905060005b84518110156111f9576111c98582815181106111a1576111a0612f4f565b5b60200260200101518583815181106111bc576111bb612f4f565b5b60200260200101516103f1565b8282815181106111dc576111db612f4f565b5b602002602001018181525050806111f290613073565b9050611182565b508091505092915050565b61120c611fed565b611214611fed565b600085670de0b6b3a76400008661122b9190613184565b61123591906131f5565b905086826000019073ffffffffffffffffffffffffffffffffffffffff16908173ffffffffffffffffffffffffffffffffffffffff168152505085826020018181525050670de0b6b3a76400008561128d9190613184565b82604001818152505080826060018181525050836121c06112ae9190613184565b426112b9919061303f565b8260800181815250508192505050949350505050565b600073ffffffffffffffffffffffffffffffffffffffff168473ffffffffffffffffffffffffffffffffffffffff160361133e576040517f08c379a000000000000000000000000000000000000000000000000000000000815260040161133590613298565b60405180910390fd5b6000611348610dc2565b9050600061135585611d79565b9050600061136285611d79565b905061137383600089858589611b92565b8460008088815260200190815260200160002060008973ffffffffffffffffffffffffffffffffffffffff1673ffffffffffffffffffffffffffffffffffffffff16815260200190815260200160002060008282546113d2919061303f565b925050819055508673ffffffffffffffffffffffffffffffffffffffff16600073ffffffffffffffffffffffffffffffffffffffff168473ffffffffffffffffffffffffffffffffffffffff167fc3d58168c5ae7397731d063d5bbf3d657854427343f4c083240f7aacaa2d0f6289896040516114509291906132b8565b60405180910390a461146783600089858589611b9a565b61147683600089898989611df3565b50505050505050565b6000600360009054906101000a900473ffffffffffffffffffffffffffffffffffffffff16905081600360006101000a81548173ffffffffffffffffffffffffffffffffffffffff021916908373ffffffffffffffffffffffffffffffffffffffff1602179055508173ffffffffffffffffffffffffffffffffffffffff168173ffffffffffffffffffffffffffffffffffffffff167f8be0079c531659141344cd1fd0a4f28419497f9722a3daafe3b4186f6b6457e060405160405180910390a35050565b600073ffffffffffffffffffffffffffffffffffffffff168373ffffffffffffffffffffffffffffffffffffffff16036115b4576040517f08c379a00000000000000000000000000000000000000000000000000000000081526004016115ab90613353565b60405180910390fd5b60006115be610dc2565b905060006115cb84611d79565b905060006115d884611d79565b90506115f883876000858560405180602001604052806000815250611b92565b600080600087815260200190815260200160002060008873ffffffffffffffffffffffffffffffffffffffff1673ffffffffffffffffffffffffffffffffffffffff1681526020019081526020016000205490508481101561168f576040517f08c379a0000000000000000000000000000000000000000000000000000000008152600401611686906133e5565b60405180910390fd5b84810360008088815260200190815260200160002060008973ffffffffffffffffffffffffffffffffffffffff1673ffffffffffffffffffffffffffffffffffffffff16815260200190815260200160002081905550600073ffffffffffffffffffffffffffffffffffffffff168773ffffffffffffffffffffffffffffffffffffffff168573ffffffffffffffffffffffffffffffffffffffff167fc3d58168c5ae7397731d063d5bbf3d657854427343f4c083240f7aacaa2d0f62898960405161175c9291906132b8565b60405180910390a461178284886000868660405180602001604052806000815250611b9a565b50505050505050565b8173ffffffffffffffffffffffffffffffffffffffff168373ffffffffffffffffffffffffffffffffffffffff16036117f9576040517f08c379a00000000000000000000000000000000000000000000000000000000081526004016117f090613477565b60405180910390fd5b80600160008573ffffffffffffffffffffffffffffffffffffffff1673ffffffffffffffffffffffffffffffffffffffff16815260200190815260200160002060008473ffffffffffffffffffffffffffffffffffffffff1673ffffffffffffffffffffffffffffffffffffffff16815260200190815260200160002060006101000a81548160ff0219169083151502179055508173ffffffffffffffffffffffffffffffffffffffff168373ffffffffffffffffffffffffffffffffffffffff167f17307eab39ab6107e8899845ad3d59bd9653f200f220920489ca2b5937696c31836040516118ea91906121e4565b60405180910390a3505050565b600073ffffffffffffffffffffffffffffffffffffffff168473ffffffffffffffffffffffffffffffffffffffff1603611966576040517f08c379a000000000000000000000000000000000000000000000000000000000815260040161195d90612f2f565b60405180910390fd5b6000611970610dc2565b9050600061197d85611d79565b9050600061198a85611d79565b905061199a838989858589611b92565b600080600088815260200190815260200160002060008a73ffffffffffffffffffffffffffffffffffffffff1673ffffffffffffffffffffffffffffffffffffffff16815260200190815260200160002054905085811015611a31576040517f08c379a0000000000000000000000000000000000000000000000000000000008152600401611a2890612ff0565b60405180910390fd5b85810360008089815260200190815260200160002060008b73ffffffffffffffffffffffffffffffffffffffff1673ffffffffffffffffffffffffffffffffffffffff168152602001908152602001600020819055508560008089815260200190815260200160002060008a73ffffffffffffffffffffffffffffffffffffffff1673ffffffffffffffffffffffffffffffffffffffff1681526020019081526020016000206000828254611ae6919061303f565b925050819055508773ffffffffffffffffffffffffffffffffffffffff168973ffffffffffffffffffffffffffffffffffffffff168573ffffffffffffffffffffffffffffffffffffffff167fc3d58168c5ae7397731d063d5bbf3d657854427343f4c083240f7aacaa2d0f628a8a604051611b639291906132b8565b60405180910390a4611b79848a8a86868a611b9a565b611b87848a8a8a8a8a611df3565b505050505050505050565b505050505050565b505050505050565b611bc18473ffffffffffffffffffffffffffffffffffffffff16611fca565b15611d71578373ffffffffffffffffffffffffffffffffffffffff1663bc197c8187878686866040518663ffffffff1660e01b8152600401611c079594939291906134ec565b6020604051808303816000875af1925050508015611c4357506040513d601f19601f82011682018060405250810190611c409190613569565b60015b611ce857611c4f6135a3565b806308c379a003611cab5750611c636135c5565b80611c6e5750611cad565b806040517f08c379a0000000000000000000000000000000000000000000000000000000008152600401611ca291906122bc565b60405180910390fd5b505b6040517f08c379a0000000000000000000000000000000000000000000000000000000008152600401611cdf906136c7565b60405180910390fd5b63bc197c8160e01b7bffffffffffffffffffffffffffffffffffffffffffffffffffffffff1916817bffffffffffffffffffffffffffffffffffffffffffffffffffffffff191614611d6f576040517f08c379a0000000000000000000000000000000000000000000000000000000008152600401611d6690613759565b60405180910390fd5b505b505050505050565b60606000600167ffffffffffffffff811115611d9857611d9761230d565b5b604051908082528060200260200182016040528015611dc65781602001602082028036833780820191505090505b5090508281600081518110611dde57611ddd612f4f565b5b60200260200101818152505080915050919050565b611e128473ffffffffffffffffffffffffffffffffffffffff16611fca565b15611fc2578373ffffffffffffffffffffffffffffffffffffffff1663f23a6e6187878686866040518663ffffffff1660e01b8152600401611e58959493929190613779565b6020604051808303816000875af1925050508015611e9457506040513d601f19601f82011682018060405250810190611e919190613569565b60015b611f3957611ea06135a3565b806308c379a003611efc5750611eb46135c5565b80611ebf5750611efe565b806040517f08c379a0000000000000000000000000000000000000000000000000000000008152600401611ef391906122bc565b60405180910390fd5b505b6040517f08c379a0000000000000000000000000000000000000000000000000000000008152600401611f30906136c7565b60405180910390fd5b63f23a6e6160e01b7bffffffffffffffffffffffffffffffffffffffffffffffffffffffff1916817bffffffffffffffffffffffffffffffffffffffffffffffffffffffff191614611fc0576040517f08c379a0000000000000000000000000000000000000000000000000000000008152600401611fb790613759565b60405180910390fd5b505b505050505050565b6000808273ffffffffffffffffffffffffffffffffffffffff163b119050919050565b6040518060a00160405280600073ffffffffffffffffffffffffffffffffffffffff168152602001600081526020016000815260200160008152602001600081525090565b6000604051905090565b600080fd5b600080fd5b600073ffffffffffffffffffffffffffffffffffffffff82169050919050565b600061207182612046565b9050919050565b61208181612066565b811461208c57600080fd5b50565b60008135905061209e81612078565b92915050565b6000819050919050565b6120b7816120a4565b81146120c257600080fd5b50565b6000813590506120d4816120ae565b92915050565b600080604083850312156120f1576120f061203c565b5b60006120ff8582860161208f565b9250506020612110858286016120c5565b9150509250929050565b612123816120a4565b82525050565b600060208201905061213e600083018461211a565b92915050565b60007fffffffff0000000000000000000000000000000000000000000000000000000082169050919050565b61217981612144565b811461218457600080fd5b50565b60008135905061219681612170565b92915050565b6000602082840312156121b2576121b161203c565b5b60006121c084828501612187565b91505092915050565b60008115159050919050565b6121de816121c9565b82525050565b60006020820190506121f960008301846121d5565b92915050565b6000602082840312156122155761221461203c565b5b6000612223848285016120c5565b91505092915050565b600081519050919050565b600082825260208201905092915050565b60005b8381101561226657808201518184015260208101905061224b565b60008484015250505050565b6000601f19601f8301169050919050565b600061228e8261222c565b6122988185612237565b93506122a8818560208601612248565b6122b181612272565b840191505092915050565b600060208201905081810360008301526122d68184612283565b905092915050565b6122e781612066565b82525050565b600060208201905061230260008301846122de565b92915050565b600080fd5b7f4e487b7100000000000000000000000000000000000000000000000000000000600052604160045260246000fd5b61234582612272565b810181811067ffffffffffffffff821117156123645761236361230d565b5b80604052505050565b6000612377612032565b9050612383828261233c565b919050565b600067ffffffffffffffff8211156123a3576123a261230d565b5b602082029050602081019050919050565b600080fd5b60006123cc6123c784612388565b61236d565b905080838252602082019050602084028301858111156123ef576123ee6123b4565b5b835b81811015612418578061240488826120c5565b8452602084019350506020810190506123f1565b5050509392505050565b600082601f83011261243757612436612308565b5b81356124478482602086016123b9565b91505092915050565b600080fd5b600067ffffffffffffffff8211156124705761246f61230d565b5b61247982612272565b9050602081019050919050565b82818337600083830152505050565b60006124a86124a384612455565b61236d565b9050828152602081018484840111156124c4576124c3612450565b5b6124cf848285612486565b509392505050565b600082601f8301126124ec576124eb612308565b5b81356124fc848260208601612495565b91505092915050565b600080600080600060a086880312156125215761252061203c565b5b600061252f8882890161208f565b95505060206125408882890161208f565b945050604086013567ffffffffffffffff81111561256157612560612041565b5b61256d88828901612422565b935050606086013567ffffffffffffffff81111561258e5761258d612041565b5b61259a88828901612422565b925050608086013567ffffffffffffffff8111156125bb576125ba612041565b5b6125c7888289016124d7565b9150509295509295909350565b600067ffffffffffffffff8211156125ef576125ee61230d565b5b602082029050602081019050919050565b600061261361260e846125d4565b61236d565b90508083825260208201905060208402830185811115612636576126356123b4565b5b835b8181101561265f578061264b888261208f565b845260208401935050602081019050612638565b5050509392505050565b600082601f83011261267e5761267d612308565b5b813561268e848260208601612600565b91505092915050565b600080604083850312156126ae576126ad61203c565b5b600083013567ffffffffffffffff8111156126cc576126cb612041565b5b6126d885828601612669565b925050602083013567ffffffffffffffff8111156126f9576126f8612041565b5b61270585828601612422565b9150509250929050565b600081519050919050565b600082825260208201905092915050565b6000819050602082019050919050565b612744816120a4565b82525050565b6000612756838361273b565b60208301905092915050565b6000602082019050919050565b600061277a8261270f565b612784818561271a565b935061278f8361272b565b8060005b838110156127c05781516127a7888261274a565b97506127b283612762565b925050600181019050612793565b5085935050505092915050565b600060208201905081810360008301526127e7818461276f565b905092915050565b60008060008060008060c0878903121561280c5761280b61203c565b5b600061281a89828a0161208f565b965050602061282b89828a0161208f565b955050604061283c89828a016120c5565b945050606061284d89828a016120c5565b935050608061285e89828a016120c5565b92505060a061286f89828a016120c5565b9150509295509295509295565b6000806000606084860312156128955761289461203c565b5b60006128a38682870161208f565b93505060206128b4868287016120c5565b92505060406128c5868287016120c5565b9150509250925092565b6128d8816121c9565b81146128e357600080fd5b50565b6000813590506128f5816128cf565b92915050565b600080604083850312156129125761291161203c565b5b60006129208582860161208f565b9250506020612931858286016128e6565b9150509250929050565b6000602082840312156129515761295061203c565b5b600061295f8482850161208f565b91505092915050565b6000806040838503121561297f5761297e61203c565b5b600061298d8582860161208f565b925050602061299e8582860161208f565b9150509250929050565b600080600080600060a086880312156129c4576129c361203c565b5b60006129d28882890161208f565b95505060206129e38882890161208f565b94505060406129f4888289016120c5565b9350506060612a05888289016120c5565b925050608086013567ffffffffffffffff811115612a2657612a25612041565b5b612a32888289016124d7565b9150509295509295909350565b7f4e487b7100000000000000000000000000000000000000000000000000000000600052602260045260246000fd5b60006002820490506001821680612a8657607f821691505b602082108103612a9957612a98612a3f565b5b50919050565b7f455243313135353a207472616e736665722063616c6c6572206973206e6f742060008201527f6f776e6572206e6f7220617070726f7665640000000000000000000000000000602082015250565b6000612afb603283612237565b9150612b0682612a9f565b604082019050919050565b60006020820190508181036000830152612b2a81612aee565b9050919050565b7f6861766520616c7265616479206265656e206973737565640000000000000000600082015250565b6000612b67601883612237565b9150612b7282612b31565b602082019050919050565b60006020820190508181036000830152612b9681612b5a565b9050919050565b7f49742773206e6f7420796f752e00000000000000000000000000000000000000600082015250565b6000612bd3600d83612237565b9150612bde82612b9d565b602082019050919050565b60006020820190508181036000830152612c0281612bc6565b9050919050565b7f4f776e61626c653a2063616c6c6572206973206e6f7420746865206f776e6572600082015250565b6000612c3f602083612237565b9150612c4a82612c09565b602082019050919050565b60006020820190508181036000830152612c6e81612c32565b9050919050565b7f455243313135353a2063616c6c6572206973206e6f74206f776e6572206e6f7260008201527f20617070726f7665640000000000000000000000000000000000000000000000602082015250565b6000612cd1602983612237565b9150612cdc82612c75565b604082019050919050565b60006020820190508181036000830152612d0081612cc4565b9050919050565b7f4f776e61626c653a206e6577206f776e657220697320746865207a65726f206160008201527f6464726573730000000000000000000000000000000000000000000000000000602082015250565b6000612d63602683612237565b9150612d6e82612d07565b604082019050919050565b60006020820190508181036000830152612d9281612d56565b9050919050565b7f455243313135353a2062616c616e636520717565727920666f7220746865207a60008201527f65726f2061646472657373000000000000000000000000000000000000000000602082015250565b6000612df5602b83612237565b9150612e0082612d99565b604082019050919050565b60006020820190508181036000830152612e2481612de8565b9050919050565b7f455243313135353a2069647320616e6420616d6f756e7473206c656e6774682060008201527f6d69736d61746368000000000000000000000000000000000000000000000000602082015250565b6000612e87602883612237565b9150612e9282612e2b565b604082019050919050565b60006020820190508181036000830152612eb681612e7a565b9050919050565b7f455243313135353a207472616e7366657220746f20746865207a65726f20616460008201527f6472657373000000000000000000000000000000000000000000000000000000602082015250565b6000612f19602583612237565b9150612f2482612ebd565b604082019050919050565b60006020820190508181036000830152612f4881612f0c565b9050919050565b7f4e487b7100000000000000000000000000000000000000000000000000000000600052603260045260246000fd5b7f455243313135353a20696e73756666696369656e742062616c616e636520666f60008201527f72207472616e7366657200000000000000000000000000000000000000000000602082015250565b6000612fda602a83612237565b9150612fe582612f7e565b604082019050919050565b6000602082019050818103600083015261300981612fcd565b9050919050565b7f4e487b7100000000000000000000000000000000000000000000000000000000600052601160045260246000fd5b600061304a826120a4565b9150613055836120a4565b925082820190508082111561306d5761306c613010565b5b92915050565b600061307e826120a4565b91507fffffffffffffffffffffffffffffffffffffffffffffffffffffffffffffffff82036130b0576130af613010565b5b600182019050919050565b600060408201905081810360008301526130d5818561276f565b905081810360208301526130e9818461276f565b90509392505050565b7f455243313135353a206163636f756e747320616e6420696473206c656e67746860008201527f206d69736d617463680000000000000000000000000000000000000000000000602082015250565b600061314e602983612237565b9150613159826130f2565b604082019050919050565b6000602082019050818103600083015261317d81613141565b9050919050565b600061318f826120a4565b915061319a836120a4565b92508282026131a8816120a4565b915082820484148315176131bf576131be613010565b5b5092915050565b7f4e487b7100000000000000000000000000000000000000000000000000000000600052601260045260246000fd5b6000613200826120a4565b915061320b836120a4565b92508261321b5761321a6131c6565b5b828204905092915050565b7f455243313135353a206d696e7420746f20746865207a65726f2061646472657360008201527f7300000000000000000000000000000000000000000000000000000000000000602082015250565b6000613282602183612237565b915061328d82613226565b604082019050919050565b600060208201905081810360008301526132b181613275565b9050919050565b60006040820190506132cd600083018561211a565b6132da602083018461211a565b9392505050565b7f455243313135353a206275726e2066726f6d20746865207a65726f206164647260008201527f6573730000000000000000000000000000000000000000000000000000000000602082015250565b600061333d602383612237565b9150613348826132e1565b604082019050919050565b6000602082019050818103600083015261336c81613330565b9050919050565b7f455243313135353a206275726e20616d6f756e7420657863656564732062616c60008201527f616e636500000000000000000000000000000000000000000000000000000000602082015250565b60006133cf602483612237565b91506133da82613373565b604082019050919050565b600060208201905081810360008301526133fe816133c2565b9050919050565b7f455243313135353a2073657474696e6720617070726f76616c2073746174757360008201527f20666f722073656c660000000000000000000000000000000000000000000000602082015250565b6000613461602983612237565b915061346c82613405565b604082019050919050565b6000602082019050818103600083015261349081613454565b9050919050565b600081519050919050565b600082825260208201905092915050565b60006134be82613497565b6134c881856134a2565b93506134d8818560208601612248565b6134e181612272565b840191505092915050565b600060a08201905061350160008301886122de565b61350e60208301876122de565b8181036040830152613520818661276f565b90508181036060830152613534818561276f565b9050818103608083015261354881846134b3565b90509695505050505050565b60008151905061356381612170565b92915050565b60006020828403121561357f5761357e61203c565b5b600061358d84828501613554565b91505092915050565b60008160e01c9050919050565b600060033d11156135c25760046000803e6135bf600051613596565b90505b90565b600060443d10613652576135d7612032565b60043d036004823e80513d602482011167ffffffffffffffff821117156135ff575050613652565b808201805167ffffffffffffffff81111561361d5750505050613652565b80602083010160043d03850181111561363a575050505050613652565b6136498260200185018661233c565b82955050505050505b90565b7f455243313135353a207472616e7366657220746f206e6f6e204552433131353560008201527f526563656976657220696d706c656d656e746572000000000000000000000000602082015250565b60006136b1603483612237565b91506136bc82613655565b604082019050919050565b600060208201905081810360008301526136e0816136a4565b9050919050565b7f455243313135353a204552433131353552656365697665722072656a6563746560008201527f6420746f6b656e73000000000000000000000000000000000000000000000000602082015250565b6000613743602883612237565b915061374e826136e7565b604082019050919050565b6000602082019050818103600083015261377281613736565b9050919050565b600060a08201905061378e60008301886122de565b61379b60208301876122de565b6137a8604083018661211a565b6137b5606083018561211a565b81810360808301526137c781846134b3565b9050969550505050505056fea26469706673582212208d0a8cf7259e510015faeec6b13f76941c4f9c4b069c23059eeeb04d287dc8b764736f6c63430008110033",
  "immutableReferences": {},
  "source": "// SPDX-License-Identifier: MIT\r\npragma solidity ^0.8.17;\r\n\r\nimport \"../node_modules/openzeppelin-solidity/contracts/token/ERC1155/extensions/ERC1155Burnable.sol\";\r\nimport \"../node_modules/openzeppelin-solidity/contracts/token/ERC1155/ERC1155.sol\";\r\nimport \"../node_modules/openzeppelin-solidity/contracts/access/Ownable.sol\";\r\n// import \"@openzeppelin/contracts/token/ERC1155/extensions/ERC1155Burnable.sol\";\r\n// import \"@openzeppelin/contracts/token/ERC1155/ERC1155.sol\";\r\n// import \"@openzeppelin/contracts/access/Ownable.sol\";\r\n\r\n//     owner    EOA  .\r\n\r\ncontract DtsToken is ERC1155, Ownable{\r\n\r\n    // // json metadata URI;\r\n    // string public metadataURI;\r\n\r\n    struct tokenOwnerData{\r\n        //  \r\n        address Creater;\r\n        // nft \r\n        uint256 NftAmount;\r\n        //   ;\r\n        uint256 TotalPrice;\r\n        // nft  \r\n        uint256 UnitPrice;\r\n        //  \r\n        uint256 EndTime;\r\n    }\r\n\r\n    // SaleCA  \r\n    address private _saleCA;\r\n\r\n    //     ,  , , NFT ,      \r\n    mapping(uint256 => tokenOwnerData) private _tokenOwners;\r\n\r\n    constructor() ERC1155(\"\"){\r\n    \r\n\r\n    }\r\n\r\n    event seccessFundding(string result);\r\n\r\n    //  nft \r\n    function balanceOf(address account, uint256 tokenId) public view override returns (uint) {\r\n        return ERC1155.balanceOf(account, tokenId);\r\n    }\r\n\r\n    function balanceOfBatch(address[] memory account, uint256[] memory tokenId) public view override returns (uint256[] memory) {\r\n        return ERC1155.balanceOfBatch(account, tokenId);\r\n    }\r\n    \r\n    //   NFT    \r\n    // msg.sender       CA         .\r\n    function mintFundding(address creater, address saletokenCA, uint256 tokenId, uint256 amount, uint256 totalPrice, uint256 getTime) public{\r\n        // nft    \r\n        require(_tokenOwners[tokenId].NftAmount == 0, \"have already been issued\");\r\n        //     .\r\n        require(creater == msg.sender, \"It's not you.\");\r\n        //  mint    ..125      \r\n        string memory result = \"fundding is seccess\";\r\n        \r\n\r\n        //     .\r\n        tokenOwnerData memory data = _getFunddingData(creater,amount,totalPrice,getTime);\r\n        //     Id .\r\n        _tokenOwners[tokenId] = data;\r\n        //  nft \r\n        ERC1155._mint(creater, tokenId, amount, \"\");\r\n        //   NFT  CA .\r\n        ERC1155.setApprovalForAll(saletokenCA, true);\r\n        // mintFundding  \r\n        emit seccessFundding(result);\r\n    }\r\n\r\n    //      \r\n    function _getFunddingData(address _creater, uint256 _amount, uint256 _totalPrice, uint256 _getTime) private view returns(tokenOwnerData memory){\r\n        tokenOwnerData memory data;\r\n        uint256 _unitPrice = (_totalPrice * (10 ** 18)) /  _amount;\r\n        data.Creater = _creater;\r\n        data.NftAmount = _amount;\r\n        data.TotalPrice = _totalPrice *(10 ** 18);\r\n        data.UnitPrice = _unitPrice;\r\n        data.EndTime = block.timestamp + (8640 * _getTime);\r\n        \r\n        return data;\r\n    }\r\n    \r\n    //  creater  \r\n    function getTokenOwnerDataCreater(uint256 tokenId) public view returns (address) {\r\n        return _tokenOwners[tokenId].Creater;\r\n    }\r\n    //    \r\n    function getTokenOwnerDataNftAmount(uint256 tokenId) public view returns (uint256) {\r\n        return _tokenOwners[tokenId].NftAmount;\r\n    }\r\n    //     \r\n    function getTokenOwnerDataTotalPrice(uint256 tokenId) public view returns (uint256) {\r\n        return _tokenOwners[tokenId].TotalPrice;\r\n    }\r\n    //      \r\n    function getTokenOwnerDataUnitPrice(uint256 tokenId) public view returns (uint256) {\r\n        return _tokenOwners[tokenId].UnitPrice;\r\n    }\r\n    //     \r\n    function getTokenOwnerDataEndTime(uint256 tokenId) public view returns (uint256) {\r\n        //          \r\n        // _tokenOwners[tokenId].EndtTime = _tokenOwners[tokenId].EndtTime + 3000;\r\n        return _tokenOwners[tokenId].EndTime;\r\n    }\r\n\r\n    //   .(saleOnly    SaleCA    . )\r\n    function faildBurn(address account, uint256 tokenId, uint256 amount) public saleOnly{\r\n        ERC1155._burn(account, tokenId, amount);\r\n    }\r\n\r\n    //    SaleCA  . (saleOnly     .)\r\n    function isChangedCA(address account) external{\r\n        _saleCA = account;\r\n    }                                                                                           \r\n\r\n    //   SaleCA   \r\n    modifier saleOnly() {\r\n        require(msg.sender == _saleCA);\r\n        _;\r\n    }\r\n\r\n    // // URI      .\r\n    // function setURI(string memory newuri) public onlyOwner {\r\n    //     _setURI(newuri);\r\n    // }\r\n}",
  "sourcePath": "C:\\Users\\jdunm\\OneDrive\\ \\dive2space\\erc1155\\contracts\\DtsToken.sol",
  "compiler": {
    "name": "solc",
    "version": "0.8.17+commit.8df45f5f.Emscripten.clang"
  },
  "schemaVersion": "3.4.11",
  "updatedAt": "2023-02-02T07:51:38.145Z",
  "networkType": "ethereum",
  "devdoc": {
    "kind": "dev",
    "methods": {
      "isApprovedForAll(address,address)": {
        "details": "See {IERC1155-isApprovedForAll}."
      },
      "owner()": {
        "details": "Returns the address of the current owner."
      },
      "renounceOwnership()": {
        "details": "Leaves the contract without owner. It will not be possible to call `onlyOwner` functions anymore. Can only be called by the current owner. NOTE: Renouncing ownership will leave the contract without an owner, thereby removing any functionality that is only available to the owner."
      },
      "safeBatchTransferFrom(address,address,uint256[],uint256[],bytes)": {
        "details": "See {IERC1155-safeBatchTransferFrom}."
      },
      "safeTransferFrom(address,address,uint256,uint256,bytes)": {
        "details": "See {IERC1155-safeTransferFrom}."
      },
      "setApprovalForAll(address,bool)": {
        "details": "See {IERC1155-setApprovalForAll}."
      },
      "supportsInterface(bytes4)": {
        "details": "See {IERC165-supportsInterface}."
      },
      "transferOwnership(address)": {
        "details": "Transfers ownership of the contract to a new account (`newOwner`). Can only be called by the current owner."
      },
      "uri(uint256)": {
        "details": "See {IERC1155MetadataURI-uri}. This implementation returns the same URI for *all* token types. It relies on the token type ID substitution mechanism https://eips.ethereum.org/EIPS/eip-1155#metadata[defined in the EIP]. Clients calling this function must replace the `\\{id\\}` substring with the actual token type ID."
      }
    },
    "version": 1
  },
  "userdoc": {
    "kind": "user",
    "methods": {},
    "version": 1
  }
}