{
  "contractName": "DtsToken",
  "abi": [
    {
      "inputs": [],
      "stateMutability": "nonpayable",
      "type": "constructor"
    },
    {
      "anonymous": false,
      "inputs": [
        {
          "indexed": true,
          "internalType": "address",
          "name": "account",
          "type": "address"
        },
        {
          "indexed": true,
          "internalType": "address",
          "name": "operator",
          "type": "address"
        },
        {
          "indexed": false,
          "internalType": "bool",
          "name": "approved",
          "type": "bool"
        }
      ],
      "name": "ApprovalForAll",
      "type": "event"
    },
    {
      "anonymous": false,
      "inputs": [
        {
          "indexed": true,
          "internalType": "address",
          "name": "previousOwner",
          "type": "address"
        },
        {
          "indexed": true,
          "internalType": "address",
          "name": "newOwner",
          "type": "address"
        }
      ],
      "name": "OwnershipTransferred",
      "type": "event"
    },
    {
      "anonymous": false,
      "inputs": [
        {
          "indexed": true,
          "internalType": "address",
          "name": "operator",
          "type": "address"
        },
        {
          "indexed": true,
          "internalType": "address",
          "name": "from",
          "type": "address"
        },
        {
          "indexed": true,
          "internalType": "address",
          "name": "to",
          "type": "address"
        },
        {
          "indexed": false,
          "internalType": "uint256[]",
          "name": "ids",
          "type": "uint256[]"
        },
        {
          "indexed": false,
          "internalType": "uint256[]",
          "name": "values",
          "type": "uint256[]"
        }
      ],
      "name": "TransferBatch",
      "type": "event"
    },
    {
      "anonymous": false,
      "inputs": [
        {
          "indexed": true,
          "internalType": "address",
          "name": "operator",
          "type": "address"
        },
        {
          "indexed": true,
          "internalType": "address",
          "name": "from",
          "type": "address"
        },
        {
          "indexed": true,
          "internalType": "address",
          "name": "to",
          "type": "address"
        },
        {
          "indexed": false,
          "internalType": "uint256",
          "name": "id",
          "type": "uint256"
        },
        {
          "indexed": false,
          "internalType": "uint256",
          "name": "value",
          "type": "uint256"
        }
      ],
      "name": "TransferSingle",
      "type": "event"
    },
    {
      "anonymous": false,
      "inputs": [
        {
          "indexed": false,
          "internalType": "string",
          "name": "value",
          "type": "string"
        },
        {
          "indexed": true,
          "internalType": "uint256",
          "name": "id",
          "type": "uint256"
        }
      ],
      "name": "URI",
      "type": "event"
    },
    {
      "anonymous": false,
      "inputs": [
        {
          "indexed": false,
          "internalType": "address",
          "name": "account",
          "type": "address"
        },
        {
          "indexed": false,
          "internalType": "uint256",
          "name": "tokenId",
          "type": "uint256"
        },
        {
          "indexed": false,
          "internalType": "uint256",
          "name": "amount",
          "type": "uint256"
        },
        {
          "indexed": false,
          "internalType": "uint256",
          "name": "totalPrice",
          "type": "uint256"
        },
        {
          "indexed": false,
          "internalType": "uint256",
          "name": "getTime",
          "type": "uint256"
        },
        {
          "indexed": false,
          "internalType": "string",
          "name": "result",
          "type": "string"
        }
      ],
      "name": "seccessFundding",
      "type": "event"
    },
    {
      "inputs": [
        {
          "internalType": "address[]",
          "name": "accounts",
          "type": "address[]"
        },
        {
          "internalType": "uint256[]",
          "name": "ids",
          "type": "uint256[]"
        }
      ],
      "name": "balanceOfBatch",
      "outputs": [
        {
          "internalType": "uint256[]",
          "name": "",
          "type": "uint256[]"
        }
      ],
      "stateMutability": "view",
      "type": "function",
      "constant": true
    },
    {
      "inputs": [
        {
          "internalType": "uint256",
          "name": "",
          "type": "uint256"
        }
      ],
      "name": "ids",
      "outputs": [
        {
          "internalType": "uint256",
          "name": "",
          "type": "uint256"
        }
      ],
      "stateMutability": "view",
      "type": "function",
      "constant": true
    },
    {
      "inputs": [
        {
          "internalType": "address",
          "name": "account",
          "type": "address"
        },
        {
          "internalType": "address",
          "name": "operator",
          "type": "address"
        }
      ],
      "name": "isApprovedForAll",
      "outputs": [
        {
          "internalType": "bool",
          "name": "",
          "type": "bool"
        }
      ],
      "stateMutability": "view",
      "type": "function",
      "constant": true
    },
    {
      "inputs": [],
      "name": "owner",
      "outputs": [
        {
          "internalType": "address",
          "name": "",
          "type": "address"
        }
      ],
      "stateMutability": "view",
      "type": "function",
      "constant": true
    },
    {
      "inputs": [],
      "name": "renounceOwnership",
      "outputs": [],
      "stateMutability": "nonpayable",
      "type": "function"
    },
    {
      "inputs": [
        {
          "internalType": "address",
          "name": "from",
          "type": "address"
        },
        {
          "internalType": "address",
          "name": "to",
          "type": "address"
        },
        {
          "internalType": "uint256[]",
          "name": "ids",
          "type": "uint256[]"
        },
        {
          "internalType": "uint256[]",
          "name": "amounts",
          "type": "uint256[]"
        },
        {
          "internalType": "bytes",
          "name": "data",
          "type": "bytes"
        }
      ],
      "name": "safeBatchTransferFrom",
      "outputs": [],
      "stateMutability": "nonpayable",
      "type": "function"
    },
    {
      "inputs": [
        {
          "internalType": "address",
          "name": "from",
          "type": "address"
        },
        {
          "internalType": "address",
          "name": "to",
          "type": "address"
        },
        {
          "internalType": "uint256",
          "name": "id",
          "type": "uint256"
        },
        {
          "internalType": "uint256",
          "name": "amount",
          "type": "uint256"
        },
        {
          "internalType": "bytes",
          "name": "data",
          "type": "bytes"
        }
      ],
      "name": "safeTransferFrom",
      "outputs": [],
      "stateMutability": "nonpayable",
      "type": "function"
    },
    {
      "inputs": [
        {
          "internalType": "address",
          "name": "operator",
          "type": "address"
        },
        {
          "internalType": "bool",
          "name": "approved",
          "type": "bool"
        }
      ],
      "name": "setApprovalForAll",
      "outputs": [],
      "stateMutability": "nonpayable",
      "type": "function"
    },
    {
      "inputs": [
        {
          "internalType": "bytes4",
          "name": "interfaceId",
          "type": "bytes4"
        }
      ],
      "name": "supportsInterface",
      "outputs": [
        {
          "internalType": "bool",
          "name": "",
          "type": "bool"
        }
      ],
      "stateMutability": "view",
      "type": "function",
      "constant": true
    },
    {
      "inputs": [
        {
          "internalType": "uint256",
          "name": "",
          "type": "uint256"
        }
      ],
      "name": "tokenOwners",
      "outputs": [
        {
          "internalType": "address",
          "name": "Creater",
          "type": "address"
        },
        {
          "internalType": "uint256",
          "name": "NftAmount",
          "type": "uint256"
        },
        {
          "internalType": "uint256",
          "name": "TotalPrice",
          "type": "uint256"
        },
        {
          "internalType": "uint256",
          "name": "UnitPrice",
          "type": "uint256"
        },
        {
          "internalType": "uint256",
          "name": "EndTime",
          "type": "uint256"
        },
        {
          "internalType": "bool",
          "name": "isSuccess",
          "type": "bool"
        }
      ],
      "stateMutability": "view",
      "type": "function",
      "constant": true
    },
    {
      "inputs": [
        {
          "internalType": "address",
          "name": "newOwner",
          "type": "address"
        }
      ],
      "name": "transferOwnership",
      "outputs": [],
      "stateMutability": "nonpayable",
      "type": "function"
    },
    {
      "inputs": [
        {
          "internalType": "uint256",
          "name": "",
          "type": "uint256"
        }
      ],
      "name": "uri",
      "outputs": [
        {
          "internalType": "string",
          "name": "",
          "type": "string"
        }
      ],
      "stateMutability": "view",
      "type": "function",
      "constant": true
    },
    {
      "inputs": [
        {
          "internalType": "address",
          "name": "account",
          "type": "address"
        },
        {
          "internalType": "uint256",
          "name": "tokenId",
          "type": "uint256"
        }
      ],
      "name": "balanceOf",
      "outputs": [
        {
          "internalType": "uint256",
          "name": "",
          "type": "uint256"
        }
      ],
      "stateMutability": "view",
      "type": "function",
      "constant": true
    },
    {
      "inputs": [],
      "name": "idsView",
      "outputs": [
        {
          "internalType": "uint256[]",
          "name": "",
          "type": "uint256[]"
        }
      ],
      "stateMutability": "view",
      "type": "function",
      "constant": true
    },
    {
      "inputs": [
        {
          "internalType": "address",
          "name": "account",
          "type": "address"
        },
        {
          "internalType": "address",
          "name": "funddingTokenCA",
          "type": "address"
        },
        {
          "internalType": "uint256",
          "name": "tokenId",
          "type": "uint256"
        },
        {
          "internalType": "uint256",
          "name": "amount",
          "type": "uint256"
        },
        {
          "internalType": "uint256",
          "name": "totalPrice",
          "type": "uint256"
        },
        {
          "internalType": "uint256",
          "name": "getTime",
          "type": "uint256"
        }
      ],
      "name": "mintFundding",
      "outputs": [],
      "stateMutability": "nonpayable",
      "type": "function"
    },
    {
      "inputs": [
        {
          "internalType": "uint256",
          "name": "tokenId",
          "type": "uint256"
        }
      ],
      "name": "getTokenOwnerData",
      "outputs": [
        {
          "components": [
            {
              "internalType": "address",
              "name": "Creater",
              "type": "address"
            },
            {
              "internalType": "uint256",
              "name": "NftAmount",
              "type": "uint256"
            },
            {
              "internalType": "uint256",
              "name": "TotalPrice",
              "type": "uint256"
            },
            {
              "internalType": "uint256",
              "name": "UnitPrice",
              "type": "uint256"
            },
            {
              "internalType": "uint256",
              "name": "EndTime",
              "type": "uint256"
            },
            {
              "internalType": "bool",
              "name": "isSuccess",
              "type": "bool"
            }
          ],
          "internalType": "struct DtsToken.tokenOwnerData",
          "name": "",
          "type": "tuple"
        }
      ],
      "stateMutability": "view",
      "type": "function",
      "constant": true
    },
    {
      "inputs": [
        {
          "internalType": "uint256",
          "name": "tokenId",
          "type": "uint256"
        }
      ],
      "name": "isFunddingSuccess",
      "outputs": [],
      "stateMutability": "nonpayable",
      "type": "function"
    },
    {
      "inputs": [
        {
          "internalType": "address",
          "name": "saleCA",
          "type": "address"
        }
      ],
      "name": "saleApprovalTrue",
      "outputs": [],
      "stateMutability": "nonpayable",
      "type": "function"
    },
    {
      "inputs": [
        {
          "internalType": "address",
          "name": "saleCA",
          "type": "address"
        }
      ],
      "name": "saleApprovalFalse",
      "outputs": [],
      "stateMutability": "nonpayable",
      "type": "function"
    },
    {
      "inputs": [
        {
          "internalType": "address",
          "name": "account",
          "type": "address"
        },
        {
          "internalType": "uint256",
          "name": "tokenId",
          "type": "uint256"
        },
        {
          "internalType": "uint256",
          "name": "amount",
          "type": "uint256"
        }
      ],
      "name": "faildBurn",
      "outputs": [],
      "stateMutability": "nonpayable",
      "type": "function"
    },
    {
      "inputs": [
        {
          "internalType": "address",
          "name": "account",
          "type": "address"
        }
      ],
      "name": "isChangedCA",
      "outputs": [],
      "stateMutability": "nonpayable",
      "type": "function"
    }
  ],
  "bytecode": "0x60806040523480156200001157600080fd5b506040518060200160405280600081525062000033816200005a60201b60201c565b5062000054620000486200006f60201b60201c565b6200007760201b60201c565b6200049e565b80600290816200006b9190620003b7565b5050565b600033905090565b6000600360009054906101000a900473ffffffffffffffffffffffffffffffffffffffff16905081600360006101000a81548173ffffffffffffffffffffffffffffffffffffffff021916908373ffffffffffffffffffffffffffffffffffffffff1602179055508173ffffffffffffffffffffffffffffffffffffffff168173ffffffffffffffffffffffffffffffffffffffff167f8be0079c531659141344cd1fd0a4f28419497f9722a3daafe3b4186f6b6457e060405160405180910390a35050565b600081519050919050565b7f4e487b7100000000000000000000000000000000000000000000000000000000600052604160045260246000fd5b7f4e487b7100000000000000000000000000000000000000000000000000000000600052602260045260246000fd5b60006002820490506001821680620001bf57607f821691505b602082108103620001d557620001d462000177565b5b50919050565b60008190508160005260206000209050919050565b60006020601f8301049050919050565b600082821b905092915050565b6000600883026200023f7fffffffffffffffffffffffffffffffffffffffffffffffffffffffffffffffff8262000200565b6200024b868362000200565b95508019841693508086168417925050509392505050565b6000819050919050565b6000819050919050565b600062000298620002926200028c8462000263565b6200026d565b62000263565b9050919050565b6000819050919050565b620002b48362000277565b620002cc620002c3826200029f565b8484546200020d565b825550505050565b600090565b620002e3620002d4565b620002f0818484620002a9565b505050565b5b8181101562000318576200030c600082620002d9565b600181019050620002f6565b5050565b601f82111562000367576200033181620001db565b6200033c84620001f0565b810160208510156200034c578190505b620003646200035b85620001f0565b830182620002f5565b50505b505050565b600082821c905092915050565b60006200038c600019846008026200036c565b1980831691505092915050565b6000620003a7838362000379565b9150826002028217905092915050565b620003c2826200013d565b67ffffffffffffffff811115620003de57620003dd62000148565b5b620003ea8254620001a6565b620003f78282856200031c565b600060209050601f8311600181146200042f57600084156200041a578287015190505b62000426858262000399565b86555062000496565b601f1984166200043f86620001db565b60005b82811015620004695784890151825560018201915060208501945060208101905062000442565b8683101562000489578489015162000485601f89168262000379565b8355505b6001600288020188555050505b505050505050565b613c1f80620004ae6000396000f3fe608060405234801561001057600080fd5b50600436106101365760003560e01c80638497f29a116100b8578063c31f4b581161007c578063c31f4b5814610335578063e985e9c514610351578063f242432a14610381578063f2fde38b1461039d578063f8a14f46146103b9578063fac333ac146103ee57610136565b80638497f29a146102935780638d63193d146102af5780638da5cb5b146102df578063a22cb465146102fd578063ad216fb61461031957610136565b80634e1273f4116100ff5780634e1273f4146102035780636f0ea03814610233578063715018a61461024f57806377379082146102595780637abfee421461027557610136565b8062fdd58e1461013b57806301ffc9a71461016b5780630e89341c1461019b5780632eb2c2d6146101cb5780634b77f8d0146101e7575b600080fd5b61015560048036038101906101509190612307565b61041e565b6040516101629190612356565b60405180910390f35b610185600480360381019061018091906123c9565b610432565b6040516101929190612411565b60405180910390f35b6101b560048036038101906101b0919061242c565b610514565b6040516101c291906124e9565b60405180910390f35b6101e560048036038101906101e09190612708565b6105a8565b005b61020160048036038101906101fc91906127d7565b610649565b005b61021d600480360381019061021891906128c7565b610657565b60405161022a91906129fd565b60405180910390f35b61024d60048036038101906102489190612a1f565b610770565b005b6102576109c1565b005b610273600480360381019061026e9190612aac565b610a49565b005b61027d610ab3565b60405161028a91906129fd565b60405180910390f35b6102ad60048036038101906102a891906127d7565b610b0b565b005b6102c960048036038101906102c4919061242c565b610b19565b6040516102d69190612b98565b60405180910390f35b6102e7610bdf565b6040516102f49190612bc2565b60405180910390f35b61031760048036038101906103129190612c09565b610c09565b005b610333600480360381019061032e91906127d7565b610c1f565b005b61034f600480360381019061034a919061242c565b610cd1565b005b61036b60048036038101906103669190612c49565b610d03565b6040516103789190612411565b60405180910390f35b61039b60048036038101906103969190612c89565b610d97565b005b6103b760048036038101906103b291906127d7565b610e38565b005b6103d360048036038101906103ce919061242c565b610f2f565b6040516103e596959493929190612d20565b60405180910390f35b6104086004803603810190610403919061242c565b610f98565b6040516104159190612356565b60405180910390f35b600061042a8383610fbc565b905092915050565b60007fd9b67a26000000000000000000000000000000000000000000000000000000007bffffffffffffffffffffffffffffffffffffffffffffffffffffffff1916827bffffffffffffffffffffffffffffffffffffffffffffffffffffffff191614806104fd57507f0e89341c000000000000000000000000000000000000000000000000000000007bffffffffffffffffffffffffffffffffffffffffffffffffffffffff1916827bffffffffffffffffffffffffffffffffffffffffffffffffffffffff1916145b8061050d575061050c82611084565b5b9050919050565b60606002805461052390612db0565b80601f016020809104026020016040519081016040528092919081815260200182805461054f90612db0565b801561059c5780601f106105715761010080835404028352916020019161059c565b820191906000526020600020905b81548152906001019060200180831161057f57829003601f168201915b50505050509050919050565b6105b06110ee565b73ffffffffffffffffffffffffffffffffffffffff168573ffffffffffffffffffffffffffffffffffffffff1614806105f657506105f5856105f06110ee565b610d03565b5b610635576040517f08c379a000000000000000000000000000000000000000000000000000000000815260040161062c90612e53565b60405180910390fd5b61064285858585856110f6565b5050505050565b610654816000610c09565b50565b6060815183511461069d576040517f08c379a000000000000000000000000000000000000000000000000000000000815260040161069490612ee5565b60405180910390fd5b6000835167ffffffffffffffff8111156106ba576106b9612510565b5b6040519080825280602002602001820160405280156106e85781602001602082028036833780820191505090505b50905060005b84518110156107655761073585828151811061070d5761070c612f05565b5b602002602001015185838151811061072857610727612f05565b5b602002602001015161041e565b82828151811061074857610747612f05565b5b6020026020010181815250508061075e90612f63565b90506106ee565b508091505092915050565b60006006600086815260200190815260200160002060010154146107c9576040517f08c379a00000000000000000000000000000000000000000000000000000000081526004016107c090612ff7565b60405180910390fd5b3373ffffffffffffffffffffffffffffffffffffffff168673ffffffffffffffffffffffffffffffffffffffff1614610837576040517f08c379a000000000000000000000000000000000000000000000000000000000815260040161082e90613063565b60405180910390fd5b60006040518060400160405280601381526020017f66756e6464696e672069732073656363657373000000000000000000000000008152509050600061087f88868686611417565b9050806006600088815260200190815260200160002060008201518160000160006101000a81548173ffffffffffffffffffffffffffffffffffffffff021916908373ffffffffffffffffffffffffffffffffffffffff1602179055506020820151816001015560408201518160020155606082015181600301556080820151816004015560a08201518160050160006101000a81548160ff021916908315150217905550905050610942888787604051806020016040528060008152506114f3565b61094d876001610c09565b60048690806001815401808255809150506001900390600052602060002001600090919091909150557f8bdc0347739a882305e00b5fa613e8629b5da77a48abac45661315c45619c5483387878787876040516109af96959493929190613083565b60405180910390a15050505050505050565b6109c96110ee565b73ffffffffffffffffffffffffffffffffffffffff166109e7610bdf565b73ffffffffffffffffffffffffffffffffffffffff1614610a3d576040517f08c379a0000000000000000000000000000000000000000000000000000000008152600401610a3490613137565b60405180910390fd5b610a4760006116a3565b565b600560009054906101000a900473ffffffffffffffffffffffffffffffffffffffff1673ffffffffffffffffffffffffffffffffffffffff163373ffffffffffffffffffffffffffffffffffffffff1614610aa357600080fd5b610aae838383611769565b505050565b60606004805480602002602001604051908101604052809291908181526020018280548015610b0157602002820191906000526020600020905b815481526020019060010190808311610aed575b5050505050905090565b610b16816001610c09565b50565b610b21612211565b600660008381526020019081526020016000206040518060c00160405290816000820160009054906101000a900473ffffffffffffffffffffffffffffffffffffffff1673ffffffffffffffffffffffffffffffffffffffff1673ffffffffffffffffffffffffffffffffffffffff168152602001600182015481526020016002820154815260200160038201548152602001600482015481526020016005820160009054906101000a900460ff1615151515815250509050919050565b6000600360009054906101000a900473ffffffffffffffffffffffffffffffffffffffff16905090565b610c1b610c146110ee565b83836119af565b5050565b3373ffffffffffffffffffffffffffffffffffffffff168173ffffffffffffffffffffffffffffffffffffffff1614610c8d576040517f08c379a0000000000000000000000000000000000000000000000000000000008152600401610c84906131a3565b60405180910390fd5b80600560006101000a81548173ffffffffffffffffffffffffffffffffffffffff021916908373ffffffffffffffffffffffffffffffffffffffff16021790555050565b60016006600083815260200190815260200160002060050160006101000a81548160ff02191690831515021790555050565b6000600160008473ffffffffffffffffffffffffffffffffffffffff1673ffffffffffffffffffffffffffffffffffffffff16815260200190815260200160002060008373ffffffffffffffffffffffffffffffffffffffff1673ffffffffffffffffffffffffffffffffffffffff16815260200190815260200160002060009054906101000a900460ff16905092915050565b610d9f6110ee565b73ffffffffffffffffffffffffffffffffffffffff168573ffffffffffffffffffffffffffffffffffffffff161480610de55750610de485610ddf6110ee565b610d03565b5b610e24576040517f08c379a0000000000000000000000000000000000000000000000000000000008152600401610e1b90613235565b60405180910390fd5b610e318585858585611b1b565b5050505050565b610e406110ee565b73ffffffffffffffffffffffffffffffffffffffff16610e5e610bdf565b73ffffffffffffffffffffffffffffffffffffffff1614610eb4576040517f08c379a0000000000000000000000000000000000000000000000000000000008152600401610eab90613137565b60405180910390fd5b600073ffffffffffffffffffffffffffffffffffffffff168173ffffffffffffffffffffffffffffffffffffffff1603610f23576040517f08c379a0000000000000000000000000000000000000000000000000000000008152600401610f1a906132c7565b60405180910390fd5b610f2c816116a3565b50565b60066020528060005260406000206000915090508060000160009054906101000a900473ffffffffffffffffffffffffffffffffffffffff16908060010154908060020154908060030154908060040154908060050160009054906101000a900460ff16905086565b60048181548110610fa857600080fd5b906000526020600020016000915090505481565b60008073ffffffffffffffffffffffffffffffffffffffff168373ffffffffffffffffffffffffffffffffffffffff160361102c576040517f08c379a000000000000000000000000000000000000000000000000000000000815260040161102390613359565b60405180910390fd5b60008083815260200190815260200160002060008473ffffffffffffffffffffffffffffffffffffffff1673ffffffffffffffffffffffffffffffffffffffff16815260200190815260200160002054905092915050565b60007f01ffc9a7000000000000000000000000000000000000000000000000000000007bffffffffffffffffffffffffffffffffffffffffffffffffffffffff1916827bffffffffffffffffffffffffffffffffffffffffffffffffffffffff1916149050919050565b600033905090565b815183511461113a576040517f08c379a0000000000000000000000000000000000000000000000000000000008152600401611131906133eb565b60405180910390fd5b600073ffffffffffffffffffffffffffffffffffffffff168473ffffffffffffffffffffffffffffffffffffffff16036111a9576040517f08c379a00000000000000000000000000000000000000000000000000000000081526004016111a09061347d565b60405180910390fd5b60006111b36110ee565b90506111c3818787878787611db6565b60005b84518110156113745760008582815181106111e4576111e3612f05565b5b60200260200101519050600085838151811061120357611202612f05565b5b60200260200101519050600080600084815260200190815260200160002060008b73ffffffffffffffffffffffffffffffffffffffff1673ffffffffffffffffffffffffffffffffffffffff168152602001908152602001600020549050818110156112a4576040517f08c379a000000000000000000000000000000000000000000000000000000000815260040161129b9061350f565b60405180910390fd5b81810360008085815260200190815260200160002060008c73ffffffffffffffffffffffffffffffffffffffff1673ffffffffffffffffffffffffffffffffffffffff168152602001908152602001600020819055508160008085815260200190815260200160002060008b73ffffffffffffffffffffffffffffffffffffffff1673ffffffffffffffffffffffffffffffffffffffff1681526020019081526020016000206000828254611359919061352f565b925050819055505050508061136d90612f63565b90506111c6565b508473ffffffffffffffffffffffffffffffffffffffff168673ffffffffffffffffffffffffffffffffffffffff168273ffffffffffffffffffffffffffffffffffffffff167f4a39dc06d4c0dbc64b70af90fd698a233a518aa5d07e595d983b8c0526c8f7fb87876040516113eb929190613563565b60405180910390a4611401818787878787611dbe565b61140f818787878787611dc6565b505050505050565b61141f612211565b611427612211565b600085670de0b6b3a76400008661143e919061359a565b611448919061360b565b905086826000019073ffffffffffffffffffffffffffffffffffffffff16908173ffffffffffffffffffffffffffffffffffffffff168152505085826020018181525050670de0b6b3a7640000856114a0919061359a565b82604001818152505080826060018181525050836121c06114c1919061359a565b426114cc919061352f565b82608001818152505060008260a00190151590811515815250508192505050949350505050565b600073ffffffffffffffffffffffffffffffffffffffff168473ffffffffffffffffffffffffffffffffffffffff1603611562576040517f08c379a0000000000000000000000000000000000000000000000000000000008152600401611559906136ae565b60405180910390fd5b600061156c6110ee565b9050600061157985611f9d565b9050600061158685611f9d565b905061159783600089858589611db6565b8460008088815260200190815260200160002060008973ffffffffffffffffffffffffffffffffffffffff1673ffffffffffffffffffffffffffffffffffffffff16815260200190815260200160002060008282546115f6919061352f565b925050819055508673ffffffffffffffffffffffffffffffffffffffff16600073ffffffffffffffffffffffffffffffffffffffff168473ffffffffffffffffffffffffffffffffffffffff167fc3d58168c5ae7397731d063d5bbf3d657854427343f4c083240f7aacaa2d0f6289896040516116749291906136ce565b60405180910390a461168b83600089858589611dbe565b61169a83600089898989612017565b50505050505050565b6000600360009054906101000a900473ffffffffffffffffffffffffffffffffffffffff16905081600360006101000a81548173ffffffffffffffffffffffffffffffffffffffff021916908373ffffffffffffffffffffffffffffffffffffffff1602179055508173ffffffffffffffffffffffffffffffffffffffff168173ffffffffffffffffffffffffffffffffffffffff167f8be0079c531659141344cd1fd0a4f28419497f9722a3daafe3b4186f6b6457e060405160405180910390a35050565b600073ffffffffffffffffffffffffffffffffffffffff168373ffffffffffffffffffffffffffffffffffffffff16036117d8576040517f08c379a00000000000000000000000000000000000000000000000000000000081526004016117cf90613769565b60405180910390fd5b60006117e26110ee565b905060006117ef84611f9d565b905060006117fc84611f9d565b905061181c83876000858560405180602001604052806000815250611db6565b600080600087815260200190815260200160002060008873ffffffffffffffffffffffffffffffffffffffff1673ffffffffffffffffffffffffffffffffffffffff168152602001908152602001600020549050848110156118b3576040517f08c379a00000000000000000000000000000000000000000000000000000000081526004016118aa906137fb565b60405180910390fd5b84810360008088815260200190815260200160002060008973ffffffffffffffffffffffffffffffffffffffff1673ffffffffffffffffffffffffffffffffffffffff16815260200190815260200160002081905550600073ffffffffffffffffffffffffffffffffffffffff168773ffffffffffffffffffffffffffffffffffffffff168573ffffffffffffffffffffffffffffffffffffffff167fc3d58168c5ae7397731d063d5bbf3d657854427343f4c083240f7aacaa2d0f6289896040516119809291906136ce565b60405180910390a46119a684886000868660405180602001604052806000815250611dbe565b50505050505050565b8173ffffffffffffffffffffffffffffffffffffffff168373ffffffffffffffffffffffffffffffffffffffff1603611a1d576040517f08c379a0000000000000000000000000000000000000000000000000000000008152600401611a149061388d565b60405180910390fd5b80600160008573ffffffffffffffffffffffffffffffffffffffff1673ffffffffffffffffffffffffffffffffffffffff16815260200190815260200160002060008473ffffffffffffffffffffffffffffffffffffffff1673ffffffffffffffffffffffffffffffffffffffff16815260200190815260200160002060006101000a81548160ff0219169083151502179055508173ffffffffffffffffffffffffffffffffffffffff168373ffffffffffffffffffffffffffffffffffffffff167f17307eab39ab6107e8899845ad3d59bd9653f200f220920489ca2b5937696c3183604051611b0e9190612411565b60405180910390a3505050565b600073ffffffffffffffffffffffffffffffffffffffff168473ffffffffffffffffffffffffffffffffffffffff1603611b8a576040517f08c379a0000000000000000000000000000000000000000000000000000000008152600401611b819061347d565b60405180910390fd5b6000611b946110ee565b90506000611ba185611f9d565b90506000611bae85611f9d565b9050611bbe838989858589611db6565b600080600088815260200190815260200160002060008a73ffffffffffffffffffffffffffffffffffffffff1673ffffffffffffffffffffffffffffffffffffffff16815260200190815260200160002054905085811015611c55576040517f08c379a0000000000000000000000000000000000000000000000000000000008152600401611c4c9061350f565b60405180910390fd5b85810360008089815260200190815260200160002060008b73ffffffffffffffffffffffffffffffffffffffff1673ffffffffffffffffffffffffffffffffffffffff168152602001908152602001600020819055508560008089815260200190815260200160002060008a73ffffffffffffffffffffffffffffffffffffffff1673ffffffffffffffffffffffffffffffffffffffff1681526020019081526020016000206000828254611d0a919061352f565b925050819055508773ffffffffffffffffffffffffffffffffffffffff168973ffffffffffffffffffffffffffffffffffffffff168573ffffffffffffffffffffffffffffffffffffffff167fc3d58168c5ae7397731d063d5bbf3d657854427343f4c083240f7aacaa2d0f628a8a604051611d879291906136ce565b60405180910390a4611d9d848a8a86868a611dbe565b611dab848a8a8a8a8a612017565b505050505050505050565b505050505050565b505050505050565b611de58473ffffffffffffffffffffffffffffffffffffffff166121ee565b15611f95578373ffffffffffffffffffffffffffffffffffffffff1663bc197c8187878686866040518663ffffffff1660e01b8152600401611e2b959493929190613902565b6020604051808303816000875af1925050508015611e6757506040513d601f19601f82011682018060405250810190611e64919061397f565b60015b611f0c57611e736139b9565b806308c379a003611ecf5750611e876139db565b80611e925750611ed1565b806040517f08c379a0000000000000000000000000000000000000000000000000000000008152600401611ec691906124e9565b60405180910390fd5b505b6040517f08c379a0000000000000000000000000000000000000000000000000000000008152600401611f0390613add565b60405180910390fd5b63bc197c8160e01b7bffffffffffffffffffffffffffffffffffffffffffffffffffffffff1916817bffffffffffffffffffffffffffffffffffffffffffffffffffffffff191614611f93576040517f08c379a0000000000000000000000000000000000000000000000000000000008152600401611f8a90613b6f565b60405180910390fd5b505b505050505050565b60606000600167ffffffffffffffff811115611fbc57611fbb612510565b5b604051908082528060200260200182016040528015611fea5781602001602082028036833780820191505090505b509050828160008151811061200257612001612f05565b5b60200260200101818152505080915050919050565b6120368473ffffffffffffffffffffffffffffffffffffffff166121ee565b156121e6578373ffffffffffffffffffffffffffffffffffffffff1663f23a6e6187878686866040518663ffffffff1660e01b815260040161207c959493929190613b8f565b6020604051808303816000875af19250505080156120b857506040513d601f19601f820116820180604052508101906120b5919061397f565b60015b61215d576120c46139b9565b806308c379a00361212057506120d86139db565b806120e35750612122565b806040517f08c379a000000000000000000000000000000000000000000000000000000000815260040161211791906124e9565b60405180910390fd5b505b6040517f08c379a000000000000000000000000000000000000000000000000000000000815260040161215490613add565b60405180910390fd5b63f23a6e6160e01b7bffffffffffffffffffffffffffffffffffffffffffffffffffffffff1916817bffffffffffffffffffffffffffffffffffffffffffffffffffffffff1916146121e4576040517f08c379a00000000000000000000000000000000000000000000000000000000081526004016121db90613b6f565b60405180910390fd5b505b505050505050565b6000808273ffffffffffffffffffffffffffffffffffffffff163b119050919050565b6040518060c00160405280600073ffffffffffffffffffffffffffffffffffffffff168152602001600081526020016000815260200160008152602001600081526020016000151581525090565b6000604051905090565b600080fd5b600080fd5b600073ffffffffffffffffffffffffffffffffffffffff82169050919050565b600061229e82612273565b9050919050565b6122ae81612293565b81146122b957600080fd5b50565b6000813590506122cb816122a5565b92915050565b6000819050919050565b6122e4816122d1565b81146122ef57600080fd5b50565b600081359050612301816122db565b92915050565b6000806040838503121561231e5761231d612269565b5b600061232c858286016122bc565b925050602061233d858286016122f2565b9150509250929050565b612350816122d1565b82525050565b600060208201905061236b6000830184612347565b92915050565b60007fffffffff0000000000000000000000000000000000000000000000000000000082169050919050565b6123a681612371565b81146123b157600080fd5b50565b6000813590506123c38161239d565b92915050565b6000602082840312156123df576123de612269565b5b60006123ed848285016123b4565b91505092915050565b60008115159050919050565b61240b816123f6565b82525050565b60006020820190506124266000830184612402565b92915050565b60006020828403121561244257612441612269565b5b6000612450848285016122f2565b91505092915050565b600081519050919050565b600082825260208201905092915050565b60005b83811015612493578082015181840152602081019050612478565b60008484015250505050565b6000601f19601f8301169050919050565b60006124bb82612459565b6124c58185612464565b93506124d5818560208601612475565b6124de8161249f565b840191505092915050565b6000602082019050818103600083015261250381846124b0565b905092915050565b600080fd5b7f4e487b7100000000000000000000000000000000000000000000000000000000600052604160045260246000fd5b6125488261249f565b810181811067ffffffffffffffff8211171561256757612566612510565b5b80604052505050565b600061257a61225f565b9050612586828261253f565b919050565b600067ffffffffffffffff8211156125a6576125a5612510565b5b602082029050602081019050919050565b600080fd5b60006125cf6125ca8461258b565b612570565b905080838252602082019050602084028301858111156125f2576125f16125b7565b5b835b8181101561261b578061260788826122f2565b8452602084019350506020810190506125f4565b5050509392505050565b600082601f83011261263a5761263961250b565b5b813561264a8482602086016125bc565b91505092915050565b600080fd5b600067ffffffffffffffff82111561267357612672612510565b5b61267c8261249f565b9050602081019050919050565b82818337600083830152505050565b60006126ab6126a684612658565b612570565b9050828152602081018484840111156126c7576126c6612653565b5b6126d2848285612689565b509392505050565b600082601f8301126126ef576126ee61250b565b5b81356126ff848260208601612698565b91505092915050565b600080600080600060a0868803121561272457612723612269565b5b6000612732888289016122bc565b9550506020612743888289016122bc565b945050604086013567ffffffffffffffff8111156127645761276361226e565b5b61277088828901612625565b935050606086013567ffffffffffffffff8111156127915761279061226e565b5b61279d88828901612625565b925050608086013567ffffffffffffffff8111156127be576127bd61226e565b5b6127ca888289016126da565b9150509295509295909350565b6000602082840312156127ed576127ec612269565b5b60006127fb848285016122bc565b91505092915050565b600067ffffffffffffffff82111561281f5761281e612510565b5b602082029050602081019050919050565b600061284361283e84612804565b612570565b90508083825260208201905060208402830185811115612866576128656125b7565b5b835b8181101561288f578061287b88826122bc565b845260208401935050602081019050612868565b5050509392505050565b600082601f8301126128ae576128ad61250b565b5b81356128be848260208601612830565b91505092915050565b600080604083850312156128de576128dd612269565b5b600083013567ffffffffffffffff8111156128fc576128fb61226e565b5b61290885828601612899565b925050602083013567ffffffffffffffff8111156129295761292861226e565b5b61293585828601612625565b9150509250929050565b600081519050919050565b600082825260208201905092915050565b6000819050602082019050919050565b612974816122d1565b82525050565b6000612986838361296b565b60208301905092915050565b6000602082019050919050565b60006129aa8261293f565b6129b4818561294a565b93506129bf8361295b565b8060005b838110156129f05781516129d7888261297a565b97506129e283612992565b9250506001810190506129c3565b5085935050505092915050565b60006020820190508181036000830152612a17818461299f565b905092915050565b60008060008060008060c08789031215612a3c57612a3b612269565b5b6000612a4a89828a016122bc565b9650506020612a5b89828a016122bc565b9550506040612a6c89828a016122f2565b9450506060612a7d89828a016122f2565b9350506080612a8e89828a016122f2565b92505060a0612a9f89828a016122f2565b9150509295509295509295565b600080600060608486031215612ac557612ac4612269565b5b6000612ad3868287016122bc565b9350506020612ae4868287016122f2565b9250506040612af5868287016122f2565b9150509250925092565b612b0881612293565b82525050565b612b17816123f6565b82525050565b60c082016000820151612b336000850182612aff565b506020820151612b46602085018261296b565b506040820151612b59604085018261296b565b506060820151612b6c606085018261296b565b506080820151612b7f608085018261296b565b5060a0820151612b9260a0850182612b0e565b50505050565b600060c082019050612bad6000830184612b1d565b92915050565b612bbc81612293565b82525050565b6000602082019050612bd76000830184612bb3565b92915050565b612be6816123f6565b8114612bf157600080fd5b50565b600081359050612c0381612bdd565b92915050565b60008060408385031215612c2057612c1f612269565b5b6000612c2e858286016122bc565b9250506020612c3f85828601612bf4565b9150509250929050565b60008060408385031215612c6057612c5f612269565b5b6000612c6e858286016122bc565b9250506020612c7f858286016122bc565b9150509250929050565b600080600080600060a08688031215612ca557612ca4612269565b5b6000612cb3888289016122bc565b9550506020612cc4888289016122bc565b9450506040612cd5888289016122f2565b9350506060612ce6888289016122f2565b925050608086013567ffffffffffffffff811115612d0757612d0661226e565b5b612d13888289016126da565b9150509295509295909350565b600060c082019050612d356000830189612bb3565b612d426020830188612347565b612d4f6040830187612347565b612d5c6060830186612347565b612d696080830185612347565b612d7660a0830184612402565b979650505050505050565b7f4e487b7100000000000000000000000000000000000000000000000000000000600052602260045260246000fd5b60006002820490506001821680612dc857607f821691505b602082108103612ddb57612dda612d81565b5b50919050565b7f455243313135353a207472616e736665722063616c6c6572206973206e6f742060008201527f6f776e6572206e6f7220617070726f7665640000000000000000000000000000602082015250565b6000612e3d603283612464565b9150612e4882612de1565b604082019050919050565b60006020820190508181036000830152612e6c81612e30565b9050919050565b7f455243313135353a206163636f756e747320616e6420696473206c656e67746860008201527f206d69736d617463680000000000000000000000000000000000000000000000602082015250565b6000612ecf602983612464565b9150612eda82612e73565b604082019050919050565b60006020820190508181036000830152612efe81612ec2565b9050919050565b7f4e487b7100000000000000000000000000000000000000000000000000000000600052603260045260246000fd5b7f4e487b7100000000000000000000000000000000000000000000000000000000600052601160045260246000fd5b6000612f6e826122d1565b91507fffffffffffffffffffffffffffffffffffffffffffffffffffffffffffffffff8203612fa057612f9f612f34565b5b600182019050919050565b7f6861766520616c7265616479206265656e206973737565640000000000000000600082015250565b6000612fe1601883612464565b9150612fec82612fab565b602082019050919050565b6000602082019050818103600083015261301081612fd4565b9050919050565b7f49742773206e6f7420796f752e00000000000000000000000000000000000000600082015250565b600061304d600d83612464565b915061305882613017565b602082019050919050565b6000602082019050818103600083015261307c81613040565b9050919050565b600060c0820190506130986000830189612bb3565b6130a56020830188612347565b6130b26040830187612347565b6130bf6060830186612347565b6130cc6080830185612347565b81810360a08301526130de81846124b0565b9050979650505050505050565b7f4f776e61626c653a2063616c6c6572206973206e6f7420746865206f776e6572600082015250565b6000613121602083612464565b915061312c826130eb565b602082019050919050565b6000602082019050818103600083015261315081613114565b9050919050565b7f3f3f3f3f00000000000000000000000000000000000000000000000000000000600082015250565b600061318d600483612464565b915061319882613157565b602082019050919050565b600060208201905081810360008301526131bc81613180565b9050919050565b7f455243313135353a2063616c6c6572206973206e6f74206f776e6572206e6f7260008201527f20617070726f7665640000000000000000000000000000000000000000000000602082015250565b600061321f602983612464565b915061322a826131c3565b604082019050919050565b6000602082019050818103600083015261324e81613212565b9050919050565b7f4f776e61626c653a206e6577206f776e657220697320746865207a65726f206160008201527f6464726573730000000000000000000000000000000000000000000000000000602082015250565b60006132b1602683612464565b91506132bc82613255565b604082019050919050565b600060208201905081810360008301526132e0816132a4565b9050919050565b7f455243313135353a2062616c616e636520717565727920666f7220746865207a60008201527f65726f2061646472657373000000000000000000000000000000000000000000602082015250565b6000613343602b83612464565b915061334e826132e7565b604082019050919050565b6000602082019050818103600083015261337281613336565b9050919050565b7f455243313135353a2069647320616e6420616d6f756e7473206c656e6774682060008201527f6d69736d61746368000000000000000000000000000000000000000000000000602082015250565b60006133d5602883612464565b91506133e082613379565b604082019050919050565b60006020820190508181036000830152613404816133c8565b9050919050565b7f455243313135353a207472616e7366657220746f20746865207a65726f20616460008201527f6472657373000000000000000000000000000000000000000000000000000000602082015250565b6000613467602583612464565b91506134728261340b565b604082019050919050565b600060208201905081810360008301526134968161345a565b9050919050565b7f455243313135353a20696e73756666696369656e742062616c616e636520666f60008201527f72207472616e7366657200000000000000000000000000000000000000000000602082015250565b60006134f9602a83612464565b91506135048261349d565b604082019050919050565b60006020820190508181036000830152613528816134ec565b9050919050565b600061353a826122d1565b9150613545836122d1565b925082820190508082111561355d5761355c612f34565b5b92915050565b6000604082019050818103600083015261357d818561299f565b90508181036020830152613591818461299f565b90509392505050565b60006135a5826122d1565b91506135b0836122d1565b92508282026135be816122d1565b915082820484148315176135d5576135d4612f34565b5b5092915050565b7f4e487b7100000000000000000000000000000000000000000000000000000000600052601260045260246000fd5b6000613616826122d1565b9150613621836122d1565b925082613631576136306135dc565b5b828204905092915050565b7f455243313135353a206d696e7420746f20746865207a65726f2061646472657360008201527f7300000000000000000000000000000000000000000000000000000000000000602082015250565b6000613698602183612464565b91506136a38261363c565b604082019050919050565b600060208201905081810360008301526136c78161368b565b9050919050565b60006040820190506136e36000830185612347565b6136f06020830184612347565b9392505050565b7f455243313135353a206275726e2066726f6d20746865207a65726f206164647260008201527f6573730000000000000000000000000000000000000000000000000000000000602082015250565b6000613753602383612464565b915061375e826136f7565b604082019050919050565b6000602082019050818103600083015261378281613746565b9050919050565b7f455243313135353a206275726e20616d6f756e7420657863656564732062616c60008201527f616e636500000000000000000000000000000000000000000000000000000000602082015250565b60006137e5602483612464565b91506137f082613789565b604082019050919050565b60006020820190508181036000830152613814816137d8565b9050919050565b7f455243313135353a2073657474696e6720617070726f76616c2073746174757360008201527f20666f722073656c660000000000000000000000000000000000000000000000602082015250565b6000613877602983612464565b91506138828261381b565b604082019050919050565b600060208201905081810360008301526138a68161386a565b9050919050565b600081519050919050565b600082825260208201905092915050565b60006138d4826138ad565b6138de81856138b8565b93506138ee818560208601612475565b6138f78161249f565b840191505092915050565b600060a0820190506139176000830188612bb3565b6139246020830187612bb3565b8181036040830152613936818661299f565b9050818103606083015261394a818561299f565b9050818103608083015261395e81846138c9565b90509695505050505050565b6000815190506139798161239d565b92915050565b60006020828403121561399557613994612269565b5b60006139a38482850161396a565b91505092915050565b60008160e01c9050919050565b600060033d11156139d85760046000803e6139d56000516139ac565b90505b90565b600060443d10613a68576139ed61225f565b60043d036004823e80513d602482011167ffffffffffffffff82111715613a15575050613a68565b808201805167ffffffffffffffff811115613a335750505050613a68565b80602083010160043d038501811115613a50575050505050613a68565b613a5f8260200185018661253f565b82955050505050505b90565b7f455243313135353a207472616e7366657220746f206e6f6e204552433131353560008201527f526563656976657220696d706c656d656e746572000000000000000000000000602082015250565b6000613ac7603483612464565b9150613ad282613a6b565b604082019050919050565b60006020820190508181036000830152613af681613aba565b9050919050565b7f455243313135353a204552433131353552656365697665722072656a6563746560008201527f6420746f6b656e73000000000000000000000000000000000000000000000000602082015250565b6000613b59602883612464565b9150613b6482613afd565b604082019050919050565b60006020820190508181036000830152613b8881613b4c565b9050919050565b600060a082019050613ba46000830188612bb3565b613bb16020830187612bb3565b613bbe6040830186612347565b613bcb6060830185612347565b8181036080830152613bdd81846138c9565b9050969550505050505056fea2646970667358221220a91d0ad81ae6e3ae3a2b14dc79c02b1f57843f68a0c9377746c9f2c946da739464736f6c63430008110033",
  "immutableReferences": {},
  "source": "// SPDX-License-Identifier: MIT\r\npragma solidity ^0.8.17;\r\n\r\nimport \"../node_modules/openzeppelin-solidity/contracts/token/ERC1155/extensions/ERC1155Burnable.sol\";\r\nimport \"../node_modules/openzeppelin-solidity/contracts/token/ERC1155/ERC1155.sol\";\r\nimport \"../node_modules/openzeppelin-solidity/contracts/access/Ownable.sol\";\r\n// import \"@openzeppelin/contracts/token/ERC1155/extensions/ERC1155Burnable.sol\";\r\n// import \"@openzeppelin/contracts/token/ERC1155/ERC1155.sol\";\r\n// import \"@openzeppelin/contracts/access/Ownable.sol\";\r\n\r\n//     owner    EOA  .\r\n\r\ncontract DtsToken is ERC1155, Ownable{\r\n\r\n    constructor() ERC1155(\"\"){\r\n    \r\n    }\r\n\r\n    // // json metadata URI;\r\n    // string public metadataURI;\r\n\r\n    //      \r\n    struct tokenOwnerData{\r\n        //  \r\n        address Creater;\r\n        // nft \r\n        uint256 NftAmount;\r\n        //   ;\r\n        uint256 TotalPrice;\r\n        // nft  \r\n        uint256 UnitPrice;\r\n        //  \r\n        uint256 EndTime;\r\n        //   \r\n        bool isSuccess;\r\n    }\r\n\r\n    //    nft  \r\n    // ids[]    .       balance. \r\n    uint256[] public ids;\r\n\r\n    // FunddingTokenCA  \r\n    address private _funddingCA;\r\n\r\n    //     ,  , , NFT ,      \r\n    mapping(uint256 => tokenOwnerData) public tokenOwners;\r\n\r\n    //    \r\n    event seccessFundding(address account, uint256 tokenId, uint256 amount, uint256 totalPrice, uint256 getTime, string result);\r\n\r\n    //  nft \r\n    function balanceOf(address account, uint256 tokenId) public view override returns (uint) {\r\n        return ERC1155.balanceOf(account, tokenId);\r\n    }\r\n\r\n    //    nft tokenId    \r\n    function idsView() public view returns(uint256[] memory){\r\n        return ids;\r\n    }\r\n    \r\n    //   NFT    \r\n    // msg.sender       CA         .\r\n    function mintFundding(address account, address funddingTokenCA, uint256 tokenId, uint256 amount, uint256 totalPrice, uint256 getTime) public{\r\n        // nft    \r\n        require(tokenOwners[tokenId].NftAmount == 0, \"have already been issued\");\r\n        //     .\r\n        require(account == msg.sender, \"It's not you.\");\r\n        //    \r\n        string memory result = \"fundding is seccess\";\r\n        \r\n        //     .\r\n        tokenOwnerData memory data = _getFunddingData(account,amount,totalPrice,getTime);\r\n        //     Id .\r\n        tokenOwners[tokenId] = data;\r\n        // nft \r\n        ERC1155._mint(account, tokenId, amount, \"\");\r\n        //   NFT  CA .\r\n        ERC1155.setApprovalForAll(funddingTokenCA, true);\r\n        ids.push(tokenId);\r\n        // mintFundding  \r\n        emit seccessFundding(msg.sender, tokenId, amount, totalPrice, getTime, result);\r\n    }\r\n\r\n    //      \r\n    function _getFunddingData(address _account, uint256 _amount, uint256 _totalPrice, uint256 _getTime) private view returns(tokenOwnerData memory){\r\n        tokenOwnerData memory data;\r\n        uint256 _unitPrice = (_totalPrice * (10 ** 18)) /  _amount;\r\n        data.Creater = _account;\r\n        data.NftAmount = _amount;\r\n        data.TotalPrice = _totalPrice *(10 ** 18);\r\n        data.UnitPrice = _unitPrice;\r\n        data.EndTime = block.timestamp + (8640 * _getTime);\r\n        data.isSuccess = false;\r\n        \r\n        return data;\r\n    }\r\n    \r\n    //     \r\n    function getTokenOwnerData(uint256 tokenId) public view returns(tokenOwnerData memory){\r\n        return tokenOwners[tokenId];\r\n    }\r\n\r\n    // //  creater  \r\n    // function getTokenOwnerDataCreater(uint256 tokenId) public view returns (address) {\r\n    //     return tokenOwners[tokenId].Creater;\r\n    // }\r\n    // //    \r\n    // function getTokenOwnerDataNftAmount(uint256 tokenId) public view returns (uint256) {\r\n    //     return tokenOwners[tokenId].NftAmount;\r\n    // }\r\n    // //     \r\n    // function getTokenOwnerDataTotalPrice(uint256 tokenId) public view returns (uint256) {\r\n    //     return tokenOwners[tokenId].TotalPrice;\r\n    // }\r\n    // //      \r\n    // function getTokenOwnerDataUnitPrice(uint256 tokenId) public view returns (uint256) {\r\n    //     return tokenOwners[tokenId].UnitPrice;\r\n    // }\r\n    // //     \r\n    // function getTokenOwnerDataEndTime(uint256 tokenId) public view returns (uint256) {\r\n    //     //          \r\n    //     // tokenOwners[tokenId].EndtTime = tokenOwners[tokenId].EndtTime + 3000;\r\n    //     return tokenOwners[tokenId].EndTime;\r\n    // }\r\n\r\n    //        true;\r\n    function isFunddingSuccess(uint256 tokenId) external{\r\n        tokenOwners[tokenId].isSuccess = true;\r\n    }\r\n\r\n    //      saleToken   .\r\n    function saleApprovalTrue(address saleCA) public{\r\n        ERC1155.setApprovalForAll(saleCA, true);\r\n    }\r\n    // saleToken    \r\n    function saleApprovalFalse(address saleCA) public{\r\n        ERC1155.setApprovalForAll(saleCA, false);\r\n    }\r\n\r\n    //   .(FunddingOwnerOnly    SaleCA    . )\r\n    function faildBurn(address account, uint256 tokenId, uint256 amount) external FunddingOwnerOnly{\r\n        ERC1155._burn(account, tokenId, amount);\r\n    }\r\n\r\n    //    FunddingTokenCA  . (FunddingOwnerOnly     .)\r\n    function isChangedCA(address account) external {\r\n        require(account == msg.sender,\"????\");\r\n        _funddingCA = account;\r\n    }\r\n\r\n    //   SaleCA   \r\n    modifier FunddingOwnerOnly() {\r\n        require(msg.sender == _funddingCA);\r\n        _;\r\n    }\r\n\r\n    // // URI      .\r\n    // function setURI(string memory newuri) public onlyOwner {\r\n    //     _setURI(newuri);\r\n    // }\r\n}",
  "sourcePath": "C:\\Users\\jdunm\\OneDrive\\ \\dive2space\\erc1155\\contracts\\DtsToken.sol",
  "compiler": {
    "name": "solc",
    "version": "0.8.17+commit.8df45f5f.Emscripten.clang"
  },
  "schemaVersion": "3.4.11",
  "updatedAt": "2023-02-03T05:24:27.560Z",
  "networkType": "ethereum",
  "devdoc": {
    "kind": "dev",
    "methods": {
      "balanceOfBatch(address[],uint256[])": {
        "details": "See {IERC1155-balanceOfBatch}. Requirements: - `accounts` and `ids` must have the same length."
      },
      "isApprovedForAll(address,address)": {
        "details": "See {IERC1155-isApprovedForAll}."
      },
      "owner()": {
        "details": "Returns the address of the current owner."
      },
      "renounceOwnership()": {
        "details": "Leaves the contract without owner. It will not be possible to call `onlyOwner` functions anymore. Can only be called by the current owner. NOTE: Renouncing ownership will leave the contract without an owner, thereby removing any functionality that is only available to the owner."
      },
      "safeBatchTransferFrom(address,address,uint256[],uint256[],bytes)": {
        "details": "See {IERC1155-safeBatchTransferFrom}."
      },
      "safeTransferFrom(address,address,uint256,uint256,bytes)": {
        "details": "See {IERC1155-safeTransferFrom}."
      },
      "setApprovalForAll(address,bool)": {
        "details": "See {IERC1155-setApprovalForAll}."
      },
      "supportsInterface(bytes4)": {
        "details": "See {IERC165-supportsInterface}."
      },
      "transferOwnership(address)": {
        "details": "Transfers ownership of the contract to a new account (`newOwner`). Can only be called by the current owner."
      },
      "uri(uint256)": {
        "details": "See {IERC1155MetadataURI-uri}. This implementation returns the same URI for *all* token types. It relies on the token type ID substitution mechanism https://eips.ethereum.org/EIPS/eip-1155#metadata[defined in the EIP]. Clients calling this function must replace the `\\{id\\}` substring with the actual token type ID."
      }
    },
    "version": 1
  },
  "userdoc": {
    "kind": "user",
    "methods": {},
    "version": 1
  }
}