{
  "contractName": "FunddingToken",
  "abi": [
    {
      "inputs": [
        {
          "internalType": "address",
          "name": "DtsTokenCA",
          "type": "address"
        }
      ],
      "stateMutability": "nonpayable",
      "type": "constructor"
    },
    {
      "anonymous": false,
      "inputs": [
        {
          "indexed": true,
          "internalType": "address",
          "name": "previousOwner",
          "type": "address"
        },
        {
          "indexed": true,
          "internalType": "address",
          "name": "newOwner",
          "type": "address"
        }
      ],
      "name": "OwnershipTransferred",
      "type": "event"
    },
    {
      "inputs": [],
      "name": "Dtoken",
      "outputs": [
        {
          "internalType": "contract DtsToken",
          "name": "",
          "type": "address"
        }
      ],
      "stateMutability": "view",
      "type": "function",
      "constant": true
    },
    {
      "inputs": [],
      "name": "owner",
      "outputs": [
        {
          "internalType": "address",
          "name": "",
          "type": "address"
        }
      ],
      "stateMutability": "view",
      "type": "function",
      "constant": true
    },
    {
      "inputs": [],
      "name": "renounceOwnership",
      "outputs": [],
      "stateMutability": "nonpayable",
      "type": "function"
    },
    {
      "inputs": [
        {
          "internalType": "address",
          "name": "newOwner",
          "type": "address"
        }
      ],
      "name": "transferOwnership",
      "outputs": [],
      "stateMutability": "nonpayable",
      "type": "function"
    },
    {
      "inputs": [
        {
          "internalType": "address",
          "name": "account",
          "type": "address"
        }
      ],
      "name": "subscriptionBuy",
      "outputs": [],
      "stateMutability": "payable",
      "type": "function",
      "payable": true
    },
    {
      "inputs": [
        {
          "internalType": "address",
          "name": "account",
          "type": "address"
        }
      ],
      "name": "streamingView",
      "outputs": [
        {
          "internalType": "uint256",
          "name": "",
          "type": "uint256"
        }
      ],
      "stateMutability": "view",
      "type": "function",
      "constant": true
    },
    {
      "inputs": [],
      "name": "changedCA",
      "outputs": [],
      "stateMutability": "nonpayable",
      "type": "function"
    },
    {
      "inputs": [
        {
          "internalType": "uint256",
          "name": "tokenId",
          "type": "uint256"
        },
        {
          "internalType": "uint256",
          "name": "amount",
          "type": "uint256"
        }
      ],
      "name": "userFundding",
      "outputs": [],
      "stateMutability": "payable",
      "type": "function",
      "payable": true
    },
    {
      "inputs": [
        {
          "internalType": "uint256",
          "name": "tokenId",
          "type": "uint256"
        }
      ],
      "name": "isSuccessFundding",
      "outputs": [],
      "stateMutability": "payable",
      "type": "function",
      "payable": true
    },
    {
      "inputs": [
        {
          "internalType": "address",
          "name": "account",
          "type": "address"
        },
        {
          "internalType": "uint256",
          "name": "tokenId",
          "type": "uint256"
        }
      ],
      "name": "isFuckingFundding",
      "outputs": [],
      "stateMutability": "payable",
      "type": "function",
      "payable": true
    },
    {
      "inputs": [
        {
          "internalType": "uint256",
          "name": "tokenId",
          "type": "uint256"
        }
      ],
      "name": "priceCheck",
      "outputs": [
        {
          "internalType": "uint256",
          "name": "",
          "type": "uint256"
        }
      ],
      "stateMutability": "view",
      "type": "function",
      "constant": true
    }
  ],
  "bytecode": "0x6080604052600a6002553480156200001657600080fd5b5060405162002c0038038062002c0083398181016040528101906200003c9190620001da565b6200005c62000050620000a460201b60201c565b620000ac60201b60201c565b80600160006101000a81548173ffffffffffffffffffffffffffffffffffffffff021916908373ffffffffffffffffffffffffffffffffffffffff160217905550506200020c565b600033905090565b60008060009054906101000a900473ffffffffffffffffffffffffffffffffffffffff169050816000806101000a81548173ffffffffffffffffffffffffffffffffffffffff021916908373ffffffffffffffffffffffffffffffffffffffff1602179055508173ffffffffffffffffffffffffffffffffffffffff168173ffffffffffffffffffffffffffffffffffffffff167f8be0079c531659141344cd1fd0a4f28419497f9722a3daafe3b4186f6b6457e060405160405180910390a35050565b600080fd5b600073ffffffffffffffffffffffffffffffffffffffff82169050919050565b6000620001a28262000175565b9050919050565b620001b48162000195565b8114620001c057600080fd5b50565b600081519050620001d481620001a9565b92915050565b600060208284031215620001f357620001f262000170565b5b60006200020384828501620001c3565b91505092915050565b6129e4806200021c6000396000f3fe60806040526004361061009c5760003560e01c8063715018a611610064578063715018a6146101495780638da5cb5b14610160578063aeaaf9f91461018b578063cc8a416b146101a7578063dd9c145f146101d2578063f2fde38b1461020f5761009c565b80631a554d01146100a157806329c51d2b146100b857806349e5465c146100d457806350b9c737146101115780636105e4461461012d575b600080fd5b3480156100ad57600080fd5b506100b6610238565b005b6100d260048036038101906100cd9190611c20565b610343565b005b3480156100e057600080fd5b506100fb60048036038101906100f69190611c20565b6107bc565b6040516101089190611c5c565b60405180910390f35b61012b60048036038101906101269190611c77565b6107d9565b005b61014760048036038101906101429190611d15565b610fcc565b005b34801561015557600080fd5b5061015e611226565b005b34801561016c57600080fd5b506101756112ae565b6040516101829190611d51565b60405180910390f35b6101a560048036038101906101a09190611d6c565b6112d7565b005b3480156101b357600080fd5b506101bc611967565b6040516101c99190611e0b565b60405180910390f35b3480156101de57600080fd5b506101f960048036038101906101f49190611d15565b61198d565b6040516102069190611c5c565b60405180910390f35b34801561021b57600080fd5b5061023660048036038101906102319190611d15565b6119d6565b005b610240611acd565b73ffffffffffffffffffffffffffffffffffffffff1661025e6112ae565b73ffffffffffffffffffffffffffffffffffffffff16146102b4576040517f08c379a00000000000000000000000000000000000000000000000000000000081526004016102ab90611e83565b60405180910390fd5b600160009054906101000a900473ffffffffffffffffffffffffffffffffffffffff1673ffffffffffffffffffffffffffffffffffffffff1663ad216fb6306040518263ffffffff1660e01b815260040161030f9190611d51565b600060405180830381600087803b15801561032957600080fd5b505af115801561033d573d6000803e3d6000fd5b50505050565b600160009054906101000a900473ffffffffffffffffffffffffffffffffffffffff1673ffffffffffffffffffffffffffffffffffffffff16638d63193d826040518263ffffffff1660e01b815260040161039e9190611c5c565b60c060405180830381865afa1580156103bb573d6000803e3d6000fd5b505050506040513d601f19601f820116820180604052508101906103df9190612036565b6000015173ffffffffffffffffffffffffffffffffffffffff163373ffffffffffffffffffffffffffffffffffffffff1614610450576040517f08c379a0000000000000000000000000000000000000000000000000000000008152600401610447906120af565b60405180910390fd5b6003600082815260200190815260200160002054600160009054906101000a900473ffffffffffffffffffffffffffffffffffffffff1673ffffffffffffffffffffffffffffffffffffffff16638d63193d836040518263ffffffff1660e01b81526004016104bf9190611c5c565b60c060405180830381865afa1580156104dc573d6000803e3d6000fd5b505050506040513d601f19601f820116820180604052508101906105009190612036565b6060015161050e91906120fe565b600160009054906101000a900473ffffffffffffffffffffffffffffffffffffffff1673ffffffffffffffffffffffffffffffffffffffff16638d63193d836040518263ffffffff1660e01b81526004016105699190611c5c565b60c060405180830381865afa158015610586573d6000803e3d6000fd5b505050506040513d601f19601f820116820180604052508101906105aa9190612036565b60400151146105ee576040517f08c379a00000000000000000000000000000000000000000000000000000000081526004016105e59061218c565b60405180910390fd5b60006106ae6106a7600254600160009054906101000a900473ffffffffffffffffffffffffffffffffffffffff1673ffffffffffffffffffffffffffffffffffffffff16638d63193d866040518263ffffffff1660e01b81526004016106549190611c5c565b60c060405180830381865afa158015610671573d6000803e3d6000fd5b505050506040513d601f19601f820116820180604052508101906106959190612036565b60400151611ad590919063ffffffff16565b6064611aeb565b9050600061076e61076783600160009054906101000a900473ffffffffffffffffffffffffffffffffffffffff1673ffffffffffffffffffffffffffffffffffffffff16638d63193d876040518263ffffffff1660e01b81526004016107149190611c5c565b60c060405180830381865afa158015610731573d6000803e3d6000fd5b505050506040513d601f19601f820116820180604052508101906107559190612036565b60400151611b0190919063ffffffff16565b6002611aeb565b90503373ffffffffffffffffffffffffffffffffffffffff166108fc829081150290604051600060405180830381858888f193505050501580156107b6573d6000803e3d6000fd5b50505050565b600060036000838152602001908152602001600020549050919050565b6000600160009054906101000a900473ffffffffffffffffffffffffffffffffffffffff1673ffffffffffffffffffffffffffffffffffffffff16638d63193d846040518263ffffffff1660e01b81526004016108369190611c5c565b60c060405180830381865afa158015610853573d6000803e3d6000fd5b505050506040513d601f19601f820116820180604052508101906108779190612036565b60000151905042600160009054906101000a900473ffffffffffffffffffffffffffffffffffffffff1673ffffffffffffffffffffffffffffffffffffffff16638d63193d856040518263ffffffff1660e01b81526004016108d99190611c5c565b60c060405180830381865afa1580156108f6573d6000803e3d6000fd5b505050506040513d601f19601f8201168201806040525081019061091a9190612036565b608001511161095e576040517f08c379a0000000000000000000000000000000000000000000000000000000008152600401610955906121f8565b60405180910390fd5b8073ffffffffffffffffffffffffffffffffffffffff163373ffffffffffffffffffffffffffffffffffffffff16036109cc576040517f08c379a00000000000000000000000000000000000000000000000000000000081526004016109c390612264565b60405180910390fd5b60003403610a0f576040517f08c379a0000000000000000000000000000000000000000000000000000000008152600401610a06906122d0565b60405180910390fd5b81600160009054906101000a900473ffffffffffffffffffffffffffffffffffffffff1673ffffffffffffffffffffffffffffffffffffffff16638d63193d856040518263ffffffff1660e01b8152600401610a6b9190611c5c565b60c060405180830381865afa158015610a88573d6000803e3d6000fd5b505050506040513d601f19601f82011682018060405250810190610aac9190612036565b60600151610aba91906120fe565b3414610afb576040517f08c379a0000000000000000000000000000000000000000000000000000000008152600401610af29061233c565b60405180910390fd5b81600160009054906101000a900473ffffffffffffffffffffffffffffffffffffffff1673ffffffffffffffffffffffffffffffffffffffff1662fdd58e83866040518363ffffffff1660e01b8152600401610b5892919061235c565b602060405180830381865afa158015610b75573d6000803e3d6000fd5b505050506040513d601f19601f82011682018060405250810190610b999190612385565b1015610bda576040517f08c379a0000000000000000000000000000000000000000000000000000000008152600401610bd1906123fe565b60405180910390fd5b816003600085815260200190815260200160002054600160009054906101000a900473ffffffffffffffffffffffffffffffffffffffff1673ffffffffffffffffffffffffffffffffffffffff16638d63193d866040518263ffffffff1660e01b8152600401610c4a9190611c5c565b60c060405180830381865afa158015610c67573d6000803e3d6000fd5b505050506040513d601f19601f82011682018060405250810190610c8b9190612036565b60200151610c99919061241e565b1015610cda576040517f08c379a0000000000000000000000000000000000000000000000000000000008152600401610cd1906124c4565b60405180910390fd5b600160009054906101000a900473ffffffffffffffffffffffffffffffffffffffff1673ffffffffffffffffffffffffffffffffffffffff1663e985e9c533306040518363ffffffff1660e01b8152600401610d379291906124e4565b602060405180830381865afa158015610d54573d6000803e3d6000fd5b505050506040513d601f19601f82011682018060405250810190610d78919061250d565b610db7576040517f08c379a0000000000000000000000000000000000000000000000000000000008152600401610dae90612586565b60405180910390fd5b816003600085815260200190815260200160002054610dd691906125a6565b6003600085815260200190815260200160002081905550600160009054906101000a900473ffffffffffffffffffffffffffffffffffffffff1673ffffffffffffffffffffffffffffffffffffffff1663f242432a823386866040518563ffffffff1660e01b8152600401610e4e9493929190612611565b600060405180830381600087803b158015610e6857600080fd5b505af1158015610e7c573d6000803e3d6000fd5b50505050600160009054906101000a900473ffffffffffffffffffffffffffffffffffffffff1673ffffffffffffffffffffffffffffffffffffffff16638d63193d846040518263ffffffff1660e01b8152600401610edb9190611c5c565b60c060405180830381865afa158015610ef8573d6000803e3d6000fd5b505050506040513d601f19601f82011682018060405250810190610f1c9190612036565b60200151600360008581526020019081526020016000205403610fc757600160009054906101000a900473ffffffffffffffffffffffffffffffffffffffff1673ffffffffffffffffffffffffffffffffffffffff1663c31f4b58846040518263ffffffff1660e01b8152600401610f949190611c5c565b600060405180830381600087803b158015610fae57600080fd5b505af1158015610fc2573d6000803e3d6000fd5b505050505b505050565b8073ffffffffffffffffffffffffffffffffffffffff163373ffffffffffffffffffffffffffffffffffffffff161461103a576040517f08c379a0000000000000000000000000000000000000000000000000000000008152600401611031906126b5565b60405180910390fd5b42600460008373ffffffffffffffffffffffffffffffffffffffff1673ffffffffffffffffffffffffffffffffffffffff16815260200190815260200160002054106110bb576040517f08c379a00000000000000000000000000000000000000000000000000000000081526004016110b290612721565b60405180910390fd5b6706f05b59d3b200003414806110d85750670de0b6b3a764000034145b806110ea5750671bc16d674ec8000034145b6110f357600080fd5b6706f05b59d3b200003403611159576203f4804261111191906125a6565b600460008373ffffffffffffffffffffffffffffffffffffffff1673ffffffffffffffffffffffffffffffffffffffff16815260200190815260200160002081905550611223565b670de0b6b3a764000034036111bf57620bdd804261117791906125a6565b600460008373ffffffffffffffffffffffffffffffffffffffff1673ffffffffffffffffffffffffffffffffffffffff16815260200190815260200160002081905550611222565b671bc16d674ec800003403611221576217bb00426111dd91906125a6565b600460008373ffffffffffffffffffffffffffffffffffffffff1673ffffffffffffffffffffffffffffffffffffffff168152602001908152602001600020819055505b5b5b50565b61122e611acd565b73ffffffffffffffffffffffffffffffffffffffff1661124c6112ae565b73ffffffffffffffffffffffffffffffffffffffff16146112a2576040517f08c379a000000000000000000000000000000000000000000000000000000000815260040161129990611e83565b60405180910390fd5b6112ac6000611b17565b565b60008060009054906101000a900473ffffffffffffffffffffffffffffffffffffffff16905090565b8173ffffffffffffffffffffffffffffffffffffffff163373ffffffffffffffffffffffffffffffffffffffff1614611345576040517f08c379a000000000000000000000000000000000000000000000000000000000815260040161133c906120af565b60405180910390fd5b6000600160009054906101000a900473ffffffffffffffffffffffffffffffffffffffff1673ffffffffffffffffffffffffffffffffffffffff1662fdd58e33846040518363ffffffff1660e01b81526004016113a392919061235c565b602060405180830381865afa1580156113c0573d6000803e3d6000fd5b505050506040513d601f19601f820116820180604052508101906113e49190612385565b11611424576040517f08c379a000000000000000000000000000000000000000000000000000000000815260040161141b9061278d565b60405180910390fd5b42600160009054906101000a900473ffffffffffffffffffffffffffffffffffffffff1673ffffffffffffffffffffffffffffffffffffffff16638d63193d836040518263ffffffff1660e01b81526004016114809190611c5c565b60c060405180830381865afa15801561149d573d6000803e3d6000fd5b505050506040513d601f19601f820116820180604052508101906114c19190612036565b6080015110611505576040517f08c379a00000000000000000000000000000000000000000000000000000000081526004016114fc906127f9565b60405180910390fd5b6003600082815260200190815260200160002054600160009054906101000a900473ffffffffffffffffffffffffffffffffffffffff1673ffffffffffffffffffffffffffffffffffffffff16638d63193d836040518263ffffffff1660e01b81526004016115749190611c5c565b60c060405180830381865afa158015611591573d6000803e3d6000fd5b505050506040513d601f19601f820116820180604052508101906115b59190612036565b606001516115c391906120fe565b600160009054906101000a900473ffffffffffffffffffffffffffffffffffffffff1673ffffffffffffffffffffffffffffffffffffffff16638d63193d836040518263ffffffff1660e01b815260040161161e9190611c5c565b60c060405180830381865afa15801561163b573d6000803e3d6000fd5b505050506040513d601f19601f8201168201806040525081019061165f9190612036565b60400151116116a3576040517f08c379a000000000000000000000000000000000000000000000000000000000815260040161169a90612865565b60405180910390fd5b6000600160009054906101000a900473ffffffffffffffffffffffffffffffffffffffff1673ffffffffffffffffffffffffffffffffffffffff16638d63193d836040518263ffffffff1660e01b81526004016117009190611c5c565b60c060405180830381865afa15801561171d573d6000803e3d6000fd5b505050506040513d601f19601f820116820180604052508101906117419190612036565b60600151600160009054906101000a900473ffffffffffffffffffffffffffffffffffffffff1673ffffffffffffffffffffffffffffffffffffffff1662fdd58e33856040518363ffffffff1660e01b81526004016117a192919061235c565b602060405180830381865afa1580156117be573d6000803e3d6000fd5b505050506040513d601f19601f820116820180604052508101906117e29190612385565b6117ec91906120fe565b90503373ffffffffffffffffffffffffffffffffffffffff166108fc829081150290604051600060405180830381858888f19350505050158015611834573d6000803e3d6000fd5b50600160009054906101000a900473ffffffffffffffffffffffffffffffffffffffff1673ffffffffffffffffffffffffffffffffffffffff1663773790823384600160009054906101000a900473ffffffffffffffffffffffffffffffffffffffff1673ffffffffffffffffffffffffffffffffffffffff1662fdd58e33886040518363ffffffff1660e01b81526004016118d192919061235c565b602060405180830381865afa1580156118ee573d6000803e3d6000fd5b505050506040513d601f19601f820116820180604052508101906119129190612385565b6040518463ffffffff1660e01b815260040161193093929190612885565b600060405180830381600087803b15801561194a57600080fd5b505af115801561195e573d6000803e3d6000fd5b50505050505050565b600160009054906101000a900473ffffffffffffffffffffffffffffffffffffffff1681565b6000600460008373ffffffffffffffffffffffffffffffffffffffff1673ffffffffffffffffffffffffffffffffffffffff168152602001908152602001600020549050919050565b6119de611acd565b73ffffffffffffffffffffffffffffffffffffffff166119fc6112ae565b73ffffffffffffffffffffffffffffffffffffffff1614611a52576040517f08c379a0000000000000000000000000000000000000000000000000000000008152600401611a4990611e83565b60405180910390fd5b600073ffffffffffffffffffffffffffffffffffffffff168173ffffffffffffffffffffffffffffffffffffffff1603611ac1576040517f08c379a0000000000000000000000000000000000000000000000000000000008152600401611ab89061292e565b60405180910390fd5b611aca81611b17565b50565b600033905090565b60008183611ae391906120fe565b905092915050565b60008183611af9919061297d565b905092915050565b60008183611b0f919061241e565b905092915050565b60008060009054906101000a900473ffffffffffffffffffffffffffffffffffffffff169050816000806101000a81548173ffffffffffffffffffffffffffffffffffffffff021916908373ffffffffffffffffffffffffffffffffffffffff1602179055508173ffffffffffffffffffffffffffffffffffffffff168173ffffffffffffffffffffffffffffffffffffffff167f8be0079c531659141344cd1fd0a4f28419497f9722a3daafe3b4186f6b6457e060405160405180910390a35050565b6000604051905090565b600080fd5b6000819050919050565b611bfd81611bea565b8114611c0857600080fd5b50565b600081359050611c1a81611bf4565b92915050565b600060208284031215611c3657611c35611be5565b5b6000611c4484828501611c0b565b91505092915050565b611c5681611bea565b82525050565b6000602082019050611c716000830184611c4d565b92915050565b60008060408385031215611c8e57611c8d611be5565b5b6000611c9c85828601611c0b565b9250506020611cad85828601611c0b565b9150509250929050565b600073ffffffffffffffffffffffffffffffffffffffff82169050919050565b6000611ce282611cb7565b9050919050565b611cf281611cd7565b8114611cfd57600080fd5b50565b600081359050611d0f81611ce9565b92915050565b600060208284031215611d2b57611d2a611be5565b5b6000611d3984828501611d00565b91505092915050565b611d4b81611cd7565b82525050565b6000602082019050611d666000830184611d42565b92915050565b60008060408385031215611d8357611d82611be5565b5b6000611d9185828601611d00565b9250506020611da285828601611c0b565b9150509250929050565b6000819050919050565b6000611dd1611dcc611dc784611cb7565b611dac565b611cb7565b9050919050565b6000611de382611db6565b9050919050565b6000611df582611dd8565b9050919050565b611e0581611dea565b82525050565b6000602082019050611e206000830184611dfc565b92915050565b600082825260208201905092915050565b7f4f776e61626c653a2063616c6c6572206973206e6f7420746865206f776e6572600082015250565b6000611e6d602083611e26565b9150611e7882611e37565b602082019050919050565b60006020820190508181036000830152611e9c81611e60565b9050919050565b600080fd5b6000601f19601f8301169050919050565b7f4e487b7100000000000000000000000000000000000000000000000000000000600052604160045260246000fd5b611ef182611ea8565b810181811067ffffffffffffffff82111715611f1057611f0f611eb9565b5b80604052505050565b6000611f23611bdb565b9050611f2f8282611ee8565b919050565b600081519050611f4381611ce9565b92915050565b600081519050611f5881611bf4565b92915050565b60008115159050919050565b611f7381611f5e565b8114611f7e57600080fd5b50565b600081519050611f9081611f6a565b92915050565b600060c08284031215611fac57611fab611ea3565b5b611fb660c0611f19565b90506000611fc684828501611f34565b6000830152506020611fda84828501611f49565b6020830152506040611fee84828501611f49565b604083015250606061200284828501611f49565b606083015250608061201684828501611f49565b60808301525060a061202a84828501611f81565b60a08301525092915050565b600060c0828403121561204c5761204b611be5565b5b600061205a84828501611f96565b91505092915050565b7f4973207468617420796f75722077616c6c65743f000000000000000000000000600082015250565b6000612099601483611e26565b91506120a482612063565b602082019050919050565b600060208201905081810360008301526120c88161208c565b9050919050565b7f4e487b7100000000000000000000000000000000000000000000000000000000600052601160045260246000fd5b600061210982611bea565b915061211483611bea565b925082820261212281611bea565b91508282048414831517612139576121386120cf565b5b5092915050565b7f46756e64696e672073656363657373203f000000000000000000000000000000600082015250565b6000612176601183611e26565b915061218182612140565b602082019050919050565b600060208201905081810360008301526121a581612169565b9050919050565b7f54696d65204f7665720000000000000000000000000000000000000000000000600082015250565b60006121e2600983611e26565b91506121ed826121ac565b602082019050919050565b60006020820190508181036000830152612211816121d5565b9050919050565b7f637265617465722063616e277420627579000000000000000000000000000000600082015250565b600061224e601183611e26565b915061225982612218565b602082019050919050565b6000602082019050818103600083015261227d81612241565b9050919050565b7f68617665206e6f206d6f6e65792073656e740000000000000000000000000000600082015250565b60006122ba601283611e26565b91506122c582612284565b602082019050919050565b600060208201905081810360008301526122e9816122ad565b9050919050565b7f54686520707269636520646f65736e2774206d617463682e0000000000000000600082015250565b6000612326601883611e26565b9150612331826122f0565b602082019050919050565b6000602082019050818103600083015261235581612319565b9050919050565b60006040820190506123716000830185611d42565b61237e6020830184611c4d565b9392505050565b60006020828403121561239b5761239a611be5565b5b60006123a984828501611f49565b91505092915050565b7f63616e277420627579207468696e67732e000000000000000000000000000000600082015250565b60006123e8601183611e26565b91506123f3826123b2565b602082019050919050565b60006020820190508181036000830152612417816123db565b9050919050565b600061242982611bea565b915061243483611bea565b925082820390508181111561244c5761244b6120cf565b5b92915050565b7f6265206f7574206f662073746f636b20616e6420756e61626c6520746f20627560008201527f7920676f6f647300000000000000000000000000000000000000000000000000602082015250565b60006124ae602783611e26565b91506124b982612452565b604082019050919050565b600060208201905081810360008301526124dd816124a1565b9050919050565b60006040820190506124f96000830185611d42565b6125066020830184611d42565b9392505050565b60006020828403121561252357612522611be5565b5b600061253184828501611f81565b91505092915050565b7f6265206e6f7420617070726f7665640000000000000000000000000000000000600082015250565b6000612570600f83611e26565b915061257b8261253a565b602082019050919050565b6000602082019050818103600083015261259f81612563565b9050919050565b60006125b182611bea565b91506125bc83611bea565b92508282019050808211156125d4576125d36120cf565b5b92915050565b600082825260208201905092915050565b50565b60006125fb6000836125da565b9150612606826125eb565b600082019050919050565b600060a0820190506126266000830187611d42565b6126336020830186611d42565b6126406040830185611c4d565b61264d6060830184611c4d565b818103608083015261265e816125ee565b905095945050505050565b7f497320697420796f75722077616c6c65743f0000000000000000000000000000600082015250565b600061269f601283611e26565b91506126aa82612669565b602082019050919050565b600060208201905081810360008301526126ce81612692565b9050919050565b7f546865726520697320616c7265616479206120737562736372697074696f6e2e600082015250565b600061270b602083611e26565b9150612716826126d5565b602082019050919050565b6000602082019050818103600083015261273a816126fe565b9050919050565b7f49732069742061206275796572203f0000000000000000000000000000000000600082015250565b6000612777600f83611e26565b915061278282612741565b602082019050919050565b600060208201905081810360008301526127a68161276a565b9050919050565b7f54696d65204f766572203f000000000000000000000000000000000000000000600082015250565b60006127e3600b83611e26565b91506127ee826127ad565b602082019050919050565b60006020820190508181036000830152612812816127d6565b9050919050565b7f46756e64696e67206661696c6564203f00000000000000000000000000000000600082015250565b600061284f601083611e26565b915061285a82612819565b602082019050919050565b6000602082019050818103600083015261287e81612842565b9050919050565b600060608201905061289a6000830186611d42565b6128a76020830185611c4d565b6128b46040830184611c4d565b949350505050565b7f4f776e61626c653a206e6577206f776e657220697320746865207a65726f206160008201527f6464726573730000000000000000000000000000000000000000000000000000602082015250565b6000612918602683611e26565b9150612923826128bc565b604082019050919050565b600060208201905081810360008301526129478161290b565b9050919050565b7f4e487b7100000000000000000000000000000000000000000000000000000000600052601260045260246000fd5b600061298882611bea565b915061299383611bea565b9250826129a3576129a261294e565b5b82820490509291505056fea264697066735822122041163e573c01c37740b8b5d6683761c42eb43a85c6bdf8859df0c7c65f52f3d764736f6c63430008110033",
  "immutableReferences": {},
  "source": "// SPDX-License-Identifier: MIT\r\npragma solidity ^0.8.17;\r\n\r\nimport \"../node_modules/openzeppelin-solidity/contracts/access/Ownable.sol\";\r\nimport \"../node_modules/openzeppelin-solidity/contracts/utils/math/SafeMath.sol\";\r\n// import \"@openzeppelin/contracts/access/Ownable.sol\";\r\n// import \"@openzeppelin/contracts/utils/math/SafeMath.sol\";\r\n\r\nimport \"./DtsToken.sol\";\r\n\r\ncontract FunddingToken is Ownable{\r\n\r\n    using SafeMath for uint256;\r\n\r\n    // DtsToken.sol    \r\n    DtsToken public Dtoken; \r\n\r\n    //     \r\n    uint256 private _Fee = 10;\r\n    //           .\r\n    uint256 private constant _decimalPoint = 100;\r\n\r\n    //        \r\n    mapping(uint256 => uint256) private _totalAmout;\r\n\r\n    //   \r\n    mapping (address => uint256) private _timeOwner;\r\n\r\n\r\n    constructor(address DtsTokenCA){\r\n        //   DtsToken CA  Dtoken  .\r\n        Dtoken = DtsToken(DtsTokenCA); \r\n    }\r\n\r\n    //   \r\n    function subscriptionBuy(address account) public payable{\r\n        //    \r\n        require(msg.sender == account, \"Is it your wallet?\");\r\n        //         (   0    .)\r\n        require(_timeOwner[account] < block.timestamp, \"There is already a subscription.\");\r\n        //   . 1 3 6   \r\n        require(msg.value == 0.5 ether || msg.value == 1 ether || msg.value == 2 ether);\r\n        if(msg.value == 0.5 ether){\r\n            _timeOwner[account] = block.timestamp + (8640 * 30);\r\n        } else if(msg.value == 1 ether){\r\n            _timeOwner[account] = block.timestamp + (8640 * 90);\r\n        } else if(msg.value == 2 ether){\r\n            _timeOwner[account] = block.timestamp + (8640 * 180);\r\n        }\r\n    }\r\n\r\n    //      \r\n    function streamingView(address account) public view returns(uint256) {\r\n        return _timeOwner[account];\r\n    }\r\n\r\n    //            .\r\n    // DtsToken.sol SaleCA       .\r\n    function changedCA() onlyOwner external{\r\n        Dtoken.isChangedCA(address(this));\r\n    }\r\n\r\n    //   \r\n    function userFundding(uint256 tokenId, uint256 amount) public payable{\r\n        //    .\r\n        address owner = Dtoken.getTokenOwnerData(tokenId).Creater;\r\n        //    .\r\n        require(Dtoken.getTokenOwnerData(tokenId).EndTime > block.timestamp, \"Time Over\");\r\n        //    nft  .\r\n        require(msg.sender != owner,\"creater can't buy\");\r\n        //   0 .\r\n        require(msg.value != 0, \"have no money sent\");\r\n        //       NFT   .\r\n        require(msg.value == (Dtoken.getTokenOwnerData(tokenId).UnitPrice * amount),\"The price doesn't match.\");\r\n        //    nft  . (    .)1\r\n        require(Dtoken.balanceOf(owner, tokenId) >=  amount, \"can't buy things.\");\r\n        //          .(    .)2\r\n        require(Dtoken.getTokenOwnerData(tokenId).NftAmount - _totalAmout[tokenId] >= amount,\"be out of stock and unable to buy goods\");\r\n        //     saleCA   .\r\n        require(Dtoken.isApprovedForAll(msg.sender,address(this)), \"be not approved\");\r\n        //      .\r\n        _totalAmout[tokenId] = _totalAmout[tokenId] + amount;\r\n        Dtoken.safeTransferFrom(owner, msg.sender, tokenId, amount, \"\");\r\n        //     Dtoken._tokenOwners[tokenId].isSuccess false true .\r\n        if(_totalAmout[tokenId] == Dtoken.getTokenOwnerData(tokenId).NftAmount){\r\n            Dtoken.isFunddingSuccess(tokenId);\r\n        }\r\n    }\r\n\r\n    //   \r\n    function isSuccessFundding(uint256 tokenId) public payable {\r\n        //      \r\n        require(msg.sender == Dtoken.getTokenOwnerData(tokenId).Creater, \"Is that your wallet?\");\r\n        //    \r\n        require(Dtoken.getTokenOwnerData(tokenId).TotalPrice == (Dtoken.getTokenOwnerData(tokenId).UnitPrice * _totalAmout[tokenId]), \"Funding seccess ?\");\r\n        //   \r\n        uint256 Payment = SafeMath.div(Dtoken.getTokenOwnerData(tokenId).TotalPrice.mul(_Fee),_decimalPoint);\r\n        //       \r\n        uint256 reFund = SafeMath.div(Dtoken.getTokenOwnerData(tokenId).TotalPrice.sub(Payment),2);\r\n        // CA   \r\n        payable(msg.sender).transfer(reFund);\r\n    }\r\n\r\n    //   \r\n    function isFuckingFundding(address account, uint256 tokenId) public payable {\r\n        //    \r\n        require(msg.sender == account, \"Is that your wallet?\");\r\n        //    nft   \r\n        require(Dtoken.balanceOf(msg.sender, tokenId) > 0, \"Is it a buyer ?\");\r\n        //    \r\n        require(Dtoken.getTokenOwnerData(tokenId).EndTime < block.timestamp, \"Time Over ?\");\r\n        //    \r\n        require(Dtoken.getTokenOwnerData(tokenId).TotalPrice > (Dtoken.getTokenOwnerData(tokenId).UnitPrice * _totalAmout[tokenId]), \"Funding failed ?\");\r\n        //    \r\n        uint256 reFund = Dtoken.balanceOf(msg.sender, tokenId) * Dtoken.getTokenOwnerData(tokenId).UnitPrice;\r\n        // CA   \r\n        payable(msg.sender).transfer(reFund);\r\n        //    nft \r\n        Dtoken.faildBurn(msg.sender, tokenId, Dtoken.balanceOf(msg.sender, tokenId));\r\n    }\r\n\r\n    //    \r\n    function priceCheck(uint256 tokenId) public view returns(uint256){\r\n        return _totalAmout[tokenId];\r\n    }\r\n\r\n    //       CA .\r\n    //     await deployed.methods.buyFruit(appleBuy, bananaBuy, melonBuy).send({\r\n    //     from : account,\r\n    //     to : CA,\r\n    //     value : web3.utils.toWei(c, \"ether\")\r\n    // })\r\n}",
  "sourcePath": "C:\\Users\\jdunm\\OneDrive\\ \\dive2space\\erc1155\\contracts\\FunddingToken.sol",
  "compiler": {
    "name": "solc",
    "version": "0.8.17+commit.8df45f5f.Emscripten.clang"
  },
  "schemaVersion": "3.4.11",
  "updatedAt": "2023-02-03T05:24:27.582Z",
  "networkType": "ethereum",
  "devdoc": {
    "kind": "dev",
    "methods": {
      "owner()": {
        "details": "Returns the address of the current owner."
      },
      "renounceOwnership()": {
        "details": "Leaves the contract without owner. It will not be possible to call `onlyOwner` functions anymore. Can only be called by the current owner. NOTE: Renouncing ownership will leave the contract without an owner, thereby removing any functionality that is only available to the owner."
      },
      "transferOwnership(address)": {
        "details": "Transfers ownership of the contract to a new account (`newOwner`). Can only be called by the current owner."
      }
    },
    "version": 1
  },
  "userdoc": {
    "kind": "user",
    "methods": {},
    "version": 1
  }
}