{
  "contractName": "FunddingToken",
  "abi": [
    {
      "inputs": [
        {
          "internalType": "address",
          "name": "DtsTokenCA",
          "type": "address"
        }
      ],
      "stateMutability": "nonpayable",
      "type": "constructor"
    },
    {
      "anonymous": false,
      "inputs": [
        {
          "indexed": true,
          "internalType": "address",
          "name": "previousOwner",
          "type": "address"
        },
        {
          "indexed": true,
          "internalType": "address",
          "name": "newOwner",
          "type": "address"
        }
      ],
      "name": "OwnershipTransferred",
      "type": "event"
    },
    {
      "anonymous": false,
      "inputs": [
        {
          "indexed": false,
          "internalType": "address",
          "name": "account",
          "type": "address"
        },
        {
          "indexed": false,
          "internalType": "uint256",
          "name": "tokenId",
          "type": "uint256"
        },
        {
          "indexed": false,
          "internalType": "uint256",
          "name": "price",
          "type": "uint256"
        }
      ],
      "name": "isSuccessFunddingEvent",
      "type": "event"
    },
    {
      "anonymous": false,
      "inputs": [
        {
          "indexed": false,
          "internalType": "address",
          "name": "account",
          "type": "address"
        },
        {
          "indexed": false,
          "internalType": "uint256",
          "name": "tokenId",
          "type": "uint256"
        },
        {
          "indexed": false,
          "internalType": "uint256",
          "name": "price",
          "type": "uint256"
        }
      ],
      "name": "isfalsedFunddingEvnet",
      "type": "event"
    },
    {
      "anonymous": false,
      "inputs": [
        {
          "indexed": false,
          "internalType": "address",
          "name": "account",
          "type": "address"
        },
        {
          "indexed": false,
          "internalType": "uint256",
          "name": "price",
          "type": "uint256"
        }
      ],
      "name": "subscriptionBuyEvent",
      "type": "event"
    },
    {
      "anonymous": false,
      "inputs": [
        {
          "indexed": false,
          "internalType": "address",
          "name": "account",
          "type": "address"
        },
        {
          "indexed": false,
          "internalType": "uint256",
          "name": "tokenId",
          "type": "uint256"
        },
        {
          "indexed": false,
          "internalType": "uint256",
          "name": "amount",
          "type": "uint256"
        }
      ],
      "name": "userFunddingEvent",
      "type": "event"
    },
    {
      "inputs": [],
      "name": "Dtoken",
      "outputs": [
        {
          "internalType": "contract DtsToken",
          "name": "",
          "type": "address"
        }
      ],
      "stateMutability": "view",
      "type": "function",
      "constant": true
    },
    {
      "inputs": [],
      "name": "owner",
      "outputs": [
        {
          "internalType": "address",
          "name": "",
          "type": "address"
        }
      ],
      "stateMutability": "view",
      "type": "function",
      "constant": true
    },
    {
      "inputs": [],
      "name": "renounceOwnership",
      "outputs": [],
      "stateMutability": "nonpayable",
      "type": "function"
    },
    {
      "inputs": [
        {
          "internalType": "address",
          "name": "newOwner",
          "type": "address"
        }
      ],
      "name": "transferOwnership",
      "outputs": [],
      "stateMutability": "nonpayable",
      "type": "function"
    },
    {
      "inputs": [],
      "name": "subscriptionBuy",
      "outputs": [],
      "stateMutability": "payable",
      "type": "function",
      "payable": true
    },
    {
      "inputs": [],
      "name": "streamingView",
      "outputs": [
        {
          "internalType": "uint256",
          "name": "",
          "type": "uint256"
        }
      ],
      "stateMutability": "view",
      "type": "function",
      "constant": true
    },
    {
      "inputs": [],
      "name": "changedCA",
      "outputs": [],
      "stateMutability": "nonpayable",
      "type": "function"
    },
    {
      "inputs": [
        {
          "internalType": "uint256",
          "name": "tokenId",
          "type": "uint256"
        },
        {
          "internalType": "uint256",
          "name": "amount",
          "type": "uint256"
        }
      ],
      "name": "userFundding",
      "outputs": [],
      "stateMutability": "payable",
      "type": "function",
      "payable": true
    },
    {
      "inputs": [
        {
          "internalType": "uint256",
          "name": "tokenId",
          "type": "uint256"
        }
      ],
      "name": "isSuccessFundding",
      "outputs": [],
      "stateMutability": "payable",
      "type": "function",
      "payable": true
    },
    {
      "inputs": [
        {
          "internalType": "address",
          "name": "account",
          "type": "address"
        },
        {
          "internalType": "uint256",
          "name": "tokenId",
          "type": "uint256"
        }
      ],
      "name": "isfalsedFundding",
      "outputs": [],
      "stateMutability": "payable",
      "type": "function",
      "payable": true
    },
    {
      "inputs": [
        {
          "internalType": "uint256",
          "name": "tokenId",
          "type": "uint256"
        }
      ],
      "name": "priceCheck",
      "outputs": [
        {
          "internalType": "uint256",
          "name": "",
          "type": "uint256"
        }
      ],
      "stateMutability": "view",
      "type": "function",
      "constant": true
    }
  ],
  "bytecode": "0x6080604052600a6002553480156200001657600080fd5b5060405162002be938038062002be983398181016040528101906200003c9190620001da565b6200005c62000050620000a460201b60201c565b620000ac60201b60201c565b80600160006101000a81548173ffffffffffffffffffffffffffffffffffffffff021916908373ffffffffffffffffffffffffffffffffffffffff160217905550506200020c565b600033905090565b60008060009054906101000a900473ffffffffffffffffffffffffffffffffffffffff169050816000806101000a81548173ffffffffffffffffffffffffffffffffffffffff021916908373ffffffffffffffffffffffffffffffffffffffff1602179055508173ffffffffffffffffffffffffffffffffffffffff168173ffffffffffffffffffffffffffffffffffffffff167f8be0079c531659141344cd1fd0a4f28419497f9722a3daafe3b4186f6b6457e060405160405180910390a35050565b600080fd5b600073ffffffffffffffffffffffffffffffffffffffff82169050919050565b6000620001a28262000175565b9050919050565b620001b48162000195565b8114620001c057600080fd5b50565b600081519050620001d481620001a9565b92915050565b600060208284031215620001f357620001f262000170565b5b60006200020384828501620001c3565b91505092915050565b6129cd806200021c6000396000f3fe60806040526004361061009c5760003560e01c8063715018a611610064578063715018a6146101375780638da5cb5b1461014e5780638e13b06314610179578063cc8a416b14610195578063eaf85b5c146101c0578063f2fde38b146101eb5761009c565b80631a554d01146100a157806329c51d2b146100b857806349e5465c146100d457806350b9c7371461011157806364bbd1f11461012d575b600080fd5b3480156100ad57600080fd5b506100b6610214565b005b6100d260048036038101906100cd9190611c75565b61031f565b005b3480156100e057600080fd5b506100fb60048036038101906100f69190611c75565b6107d3565b6040516101089190611cb1565b60405180910390f35b61012b60048036038101906101269190611ccc565b6107f0565b005b61013561101e565b005b34801561014357600080fd5b5061014c611242565b005b34801561015a57600080fd5b506101636112ca565b6040516101709190611d4d565b60405180910390f35b610193600480360381019061018e9190611d94565b6112f3565b005b3480156101a157600080fd5b506101aa6119be565b6040516101b79190611e33565b60405180910390f35b3480156101cc57600080fd5b506101d56119e4565b6040516101e29190611cb1565b60405180910390f35b3480156101f757600080fd5b50610212600480360381019061020d9190611e4e565b611a2b565b005b61021c611b22565b73ffffffffffffffffffffffffffffffffffffffff1661023a6112ca565b73ffffffffffffffffffffffffffffffffffffffff1614610290576040517f08c379a000000000000000000000000000000000000000000000000000000000815260040161028790611ed8565b60405180910390fd5b600160009054906101000a900473ffffffffffffffffffffffffffffffffffffffff1673ffffffffffffffffffffffffffffffffffffffff1663ad216fb6306040518263ffffffff1660e01b81526004016102eb9190611d4d565b600060405180830381600087803b15801561030557600080fd5b505af1158015610319573d6000803e3d6000fd5b50505050565b600160009054906101000a900473ffffffffffffffffffffffffffffffffffffffff1673ffffffffffffffffffffffffffffffffffffffff16638d63193d826040518263ffffffff1660e01b815260040161037a9190611cb1565b60c060405180830381865afa158015610397573d6000803e3d6000fd5b505050506040513d601f19601f820116820180604052508101906103bb919061208b565b6000015173ffffffffffffffffffffffffffffffffffffffff163373ffffffffffffffffffffffffffffffffffffffff161461042c576040517f08c379a000000000000000000000000000000000000000000000000000000000815260040161042390612104565b60405180910390fd5b6003600082815260200190815260200160002054600160009054906101000a900473ffffffffffffffffffffffffffffffffffffffff1673ffffffffffffffffffffffffffffffffffffffff16638d63193d836040518263ffffffff1660e01b815260040161049b9190611cb1565b60c060405180830381865afa1580156104b8573d6000803e3d6000fd5b505050506040513d601f19601f820116820180604052508101906104dc919061208b565b606001516104ea9190612153565b600160009054906101000a900473ffffffffffffffffffffffffffffffffffffffff1673ffffffffffffffffffffffffffffffffffffffff16638d63193d836040518263ffffffff1660e01b81526004016105459190611cb1565b60c060405180830381865afa158015610562573d6000803e3d6000fd5b505050506040513d601f19601f82011682018060405250810190610586919061208b565b60400151146105ca576040517f08c379a00000000000000000000000000000000000000000000000000000000081526004016105c1906121e1565b60405180910390fd5b600061068a610683600254600160009054906101000a900473ffffffffffffffffffffffffffffffffffffffff1673ffffffffffffffffffffffffffffffffffffffff16638d63193d866040518263ffffffff1660e01b81526004016106309190611cb1565b60c060405180830381865afa15801561064d573d6000803e3d6000fd5b505050506040513d601f19601f82011682018060405250810190610671919061208b565b60400151611b2a90919063ffffffff16565b6064611b40565b9050600061074a61074383600160009054906101000a900473ffffffffffffffffffffffffffffffffffffffff1673ffffffffffffffffffffffffffffffffffffffff16638d63193d876040518263ffffffff1660e01b81526004016106f09190611cb1565b60c060405180830381865afa15801561070d573d6000803e3d6000fd5b505050506040513d601f19601f82011682018060405250810190610731919061208b565b60400151611b5690919063ffffffff16565b6002611b40565b90503373ffffffffffffffffffffffffffffffffffffffff166108fc829081150290604051600060405180830381858888f19350505050158015610792573d6000803e3d6000fd5b507f7fffb0a8155fcfdc6d8e1d3be816bb80ed703df69e0c247d54d9fa85eb9c52e23384836040516107c693929190612201565b60405180910390a1505050565b600060036000838152602001908152602001600020549050919050565b6000600160009054906101000a900473ffffffffffffffffffffffffffffffffffffffff1673ffffffffffffffffffffffffffffffffffffffff16638d63193d846040518263ffffffff1660e01b815260040161084d9190611cb1565b60c060405180830381865afa15801561086a573d6000803e3d6000fd5b505050506040513d601f19601f8201168201806040525081019061088e919061208b565b60000151905042600160009054906101000a900473ffffffffffffffffffffffffffffffffffffffff1673ffffffffffffffffffffffffffffffffffffffff16638d63193d856040518263ffffffff1660e01b81526004016108f09190611cb1565b60c060405180830381865afa15801561090d573d6000803e3d6000fd5b505050506040513d601f19601f82011682018060405250810190610931919061208b565b6080015111610975576040517f08c379a000000000000000000000000000000000000000000000000000000000815260040161096c90612284565b60405180910390fd5b8073ffffffffffffffffffffffffffffffffffffffff163373ffffffffffffffffffffffffffffffffffffffff16036109e3576040517f08c379a00000000000000000000000000000000000000000000000000000000081526004016109da906122f0565b60405180910390fd5b60003403610a26576040517f08c379a0000000000000000000000000000000000000000000000000000000008152600401610a1d9061235c565b60405180910390fd5b81600160009054906101000a900473ffffffffffffffffffffffffffffffffffffffff1673ffffffffffffffffffffffffffffffffffffffff16638d63193d856040518263ffffffff1660e01b8152600401610a829190611cb1565b60c060405180830381865afa158015610a9f573d6000803e3d6000fd5b505050506040513d601f19601f82011682018060405250810190610ac3919061208b565b60600151610ad19190612153565b3414610b12576040517f08c379a0000000000000000000000000000000000000000000000000000000008152600401610b09906123c8565b60405180910390fd5b81600160009054906101000a900473ffffffffffffffffffffffffffffffffffffffff1673ffffffffffffffffffffffffffffffffffffffff1662fdd58e83866040518363ffffffff1660e01b8152600401610b6f9291906123e8565b602060405180830381865afa158015610b8c573d6000803e3d6000fd5b505050506040513d601f19601f82011682018060405250810190610bb09190612411565b1015610bf1576040517f08c379a0000000000000000000000000000000000000000000000000000000008152600401610be89061248a565b60405180910390fd5b816003600085815260200190815260200160002054600160009054906101000a900473ffffffffffffffffffffffffffffffffffffffff1673ffffffffffffffffffffffffffffffffffffffff16638d63193d866040518263ffffffff1660e01b8152600401610c619190611cb1565b60c060405180830381865afa158015610c7e573d6000803e3d6000fd5b505050506040513d601f19601f82011682018060405250810190610ca2919061208b565b60200151610cb091906124aa565b1015610cf1576040517f08c379a0000000000000000000000000000000000000000000000000000000008152600401610ce890612550565b60405180910390fd5b600160009054906101000a900473ffffffffffffffffffffffffffffffffffffffff1673ffffffffffffffffffffffffffffffffffffffff1663e985e9c533306040518363ffffffff1660e01b8152600401610d4e929190612570565b602060405180830381865afa158015610d6b573d6000803e3d6000fd5b505050506040513d601f19601f82011682018060405250810190610d8f9190612599565b610dce576040517f08c379a0000000000000000000000000000000000000000000000000000000008152600401610dc590612612565b60405180910390fd5b816003600085815260200190815260200160002054610ded9190612632565b6003600085815260200190815260200160002081905550600160009054906101000a900473ffffffffffffffffffffffffffffffffffffffff1673ffffffffffffffffffffffffffffffffffffffff1663f242432a823386866040518563ffffffff1660e01b8152600401610e65949392919061269d565b600060405180830381600087803b158015610e7f57600080fd5b505af1158015610e93573d6000803e3d6000fd5b505050507f4b076dd98cee6b12a88c4126d0ce0ffbca4c2856db39382ecbf1a11141dc5a33338484604051610eca93929190612201565b60405180910390a1600160009054906101000a900473ffffffffffffffffffffffffffffffffffffffff1673ffffffffffffffffffffffffffffffffffffffff16638d63193d846040518263ffffffff1660e01b8152600401610f2d9190611cb1565b60c060405180830381865afa158015610f4a573d6000803e3d6000fd5b505050506040513d601f19601f82011682018060405250810190610f6e919061208b565b6020015160036000858152602001908152602001600020540361101957600160009054906101000a900473ffffffffffffffffffffffffffffffffffffffff1673ffffffffffffffffffffffffffffffffffffffff1663c31f4b58846040518263ffffffff1660e01b8152600401610fe69190611cb1565b600060405180830381600087803b15801561100057600080fd5b505af1158015611014573d6000803e3d6000fd5b505050505b505050565b42600460003373ffffffffffffffffffffffffffffffffffffffff1673ffffffffffffffffffffffffffffffffffffffff168152602001908152602001600020541061109f576040517f08c379a000000000000000000000000000000000000000000000000000000000815260040161109690612741565b60405180910390fd5b6706f05b59d3b200003414806110bc5750670de0b6b3a764000034145b806110ce5750671bc16d674ec8000034145b6110d757600080fd5b6706f05b59d3b20000340361113d576203f480426110f59190612632565b600460003373ffffffffffffffffffffffffffffffffffffffff1673ffffffffffffffffffffffffffffffffffffffff16815260200190815260200160002081905550611207565b670de0b6b3a764000034036111a357620bdd804261115b9190612632565b600460003373ffffffffffffffffffffffffffffffffffffffff1673ffffffffffffffffffffffffffffffffffffffff16815260200190815260200160002081905550611206565b671bc16d674ec800003403611205576217bb00426111c19190612632565b600460003373ffffffffffffffffffffffffffffffffffffffff1673ffffffffffffffffffffffffffffffffffffffff168152602001908152602001600020819055505b5b5b7f1dda25a2ed0441a546199a85560617835bb47cae2094881f568e27468604e0e133346040516112389291906123e8565b60405180910390a1565b61124a611b22565b73ffffffffffffffffffffffffffffffffffffffff166112686112ca565b73ffffffffffffffffffffffffffffffffffffffff16146112be576040517f08c379a00000000000000000000000000000000000000000000000000000000081526004016112b590611ed8565b60405180910390fd5b6112c86000611b6c565b565b60008060009054906101000a900473ffffffffffffffffffffffffffffffffffffffff16905090565b8173ffffffffffffffffffffffffffffffffffffffff163373ffffffffffffffffffffffffffffffffffffffff1614611361576040517f08c379a000000000000000000000000000000000000000000000000000000000815260040161135890612104565b60405180910390fd5b6000600160009054906101000a900473ffffffffffffffffffffffffffffffffffffffff1673ffffffffffffffffffffffffffffffffffffffff1662fdd58e33846040518363ffffffff1660e01b81526004016113bf9291906123e8565b602060405180830381865afa1580156113dc573d6000803e3d6000fd5b505050506040513d601f19601f820116820180604052508101906114009190612411565b11611440576040517f08c379a0000000000000000000000000000000000000000000000000000000008152600401611437906127ad565b60405180910390fd5b42600160009054906101000a900473ffffffffffffffffffffffffffffffffffffffff1673ffffffffffffffffffffffffffffffffffffffff16638d63193d836040518263ffffffff1660e01b815260040161149c9190611cb1565b60c060405180830381865afa1580156114b9573d6000803e3d6000fd5b505050506040513d601f19601f820116820180604052508101906114dd919061208b565b6080015110611521576040517f08c379a000000000000000000000000000000000000000000000000000000000815260040161151890612819565b60405180910390fd5b6003600082815260200190815260200160002054600160009054906101000a900473ffffffffffffffffffffffffffffffffffffffff1673ffffffffffffffffffffffffffffffffffffffff16638d63193d836040518263ffffffff1660e01b81526004016115909190611cb1565b60c060405180830381865afa1580156115ad573d6000803e3d6000fd5b505050506040513d601f19601f820116820180604052508101906115d1919061208b565b606001516115df9190612153565b600160009054906101000a900473ffffffffffffffffffffffffffffffffffffffff1673ffffffffffffffffffffffffffffffffffffffff16638d63193d836040518263ffffffff1660e01b815260040161163a9190611cb1565b60c060405180830381865afa158015611657573d6000803e3d6000fd5b505050506040513d601f19601f8201168201806040525081019061167b919061208b565b60400151116116bf576040517f08c379a00000000000000000000000000000000000000000000000000000000081526004016116b690612885565b60405180910390fd5b6000600160009054906101000a900473ffffffffffffffffffffffffffffffffffffffff1673ffffffffffffffffffffffffffffffffffffffff16638d63193d836040518263ffffffff1660e01b815260040161171c9190611cb1565b60c060405180830381865afa158015611739573d6000803e3d6000fd5b505050506040513d601f19601f8201168201806040525081019061175d919061208b565b60600151600160009054906101000a900473ffffffffffffffffffffffffffffffffffffffff1673ffffffffffffffffffffffffffffffffffffffff1662fdd58e33856040518363ffffffff1660e01b81526004016117bd9291906123e8565b602060405180830381865afa1580156117da573d6000803e3d6000fd5b505050506040513d601f19601f820116820180604052508101906117fe9190612411565b6118089190612153565b90503373ffffffffffffffffffffffffffffffffffffffff166108fc829081150290604051600060405180830381858888f19350505050158015611850573d6000803e3d6000fd5b50600160009054906101000a900473ffffffffffffffffffffffffffffffffffffffff1673ffffffffffffffffffffffffffffffffffffffff1663773790823384600160009054906101000a900473ffffffffffffffffffffffffffffffffffffffff1673ffffffffffffffffffffffffffffffffffffffff1662fdd58e33886040518363ffffffff1660e01b81526004016118ed9291906123e8565b602060405180830381865afa15801561190a573d6000803e3d6000fd5b505050506040513d601f19601f8201168201806040525081019061192e9190612411565b6040518463ffffffff1660e01b815260040161194c93929190612201565b600060405180830381600087803b15801561196657600080fd5b505af115801561197a573d6000803e3d6000fd5b505050507f951805d264d8848d533c4ccc957476a4271d9adb9c446cc7fb3d5f9808fab1c83383836040516119b193929190612201565b60405180910390a1505050565b600160009054906101000a900473ffffffffffffffffffffffffffffffffffffffff1681565b6000600460003373ffffffffffffffffffffffffffffffffffffffff1673ffffffffffffffffffffffffffffffffffffffff16815260200190815260200160002054905090565b611a33611b22565b73ffffffffffffffffffffffffffffffffffffffff16611a516112ca565b73ffffffffffffffffffffffffffffffffffffffff1614611aa7576040517f08c379a0000000000000000000000000000000000000000000000000000000008152600401611a9e90611ed8565b60405180910390fd5b600073ffffffffffffffffffffffffffffffffffffffff168173ffffffffffffffffffffffffffffffffffffffff1603611b16576040517f08c379a0000000000000000000000000000000000000000000000000000000008152600401611b0d90612917565b60405180910390fd5b611b1f81611b6c565b50565b600033905090565b60008183611b389190612153565b905092915050565b60008183611b4e9190612966565b905092915050565b60008183611b6491906124aa565b905092915050565b60008060009054906101000a900473ffffffffffffffffffffffffffffffffffffffff169050816000806101000a81548173ffffffffffffffffffffffffffffffffffffffff021916908373ffffffffffffffffffffffffffffffffffffffff1602179055508173ffffffffffffffffffffffffffffffffffffffff168173ffffffffffffffffffffffffffffffffffffffff167f8be0079c531659141344cd1fd0a4f28419497f9722a3daafe3b4186f6b6457e060405160405180910390a35050565b6000604051905090565b600080fd5b6000819050919050565b611c5281611c3f565b8114611c5d57600080fd5b50565b600081359050611c6f81611c49565b92915050565b600060208284031215611c8b57611c8a611c3a565b5b6000611c9984828501611c60565b91505092915050565b611cab81611c3f565b82525050565b6000602082019050611cc66000830184611ca2565b92915050565b60008060408385031215611ce357611ce2611c3a565b5b6000611cf185828601611c60565b9250506020611d0285828601611c60565b9150509250929050565b600073ffffffffffffffffffffffffffffffffffffffff82169050919050565b6000611d3782611d0c565b9050919050565b611d4781611d2c565b82525050565b6000602082019050611d626000830184611d3e565b92915050565b611d7181611d2c565b8114611d7c57600080fd5b50565b600081359050611d8e81611d68565b92915050565b60008060408385031215611dab57611daa611c3a565b5b6000611db985828601611d7f565b9250506020611dca85828601611c60565b9150509250929050565b6000819050919050565b6000611df9611df4611def84611d0c565b611dd4565b611d0c565b9050919050565b6000611e0b82611dde565b9050919050565b6000611e1d82611e00565b9050919050565b611e2d81611e12565b82525050565b6000602082019050611e486000830184611e24565b92915050565b600060208284031215611e6457611e63611c3a565b5b6000611e7284828501611d7f565b91505092915050565b600082825260208201905092915050565b7f4f776e61626c653a2063616c6c6572206973206e6f7420746865206f776e6572600082015250565b6000611ec2602083611e7b565b9150611ecd82611e8c565b602082019050919050565b60006020820190508181036000830152611ef181611eb5565b9050919050565b600080fd5b6000601f19601f8301169050919050565b7f4e487b7100000000000000000000000000000000000000000000000000000000600052604160045260246000fd5b611f4682611efd565b810181811067ffffffffffffffff82111715611f6557611f64611f0e565b5b80604052505050565b6000611f78611c30565b9050611f848282611f3d565b919050565b600081519050611f9881611d68565b92915050565b600081519050611fad81611c49565b92915050565b60008115159050919050565b611fc881611fb3565b8114611fd357600080fd5b50565b600081519050611fe581611fbf565b92915050565b600060c0828403121561200157612000611ef8565b5b61200b60c0611f6e565b9050600061201b84828501611f89565b600083015250602061202f84828501611f9e565b602083015250604061204384828501611f9e565b604083015250606061205784828501611f9e565b606083015250608061206b84828501611f9e565b60808301525060a061207f84828501611fd6565b60a08301525092915050565b600060c082840312156120a1576120a0611c3a565b5b60006120af84828501611feb565b91505092915050565b7f4973207468617420796f75722077616c6c65743f000000000000000000000000600082015250565b60006120ee601483611e7b565b91506120f9826120b8565b602082019050919050565b6000602082019050818103600083015261211d816120e1565b9050919050565b7f4e487b7100000000000000000000000000000000000000000000000000000000600052601160045260246000fd5b600061215e82611c3f565b915061216983611c3f565b925082820261217781611c3f565b9150828204841483151761218e5761218d612124565b5b5092915050565b7f46756e64696e672073656363657373203f000000000000000000000000000000600082015250565b60006121cb601183611e7b565b91506121d682612195565b602082019050919050565b600060208201905081810360008301526121fa816121be565b9050919050565b60006060820190506122166000830186611d3e565b6122236020830185611ca2565b6122306040830184611ca2565b949350505050565b7f54696d65204f7665720000000000000000000000000000000000000000000000600082015250565b600061226e600983611e7b565b915061227982612238565b602082019050919050565b6000602082019050818103600083015261229d81612261565b9050919050565b7f637265617465722063616e277420627579000000000000000000000000000000600082015250565b60006122da601183611e7b565b91506122e5826122a4565b602082019050919050565b60006020820190508181036000830152612309816122cd565b9050919050565b7f68617665206e6f206d6f6e65792073656e740000000000000000000000000000600082015250565b6000612346601283611e7b565b915061235182612310565b602082019050919050565b6000602082019050818103600083015261237581612339565b9050919050565b7f54686520707269636520646f65736e2774206d617463682e0000000000000000600082015250565b60006123b2601883611e7b565b91506123bd8261237c565b602082019050919050565b600060208201905081810360008301526123e1816123a5565b9050919050565b60006040820190506123fd6000830185611d3e565b61240a6020830184611ca2565b9392505050565b60006020828403121561242757612426611c3a565b5b600061243584828501611f9e565b91505092915050565b7f63616e277420627579207468696e67732e000000000000000000000000000000600082015250565b6000612474601183611e7b565b915061247f8261243e565b602082019050919050565b600060208201905081810360008301526124a381612467565b9050919050565b60006124b582611c3f565b91506124c083611c3f565b92508282039050818111156124d8576124d7612124565b5b92915050565b7f6265206f7574206f662073746f636b20616e6420756e61626c6520746f20627560008201527f7920676f6f647300000000000000000000000000000000000000000000000000602082015250565b600061253a602783611e7b565b9150612545826124de565b604082019050919050565b600060208201905081810360008301526125698161252d565b9050919050565b60006040820190506125856000830185611d3e565b6125926020830184611d3e565b9392505050565b6000602082840312156125af576125ae611c3a565b5b60006125bd84828501611fd6565b91505092915050565b7f6265206e6f7420617070726f7665640000000000000000000000000000000000600082015250565b60006125fc600f83611e7b565b9150612607826125c6565b602082019050919050565b6000602082019050818103600083015261262b816125ef565b9050919050565b600061263d82611c3f565b915061264883611c3f565b92508282019050808211156126605761265f612124565b5b92915050565b600082825260208201905092915050565b50565b6000612687600083612666565b915061269282612677565b600082019050919050565b600060a0820190506126b26000830187611d3e565b6126bf6020830186611d3e565b6126cc6040830185611ca2565b6126d96060830184611ca2565b81810360808301526126ea8161267a565b905095945050505050565b7f546865726520697320616c7265616479206120737562736372697074696f6e2e600082015250565b600061272b602083611e7b565b9150612736826126f5565b602082019050919050565b6000602082019050818103600083015261275a8161271e565b9050919050565b7f49732069742061206275796572203f0000000000000000000000000000000000600082015250565b6000612797600f83611e7b565b91506127a282612761565b602082019050919050565b600060208201905081810360008301526127c68161278a565b9050919050565b7f54696d65204f766572203f000000000000000000000000000000000000000000600082015250565b6000612803600b83611e7b565b915061280e826127cd565b602082019050919050565b60006020820190508181036000830152612832816127f6565b9050919050565b7f46756e64696e67206661696c6564203f00000000000000000000000000000000600082015250565b600061286f601083611e7b565b915061287a82612839565b602082019050919050565b6000602082019050818103600083015261289e81612862565b9050919050565b7f4f776e61626c653a206e6577206f776e657220697320746865207a65726f206160008201527f6464726573730000000000000000000000000000000000000000000000000000602082015250565b6000612901602683611e7b565b915061290c826128a5565b604082019050919050565b60006020820190508181036000830152612930816128f4565b9050919050565b7f4e487b7100000000000000000000000000000000000000000000000000000000600052601260045260246000fd5b600061297182611c3f565b915061297c83611c3f565b92508261298c5761298b612937565b5b82820490509291505056fea264697066735822122051596ac3406a2b32b61be9e294926a94d393eca8549a430124dd2224f0d55ff364736f6c63430008110033",
  "immutableReferences": {},
  "source": "// SPDX-License-Identifier: MIT\r\npragma solidity ^0.8.17;\r\n\r\nimport \"../node_modules/openzeppelin-solidity/contracts/access/Ownable.sol\";\r\nimport \"../node_modules/openzeppelin-solidity/contracts/utils/math/SafeMath.sol\";\r\n// import \"@openzeppelin/contracts/access/Ownable.sol\";\r\n// import \"@openzeppelin/contracts/utils/math/SafeMath.sol\";\r\n\r\nimport \"./DtsToken.sol\";\r\n\r\ncontract FunddingToken is Ownable{\r\n\r\n    using SafeMath for uint256;\r\n    \r\n    // DtsToken.sol    \r\n    DtsToken public Dtoken;\r\n\r\n    constructor(address DtsTokenCA){\r\n        //   DtsToken CA  Dtoken  .\r\n        Dtoken = DtsToken(DtsTokenCA);\r\n    }\r\n\r\n    //     \r\n    uint256 private _Fee = 10;\r\n    //           .\r\n    uint256 private constant _decimalPoint = 100;\r\n\r\n    //        \r\n    mapping(uint256 => uint256) private _totalAmout;\r\n\r\n    //   \r\n    mapping (address => uint256) private _timeOwner;\r\n\r\n    //    \r\n    event subscriptionBuyEvent(address account, uint256 price);\r\n    //     \r\n    event userFunddingEvent(address account, uint256 tokenId, uint256 amount);\r\n    //      \r\n    event isSuccessFunddingEvent(address account, uint256 tokenId, uint256 price);\r\n    //    \r\n    event isfalsedFunddingEvnet(address account, uint256 tokenId, uint256 price);\r\n\r\n\r\n    //   \r\n    function subscriptionBuy() public payable{\r\n        // //    \r\n        // require(msg.sender == account, \"Is it your wallet?\");\r\n        //         (   0    .)\r\n        require(_timeOwner[msg.sender] < block.timestamp, \"There is already a subscription.\");\r\n        //   . 1 3 6   \r\n        require(msg.value == 0.5 ether || msg.value == 1 ether || msg.value == 2 ether);\r\n        if(msg.value == 0.5 ether){\r\n            _timeOwner[msg.sender] = block.timestamp + (8640 * 30);\r\n        } else if(msg.value == 1 ether){\r\n            _timeOwner[msg.sender] = block.timestamp + (8640 * 90);\r\n        } else if(msg.value == 2 ether){\r\n            _timeOwner[msg.sender] = block.timestamp + (8640 * 180);\r\n        }\r\n        emit subscriptionBuyEvent(msg.sender, msg.value);\r\n    }\r\n\r\n    //      \r\nfunction streamingView() public view returns(uint256) {\r\n        return _timeOwner[msg.sender];\r\n    }\r\n    //            .\r\n    // DtsToken.sol SaleCA       .\r\n    function changedCA() onlyOwner external{\r\n        Dtoken.isChangedCA(address(this));\r\n    }\r\n\r\n    //     \r\n    function userFundding(uint256 tokenId, uint256 amount) public payable{\r\n        //    .\r\n        address owner = Dtoken.getTokenOwnerData(tokenId).Creater;\r\n        //    .\r\n        require(Dtoken.getTokenOwnerData(tokenId).EndTime > block.timestamp, \"Time Over\");\r\n        //    nft  .\r\n        require(msg.sender != owner,\"creater can't buy\");\r\n        //   0 .\r\n        require(msg.value != 0, \"have no money sent\");\r\n        //       NFT   .\r\n        require(msg.value == (Dtoken.getTokenOwnerData(tokenId).UnitPrice * amount),\"The price doesn't match.\");\r\n        //    nft  . (    .)1\r\n        require(Dtoken.balanceOf(owner, tokenId) >=  amount, \"can't buy things.\");\r\n        //          .(    .)2\r\n        require(Dtoken.getTokenOwnerData(tokenId).NftAmount - _totalAmout[tokenId] >= amount,\"be out of stock and unable to buy goods\");\r\n        //     saleCA   .\r\n        require(Dtoken.isApprovedForAll(msg.sender,address(this)), \"be not approved\");\r\n        //      .\r\n        _totalAmout[tokenId] = _totalAmout[tokenId] + amount;\r\n        Dtoken.safeTransferFrom(owner, msg.sender, tokenId, amount, \"\");\r\n        //      \r\n        emit userFunddingEvent(msg.sender, tokenId, amount);\r\n        //     Dtoken._tokenOwners[tokenId].isSuccess false true .\r\n        if(_totalAmout[tokenId] == Dtoken.getTokenOwnerData(tokenId).NftAmount){\r\n            Dtoken.isFunddingSuccess(tokenId);\r\n        }\r\n    }\r\n\r\n    //   \r\n    function isSuccessFundding(uint256 tokenId) public payable {\r\n        //      \r\n        require(msg.sender == Dtoken.getTokenOwnerData(tokenId).Creater, \"Is that your wallet?\");\r\n        //    \r\n        require(Dtoken.getTokenOwnerData(tokenId).TotalPrice == (Dtoken.getTokenOwnerData(tokenId).UnitPrice * _totalAmout[tokenId]), \"Funding seccess ?\");\r\n        //   \r\n        uint256 Payment = SafeMath.div(Dtoken.getTokenOwnerData(tokenId).TotalPrice.mul(_Fee),_decimalPoint);\r\n        //       \r\n        uint256 reFund = SafeMath.div(Dtoken.getTokenOwnerData(tokenId).TotalPrice.sub(Payment),2);\r\n        // CA   \r\n        payable(msg.sender).transfer(reFund);\r\n        //       \r\n        emit isSuccessFunddingEvent(msg.sender, tokenId, reFund);\r\n    }\r\n\r\n    //   \r\n    function isfalsedFundding(address account, uint256 tokenId) public payable {\r\n        //    \r\n        require(msg.sender == account, \"Is that your wallet?\");\r\n        //    nft   \r\n        require(Dtoken.balanceOf(msg.sender, tokenId) > 0, \"Is it a buyer ?\");\r\n        //    \r\n        require(Dtoken.getTokenOwnerData(tokenId).EndTime < block.timestamp, \"Time Over ?\");\r\n        //    \r\n        require(Dtoken.getTokenOwnerData(tokenId).TotalPrice > (Dtoken.getTokenOwnerData(tokenId).UnitPrice * _totalAmout[tokenId]), \"Funding failed ?\");\r\n        //    \r\n        uint256 reFund = Dtoken.balanceOf(msg.sender, tokenId) * Dtoken.getTokenOwnerData(tokenId).UnitPrice;\r\n        // CA   \r\n        payable(msg.sender).transfer(reFund);\r\n        //    nft \r\n        Dtoken.faildBurn(msg.sender, tokenId, Dtoken.balanceOf(msg.sender, tokenId));\r\n        emit isfalsedFunddingEvnet(msg.sender, tokenId, reFund);\r\n    }\r\n\r\n    //    \r\n    function priceCheck(uint256 tokenId) public view returns(uint256){\r\n        return _totalAmout[tokenId];\r\n    }\r\n\r\n    //       CA .\r\n    //     await deployed.methods.buyFruit(appleBuy, bananaBuy, melonBuy).send({\r\n    //     from : account,\r\n    //     to : CA,\r\n    //     value : web3.utils.toWei(c, \"ether\")\r\n    // })\r\n}",
  "sourcePath": "C:\\Users\\jdunm\\OneDrive\\ \\dive2space\\erc1155\\contracts\\FunddingToken.sol",
  "compiler": {
    "name": "solc",
    "version": "0.8.17+commit.8df45f5f.Emscripten.clang"
  },
  "schemaVersion": "3.4.11",
  "updatedAt": "2023-02-07T01:16:12.529Z",
  "networkType": "ethereum",
  "devdoc": {
    "kind": "dev",
    "methods": {
      "owner()": {
        "details": "Returns the address of the current owner."
      },
      "renounceOwnership()": {
        "details": "Leaves the contract without owner. It will not be possible to call `onlyOwner` functions anymore. Can only be called by the current owner. NOTE: Renouncing ownership will leave the contract without an owner, thereby removing any functionality that is only available to the owner."
      },
      "transferOwnership(address)": {
        "details": "Transfers ownership of the contract to a new account (`newOwner`). Can only be called by the current owner."
      }
    },
    "version": 1
  },
  "userdoc": {
    "kind": "user",
    "methods": {},
    "version": 1
  }
}