{
  "contractName": "SaleToken",
  "abi": [
    {
      "inputs": [
        {
          "internalType": "address",
          "name": "DtsTokenCA",
          "type": "address"
        }
      ],
      "stateMutability": "nonpayable",
      "type": "constructor"
    },
    {
      "anonymous": false,
      "inputs": [
        {
          "indexed": true,
          "internalType": "address",
          "name": "account",
          "type": "address"
        },
        {
          "indexed": true,
          "internalType": "address",
          "name": "operator",
          "type": "address"
        },
        {
          "indexed": false,
          "internalType": "bool",
          "name": "approved",
          "type": "bool"
        }
      ],
      "name": "ApprovalForAll",
      "type": "event"
    },
    {
      "anonymous": false,
      "inputs": [
        {
          "indexed": false,
          "internalType": "address",
          "name": "account",
          "type": "address"
        },
        {
          "indexed": false,
          "internalType": "uint256",
          "name": "",
          "type": "uint256"
        }
      ],
      "name": "CancelEvent",
      "type": "event"
    },
    {
      "anonymous": false,
      "inputs": [
        {
          "indexed": true,
          "internalType": "address",
          "name": "previousOwner",
          "type": "address"
        },
        {
          "indexed": true,
          "internalType": "address",
          "name": "newOwner",
          "type": "address"
        }
      ],
      "name": "OwnershipTransferred",
      "type": "event"
    },
    {
      "anonymous": false,
      "inputs": [
        {
          "indexed": false,
          "internalType": "address",
          "name": "account",
          "type": "address"
        },
        {
          "indexed": false,
          "internalType": "uint256",
          "name": "tokenId",
          "type": "uint256"
        },
        {
          "indexed": false,
          "internalType": "uint256",
          "name": "amount",
          "type": "uint256"
        },
        {
          "indexed": false,
          "internalType": "uint256",
          "name": "price",
          "type": "uint256"
        }
      ],
      "name": "SaleEvent",
      "type": "event"
    },
    {
      "anonymous": false,
      "inputs": [
        {
          "indexed": true,
          "internalType": "address",
          "name": "operator",
          "type": "address"
        },
        {
          "indexed": true,
          "internalType": "address",
          "name": "from",
          "type": "address"
        },
        {
          "indexed": true,
          "internalType": "address",
          "name": "to",
          "type": "address"
        },
        {
          "indexed": false,
          "internalType": "uint256[]",
          "name": "ids",
          "type": "uint256[]"
        },
        {
          "indexed": false,
          "internalType": "uint256[]",
          "name": "values",
          "type": "uint256[]"
        }
      ],
      "name": "TransferBatch",
      "type": "event"
    },
    {
      "anonymous": false,
      "inputs": [
        {
          "indexed": true,
          "internalType": "address",
          "name": "operator",
          "type": "address"
        },
        {
          "indexed": true,
          "internalType": "address",
          "name": "from",
          "type": "address"
        },
        {
          "indexed": true,
          "internalType": "address",
          "name": "to",
          "type": "address"
        },
        {
          "indexed": false,
          "internalType": "uint256",
          "name": "id",
          "type": "uint256"
        },
        {
          "indexed": false,
          "internalType": "uint256",
          "name": "value",
          "type": "uint256"
        }
      ],
      "name": "TransferSingle",
      "type": "event"
    },
    {
      "anonymous": false,
      "inputs": [
        {
          "indexed": false,
          "internalType": "string",
          "name": "value",
          "type": "string"
        },
        {
          "indexed": true,
          "internalType": "uint256",
          "name": "id",
          "type": "uint256"
        }
      ],
      "name": "URI",
      "type": "event"
    },
    {
      "anonymous": false,
      "inputs": [
        {
          "indexed": false,
          "internalType": "address",
          "name": "account",
          "type": "address"
        },
        {
          "indexed": false,
          "internalType": "uint256",
          "name": "tokenId",
          "type": "uint256"
        },
        {
          "indexed": false,
          "internalType": "uint256",
          "name": "amount",
          "type": "uint256"
        },
        {
          "indexed": false,
          "internalType": "uint256",
          "name": "totalPrice",
          "type": "uint256"
        },
        {
          "indexed": false,
          "internalType": "uint256",
          "name": "getTime",
          "type": "uint256"
        },
        {
          "indexed": false,
          "internalType": "string",
          "name": "result",
          "type": "string"
        }
      ],
      "name": "seccessFundding",
      "type": "event"
    },
    {
      "inputs": [],
      "name": "DToken",
      "outputs": [
        {
          "internalType": "contract DtsToken",
          "name": "",
          "type": "address"
        }
      ],
      "stateMutability": "view",
      "type": "function",
      "constant": true
    },
    {
      "inputs": [
        {
          "internalType": "address",
          "name": "account",
          "type": "address"
        },
        {
          "internalType": "uint256",
          "name": "tokenId",
          "type": "uint256"
        }
      ],
      "name": "balanceOf",
      "outputs": [
        {
          "internalType": "uint256",
          "name": "",
          "type": "uint256"
        }
      ],
      "stateMutability": "view",
      "type": "function",
      "constant": true
    },
    {
      "inputs": [
        {
          "internalType": "address[]",
          "name": "accounts",
          "type": "address[]"
        },
        {
          "internalType": "uint256[]",
          "name": "ids",
          "type": "uint256[]"
        }
      ],
      "name": "balanceOfBatch",
      "outputs": [
        {
          "internalType": "uint256[]",
          "name": "",
          "type": "uint256[]"
        }
      ],
      "stateMutability": "view",
      "type": "function",
      "constant": true
    },
    {
      "inputs": [
        {
          "internalType": "address",
          "name": "account",
          "type": "address"
        },
        {
          "internalType": "uint256",
          "name": "tokenId",
          "type": "uint256"
        },
        {
          "internalType": "uint256",
          "name": "amount",
          "type": "uint256"
        }
      ],
      "name": "faildBurn",
      "outputs": [],
      "stateMutability": "nonpayable",
      "type": "function"
    },
    {
      "inputs": [
        {
          "internalType": "uint256",
          "name": "tokenId",
          "type": "uint256"
        }
      ],
      "name": "getTokenOwnerData",
      "outputs": [
        {
          "components": [
            {
              "internalType": "address",
              "name": "Creater",
              "type": "address"
            },
            {
              "internalType": "uint256",
              "name": "NftAmount",
              "type": "uint256"
            },
            {
              "internalType": "uint256",
              "name": "TotalPrice",
              "type": "uint256"
            },
            {
              "internalType": "uint256",
              "name": "UnitPrice",
              "type": "uint256"
            },
            {
              "internalType": "uint256",
              "name": "EndTime",
              "type": "uint256"
            },
            {
              "internalType": "bool",
              "name": "isSuccess",
              "type": "bool"
            }
          ],
          "internalType": "struct DtsToken.tokenOwnerData",
          "name": "",
          "type": "tuple"
        }
      ],
      "stateMutability": "view",
      "type": "function",
      "constant": true
    },
    {
      "inputs": [
        {
          "internalType": "uint256",
          "name": "",
          "type": "uint256"
        }
      ],
      "name": "ids",
      "outputs": [
        {
          "internalType": "uint256",
          "name": "",
          "type": "uint256"
        }
      ],
      "stateMutability": "view",
      "type": "function",
      "constant": true
    },
    {
      "inputs": [],
      "name": "idsView",
      "outputs": [
        {
          "internalType": "uint256[]",
          "name": "",
          "type": "uint256[]"
        }
      ],
      "stateMutability": "view",
      "type": "function",
      "constant": true
    },
    {
      "inputs": [
        {
          "internalType": "address",
          "name": "account",
          "type": "address"
        },
        {
          "internalType": "address",
          "name": "operator",
          "type": "address"
        }
      ],
      "name": "isApprovedForAll",
      "outputs": [
        {
          "internalType": "bool",
          "name": "",
          "type": "bool"
        }
      ],
      "stateMutability": "view",
      "type": "function",
      "constant": true
    },
    {
      "inputs": [
        {
          "internalType": "address",
          "name": "account",
          "type": "address"
        }
      ],
      "name": "isChangedCA",
      "outputs": [],
      "stateMutability": "nonpayable",
      "type": "function"
    },
    {
      "inputs": [
        {
          "internalType": "uint256",
          "name": "tokenId",
          "type": "uint256"
        }
      ],
      "name": "isFunddingSuccess",
      "outputs": [],
      "stateMutability": "nonpayable",
      "type": "function"
    },
    {
      "inputs": [
        {
          "internalType": "address",
          "name": "account",
          "type": "address"
        },
        {
          "internalType": "address",
          "name": "funddingTokenCA",
          "type": "address"
        },
        {
          "internalType": "uint256",
          "name": "tokenId",
          "type": "uint256"
        },
        {
          "internalType": "uint256",
          "name": "amount",
          "type": "uint256"
        },
        {
          "internalType": "uint256",
          "name": "totalPrice",
          "type": "uint256"
        },
        {
          "internalType": "uint256",
          "name": "getTime",
          "type": "uint256"
        }
      ],
      "name": "mintFundding",
      "outputs": [],
      "stateMutability": "nonpayable",
      "type": "function"
    },
    {
      "inputs": [],
      "name": "owner",
      "outputs": [
        {
          "internalType": "address",
          "name": "",
          "type": "address"
        }
      ],
      "stateMutability": "view",
      "type": "function",
      "constant": true
    },
    {
      "inputs": [],
      "name": "renounceOwnership",
      "outputs": [],
      "stateMutability": "nonpayable",
      "type": "function"
    },
    {
      "inputs": [
        {
          "internalType": "address",
          "name": "from",
          "type": "address"
        },
        {
          "internalType": "address",
          "name": "to",
          "type": "address"
        },
        {
          "internalType": "uint256[]",
          "name": "ids",
          "type": "uint256[]"
        },
        {
          "internalType": "uint256[]",
          "name": "amounts",
          "type": "uint256[]"
        },
        {
          "internalType": "bytes",
          "name": "data",
          "type": "bytes"
        }
      ],
      "name": "safeBatchTransferFrom",
      "outputs": [],
      "stateMutability": "nonpayable",
      "type": "function"
    },
    {
      "inputs": [
        {
          "internalType": "address",
          "name": "from",
          "type": "address"
        },
        {
          "internalType": "address",
          "name": "to",
          "type": "address"
        },
        {
          "internalType": "uint256",
          "name": "id",
          "type": "uint256"
        },
        {
          "internalType": "uint256",
          "name": "amount",
          "type": "uint256"
        },
        {
          "internalType": "bytes",
          "name": "data",
          "type": "bytes"
        }
      ],
      "name": "safeTransferFrom",
      "outputs": [],
      "stateMutability": "nonpayable",
      "type": "function"
    },
    {
      "inputs": [
        {
          "internalType": "address",
          "name": "saleCA",
          "type": "address"
        }
      ],
      "name": "saleApprovalFalse",
      "outputs": [],
      "stateMutability": "nonpayable",
      "type": "function"
    },
    {
      "inputs": [
        {
          "internalType": "address",
          "name": "saleCA",
          "type": "address"
        }
      ],
      "name": "saleApprovalTrue",
      "outputs": [],
      "stateMutability": "nonpayable",
      "type": "function"
    },
    {
      "inputs": [
        {
          "internalType": "address",
          "name": "operator",
          "type": "address"
        },
        {
          "internalType": "bool",
          "name": "approved",
          "type": "bool"
        }
      ],
      "name": "setApprovalForAll",
      "outputs": [],
      "stateMutability": "nonpayable",
      "type": "function"
    },
    {
      "inputs": [
        {
          "internalType": "bytes4",
          "name": "interfaceId",
          "type": "bytes4"
        }
      ],
      "name": "supportsInterface",
      "outputs": [
        {
          "internalType": "bool",
          "name": "",
          "type": "bool"
        }
      ],
      "stateMutability": "view",
      "type": "function",
      "constant": true
    },
    {
      "inputs": [
        {
          "internalType": "uint256",
          "name": "",
          "type": "uint256"
        }
      ],
      "name": "tokenOwners",
      "outputs": [
        {
          "internalType": "address",
          "name": "Creater",
          "type": "address"
        },
        {
          "internalType": "uint256",
          "name": "NftAmount",
          "type": "uint256"
        },
        {
          "internalType": "uint256",
          "name": "TotalPrice",
          "type": "uint256"
        },
        {
          "internalType": "uint256",
          "name": "UnitPrice",
          "type": "uint256"
        },
        {
          "internalType": "uint256",
          "name": "EndTime",
          "type": "uint256"
        },
        {
          "internalType": "bool",
          "name": "isSuccess",
          "type": "bool"
        }
      ],
      "stateMutability": "view",
      "type": "function",
      "constant": true
    },
    {
      "inputs": [
        {
          "internalType": "address",
          "name": "newOwner",
          "type": "address"
        }
      ],
      "name": "transferOwnership",
      "outputs": [],
      "stateMutability": "nonpayable",
      "type": "function"
    },
    {
      "inputs": [
        {
          "internalType": "uint256",
          "name": "",
          "type": "uint256"
        }
      ],
      "name": "uri",
      "outputs": [
        {
          "internalType": "string",
          "name": "",
          "type": "string"
        }
      ],
      "stateMutability": "view",
      "type": "function",
      "constant": true
    },
    {
      "inputs": [
        {
          "internalType": "uint256",
          "name": "tokenId",
          "type": "uint256"
        },
        {
          "internalType": "uint256",
          "name": "amount",
          "type": "uint256"
        },
        {
          "internalType": "uint256",
          "name": "price",
          "type": "uint256"
        }
      ],
      "name": "salesToken",
      "outputs": [],
      "stateMutability": "nonpayable",
      "type": "function"
    },
    {
      "inputs": [
        {
          "internalType": "uint256",
          "name": "tokenId",
          "type": "uint256"
        }
      ],
      "name": "cancelSalesToken",
      "outputs": [],
      "stateMutability": "nonpayable",
      "type": "function"
    },
    {
      "inputs": [
        {
          "internalType": "uint256",
          "name": "tokenId",
          "type": "uint256"
        }
      ],
      "name": "saleNumberList",
      "outputs": [
        {
          "internalType": "uint256",
          "name": "",
          "type": "uint256"
        }
      ],
      "stateMutability": "view",
      "type": "function",
      "constant": true
    },
    {
      "inputs": [
        {
          "internalType": "uint256",
          "name": "tokenId",
          "type": "uint256"
        },
        {
          "internalType": "uint256",
          "name": "saleNum",
          "type": "uint256"
        }
      ],
      "name": "getSalesTokenListAll",
      "outputs": [
        {
          "components": [
            {
              "internalType": "address",
              "name": "account",
              "type": "address"
            },
            {
              "internalType": "uint256",
              "name": "amount",
              "type": "uint256"
            },
            {
              "internalType": "uint256",
              "name": "price",
              "type": "uint256"
            },
            {
              "internalType": "uint256",
              "name": "listId",
              "type": "uint256"
            }
          ],
          "internalType": "struct SaleToken.SaleTokenInfo",
          "name": "",
          "type": "tuple"
        }
      ],
      "stateMutability": "view",
      "type": "function",
      "constant": true
    },
    {
      "inputs": [
        {
          "internalType": "address payable",
          "name": "owner",
          "type": "address"
        },
        {
          "internalType": "uint256",
          "name": "tokenId",
          "type": "uint256"
        },
        {
          "internalType": "uint256",
          "name": "amount",
          "type": "uint256"
        },
        {
          "internalType": "uint256",
          "name": "listId",
          "type": "uint256"
        }
      ],
      "name": "purchaseToken",
      "outputs": [],
      "stateMutability": "payable",
      "type": "function",
      "payable": true
    }
  ],
  "bytecode": "0x60806040523480156200001157600080fd5b50604051620050bf380380620050bf83398181016040528101906200003791906200020e565b604051806020016040528060008152506200005881620000c160201b60201c565b50620000796200006d620000d660201b60201c565b620000de60201b60201c565b80600760006101000a81548173ffffffffffffffffffffffffffffffffffffffff021916908373ffffffffffffffffffffffffffffffffffffffff16021790555050620005a1565b8060029081620000d29190620004ba565b5050565b600033905090565b6000600360009054906101000a900473ffffffffffffffffffffffffffffffffffffffff16905081600360006101000a81548173ffffffffffffffffffffffffffffffffffffffff021916908373ffffffffffffffffffffffffffffffffffffffff1602179055508173ffffffffffffffffffffffffffffffffffffffff168173ffffffffffffffffffffffffffffffffffffffff167f8be0079c531659141344cd1fd0a4f28419497f9722a3daafe3b4186f6b6457e060405160405180910390a35050565b600080fd5b600073ffffffffffffffffffffffffffffffffffffffff82169050919050565b6000620001d682620001a9565b9050919050565b620001e881620001c9565b8114620001f457600080fd5b50565b6000815190506200020881620001dd565b92915050565b600060208284031215620002275762000226620001a4565b5b60006200023784828501620001f7565b91505092915050565b600081519050919050565b7f4e487b7100000000000000000000000000000000000000000000000000000000600052604160045260246000fd5b7f4e487b7100000000000000000000000000000000000000000000000000000000600052602260045260246000fd5b60006002820490506001821680620002c257607f821691505b602082108103620002d857620002d76200027a565b5b50919050565b60008190508160005260206000209050919050565b60006020601f8301049050919050565b600082821b905092915050565b600060088302620003427fffffffffffffffffffffffffffffffffffffffffffffffffffffffffffffffff8262000303565b6200034e868362000303565b95508019841693508086168417925050509392505050565b6000819050919050565b6000819050919050565b60006200039b620003956200038f8462000366565b62000370565b62000366565b9050919050565b6000819050919050565b620003b7836200037a565b620003cf620003c682620003a2565b84845462000310565b825550505050565b600090565b620003e6620003d7565b620003f3818484620003ac565b505050565b5b818110156200041b576200040f600082620003dc565b600181019050620003f9565b5050565b601f8211156200046a576200043481620002de565b6200043f84620002f3565b810160208510156200044f578190505b620004676200045e85620002f3565b830182620003f8565b50505b505050565b600082821c905092915050565b60006200048f600019846008026200046f565b1980831691505092915050565b6000620004aa83836200047c565b9150826002028217905092915050565b620004c58262000240565b67ffffffffffffffff811115620004e157620004e06200024b565b5b620004ed8254620002a9565b620004fa8282856200041f565b600060209050601f8311600181146200053257600084156200051d578287015190505b6200052985826200049c565b86555062000599565b601f1984166200054286620002de565b60005b828110156200056c5784890151825560018201915060208501945060208101905062000545565b868310156200058c578489015162000588601f8916826200047c565b8355505b6001600288020188555050505b505050505050565b614b0e80620005b16000396000f3fe60806040526004361061019b5760003560e01c80638d63193d116100ec578063d0ed81c91161008a578063f242432a11610064578063f242432a146105d6578063f2fde38b146105ff578063f8a14f4614610628578063fac333ac1461066a5761019b565b8063d0ed81c914610533578063d8aadba314610570578063e985e9c5146105995761019b565b8063a22cb465116100c6578063a22cb4651461047b578063a2f256ee146104a4578063ad216fb6146104e1578063c31f4b581461050a5761019b565b80638d63193d146103f75780638da5cb5b146104345780638f1480331461045f5761019b565b80634b77f8d011610159578063715018a611610133578063715018a614610363578063773790821461037a5780637abfee42146103a35780638497f29a146103ce5761019b565b80634b77f8d0146102d45780634e1273f4146102fd5780636f0ea0381461033a5761019b565b8062fdd58e146101a057806301ffc9a7146101dd5780630e89341c1461021a57806319c5b89c146102575780632eb2c2d614610282578063422b71d7146102ab575b600080fd5b3480156101ac57600080fd5b506101c760048036038101906101c29190612d82565b6106a7565b6040516101d49190612dd1565b60405180910390f35b3480156101e957600080fd5b5061020460048036038101906101ff9190612e44565b6106bb565b6040516102119190612e8c565b60405180910390f35b34801561022657600080fd5b50610241600480360381019061023c9190612ea7565b61079d565b60405161024e9190612f64565b60405180910390f35b34801561026357600080fd5b5061026c610831565b6040516102799190612fe5565b60405180910390f35b34801561028e57600080fd5b506102a960048036038101906102a491906131fd565b610857565b005b3480156102b757600080fd5b506102d260048036038101906102cd9190612ea7565b6108f8565b005b3480156102e057600080fd5b506102fb60048036038101906102f691906132cc565b610a40565b005b34801561030957600080fd5b50610324600480360381019061031f91906133bc565b610a4e565b60405161033191906134f2565b60405180910390f35b34801561034657600080fd5b50610361600480360381019061035c9190613514565b610b67565b005b34801561036f57600080fd5b50610378610db8565b005b34801561038657600080fd5b506103a1600480360381019061039c91906135a1565b610e40565b005b3480156103af57600080fd5b506103b8610eaa565b6040516103c591906134f2565b60405180910390f35b3480156103da57600080fd5b506103f560048036038101906103f091906132cc565b610f02565b005b34801561040357600080fd5b5061041e60048036038101906104199190612ea7565b610f10565b60405161042b919061368d565b60405180910390f35b34801561044057600080fd5b50610449610fd6565b60405161045691906136b7565b60405180910390f35b61047960048036038101906104749190613710565b611000565b005b34801561048757600080fd5b506104a2600480360381019061049d91906137a3565b611278565b005b3480156104b057600080fd5b506104cb60048036038101906104c69190612ea7565b61128e565b6040516104d89190612dd1565b60405180910390f35b3480156104ed57600080fd5b50610508600480360381019061050391906132cc565b6112ab565b005b34801561051657600080fd5b50610531600480360381019061052c9190612ea7565b61135d565b005b34801561053f57600080fd5b5061055a600480360381019061055591906137e3565b61138f565b6040516105679190613878565b60405180910390f35b34801561057c57600080fd5b5061059760048036038101906105929190613893565b611442565b005b3480156105a557600080fd5b506105c060048036038101906105bb91906138e6565b61168f565b6040516105cd9190612e8c565b60405180910390f35b3480156105e257600080fd5b506105fd60048036038101906105f89190613926565b611723565b005b34801561060b57600080fd5b50610626600480360381019061062191906132cc565b6117c4565b005b34801561063457600080fd5b5061064f600480360381019061064a9190612ea7565b6118bb565b604051610661969594939291906139bd565b60405180910390f35b34801561067657600080fd5b50610691600480360381019061068c9190612ea7565b611924565b60405161069e9190612dd1565b60405180910390f35b60006106b38383611948565b905092915050565b60007fd9b67a26000000000000000000000000000000000000000000000000000000007bffffffffffffffffffffffffffffffffffffffffffffffffffffffff1916827bffffffffffffffffffffffffffffffffffffffffffffffffffffffff1916148061078657507f0e89341c000000000000000000000000000000000000000000000000000000007bffffffffffffffffffffffffffffffffffffffffffffffffffffffff1916827bffffffffffffffffffffffffffffffffffffffffffffffffffffffff1916145b80610796575061079582611a10565b5b9050919050565b6060600280546107ac90613a4d565b80601f01602080910402602001604051908101604052809291908181526020018280546107d890613a4d565b80156108255780601f106107fa57610100808354040283529160200191610825565b820191906000526020600020905b81548152906001019060200180831161080857829003601f168201915b50505050509050919050565b600760009054906101000a900473ffffffffffffffffffffffffffffffffffffffff1681565b61085f611a7a565b73ffffffffffffffffffffffffffffffffffffffff168573ffffffffffffffffffffffffffffffffffffffff1614806108a557506108a48561089f611a7a565b61168f565b5b6108e4576040517f08c379a00000000000000000000000000000000000000000000000000000000081526004016108db90613af0565b60405180910390fd5b6108f18585858585611a82565b5050505050565b60006008600083815260200190815260200160002054905060005b818111610a02573373ffffffffffffffffffffffffffffffffffffffff1660096000858152602001908152602001600020600083815260200190815260200160002060000160009054906101000a900473ffffffffffffffffffffffffffffffffffffffff1673ffffffffffffffffffffffffffffffffffffffff16036109ef576000600960008581526020019081526020016000206000838152602001908152602001600020600101819055506000600960008581526020019081526020016000206000838152602001908152602001600020600201819055505b80806109fa90613b3f565b915050610913565b507fb37fa1584b5a559c3935a3e74265f473fc90b084d550e9b389c91be5a69fcfa93383604051610a34929190613b87565b60405180910390a15050565b610a4b816000611278565b50565b60608151835114610a94576040517f08c379a0000000000000000000000000000000000000000000000000000000008152600401610a8b90613c22565b60405180910390fd5b6000835167ffffffffffffffff811115610ab157610ab0613005565b5b604051908082528060200260200182016040528015610adf5781602001602082028036833780820191505090505b50905060005b8451811015610b5c57610b2c858281518110610b0457610b03613c42565b5b6020026020010151858381518110610b1f57610b1e613c42565b5b60200260200101516106a7565b828281518110610b3f57610b3e613c42565b5b60200260200101818152505080610b5590613b3f565b9050610ae5565b508091505092915050565b6000600660008681526020019081526020016000206001015414610bc0576040517f08c379a0000000000000000000000000000000000000000000000000000000008152600401610bb790613cbd565b60405180910390fd5b3373ffffffffffffffffffffffffffffffffffffffff168673ffffffffffffffffffffffffffffffffffffffff1614610c2e576040517f08c379a0000000000000000000000000000000000000000000000000000000008152600401610c2590613d29565b60405180910390fd5b60006040518060400160405280601381526020017f66756e6464696e6720697320736563636573730000000000000000000000000081525090506000610c7688868686611da3565b9050806006600088815260200190815260200160002060008201518160000160006101000a81548173ffffffffffffffffffffffffffffffffffffffff021916908373ffffffffffffffffffffffffffffffffffffffff1602179055506020820151816001015560408201518160020155606082015181600301556080820151816004015560a08201518160050160006101000a81548160ff021916908315150217905550905050610d3988878760405180602001604052806000815250611e7f565b610d44876001611278565b60048690806001815401808255809150506001900390600052602060002001600090919091909150557f8bdc0347739a882305e00b5fa613e8629b5da77a48abac45661315c45619c548338787878787604051610da696959493929190613d49565b60405180910390a15050505050505050565b610dc0611a7a565b73ffffffffffffffffffffffffffffffffffffffff16610dde610fd6565b73ffffffffffffffffffffffffffffffffffffffff1614610e34576040517f08c379a0000000000000000000000000000000000000000000000000000000008152600401610e2b90613dfd565b60405180910390fd5b610e3e600061202f565b565b600560009054906101000a900473ffffffffffffffffffffffffffffffffffffffff1673ffffffffffffffffffffffffffffffffffffffff163373ffffffffffffffffffffffffffffffffffffffff1614610e9a57600080fd5b610ea58383836120f5565b505050565b60606004805480602002602001604051908101604052809291908181526020018280548015610ef857602002820191906000526020600020905b815481526020019060010190808311610ee4575b5050505050905090565b610f0d816001611278565b50565b610f18612c4e565b600660008381526020019081526020016000206040518060c00160405290816000820160009054906101000a900473ffffffffffffffffffffffffffffffffffffffff1673ffffffffffffffffffffffffffffffffffffffff1673ffffffffffffffffffffffffffffffffffffffff168152602001600182015481526020016002820154815260200160038201548152602001600482015481526020016005820160009054906101000a900460ff1615151515815250509050919050565b6000600360009054906101000a900473ffffffffffffffffffffffffffffffffffffffff16905090565b3373ffffffffffffffffffffffffffffffffffffffff1660096000858152602001908152602001600020600083815260200190815260200160002060000160009054906101000a900473ffffffffffffffffffffffffffffffffffffffff1673ffffffffffffffffffffffffffffffffffffffff16036110b5576040517f08c379a00000000000000000000000000000000000000000000000000000000081526004016110ac90613e69565b60405180910390fd5b6000821180156110ec5750600960008481526020019081526020016000206000828152602001908152602001600020600101548211155b61112b576040517f08c379a000000000000000000000000000000000000000000000000000000000815260040161112290613ed5565b60405180910390fd5b34600960008581526020019081526020016000206000838152602001908152602001600020600201548361115f9190613ef5565b1461119f576040517f08c379a000000000000000000000000000000000000000000000000000000000815260040161119690613f83565b60405180910390fd5b60006111bf6111b8600a3461233b90919063ffffffff16565b6064612351565b90508473ffffffffffffffffffffffffffffffffffffffff166108fc82346111e79190613fa3565b9081150290604051600060405180830381858888f19350505050158015611212573d6000803e3d6000fd5b5082600960008681526020019081526020016000206000848152602001908152602001600020600101546112469190613fa3565b600960008681526020019081526020016000206000848152602001908152602001600020600101819055505050505050565b61128a611283611a7a565b8383612367565b5050565b600060086000838152602001908152602001600020549050919050565b3373ffffffffffffffffffffffffffffffffffffffff168173ffffffffffffffffffffffffffffffffffffffff1614611319576040517f08c379a000000000000000000000000000000000000000000000000000000000815260040161131090614023565b60405180910390fd5b80600560006101000a81548173ffffffffffffffffffffffffffffffffffffffff021916908373ffffffffffffffffffffffffffffffffffffffff16021790555050565b60016006600083815260200190815260200160002060050160006101000a81548160ff02191690831515021790555050565b611397612c9c565b6009600084815260200190815260200160002060008381526020019081526020016000206040518060800160405290816000820160009054906101000a900473ffffffffffffffffffffffffffffffffffffffff1673ffffffffffffffffffffffffffffffffffffffff1673ffffffffffffffffffffffffffffffffffffffff1681526020016001820154815260200160028201548152602001600382015481525050905092915050565b8260006008600083815260200190815260200160002054905060005b818111611562576000600960008581526020019081526020016000206000838152602001908152602001600020600101541415801561150f57503373ffffffffffffffffffffffffffffffffffffffff1660096000858152602001908152602001600020600083815260200190815260200160002060000160009054906101000a900473ffffffffffffffffffffffffffffffffffffffff1673ffffffffffffffffffffffffffffffffffffffff16145b1561154f576040517f08c379a00000000000000000000000000000000000000000000000000000000081526004016115469061408f565b60405180910390fd5b808061155a90613b3f565b91505061145e565b506000611571338787876124d3565b905080600960008881526020019081526020016000206000600860008a815260200190815260200160002054815260200190815260200160002060008201518160000160006101000a81548173ffffffffffffffffffffffffffffffffffffffff021916908373ffffffffffffffffffffffffffffffffffffffff1602179055506020820151816001015560408201518160020155606082015181600301559050506001600860008881526020019081526020016000205461163391906140af565b60086000888152602001908152602001600020819055507ffd993c5a8b6fac3440f45a4aa08e8d39fc18d59f8d66435d7c2d108508035db43387878760405161167f94939291906140e3565b60405180910390a1505050505050565b6000600160008473ffffffffffffffffffffffffffffffffffffffff1673ffffffffffffffffffffffffffffffffffffffff16815260200190815260200160002060008373ffffffffffffffffffffffffffffffffffffffff1673ffffffffffffffffffffffffffffffffffffffff16815260200190815260200160002060009054906101000a900460ff16905092915050565b61172b611a7a565b73ffffffffffffffffffffffffffffffffffffffff168573ffffffffffffffffffffffffffffffffffffffff16148061177157506117708561176b611a7a565b61168f565b5b6117b0576040517f08c379a00000000000000000000000000000000000000000000000000000000081526004016117a79061419a565b60405180910390fd5b6117bd8585858585612558565b5050505050565b6117cc611a7a565b73ffffffffffffffffffffffffffffffffffffffff166117ea610fd6565b73ffffffffffffffffffffffffffffffffffffffff1614611840576040517f08c379a000000000000000000000000000000000000000000000000000000000815260040161183790613dfd565b60405180910390fd5b600073ffffffffffffffffffffffffffffffffffffffff168173ffffffffffffffffffffffffffffffffffffffff16036118af576040517f08c379a00000000000000000000000000000000000000000000000000000000081526004016118a69061422c565b60405180910390fd5b6118b88161202f565b50565b60066020528060005260406000206000915090508060000160009054906101000a900473ffffffffffffffffffffffffffffffffffffffff16908060010154908060020154908060030154908060040154908060050160009054906101000a900460ff16905086565b6004818154811061193457600080fd5b906000526020600020016000915090505481565b60008073ffffffffffffffffffffffffffffffffffffffff168373ffffffffffffffffffffffffffffffffffffffff16036119b8576040517f08c379a00000000000000000000000000000000000000000000000000000000081526004016119af906142be565b60405180910390fd5b60008083815260200190815260200160002060008473ffffffffffffffffffffffffffffffffffffffff1673ffffffffffffffffffffffffffffffffffffffff16815260200190815260200160002054905092915050565b60007f01ffc9a7000000000000000000000000000000000000000000000000000000007bffffffffffffffffffffffffffffffffffffffffffffffffffffffff1916827bffffffffffffffffffffffffffffffffffffffffffffffffffffffff1916149050919050565b600033905090565b8151835114611ac6576040517f08c379a0000000000000000000000000000000000000000000000000000000008152600401611abd90614350565b60405180910390fd5b600073ffffffffffffffffffffffffffffffffffffffff168473ffffffffffffffffffffffffffffffffffffffff1603611b35576040517f08c379a0000000000000000000000000000000000000000000000000000000008152600401611b2c906143e2565b60405180910390fd5b6000611b3f611a7a565b9050611b4f8187878787876127f3565b60005b8451811015611d00576000858281518110611b7057611b6f613c42565b5b602002602001015190506000858381518110611b8f57611b8e613c42565b5b60200260200101519050600080600084815260200190815260200160002060008b73ffffffffffffffffffffffffffffffffffffffff1673ffffffffffffffffffffffffffffffffffffffff16815260200190815260200160002054905081811015611c30576040517f08c379a0000000000000000000000000000000000000000000000000000000008152600401611c2790614474565b60405180910390fd5b81810360008085815260200190815260200160002060008c73ffffffffffffffffffffffffffffffffffffffff1673ffffffffffffffffffffffffffffffffffffffff168152602001908152602001600020819055508160008085815260200190815260200160002060008b73ffffffffffffffffffffffffffffffffffffffff1673ffffffffffffffffffffffffffffffffffffffff1681526020019081526020016000206000828254611ce591906140af565b9250508190555050505080611cf990613b3f565b9050611b52565b508473ffffffffffffffffffffffffffffffffffffffff168673ffffffffffffffffffffffffffffffffffffffff168273ffffffffffffffffffffffffffffffffffffffff167f4a39dc06d4c0dbc64b70af90fd698a233a518aa5d07e595d983b8c0526c8f7fb8787604051611d77929190614494565b60405180910390a4611d8d8187878787876127fb565b611d9b818787878787612803565b505050505050565b611dab612c4e565b611db3612c4e565b600085670de0b6b3a764000086611dca9190613ef5565b611dd491906144fa565b905086826000019073ffffffffffffffffffffffffffffffffffffffff16908173ffffffffffffffffffffffffffffffffffffffff168152505085826020018181525050670de0b6b3a764000085611e2c9190613ef5565b82604001818152505080826060018181525050836121c0611e4d9190613ef5565b42611e5891906140af565b82608001818152505060008260a00190151590811515815250508192505050949350505050565b600073ffffffffffffffffffffffffffffffffffffffff168473ffffffffffffffffffffffffffffffffffffffff1603611eee576040517f08c379a0000000000000000000000000000000000000000000000000000000008152600401611ee59061459d565b60405180910390fd5b6000611ef8611a7a565b90506000611f05856129da565b90506000611f12856129da565b9050611f23836000898585896127f3565b8460008088815260200190815260200160002060008973ffffffffffffffffffffffffffffffffffffffff1673ffffffffffffffffffffffffffffffffffffffff1681526020019081526020016000206000828254611f8291906140af565b925050819055508673ffffffffffffffffffffffffffffffffffffffff16600073ffffffffffffffffffffffffffffffffffffffff168473ffffffffffffffffffffffffffffffffffffffff167fc3d58168c5ae7397731d063d5bbf3d657854427343f4c083240f7aacaa2d0f6289896040516120009291906145bd565b60405180910390a4612017836000898585896127fb565b61202683600089898989612a54565b50505050505050565b6000600360009054906101000a900473ffffffffffffffffffffffffffffffffffffffff16905081600360006101000a81548173ffffffffffffffffffffffffffffffffffffffff021916908373ffffffffffffffffffffffffffffffffffffffff1602179055508173ffffffffffffffffffffffffffffffffffffffff168173ffffffffffffffffffffffffffffffffffffffff167f8be0079c531659141344cd1fd0a4f28419497f9722a3daafe3b4186f6b6457e060405160405180910390a35050565b600073ffffffffffffffffffffffffffffffffffffffff168373ffffffffffffffffffffffffffffffffffffffff1603612164576040517f08c379a000000000000000000000000000000000000000000000000000000000815260040161215b90614658565b60405180910390fd5b600061216e611a7a565b9050600061217b846129da565b90506000612188846129da565b90506121a8838760008585604051806020016040528060008152506127f3565b600080600087815260200190815260200160002060008873ffffffffffffffffffffffffffffffffffffffff1673ffffffffffffffffffffffffffffffffffffffff1681526020019081526020016000205490508481101561223f576040517f08c379a0000000000000000000000000000000000000000000000000000000008152600401612236906146ea565b60405180910390fd5b84810360008088815260200190815260200160002060008973ffffffffffffffffffffffffffffffffffffffff1673ffffffffffffffffffffffffffffffffffffffff16815260200190815260200160002081905550600073ffffffffffffffffffffffffffffffffffffffff168773ffffffffffffffffffffffffffffffffffffffff168573ffffffffffffffffffffffffffffffffffffffff167fc3d58168c5ae7397731d063d5bbf3d657854427343f4c083240f7aacaa2d0f62898960405161230c9291906145bd565b60405180910390a4612332848860008686604051806020016040528060008152506127fb565b50505050505050565b600081836123499190613ef5565b905092915050565b6000818361235f91906144fa565b905092915050565b8173ffffffffffffffffffffffffffffffffffffffff168373ffffffffffffffffffffffffffffffffffffffff16036123d5576040517f08c379a00000000000000000000000000000000000000000000000000000000081526004016123cc9061477c565b60405180910390fd5b80600160008573ffffffffffffffffffffffffffffffffffffffff1673ffffffffffffffffffffffffffffffffffffffff16815260200190815260200160002060008473ffffffffffffffffffffffffffffffffffffffff1673ffffffffffffffffffffffffffffffffffffffff16815260200190815260200160002060006101000a81548160ff0219169083151502179055508173ffffffffffffffffffffffffffffffffffffffff168373ffffffffffffffffffffffffffffffffffffffff167f17307eab39ab6107e8899845ad3d59bd9653f200f220920489ca2b5937696c31836040516124c69190612e8c565b60405180910390a3505050565b6124db612c9c565b6124e3612c9c565b85816000019073ffffffffffffffffffffffffffffffffffffffff16908173ffffffffffffffffffffffffffffffffffffffff16815250508381602001818152505082816040018181525050600860008681526020019081526020016000205481606001818152505080915050949350505050565b600073ffffffffffffffffffffffffffffffffffffffff168473ffffffffffffffffffffffffffffffffffffffff16036125c7576040517f08c379a00000000000000000000000000000000000000000000000000000000081526004016125be906143e2565b60405180910390fd5b60006125d1611a7a565b905060006125de856129da565b905060006125eb856129da565b90506125fb8389898585896127f3565b600080600088815260200190815260200160002060008a73ffffffffffffffffffffffffffffffffffffffff1673ffffffffffffffffffffffffffffffffffffffff16815260200190815260200160002054905085811015612692576040517f08c379a000000000000000000000000000000000000000000000000000000000815260040161268990614474565b60405180910390fd5b85810360008089815260200190815260200160002060008b73ffffffffffffffffffffffffffffffffffffffff1673ffffffffffffffffffffffffffffffffffffffff168152602001908152602001600020819055508560008089815260200190815260200160002060008a73ffffffffffffffffffffffffffffffffffffffff1673ffffffffffffffffffffffffffffffffffffffff168152602001908152602001600020600082825461274791906140af565b925050819055508773ffffffffffffffffffffffffffffffffffffffff168973ffffffffffffffffffffffffffffffffffffffff168573ffffffffffffffffffffffffffffffffffffffff167fc3d58168c5ae7397731d063d5bbf3d657854427343f4c083240f7aacaa2d0f628a8a6040516127c49291906145bd565b60405180910390a46127da848a8a86868a6127fb565b6127e8848a8a8a8a8a612a54565b505050505050505050565b505050505050565b505050505050565b6128228473ffffffffffffffffffffffffffffffffffffffff16612c2b565b156129d2578373ffffffffffffffffffffffffffffffffffffffff1663bc197c8187878686866040518663ffffffff1660e01b81526004016128689594939291906147f1565b6020604051808303816000875af19250505080156128a457506040513d601f19601f820116820180604052508101906128a1919061486e565b60015b612949576128b06148a8565b806308c379a00361290c57506128c46148ca565b806128cf575061290e565b806040517f08c379a00000000000000000000000000000000000000000000000000000000081526004016129039190612f64565b60405180910390fd5b505b6040517f08c379a0000000000000000000000000000000000000000000000000000000008152600401612940906149cc565b60405180910390fd5b63bc197c8160e01b7bffffffffffffffffffffffffffffffffffffffffffffffffffffffff1916817bffffffffffffffffffffffffffffffffffffffffffffffffffffffff1916146129d0576040517f08c379a00000000000000000000000000000000000000000000000000000000081526004016129c790614a5e565b60405180910390fd5b505b505050505050565b60606000600167ffffffffffffffff8111156129f9576129f8613005565b5b604051908082528060200260200182016040528015612a275781602001602082028036833780820191505090505b5090508281600081518110612a3f57612a3e613c42565b5b60200260200101818152505080915050919050565b612a738473ffffffffffffffffffffffffffffffffffffffff16612c2b565b15612c23578373ffffffffffffffffffffffffffffffffffffffff1663f23a6e6187878686866040518663ffffffff1660e01b8152600401612ab9959493929190614a7e565b6020604051808303816000875af1925050508015612af557506040513d601f19601f82011682018060405250810190612af2919061486e565b60015b612b9a57612b016148a8565b806308c379a003612b5d5750612b156148ca565b80612b205750612b5f565b806040517f08c379a0000000000000000000000000000000000000000000000000000000008152600401612b549190612f64565b60405180910390fd5b505b6040517f08c379a0000000000000000000000000000000000000000000000000000000008152600401612b91906149cc565b60405180910390fd5b63f23a6e6160e01b7bffffffffffffffffffffffffffffffffffffffffffffffffffffffff1916817bffffffffffffffffffffffffffffffffffffffffffffffffffffffff191614612c21576040517f08c379a0000000000000000000000000000000000000000000000000000000008152600401612c1890614a5e565b60405180910390fd5b505b505050505050565b6000808273ffffffffffffffffffffffffffffffffffffffff163b119050919050565b6040518060c00160405280600073ffffffffffffffffffffffffffffffffffffffff168152602001600081526020016000815260200160008152602001600081526020016000151581525090565b6040518060800160405280600073ffffffffffffffffffffffffffffffffffffffff1681526020016000815260200160008152602001600081525090565b6000604051905090565b600080fd5b600080fd5b600073ffffffffffffffffffffffffffffffffffffffff82169050919050565b6000612d1982612cee565b9050919050565b612d2981612d0e565b8114612d3457600080fd5b50565b600081359050612d4681612d20565b92915050565b6000819050919050565b612d5f81612d4c565b8114612d6a57600080fd5b50565b600081359050612d7c81612d56565b92915050565b60008060408385031215612d9957612d98612ce4565b5b6000612da785828601612d37565b9250506020612db885828601612d6d565b9150509250929050565b612dcb81612d4c565b82525050565b6000602082019050612de66000830184612dc2565b92915050565b60007fffffffff0000000000000000000000000000000000000000000000000000000082169050919050565b612e2181612dec565b8114612e2c57600080fd5b50565b600081359050612e3e81612e18565b92915050565b600060208284031215612e5a57612e59612ce4565b5b6000612e6884828501612e2f565b91505092915050565b60008115159050919050565b612e8681612e71565b82525050565b6000602082019050612ea16000830184612e7d565b92915050565b600060208284031215612ebd57612ebc612ce4565b5b6000612ecb84828501612d6d565b91505092915050565b600081519050919050565b600082825260208201905092915050565b60005b83811015612f0e578082015181840152602081019050612ef3565b60008484015250505050565b6000601f19601f8301169050919050565b6000612f3682612ed4565b612f408185612edf565b9350612f50818560208601612ef0565b612f5981612f1a565b840191505092915050565b60006020820190508181036000830152612f7e8184612f2b565b905092915050565b6000819050919050565b6000612fab612fa6612fa184612cee565b612f86565b612cee565b9050919050565b6000612fbd82612f90565b9050919050565b6000612fcf82612fb2565b9050919050565b612fdf81612fc4565b82525050565b6000602082019050612ffa6000830184612fd6565b92915050565b600080fd5b7f4e487b7100000000000000000000000000000000000000000000000000000000600052604160045260246000fd5b61303d82612f1a565b810181811067ffffffffffffffff8211171561305c5761305b613005565b5b80604052505050565b600061306f612cda565b905061307b8282613034565b919050565b600067ffffffffffffffff82111561309b5761309a613005565b5b602082029050602081019050919050565b600080fd5b60006130c46130bf84613080565b613065565b905080838252602082019050602084028301858111156130e7576130e66130ac565b5b835b8181101561311057806130fc8882612d6d565b8452602084019350506020810190506130e9565b5050509392505050565b600082601f83011261312f5761312e613000565b5b813561313f8482602086016130b1565b91505092915050565b600080fd5b600067ffffffffffffffff82111561316857613167613005565b5b61317182612f1a565b9050602081019050919050565b82818337600083830152505050565b60006131a061319b8461314d565b613065565b9050828152602081018484840111156131bc576131bb613148565b5b6131c784828561317e565b509392505050565b600082601f8301126131e4576131e3613000565b5b81356131f484826020860161318d565b91505092915050565b600080600080600060a0868803121561321957613218612ce4565b5b600061322788828901612d37565b955050602061323888828901612d37565b945050604086013567ffffffffffffffff81111561325957613258612ce9565b5b6132658882890161311a565b935050606086013567ffffffffffffffff81111561328657613285612ce9565b5b6132928882890161311a565b925050608086013567ffffffffffffffff8111156132b3576132b2612ce9565b5b6132bf888289016131cf565b9150509295509295909350565b6000602082840312156132e2576132e1612ce4565b5b60006132f084828501612d37565b91505092915050565b600067ffffffffffffffff82111561331457613313613005565b5b602082029050602081019050919050565b6000613338613333846132f9565b613065565b9050808382526020820190506020840283018581111561335b5761335a6130ac565b5b835b8181101561338457806133708882612d37565b84526020840193505060208101905061335d565b5050509392505050565b600082601f8301126133a3576133a2613000565b5b81356133b3848260208601613325565b91505092915050565b600080604083850312156133d3576133d2612ce4565b5b600083013567ffffffffffffffff8111156133f1576133f0612ce9565b5b6133fd8582860161338e565b925050602083013567ffffffffffffffff81111561341e5761341d612ce9565b5b61342a8582860161311a565b9150509250929050565b600081519050919050565b600082825260208201905092915050565b6000819050602082019050919050565b61346981612d4c565b82525050565b600061347b8383613460565b60208301905092915050565b6000602082019050919050565b600061349f82613434565b6134a9818561343f565b93506134b483613450565b8060005b838110156134e55781516134cc888261346f565b97506134d783613487565b9250506001810190506134b8565b5085935050505092915050565b6000602082019050818103600083015261350c8184613494565b905092915050565b60008060008060008060c0878903121561353157613530612ce4565b5b600061353f89828a01612d37565b965050602061355089828a01612d37565b955050604061356189828a01612d6d565b945050606061357289828a01612d6d565b935050608061358389828a01612d6d565b92505060a061359489828a01612d6d565b9150509295509295509295565b6000806000606084860312156135ba576135b9612ce4565b5b60006135c886828701612d37565b93505060206135d986828701612d6d565b92505060406135ea86828701612d6d565b9150509250925092565b6135fd81612d0e565b82525050565b61360c81612e71565b82525050565b60c08201600082015161362860008501826135f4565b50602082015161363b6020850182613460565b50604082015161364e6040850182613460565b5060608201516136616060850182613460565b5060808201516136746080850182613460565b5060a082015161368760a0850182613603565b50505050565b600060c0820190506136a26000830184613612565b92915050565b6136b181612d0e565b82525050565b60006020820190506136cc60008301846136a8565b92915050565b60006136dd82612cee565b9050919050565b6136ed816136d2565b81146136f857600080fd5b50565b60008135905061370a816136e4565b92915050565b6000806000806080858703121561372a57613729612ce4565b5b6000613738878288016136fb565b945050602061374987828801612d6d565b935050604061375a87828801612d6d565b925050606061376b87828801612d6d565b91505092959194509250565b61378081612e71565b811461378b57600080fd5b50565b60008135905061379d81613777565b92915050565b600080604083850312156137ba576137b9612ce4565b5b60006137c885828601612d37565b92505060206137d98582860161378e565b9150509250929050565b600080604083850312156137fa576137f9612ce4565b5b600061380885828601612d6d565b925050602061381985828601612d6d565b9150509250929050565b60808201600082015161383960008501826135f4565b50602082015161384c6020850182613460565b50604082015161385f6040850182613460565b5060608201516138726060850182613460565b50505050565b600060808201905061388d6000830184613823565b92915050565b6000806000606084860312156138ac576138ab612ce4565b5b60006138ba86828701612d6d565b93505060206138cb86828701612d6d565b92505060406138dc86828701612d6d565b9150509250925092565b600080604083850312156138fd576138fc612ce4565b5b600061390b85828601612d37565b925050602061391c85828601612d37565b9150509250929050565b600080600080600060a0868803121561394257613941612ce4565b5b600061395088828901612d37565b955050602061396188828901612d37565b945050604061397288828901612d6d565b935050606061398388828901612d6d565b925050608086013567ffffffffffffffff8111156139a4576139a3612ce9565b5b6139b0888289016131cf565b9150509295509295909350565b600060c0820190506139d260008301896136a8565b6139df6020830188612dc2565b6139ec6040830187612dc2565b6139f96060830186612dc2565b613a066080830185612dc2565b613a1360a0830184612e7d565b979650505050505050565b7f4e487b7100000000000000000000000000000000000000000000000000000000600052602260045260246000fd5b60006002820490506001821680613a6557607f821691505b602082108103613a7857613a77613a1e565b5b50919050565b7f455243313135353a207472616e736665722063616c6c6572206973206e6f742060008201527f6f776e6572206e6f7220617070726f7665640000000000000000000000000000602082015250565b6000613ada603283612edf565b9150613ae582613a7e565b604082019050919050565b60006020820190508181036000830152613b0981613acd565b9050919050565b7f4e487b7100000000000000000000000000000000000000000000000000000000600052601160045260246000fd5b6000613b4a82612d4c565b91507fffffffffffffffffffffffffffffffffffffffffffffffffffffffffffffffff8203613b7c57613b7b613b10565b5b600182019050919050565b6000604082019050613b9c60008301856136a8565b613ba96020830184612dc2565b9392505050565b7f455243313135353a206163636f756e747320616e6420696473206c656e67746860008201527f206d69736d617463680000000000000000000000000000000000000000000000602082015250565b6000613c0c602983612edf565b9150613c1782613bb0565b604082019050919050565b60006020820190508181036000830152613c3b81613bff565b9050919050565b7f4e487b7100000000000000000000000000000000000000000000000000000000600052603260045260246000fd5b7f6861766520616c7265616479206265656e206973737565640000000000000000600082015250565b6000613ca7601883612edf565b9150613cb282613c71565b602082019050919050565b60006020820190508181036000830152613cd681613c9a565b9050919050565b7f49742773206e6f7420796f752e00000000000000000000000000000000000000600082015250565b6000613d13600d83612edf565b9150613d1e82613cdd565b602082019050919050565b60006020820190508181036000830152613d4281613d06565b9050919050565b600060c082019050613d5e60008301896136a8565b613d6b6020830188612dc2565b613d786040830187612dc2565b613d856060830186612dc2565b613d926080830185612dc2565b81810360a0830152613da48184612f2b565b9050979650505050505050565b7f4f776e61626c653a2063616c6c6572206973206e6f7420746865206f776e6572600082015250565b6000613de7602083612edf565b9150613df282613db1565b602082019050919050565b60006020820190508181036000830152613e1681613dda565b9050919050565b7f492063616e277420627579206d7973656c662e00000000000000000000000000600082015250565b6000613e53601383612edf565b9150613e5e82613e1d565b602082019050919050565b60006020820190508181036000830152613e8281613e46565b9050919050565b7f436865636b20616d6f756e740000000000000000000000000000000000000000600082015250565b6000613ebf600c83612edf565b9150613eca82613e89565b602082019050919050565b60006020820190508181036000830152613eee81613eb2565b9050919050565b6000613f0082612d4c565b9150613f0b83612d4c565b9250828202613f1981612d4c565b91508282048414831517613f3057613f2f613b10565b5b5092915050565b7f436865636b20746865206d6f6e657920616761696e2e00000000000000000000600082015250565b6000613f6d601683612edf565b9150613f7882613f37565b602082019050919050565b60006020820190508181036000830152613f9c81613f60565b9050919050565b6000613fae82612d4c565b9150613fb983612d4c565b9250828203905081811115613fd157613fd0613b10565b5b92915050565b7f3f3f3f3f00000000000000000000000000000000000000000000000000000000600082015250565b600061400d600483612edf565b915061401882613fd7565b602082019050919050565b6000602082019050818103600083015261403c81614000565b9050919050565b7f43616e63656c207468652073616c6573206f726465722e000000000000000000600082015250565b6000614079601783612edf565b915061408482614043565b602082019050919050565b600060208201905081810360008301526140a88161406c565b9050919050565b60006140ba82612d4c565b91506140c583612d4c565b92508282019050808211156140dd576140dc613b10565b5b92915050565b60006080820190506140f860008301876136a8565b6141056020830186612dc2565b6141126040830185612dc2565b61411f6060830184612dc2565b95945050505050565b7f455243313135353a2063616c6c6572206973206e6f74206f776e6572206e6f7260008201527f20617070726f7665640000000000000000000000000000000000000000000000602082015250565b6000614184602983612edf565b915061418f82614128565b604082019050919050565b600060208201905081810360008301526141b381614177565b9050919050565b7f4f776e61626c653a206e6577206f776e657220697320746865207a65726f206160008201527f6464726573730000000000000000000000000000000000000000000000000000602082015250565b6000614216602683612edf565b9150614221826141ba565b604082019050919050565b6000602082019050818103600083015261424581614209565b9050919050565b7f455243313135353a2062616c616e636520717565727920666f7220746865207a60008201527f65726f2061646472657373000000000000000000000000000000000000000000602082015250565b60006142a8602b83612edf565b91506142b38261424c565b604082019050919050565b600060208201905081810360008301526142d78161429b565b9050919050565b7f455243313135353a2069647320616e6420616d6f756e7473206c656e6774682060008201527f6d69736d61746368000000000000000000000000000000000000000000000000602082015250565b600061433a602883612edf565b9150614345826142de565b604082019050919050565b600060208201905081810360008301526143698161432d565b9050919050565b7f455243313135353a207472616e7366657220746f20746865207a65726f20616460008201527f6472657373000000000000000000000000000000000000000000000000000000602082015250565b60006143cc602583612edf565b91506143d782614370565b604082019050919050565b600060208201905081810360008301526143fb816143bf565b9050919050565b7f455243313135353a20696e73756666696369656e742062616c616e636520666f60008201527f72207472616e7366657200000000000000000000000000000000000000000000602082015250565b600061445e602a83612edf565b915061446982614402565b604082019050919050565b6000602082019050818103600083015261448d81614451565b9050919050565b600060408201905081810360008301526144ae8185613494565b905081810360208301526144c28184613494565b90509392505050565b7f4e487b7100000000000000000000000000000000000000000000000000000000600052601260045260246000fd5b600061450582612d4c565b915061451083612d4c565b9250826145205761451f6144cb565b5b828204905092915050565b7f455243313135353a206d696e7420746f20746865207a65726f2061646472657360008201527f7300000000000000000000000000000000000000000000000000000000000000602082015250565b6000614587602183612edf565b91506145928261452b565b604082019050919050565b600060208201905081810360008301526145b68161457a565b9050919050565b60006040820190506145d26000830185612dc2565b6145df6020830184612dc2565b9392505050565b7f455243313135353a206275726e2066726f6d20746865207a65726f206164647260008201527f6573730000000000000000000000000000000000000000000000000000000000602082015250565b6000614642602383612edf565b915061464d826145e6565b604082019050919050565b6000602082019050818103600083015261467181614635565b9050919050565b7f455243313135353a206275726e20616d6f756e7420657863656564732062616c60008201527f616e636500000000000000000000000000000000000000000000000000000000602082015250565b60006146d4602483612edf565b91506146df82614678565b604082019050919050565b60006020820190508181036000830152614703816146c7565b9050919050565b7f455243313135353a2073657474696e6720617070726f76616c2073746174757360008201527f20666f722073656c660000000000000000000000000000000000000000000000602082015250565b6000614766602983612edf565b91506147718261470a565b604082019050919050565b6000602082019050818103600083015261479581614759565b9050919050565b600081519050919050565b600082825260208201905092915050565b60006147c38261479c565b6147cd81856147a7565b93506147dd818560208601612ef0565b6147e681612f1a565b840191505092915050565b600060a08201905061480660008301886136a8565b61481360208301876136a8565b81810360408301526148258186613494565b905081810360608301526148398185613494565b9050818103608083015261484d81846147b8565b90509695505050505050565b60008151905061486881612e18565b92915050565b60006020828403121561488457614883612ce4565b5b600061489284828501614859565b91505092915050565b60008160e01c9050919050565b600060033d11156148c75760046000803e6148c460005161489b565b90505b90565b600060443d10614957576148dc612cda565b60043d036004823e80513d602482011167ffffffffffffffff82111715614904575050614957565b808201805167ffffffffffffffff8111156149225750505050614957565b80602083010160043d03850181111561493f575050505050614957565b61494e82602001850186613034565b82955050505050505b90565b7f455243313135353a207472616e7366657220746f206e6f6e204552433131353560008201527f526563656976657220696d706c656d656e746572000000000000000000000000602082015250565b60006149b6603483612edf565b91506149c18261495a565b604082019050919050565b600060208201905081810360008301526149e5816149a9565b9050919050565b7f455243313135353a204552433131353552656365697665722072656a6563746560008201527f6420746f6b656e73000000000000000000000000000000000000000000000000602082015250565b6000614a48602883612edf565b9150614a53826149ec565b604082019050919050565b60006020820190508181036000830152614a7781614a3b565b9050919050565b600060a082019050614a9360008301886136a8565b614aa060208301876136a8565b614aad6040830186612dc2565b614aba6060830185612dc2565b8181036080830152614acc81846147b8565b9050969550505050505056fea26469706673582212201ebe1187bb2fdb997541acb17c83651be891191a9fb888b074835ef94ed4f6d764736f6c63430008110033",
  "immutableReferences": {},
  "source": "// SPDX-License-Identifier: MIT\r\npragma solidity ^0.8.17;\r\n\r\nimport \"../node_modules/openzeppelin-solidity/contracts/utils/math/SafeMath.sol\";\r\n// import \"@openzeppelin/contracts/utils/math/SafeMath.sol\";\r\n\r\nimport \"./DtsToken.sol\";\r\n\r\ncontract SaleToken is DtsToken{\r\n\r\n    using SafeMath for uint256;\r\n\r\n    // DtsToken.sol    \r\n    DtsToken public DToken;\r\n\r\n    constructor(address DtsTokenCA){\r\n        //   DtsToken CA  DToken  .\r\n        DToken = DtsToken(DtsTokenCA);\r\n    }\r\n\r\n    //  nft   \r\n    struct SaleTokenInfo{\r\n        //  \r\n        address account;\r\n        //  \r\n        uint256 amount;\r\n        //  \r\n        uint256 price;\r\n        //   Id (    id .)\r\n        uint256 listId;\r\n    }\r\n\r\n    //   id      \r\n    mapping (uint256 => uint256) private _saleNumber;\r\n\r\n    //  Id        \r\n    mapping (uint256 => mapping (uint256 => SaleTokenInfo)) private _saleTokenList;\r\n\r\n    // //        \r\n    // SaleTokenInfo[] private _saleTokenList;\r\n\r\n    //  \r\n    event SaleEvent(address account, uint256 tokenId, uint256 amount, uint256 price);\r\n    event CancelEvent(address account, uint256);\r\n\r\n    //   \r\n    function salesToken(uint256 tokenId ,uint256 amount, uint256 price) public isSaleError(tokenId){\r\n        // //        .\r\n        // require(DToken.balanceOf(msg.sender, tokenId) >= amount, \"Please enter the exact quantity.\");\r\n        // //   0   \r\n        // require(price > 0,\"Please enter the correct price.\");\r\n        // //   0   \r\n        // require(amount > 0,\"Please enter the correct amount.\");\r\n        // //    .\r\n        // require(DToken.isApprovedForAll(msg.sender,address(this)),\"be not approved\");\r\n        // //    \r\n        // require(DToken.getTokenOwnerData(tokenId).isSuccess == true,\"is Success?\");\r\n\r\n        SaleTokenInfo memory data = _getSalesTokenData(msg.sender, tokenId, amount, price);\r\n        _saleTokenList[tokenId][_saleNumber[tokenId]] = data;\r\n        _saleNumber[tokenId] = _saleNumber[tokenId] + 1;\r\n        emit SaleEvent(msg.sender, tokenId, amount, price);\r\n    }\r\n\r\n    //    \r\n    function _getSalesTokenData(address _account,uint256 tokenId, uint256 _amount, uint256 _price) private view returns(SaleTokenInfo memory){\r\n        SaleTokenInfo memory data;\r\n\r\n        data.account = _account;\r\n        data.amount = _amount;\r\n        data.price = _price;\r\n        data.listId = _saleNumber[tokenId];\r\n\r\n        return data;\r\n    }\r\n\r\n    //   \r\n    function cancelSalesToken(uint256 tokenId) public {\r\n        uint256 _saleNumberLength = _saleNumber[tokenId];\r\n        for(uint256 i = 0; i <= _saleNumberLength; i++){\r\n            if(_saleTokenList[tokenId][i].account == msg.sender){\r\n               _saleTokenList[tokenId][i].amount = 0;\r\n               _saleTokenList[tokenId][i].price = 0;\r\n            }\r\n        }\r\n        emit CancelEvent(msg.sender,tokenId);\r\n    }\r\n\r\n    //     view \r\n    function saleNumberList(uint256 tokenId) public view returns(uint256){\r\n        return _saleNumber[tokenId];\r\n    }\r\n\r\n    //     view\r\n    function getSalesTokenListAll(uint256 tokenId,uint saleNum) public view returns(SaleTokenInfo memory){\r\n        return _saleTokenList[tokenId][saleNum];\r\n    }\r\n\r\n    //  \r\n    function purchaseToken(address payable owner, uint256 tokenId, uint256 amount, uint256 listId) public payable {\r\n        //  nft   .\r\n        require(_saleTokenList[tokenId][listId].account != msg.sender,\"I can't buy myself.\");\r\n        //    0      .\r\n        require(amount > 0 && amount <= _saleTokenList[tokenId][listId].amount,\"Check amount\");\r\n        //      .\r\n        require(amount * _saleTokenList[tokenId][listId].price == msg.value, \"Check the money again.\");\r\n        //    (10%)\r\n        uint256 Payment = SafeMath.div(msg.value.mul(10),100);\r\n        //      .\r\n        owner.transfer(msg.value - Payment);\r\n\r\n        //    \r\n        _saleTokenList[tokenId][listId].amount = _saleTokenList[tokenId][listId].amount - amount;\r\n\r\n        // DToken.safeTransferFrom(owner, msg.sender, tokenId, amount, \"\");\r\n    }\r\n\r\n    //       .   amount 0      .\r\n    modifier isSaleError(uint256 tokenId) {\r\n        uint256 _saleNumberLength = _saleNumber[tokenId];\r\n        for(uint256 i = 0; i <= _saleNumberLength; i++){\r\n            if(_saleTokenList[tokenId][i].amount != 0 && _saleTokenList[tokenId][i].account == msg.sender){\r\n               revert(\"Cancel the sales order.\");\r\n            }\r\n        }\r\n        _;\r\n    }\r\n\r\n    // modifier isBuyError(address owner, uint256 tokenId, uint256 listId) {\r\n    //     uint256 _saleNumberLength = _saleNumber[tokenId];\r\n    //     for(uint256 i = 0; i <= _saleNumberLength; i++){\r\n    //         if(_saleTokenList[tokenId][listId].account == msg.sender){\r\n    //            revert(\"I can't buy myself.\");\r\n    //         }\r\n    //     }\r\n    //     _;\r\n    // }\r\n\r\n    // //    <<   ..   \r\n    // function cancelSalesToken(uint256 tokenId) public {\r\n    //     for (uint256 i = 0; i < _saleTokenList.length; i++) {\r\n    //         if(_saleTokenList[i].tokenId == tokenId && _saleTokenList[i].account == msg.sender){\r\n    //             _saleTokenList[i] = _saleTokenList[_saleTokenList.length -1];\r\n    //             _saleTokenList.pop();\r\n    //             delete _saleToken[tokenId][msg.sender];\r\n    //         }\r\n    //     }\r\n    // }\r\n\r\n    // //      view <<     \r\n    // function getSalesTokenListAll(uint256 tokenId) public view returns(SaleTokenInfo[] memory){\r\n    //     //  list     id     .\r\n    //     SaleTokenInfo[] memory list = new SaleTokenInfo[](_saleTokenList.length);\r\n    //     uint256 a = 0;\r\n    //     for (uint256 i = 0; i < _saleTokenList.length; i++) {\r\n    //         if(_saleTokenList[i].tokenId == tokenId){\r\n    //             list[a] = (_saleTokenList[i]);\r\n    //             a++;\r\n    //         }\r\n    //     }\r\n    //     return list;\r\n    // }\r\n\r\n    // //          <<             ..\r\n    // function isSalesTokenList(address owner, uint256 tokenId) private view returns(SaleTokenInfo memory){\r\n    //     SaleTokenInfo memory data;\r\n    //     for (uint256 i = 0; i < _saleTokenList.length; i++) {\r\n    //         if(_saleTokenList[i].tokenId == tokenId && _saleTokenList[i].account == owner){\r\n    //             data.account = _saleTokenList[i].account;\r\n    //             data.tokenId = _saleTokenList[i].tokenId;\r\n    //             data.amount = _saleTokenList[i].amount;\r\n    //             data.price = _saleTokenList[i].price;\r\n    //         }\r\n    //     }\r\n    //     return data;\r\n    // }\r\n}",
  "sourcePath": "C:\\Users\\jdunm\\OneDrive\\ \\dive2space\\erc1155\\contracts\\SaleToken.sol",
  "compiler": {
    "name": "solc",
    "version": "0.8.17+commit.8df45f5f.Emscripten.clang"
  },
  "schemaVersion": "3.4.11",
  "updatedAt": "2023-02-03T05:24:27.600Z",
  "networkType": "ethereum",
  "devdoc": {
    "kind": "dev",
    "methods": {
      "balanceOfBatch(address[],uint256[])": {
        "details": "See {IERC1155-balanceOfBatch}. Requirements: - `accounts` and `ids` must have the same length."
      },
      "isApprovedForAll(address,address)": {
        "details": "See {IERC1155-isApprovedForAll}."
      },
      "owner()": {
        "details": "Returns the address of the current owner."
      },
      "renounceOwnership()": {
        "details": "Leaves the contract without owner. It will not be possible to call `onlyOwner` functions anymore. Can only be called by the current owner. NOTE: Renouncing ownership will leave the contract without an owner, thereby removing any functionality that is only available to the owner."
      },
      "safeBatchTransferFrom(address,address,uint256[],uint256[],bytes)": {
        "details": "See {IERC1155-safeBatchTransferFrom}."
      },
      "safeTransferFrom(address,address,uint256,uint256,bytes)": {
        "details": "See {IERC1155-safeTransferFrom}."
      },
      "setApprovalForAll(address,bool)": {
        "details": "See {IERC1155-setApprovalForAll}."
      },
      "supportsInterface(bytes4)": {
        "details": "See {IERC165-supportsInterface}."
      },
      "transferOwnership(address)": {
        "details": "Transfers ownership of the contract to a new account (`newOwner`). Can only be called by the current owner."
      },
      "uri(uint256)": {
        "details": "See {IERC1155MetadataURI-uri}. This implementation returns the same URI for *all* token types. It relies on the token type ID substitution mechanism https://eips.ethereum.org/EIPS/eip-1155#metadata[defined in the EIP]. Clients calling this function must replace the `\\{id\\}` substring with the actual token type ID."
      }
    },
    "version": 1
  },
  "userdoc": {
    "kind": "user",
    "methods": {},
    "version": 1
  }
}