{
  "contractName": "SaleToken",
  "abi": [
    {
      "inputs": [
        {
          "internalType": "address",
          "name": "DtsTokenCA",
          "type": "address"
        }
      ],
      "stateMutability": "nonpayable",
      "type": "constructor"
    },
    {
      "anonymous": false,
      "inputs": [
        {
          "indexed": true,
          "internalType": "address",
          "name": "account",
          "type": "address"
        },
        {
          "indexed": true,
          "internalType": "address",
          "name": "operator",
          "type": "address"
        },
        {
          "indexed": false,
          "internalType": "bool",
          "name": "approved",
          "type": "bool"
        }
      ],
      "name": "ApprovalForAll",
      "type": "event"
    },
    {
      "anonymous": false,
      "inputs": [
        {
          "indexed": false,
          "internalType": "address",
          "name": "account",
          "type": "address"
        },
        {
          "indexed": false,
          "internalType": "uint256",
          "name": "",
          "type": "uint256"
        }
      ],
      "name": "CancelEvent",
      "type": "event"
    },
    {
      "anonymous": false,
      "inputs": [
        {
          "indexed": true,
          "internalType": "address",
          "name": "previousOwner",
          "type": "address"
        },
        {
          "indexed": true,
          "internalType": "address",
          "name": "newOwner",
          "type": "address"
        }
      ],
      "name": "OwnershipTransferred",
      "type": "event"
    },
    {
      "anonymous": false,
      "inputs": [
        {
          "indexed": false,
          "internalType": "address",
          "name": "account",
          "type": "address"
        },
        {
          "indexed": false,
          "internalType": "uint256",
          "name": "tokenId",
          "type": "uint256"
        },
        {
          "indexed": false,
          "internalType": "uint256",
          "name": "amount",
          "type": "uint256"
        },
        {
          "indexed": false,
          "internalType": "uint256",
          "name": "price",
          "type": "uint256"
        }
      ],
      "name": "SaleEvent",
      "type": "event"
    },
    {
      "anonymous": false,
      "inputs": [
        {
          "indexed": true,
          "internalType": "address",
          "name": "operator",
          "type": "address"
        },
        {
          "indexed": true,
          "internalType": "address",
          "name": "from",
          "type": "address"
        },
        {
          "indexed": true,
          "internalType": "address",
          "name": "to",
          "type": "address"
        },
        {
          "indexed": false,
          "internalType": "uint256[]",
          "name": "ids",
          "type": "uint256[]"
        },
        {
          "indexed": false,
          "internalType": "uint256[]",
          "name": "values",
          "type": "uint256[]"
        }
      ],
      "name": "TransferBatch",
      "type": "event"
    },
    {
      "anonymous": false,
      "inputs": [
        {
          "indexed": true,
          "internalType": "address",
          "name": "operator",
          "type": "address"
        },
        {
          "indexed": true,
          "internalType": "address",
          "name": "from",
          "type": "address"
        },
        {
          "indexed": true,
          "internalType": "address",
          "name": "to",
          "type": "address"
        },
        {
          "indexed": false,
          "internalType": "uint256",
          "name": "id",
          "type": "uint256"
        },
        {
          "indexed": false,
          "internalType": "uint256",
          "name": "value",
          "type": "uint256"
        }
      ],
      "name": "TransferSingle",
      "type": "event"
    },
    {
      "anonymous": false,
      "inputs": [
        {
          "indexed": false,
          "internalType": "string",
          "name": "value",
          "type": "string"
        },
        {
          "indexed": true,
          "internalType": "uint256",
          "name": "id",
          "type": "uint256"
        }
      ],
      "name": "URI",
      "type": "event"
    },
    {
      "anonymous": false,
      "inputs": [
        {
          "indexed": false,
          "internalType": "address",
          "name": "account",
          "type": "address"
        },
        {
          "indexed": false,
          "internalType": "uint256",
          "name": "tokenId",
          "type": "uint256"
        },
        {
          "indexed": false,
          "internalType": "uint256",
          "name": "amount",
          "type": "uint256"
        },
        {
          "indexed": false,
          "internalType": "uint256",
          "name": "totalPrice",
          "type": "uint256"
        },
        {
          "indexed": false,
          "internalType": "uint256",
          "name": "getTime",
          "type": "uint256"
        },
        {
          "indexed": false,
          "internalType": "string",
          "name": "result",
          "type": "string"
        }
      ],
      "name": "seccessFundding",
      "type": "event"
    },
    {
      "inputs": [],
      "name": "DToken",
      "outputs": [
        {
          "internalType": "contract DtsToken",
          "name": "",
          "type": "address"
        }
      ],
      "stateMutability": "view",
      "type": "function",
      "constant": true
    },
    {
      "inputs": [],
      "name": "Ftoken",
      "outputs": [
        {
          "internalType": "contract FunddingToken",
          "name": "",
          "type": "address"
        }
      ],
      "stateMutability": "view",
      "type": "function",
      "constant": true
    },
    {
      "inputs": [
        {
          "internalType": "address",
          "name": "account",
          "type": "address"
        },
        {
          "internalType": "uint256",
          "name": "tokenId",
          "type": "uint256"
        }
      ],
      "name": "balanceOf",
      "outputs": [
        {
          "internalType": "uint256",
          "name": "",
          "type": "uint256"
        }
      ],
      "stateMutability": "view",
      "type": "function",
      "constant": true
    },
    {
      "inputs": [
        {
          "internalType": "address[]",
          "name": "accounts",
          "type": "address[]"
        },
        {
          "internalType": "uint256[]",
          "name": "ids",
          "type": "uint256[]"
        }
      ],
      "name": "balanceOfBatch",
      "outputs": [
        {
          "internalType": "uint256[]",
          "name": "",
          "type": "uint256[]"
        }
      ],
      "stateMutability": "view",
      "type": "function",
      "constant": true
    },
    {
      "inputs": [
        {
          "internalType": "address",
          "name": "account",
          "type": "address"
        },
        {
          "internalType": "uint256",
          "name": "tokenId",
          "type": "uint256"
        },
        {
          "internalType": "uint256",
          "name": "amount",
          "type": "uint256"
        }
      ],
      "name": "faildBurn",
      "outputs": [],
      "stateMutability": "nonpayable",
      "type": "function"
    },
    {
      "inputs": [
        {
          "internalType": "uint256",
          "name": "tokenId",
          "type": "uint256"
        }
      ],
      "name": "getTokenOwnerData",
      "outputs": [
        {
          "components": [
            {
              "internalType": "address",
              "name": "Creater",
              "type": "address"
            },
            {
              "internalType": "uint256",
              "name": "NftAmount",
              "type": "uint256"
            },
            {
              "internalType": "uint256",
              "name": "TotalPrice",
              "type": "uint256"
            },
            {
              "internalType": "uint256",
              "name": "UnitPrice",
              "type": "uint256"
            },
            {
              "internalType": "uint256",
              "name": "EndTime",
              "type": "uint256"
            },
            {
              "internalType": "bool",
              "name": "isSuccess",
              "type": "bool"
            }
          ],
          "internalType": "struct DtsToken.tokenOwnerData",
          "name": "",
          "type": "tuple"
        }
      ],
      "stateMutability": "view",
      "type": "function",
      "constant": true
    },
    {
      "inputs": [
        {
          "internalType": "uint256",
          "name": "tokenId",
          "type": "uint256"
        },
        {
          "internalType": "bool",
          "name": "",
          "type": "bool"
        }
      ],
      "name": "getvoting",
      "outputs": [],
      "stateMutability": "nonpayable",
      "type": "function"
    },
    {
      "inputs": [
        {
          "internalType": "uint256",
          "name": "",
          "type": "uint256"
        }
      ],
      "name": "ids",
      "outputs": [
        {
          "internalType": "uint256",
          "name": "",
          "type": "uint256"
        }
      ],
      "stateMutability": "view",
      "type": "function",
      "constant": true
    },
    {
      "inputs": [],
      "name": "idsView",
      "outputs": [
        {
          "internalType": "uint256[]",
          "name": "",
          "type": "uint256[]"
        }
      ],
      "stateMutability": "view",
      "type": "function",
      "constant": true
    },
    {
      "inputs": [
        {
          "internalType": "address",
          "name": "account",
          "type": "address"
        },
        {
          "internalType": "address",
          "name": "operator",
          "type": "address"
        }
      ],
      "name": "isApprovedForAll",
      "outputs": [
        {
          "internalType": "bool",
          "name": "",
          "type": "bool"
        }
      ],
      "stateMutability": "view",
      "type": "function",
      "constant": true
    },
    {
      "inputs": [
        {
          "internalType": "address",
          "name": "account",
          "type": "address"
        }
      ],
      "name": "isChangedCA",
      "outputs": [],
      "stateMutability": "nonpayable",
      "type": "function"
    },
    {
      "inputs": [
        {
          "internalType": "uint256",
          "name": "tokenId",
          "type": "uint256"
        }
      ],
      "name": "isFunddingSuccess",
      "outputs": [],
      "stateMutability": "nonpayable",
      "type": "function"
    },
    {
      "inputs": [
        {
          "internalType": "address",
          "name": "account",
          "type": "address"
        },
        {
          "internalType": "address",
          "name": "funddingTokenCA",
          "type": "address"
        },
        {
          "internalType": "uint256",
          "name": "tokenId",
          "type": "uint256"
        },
        {
          "internalType": "uint256",
          "name": "amount",
          "type": "uint256"
        },
        {
          "internalType": "uint256",
          "name": "totalPrice",
          "type": "uint256"
        },
        {
          "internalType": "uint256",
          "name": "getTime",
          "type": "uint256"
        }
      ],
      "name": "mintFundding",
      "outputs": [],
      "stateMutability": "nonpayable",
      "type": "function"
    },
    {
      "inputs": [],
      "name": "owner",
      "outputs": [
        {
          "internalType": "address",
          "name": "",
          "type": "address"
        }
      ],
      "stateMutability": "view",
      "type": "function",
      "constant": true
    },
    {
      "inputs": [],
      "name": "renounceOwnership",
      "outputs": [],
      "stateMutability": "nonpayable",
      "type": "function"
    },
    {
      "inputs": [
        {
          "internalType": "address",
          "name": "from",
          "type": "address"
        },
        {
          "internalType": "address",
          "name": "to",
          "type": "address"
        },
        {
          "internalType": "uint256[]",
          "name": "ids",
          "type": "uint256[]"
        },
        {
          "internalType": "uint256[]",
          "name": "amounts",
          "type": "uint256[]"
        },
        {
          "internalType": "bytes",
          "name": "data",
          "type": "bytes"
        }
      ],
      "name": "safeBatchTransferFrom",
      "outputs": [],
      "stateMutability": "nonpayable",
      "type": "function"
    },
    {
      "inputs": [
        {
          "internalType": "address",
          "name": "from",
          "type": "address"
        },
        {
          "internalType": "address",
          "name": "to",
          "type": "address"
        },
        {
          "internalType": "uint256",
          "name": "id",
          "type": "uint256"
        },
        {
          "internalType": "uint256",
          "name": "amount",
          "type": "uint256"
        },
        {
          "internalType": "bytes",
          "name": "data",
          "type": "bytes"
        }
      ],
      "name": "safeTransferFrom",
      "outputs": [],
      "stateMutability": "nonpayable",
      "type": "function"
    },
    {
      "inputs": [
        {
          "internalType": "address",
          "name": "saleCA",
          "type": "address"
        }
      ],
      "name": "saleApprovalFalse",
      "outputs": [],
      "stateMutability": "nonpayable",
      "type": "function"
    },
    {
      "inputs": [
        {
          "internalType": "address",
          "name": "saleCA",
          "type": "address"
        }
      ],
      "name": "saleApprovalTrue",
      "outputs": [],
      "stateMutability": "nonpayable",
      "type": "function"
    },
    {
      "inputs": [
        {
          "internalType": "address",
          "name": "operator",
          "type": "address"
        },
        {
          "internalType": "bool",
          "name": "approved",
          "type": "bool"
        }
      ],
      "name": "setApprovalForAll",
      "outputs": [],
      "stateMutability": "nonpayable",
      "type": "function"
    },
    {
      "inputs": [
        {
          "internalType": "bytes4",
          "name": "interfaceId",
          "type": "bytes4"
        }
      ],
      "name": "supportsInterface",
      "outputs": [
        {
          "internalType": "bool",
          "name": "",
          "type": "bool"
        }
      ],
      "stateMutability": "view",
      "type": "function",
      "constant": true
    },
    {
      "inputs": [
        {
          "internalType": "uint256",
          "name": "",
          "type": "uint256"
        }
      ],
      "name": "tokenOwners",
      "outputs": [
        {
          "internalType": "address",
          "name": "Creater",
          "type": "address"
        },
        {
          "internalType": "uint256",
          "name": "NftAmount",
          "type": "uint256"
        },
        {
          "internalType": "uint256",
          "name": "TotalPrice",
          "type": "uint256"
        },
        {
          "internalType": "uint256",
          "name": "UnitPrice",
          "type": "uint256"
        },
        {
          "internalType": "uint256",
          "name": "EndTime",
          "type": "uint256"
        },
        {
          "internalType": "bool",
          "name": "isSuccess",
          "type": "bool"
        }
      ],
      "stateMutability": "view",
      "type": "function",
      "constant": true
    },
    {
      "inputs": [
        {
          "internalType": "address",
          "name": "newOwner",
          "type": "address"
        }
      ],
      "name": "transferOwnership",
      "outputs": [],
      "stateMutability": "nonpayable",
      "type": "function"
    },
    {
      "inputs": [
        {
          "internalType": "uint256",
          "name": "",
          "type": "uint256"
        }
      ],
      "name": "uri",
      "outputs": [
        {
          "internalType": "string",
          "name": "",
          "type": "string"
        }
      ],
      "stateMutability": "view",
      "type": "function",
      "constant": true
    },
    {
      "inputs": [
        {
          "internalType": "uint256",
          "name": "",
          "type": "uint256"
        },
        {
          "internalType": "address",
          "name": "",
          "type": "address"
        }
      ],
      "name": "voting",
      "outputs": [
        {
          "internalType": "bool",
          "name": "",
          "type": "bool"
        }
      ],
      "stateMutability": "view",
      "type": "function",
      "constant": true
    },
    {
      "inputs": [
        {
          "internalType": "uint256",
          "name": "",
          "type": "uint256"
        }
      ],
      "name": "votingTime",
      "outputs": [
        {
          "internalType": "uint256",
          "name": "",
          "type": "uint256"
        }
      ],
      "stateMutability": "view",
      "type": "function",
      "constant": true
    },
    {
      "inputs": [
        {
          "internalType": "uint256",
          "name": "tokenId",
          "type": "uint256"
        },
        {
          "internalType": "uint256",
          "name": "amount",
          "type": "uint256"
        },
        {
          "internalType": "uint256",
          "name": "price",
          "type": "uint256"
        }
      ],
      "name": "salesToken",
      "outputs": [],
      "stateMutability": "nonpayable",
      "type": "function"
    },
    {
      "inputs": [
        {
          "internalType": "uint256",
          "name": "tokenId",
          "type": "uint256"
        }
      ],
      "name": "cancelSalesToken",
      "outputs": [],
      "stateMutability": "nonpayable",
      "type": "function"
    },
    {
      "inputs": [
        {
          "internalType": "uint256",
          "name": "tokenId",
          "type": "uint256"
        }
      ],
      "name": "saleNumberList",
      "outputs": [
        {
          "internalType": "uint256",
          "name": "",
          "type": "uint256"
        }
      ],
      "stateMutability": "view",
      "type": "function",
      "constant": true
    },
    {
      "inputs": [
        {
          "internalType": "uint256",
          "name": "tokenId",
          "type": "uint256"
        },
        {
          "internalType": "uint256",
          "name": "saleNum",
          "type": "uint256"
        }
      ],
      "name": "getSalesTokenListAll",
      "outputs": [
        {
          "components": [
            {
              "internalType": "address",
              "name": "account",
              "type": "address"
            },
            {
              "internalType": "uint256",
              "name": "amount",
              "type": "uint256"
            },
            {
              "internalType": "uint256",
              "name": "price",
              "type": "uint256"
            },
            {
              "internalType": "uint256",
              "name": "listId",
              "type": "uint256"
            }
          ],
          "internalType": "struct SaleToken.SaleTokenInfo",
          "name": "",
          "type": "tuple"
        }
      ],
      "stateMutability": "view",
      "type": "function",
      "constant": true
    },
    {
      "inputs": [
        {
          "internalType": "address payable",
          "name": "owner",
          "type": "address"
        },
        {
          "internalType": "uint256",
          "name": "tokenId",
          "type": "uint256"
        },
        {
          "internalType": "uint256",
          "name": "amount",
          "type": "uint256"
        },
        {
          "internalType": "uint256",
          "name": "listId",
          "type": "uint256"
        }
      ],
      "name": "purchaseToken",
      "outputs": [],
      "stateMutability": "payable",
      "type": "function",
      "payable": true
    }
  ],
  "bytecode": "0x60806040523480156200001157600080fd5b5060405162005cec38038062005cec83398181016040528101906200003791906200020e565b604051806020016040528060008152506200005881620000c160201b60201c565b50620000796200006d620000d660201b60201c565b620000de60201b60201c565b80600a60006101000a81548173ffffffffffffffffffffffffffffffffffffffff021916908373ffffffffffffffffffffffffffffffffffffffff16021790555050620005a1565b8060029081620000d29190620004ba565b5050565b600033905090565b6000600360009054906101000a900473ffffffffffffffffffffffffffffffffffffffff16905081600360006101000a81548173ffffffffffffffffffffffffffffffffffffffff021916908373ffffffffffffffffffffffffffffffffffffffff1602179055508173ffffffffffffffffffffffffffffffffffffffff168173ffffffffffffffffffffffffffffffffffffffff167f8be0079c531659141344cd1fd0a4f28419497f9722a3daafe3b4186f6b6457e060405160405180910390a35050565b600080fd5b600073ffffffffffffffffffffffffffffffffffffffff82169050919050565b6000620001d682620001a9565b9050919050565b620001e881620001c9565b8114620001f457600080fd5b50565b6000815190506200020881620001dd565b92915050565b600060208284031215620002275762000226620001a4565b5b60006200023784828501620001f7565b91505092915050565b600081519050919050565b7f4e487b7100000000000000000000000000000000000000000000000000000000600052604160045260246000fd5b7f4e487b7100000000000000000000000000000000000000000000000000000000600052602260045260246000fd5b60006002820490506001821680620002c257607f821691505b602082108103620002d857620002d76200027a565b5b50919050565b60008190508160005260206000209050919050565b60006020601f8301049050919050565b600082821b905092915050565b600060088302620003427fffffffffffffffffffffffffffffffffffffffffffffffffffffffffffffffff8262000303565b6200034e868362000303565b95508019841693508086168417925050509392505050565b6000819050919050565b6000819050919050565b60006200039b620003956200038f8462000366565b62000370565b62000366565b9050919050565b6000819050919050565b620003b7836200037a565b620003cf620003c682620003a2565b84845462000310565b825550505050565b600090565b620003e6620003d7565b620003f3818484620003ac565b505050565b5b818110156200041b576200040f600082620003dc565b600181019050620003f9565b5050565b601f8211156200046a576200043481620002de565b6200043f84620002f3565b810160208510156200044f578190505b620004676200045e85620002f3565b830182620003f8565b50505b505050565b600082821c905092915050565b60006200048f600019846008026200046f565b1980831691505092915050565b6000620004aa83836200047c565b9150826002028217905092915050565b620004c58262000240565b67ffffffffffffffff811115620004e157620004e06200024b565b5b620004ed8254620002a9565b620004fa8282856200041f565b600060209050601f8311600181146200053257600084156200051d578287015190505b6200052985826200049c565b86555062000599565b601f1984166200054286620002de565b60005b828110156200056c5784890151825560018201915060208501945060208101905062000545565b868310156200058c578489015162000588601f8916826200047c565b8355505b6001600288020188555050505b505050505050565b61573b80620005b16000396000f3fe6080604052600436106101d75760003560e01c80638497f29a11610102578063d0ed81c911610095578063f2fde38b11610064578063f2fde38b146106e0578063f7a6dc7214610709578063f8a14f4614610732578063fac333ac14610774576101d7565b8063d0ed81c914610614578063d8aadba314610651578063e985e9c51461067a578063f242432a146106b7576101d7565b8063a22cb465116100d1578063a22cb4651461055c578063a2f256ee14610585578063ad216fb6146105c2578063c31f4b58146105eb576101d7565b80638497f29a146104af5780638d63193d146104d85780638da5cb5b146105155780638f14803314610540576101d7565b8063422b71d71161017a578063715018a611610149578063715018a614610407578063773790821461041e5780637abfee421461044757806384527a6914610472576101d7565b8063422b71d71461034f5780634b77f8d0146103785780634e1273f4146103a15780636f0ea038146103de576101d7565b806319c5b89c116101b657806319c5b89c146102935780632eb2c2d6146102be5780633017a1d8146102e7578063325d20c414610324576101d7565b8062fdd58e146101dc57806301ffc9a7146102195780630e89341c14610256575b600080fd5b3480156101e857600080fd5b5061020360048036038101906101fe9190613438565b6107b1565b6040516102109190613487565b60405180910390f35b34801561022557600080fd5b50610240600480360381019061023b91906134fa565b6107c5565b60405161024d9190613542565b60405180910390f35b34801561026257600080fd5b5061027d6004803603810190610278919061355d565b6108a7565b60405161028a919061361a565b60405180910390f35b34801561029f57600080fd5b506102a861093b565b6040516102b5919061369b565b60405180910390f35b3480156102ca57600080fd5b506102e560048036038101906102e091906138b3565b610961565b005b3480156102f357600080fd5b5061030e60048036038101906103099190613982565b610a02565b60405161031b9190613542565b60405180910390f35b34801561033057600080fd5b50610339610a31565b60405161034691906139e3565b60405180910390f35b34801561035b57600080fd5b506103766004803603810190610371919061355d565b610a57565b005b34801561038457600080fd5b5061039f600480360381019061039a91906139fe565b610b9f565b005b3480156103ad57600080fd5b506103c860048036038101906103c39190613aee565b610bad565b6040516103d59190613c24565b60405180910390f35b3480156103ea57600080fd5b5061040560048036038101906104009190613c46565b610cc6565b005b34801561041357600080fd5b5061041c610f17565b005b34801561042a57600080fd5b5061044560048036038101906104409190613cd3565b610f9f565b005b34801561045357600080fd5b5061045c611009565b6040516104699190613c24565b60405180910390f35b34801561047e57600080fd5b506104996004803603810190610494919061355d565b611061565b6040516104a69190613487565b60405180910390f35b3480156104bb57600080fd5b506104d660048036038101906104d191906139fe565b611079565b005b3480156104e457600080fd5b506104ff60048036038101906104fa919061355d565b611087565b60405161050c9190613dbf565b60405180910390f35b34801561052157600080fd5b5061052a61114d565b6040516105379190613de9565b60405180910390f35b61055a60048036038101906105559190613e42565b611177565b005b34801561056857600080fd5b50610583600480360381019061057e9190613ed5565b611482565b005b34801561059157600080fd5b506105ac60048036038101906105a7919061355d565b611498565b6040516105b99190613487565b60405180910390f35b3480156105ce57600080fd5b506105e960048036038101906105e491906139fe565b6114b5565b005b3480156105f757600080fd5b50610612600480360381019061060d919061355d565b6115a8565b005b34801561062057600080fd5b5061063b60048036038101906106369190613f15565b611719565b6040516106489190613faa565b60405180910390f35b34801561065d57600080fd5b5061067860048036038101906106739190613fc5565b6117cc565b005b34801561068657600080fd5b506106a1600480360381019061069c9190614018565b611d41565b6040516106ae9190613542565b60405180910390f35b3480156106c357600080fd5b506106de60048036038101906106d99190614058565b611dd5565b005b3480156106ec57600080fd5b50610707600480360381019061070291906139fe565b611e76565b005b34801561071557600080fd5b50610730600480360381019061072b91906140ef565b611f6d565b005b34801561073e57600080fd5b506107596004803603810190610754919061355d565b611f71565b60405161076b9695949392919061412f565b60405180910390f35b34801561078057600080fd5b5061079b6004803603810190610796919061355d565b611fda565b6040516107a89190613487565b60405180910390f35b60006107bd8383611ffe565b905092915050565b60007fd9b67a26000000000000000000000000000000000000000000000000000000007bffffffffffffffffffffffffffffffffffffffffffffffffffffffff1916827bffffffffffffffffffffffffffffffffffffffffffffffffffffffff1916148061089057507f0e89341c000000000000000000000000000000000000000000000000000000007bffffffffffffffffffffffffffffffffffffffffffffffffffffffff1916827bffffffffffffffffffffffffffffffffffffffffffffffffffffffff1916145b806108a0575061089f826120c6565b5b9050919050565b6060600280546108b6906141bf565b80601f01602080910402602001604051908101604052809291908181526020018280546108e2906141bf565b801561092f5780601f106109045761010080835404028352916020019161092f565b820191906000526020600020905b81548152906001019060200180831161091257829003601f168201915b50505050509050919050565b600a60009054906101000a900473ffffffffffffffffffffffffffffffffffffffff1681565b610969612130565b73ffffffffffffffffffffffffffffffffffffffff168573ffffffffffffffffffffffffffffffffffffffff1614806109af57506109ae856109a9612130565b611d41565b5b6109ee576040517f08c379a00000000000000000000000000000000000000000000000000000000081526004016109e590614262565b60405180910390fd5b6109fb8585858585612138565b5050505050565b60086020528160005260406000206020528060005260406000206000915091509054906101000a900460ff1681565b600660009054906101000a900473ffffffffffffffffffffffffffffffffffffffff1681565b6000600b600083815260200190815260200160002054905060005b818111610b61573373ffffffffffffffffffffffffffffffffffffffff16600c6000858152602001908152602001600020600083815260200190815260200160002060000160009054906101000a900473ffffffffffffffffffffffffffffffffffffffff1673ffffffffffffffffffffffffffffffffffffffff1603610b4e576000600c60008581526020019081526020016000206000838152602001908152602001600020600101819055506000600c60008581526020019081526020016000206000838152602001908152602001600020600201819055505b8080610b59906142b1565b915050610a72565b507fb37fa1584b5a559c3935a3e74265f473fc90b084d550e9b389c91be5a69fcfa93383604051610b939291906142f9565b60405180910390a15050565b610baa816000611482565b50565b60608151835114610bf3576040517f08c379a0000000000000000000000000000000000000000000000000000000008152600401610bea90614394565b60405180910390fd5b6000835167ffffffffffffffff811115610c1057610c0f6136bb565b5b604051908082528060200260200182016040528015610c3e5781602001602082028036833780820191505090505b50905060005b8451811015610cbb57610c8b858281518110610c6357610c626143b4565b5b6020026020010151858381518110610c7e57610c7d6143b4565b5b60200260200101516107b1565b828281518110610c9e57610c9d6143b4565b5b60200260200101818152505080610cb4906142b1565b9050610c44565b508091505092915050565b6000600760008681526020019081526020016000206001015414610d1f576040517f08c379a0000000000000000000000000000000000000000000000000000000008152600401610d169061442f565b60405180910390fd5b3373ffffffffffffffffffffffffffffffffffffffff168673ffffffffffffffffffffffffffffffffffffffff1614610d8d576040517f08c379a0000000000000000000000000000000000000000000000000000000008152600401610d849061449b565b60405180910390fd5b60006040518060400160405280601381526020017f66756e6464696e6720697320736563636573730000000000000000000000000081525090506000610dd588868686612459565b9050806007600088815260200190815260200160002060008201518160000160006101000a81548173ffffffffffffffffffffffffffffffffffffffff021916908373ffffffffffffffffffffffffffffffffffffffff1602179055506020820151816001015560408201518160020155606082015181600301556080820151816004015560a08201518160050160006101000a81548160ff021916908315150217905550905050610e9888878760405180602001604052806000815250612535565b610ea3876001611482565b60048690806001815401808255809150506001900390600052602060002001600090919091909150557f8bdc0347739a882305e00b5fa613e8629b5da77a48abac45661315c45619c548338787878787604051610f05969594939291906144bb565b60405180910390a15050505050505050565b610f1f612130565b73ffffffffffffffffffffffffffffffffffffffff16610f3d61114d565b73ffffffffffffffffffffffffffffffffffffffff1614610f93576040517f08c379a0000000000000000000000000000000000000000000000000000000008152600401610f8a9061456f565b60405180910390fd5b610f9d60006126e5565b565b600560009054906101000a900473ffffffffffffffffffffffffffffffffffffffff1673ffffffffffffffffffffffffffffffffffffffff163373ffffffffffffffffffffffffffffffffffffffff1614610ff957600080fd5b6110048383836127ab565b505050565b6060600480548060200260200160405190810160405280929190818152602001828054801561105757602002820191906000526020600020905b815481526020019060010190808311611043575b5050505050905090565b60096020528060005260406000206000915090505481565b611084816001611482565b50565b61108f613304565b600760008381526020019081526020016000206040518060c00160405290816000820160009054906101000a900473ffffffffffffffffffffffffffffffffffffffff1673ffffffffffffffffffffffffffffffffffffffff1673ffffffffffffffffffffffffffffffffffffffff168152602001600182015481526020016002820154815260200160038201548152602001600482015481526020016005820160009054906101000a900460ff1615151515815250509050919050565b6000600360009054906101000a900473ffffffffffffffffffffffffffffffffffffffff16905090565b3373ffffffffffffffffffffffffffffffffffffffff16600c6000858152602001908152602001600020600083815260200190815260200160002060000160009054906101000a900473ffffffffffffffffffffffffffffffffffffffff1673ffffffffffffffffffffffffffffffffffffffff160361122c576040517f08c379a0000000000000000000000000000000000000000000000000000000008152600401611223906145db565b60405180910390fd5b6000821180156112635750600c60008481526020019081526020016000206000828152602001908152602001600020600101548211155b6112a2576040517f08c379a000000000000000000000000000000000000000000000000000000000815260040161129990614647565b60405180910390fd5b34600c6000858152602001908152602001600020600083815260200190815260200160002060020154836112d69190614667565b14611316576040517f08c379a000000000000000000000000000000000000000000000000000000000815260040161130d906146f5565b60405180910390fd5b600061133661132f600a346129f190919063ffffffff16565b6064612a07565b90508473ffffffffffffffffffffffffffffffffffffffff166108fc823461135e9190614715565b9081150290604051600060405180830381858888f19350505050158015611389573d6000803e3d6000fd5b5082600c60008681526020019081526020016000206000848152602001908152602001600020600101546113bd9190614715565b600c6000868152602001908152602001600020600084815260200190815260200160002060010181905550600a60009054906101000a900473ffffffffffffffffffffffffffffffffffffffff1673ffffffffffffffffffffffffffffffffffffffff1663f242432a863387876040518563ffffffff1660e01b815260040161144994939291906147a1565b600060405180830381600087803b15801561146357600080fd5b505af1158015611477573d6000803e3d6000fd5b505050505050505050565b61149461148d612130565b8383612a1d565b5050565b6000600b6000838152602001908152602001600020549050919050565b3373ffffffffffffffffffffffffffffffffffffffff168173ffffffffffffffffffffffffffffffffffffffff1614611523576040517f08c379a000000000000000000000000000000000000000000000000000000000815260040161151a90614845565b60405180910390fd5b80600560006101000a81548173ffffffffffffffffffffffffffffffffffffffff021916908373ffffffffffffffffffffffffffffffffffffffff16021790555080600660006101000a81548173ffffffffffffffffffffffffffffffffffffffff021916908373ffffffffffffffffffffffffffffffffffffffff16021790555050565b60006115ea6007600084815260200190815260200160002060000160009054906101000a900473ffffffffffffffffffffffffffffffffffffffff1683611ffe565b1461162a576040517f08c379a0000000000000000000000000000000000000000000000000000000008152600401611621906148b1565b60405180910390fd5b6007600082815260200190815260200160002060010154600660009054906101000a900473ffffffffffffffffffffffffffffffffffffffff1673ffffffffffffffffffffffffffffffffffffffff166349e5465c836040518263ffffffff1660e01b815260040161169c9190613487565b602060405180830381865afa1580156116b9573d6000803e3d6000fd5b505050506040513d601f19601f820116820180604052508101906116dd91906148e6565b146116e757600080fd5b60016007600083815260200190815260200160002060050160006101000a81548160ff02191690831515021790555050565b611721613352565b600c600084815260200190815260200160002060008381526020019081526020016000206040518060800160405290816000820160009054906101000a900473ffffffffffffffffffffffffffffffffffffffff1673ffffffffffffffffffffffffffffffffffffffff1673ffffffffffffffffffffffffffffffffffffffff1681526020016001820154815260200160028201548152602001600382015481525050905092915050565b826000600b600083815260200190815260200160002054905060005b8181116118ec576000600c60008581526020019081526020016000206000838152602001908152602001600020600101541415801561189957503373ffffffffffffffffffffffffffffffffffffffff16600c6000858152602001908152602001600020600083815260200190815260200160002060000160009054906101000a900473ffffffffffffffffffffffffffffffffffffffff1673ffffffffffffffffffffffffffffffffffffffff16145b156118d9576040517f08c379a00000000000000000000000000000000000000000000000000000000081526004016118d09061495f565b60405180910390fd5b80806118e4906142b1565b9150506117e8565b5083600a60009054906101000a900473ffffffffffffffffffffffffffffffffffffffff1673ffffffffffffffffffffffffffffffffffffffff1662fdd58e33886040518363ffffffff1660e01b815260040161194a9291906142f9565b602060405180830381865afa158015611967573d6000803e3d6000fd5b505050506040513d601f19601f8201168201806040525081019061198b91906148e6565b10156119cc576040517f08c379a00000000000000000000000000000000000000000000000000000000081526004016119c3906149cb565b60405180910390fd5b60008311611a0f576040517f08c379a0000000000000000000000000000000000000000000000000000000008152600401611a0690614a37565b60405180910390fd5b60008411611a52576040517f08c379a0000000000000000000000000000000000000000000000000000000008152600401611a4990614aa3565b60405180910390fd5b600a60009054906101000a900473ffffffffffffffffffffffffffffffffffffffff1673ffffffffffffffffffffffffffffffffffffffff1663e985e9c533306040518363ffffffff1660e01b8152600401611aaf929190614ac3565b602060405180830381865afa158015611acc573d6000803e3d6000fd5b505050506040513d601f19601f82011682018060405250810190611af09190614b01565b611b2f576040517f08c379a0000000000000000000000000000000000000000000000000000000008152600401611b2690614b7a565b60405180910390fd5b60011515600a60009054906101000a900473ffffffffffffffffffffffffffffffffffffffff1673ffffffffffffffffffffffffffffffffffffffff16638d63193d876040518263ffffffff1660e01b8152600401611b8e9190613487565b60c060405180830381865afa158015611bab573d6000803e3d6000fd5b505050506040513d601f19601f82011682018060405250810190611bcf9190614c54565b60a00151151514611c15576040517f08c379a0000000000000000000000000000000000000000000000000000000008152600401611c0c90614ccd565b60405180910390fd5b6000611c2333878787612b89565b905080600c60008881526020019081526020016000206000600b60008a815260200190815260200160002054815260200190815260200160002060008201518160000160006101000a81548173ffffffffffffffffffffffffffffffffffffffff021916908373ffffffffffffffffffffffffffffffffffffffff1602179055506020820151816001015560408201518160020155606082015181600301559050506001600b600088815260200190815260200160002054611ce59190614ced565b600b6000888152602001908152602001600020819055507ffd993c5a8b6fac3440f45a4aa08e8d39fc18d59f8d66435d7c2d108508035db433878787604051611d319493929190614d21565b60405180910390a1505050505050565b6000600160008473ffffffffffffffffffffffffffffffffffffffff1673ffffffffffffffffffffffffffffffffffffffff16815260200190815260200160002060008373ffffffffffffffffffffffffffffffffffffffff1673ffffffffffffffffffffffffffffffffffffffff16815260200190815260200160002060009054906101000a900460ff16905092915050565b611ddd612130565b73ffffffffffffffffffffffffffffffffffffffff168573ffffffffffffffffffffffffffffffffffffffff161480611e235750611e2285611e1d612130565b611d41565b5b611e62576040517f08c379a0000000000000000000000000000000000000000000000000000000008152600401611e5990614dd8565b60405180910390fd5b611e6f8585858585612c0e565b5050505050565b611e7e612130565b73ffffffffffffffffffffffffffffffffffffffff16611e9c61114d565b73ffffffffffffffffffffffffffffffffffffffff1614611ef2576040517f08c379a0000000000000000000000000000000000000000000000000000000008152600401611ee99061456f565b60405180910390fd5b600073ffffffffffffffffffffffffffffffffffffffff168173ffffffffffffffffffffffffffffffffffffffff1603611f61576040517f08c379a0000000000000000000000000000000000000000000000000000000008152600401611f5890614e6a565b60405180910390fd5b611f6a816126e5565b50565b5050565b60076020528060005260406000206000915090508060000160009054906101000a900473ffffffffffffffffffffffffffffffffffffffff16908060010154908060020154908060030154908060040154908060050160009054906101000a900460ff16905086565b60048181548110611fea57600080fd5b906000526020600020016000915090505481565b60008073ffffffffffffffffffffffffffffffffffffffff168373ffffffffffffffffffffffffffffffffffffffff160361206e576040517f08c379a000000000000000000000000000000000000000000000000000000000815260040161206590614efc565b60405180910390fd5b60008083815260200190815260200160002060008473ffffffffffffffffffffffffffffffffffffffff1673ffffffffffffffffffffffffffffffffffffffff16815260200190815260200160002054905092915050565b60007f01ffc9a7000000000000000000000000000000000000000000000000000000007bffffffffffffffffffffffffffffffffffffffffffffffffffffffff1916827bffffffffffffffffffffffffffffffffffffffffffffffffffffffff1916149050919050565b600033905090565b815183511461217c576040517f08c379a000000000000000000000000000000000000000000000000000000000815260040161217390614f8e565b60405180910390fd5b600073ffffffffffffffffffffffffffffffffffffffff168473ffffffffffffffffffffffffffffffffffffffff16036121eb576040517f08c379a00000000000000000000000000000000000000000000000000000000081526004016121e290615020565b60405180910390fd5b60006121f5612130565b9050612205818787878787612ea9565b60005b84518110156123b6576000858281518110612226576122256143b4565b5b602002602001015190506000858381518110612245576122446143b4565b5b60200260200101519050600080600084815260200190815260200160002060008b73ffffffffffffffffffffffffffffffffffffffff1673ffffffffffffffffffffffffffffffffffffffff168152602001908152602001600020549050818110156122e6576040517f08c379a00000000000000000000000000000000000000000000000000000000081526004016122dd906150b2565b60405180910390fd5b81810360008085815260200190815260200160002060008c73ffffffffffffffffffffffffffffffffffffffff1673ffffffffffffffffffffffffffffffffffffffff168152602001908152602001600020819055508160008085815260200190815260200160002060008b73ffffffffffffffffffffffffffffffffffffffff1673ffffffffffffffffffffffffffffffffffffffff168152602001908152602001600020600082825461239b9190614ced565b92505081905550505050806123af906142b1565b9050612208565b508473ffffffffffffffffffffffffffffffffffffffff168673ffffffffffffffffffffffffffffffffffffffff168273ffffffffffffffffffffffffffffffffffffffff167f4a39dc06d4c0dbc64b70af90fd698a233a518aa5d07e595d983b8c0526c8f7fb878760405161242d9291906150d2565b60405180910390a4612443818787878787612eb1565b612451818787878787612eb9565b505050505050565b612461613304565b612469613304565b600085670de0b6b3a7640000866124809190614667565b61248a9190615138565b905086826000019073ffffffffffffffffffffffffffffffffffffffff16908173ffffffffffffffffffffffffffffffffffffffff168152505085826020018181525050670de0b6b3a7640000856124e29190614667565b82604001818152505080826060018181525050836121c06125039190614667565b4261250e9190614ced565b82608001818152505060008260a00190151590811515815250508192505050949350505050565b600073ffffffffffffffffffffffffffffffffffffffff168473ffffffffffffffffffffffffffffffffffffffff16036125a4576040517f08c379a000000000000000000000000000000000000000000000000000000000815260040161259b906151db565b60405180910390fd5b60006125ae612130565b905060006125bb85613090565b905060006125c885613090565b90506125d983600089858589612ea9565b8460008088815260200190815260200160002060008973ffffffffffffffffffffffffffffffffffffffff1673ffffffffffffffffffffffffffffffffffffffff16815260200190815260200160002060008282546126389190614ced565b925050819055508673ffffffffffffffffffffffffffffffffffffffff16600073ffffffffffffffffffffffffffffffffffffffff168473ffffffffffffffffffffffffffffffffffffffff167fc3d58168c5ae7397731d063d5bbf3d657854427343f4c083240f7aacaa2d0f6289896040516126b69291906151fb565b60405180910390a46126cd83600089858589612eb1565b6126dc8360008989898961310a565b50505050505050565b6000600360009054906101000a900473ffffffffffffffffffffffffffffffffffffffff16905081600360006101000a81548173ffffffffffffffffffffffffffffffffffffffff021916908373ffffffffffffffffffffffffffffffffffffffff1602179055508173ffffffffffffffffffffffffffffffffffffffff168173ffffffffffffffffffffffffffffffffffffffff167f8be0079c531659141344cd1fd0a4f28419497f9722a3daafe3b4186f6b6457e060405160405180910390a35050565b600073ffffffffffffffffffffffffffffffffffffffff168373ffffffffffffffffffffffffffffffffffffffff160361281a576040517f08c379a000000000000000000000000000000000000000000000000000000000815260040161281190615296565b60405180910390fd5b6000612824612130565b9050600061283184613090565b9050600061283e84613090565b905061285e83876000858560405180602001604052806000815250612ea9565b600080600087815260200190815260200160002060008873ffffffffffffffffffffffffffffffffffffffff1673ffffffffffffffffffffffffffffffffffffffff168152602001908152602001600020549050848110156128f5576040517f08c379a00000000000000000000000000000000000000000000000000000000081526004016128ec90615328565b60405180910390fd5b84810360008088815260200190815260200160002060008973ffffffffffffffffffffffffffffffffffffffff1673ffffffffffffffffffffffffffffffffffffffff16815260200190815260200160002081905550600073ffffffffffffffffffffffffffffffffffffffff168773ffffffffffffffffffffffffffffffffffffffff168573ffffffffffffffffffffffffffffffffffffffff167fc3d58168c5ae7397731d063d5bbf3d657854427343f4c083240f7aacaa2d0f6289896040516129c29291906151fb565b60405180910390a46129e884886000868660405180602001604052806000815250612eb1565b50505050505050565b600081836129ff9190614667565b905092915050565b60008183612a159190615138565b905092915050565b8173ffffffffffffffffffffffffffffffffffffffff168373ffffffffffffffffffffffffffffffffffffffff1603612a8b576040517f08c379a0000000000000000000000000000000000000000000000000000000008152600401612a82906153ba565b60405180910390fd5b80600160008573ffffffffffffffffffffffffffffffffffffffff1673ffffffffffffffffffffffffffffffffffffffff16815260200190815260200160002060008473ffffffffffffffffffffffffffffffffffffffff1673ffffffffffffffffffffffffffffffffffffffff16815260200190815260200160002060006101000a81548160ff0219169083151502179055508173ffffffffffffffffffffffffffffffffffffffff168373ffffffffffffffffffffffffffffffffffffffff167f17307eab39ab6107e8899845ad3d59bd9653f200f220920489ca2b5937696c3183604051612b7c9190613542565b60405180910390a3505050565b612b91613352565b612b99613352565b85816000019073ffffffffffffffffffffffffffffffffffffffff16908173ffffffffffffffffffffffffffffffffffffffff16815250508381602001818152505082816040018181525050600b60008681526020019081526020016000205481606001818152505080915050949350505050565b600073ffffffffffffffffffffffffffffffffffffffff168473ffffffffffffffffffffffffffffffffffffffff1603612c7d576040517f08c379a0000000000000000000000000000000000000000000000000000000008152600401612c7490615020565b60405180910390fd5b6000612c87612130565b90506000612c9485613090565b90506000612ca185613090565b9050612cb1838989858589612ea9565b600080600088815260200190815260200160002060008a73ffffffffffffffffffffffffffffffffffffffff1673ffffffffffffffffffffffffffffffffffffffff16815260200190815260200160002054905085811015612d48576040517f08c379a0000000000000000000000000000000000000000000000000000000008152600401612d3f906150b2565b60405180910390fd5b85810360008089815260200190815260200160002060008b73ffffffffffffffffffffffffffffffffffffffff1673ffffffffffffffffffffffffffffffffffffffff168152602001908152602001600020819055508560008089815260200190815260200160002060008a73ffffffffffffffffffffffffffffffffffffffff1673ffffffffffffffffffffffffffffffffffffffff1681526020019081526020016000206000828254612dfd9190614ced565b925050819055508773ffffffffffffffffffffffffffffffffffffffff168973ffffffffffffffffffffffffffffffffffffffff168573ffffffffffffffffffffffffffffffffffffffff167fc3d58168c5ae7397731d063d5bbf3d657854427343f4c083240f7aacaa2d0f628a8a604051612e7a9291906151fb565b60405180910390a4612e90848a8a86868a612eb1565b612e9e848a8a8a8a8a61310a565b505050505050505050565b505050505050565b505050505050565b612ed88473ffffffffffffffffffffffffffffffffffffffff166132e1565b15613088578373ffffffffffffffffffffffffffffffffffffffff1663bc197c8187878686866040518663ffffffff1660e01b8152600401612f1e95949392919061541e565b6020604051808303816000875af1925050508015612f5a57506040513d601f19601f82011682018060405250810190612f57919061549b565b60015b612fff57612f666154d5565b806308c379a003612fc25750612f7a6154f7565b80612f855750612fc4565b806040517f08c379a0000000000000000000000000000000000000000000000000000000008152600401612fb9919061361a565b60405180910390fd5b505b6040517f08c379a0000000000000000000000000000000000000000000000000000000008152600401612ff6906155f9565b60405180910390fd5b63bc197c8160e01b7bffffffffffffffffffffffffffffffffffffffffffffffffffffffff1916817bffffffffffffffffffffffffffffffffffffffffffffffffffffffff191614613086576040517f08c379a000000000000000000000000000000000000000000000000000000000815260040161307d9061568b565b60405180910390fd5b505b505050505050565b60606000600167ffffffffffffffff8111156130af576130ae6136bb565b5b6040519080825280602002602001820160405280156130dd5781602001602082028036833780820191505090505b50905082816000815181106130f5576130f46143b4565b5b60200260200101818152505080915050919050565b6131298473ffffffffffffffffffffffffffffffffffffffff166132e1565b156132d9578373ffffffffffffffffffffffffffffffffffffffff1663f23a6e6187878686866040518663ffffffff1660e01b815260040161316f9594939291906156ab565b6020604051808303816000875af19250505080156131ab57506040513d601f19601f820116820180604052508101906131a8919061549b565b60015b613250576131b76154d5565b806308c379a00361321357506131cb6154f7565b806131d65750613215565b806040517f08c379a000000000000000000000000000000000000000000000000000000000815260040161320a919061361a565b60405180910390fd5b505b6040517f08c379a0000000000000000000000000000000000000000000000000000000008152600401613247906155f9565b60405180910390fd5b63f23a6e6160e01b7bffffffffffffffffffffffffffffffffffffffffffffffffffffffff1916817bffffffffffffffffffffffffffffffffffffffffffffffffffffffff1916146132d7576040517f08c379a00000000000000000000000000000000000000000000000000000000081526004016132ce9061568b565b60405180910390fd5b505b505050505050565b6000808273ffffffffffffffffffffffffffffffffffffffff163b119050919050565b6040518060c00160405280600073ffffffffffffffffffffffffffffffffffffffff168152602001600081526020016000815260200160008152602001600081526020016000151581525090565b6040518060800160405280600073ffffffffffffffffffffffffffffffffffffffff1681526020016000815260200160008152602001600081525090565b6000604051905090565b600080fd5b600080fd5b600073ffffffffffffffffffffffffffffffffffffffff82169050919050565b60006133cf826133a4565b9050919050565b6133df816133c4565b81146133ea57600080fd5b50565b6000813590506133fc816133d6565b92915050565b6000819050919050565b61341581613402565b811461342057600080fd5b50565b6000813590506134328161340c565b92915050565b6000806040838503121561344f5761344e61339a565b5b600061345d858286016133ed565b925050602061346e85828601613423565b9150509250929050565b61348181613402565b82525050565b600060208201905061349c6000830184613478565b92915050565b60007fffffffff0000000000000000000000000000000000000000000000000000000082169050919050565b6134d7816134a2565b81146134e257600080fd5b50565b6000813590506134f4816134ce565b92915050565b6000602082840312156135105761350f61339a565b5b600061351e848285016134e5565b91505092915050565b60008115159050919050565b61353c81613527565b82525050565b60006020820190506135576000830184613533565b92915050565b6000602082840312156135735761357261339a565b5b600061358184828501613423565b91505092915050565b600081519050919050565b600082825260208201905092915050565b60005b838110156135c45780820151818401526020810190506135a9565b60008484015250505050565b6000601f19601f8301169050919050565b60006135ec8261358a565b6135f68185613595565b93506136068185602086016135a6565b61360f816135d0565b840191505092915050565b6000602082019050818103600083015261363481846135e1565b905092915050565b6000819050919050565b600061366161365c613657846133a4565b61363c565b6133a4565b9050919050565b600061367382613646565b9050919050565b600061368582613668565b9050919050565b6136958161367a565b82525050565b60006020820190506136b0600083018461368c565b92915050565b600080fd5b7f4e487b7100000000000000000000000000000000000000000000000000000000600052604160045260246000fd5b6136f3826135d0565b810181811067ffffffffffffffff82111715613712576137116136bb565b5b80604052505050565b6000613725613390565b905061373182826136ea565b919050565b600067ffffffffffffffff821115613751576137506136bb565b5b602082029050602081019050919050565b600080fd5b600061377a61377584613736565b61371b565b9050808382526020820190506020840283018581111561379d5761379c613762565b5b835b818110156137c657806137b28882613423565b84526020840193505060208101905061379f565b5050509392505050565b600082601f8301126137e5576137e46136b6565b5b81356137f5848260208601613767565b91505092915050565b600080fd5b600067ffffffffffffffff82111561381e5761381d6136bb565b5b613827826135d0565b9050602081019050919050565b82818337600083830152505050565b600061385661385184613803565b61371b565b905082815260208101848484011115613872576138716137fe565b5b61387d848285613834565b509392505050565b600082601f83011261389a576138996136b6565b5b81356138aa848260208601613843565b91505092915050565b600080600080600060a086880312156138cf576138ce61339a565b5b60006138dd888289016133ed565b95505060206138ee888289016133ed565b945050604086013567ffffffffffffffff81111561390f5761390e61339f565b5b61391b888289016137d0565b935050606086013567ffffffffffffffff81111561393c5761393b61339f565b5b613948888289016137d0565b925050608086013567ffffffffffffffff8111156139695761396861339f565b5b61397588828901613885565b9150509295509295909350565b600080604083850312156139995761399861339a565b5b60006139a785828601613423565b92505060206139b8858286016133ed565b9150509250929050565b60006139cd82613668565b9050919050565b6139dd816139c2565b82525050565b60006020820190506139f860008301846139d4565b92915050565b600060208284031215613a1457613a1361339a565b5b6000613a22848285016133ed565b91505092915050565b600067ffffffffffffffff821115613a4657613a456136bb565b5b602082029050602081019050919050565b6000613a6a613a6584613a2b565b61371b565b90508083825260208201905060208402830185811115613a8d57613a8c613762565b5b835b81811015613ab65780613aa288826133ed565b845260208401935050602081019050613a8f565b5050509392505050565b600082601f830112613ad557613ad46136b6565b5b8135613ae5848260208601613a57565b91505092915050565b60008060408385031215613b0557613b0461339a565b5b600083013567ffffffffffffffff811115613b2357613b2261339f565b5b613b2f85828601613ac0565b925050602083013567ffffffffffffffff811115613b5057613b4f61339f565b5b613b5c858286016137d0565b9150509250929050565b600081519050919050565b600082825260208201905092915050565b6000819050602082019050919050565b613b9b81613402565b82525050565b6000613bad8383613b92565b60208301905092915050565b6000602082019050919050565b6000613bd182613b66565b613bdb8185613b71565b9350613be683613b82565b8060005b83811015613c17578151613bfe8882613ba1565b9750613c0983613bb9565b925050600181019050613bea565b5085935050505092915050565b60006020820190508181036000830152613c3e8184613bc6565b905092915050565b60008060008060008060c08789031215613c6357613c6261339a565b5b6000613c7189828a016133ed565b9650506020613c8289828a016133ed565b9550506040613c9389828a01613423565b9450506060613ca489828a01613423565b9350506080613cb589828a01613423565b92505060a0613cc689828a01613423565b9150509295509295509295565b600080600060608486031215613cec57613ceb61339a565b5b6000613cfa868287016133ed565b9350506020613d0b86828701613423565b9250506040613d1c86828701613423565b9150509250925092565b613d2f816133c4565b82525050565b613d3e81613527565b82525050565b60c082016000820151613d5a6000850182613d26565b506020820151613d6d6020850182613b92565b506040820151613d806040850182613b92565b506060820151613d936060850182613b92565b506080820151613da66080850182613b92565b5060a0820151613db960a0850182613d35565b50505050565b600060c082019050613dd46000830184613d44565b92915050565b613de3816133c4565b82525050565b6000602082019050613dfe6000830184613dda565b92915050565b6000613e0f826133a4565b9050919050565b613e1f81613e04565b8114613e2a57600080fd5b50565b600081359050613e3c81613e16565b92915050565b60008060008060808587031215613e5c57613e5b61339a565b5b6000613e6a87828801613e2d565b9450506020613e7b87828801613423565b9350506040613e8c87828801613423565b9250506060613e9d87828801613423565b91505092959194509250565b613eb281613527565b8114613ebd57600080fd5b50565b600081359050613ecf81613ea9565b92915050565b60008060408385031215613eec57613eeb61339a565b5b6000613efa858286016133ed565b9250506020613f0b85828601613ec0565b9150509250929050565b60008060408385031215613f2c57613f2b61339a565b5b6000613f3a85828601613423565b9250506020613f4b85828601613423565b9150509250929050565b608082016000820151613f6b6000850182613d26565b506020820151613f7e6020850182613b92565b506040820151613f916040850182613b92565b506060820151613fa46060850182613b92565b50505050565b6000608082019050613fbf6000830184613f55565b92915050565b600080600060608486031215613fde57613fdd61339a565b5b6000613fec86828701613423565b9350506020613ffd86828701613423565b925050604061400e86828701613423565b9150509250925092565b6000806040838503121561402f5761402e61339a565b5b600061403d858286016133ed565b925050602061404e858286016133ed565b9150509250929050565b600080600080600060a086880312156140745761407361339a565b5b6000614082888289016133ed565b9550506020614093888289016133ed565b94505060406140a488828901613423565b93505060606140b588828901613423565b925050608086013567ffffffffffffffff8111156140d6576140d561339f565b5b6140e288828901613885565b9150509295509295909350565b600080604083850312156141065761410561339a565b5b600061411485828601613423565b925050602061412585828601613ec0565b9150509250929050565b600060c0820190506141446000830189613dda565b6141516020830188613478565b61415e6040830187613478565b61416b6060830186613478565b6141786080830185613478565b61418560a0830184613533565b979650505050505050565b7f4e487b7100000000000000000000000000000000000000000000000000000000600052602260045260246000fd5b600060028204905060018216806141d757607f821691505b6020821081036141ea576141e9614190565b5b50919050565b7f455243313135353a207472616e736665722063616c6c6572206973206e6f742060008201527f6f776e6572206e6f7220617070726f7665640000000000000000000000000000602082015250565b600061424c603283613595565b9150614257826141f0565b604082019050919050565b6000602082019050818103600083015261427b8161423f565b9050919050565b7f4e487b7100000000000000000000000000000000000000000000000000000000600052601160045260246000fd5b60006142bc82613402565b91507fffffffffffffffffffffffffffffffffffffffffffffffffffffffffffffffff82036142ee576142ed614282565b5b600182019050919050565b600060408201905061430e6000830185613dda565b61431b6020830184613478565b9392505050565b7f455243313135353a206163636f756e747320616e6420696473206c656e67746860008201527f206d69736d617463680000000000000000000000000000000000000000000000602082015250565b600061437e602983613595565b915061438982614322565b604082019050919050565b600060208201905081810360008301526143ad81614371565b9050919050565b7f4e487b7100000000000000000000000000000000000000000000000000000000600052603260045260246000fd5b7f6861766520616c7265616479206265656e206973737565640000000000000000600082015250565b6000614419601883613595565b9150614424826143e3565b602082019050919050565b600060208201905081810360008301526144488161440c565b9050919050565b7f49742773206e6f7420796f752e00000000000000000000000000000000000000600082015250565b6000614485600d83613595565b91506144908261444f565b602082019050919050565b600060208201905081810360008301526144b481614478565b9050919050565b600060c0820190506144d06000830189613dda565b6144dd6020830188613478565b6144ea6040830187613478565b6144f76060830186613478565b6145046080830185613478565b81810360a083015261451681846135e1565b9050979650505050505050565b7f4f776e61626c653a2063616c6c6572206973206e6f7420746865206f776e6572600082015250565b6000614559602083613595565b915061456482614523565b602082019050919050565b600060208201905081810360008301526145888161454c565b9050919050565b7f492063616e277420627579206d7973656c662e00000000000000000000000000600082015250565b60006145c5601383613595565b91506145d08261458f565b602082019050919050565b600060208201905081810360008301526145f4816145b8565b9050919050565b7f436865636b20616d6f756e740000000000000000000000000000000000000000600082015250565b6000614631600c83613595565b915061463c826145fb565b602082019050919050565b6000602082019050818103600083015261466081614624565b9050919050565b600061467282613402565b915061467d83613402565b925082820261468b81613402565b915082820484148315176146a2576146a1614282565b5b5092915050565b7f436865636b20746865206d6f6e657920616761696e2e00000000000000000000600082015250565b60006146df601683613595565b91506146ea826146a9565b602082019050919050565b6000602082019050818103600083015261470e816146d2565b9050919050565b600061472082613402565b915061472b83613402565b925082820390508181111561474357614742614282565b5b92915050565b600061475482613668565b9050919050565b61476481614749565b82525050565b600082825260208201905092915050565b50565b600061478b60008361476a565b91506147968261477b565b600082019050919050565b600060a0820190506147b6600083018761475b565b6147c36020830186613dda565b6147d06040830185613478565b6147dd6060830184613478565b81810360808301526147ee8161477e565b905095945050505050565b7f3f3f3f3f00000000000000000000000000000000000000000000000000000000600082015250565b600061482f600483613595565b915061483a826147f9565b602082019050919050565b6000602082019050818103600083015261485e81614822565b9050919050565b7f497320697420736f6c64206f75743f0000000000000000000000000000000000600082015250565b600061489b600f83613595565b91506148a682614865565b602082019050919050565b600060208201905081810360008301526148ca8161488e565b9050919050565b6000815190506148e08161340c565b92915050565b6000602082840312156148fc576148fb61339a565b5b600061490a848285016148d1565b91505092915050565b7f43616e63656c207468652073616c6573206f726465722e000000000000000000600082015250565b6000614949601783613595565b915061495482614913565b602082019050919050565b600060208201905081810360008301526149788161493c565b9050919050565b7f506c6561736520656e74657220746865206578616374207175616e746974792e600082015250565b60006149b5602083613595565b91506149c08261497f565b602082019050919050565b600060208201905081810360008301526149e4816149a8565b9050919050565b7f506c6561736520656e7465722074686520636f72726563742070726963652e00600082015250565b6000614a21601f83613595565b9150614a2c826149eb565b602082019050919050565b60006020820190508181036000830152614a5081614a14565b9050919050565b7f506c6561736520656e7465722074686520636f727265637420616d6f756e742e600082015250565b6000614a8d602083613595565b9150614a9882614a57565b602082019050919050565b60006020820190508181036000830152614abc81614a80565b9050919050565b6000604082019050614ad86000830185613dda565b614ae56020830184613dda565b9392505050565b600081519050614afb81613ea9565b92915050565b600060208284031215614b1757614b1661339a565b5b6000614b2584828501614aec565b91505092915050565b7f6265206e6f7420617070726f7665640000000000000000000000000000000000600082015250565b6000614b64600f83613595565b9150614b6f82614b2e565b602082019050919050565b60006020820190508181036000830152614b9381614b57565b9050919050565b600080fd5b600081519050614bae816133d6565b92915050565b600060c08284031215614bca57614bc9614b9a565b5b614bd460c061371b565b90506000614be484828501614b9f565b6000830152506020614bf8848285016148d1565b6020830152506040614c0c848285016148d1565b6040830152506060614c20848285016148d1565b6060830152506080614c34848285016148d1565b60808301525060a0614c4884828501614aec565b60a08301525092915050565b600060c08284031215614c6a57614c6961339a565b5b6000614c7884828501614bb4565b91505092915050565b7f697320537563636573733f000000000000000000000000000000000000000000600082015250565b6000614cb7600b83613595565b9150614cc282614c81565b602082019050919050565b60006020820190508181036000830152614ce681614caa565b9050919050565b6000614cf882613402565b9150614d0383613402565b9250828201905080821115614d1b57614d1a614282565b5b92915050565b6000608082019050614d366000830187613dda565b614d436020830186613478565b614d506040830185613478565b614d5d6060830184613478565b95945050505050565b7f455243313135353a2063616c6c6572206973206e6f74206f776e6572206e6f7260008201527f20617070726f7665640000000000000000000000000000000000000000000000602082015250565b6000614dc2602983613595565b9150614dcd82614d66565b604082019050919050565b60006020820190508181036000830152614df181614db5565b9050919050565b7f4f776e61626c653a206e6577206f776e657220697320746865207a65726f206160008201527f6464726573730000000000000000000000000000000000000000000000000000602082015250565b6000614e54602683613595565b9150614e5f82614df8565b604082019050919050565b60006020820190508181036000830152614e8381614e47565b9050919050565b7f455243313135353a2062616c616e636520717565727920666f7220746865207a60008201527f65726f2061646472657373000000000000000000000000000000000000000000602082015250565b6000614ee6602b83613595565b9150614ef182614e8a565b604082019050919050565b60006020820190508181036000830152614f1581614ed9565b9050919050565b7f455243313135353a2069647320616e6420616d6f756e7473206c656e6774682060008201527f6d69736d61746368000000000000000000000000000000000000000000000000602082015250565b6000614f78602883613595565b9150614f8382614f1c565b604082019050919050565b60006020820190508181036000830152614fa781614f6b565b9050919050565b7f455243313135353a207472616e7366657220746f20746865207a65726f20616460008201527f6472657373000000000000000000000000000000000000000000000000000000602082015250565b600061500a602583613595565b915061501582614fae565b604082019050919050565b6000602082019050818103600083015261503981614ffd565b9050919050565b7f455243313135353a20696e73756666696369656e742062616c616e636520666f60008201527f72207472616e7366657200000000000000000000000000000000000000000000602082015250565b600061509c602a83613595565b91506150a782615040565b604082019050919050565b600060208201905081810360008301526150cb8161508f565b9050919050565b600060408201905081810360008301526150ec8185613bc6565b905081810360208301526151008184613bc6565b90509392505050565b7f4e487b7100000000000000000000000000000000000000000000000000000000600052601260045260246000fd5b600061514382613402565b915061514e83613402565b92508261515e5761515d615109565b5b828204905092915050565b7f455243313135353a206d696e7420746f20746865207a65726f2061646472657360008201527f7300000000000000000000000000000000000000000000000000000000000000602082015250565b60006151c5602183613595565b91506151d082615169565b604082019050919050565b600060208201905081810360008301526151f4816151b8565b9050919050565b60006040820190506152106000830185613478565b61521d6020830184613478565b9392505050565b7f455243313135353a206275726e2066726f6d20746865207a65726f206164647260008201527f6573730000000000000000000000000000000000000000000000000000000000602082015250565b6000615280602383613595565b915061528b82615224565b604082019050919050565b600060208201905081810360008301526152af81615273565b9050919050565b7f455243313135353a206275726e20616d6f756e7420657863656564732062616c60008201527f616e636500000000000000000000000000000000000000000000000000000000602082015250565b6000615312602483613595565b915061531d826152b6565b604082019050919050565b6000602082019050818103600083015261534181615305565b9050919050565b7f455243313135353a2073657474696e6720617070726f76616c2073746174757360008201527f20666f722073656c660000000000000000000000000000000000000000000000602082015250565b60006153a4602983613595565b91506153af82615348565b604082019050919050565b600060208201905081810360008301526153d381615397565b9050919050565b600081519050919050565b60006153f0826153da565b6153fa818561476a565b935061540a8185602086016135a6565b615413816135d0565b840191505092915050565b600060a0820190506154336000830188613dda565b6154406020830187613dda565b81810360408301526154528186613bc6565b905081810360608301526154668185613bc6565b9050818103608083015261547a81846153e5565b90509695505050505050565b600081519050615495816134ce565b92915050565b6000602082840312156154b1576154b061339a565b5b60006154bf84828501615486565b91505092915050565b60008160e01c9050919050565b600060033d11156154f45760046000803e6154f16000516154c8565b90505b90565b600060443d1061558457615509613390565b60043d036004823e80513d602482011167ffffffffffffffff82111715615531575050615584565b808201805167ffffffffffffffff81111561554f5750505050615584565b80602083010160043d03850181111561556c575050505050615584565b61557b826020018501866136ea565b82955050505050505b90565b7f455243313135353a207472616e7366657220746f206e6f6e204552433131353560008201527f526563656976657220696d706c656d656e746572000000000000000000000000602082015250565b60006155e3603483613595565b91506155ee82615587565b604082019050919050565b60006020820190508181036000830152615612816155d6565b9050919050565b7f455243313135353a204552433131353552656365697665722072656a6563746560008201527f6420746f6b656e73000000000000000000000000000000000000000000000000602082015250565b6000615675602883613595565b915061568082615619565b604082019050919050565b600060208201905081810360008301526156a481615668565b9050919050565b600060a0820190506156c06000830188613dda565b6156cd6020830187613dda565b6156da6040830186613478565b6156e76060830185613478565b81810360808301526156f981846153e5565b9050969550505050505056fea26469706673582212207eccec7947612221b7f23883412c292c383f101711214bf78d7302271ec2d3cb64736f6c63430008110033",
  "immutableReferences": {},
  "source": "// SPDX-License-Identifier: MIT\r\npragma solidity ^0.8.17;\r\n\r\nimport \"../node_modules/openzeppelin-solidity/contracts/utils/math/SafeMath.sol\";\r\n// import \"@openzeppelin/contracts/utils/math/SafeMath.sol\";\r\n\r\nimport \"./DtsToken.sol\";\r\n\r\ncontract SaleToken is DtsToken{\r\n\r\n    using SafeMath for uint256;\r\n\r\n    // DtsToken.sol    \r\n    DtsToken public DToken;\r\n\r\n    constructor(address DtsTokenCA){\r\n        //   DtsToken CA  DToken  .\r\n        DToken = DtsToken(DtsTokenCA);\r\n    }\r\n\r\n    //  nft   \r\n    struct SaleTokenInfo{\r\n        //  \r\n        address account;\r\n        //  \r\n        uint256 amount;\r\n        //  \r\n        uint256 price;\r\n        //   Id (    id .)\r\n        uint256 listId;\r\n    }\r\n\r\n    //   id      \r\n    mapping (uint256 => uint256) private _saleNumber;\r\n\r\n    //  Id        \r\n    mapping (uint256 => mapping (uint256 => SaleTokenInfo)) private _saleTokenList;\r\n\r\n    // //        \r\n    // SaleTokenInfo[] private _saleTokenList;\r\n\r\n    //  \r\n    event SaleEvent(address account, uint256 tokenId, uint256 amount, uint256 price);\r\n    event CancelEvent(address account, uint256);\r\n\r\n    //   \r\n    function salesToken(uint256 tokenId ,uint256 amount, uint256 price) public isSaleError(tokenId){\r\n        //        .\r\n        require(DToken.balanceOf(msg.sender, tokenId) >= amount, \"Please enter the exact quantity.\");\r\n        //   0   \r\n        require(price > 0,\"Please enter the correct price.\");\r\n        //   0   \r\n        require(amount > 0,\"Please enter the correct amount.\");\r\n        //    .\r\n        require(DToken.isApprovedForAll(msg.sender,address(this)),\"be not approved\");\r\n        //    \r\n        require(DToken.getTokenOwnerData(tokenId).isSuccess == true,\"is Success?\");\r\n\r\n        SaleTokenInfo memory data = _getSalesTokenData(msg.sender, tokenId, amount, price);\r\n        _saleTokenList[tokenId][_saleNumber[tokenId]] = data;\r\n        _saleNumber[tokenId] = _saleNumber[tokenId] + 1;\r\n        emit SaleEvent(msg.sender, tokenId, amount, price);\r\n    }\r\n\r\n    //    \r\n    function _getSalesTokenData(address _account,uint256 tokenId, uint256 _amount, uint256 _price) private view returns(SaleTokenInfo memory){\r\n        SaleTokenInfo memory data;\r\n\r\n        data.account = _account;\r\n        data.amount = _amount;\r\n        data.price = _price;\r\n        data.listId = _saleNumber[tokenId];\r\n\r\n        return data;\r\n    }\r\n\r\n    //   \r\n    function cancelSalesToken(uint256 tokenId) public {\r\n        uint256 _saleNumberLength = _saleNumber[tokenId];\r\n        for(uint256 i = 0; i <= _saleNumberLength; i++){\r\n            if(_saleTokenList[tokenId][i].account == msg.sender){\r\n               _saleTokenList[tokenId][i].amount = 0;\r\n               _saleTokenList[tokenId][i].price = 0;\r\n            }\r\n        }\r\n        emit CancelEvent(msg.sender,tokenId);\r\n    }\r\n\r\n    //     view \r\n    function saleNumberList(uint256 tokenId) public view returns(uint256){\r\n        return _saleNumber[tokenId];\r\n    }\r\n\r\n    //     view\r\n    function getSalesTokenListAll(uint256 tokenId,uint saleNum) public view returns(SaleTokenInfo memory){\r\n        return _saleTokenList[tokenId][saleNum];\r\n    }\r\n\r\n    //  \r\n    function purchaseToken(address payable owner, uint256 tokenId, uint256 amount, uint256 listId) public payable {\r\n        //  nft   .\r\n        require(_saleTokenList[tokenId][listId].account != msg.sender,\"I can't buy myself.\");\r\n        //    0      .\r\n        require(amount > 0 && amount <= _saleTokenList[tokenId][listId].amount,\"Check amount\");\r\n        //      .\r\n        require(amount * _saleTokenList[tokenId][listId].price == msg.value, \"Check the money again.\");\r\n        //    (10%)\r\n        uint256 Payment = SafeMath.div(msg.value.mul(10),100);\r\n        //      .\r\n        owner.transfer(msg.value - Payment);\r\n\r\n        //    \r\n        _saleTokenList[tokenId][listId].amount = _saleTokenList[tokenId][listId].amount - amount;\r\n\r\n        DToken.safeTransferFrom(owner, msg.sender, tokenId, amount, \"\");\r\n    }\r\n\r\n    //       .   amount 0      .\r\n    modifier isSaleError(uint256 tokenId) {\r\n        uint256 _saleNumberLength = _saleNumber[tokenId];\r\n        for(uint256 i = 0; i <= _saleNumberLength; i++){\r\n            if(_saleTokenList[tokenId][i].amount != 0 && _saleTokenList[tokenId][i].account == msg.sender){\r\n               revert(\"Cancel the sales order.\");\r\n            }\r\n        }\r\n        _;\r\n    }\r\n\r\n    // //    <<   ..   \r\n    // function cancelSalesToken(uint256 tokenId) public {\r\n    //     for (uint256 i = 0; i < _saleTokenList.length; i++) {\r\n    //         if(_saleTokenList[i].tokenId == tokenId && _saleTokenList[i].account == msg.sender){\r\n    //             _saleTokenList[i] = _saleTokenList[_saleTokenList.length -1];\r\n    //             _saleTokenList.pop();\r\n    //             delete _saleToken[tokenId][msg.sender];\r\n    //         }\r\n    //     }\r\n    // }\r\n\r\n    // //      view <<     \r\n    // function getSalesTokenListAll(uint256 tokenId) public view returns(SaleTokenInfo[] memory){\r\n    //     //  list     id     .\r\n    //     SaleTokenInfo[] memory list = new SaleTokenInfo[](_saleTokenList.length);\r\n    //     uint256 a = 0;\r\n    //     for (uint256 i = 0; i < _saleTokenList.length; i++) {\r\n    //         if(_saleTokenList[i].tokenId == tokenId){\r\n    //             list[a] = (_saleTokenList[i]);\r\n    //             a++;\r\n    //         }\r\n    //     }\r\n    //     return list;\r\n    // }\r\n\r\n    // //          <<             ..\r\n    // function isSalesTokenList(address owner, uint256 tokenId) private view returns(SaleTokenInfo memory){\r\n    //     SaleTokenInfo memory data;\r\n    //     for (uint256 i = 0; i < _saleTokenList.length; i++) {\r\n    //         if(_saleTokenList[i].tokenId == tokenId && _saleTokenList[i].account == owner){\r\n    //             data.account = _saleTokenList[i].account;\r\n    //             data.tokenId = _saleTokenList[i].tokenId;\r\n    //             data.amount = _saleTokenList[i].amount;\r\n    //             data.price = _saleTokenList[i].price;\r\n    //         }\r\n    //     }\r\n    //     return data;\r\n    // }\r\n}",
  "sourcePath": "C:\\Users\\jdunm\\OneDrive\\ \\dive2space\\erc1155\\contracts\\SaleToken.sol",
  "compiler": {
    "name": "solc",
    "version": "0.8.17+commit.8df45f5f.Emscripten.clang"
  },
  "schemaVersion": "3.4.11",
  "updatedAt": "2023-02-07T01:16:12.552Z",
  "networkType": "ethereum",
  "devdoc": {
    "kind": "dev",
    "methods": {
      "balanceOfBatch(address[],uint256[])": {
        "details": "See {IERC1155-balanceOfBatch}. Requirements: - `accounts` and `ids` must have the same length."
      },
      "isApprovedForAll(address,address)": {
        "details": "See {IERC1155-isApprovedForAll}."
      },
      "owner()": {
        "details": "Returns the address of the current owner."
      },
      "renounceOwnership()": {
        "details": "Leaves the contract without owner. It will not be possible to call `onlyOwner` functions anymore. Can only be called by the current owner. NOTE: Renouncing ownership will leave the contract without an owner, thereby removing any functionality that is only available to the owner."
      },
      "safeBatchTransferFrom(address,address,uint256[],uint256[],bytes)": {
        "details": "See {IERC1155-safeBatchTransferFrom}."
      },
      "safeTransferFrom(address,address,uint256,uint256,bytes)": {
        "details": "See {IERC1155-safeTransferFrom}."
      },
      "setApprovalForAll(address,bool)": {
        "details": "See {IERC1155-setApprovalForAll}."
      },
      "supportsInterface(bytes4)": {
        "details": "See {IERC165-supportsInterface}."
      },
      "transferOwnership(address)": {
        "details": "Transfers ownership of the contract to a new account (`newOwner`). Can only be called by the current owner."
      },
      "uri(uint256)": {
        "details": "See {IERC1155MetadataURI-uri}. This implementation returns the same URI for *all* token types. It relies on the token type ID substitution mechanism https://eips.ethereum.org/EIPS/eip-1155#metadata[defined in the EIP]. Clients calling this function must replace the `\\{id\\}` substring with the actual token type ID."
      }
    },
    "version": 1
  },
  "userdoc": {
    "kind": "user",
    "methods": {},
    "version": 1
  }
}