{
  "contractName": "SaleToken",
  "abi": [
    {
      "inputs": [
        {
          "internalType": "address",
          "name": "DtsTokenCA",
          "type": "address"
        }
      ],
      "stateMutability": "nonpayable",
      "type": "constructor"
    },
    {
      "anonymous": false,
      "inputs": [
        {
          "indexed": false,
          "internalType": "address",
          "name": "account",
          "type": "address"
        },
        {
          "indexed": false,
          "internalType": "uint256",
          "name": "",
          "type": "uint256"
        }
      ],
      "name": "CancelEvent",
      "type": "event"
    },
    {
      "anonymous": false,
      "inputs": [
        {
          "indexed": false,
          "internalType": "address",
          "name": "account",
          "type": "address"
        },
        {
          "indexed": false,
          "internalType": "uint256",
          "name": "tokenId",
          "type": "uint256"
        },
        {
          "indexed": false,
          "internalType": "uint256",
          "name": "amount",
          "type": "uint256"
        },
        {
          "indexed": false,
          "internalType": "uint256",
          "name": "price",
          "type": "uint256"
        }
      ],
      "name": "SaleEvent",
      "type": "event"
    },
    {
      "anonymous": false,
      "inputs": [
        {
          "indexed": false,
          "internalType": "address",
          "name": "owner",
          "type": "address"
        },
        {
          "indexed": false,
          "internalType": "address",
          "name": "account",
          "type": "address"
        },
        {
          "indexed": false,
          "internalType": "uint256",
          "name": "tokenId",
          "type": "uint256"
        },
        {
          "indexed": false,
          "internalType": "uint256",
          "name": "amount",
          "type": "uint256"
        },
        {
          "indexed": false,
          "internalType": "uint256",
          "name": "price",
          "type": "uint256"
        }
      ],
      "name": "purchaseTokenEvnet",
      "type": "event"
    },
    {
      "inputs": [],
      "name": "Dtoken",
      "outputs": [
        {
          "internalType": "contract DtsToken",
          "name": "",
          "type": "address"
        }
      ],
      "stateMutability": "view",
      "type": "function",
      "constant": true
    },
    {
      "inputs": [
        {
          "internalType": "uint256",
          "name": "",
          "type": "uint256"
        }
      ],
      "name": "saleNumber",
      "outputs": [
        {
          "internalType": "uint256",
          "name": "",
          "type": "uint256"
        }
      ],
      "stateMutability": "view",
      "type": "function",
      "constant": true
    },
    {
      "inputs": [
        {
          "internalType": "uint256",
          "name": "",
          "type": "uint256"
        },
        {
          "internalType": "uint256",
          "name": "",
          "type": "uint256"
        }
      ],
      "name": "saleTokenList",
      "outputs": [
        {
          "internalType": "address",
          "name": "account",
          "type": "address"
        },
        {
          "internalType": "uint256",
          "name": "amount",
          "type": "uint256"
        },
        {
          "internalType": "uint256",
          "name": "price",
          "type": "uint256"
        },
        {
          "internalType": "uint256",
          "name": "listId",
          "type": "uint256"
        }
      ],
      "stateMutability": "view",
      "type": "function",
      "constant": true
    },
    {
      "inputs": [
        {
          "internalType": "address",
          "name": "account",
          "type": "address"
        },
        {
          "internalType": "uint256",
          "name": "tokenId",
          "type": "uint256"
        },
        {
          "internalType": "uint256",
          "name": "amount",
          "type": "uint256"
        },
        {
          "internalType": "uint256",
          "name": "price",
          "type": "uint256"
        }
      ],
      "name": "salesToken",
      "outputs": [],
      "stateMutability": "nonpayable",
      "type": "function"
    },
    {
      "inputs": [
        {
          "internalType": "uint256",
          "name": "tokenId",
          "type": "uint256"
        }
      ],
      "name": "cancelSalesToken",
      "outputs": [],
      "stateMutability": "nonpayable",
      "type": "function"
    },
    {
      "inputs": [
        {
          "internalType": "uint256",
          "name": "tokenId",
          "type": "uint256"
        }
      ],
      "name": "saleNumberList",
      "outputs": [
        {
          "internalType": "uint256",
          "name": "",
          "type": "uint256"
        }
      ],
      "stateMutability": "view",
      "type": "function",
      "constant": true
    },
    {
      "inputs": [
        {
          "internalType": "uint256",
          "name": "tokenId",
          "type": "uint256"
        },
        {
          "internalType": "uint256",
          "name": "saleNum",
          "type": "uint256"
        }
      ],
      "name": "getSalesTokenListAll",
      "outputs": [
        {
          "components": [
            {
              "internalType": "address",
              "name": "account",
              "type": "address"
            },
            {
              "internalType": "uint256",
              "name": "amount",
              "type": "uint256"
            },
            {
              "internalType": "uint256",
              "name": "price",
              "type": "uint256"
            },
            {
              "internalType": "uint256",
              "name": "listId",
              "type": "uint256"
            }
          ],
          "internalType": "struct SaleToken.SaleTokenInfo",
          "name": "",
          "type": "tuple"
        }
      ],
      "stateMutability": "view",
      "type": "function",
      "constant": true
    },
    {
      "inputs": [
        {
          "internalType": "address payable",
          "name": "owner",
          "type": "address"
        },
        {
          "internalType": "uint256",
          "name": "tokenId",
          "type": "uint256"
        },
        {
          "internalType": "uint256",
          "name": "amount",
          "type": "uint256"
        },
        {
          "internalType": "uint256",
          "name": "listId",
          "type": "uint256"
        }
      ],
      "name": "purchaseToken",
      "outputs": [],
      "stateMutability": "payable",
      "type": "function",
      "payable": true
    }
  ],
  "bytecode": "0x60806040523480156200001157600080fd5b506040516200133838038062001338833981810160405281019062000037919062000177565b806000806101000a81548173ffffffffffffffffffffffffffffffffffffffff021916908373ffffffffffffffffffffffffffffffffffffffff16021790555060008054906101000a900473ffffffffffffffffffffffffffffffffffffffff1673ffffffffffffffffffffffffffffffffffffffff16634672a602306040518263ffffffff1660e01b8152600401620000d29190620001ba565b600060405180830381600087803b158015620000ed57600080fd5b505af115801562000102573d6000803e3d6000fd5b5050505050620001d7565b600080fd5b600073ffffffffffffffffffffffffffffffffffffffff82169050919050565b60006200013f8262000112565b9050919050565b620001518162000132565b81146200015d57600080fd5b50565b600081519050620001718162000146565b92915050565b60006020828403121562000190576200018f6200010d565b5b6000620001a08482850162000160565b91505092915050565b620001b48162000132565b82525050565b6000602082019050620001d16000830184620001a9565b92915050565b61115180620001e76000396000f3fe60806040526004361061007b5760003560e01c8063a2f256ee1161004e578063a2f256ee1461012b578063cc8a416b14610168578063d0ed81c914610193578063fdb149b2146101d05761007b565b806323dc2e6514610080578063422b71d7146100a957806345fbe2cc146100d25780638f1480331461010f575b600080fd5b34801561008c57600080fd5b506100a760048036038101906100a29190610b81565b610210565b005b3480156100b557600080fd5b506100d060048036038101906100cb9190610be8565b6105be565b005b3480156100de57600080fd5b506100f960048036038101906100f49190610be8565b610706565b6040516101069190610c24565b60405180910390f35b61012960048036038101906101249190610c7d565b61071e565b005b34801561013757600080fd5b50610152600480360381019061014d9190610be8565b610836565b60405161015f9190610c24565b60405180910390f35b34801561017457600080fd5b5061017d610853565b60405161018a9190610d43565b60405180910390f35b34801561019f57600080fd5b506101ba60048036038101906101b59190610d5e565b610877565b6040516101c79190610e11565b60405180910390f35b3480156101dc57600080fd5b506101f760048036038101906101f29190610d5e565b61092a565b6040516102079493929190610e3b565b60405180910390f35b83836000600190505b6001600083815260200190815260200160002054811161033057600060026000848152602001908152602001600020600083815260200190815260200160002060010154141580156102dd57508273ffffffffffffffffffffffffffffffffffffffff1660026000848152602001908152602001600020600083815260200190815260200160002060000160009054906101000a900473ffffffffffffffffffffffffffffffffffffffff1673ffffffffffffffffffffffffffffffffffffffff16145b1561031d576040517f08c379a000000000000000000000000000000000000000000000000000000000815260040161031490610edd565b60405180910390fd5b808061032890610f2c565b915050610219565b50600080600190505b60016000888152602001908152602001600020548111610483578773ffffffffffffffffffffffffffffffffffffffff1660026000898152602001908152602001600020600083815260200190815260200160002060000160009054906101000a900473ffffffffffffffffffffffffffffffffffffffff1673ffffffffffffffffffffffffffffffffffffffff16036104705760006103db89888885610987565b905080600260008a8152602001908152602001600020600084815260200190815260200160002060008201518160000160006101000a81548173ffffffffffffffffffffffffffffffffffffffff021916908373ffffffffffffffffffffffffffffffffffffffff16021790555060208201518160010155604082015181600201556060820151816003015590505060019250505b808061047b90610f2c565b915050610339565b506000151581151503610578576001806000888152602001908152602001600020546104af9190610f74565b600160008881526020019081526020016000208190555060006104d4888888886109f9565b905080600260008981526020019081526020016000206000600160008b815260200190815260200160002054815260200190815260200160002060008201518160000160006101000a81548173ffffffffffffffffffffffffffffffffffffffff021916908373ffffffffffffffffffffffffffffffffffffffff160217905550602082015181600101556040820151816002015560608201518160030155905050505b7ffd993c5a8b6fac3440f45a4aa08e8d39fc18d59f8d66435d7c2d108508035db4878787876040516105ad9493929190610e3b565b60405180910390a150505050505050565b60006001600083815260200190815260200160002054905060005b8181116106c8573373ffffffffffffffffffffffffffffffffffffffff1660026000858152602001908152602001600020600083815260200190815260200160002060000160009054906101000a900473ffffffffffffffffffffffffffffffffffffffff1673ffffffffffffffffffffffffffffffffffffffff16036106b5576000600260008581526020019081526020016000206000838152602001908152602001600020600101819055506000600260008581526020019081526020016000206000838152602001908152602001600020600201819055505b80806106c090610f2c565b9150506105d9565b507fb37fa1584b5a559c3935a3e74265f473fc90b084d550e9b389c91be5a69fcfa933836040516106fa929190610fa8565b60405180910390a15050565b60016020528060005260406000206000915090505481565b600061073e610737600a34610a7e90919063ffffffff16565b6064610a94565b90508473ffffffffffffffffffffffffffffffffffffffff166108fc82346107669190610fd1565b9081150290604051600060405180830381858888f19350505050158015610791573d6000803e3d6000fd5b5082600260008681526020019081526020016000206000848152602001908152602001600020600101546107c59190610fd1565b600260008681526020019081526020016000206000848152602001908152602001600020600101819055507f2cfa9090082a87542ab829fb8d6a9203ce7fd926dced5cb9317f2c7371b47db08533868634604051610827959493929190611026565b60405180910390a15050505050565b600060016000838152602001908152602001600020549050919050565b60008054906101000a900473ffffffffffffffffffffffffffffffffffffffff1681565b61087f610aaa565b6002600084815260200190815260200160002060008381526020019081526020016000206040518060800160405290816000820160009054906101000a900473ffffffffffffffffffffffffffffffffffffffff1673ffffffffffffffffffffffffffffffffffffffff1673ffffffffffffffffffffffffffffffffffffffff1681526020016001820154815260200160028201548152602001600382015481525050905092915050565b6002602052816000526040600020602052806000526040600020600091509150508060000160009054906101000a900473ffffffffffffffffffffffffffffffffffffffff16908060010154908060020154908060030154905084565b61098f610aaa565b610997610aaa565b85816000019073ffffffffffffffffffffffffffffffffffffffff16908173ffffffffffffffffffffffffffffffffffffffff168152505084816020018181525050838160400181815250508281606001818152505080915050949350505050565b610a01610aaa565b610a09610aaa565b85816000019073ffffffffffffffffffffffffffffffffffffffff16908173ffffffffffffffffffffffffffffffffffffffff16815250508381602001818152505082816040018181525050600160008681526020019081526020016000205481606001818152505080915050949350505050565b60008183610a8c9190611079565b905092915050565b60008183610aa291906110ea565b905092915050565b6040518060800160405280600073ffffffffffffffffffffffffffffffffffffffff1681526020016000815260200160008152602001600081525090565b600080fd5b600073ffffffffffffffffffffffffffffffffffffffff82169050919050565b6000610b1882610aed565b9050919050565b610b2881610b0d565b8114610b3357600080fd5b50565b600081359050610b4581610b1f565b92915050565b6000819050919050565b610b5e81610b4b565b8114610b6957600080fd5b50565b600081359050610b7b81610b55565b92915050565b60008060008060808587031215610b9b57610b9a610ae8565b5b6000610ba987828801610b36565b9450506020610bba87828801610b6c565b9350506040610bcb87828801610b6c565b9250506060610bdc87828801610b6c565b91505092959194509250565b600060208284031215610bfe57610bfd610ae8565b5b6000610c0c84828501610b6c565b91505092915050565b610c1e81610b4b565b82525050565b6000602082019050610c396000830184610c15565b92915050565b6000610c4a82610aed565b9050919050565b610c5a81610c3f565b8114610c6557600080fd5b50565b600081359050610c7781610c51565b92915050565b60008060008060808587031215610c9757610c96610ae8565b5b6000610ca587828801610c68565b9450506020610cb687828801610b6c565b9350506040610cc787828801610b6c565b9250506060610cd887828801610b6c565b91505092959194509250565b6000819050919050565b6000610d09610d04610cff84610aed565b610ce4565b610aed565b9050919050565b6000610d1b82610cee565b9050919050565b6000610d2d82610d10565b9050919050565b610d3d81610d22565b82525050565b6000602082019050610d586000830184610d34565b92915050565b60008060408385031215610d7557610d74610ae8565b5b6000610d8385828601610b6c565b9250506020610d9485828601610b6c565b9150509250929050565b610da781610b0d565b82525050565b610db681610b4b565b82525050565b608082016000820151610dd26000850182610d9e565b506020820151610de56020850182610dad565b506040820151610df86040850182610dad565b506060820151610e0b6060850182610dad565b50505050565b6000608082019050610e266000830184610dbc565b92915050565b610e3581610b0d565b82525050565b6000608082019050610e506000830187610e2c565b610e5d6020830186610c15565b610e6a6040830185610c15565b610e776060830184610c15565b95945050505050565b600082825260208201905092915050565b7f43616e63656c207468652073616c6573206f726465722e000000000000000000600082015250565b6000610ec7601783610e80565b9150610ed282610e91565b602082019050919050565b60006020820190508181036000830152610ef681610eba565b9050919050565b7f4e487b7100000000000000000000000000000000000000000000000000000000600052601160045260246000fd5b6000610f3782610b4b565b91507fffffffffffffffffffffffffffffffffffffffffffffffffffffffffffffffff8203610f6957610f68610efd565b5b600182019050919050565b6000610f7f82610b4b565b9150610f8a83610b4b565b9250828201905080821115610fa257610fa1610efd565b5b92915050565b6000604082019050610fbd6000830185610e2c565b610fca6020830184610c15565b9392505050565b6000610fdc82610b4b565b9150610fe783610b4b565b9250828203905081811115610fff57610ffe610efd565b5b92915050565b600061101082610d10565b9050919050565b61102081611005565b82525050565b600060a08201905061103b6000830188611017565b6110486020830187610e2c565b6110556040830186610c15565b6110626060830185610c15565b61106f6080830184610c15565b9695505050505050565b600061108482610b4b565b915061108f83610b4b565b925082820261109d81610b4b565b915082820484148315176110b4576110b3610efd565b5b5092915050565b7f4e487b7100000000000000000000000000000000000000000000000000000000600052601260045260246000fd5b60006110f582610b4b565b915061110083610b4b565b9250826111105761110f6110bb565b5b82820490509291505056fea264697066735822122023e489952f5c19bb24098f8c09e1436b582d0038560b97bba87224639ca57c6564736f6c63430008110033",
  "immutableReferences": {},
  "source": "// SPDX-License-Identifier: MIT\r\npragma solidity ^0.8.17;\r\n\r\nimport \"../node_modules/openzeppelin-solidity/contracts/utils/math/SafeMath.sol\";\r\n// import \"@openzeppelin/contracts/utils/math/SafeMath.sol\";\r\n\r\nimport \"./DtsToken.sol\";\r\n\r\ncontract SaleToken{\r\n\r\n    using SafeMath for uint256;\r\n\r\n    // DtsToken.sol    \r\n    DtsToken public Dtoken;\r\n\r\n    constructor(address DtsTokenCA){\r\n        //   DtsToken CA  Dtoken  .\r\n        Dtoken = DtsToken(DtsTokenCA);\r\n        //     Dtoken FunddingTokenCA .\r\n        // DtsToken SaleToken   \r\n        Dtoken.isSaleCA(address(this));\r\n    }\r\n\r\n    //  nft   \r\n    struct SaleTokenInfo{\r\n        //  \r\n        address account;\r\n        //  \r\n        uint256 amount;\r\n        //  \r\n        uint256 price;\r\n        //   Id (    id .)\r\n        uint256 listId;\r\n    }\r\n\r\n    //   id      \r\n    mapping (uint256 => uint256) public saleNumber;\r\n\r\n    //  Id        \r\n    mapping (uint256 => mapping (uint256 => SaleTokenInfo)) public saleTokenList;\r\n\r\n    // //        \r\n    // SaleTokenInfo[] private saleTokenList;\r\n\r\n    //    \r\n    event SaleEvent(address account, uint256 tokenId, uint256 amount, uint256 price);\r\n    //   \r\n    event CancelEvent(address account, uint256);\r\n    //  \r\n    event purchaseTokenEvnet(address owner, address account, uint256 tokenId, uint256 amount, uint256 price);\r\n\r\n    //   \r\n    function salesToken(address account, uint256 tokenId ,uint256 amount, uint256 price) public isSaleError(account,tokenId){\r\n        // //        .\r\n        // require(Dtoken.balanceOf(account, tokenId) >= amount, \"Please enter the exact quantity.\");\r\n        // //   0   \r\n        // require(price > 0,\"Please enter the correct price.\");\r\n        // //   0   \r\n        // require(amount > 0,\"Please enter the correct amount.\");\r\n        // //    .\r\n        // // require(Dtoken.isApprovedForAll(account,address(this)),\"be not approved\");\r\n        // //    \r\n        // require(Dtoken.getTokenOwnerData(tokenId).isSuccess == true,\"is Success?\");\r\n\r\n        bool result = false;\r\n        for(uint256 i = 1; i <= saleNumber[tokenId]; i++){\r\n            if(saleTokenList[tokenId][i].account == account){\r\n                SaleTokenInfo memory data1 = _getFirstSalesTokenData(account, amount, price, i);\r\n                saleTokenList[tokenId][i] = data1;\r\n                result = true;\r\n            }\r\n        }\r\n        if(result == false){\r\n        saleNumber[tokenId] = saleNumber[tokenId] + 1;\r\n        SaleTokenInfo memory data = _getSalesTokenData(account, tokenId, amount, price);\r\n        saleTokenList[tokenId][saleNumber[tokenId]] = data;\r\n        }\r\n \r\n        emit SaleEvent(account, tokenId, amount, price);\r\n    }\r\n\r\n    //    \r\n    function _getSalesTokenData(address _account,uint256 tokenId, uint256 _amount, uint256 _price) private view returns(SaleTokenInfo memory){\r\n        SaleTokenInfo memory data;\r\n\r\n        data.account = _account;\r\n        data.amount = _amount;\r\n        data.price = _price;\r\n        data.listId = saleNumber[tokenId];\r\n\r\n        return data;\r\n    }\r\n    //     \r\n    function _getFirstSalesTokenData(address _account, uint256 _amount, uint256 _price, uint256 i) private pure returns(SaleTokenInfo memory){\r\n        SaleTokenInfo memory data;\r\n\r\n        data.account = _account;\r\n        data.amount = _amount;\r\n        data.price = _price;\r\n        data.listId = i;\r\n\r\n        return data;\r\n    }\r\n\r\n    //   \r\n    function cancelSalesToken(uint256 tokenId) public {\r\n        uint256 saleNumberLength = saleNumber[tokenId];\r\n        for(uint256 i = 0; i <= saleNumberLength; i++){\r\n            if(saleTokenList[tokenId][i].account == msg.sender){\r\n               saleTokenList[tokenId][i].amount = 0;\r\n               saleTokenList[tokenId][i].price = 0;\r\n            }\r\n        }\r\n        emit CancelEvent(msg.sender,tokenId);\r\n    }\r\n\r\n    //     view \r\n    function saleNumberList(uint256 tokenId) public view returns(uint256){\r\n        return saleNumber[tokenId];\r\n    }\r\n\r\n    //     view\r\n    function getSalesTokenListAll(uint256 tokenId, uint256 saleNum) public view returns(SaleTokenInfo memory){\r\n        return saleTokenList[tokenId][saleNum];\r\n    }\r\n\r\n    //  \r\n    function purchaseToken(address payable owner, uint256 tokenId, uint256 amount, uint256 listId) public payable {\r\n        // //  nft   .\r\n        // require(saleTokenList[tokenId][listId].account != msg.sender,\"I can't buy myself.\");\r\n        // //    0      .\r\n        // require(amount > 0 && amount <= saleTokenList[tokenId][listId].amount,\"Check amount\");\r\n        // //      .\r\n        // require((amount * saleTokenList[tokenId][listId].price) * (10 ** 18) == msg.value, \"Check the money again.\");\r\n        // //    .\r\n        // require(Dtoken.isApprovedForAll(owner,address(this)),\"be not approved\");\r\n        //    (10%)\r\n        uint256 Payment = SafeMath.div(msg.value.mul(10),100);\r\n        //      .\r\n        owner.transfer(msg.value - Payment);\r\n\r\n        //    \r\n        saleTokenList[tokenId][listId].amount = saleTokenList[tokenId][listId].amount - amount;\r\n\r\n        // Dtoken.safeTransferFrom(owner, msg.sender, tokenId, amount, \"\");\r\n        //   \r\n        emit purchaseTokenEvnet(owner, msg.sender, tokenId, amount, msg.value);\r\n    }\r\n\r\n    //       .   amount 0      .\r\n    modifier isSaleError(address account, uint256 tokenId) {\r\n        for(uint256 i = 1; i <= saleNumber[tokenId]; i++){\r\n            if(saleTokenList[tokenId][i].amount != 0 && saleTokenList[tokenId][i].account == account){\r\n               revert(\"Cancel the sales order.\");\r\n            }\r\n        }\r\n        _;\r\n    }\r\n\r\n    // //    <<   ..   \r\n    // function cancelSalesToken(uint256 tokenId) public {\r\n    //     for (uint256 i = 0; i < saleTokenList.length; i++) {\r\n    //         if(saleTokenList[i].tokenId == tokenId && saleTokenList[i].account == msg.sender){\r\n    //             saleTokenList[i] = saleTokenList[saleTokenList.length -1];\r\n    //             saleTokenList.pop();\r\n    //             delete _saleToken[tokenId][msg.sender];\r\n    //         }\r\n    //     }\r\n    // }\r\n\r\n    // //      view <<     \r\n    // function getSalesTokenListAll(uint256 tokenId) public view returns(SaleTokenInfo[] memory){\r\n    //     //  list     id     .\r\n    //     SaleTokenInfo[] memory list = new SaleTokenInfo[](saleTokenList.length);\r\n    //     uint256 a = 0;\r\n    //     for (uint256 i = 0; i < saleTokenList.length; i++) {\r\n    //         if(saleTokenList[i].tokenId == tokenId){\r\n    //             list[a] = (saleTokenList[i]);\r\n    //             a++;\r\n    //         }\r\n    //     }\r\n    //     return list;\r\n    // }\r\n\r\n    // //          <<             ..\r\n    // function isSalesTokenList(address owner, uint256 tokenId) private view returns(SaleTokenInfo memory){\r\n    //     SaleTokenInfo memory data;\r\n    //     for (uint256 i = 0; i < saleTokenList.length; i++) {\r\n    //         if(saleTokenList[i].tokenId == tokenId && saleTokenList[i].account == owner){\r\n    //             data.account = saleTokenList[i].account;\r\n    //             data.tokenId = saleTokenList[i].tokenId;\r\n    //             data.amount = saleTokenList[i].amount;\r\n    //             data.price = saleTokenList[i].price;\r\n    //         }\r\n    //     }\r\n    //     return data;\r\n    // }\r\n}",
  "sourcePath": "C:\\Users\\an\\Desktop\\DTS\\erc1155\\contracts\\SaleToken.sol",
  "compiler": {
    "name": "solc",
    "version": "0.8.17+commit.8df45f5f.Emscripten.clang"
  },
  "schemaVersion": "3.4.11",
  "updatedAt": "2023-02-13T00:33:25.952Z",
  "networkType": "ethereum",
  "devdoc": {
    "kind": "dev",
    "methods": {},
    "version": 1
  },
  "userdoc": {
    "kind": "user",
    "methods": {},
    "version": 1
  }
}