{
	"data": {
		"bytecode": {
			"linkReferences": {},
			"object": "60806040523480156200001157600080fd5b506040518060200160405280600081525062000033816200005a60201b60201c565b5062000054620000486200006f60201b60201c565b6200007760201b60201c565b6200049e565b80600290816200006b9190620003b7565b5050565b600033905090565b6000600360009054906101000a900473ffffffffffffffffffffffffffffffffffffffff16905081600360006101000a81548173ffffffffffffffffffffffffffffffffffffffff021916908373ffffffffffffffffffffffffffffffffffffffff1602179055508173ffffffffffffffffffffffffffffffffffffffff168173ffffffffffffffffffffffffffffffffffffffff167f8be0079c531659141344cd1fd0a4f28419497f9722a3daafe3b4186f6b6457e060405160405180910390a35050565b600081519050919050565b7f4e487b7100000000000000000000000000000000000000000000000000000000600052604160045260246000fd5b7f4e487b7100000000000000000000000000000000000000000000000000000000600052602260045260246000fd5b60006002820490506001821680620001bf57607f821691505b602082108103620001d557620001d462000177565b5b50919050565b60008190508160005260206000209050919050565b60006020601f8301049050919050565b600082821b905092915050565b6000600883026200023f7fffffffffffffffffffffffffffffffffffffffffffffffffffffffffffffffff8262000200565b6200024b868362000200565b95508019841693508086168417925050509392505050565b6000819050919050565b6000819050919050565b600062000298620002926200028c8462000263565b6200026d565b62000263565b9050919050565b6000819050919050565b620002b48362000277565b620002cc620002c3826200029f565b8484546200020d565b825550505050565b600090565b620002e3620002d4565b620002f0818484620002a9565b505050565b5b8181101562000318576200030c600082620002d9565b600181019050620002f6565b5050565b601f82111562000367576200033181620001db565b6200033c84620001f0565b810160208510156200034c578190505b620003646200035b85620001f0565b830182620002f5565b50505b505050565b600082821c905092915050565b60006200038c600019846008026200036c565b1980831691505092915050565b6000620003a7838362000379565b9150826002028217905092915050565b620003c2826200013d565b67ffffffffffffffff811115620003de57620003dd62000148565b5b620003ea8254620001a6565b620003f78282856200031c565b600060209050601f8311600181146200042f57600084156200041a578287015190505b62000426858262000399565b86555062000496565b601f1984166200043f86620001db565b60005b82811015620004695784890151825560018201915060208501945060208101905062000442565b8683101562000489578489015162000485601f89168262000379565b8355505b6001600288020188555050505b505050505050565b6157d580620004ae6000396000f3fe608060405234801561001057600080fd5b50600436106102105760003560e01c80638da5cb5b11610125578063d68ad7a0116100ad578063f2fde38b1161007c578063f2fde38b14610659578063f4a3a92b14610675578063f8a14f4614610691578063fac333ac146106c6578063fcc1ff5c146106f657610210565b8063d68ad7a0146105c1578063e29be1a1146105f1578063e985e9c51461060d578063f242432a1461063d57610210565b8063aee4a42a116100f4578063aee4a42a146104f7578063c31f4b5814610527578063c87b56dd14610543578063cfaad27c14610573578063d198cc01146105a557610210565b80638da5cb5b1461048557806390fe5609146104a35780639d835c5f146104bf578063a22cb465146104db57610210565b806346a0d50a116101a857806361b1b23c1161017757806361b1b23c146103f3578063715018a614610411578063773790821461041b5780637abfee42146104375780638d63193d1461045557610210565b806346a0d50a146103475780634b77f8d0146103775780634e1273f4146103935780634f4eacd8146103c357610210565b80632374fdcf116101e45780632374fdcf146102d55780632eb2c2d6146102f1578063325d20c41461030d5780634672a6021461032b57610210565b8062fdd58e1461021557806301ffc9a7146102455780630e89341c146102755780630fe2a68d146102a5575b600080fd5b61022f600480360381019061022a91906133c1565b610712565b60405161023c9190613410565b60405180910390f35b61025f600480360381019061025a9190613483565b610726565b60405161026c91906134cb565b60405180910390f35b61028f600480360381019061028a91906134e6565b610808565b60405161029c91906135a3565b60405180910390f35b6102bf60048036038101906102ba91906134e6565b61089c565b6040516102cc9190613410565b60405180910390f35b6102ef60048036038101906102ea91906134e6565b6108b4565b005b61030b600480360381019061030691906137c2565b610a25565b005b610315610ac6565b60405161032291906138f0565b60405180910390f35b6103456004803603810190610340919061390b565b610aec565b005b610361600480360381019061035c9190613938565b610b9e565b60405161036e91906139e7565b60405180910390f35b610391600480360381019061038c919061390b565b610c58565b005b6103ad60048036038101906103a89190613ac5565b610c66565b6040516103ba9190613bec565b60405180910390f35b6103dd60048036038101906103d891906134e6565b610d7f565b6040516103ea9190613410565b60405180910390f35b6103fb610d9c565b6040516104089190613c2f565b60405180910390f35b610419610dc2565b005b61043560048036038101906104309190613c4a565b610dd6565b005b61043f610e40565b60405161044c9190613bec565b60405180910390f35b61046f600480360381019061046a91906134e6565b610e98565b60405161047c9190613d18565b60405180910390f35b61048d610f5e565b60405161049a9190613d42565b60405180910390f35b6104bd60048036038101906104b89190613938565b610f88565b005b6104d960048036038101906104d49190613dfe565b6110c2565b005b6104f560048036038101906104f09190613ee8565b611335565b005b610511600480360381019061050c91906134e6565b61134b565b60405161051e9190613410565b60405180910390f35b610541600480360381019061053c91906134e6565b611368565b005b61055d600480360381019061055891906134e6565b6114d9565b60405161056a91906135a3565b60405180910390f35b61058d60048036038101906105889190613938565b61157e565b60405161059c93929190613f28565b60405180910390f35b6105bf60048036038101906105ba9190613f5f565b6115e2565b005b6105db60048036038101906105d691906134e6565b61173d565b6040516105e89190613410565b60405180910390f35b61060b6004803603810190610606919061390b565b611755565b005b61062760048036038101906106229190613f9f565b6118d9565b60405161063491906134cb565b60405180910390f35b61065760048036038101906106529190613fdf565b61196d565b005b610673600480360381019061066e919061390b565b611a0e565b005b61068f600480360381019061068a9190614076565b611a91565b005b6106ab60048036038101906106a691906134e6565b611b35565b6040516106bd969594939291906140dd565b60405180910390f35b6106e060048036038101906106db91906134e6565b611b9e565b6040516106ed9190613410565b60405180910390f35b610710600480360381019061070b9190613f5f565b611bc2565b005b600061071e8383611fbe565b905092915050565b60007fd9b67a26000000000000000000000000000000000000000000000000000000007bffffffffffffffffffffffffffffffffffffffffffffffffffffffff1916827bffffffffffffffffffffffffffffffffffffffffffffffffffffffff191614806107f157507f0e89341c000000000000000000000000000000000000000000000000000000007bffffffffffffffffffffffffffffffffffffffffffffffffffffffff1916827bffffffffffffffffffffffffffffffffffffffffffffffffffffffff1916145b80610801575061080082612086565b5b9050919050565b6060600280546108179061416d565b80601f01602080910402602001604051908101604052809291908181526020018280546108439061416d565b80156108905780601f1061086557610100808354040283529160200191610890565b820191906000526020600020905b81548152906001019060200180831161087357829003601f168201915b50505050509050919050565b600b6020528060005260406000206000915090505481565b60006108f66008600084815260200190815260200160002060000160009054906101000a900473ffffffffffffffffffffffffffffffffffffffff1683611fbe565b11610936576040517f08c379a000000000000000000000000000000000000000000000000000000000815260040161092d906141ea565b60405180910390fd5b6008600082815260200190815260200160002060010154600660009054906101000a900473ffffffffffffffffffffffffffffffffffffffff1673ffffffffffffffffffffffffffffffffffffffff166349e5465c836040518263ffffffff1660e01b81526004016109a89190613410565b602060405180830381865afa1580156109c5573d6000803e3d6000fd5b505050506040513d601f19601f820116820180604052508101906109e9919061421f565b036109f357600080fd5b60006008600083815260200190815260200160002060050160006101000a81548160ff02191690831515021790555050565b610a2d6120f0565b73ffffffffffffffffffffffffffffffffffffffff168573ffffffffffffffffffffffffffffffffffffffff161480610a735750610a7285610a6d6120f0565b6118d9565b5b610ab2576040517f08c379a0000000000000000000000000000000000000000000000000000000008152600401610aa9906142be565b60405180910390fd5b610abf85858585856120f8565b5050505050565b600660009054906101000a900473ffffffffffffffffffffffffffffffffffffffff1681565b3373ffffffffffffffffffffffffffffffffffffffff168173ffffffffffffffffffffffffffffffffffffffff1614610b5a576040517f08c379a0000000000000000000000000000000000000000000000000000000008152600401610b519061432a565b60405180910390fd5b80600760006101000a81548173ffffffffffffffffffffffffffffffffffffffff021916908373ffffffffffffffffffffffffffffffffffffffff16021790555050565b610ba6613292565b6009600084815260200190815260200160002060008381526020019081526020016000206040518060600160405290816000820160009054906101000a900473ffffffffffffffffffffffffffffffffffffffff1673ffffffffffffffffffffffffffffffffffffffff1673ffffffffffffffffffffffffffffffffffffffff168152602001600182015481526020016002820160009054906101000a900460ff161515151581525050905092915050565b610c63816000611335565b50565b60608151835114610cac576040517f08c379a0000000000000000000000000000000000000000000000000000000008152600401610ca3906143bc565b60405180910390fd5b6000835167ffffffffffffffff811115610cc957610cc86135ca565b5b604051908082528060200260200182016040528015610cf75781602001602082028036833780820191505090505b50905060005b8451811015610d7457610d44858281518110610d1c57610d1b6143dc565b5b6020026020010151858381518110610d3757610d366143dc565b5b6020026020010151610712565b828281518110610d5757610d566143dc565b5b60200260200101818152505080610d6d9061443a565b9050610cfd565b508091505092915050565b6000600b6000838152602001908152602001600020549050919050565b600760009054906101000a900473ffffffffffffffffffffffffffffffffffffffff1681565b610dca612419565b610dd46000612497565b565b600560009054906101000a900473ffffffffffffffffffffffffffffffffffffffff1673ffffffffffffffffffffffffffffffffffffffff163373ffffffffffffffffffffffffffffffffffffffff1614610e3057600080fd5b610e3b83838361255d565b505050565b60606004805480602002602001604051908101604052809291908181526020018280548015610e8e57602002820191906000526020600020905b815481526020019060010190808311610e7a575b5050505050905090565b610ea06132cb565b600860008381526020019081526020016000206040518060c00160405290816000820160009054906101000a900473ffffffffffffffffffffffffffffffffffffffff1673ffffffffffffffffffffffffffffffffffffffff1673ffffffffffffffffffffffffffffffffffffffff168152602001600182015481526020016002820154815260200160038201548152602001600482015481526020016005820160009054906101000a900460ff1615151515815250509050919050565b6000600360009054906101000a900473ffffffffffffffffffffffffffffffffffffffff16905090565b6000610f943384611fbe565b03610fd4576040517f08c379a0000000000000000000000000000000000000000000000000000000008152600401610fcb906144ce565b60405180910390fd5b620151806008600084815260200190815260200160002060040154610ff991906144ee565b81426110059190614522565b11611045576040517f08c379a000000000000000000000000000000000000000000000000000000000815260040161103c906145d6565b60405180910390fd5b6000600b6000848152602001908152602001600020540361109b576040517f08c379a000000000000000000000000000000000000000000000000000000000815260040161109290614642565b60405180910390fd5b80426110a79190614522565b600b6000848152602001908152602001600020819055505050565b600060086000878152602001908152602001600020600101541461111b576040517f08c379a0000000000000000000000000000000000000000000000000000000008152600401611112906146ae565b60405180910390fd5b3373ffffffffffffffffffffffffffffffffffffffff168773ffffffffffffffffffffffffffffffffffffffff1614611189576040517f08c379a00000000000000000000000000000000000000000000000000000000081526004016111809061471a565b60405180910390fd5b60006040518060400160405280601381526020017f66756e6464696e67206973207365636365737300000000000000000000000000815250905060006111d1898787876127a3565b9050806008600089815260200190815260200160002060008201518160000160006101000a81548173ffffffffffffffffffffffffffffffffffffffff021916908373ffffffffffffffffffffffffffffffffffffffff1602179055506020820151816001015560408201518160020155606082015181600301556080820151816004015560a08201518160050160006101000a81548160ff02191690831515021790555090505061129489888860405180602001604052806000815250612880565b61129f886001611335565b600487908060018154018082558091505060019003906000526020600020016000909190919091505582600c600089815260200190815260200160002090816112e891906148dc565b507f8bdc0347739a882305e00b5fa613e8629b5da77a48abac45661315c45619c548338888888887604051611322969594939291906149ae565b60405180910390a1505050505050505050565b6113476113406120f0565b8383612a30565b5050565b6000600a6000838152602001908152602001600020549050919050565b60006113aa6008600084815260200190815260200160002060000160009054906101000a900473ffffffffffffffffffffffffffffffffffffffff1683611fbe565b146113ea576040517f08c379a00000000000000000000000000000000000000000000000000000000081526004016113e190614a62565b60405180910390fd5b6008600082815260200190815260200160002060010154600660009054906101000a900473ffffffffffffffffffffffffffffffffffffffff1673ffffffffffffffffffffffffffffffffffffffff166349e5465c836040518263ffffffff1660e01b815260040161145c9190613410565b602060405180830381865afa158015611479573d6000803e3d6000fd5b505050506040513d601f19601f8201168201806040525081019061149d919061421f565b146114a757600080fd5b60016008600083815260200190815260200160002060050160006101000a81548160ff02191690831515021790555050565b6060600c600083815260200190815260200160002080546114f99061416d565b80601f01602080910402602001604051908101604052809291908181526020018280546115259061416d565b80156115725780601f1061154757610100808354040283529160200191611572565b820191906000526020600020905b81548152906001019060200180831161155557829003601f168201915b50505050509050919050565b6009602052816000526040600020602052806000526040600020600091509150508060000160009054906101000a900473ffffffffffffffffffffffffffffffffffffffff16908060010154908060020160009054906101000a900460ff16905083565b42600b60008481526020019081526020016000205410611637576040517f08c379a000000000000000000000000000000000000000000000000000000000815260040161162e90614ace565b60405180910390fd5b60006116433384611fbe565b03611683576040517f08c379a000000000000000000000000000000000000000000000000000000000815260040161167a90614b3a565b60405180910390fd5b600115156008600084815260200190815260200160002060050160009054906101000a900460ff161515036116ed576040517f08c379a00000000000000000000000000000000000000000000000000000000081526004016116e490614ba6565b60405180910390fd5b60011515811515036117395762127500600860008481526020019081526020016000206004015461171e9190614bc6565b60086000848152602001908152602001600020600401819055505b5050565b600a6020528060005260406000206000915090505481565b3373ffffffffffffffffffffffffffffffffffffffff168173ffffffffffffffffffffffffffffffffffffffff16146117c3576040517f08c379a00000000000000000000000000000000000000000000000000000000081526004016117ba90614c46565b60405180910390fd5b600073ffffffffffffffffffffffffffffffffffffffff16600560009054906101000a900473ffffffffffffffffffffffffffffffffffffffff1673ffffffffffffffffffffffffffffffffffffffff1614611854576040517f08c379a000000000000000000000000000000000000000000000000000000000815260040161184b90614cb2565b60405180910390fd5b80600560006101000a81548173ffffffffffffffffffffffffffffffffffffffff021916908373ffffffffffffffffffffffffffffffffffffffff16021790555080600660006101000a81548173ffffffffffffffffffffffffffffffffffffffff021916908373ffffffffffffffffffffffffffffffffffffffff16021790555050565b6000600160008473ffffffffffffffffffffffffffffffffffffffff1673ffffffffffffffffffffffffffffffffffffffff16815260200190815260200160002060008373ffffffffffffffffffffffffffffffffffffffff1673ffffffffffffffffffffffffffffffffffffffff16815260200190815260200160002060009054906101000a900460ff16905092915050565b6119756120f0565b73ffffffffffffffffffffffffffffffffffffffff168573ffffffffffffffffffffffffffffffffffffffff1614806119bb57506119ba856119b56120f0565b6118d9565b5b6119fa576040517f08c379a00000000000000000000000000000000000000000000000000000000081526004016119f1906142be565b60405180910390fd5b611a078585858585612b9c565b5050505050565b611a16612419565b600073ffffffffffffffffffffffffffffffffffffffff168173ffffffffffffffffffffffffffffffffffffffff1603611a85576040517f08c379a0000000000000000000000000000000000000000000000000000000008152600401611a7c90614d44565b60405180910390fd5b611a8e81612497565b50565b600760009054906101000a900473ffffffffffffffffffffffffffffffffffffffff1673ffffffffffffffffffffffffffffffffffffffff166323dc2e65338585856040518563ffffffff1660e01b8152600401611af29493929190614d64565b600060405180830381600087803b158015611b0c57600080fd5b505af1158015611b20573d6000803e3d6000fd5b50505050611b2f846001611335565b50505050565b60086020528060005260406000206000915090508060000160009054906101000a900473ffffffffffffffffffffffffffffffffffffffff16908060010154908060020154908060030154908060040154908060050160009054906101000a900460ff16905086565b60048181548110611bae57600080fd5b906000526020600020016000915090505481565b6000611bce3384611fbe565b03611c0e576040517f08c379a0000000000000000000000000000000000000000000000000000000008152600401611c0590614b3a565b60405180910390fd5b600b600083815260200190815260200160002054421115611c64576040517f08c379a0000000000000000000000000000000000000000000000000000000008152600401611c5b90614df5565b60405180910390fd5b3373ffffffffffffffffffffffffffffffffffffffff166008600084815260200190815260200160002060000160009054906101000a900473ffffffffffffffffffffffffffffffffffffffff1673ffffffffffffffffffffffffffffffffffffffff1603611d08576040517f08c379a0000000000000000000000000000000000000000000000000000000008152600401611cff90614e87565b60405180910390fd5b6000611d143384611fbe565b9050600080600190505b600a6000868152602001908152602001600020548111611e95573373ffffffffffffffffffffffffffffffffffffffff1660096000878152602001908152602001600020600083815260200190815260200160002060000160009054906101000a900473ffffffffffffffffffffffffffffffffffffffff1673ffffffffffffffffffffffffffffffffffffffff1603611e825760405180606001604052803373ffffffffffffffffffffffffffffffffffffffff16815260200184815260200185151581525060096000878152602001908152602001600020600083815260200190815260200160002060008201518160000160006101000a81548173ffffffffffffffffffffffffffffffffffffffff021916908373ffffffffffffffffffffffffffffffffffffffff1602179055506020820151816001015560408201518160020160006101000a81548160ff021916908315150217905550905050600191505b8080611e8d9061443a565b915050611d1e565b506000151581151503611fb8576001600a600086815260200190815260200160002054611ec29190614bc6565b600a60008681526020019081526020016000208190555060405180606001604052803373ffffffffffffffffffffffffffffffffffffffff168152602001838152602001841515815250600960008681526020019081526020016000206000600a600088815260200190815260200160002054815260200190815260200160002060008201518160000160006101000a81548173ffffffffffffffffffffffffffffffffffffffff021916908373ffffffffffffffffffffffffffffffffffffffff1602179055506020820151816001015560408201518160020160006101000a81548160ff0219169083151502179055509050505b50505050565b60008073ffffffffffffffffffffffffffffffffffffffff168373ffffffffffffffffffffffffffffffffffffffff160361202e576040517f08c379a000000000000000000000000000000000000000000000000000000000815260040161202590614f19565b60405180910390fd5b60008083815260200190815260200160002060008473ffffffffffffffffffffffffffffffffffffffff1673ffffffffffffffffffffffffffffffffffffffff16815260200190815260200160002054905092915050565b60007f01ffc9a7000000000000000000000000000000000000000000000000000000007bffffffffffffffffffffffffffffffffffffffffffffffffffffffff1916827bffffffffffffffffffffffffffffffffffffffffffffffffffffffff1916149050919050565b600033905090565b815183511461213c576040517f08c379a000000000000000000000000000000000000000000000000000000000815260040161213390614fab565b60405180910390fd5b600073ffffffffffffffffffffffffffffffffffffffff168473ffffffffffffffffffffffffffffffffffffffff16036121ab576040517f08c379a00000000000000000000000000000000000000000000000000000000081526004016121a29061503d565b60405180910390fd5b60006121b56120f0565b90506121c5818787878787612e37565b60005b84518110156123765760008582815181106121e6576121e56143dc565b5b602002602001015190506000858381518110612205576122046143dc565b5b60200260200101519050600080600084815260200190815260200160002060008b73ffffffffffffffffffffffffffffffffffffffff1673ffffffffffffffffffffffffffffffffffffffff168152602001908152602001600020549050818110156122a6576040517f08c379a000000000000000000000000000000000000000000000000000000000815260040161229d906150cf565b60405180910390fd5b81810360008085815260200190815260200160002060008c73ffffffffffffffffffffffffffffffffffffffff1673ffffffffffffffffffffffffffffffffffffffff168152602001908152602001600020819055508160008085815260200190815260200160002060008b73ffffffffffffffffffffffffffffffffffffffff1673ffffffffffffffffffffffffffffffffffffffff168152602001908152602001600020600082825461235b9190614bc6565b925050819055505050508061236f9061443a565b90506121c8565b508473ffffffffffffffffffffffffffffffffffffffff168673ffffffffffffffffffffffffffffffffffffffff168273ffffffffffffffffffffffffffffffffffffffff167f4a39dc06d4c0dbc64b70af90fd698a233a518aa5d07e595d983b8c0526c8f7fb87876040516123ed9291906150ef565b60405180910390a4612403818787878787612e3f565b612411818787878787612e47565b505050505050565b6124216120f0565b73ffffffffffffffffffffffffffffffffffffffff1661243f610f5e565b73ffffffffffffffffffffffffffffffffffffffff1614612495576040517f08c379a000000000000000000000000000000000000000000000000000000000815260040161248c90615172565b60405180910390fd5b565b6000600360009054906101000a900473ffffffffffffffffffffffffffffffffffffffff16905081600360006101000a81548173ffffffffffffffffffffffffffffffffffffffff021916908373ffffffffffffffffffffffffffffffffffffffff1602179055508173ffffffffffffffffffffffffffffffffffffffff168173ffffffffffffffffffffffffffffffffffffffff167f8be0079c531659141344cd1fd0a4f28419497f9722a3daafe3b4186f6b6457e060405160405180910390a35050565b600073ffffffffffffffffffffffffffffffffffffffff168373ffffffffffffffffffffffffffffffffffffffff16036125cc576040517f08c379a00000000000000000000000000000000000000000000000000000000081526004016125c390615204565b60405180910390fd5b60006125d66120f0565b905060006125e38461301e565b905060006125f08461301e565b905061261083876000858560405180602001604052806000815250612e37565b600080600087815260200190815260200160002060008873ffffffffffffffffffffffffffffffffffffffff1673ffffffffffffffffffffffffffffffffffffffff168152602001908152602001600020549050848110156126a7576040517f08c379a000000000000000000000000000000000000000000000000000000000815260040161269e90615296565b60405180910390fd5b84810360008088815260200190815260200160002060008973ffffffffffffffffffffffffffffffffffffffff1673ffffffffffffffffffffffffffffffffffffffff16815260200190815260200160002081905550600073ffffffffffffffffffffffffffffffffffffffff168773ffffffffffffffffffffffffffffffffffffffff168573ffffffffffffffffffffffffffffffffffffffff167fc3d58168c5ae7397731d063d5bbf3d657854427343f4c083240f7aacaa2d0f6289896040516127749291906152b6565b60405180910390a461279a84886000868660405180602001604052806000815250612e3f565b50505050505050565b6127ab6132cb565b6127b36132cb565b600085670de0b6b3a7640000866127ca9190614522565b6127d4919061530e565b905086826000019073ffffffffffffffffffffffffffffffffffffffff16908173ffffffffffffffffffffffffffffffffffffffff168152505085826020018181525050670de0b6b3a76400008561282c9190614522565b82604001818152505080826060018181525050836201518061284e9190614522565b426128599190614bc6565b82608001818152505060008260a00190151590811515815250508192505050949350505050565b600073ffffffffffffffffffffffffffffffffffffffff168473ffffffffffffffffffffffffffffffffffffffff16036128ef576040517f08c379a00000000000000000000000000000000000000000000000000000000081526004016128e6906153b1565b60405180910390fd5b60006128f96120f0565b905060006129068561301e565b905060006129138561301e565b905061292483600089858589612e37565b8460008088815260200190815260200160002060008973ffffffffffffffffffffffffffffffffffffffff1673ffffffffffffffffffffffffffffffffffffffff16815260200190815260200160002060008282546129839190614bc6565b925050819055508673ffffffffffffffffffffffffffffffffffffffff16600073ffffffffffffffffffffffffffffffffffffffff168473ffffffffffffffffffffffffffffffffffffffff167fc3d58168c5ae7397731d063d5bbf3d657854427343f4c083240f7aacaa2d0f628989604051612a019291906152b6565b60405180910390a4612a1883600089858589612e3f565b612a2783600089898989613098565b50505050505050565b8173ffffffffffffffffffffffffffffffffffffffff168373ffffffffffffffffffffffffffffffffffffffff1603612a9e576040517f08c379a0000000000000000000000000000000000000000000000000000000008152600401612a9590615443565b60405180910390fd5b80600160008573ffffffffffffffffffffffffffffffffffffffff1673ffffffffffffffffffffffffffffffffffffffff16815260200190815260200160002060008473ffffffffffffffffffffffffffffffffffffffff1673ffffffffffffffffffffffffffffffffffffffff16815260200190815260200160002060006101000a81548160ff0219169083151502179055508173ffffffffffffffffffffffffffffffffffffffff168373ffffffffffffffffffffffffffffffffffffffff167f17307eab39ab6107e8899845ad3d59bd9653f200f220920489ca2b5937696c3183604051612b8f91906134cb565b60405180910390a3505050565b600073ffffffffffffffffffffffffffffffffffffffff168473ffffffffffffffffffffffffffffffffffffffff1603612c0b576040517f08c379a0000000000000000000000000000000000000000000000000000000008152600401612c029061503d565b60405180910390fd5b6000612c156120f0565b90506000612c228561301e565b90506000612c2f8561301e565b9050612c3f838989858589612e37565b600080600088815260200190815260200160002060008a73ffffffffffffffffffffffffffffffffffffffff1673ffffffffffffffffffffffffffffffffffffffff16815260200190815260200160002054905085811015612cd6576040517f08c379a0000000000000000000000000000000000000000000000000000000008152600401612ccd906150cf565b60405180910390fd5b85810360008089815260200190815260200160002060008b73ffffffffffffffffffffffffffffffffffffffff1673ffffffffffffffffffffffffffffffffffffffff168152602001908152602001600020819055508560008089815260200190815260200160002060008a73ffffffffffffffffffffffffffffffffffffffff1673ffffffffffffffffffffffffffffffffffffffff1681526020019081526020016000206000828254612d8b9190614bc6565b925050819055508773ffffffffffffffffffffffffffffffffffffffff168973ffffffffffffffffffffffffffffffffffffffff168573ffffffffffffffffffffffffffffffffffffffff167fc3d58168c5ae7397731d063d5bbf3d657854427343f4c083240f7aacaa2d0f628a8a604051612e089291906152b6565b60405180910390a4612e1e848a8a86868a612e3f565b612e2c848a8a8a8a8a613098565b505050505050505050565b505050505050565b505050505050565b612e668473ffffffffffffffffffffffffffffffffffffffff1661326f565b15613016578373ffffffffffffffffffffffffffffffffffffffff1663bc197c8187878686866040518663ffffffff1660e01b8152600401612eac9594939291906154b8565b6020604051808303816000875af1925050508015612ee857506040513d601f19601f82011682018060405250810190612ee59190615535565b60015b612f8d57612ef461556f565b806308c379a003612f505750612f08615591565b80612f135750612f52565b806040517f08c379a0000000000000000000000000000000000000000000000000000000008152600401612f4791906135a3565b60405180910390fd5b505b6040517f08c379a0000000000000000000000000000000000000000000000000000000008152600401612f8490615693565b60405180910390fd5b63bc197c8160e01b7bffffffffffffffffffffffffffffffffffffffffffffffffffffffff1916817bffffffffffffffffffffffffffffffffffffffffffffffffffffffff191614613014576040517f08c379a000000000000000000000000000000000000000000000000000000000815260040161300b90615725565b60405180910390fd5b505b505050505050565b60606000600167ffffffffffffffff81111561303d5761303c6135ca565b5b60405190808252806020026020018201604052801561306b5781602001602082028036833780820191505090505b5090508281600081518110613083576130826143dc565b5b60200260200101818152505080915050919050565b6130b78473ffffffffffffffffffffffffffffffffffffffff1661326f565b15613267578373ffffffffffffffffffffffffffffffffffffffff1663f23a6e6187878686866040518663ffffffff1660e01b81526004016130fd959493929190615745565b6020604051808303816000875af192505050801561313957506040513d601f19601f820116820180604052508101906131369190615535565b60015b6131de5761314561556f565b806308c379a0036131a15750613159615591565b8061316457506131a3565b806040517f08c379a000000000000000000000000000000000000000000000000000000000815260040161319891906135a3565b60405180910390fd5b505b6040517f08c379a00000000000000000000000000000000000000000000000000000000081526004016131d590615693565b60405180910390fd5b63f23a6e6160e01b7bffffffffffffffffffffffffffffffffffffffffffffffffffffffff1916817bffffffffffffffffffffffffffffffffffffffffffffffffffffffff191614613265576040517f08c379a000000000000000000000000000000000000000000000000000000000815260040161325c90615725565b60405180910390fd5b505b505050505050565b6000808273ffffffffffffffffffffffffffffffffffffffff163b119050919050565b6040518060600160405280600073ffffffffffffffffffffffffffffffffffffffff168152602001600081526020016000151581525090565b6040518060c00160405280600073ffffffffffffffffffffffffffffffffffffffff168152602001600081526020016000815260200160008152602001600081526020016000151581525090565b6000604051905090565b600080fd5b600080fd5b600073ffffffffffffffffffffffffffffffffffffffff82169050919050565b60006133588261332d565b9050919050565b6133688161334d565b811461337357600080fd5b50565b6000813590506133858161335f565b92915050565b6000819050919050565b61339e8161338b565b81146133a957600080fd5b50565b6000813590506133bb81613395565b92915050565b600080604083850312156133d8576133d7613323565b5b60006133e685828601613376565b92505060206133f7858286016133ac565b9150509250929050565b61340a8161338b565b82525050565b60006020820190506134256000830184613401565b92915050565b60007fffffffff0000000000000000000000000000000000000000000000000000000082169050919050565b6134608161342b565b811461346b57600080fd5b50565b60008135905061347d81613457565b92915050565b60006020828403121561349957613498613323565b5b60006134a78482850161346e565b91505092915050565b60008115159050919050565b6134c5816134b0565b82525050565b60006020820190506134e060008301846134bc565b92915050565b6000602082840312156134fc576134fb613323565b5b600061350a848285016133ac565b91505092915050565b600081519050919050565b600082825260208201905092915050565b60005b8381101561354d578082015181840152602081019050613532565b60008484015250505050565b6000601f19601f8301169050919050565b600061357582613513565b61357f818561351e565b935061358f81856020860161352f565b61359881613559565b840191505092915050565b600060208201905081810360008301526135bd818461356a565b905092915050565b600080fd5b7f4e487b7100000000000000000000000000000000000000000000000000000000600052604160045260246000fd5b61360282613559565b810181811067ffffffffffffffff82111715613621576136206135ca565b5b80604052505050565b6000613634613319565b905061364082826135f9565b919050565b600067ffffffffffffffff8211156136605761365f6135ca565b5b602082029050602081019050919050565b600080fd5b600061368961368484613645565b61362a565b905080838252602082019050602084028301858111156136ac576136ab613671565b5b835b818110156136d557806136c188826133ac565b8452602084019350506020810190506136ae565b5050509392505050565b600082601f8301126136f4576136f36135c5565b5b8135613704848260208601613676565b91505092915050565b600080fd5b600067ffffffffffffffff82111561372d5761372c6135ca565b5b61373682613559565b9050602081019050919050565b82818337600083830152505050565b600061376561376084613712565b61362a565b9050828152602081018484840111156137815761378061370d565b5b61378c848285613743565b509392505050565b600082601f8301126137a9576137a86135c5565b5b81356137b9848260208601613752565b91505092915050565b600080600080600060a086880312156137de576137dd613323565b5b60006137ec88828901613376565b95505060206137fd88828901613376565b945050604086013567ffffffffffffffff81111561381e5761381d613328565b5b61382a888289016136df565b935050606086013567ffffffffffffffff81111561384b5761384a613328565b5b613857888289016136df565b925050608086013567ffffffffffffffff81111561387857613877613328565b5b61388488828901613794565b9150509295509295909350565b6000819050919050565b60006138b66138b16138ac8461332d565b613891565b61332d565b9050919050565b60006138c88261389b565b9050919050565b60006138da826138bd565b9050919050565b6138ea816138cf565b82525050565b600060208201905061390560008301846138e1565b92915050565b60006020828403121561392157613920613323565b5b600061392f84828501613376565b91505092915050565b6000806040838503121561394f5761394e613323565b5b600061395d858286016133ac565b925050602061396e858286016133ac565b9150509250929050565b6139818161334d565b82525050565b6139908161338b565b82525050565b61399f816134b0565b82525050565b6060820160008201516139bb6000850182613978565b5060208201516139ce6020850182613987565b5060408201516139e16040850182613996565b50505050565b60006060820190506139fc60008301846139a5565b92915050565b600067ffffffffffffffff821115613a1d57613a1c6135ca565b5b602082029050602081019050919050565b6000613a41613a3c84613a02565b61362a565b90508083825260208201905060208402830185811115613a6457613a63613671565b5b835b81811015613a8d5780613a798882613376565b845260208401935050602081019050613a66565b5050509392505050565b600082601f830112613aac57613aab6135c5565b5b8135613abc848260208601613a2e565b91505092915050565b60008060408385031215613adc57613adb613323565b5b600083013567ffffffffffffffff811115613afa57613af9613328565b5b613b0685828601613a97565b925050602083013567ffffffffffffffff811115613b2757613b26613328565b5b613b33858286016136df565b9150509250929050565b600081519050919050565b600082825260208201905092915050565b6000819050602082019050919050565b6000613b758383613987565b60208301905092915050565b6000602082019050919050565b6000613b9982613b3d565b613ba38185613b48565b9350613bae83613b59565b8060005b83811015613bdf578151613bc68882613b69565b9750613bd183613b81565b925050600181019050613bb2565b5085935050505092915050565b60006020820190508181036000830152613c068184613b8e565b905092915050565b6000613c19826138bd565b9050919050565b613c2981613c0e565b82525050565b6000602082019050613c446000830184613c20565b92915050565b600080600060608486031215613c6357613c62613323565b5b6000613c7186828701613376565b9350506020613c82868287016133ac565b9250506040613c93868287016133ac565b9150509250925092565b60c082016000820151613cb36000850182613978565b506020820151613cc66020850182613987565b506040820151613cd96040850182613987565b506060820151613cec6060850182613987565b506080820151613cff6080850182613987565b5060a0820151613d1260a0850182613996565b50505050565b600060c082019050613d2d6000830184613c9d565b92915050565b613d3c8161334d565b82525050565b6000602082019050613d576000830184613d33565b92915050565b600067ffffffffffffffff821115613d7857613d776135ca565b5b613d8182613559565b9050602081019050919050565b6000613da1613d9c84613d5d565b61362a565b905082815260208101848484011115613dbd57613dbc61370d565b5b613dc8848285613743565b509392505050565b600082601f830112613de557613de46135c5565b5b8135613df5848260208601613d8e565b91505092915050565b600080600080600080600060e0888a031215613e1d57613e1c613323565b5b6000613e2b8a828b01613376565b9750506020613e3c8a828b01613376565b9650506040613e4d8a828b016133ac565b9550506060613e5e8a828b016133ac565b9450506080613e6f8a828b016133ac565b93505060a0613e808a828b016133ac565b92505060c088013567ffffffffffffffff811115613ea157613ea0613328565b5b613ead8a828b01613dd0565b91505092959891949750929550565b613ec5816134b0565b8114613ed057600080fd5b50565b600081359050613ee281613ebc565b92915050565b60008060408385031215613eff57613efe613323565b5b6000613f0d85828601613376565b9250506020613f1e85828601613ed3565b9150509250929050565b6000606082019050613f3d6000830186613d33565b613f4a6020830185613401565b613f5760408301846134bc565b949350505050565b60008060408385031215613f7657613f75613323565b5b6000613f84858286016133ac565b9250506020613f9585828601613ed3565b9150509250929050565b60008060408385031215613fb657613fb5613323565b5b6000613fc485828601613376565b9250506020613fd585828601613376565b9150509250929050565b600080600080600060a08688031215613ffb57613ffa613323565b5b600061400988828901613376565b955050602061401a88828901613376565b945050604061402b888289016133ac565b935050606061403c888289016133ac565b925050608086013567ffffffffffffffff81111561405d5761405c613328565b5b61406988828901613794565b9150509295509295909350565b600080600080608085870312156140905761408f613323565b5b600061409e87828801613376565b94505060206140af878288016133ac565b93505060406140c0878288016133ac565b92505060606140d1878288016133ac565b91505092959194509250565b600060c0820190506140f26000830189613d33565b6140ff6020830188613401565b61410c6040830187613401565b6141196060830186613401565b6141266080830185613401565b61413360a08301846134bc565b979650505050505050565b7f4e487b7100000000000000000000000000000000000000000000000000000000600052602260045260246000fd5b6000600282049050600182168061418557607f821691505b6020821081036141985761419761413e565b5b50919050565b7f4973206974206e6f7420736f6c64206f75743f00000000000000000000000000600082015250565b60006141d460138361351e565b91506141df8261419e565b602082019050919050565b60006020820190508181036000830152614203816141c7565b9050919050565b60008151905061421981613395565b92915050565b60006020828403121561423557614234613323565b5b60006142438482850161420a565b91505092915050565b7f455243313135353a2063616c6c6572206973206e6f7420746f6b656e206f776e60008201527f6572206f7220617070726f766564000000000000000000000000000000000000602082015250565b60006142a8602e8361351e565b91506142b38261424c565b604082019050919050565b600060208201905081810360008301526142d78161429b565b9050919050565b7f53616c6543413f3f3f3f00000000000000000000000000000000000000000000600082015250565b6000614314600a8361351e565b915061431f826142de565b602082019050919050565b6000602082019050818103600083015261434381614307565b9050919050565b7f455243313135353a206163636f756e747320616e6420696473206c656e67746860008201527f206d69736d617463680000000000000000000000000000000000000000000000602082015250565b60006143a660298361351e565b91506143b18261434a565b604082019050919050565b600060208201905081810360008301526143d581614399565b9050919050565b7f4e487b7100000000000000000000000000000000000000000000000000000000600052603260045260246000fd5b7f4e487b7100000000000000000000000000000000000000000000000000000000600052601160045260246000fd5b60006144458261338b565b91507fffffffffffffffffffffffffffffffffffffffffffffffffffffffffffffffff82036144775761447661440b565b5b600182019050919050565b7f6e6f20616d6f756e742e00000000000000000000000000000000000000000000600082015250565b60006144b8600a8361351e565b91506144c382614482565b602082019050919050565b600060208201905081810360008301526144e7816144ab565b9050919050565b60006144f98261338b565b91506145048361338b565b925082820390508181111561451c5761451b61440b565b5b92915050565b600061452d8261338b565b91506145388361338b565b92508282026145468161338b565b9150828204841483151761455d5761455c61440b565b5b5092915050565b7f54686520766f74696e6720706572696f64206973206d6178696d756d20756e7460008201527f696c206f6e6520646179206265666f72652e0000000000000000000000000000602082015250565b60006145c060328361351e565b91506145cb82614564565b604082019050919050565b600060208201905081810360008301526145ef816145b3565b9050919050565b7f546865726520697320616c7265616479206120766f74652e0000000000000000600082015250565b600061462c60188361351e565b9150614637826145f6565b602082019050919050565b6000602082019050818103600083015261465b8161461f565b9050919050565b7f6861766520616c7265616479206265656e206973737565640000000000000000600082015250565b600061469860188361351e565b91506146a382614662565b602082019050919050565b600060208201905081810360008301526146c78161468b565b9050919050565b7f49742773206e6f7420796f752e00000000000000000000000000000000000000600082015250565b6000614704600d8361351e565b915061470f826146ce565b602082019050919050565b60006020820190508181036000830152614733816146f7565b9050919050565b60008190508160005260206000209050919050565b60006020601f8301049050919050565b600082821b905092915050565b60006008830261479c7fffffffffffffffffffffffffffffffffffffffffffffffffffffffffffffffff8261475f565b6147a6868361475f565b95508019841693508086168417925050509392505050565b60006147d96147d46147cf8461338b565b613891565b61338b565b9050919050565b6000819050919050565b6147f3836147be565b6148076147ff826147e0565b84845461476c565b825550505050565b600090565b61481c61480f565b6148278184846147ea565b505050565b5b8181101561484b57614840600082614814565b60018101905061482d565b5050565b601f821115614890576148618161473a565b61486a8461474f565b81016020851015614879578190505b61488d6148858561474f565b83018261482c565b50505b505050565b600082821c905092915050565b60006148b360001984600802614895565b1980831691505092915050565b60006148cc83836148a2565b9150826002028217905092915050565b6148e582613513565b67ffffffffffffffff8111156148fe576148fd6135ca565b5b614908825461416d565b61491382828561484f565b600060209050601f8311600181146149465760008415614934578287015190505b61493e85826148c0565b8655506149a6565b601f1984166149548661473a565b60005b8281101561497c57848901518255600182019150602085019450602081019050614957565b868310156149995784890151614995601f8916826148a2565b8355505b6001600288020188555050505b505050505050565b600060c0820190506149c36000830189613d33565b6149d06020830188613401565b6149dd6040830187613401565b6149ea6060830186613401565b6149f76080830185613401565b81810360a0830152614a09818461356a565b9050979650505050505050565b7f497320697420736f6c64206f75743f0000000000000000000000000000000000600082015250565b6000614a4c600f8361351e565b9150614a5782614a16565b602082019050919050565b60006020820190508181036000830152614a7b81614a3f565b9050919050565b7f54696d65204f75743f0000000000000000000000000000000000000000000000600082015250565b6000614ab860098361351e565b9150614ac382614a82565b602082019050919050565b60006020820190508181036000830152614ae781614aab565b9050919050565b7f6e6f20616d6f756e740000000000000000000000000000000000000000000000600082015250565b6000614b2460098361351e565b9150614b2f82614aee565b602082019050919050565b60006020820190508181036000830152614b5381614b17565b9050919050565b7f656e642046756e6464696e673f00000000000000000000000000000000000000600082015250565b6000614b90600d8361351e565b9150614b9b82614b5a565b602082019050919050565b60006020820190508181036000830152614bbf81614b83565b9050919050565b6000614bd18261338b565b9150614bdc8361338b565b9250828201905080821115614bf457614bf361440b565b5b92915050565b7f46756e6464696e6743413f3f3f3f000000000000000000000000000000000000600082015250565b6000614c30600e8361351e565b9150614c3b82614bfa565b602082019050919050565b60006020820190508181036000830152614c5f81614c23565b9050919050565b7f52756e206f6e6365206f6e6c7920696e2074686520626567696e6e696e670000600082015250565b6000614c9c601e8361351e565b9150614ca782614c66565b602082019050919050565b60006020820190508181036000830152614ccb81614c8f565b9050919050565b7f4f776e61626c653a206e6577206f776e657220697320746865207a65726f206160008201527f6464726573730000000000000000000000000000000000000000000000000000602082015250565b6000614d2e60268361351e565b9150614d3982614cd2565b604082019050919050565b60006020820190508181036000830152614d5d81614d21565b9050919050565b6000608082019050614d796000830187613d33565b614d866020830186613401565b614d936040830185613401565b614da06060830184613401565b95945050505050565b7f54696d65204f7574000000000000000000000000000000000000000000000000600082015250565b6000614ddf60088361351e565b9150614dea82614da9565b602082019050919050565b60006020820190508181036000830152614e0e81614dd2565b9050919050565b7f43726561746f727320617265206e6f7420616c6c6f77656420746f207061727460008201527f6963697061746500000000000000000000000000000000000000000000000000602082015250565b6000614e7160278361351e565b9150614e7c82614e15565b604082019050919050565b60006020820190508181036000830152614ea081614e64565b9050919050565b7f455243313135353a2061646472657373207a65726f206973206e6f742061207660008201527f616c6964206f776e657200000000000000000000000000000000000000000000602082015250565b6000614f03602a8361351e565b9150614f0e82614ea7565b604082019050919050565b60006020820190508181036000830152614f3281614ef6565b9050919050565b7f455243313135353a2069647320616e6420616d6f756e7473206c656e6774682060008201527f6d69736d61746368000000000000000000000000000000000000000000000000602082015250565b6000614f9560288361351e565b9150614fa082614f39565b604082019050919050565b60006020820190508181036000830152614fc481614f88565b9050919050565b7f455243313135353a207472616e7366657220746f20746865207a65726f20616460008201527f6472657373000000000000000000000000000000000000000000000000000000602082015250565b600061502760258361351e565b915061503282614fcb565b604082019050919050565b600060208201905081810360008301526150568161501a565b9050919050565b7f455243313135353a20696e73756666696369656e742062616c616e636520666f60008201527f72207472616e7366657200000000000000000000000000000000000000000000602082015250565b60006150b9602a8361351e565b91506150c48261505d565b604082019050919050565b600060208201905081810360008301526150e8816150ac565b9050919050565b600060408201905081810360008301526151098185613b8e565b9050818103602083015261511d8184613b8e565b90509392505050565b7f4f776e61626c653a2063616c6c6572206973206e6f7420746865206f776e6572600082015250565b600061515c60208361351e565b915061516782615126565b602082019050919050565b6000602082019050818103600083015261518b8161514f565b9050919050565b7f455243313135353a206275726e2066726f6d20746865207a65726f206164647260008201527f6573730000000000000000000000000000000000000000000000000000000000602082015250565b60006151ee60238361351e565b91506151f982615192565b604082019050919050565b6000602082019050818103600083015261521d816151e1565b9050919050565b7f455243313135353a206275726e20616d6f756e7420657863656564732062616c60008201527f616e636500000000000000000000000000000000000000000000000000000000602082015250565b600061528060248361351e565b915061528b82615224565b604082019050919050565b600060208201905081810360008301526152af81615273565b9050919050565b60006040820190506152cb6000830185613401565b6152d86020830184613401565b9392505050565b7f4e487b7100000000000000000000000000000000000000000000000000000000600052601260045260246000fd5b60006153198261338b565b91506153248361338b565b925082615334576153336152df565b5b828204905092915050565b7f455243313135353a206d696e7420746f20746865207a65726f2061646472657360008201527f7300000000000000000000000000000000000000000000000000000000000000602082015250565b600061539b60218361351e565b91506153a68261533f565b604082019050919050565b600060208201905081810360008301526153ca8161538e565b9050919050565b7f455243313135353a2073657474696e6720617070726f76616c2073746174757360008201527f20666f722073656c660000000000000000000000000000000000000000000000602082015250565b600061542d60298361351e565b9150615438826153d1565b604082019050919050565b6000602082019050818103600083015261545c81615420565b9050919050565b600081519050919050565b600082825260208201905092915050565b600061548a82615463565b615494818561546e565b93506154a481856020860161352f565b6154ad81613559565b840191505092915050565b600060a0820190506154cd6000830188613d33565b6154da6020830187613d33565b81810360408301526154ec8186613b8e565b905081810360608301526155008185613b8e565b90508181036080830152615514818461547f565b90509695505050505050565b60008151905061552f81613457565b92915050565b60006020828403121561554b5761554a613323565b5b600061555984828501615520565b91505092915050565b60008160e01c9050919050565b600060033d111561558e5760046000803e61558b600051615562565b90505b90565b600060443d1061561e576155a3613319565b60043d036004823e80513d602482011167ffffffffffffffff821117156155cb57505061561e565b808201805167ffffffffffffffff8111156155e9575050505061561e565b80602083010160043d03850181111561560657505050505061561e565b615615826020018501866135f9565b82955050505050505b90565b7f455243313135353a207472616e7366657220746f206e6f6e2d4552433131353560008201527f526563656976657220696d706c656d656e746572000000000000000000000000602082015250565b600061567d60348361351e565b915061568882615621565b604082019050919050565b600060208201905081810360008301526156ac81615670565b9050919050565b7f455243313135353a204552433131353552656365697665722072656a6563746560008201527f6420746f6b656e73000000000000000000000000000000000000000000000000602082015250565b600061570f60288361351e565b915061571a826156b3565b604082019050919050565b6000602082019050818103600083015261573e81615702565b9050919050565b600060a08201905061575a6000830188613d33565b6157676020830187613d33565b6157746040830186613401565b6157816060830185613401565b8181036080830152615793818461547f565b9050969550505050505056fea2646970667358221220f61c741c8de30da2ba5f4cb97dd705d35734be1065826938171242b1b97d07a664736f6c63430008110033",
			"opcodes": "PUSH1 0x80 PUSH1 0x40 MSTORE CALLVALUE DUP1 ISZERO PUSH3 0x11 JUMPI PUSH1 0x0 DUP1 REVERT JUMPDEST POP PUSH1 0x40 MLOAD DUP1 PUSH1 0x20 ADD PUSH1 0x40 MSTORE DUP1 PUSH1 0x0 DUP2 MSTORE POP PUSH3 0x33 DUP2 PUSH3 0x5A PUSH1 0x20 SHL PUSH1 0x20 SHR JUMP JUMPDEST POP PUSH3 0x54 PUSH3 0x48 PUSH3 0x6F PUSH1 0x20 SHL PUSH1 0x20 SHR JUMP JUMPDEST PUSH3 0x77 PUSH1 0x20 SHL PUSH1 0x20 SHR JUMP JUMPDEST PUSH3 0x49E JUMP JUMPDEST DUP1 PUSH1 0x2 SWAP1 DUP2 PUSH3 0x6B SWAP2 SWAP1 PUSH3 0x3B7 JUMP JUMPDEST POP POP JUMP JUMPDEST PUSH1 0x0 CALLER SWAP1 POP SWAP1 JUMP JUMPDEST PUSH1 0x0 PUSH1 0x3 PUSH1 0x0 SWAP1 SLOAD SWAP1 PUSH2 0x100 EXP SWAP1 DIV PUSH20 0xFFFFFFFFFFFFFFFFFFFFFFFFFFFFFFFFFFFFFFFF AND SWAP1 POP DUP2 PUSH1 0x3 PUSH1 0x0 PUSH2 0x100 EXP DUP2 SLOAD DUP2 PUSH20 0xFFFFFFFFFFFFFFFFFFFFFFFFFFFFFFFFFFFFFFFF MUL NOT AND SWAP1 DUP4 PUSH20 0xFFFFFFFFFFFFFFFFFFFFFFFFFFFFFFFFFFFFFFFF AND MUL OR SWAP1 SSTORE POP DUP2 PUSH20 0xFFFFFFFFFFFFFFFFFFFFFFFFFFFFFFFFFFFFFFFF AND DUP2 PUSH20 0xFFFFFFFFFFFFFFFFFFFFFFFFFFFFFFFFFFFFFFFF AND PUSH32 0x8BE0079C531659141344CD1FD0A4F28419497F9722A3DAAFE3B4186F6B6457E0 PUSH1 0x40 MLOAD PUSH1 0x40 MLOAD DUP1 SWAP2 SUB SWAP1 LOG3 POP POP JUMP JUMPDEST PUSH1 0x0 DUP2 MLOAD SWAP1 POP SWAP2 SWAP1 POP JUMP JUMPDEST PUSH32 0x4E487B7100000000000000000000000000000000000000000000000000000000 PUSH1 0x0 MSTORE PUSH1 0x41 PUSH1 0x4 MSTORE PUSH1 0x24 PUSH1 0x0 REVERT JUMPDEST PUSH32 0x4E487B7100000000000000000000000000000000000000000000000000000000 PUSH1 0x0 MSTORE PUSH1 0x22 PUSH1 0x4 MSTORE PUSH1 0x24 PUSH1 0x0 REVERT JUMPDEST PUSH1 0x0 PUSH1 0x2 DUP3 DIV SWAP1 POP PUSH1 0x1 DUP3 AND DUP1 PUSH3 0x1BF JUMPI PUSH1 0x7F DUP3 AND SWAP2 POP JUMPDEST PUSH1 0x20 DUP3 LT DUP2 SUB PUSH3 0x1D5 JUMPI PUSH3 0x1D4 PUSH3 0x177 JUMP JUMPDEST JUMPDEST POP SWAP2 SWAP1 POP JUMP JUMPDEST PUSH1 0x0 DUP2 SWAP1 POP DUP2 PUSH1 0x0 MSTORE PUSH1 0x20 PUSH1 0x0 KECCAK256 SWAP1 POP SWAP2 SWAP1 POP JUMP JUMPDEST PUSH1 0x0 PUSH1 0x20 PUSH1 0x1F DUP4 ADD DIV SWAP1 POP SWAP2 SWAP1 POP JUMP JUMPDEST PUSH1 0x0 DUP3 DUP3 SHL SWAP1 POP SWAP3 SWAP2 POP POP JUMP JUMPDEST PUSH1 0x0 PUSH1 0x8 DUP4 MUL PUSH3 0x23F PUSH32 0xFFFFFFFFFFFFFFFFFFFFFFFFFFFFFFFFFFFFFFFFFFFFFFFFFFFFFFFFFFFFFFFF DUP3 PUSH3 0x200 JUMP JUMPDEST PUSH3 0x24B DUP7 DUP4 PUSH3 0x200 JUMP JUMPDEST SWAP6 POP DUP1 NOT DUP5 AND SWAP4 POP DUP1 DUP7 AND DUP5 OR SWAP3 POP POP POP SWAP4 SWAP3 POP POP POP JUMP JUMPDEST PUSH1 0x0 DUP2 SWAP1 POP SWAP2 SWAP1 POP JUMP JUMPDEST PUSH1 0x0 DUP2 SWAP1 POP SWAP2 SWAP1 POP JUMP JUMPDEST PUSH1 0x0 PUSH3 0x298 PUSH3 0x292 PUSH3 0x28C DUP5 PUSH3 0x263 JUMP JUMPDEST PUSH3 0x26D JUMP JUMPDEST PUSH3 0x263 JUMP JUMPDEST SWAP1 POP SWAP2 SWAP1 POP JUMP JUMPDEST PUSH1 0x0 DUP2 SWAP1 POP SWAP2 SWAP1 POP JUMP JUMPDEST PUSH3 0x2B4 DUP4 PUSH3 0x277 JUMP JUMPDEST PUSH3 0x2CC PUSH3 0x2C3 DUP3 PUSH3 0x29F JUMP JUMPDEST DUP5 DUP5 SLOAD PUSH3 0x20D JUMP JUMPDEST DUP3 SSTORE POP POP POP POP JUMP JUMPDEST PUSH1 0x0 SWAP1 JUMP JUMPDEST PUSH3 0x2E3 PUSH3 0x2D4 JUMP JUMPDEST PUSH3 0x2F0 DUP2 DUP5 DUP5 PUSH3 0x2A9 JUMP JUMPDEST POP POP POP JUMP JUMPDEST JUMPDEST DUP2 DUP2 LT ISZERO PUSH3 0x318 JUMPI PUSH3 0x30C PUSH1 0x0 DUP3 PUSH3 0x2D9 JUMP JUMPDEST PUSH1 0x1 DUP2 ADD SWAP1 POP PUSH3 0x2F6 JUMP JUMPDEST POP POP JUMP JUMPDEST PUSH1 0x1F DUP3 GT ISZERO PUSH3 0x367 JUMPI PUSH3 0x331 DUP2 PUSH3 0x1DB JUMP JUMPDEST PUSH3 0x33C DUP5 PUSH3 0x1F0 JUMP JUMPDEST DUP2 ADD PUSH1 0x20 DUP6 LT ISZERO PUSH3 0x34C JUMPI DUP2 SWAP1 POP JUMPDEST PUSH3 0x364 PUSH3 0x35B DUP6 PUSH3 0x1F0 JUMP JUMPDEST DUP4 ADD DUP3 PUSH3 0x2F5 JUMP JUMPDEST POP POP JUMPDEST POP POP POP JUMP JUMPDEST PUSH1 0x0 DUP3 DUP3 SHR SWAP1 POP SWAP3 SWAP2 POP POP JUMP JUMPDEST PUSH1 0x0 PUSH3 0x38C PUSH1 0x0 NOT DUP5 PUSH1 0x8 MUL PUSH3 0x36C JUMP JUMPDEST NOT DUP1 DUP4 AND SWAP2 POP POP SWAP3 SWAP2 POP POP JUMP JUMPDEST PUSH1 0x0 PUSH3 0x3A7 DUP4 DUP4 PUSH3 0x379 JUMP JUMPDEST SWAP2 POP DUP3 PUSH1 0x2 MUL DUP3 OR SWAP1 POP SWAP3 SWAP2 POP POP JUMP JUMPDEST PUSH3 0x3C2 DUP3 PUSH3 0x13D JUMP JUMPDEST PUSH8 0xFFFFFFFFFFFFFFFF DUP2 GT ISZERO PUSH3 0x3DE JUMPI PUSH3 0x3DD PUSH3 0x148 JUMP JUMPDEST JUMPDEST PUSH3 0x3EA DUP3 SLOAD PUSH3 0x1A6 JUMP JUMPDEST PUSH3 0x3F7 DUP3 DUP3 DUP6 PUSH3 0x31C JUMP JUMPDEST PUSH1 0x0 PUSH1 0x20 SWAP1 POP PUSH1 0x1F DUP4 GT PUSH1 0x1 DUP2 EQ PUSH3 0x42F JUMPI PUSH1 0x0 DUP5 ISZERO PUSH3 0x41A JUMPI DUP3 DUP8 ADD MLOAD SWAP1 POP JUMPDEST PUSH3 0x426 DUP6 DUP3 PUSH3 0x399 JUMP JUMPDEST DUP7 SSTORE POP PUSH3 0x496 JUMP JUMPDEST PUSH1 0x1F NOT DUP5 AND PUSH3 0x43F DUP7 PUSH3 0x1DB JUMP JUMPDEST PUSH1 0x0 JUMPDEST DUP3 DUP2 LT ISZERO PUSH3 0x469 JUMPI DUP5 DUP10 ADD MLOAD DUP3 SSTORE PUSH1 0x1 DUP3 ADD SWAP2 POP PUSH1 0x20 DUP6 ADD SWAP5 POP PUSH1 0x20 DUP2 ADD SWAP1 POP PUSH3 0x442 JUMP JUMPDEST DUP7 DUP4 LT ISZERO PUSH3 0x489 JUMPI DUP5 DUP10 ADD MLOAD PUSH3 0x485 PUSH1 0x1F DUP10 AND DUP3 PUSH3 0x379 JUMP JUMPDEST DUP4 SSTORE POP JUMPDEST PUSH1 0x1 PUSH1 0x2 DUP9 MUL ADD DUP9 SSTORE POP POP POP JUMPDEST POP POP POP POP POP POP JUMP JUMPDEST PUSH2 0x57D5 DUP1 PUSH3 0x4AE PUSH1 0x0 CODECOPY PUSH1 0x0 RETURN INVALID PUSH1 0x80 PUSH1 0x40 MSTORE CALLVALUE DUP1 ISZERO PUSH2 0x10 JUMPI PUSH1 0x0 DUP1 REVERT JUMPDEST POP PUSH1 0x4 CALLDATASIZE LT PUSH2 0x210 JUMPI PUSH1 0x0 CALLDATALOAD PUSH1 0xE0 SHR DUP1 PUSH4 0x8DA5CB5B GT PUSH2 0x125 JUMPI DUP1 PUSH4 0xD68AD7A0 GT PUSH2 0xAD JUMPI DUP1 PUSH4 0xF2FDE38B GT PUSH2 0x7C JUMPI DUP1 PUSH4 0xF2FDE38B EQ PUSH2 0x659 JUMPI DUP1 PUSH4 0xF4A3A92B EQ PUSH2 0x675 JUMPI DUP1 PUSH4 0xF8A14F46 EQ PUSH2 0x691 JUMPI DUP1 PUSH4 0xFAC333AC EQ PUSH2 0x6C6 JUMPI DUP1 PUSH4 0xFCC1FF5C EQ PUSH2 0x6F6 JUMPI PUSH2 0x210 JUMP JUMPDEST DUP1 PUSH4 0xD68AD7A0 EQ PUSH2 0x5C1 JUMPI DUP1 PUSH4 0xE29BE1A1 EQ PUSH2 0x5F1 JUMPI DUP1 PUSH4 0xE985E9C5 EQ PUSH2 0x60D JUMPI DUP1 PUSH4 0xF242432A EQ PUSH2 0x63D JUMPI PUSH2 0x210 JUMP JUMPDEST DUP1 PUSH4 0xAEE4A42A GT PUSH2 0xF4 JUMPI DUP1 PUSH4 0xAEE4A42A EQ PUSH2 0x4F7 JUMPI DUP1 PUSH4 0xC31F4B58 EQ PUSH2 0x527 JUMPI DUP1 PUSH4 0xC87B56DD EQ PUSH2 0x543 JUMPI DUP1 PUSH4 0xCFAAD27C EQ PUSH2 0x573 JUMPI DUP1 PUSH4 0xD198CC01 EQ PUSH2 0x5A5 JUMPI PUSH2 0x210 JUMP JUMPDEST DUP1 PUSH4 0x8DA5CB5B EQ PUSH2 0x485 JUMPI DUP1 PUSH4 0x90FE5609 EQ PUSH2 0x4A3 JUMPI DUP1 PUSH4 0x9D835C5F EQ PUSH2 0x4BF JUMPI DUP1 PUSH4 0xA22CB465 EQ PUSH2 0x4DB JUMPI PUSH2 0x210 JUMP JUMPDEST DUP1 PUSH4 0x46A0D50A GT PUSH2 0x1A8 JUMPI DUP1 PUSH4 0x61B1B23C GT PUSH2 0x177 JUMPI DUP1 PUSH4 0x61B1B23C EQ PUSH2 0x3F3 JUMPI DUP1 PUSH4 0x715018A6 EQ PUSH2 0x411 JUMPI DUP1 PUSH4 0x77379082 EQ PUSH2 0x41B JUMPI DUP1 PUSH4 0x7ABFEE42 EQ PUSH2 0x437 JUMPI DUP1 PUSH4 0x8D63193D EQ PUSH2 0x455 JUMPI PUSH2 0x210 JUMP JUMPDEST DUP1 PUSH4 0x46A0D50A EQ PUSH2 0x347 JUMPI DUP1 PUSH4 0x4B77F8D0 EQ PUSH2 0x377 JUMPI DUP1 PUSH4 0x4E1273F4 EQ PUSH2 0x393 JUMPI DUP1 PUSH4 0x4F4EACD8 EQ PUSH2 0x3C3 JUMPI PUSH2 0x210 JUMP JUMPDEST DUP1 PUSH4 0x2374FDCF GT PUSH2 0x1E4 JUMPI DUP1 PUSH4 0x2374FDCF EQ PUSH2 0x2D5 JUMPI DUP1 PUSH4 0x2EB2C2D6 EQ PUSH2 0x2F1 JUMPI DUP1 PUSH4 0x325D20C4 EQ PUSH2 0x30D JUMPI DUP1 PUSH4 0x4672A602 EQ PUSH2 0x32B JUMPI PUSH2 0x210 JUMP JUMPDEST DUP1 PUSH3 0xFDD58E EQ PUSH2 0x215 JUMPI DUP1 PUSH4 0x1FFC9A7 EQ PUSH2 0x245 JUMPI DUP1 PUSH4 0xE89341C EQ PUSH2 0x275 JUMPI DUP1 PUSH4 0xFE2A68D EQ PUSH2 0x2A5 JUMPI JUMPDEST PUSH1 0x0 DUP1 REVERT JUMPDEST PUSH2 0x22F PUSH1 0x4 DUP1 CALLDATASIZE SUB DUP2 ADD SWAP1 PUSH2 0x22A SWAP2 SWAP1 PUSH2 0x33C1 JUMP JUMPDEST PUSH2 0x712 JUMP JUMPDEST PUSH1 0x40 MLOAD PUSH2 0x23C SWAP2 SWAP1 PUSH2 0x3410 JUMP JUMPDEST PUSH1 0x40 MLOAD DUP1 SWAP2 SUB SWAP1 RETURN JUMPDEST PUSH2 0x25F PUSH1 0x4 DUP1 CALLDATASIZE SUB DUP2 ADD SWAP1 PUSH2 0x25A SWAP2 SWAP1 PUSH2 0x3483 JUMP JUMPDEST PUSH2 0x726 JUMP JUMPDEST PUSH1 0x40 MLOAD PUSH2 0x26C SWAP2 SWAP1 PUSH2 0x34CB JUMP JUMPDEST PUSH1 0x40 MLOAD DUP1 SWAP2 SUB SWAP1 RETURN JUMPDEST PUSH2 0x28F PUSH1 0x4 DUP1 CALLDATASIZE SUB DUP2 ADD SWAP1 PUSH2 0x28A SWAP2 SWAP1 PUSH2 0x34E6 JUMP JUMPDEST PUSH2 0x808 JUMP JUMPDEST PUSH1 0x40 MLOAD PUSH2 0x29C SWAP2 SWAP1 PUSH2 0x35A3 JUMP JUMPDEST PUSH1 0x40 MLOAD DUP1 SWAP2 SUB SWAP1 RETURN JUMPDEST PUSH2 0x2BF PUSH1 0x4 DUP1 CALLDATASIZE SUB DUP2 ADD SWAP1 PUSH2 0x2BA SWAP2 SWAP1 PUSH2 0x34E6 JUMP JUMPDEST PUSH2 0x89C JUMP JUMPDEST PUSH1 0x40 MLOAD PUSH2 0x2CC SWAP2 SWAP1 PUSH2 0x3410 JUMP JUMPDEST PUSH1 0x40 MLOAD DUP1 SWAP2 SUB SWAP1 RETURN JUMPDEST PUSH2 0x2EF PUSH1 0x4 DUP1 CALLDATASIZE SUB DUP2 ADD SWAP1 PUSH2 0x2EA SWAP2 SWAP1 PUSH2 0x34E6 JUMP JUMPDEST PUSH2 0x8B4 JUMP JUMPDEST STOP JUMPDEST PUSH2 0x30B PUSH1 0x4 DUP1 CALLDATASIZE SUB DUP2 ADD SWAP1 PUSH2 0x306 SWAP2 SWAP1 PUSH2 0x37C2 JUMP JUMPDEST PUSH2 0xA25 JUMP JUMPDEST STOP JUMPDEST PUSH2 0x315 PUSH2 0xAC6 JUMP JUMPDEST PUSH1 0x40 MLOAD PUSH2 0x322 SWAP2 SWAP1 PUSH2 0x38F0 JUMP JUMPDEST PUSH1 0x40 MLOAD DUP1 SWAP2 SUB SWAP1 RETURN JUMPDEST PUSH2 0x345 PUSH1 0x4 DUP1 CALLDATASIZE SUB DUP2 ADD SWAP1 PUSH2 0x340 SWAP2 SWAP1 PUSH2 0x390B JUMP JUMPDEST PUSH2 0xAEC JUMP JUMPDEST STOP JUMPDEST PUSH2 0x361 PUSH1 0x4 DUP1 CALLDATASIZE SUB DUP2 ADD SWAP1 PUSH2 0x35C SWAP2 SWAP1 PUSH2 0x3938 JUMP JUMPDEST PUSH2 0xB9E JUMP JUMPDEST PUSH1 0x40 MLOAD PUSH2 0x36E SWAP2 SWAP1 PUSH2 0x39E7 JUMP JUMPDEST PUSH1 0x40 MLOAD DUP1 SWAP2 SUB SWAP1 RETURN JUMPDEST PUSH2 0x391 PUSH1 0x4 DUP1 CALLDATASIZE SUB DUP2 ADD SWAP1 PUSH2 0x38C SWAP2 SWAP1 PUSH2 0x390B JUMP JUMPDEST PUSH2 0xC58 JUMP JUMPDEST STOP JUMPDEST PUSH2 0x3AD PUSH1 0x4 DUP1 CALLDATASIZE SUB DUP2 ADD SWAP1 PUSH2 0x3A8 SWAP2 SWAP1 PUSH2 0x3AC5 JUMP JUMPDEST PUSH2 0xC66 JUMP JUMPDEST PUSH1 0x40 MLOAD PUSH2 0x3BA SWAP2 SWAP1 PUSH2 0x3BEC JUMP JUMPDEST PUSH1 0x40 MLOAD DUP1 SWAP2 SUB SWAP1 RETURN JUMPDEST PUSH2 0x3DD PUSH1 0x4 DUP1 CALLDATASIZE SUB DUP2 ADD SWAP1 PUSH2 0x3D8 SWAP2 SWAP1 PUSH2 0x34E6 JUMP JUMPDEST PUSH2 0xD7F JUMP JUMPDEST PUSH1 0x40 MLOAD PUSH2 0x3EA SWAP2 SWAP1 PUSH2 0x3410 JUMP JUMPDEST PUSH1 0x40 MLOAD DUP1 SWAP2 SUB SWAP1 RETURN JUMPDEST PUSH2 0x3FB PUSH2 0xD9C JUMP JUMPDEST PUSH1 0x40 MLOAD PUSH2 0x408 SWAP2 SWAP1 PUSH2 0x3C2F JUMP JUMPDEST PUSH1 0x40 MLOAD DUP1 SWAP2 SUB SWAP1 RETURN JUMPDEST PUSH2 0x419 PUSH2 0xDC2 JUMP JUMPDEST STOP JUMPDEST PUSH2 0x435 PUSH1 0x4 DUP1 CALLDATASIZE SUB DUP2 ADD SWAP1 PUSH2 0x430 SWAP2 SWAP1 PUSH2 0x3C4A JUMP JUMPDEST PUSH2 0xDD6 JUMP JUMPDEST STOP JUMPDEST PUSH2 0x43F PUSH2 0xE40 JUMP JUMPDEST PUSH1 0x40 MLOAD PUSH2 0x44C SWAP2 SWAP1 PUSH2 0x3BEC JUMP JUMPDEST PUSH1 0x40 MLOAD DUP1 SWAP2 SUB SWAP1 RETURN JUMPDEST PUSH2 0x46F PUSH1 0x4 DUP1 CALLDATASIZE SUB DUP2 ADD SWAP1 PUSH2 0x46A SWAP2 SWAP1 PUSH2 0x34E6 JUMP JUMPDEST PUSH2 0xE98 JUMP JUMPDEST PUSH1 0x40 MLOAD PUSH2 0x47C SWAP2 SWAP1 PUSH2 0x3D18 JUMP JUMPDEST PUSH1 0x40 MLOAD DUP1 SWAP2 SUB SWAP1 RETURN JUMPDEST PUSH2 0x48D PUSH2 0xF5E JUMP JUMPDEST PUSH1 0x40 MLOAD PUSH2 0x49A SWAP2 SWAP1 PUSH2 0x3D42 JUMP JUMPDEST PUSH1 0x40 MLOAD DUP1 SWAP2 SUB SWAP1 RETURN JUMPDEST PUSH2 0x4BD PUSH1 0x4 DUP1 CALLDATASIZE SUB DUP2 ADD SWAP1 PUSH2 0x4B8 SWAP2 SWAP1 PUSH2 0x3938 JUMP JUMPDEST PUSH2 0xF88 JUMP JUMPDEST STOP JUMPDEST PUSH2 0x4D9 PUSH1 0x4 DUP1 CALLDATASIZE SUB DUP2 ADD SWAP1 PUSH2 0x4D4 SWAP2 SWAP1 PUSH2 0x3DFE JUMP JUMPDEST PUSH2 0x10C2 JUMP JUMPDEST STOP JUMPDEST PUSH2 0x4F5 PUSH1 0x4 DUP1 CALLDATASIZE SUB DUP2 ADD SWAP1 PUSH2 0x4F0 SWAP2 SWAP1 PUSH2 0x3EE8 JUMP JUMPDEST PUSH2 0x1335 JUMP JUMPDEST STOP JUMPDEST PUSH2 0x511 PUSH1 0x4 DUP1 CALLDATASIZE SUB DUP2 ADD SWAP1 PUSH2 0x50C SWAP2 SWAP1 PUSH2 0x34E6 JUMP JUMPDEST PUSH2 0x134B JUMP JUMPDEST PUSH1 0x40 MLOAD PUSH2 0x51E SWAP2 SWAP1 PUSH2 0x3410 JUMP JUMPDEST PUSH1 0x40 MLOAD DUP1 SWAP2 SUB SWAP1 RETURN JUMPDEST PUSH2 0x541 PUSH1 0x4 DUP1 CALLDATASIZE SUB DUP2 ADD SWAP1 PUSH2 0x53C SWAP2 SWAP1 PUSH2 0x34E6 JUMP JUMPDEST PUSH2 0x1368 JUMP JUMPDEST STOP JUMPDEST PUSH2 0x55D PUSH1 0x4 DUP1 CALLDATASIZE SUB DUP2 ADD SWAP1 PUSH2 0x558 SWAP2 SWAP1 PUSH2 0x34E6 JUMP JUMPDEST PUSH2 0x14D9 JUMP JUMPDEST PUSH1 0x40 MLOAD PUSH2 0x56A SWAP2 SWAP1 PUSH2 0x35A3 JUMP JUMPDEST PUSH1 0x40 MLOAD DUP1 SWAP2 SUB SWAP1 RETURN JUMPDEST PUSH2 0x58D PUSH1 0x4 DUP1 CALLDATASIZE SUB DUP2 ADD SWAP1 PUSH2 0x588 SWAP2 SWAP1 PUSH2 0x3938 JUMP JUMPDEST PUSH2 0x157E JUMP JUMPDEST PUSH1 0x40 MLOAD PUSH2 0x59C SWAP4 SWAP3 SWAP2 SWAP1 PUSH2 0x3F28 JUMP JUMPDEST PUSH1 0x40 MLOAD DUP1 SWAP2 SUB SWAP1 RETURN JUMPDEST PUSH2 0x5BF PUSH1 0x4 DUP1 CALLDATASIZE SUB DUP2 ADD SWAP1 PUSH2 0x5BA SWAP2 SWAP1 PUSH2 0x3F5F JUMP JUMPDEST PUSH2 0x15E2 JUMP JUMPDEST STOP JUMPDEST PUSH2 0x5DB PUSH1 0x4 DUP1 CALLDATASIZE SUB DUP2 ADD SWAP1 PUSH2 0x5D6 SWAP2 SWAP1 PUSH2 0x34E6 JUMP JUMPDEST PUSH2 0x173D JUMP JUMPDEST PUSH1 0x40 MLOAD PUSH2 0x5E8 SWAP2 SWAP1 PUSH2 0x3410 JUMP JUMPDEST PUSH1 0x40 MLOAD DUP1 SWAP2 SUB SWAP1 RETURN JUMPDEST PUSH2 0x60B PUSH1 0x4 DUP1 CALLDATASIZE SUB DUP2 ADD SWAP1 PUSH2 0x606 SWAP2 SWAP1 PUSH2 0x390B JUMP JUMPDEST PUSH2 0x1755 JUMP JUMPDEST STOP JUMPDEST PUSH2 0x627 PUSH1 0x4 DUP1 CALLDATASIZE SUB DUP2 ADD SWAP1 PUSH2 0x622 SWAP2 SWAP1 PUSH2 0x3F9F JUMP JUMPDEST PUSH2 0x18D9 JUMP JUMPDEST PUSH1 0x40 MLOAD PUSH2 0x634 SWAP2 SWAP1 PUSH2 0x34CB JUMP JUMPDEST PUSH1 0x40 MLOAD DUP1 SWAP2 SUB SWAP1 RETURN JUMPDEST PUSH2 0x657 PUSH1 0x4 DUP1 CALLDATASIZE SUB DUP2 ADD SWAP1 PUSH2 0x652 SWAP2 SWAP1 PUSH2 0x3FDF JUMP JUMPDEST PUSH2 0x196D JUMP JUMPDEST STOP JUMPDEST PUSH2 0x673 PUSH1 0x4 DUP1 CALLDATASIZE SUB DUP2 ADD SWAP1 PUSH2 0x66E SWAP2 SWAP1 PUSH2 0x390B JUMP JUMPDEST PUSH2 0x1A0E JUMP JUMPDEST STOP JUMPDEST PUSH2 0x68F PUSH1 0x4 DUP1 CALLDATASIZE SUB DUP2 ADD SWAP1 PUSH2 0x68A SWAP2 SWAP1 PUSH2 0x4076 JUMP JUMPDEST PUSH2 0x1A91 JUMP JUMPDEST STOP JUMPDEST PUSH2 0x6AB PUSH1 0x4 DUP1 CALLDATASIZE SUB DUP2 ADD SWAP1 PUSH2 0x6A6 SWAP2 SWAP1 PUSH2 0x34E6 JUMP JUMPDEST PUSH2 0x1B35 JUMP JUMPDEST PUSH1 0x40 MLOAD PUSH2 0x6BD SWAP7 SWAP6 SWAP5 SWAP4 SWAP3 SWAP2 SWAP1 PUSH2 0x40DD JUMP JUMPDEST PUSH1 0x40 MLOAD DUP1 SWAP2 SUB SWAP1 RETURN JUMPDEST PUSH2 0x6E0 PUSH1 0x4 DUP1 CALLDATASIZE SUB DUP2 ADD SWAP1 PUSH2 0x6DB SWAP2 SWAP1 PUSH2 0x34E6 JUMP JUMPDEST PUSH2 0x1B9E JUMP JUMPDEST PUSH1 0x40 MLOAD PUSH2 0x6ED SWAP2 SWAP1 PUSH2 0x3410 JUMP JUMPDEST PUSH1 0x40 MLOAD DUP1 SWAP2 SUB SWAP1 RETURN JUMPDEST PUSH2 0x710 PUSH1 0x4 DUP1 CALLDATASIZE SUB DUP2 ADD SWAP1 PUSH2 0x70B SWAP2 SWAP1 PUSH2 0x3F5F JUMP JUMPDEST PUSH2 0x1BC2 JUMP JUMPDEST STOP JUMPDEST PUSH1 0x0 PUSH2 0x71E DUP4 DUP4 PUSH2 0x1FBE JUMP JUMPDEST SWAP1 POP SWAP3 SWAP2 POP POP JUMP JUMPDEST PUSH1 0x0 PUSH32 0xD9B67A2600000000000000000000000000000000000000000000000000000000 PUSH28 0xFFFFFFFFFFFFFFFFFFFFFFFFFFFFFFFFFFFFFFFFFFFFFFFFFFFFFFFF NOT AND DUP3 PUSH28 0xFFFFFFFFFFFFFFFFFFFFFFFFFFFFFFFFFFFFFFFFFFFFFFFFFFFFFFFF NOT AND EQ DUP1 PUSH2 0x7F1 JUMPI POP PUSH32 0xE89341C00000000000000000000000000000000000000000000000000000000 PUSH28 0xFFFFFFFFFFFFFFFFFFFFFFFFFFFFFFFFFFFFFFFFFFFFFFFFFFFFFFFF NOT AND DUP3 PUSH28 0xFFFFFFFFFFFFFFFFFFFFFFFFFFFFFFFFFFFFFFFFFFFFFFFFFFFFFFFF NOT AND EQ JUMPDEST DUP1 PUSH2 0x801 JUMPI POP PUSH2 0x800 DUP3 PUSH2 0x2086 JUMP JUMPDEST JUMPDEST SWAP1 POP SWAP2 SWAP1 POP JUMP JUMPDEST PUSH1 0x60 PUSH1 0x2 DUP1 SLOAD PUSH2 0x817 SWAP1 PUSH2 0x416D JUMP JUMPDEST DUP1 PUSH1 0x1F ADD PUSH1 0x20 DUP1 SWAP2 DIV MUL PUSH1 0x20 ADD PUSH1 0x40 MLOAD SWAP1 DUP2 ADD PUSH1 0x40 MSTORE DUP1 SWAP3 SWAP2 SWAP1 DUP2 DUP2 MSTORE PUSH1 0x20 ADD DUP3 DUP1 SLOAD PUSH2 0x843 SWAP1 PUSH2 0x416D JUMP JUMPDEST DUP1 ISZERO PUSH2 0x890 JUMPI DUP1 PUSH1 0x1F LT PUSH2 0x865 JUMPI PUSH2 0x100 DUP1 DUP4 SLOAD DIV MUL DUP4 MSTORE SWAP2 PUSH1 0x20 ADD SWAP2 PUSH2 0x890 JUMP JUMPDEST DUP3 ADD SWAP2 SWAP1 PUSH1 0x0 MSTORE PUSH1 0x20 PUSH1 0x0 KECCAK256 SWAP1 JUMPDEST DUP2 SLOAD DUP2 MSTORE SWAP1 PUSH1 0x1 ADD SWAP1 PUSH1 0x20 ADD DUP1 DUP4 GT PUSH2 0x873 JUMPI DUP3 SWAP1 SUB PUSH1 0x1F AND DUP3 ADD SWAP2 JUMPDEST POP POP POP POP POP SWAP1 POP SWAP2 SWAP1 POP JUMP JUMPDEST PUSH1 0xB PUSH1 0x20 MSTORE DUP1 PUSH1 0x0 MSTORE PUSH1 0x40 PUSH1 0x0 KECCAK256 PUSH1 0x0 SWAP2 POP SWAP1 POP SLOAD DUP2 JUMP JUMPDEST PUSH1 0x0 PUSH2 0x8F6 PUSH1 0x8 PUSH1 0x0 DUP5 DUP2 MSTORE PUSH1 0x20 ADD SWAP1 DUP2 MSTORE PUSH1 0x20 ADD PUSH1 0x0 KECCAK256 PUSH1 0x0 ADD PUSH1 0x0 SWAP1 SLOAD SWAP1 PUSH2 0x100 EXP SWAP1 DIV PUSH20 0xFFFFFFFFFFFFFFFFFFFFFFFFFFFFFFFFFFFFFFFF AND DUP4 PUSH2 0x1FBE JUMP JUMPDEST GT PUSH2 0x936 JUMPI PUSH1 0x40 MLOAD PUSH32 0x8C379A000000000000000000000000000000000000000000000000000000000 DUP2 MSTORE PUSH1 0x4 ADD PUSH2 0x92D SWAP1 PUSH2 0x41EA JUMP JUMPDEST PUSH1 0x40 MLOAD DUP1 SWAP2 SUB SWAP1 REVERT JUMPDEST PUSH1 0x8 PUSH1 0x0 DUP3 DUP2 MSTORE PUSH1 0x20 ADD SWAP1 DUP2 MSTORE PUSH1 0x20 ADD PUSH1 0x0 KECCAK256 PUSH1 0x1 ADD SLOAD PUSH1 0x6 PUSH1 0x0 SWAP1 SLOAD SWAP1 PUSH2 0x100 EXP SWAP1 DIV PUSH20 0xFFFFFFFFFFFFFFFFFFFFFFFFFFFFFFFFFFFFFFFF AND PUSH20 0xFFFFFFFFFFFFFFFFFFFFFFFFFFFFFFFFFFFFFFFF AND PUSH4 0x49E5465C DUP4 PUSH1 0x40 MLOAD DUP3 PUSH4 0xFFFFFFFF AND PUSH1 0xE0 SHL DUP2 MSTORE PUSH1 0x4 ADD PUSH2 0x9A8 SWAP2 SWAP1 PUSH2 0x3410 JUMP JUMPDEST PUSH1 0x20 PUSH1 0x40 MLOAD DUP1 DUP4 SUB DUP2 DUP7 GAS STATICCALL ISZERO DUP1 ISZERO PUSH2 0x9C5 JUMPI RETURNDATASIZE PUSH1 0x0 DUP1 RETURNDATACOPY RETURNDATASIZE PUSH1 0x0 REVERT JUMPDEST POP POP POP POP PUSH1 0x40 MLOAD RETURNDATASIZE PUSH1 0x1F NOT PUSH1 0x1F DUP3 ADD AND DUP3 ADD DUP1 PUSH1 0x40 MSTORE POP DUP2 ADD SWAP1 PUSH2 0x9E9 SWAP2 SWAP1 PUSH2 0x421F JUMP JUMPDEST SUB PUSH2 0x9F3 JUMPI PUSH1 0x0 DUP1 REVERT JUMPDEST PUSH1 0x0 PUSH1 0x8 PUSH1 0x0 DUP4 DUP2 MSTORE PUSH1 0x20 ADD SWAP1 DUP2 MSTORE PUSH1 0x20 ADD PUSH1 0x0 KECCAK256 PUSH1 0x5 ADD PUSH1 0x0 PUSH2 0x100 EXP DUP2 SLOAD DUP2 PUSH1 0xFF MUL NOT AND SWAP1 DUP4 ISZERO ISZERO MUL OR SWAP1 SSTORE POP POP JUMP JUMPDEST PUSH2 0xA2D PUSH2 0x20F0 JUMP JUMPDEST PUSH20 0xFFFFFFFFFFFFFFFFFFFFFFFFFFFFFFFFFFFFFFFF AND DUP6 PUSH20 0xFFFFFFFFFFFFFFFFFFFFFFFFFFFFFFFFFFFFFFFF AND EQ DUP1 PUSH2 0xA73 JUMPI POP PUSH2 0xA72 DUP6 PUSH2 0xA6D PUSH2 0x20F0 JUMP JUMPDEST PUSH2 0x18D9 JUMP JUMPDEST JUMPDEST PUSH2 0xAB2 JUMPI PUSH1 0x40 MLOAD PUSH32 0x8C379A000000000000000000000000000000000000000000000000000000000 DUP2 MSTORE PUSH1 0x4 ADD PUSH2 0xAA9 SWAP1 PUSH2 0x42BE JUMP JUMPDEST PUSH1 0x40 MLOAD DUP1 SWAP2 SUB SWAP1 REVERT JUMPDEST PUSH2 0xABF DUP6 DUP6 DUP6 DUP6 DUP6 PUSH2 0x20F8 JUMP JUMPDEST POP POP POP POP POP JUMP JUMPDEST PUSH1 0x6 PUSH1 0x0 SWAP1 SLOAD SWAP1 PUSH2 0x100 EXP SWAP1 DIV PUSH20 0xFFFFFFFFFFFFFFFFFFFFFFFFFFFFFFFFFFFFFFFF AND DUP2 JUMP JUMPDEST CALLER PUSH20 0xFFFFFFFFFFFFFFFFFFFFFFFFFFFFFFFFFFFFFFFF AND DUP2 PUSH20 0xFFFFFFFFFFFFFFFFFFFFFFFFFFFFFFFFFFFFFFFF AND EQ PUSH2 0xB5A JUMPI PUSH1 0x40 MLOAD PUSH32 0x8C379A000000000000000000000000000000000000000000000000000000000 DUP2 MSTORE PUSH1 0x4 ADD PUSH2 0xB51 SWAP1 PUSH2 0x432A JUMP JUMPDEST PUSH1 0x40 MLOAD DUP1 SWAP2 SUB SWAP1 REVERT JUMPDEST DUP1 PUSH1 0x7 PUSH1 0x0 PUSH2 0x100 EXP DUP2 SLOAD DUP2 PUSH20 0xFFFFFFFFFFFFFFFFFFFFFFFFFFFFFFFFFFFFFFFF MUL NOT AND SWAP1 DUP4 PUSH20 0xFFFFFFFFFFFFFFFFFFFFFFFFFFFFFFFFFFFFFFFF AND MUL OR SWAP1 SSTORE POP POP JUMP JUMPDEST PUSH2 0xBA6 PUSH2 0x3292 JUMP JUMPDEST PUSH1 0x9 PUSH1 0x0 DUP5 DUP2 MSTORE PUSH1 0x20 ADD SWAP1 DUP2 MSTORE PUSH1 0x20 ADD PUSH1 0x0 KECCAK256 PUSH1 0x0 DUP4 DUP2 MSTORE PUSH1 0x20 ADD SWAP1 DUP2 MSTORE PUSH1 0x20 ADD PUSH1 0x0 KECCAK256 PUSH1 0x40 MLOAD DUP1 PUSH1 0x60 ADD PUSH1 0x40 MSTORE SWAP1 DUP2 PUSH1 0x0 DUP3 ADD PUSH1 0x0 SWAP1 SLOAD SWAP1 PUSH2 0x100 EXP SWAP1 DIV PUSH20 0xFFFFFFFFFFFFFFFFFFFFFFFFFFFFFFFFFFFFFFFF AND PUSH20 0xFFFFFFFFFFFFFFFFFFFFFFFFFFFFFFFFFFFFFFFF AND PUSH20 0xFFFFFFFFFFFFFFFFFFFFFFFFFFFFFFFFFFFFFFFF AND DUP2 MSTORE PUSH1 0x20 ADD PUSH1 0x1 DUP3 ADD SLOAD DUP2 MSTORE PUSH1 0x20 ADD PUSH1 0x2 DUP3 ADD PUSH1 0x0 SWAP1 SLOAD SWAP1 PUSH2 0x100 EXP SWAP1 DIV PUSH1 0xFF AND ISZERO ISZERO ISZERO ISZERO DUP2 MSTORE POP POP SWAP1 POP SWAP3 SWAP2 POP POP JUMP JUMPDEST PUSH2 0xC63 DUP2 PUSH1 0x0 PUSH2 0x1335 JUMP JUMPDEST POP JUMP JUMPDEST PUSH1 0x60 DUP2 MLOAD DUP4 MLOAD EQ PUSH2 0xCAC JUMPI PUSH1 0x40 MLOAD PUSH32 0x8C379A000000000000000000000000000000000000000000000000000000000 DUP2 MSTORE PUSH1 0x4 ADD PUSH2 0xCA3 SWAP1 PUSH2 0x43BC JUMP JUMPDEST PUSH1 0x40 MLOAD DUP1 SWAP2 SUB SWAP1 REVERT JUMPDEST PUSH1 0x0 DUP4 MLOAD PUSH8 0xFFFFFFFFFFFFFFFF DUP2 GT ISZERO PUSH2 0xCC9 JUMPI PUSH2 0xCC8 PUSH2 0x35CA JUMP JUMPDEST JUMPDEST PUSH1 0x40 MLOAD SWAP1 DUP1 DUP3 MSTORE DUP1 PUSH1 0x20 MUL PUSH1 0x20 ADD DUP3 ADD PUSH1 0x40 MSTORE DUP1 ISZERO PUSH2 0xCF7 JUMPI DUP2 PUSH1 0x20 ADD PUSH1 0x20 DUP3 MUL DUP1 CALLDATASIZE DUP4 CALLDATACOPY DUP1 DUP3 ADD SWAP2 POP POP SWAP1 POP JUMPDEST POP SWAP1 POP PUSH1 0x0 JUMPDEST DUP5 MLOAD DUP2 LT ISZERO PUSH2 0xD74 JUMPI PUSH2 0xD44 DUP6 DUP3 DUP2 MLOAD DUP2 LT PUSH2 0xD1C JUMPI PUSH2 0xD1B PUSH2 0x43DC JUMP JUMPDEST JUMPDEST PUSH1 0x20 MUL PUSH1 0x20 ADD ADD MLOAD DUP6 DUP4 DUP2 MLOAD DUP2 LT PUSH2 0xD37 JUMPI PUSH2 0xD36 PUSH2 0x43DC JUMP JUMPDEST JUMPDEST PUSH1 0x20 MUL PUSH1 0x20 ADD ADD MLOAD PUSH2 0x712 JUMP JUMPDEST DUP3 DUP3 DUP2 MLOAD DUP2 LT PUSH2 0xD57 JUMPI PUSH2 0xD56 PUSH2 0x43DC JUMP JUMPDEST JUMPDEST PUSH1 0x20 MUL PUSH1 0x20 ADD ADD DUP2 DUP2 MSTORE POP POP DUP1 PUSH2 0xD6D SWAP1 PUSH2 0x443A JUMP JUMPDEST SWAP1 POP PUSH2 0xCFD JUMP JUMPDEST POP DUP1 SWAP2 POP POP SWAP3 SWAP2 POP POP JUMP JUMPDEST PUSH1 0x0 PUSH1 0xB PUSH1 0x0 DUP4 DUP2 MSTORE PUSH1 0x20 ADD SWAP1 DUP2 MSTORE PUSH1 0x20 ADD PUSH1 0x0 KECCAK256 SLOAD SWAP1 POP SWAP2 SWAP1 POP JUMP JUMPDEST PUSH1 0x7 PUSH1 0x0 SWAP1 SLOAD SWAP1 PUSH2 0x100 EXP SWAP1 DIV PUSH20 0xFFFFFFFFFFFFFFFFFFFFFFFFFFFFFFFFFFFFFFFF AND DUP2 JUMP JUMPDEST PUSH2 0xDCA PUSH2 0x2419 JUMP JUMPDEST PUSH2 0xDD4 PUSH1 0x0 PUSH2 0x2497 JUMP JUMPDEST JUMP JUMPDEST PUSH1 0x5 PUSH1 0x0 SWAP1 SLOAD SWAP1 PUSH2 0x100 EXP SWAP1 DIV PUSH20 0xFFFFFFFFFFFFFFFFFFFFFFFFFFFFFFFFFFFFFFFF AND PUSH20 0xFFFFFFFFFFFFFFFFFFFFFFFFFFFFFFFFFFFFFFFF AND CALLER PUSH20 0xFFFFFFFFFFFFFFFFFFFFFFFFFFFFFFFFFFFFFFFF AND EQ PUSH2 0xE30 JUMPI PUSH1 0x0 DUP1 REVERT JUMPDEST PUSH2 0xE3B DUP4 DUP4 DUP4 PUSH2 0x255D JUMP JUMPDEST POP POP POP JUMP JUMPDEST PUSH1 0x60 PUSH1 0x4 DUP1 SLOAD DUP1 PUSH1 0x20 MUL PUSH1 0x20 ADD PUSH1 0x40 MLOAD SWAP1 DUP2 ADD PUSH1 0x40 MSTORE DUP1 SWAP3 SWAP2 SWAP1 DUP2 DUP2 MSTORE PUSH1 0x20 ADD DUP3 DUP1 SLOAD DUP1 ISZERO PUSH2 0xE8E JUMPI PUSH1 0x20 MUL DUP3 ADD SWAP2 SWAP1 PUSH1 0x0 MSTORE PUSH1 0x20 PUSH1 0x0 KECCAK256 SWAP1 JUMPDEST DUP2 SLOAD DUP2 MSTORE PUSH1 0x20 ADD SWAP1 PUSH1 0x1 ADD SWAP1 DUP1 DUP4 GT PUSH2 0xE7A JUMPI JUMPDEST POP POP POP POP POP SWAP1 POP SWAP1 JUMP JUMPDEST PUSH2 0xEA0 PUSH2 0x32CB JUMP JUMPDEST PUSH1 0x8 PUSH1 0x0 DUP4 DUP2 MSTORE PUSH1 0x20 ADD SWAP1 DUP2 MSTORE PUSH1 0x20 ADD PUSH1 0x0 KECCAK256 PUSH1 0x40 MLOAD DUP1 PUSH1 0xC0 ADD PUSH1 0x40 MSTORE SWAP1 DUP2 PUSH1 0x0 DUP3 ADD PUSH1 0x0 SWAP1 SLOAD SWAP1 PUSH2 0x100 EXP SWAP1 DIV PUSH20 0xFFFFFFFFFFFFFFFFFFFFFFFFFFFFFFFFFFFFFFFF AND PUSH20 0xFFFFFFFFFFFFFFFFFFFFFFFFFFFFFFFFFFFFFFFF AND PUSH20 0xFFFFFFFFFFFFFFFFFFFFFFFFFFFFFFFFFFFFFFFF AND DUP2 MSTORE PUSH1 0x20 ADD PUSH1 0x1 DUP3 ADD SLOAD DUP2 MSTORE PUSH1 0x20 ADD PUSH1 0x2 DUP3 ADD SLOAD DUP2 MSTORE PUSH1 0x20 ADD PUSH1 0x3 DUP3 ADD SLOAD DUP2 MSTORE PUSH1 0x20 ADD PUSH1 0x4 DUP3 ADD SLOAD DUP2 MSTORE PUSH1 0x20 ADD PUSH1 0x5 DUP3 ADD PUSH1 0x0 SWAP1 SLOAD SWAP1 PUSH2 0x100 EXP SWAP1 DIV PUSH1 0xFF AND ISZERO ISZERO ISZERO ISZERO DUP2 MSTORE POP POP SWAP1 POP SWAP2 SWAP1 POP JUMP JUMPDEST PUSH1 0x0 PUSH1 0x3 PUSH1 0x0 SWAP1 SLOAD SWAP1 PUSH2 0x100 EXP SWAP1 DIV PUSH20 0xFFFFFFFFFFFFFFFFFFFFFFFFFFFFFFFFFFFFFFFF AND SWAP1 POP SWAP1 JUMP JUMPDEST PUSH1 0x0 PUSH2 0xF94 CALLER DUP5 PUSH2 0x1FBE JUMP JUMPDEST SUB PUSH2 0xFD4 JUMPI PUSH1 0x40 MLOAD PUSH32 0x8C379A000000000000000000000000000000000000000000000000000000000 DUP2 MSTORE PUSH1 0x4 ADD PUSH2 0xFCB SWAP1 PUSH2 0x44CE JUMP JUMPDEST PUSH1 0x40 MLOAD DUP1 SWAP2 SUB SWAP1 REVERT JUMPDEST PUSH3 0x15180 PUSH1 0x8 PUSH1 0x0 DUP5 DUP2 MSTORE PUSH1 0x20 ADD SWAP1 DUP2 MSTORE PUSH1 0x20 ADD PUSH1 0x0 KECCAK256 PUSH1 0x4 ADD SLOAD PUSH2 0xFF9 SWAP2 SWAP1 PUSH2 0x44EE JUMP JUMPDEST DUP2 TIMESTAMP PUSH2 0x1005 SWAP2 SWAP1 PUSH2 0x4522 JUMP JUMPDEST GT PUSH2 0x1045 JUMPI PUSH1 0x40 MLOAD PUSH32 0x8C379A000000000000000000000000000000000000000000000000000000000 DUP2 MSTORE PUSH1 0x4 ADD PUSH2 0x103C SWAP1 PUSH2 0x45D6 JUMP JUMPDEST PUSH1 0x40 MLOAD DUP1 SWAP2 SUB SWAP1 REVERT JUMPDEST PUSH1 0x0 PUSH1 0xB PUSH1 0x0 DUP5 DUP2 MSTORE PUSH1 0x20 ADD SWAP1 DUP2 MSTORE PUSH1 0x20 ADD PUSH1 0x0 KECCAK256 SLOAD SUB PUSH2 0x109B JUMPI PUSH1 0x40 MLOAD PUSH32 0x8C379A000000000000000000000000000000000000000000000000000000000 DUP2 MSTORE PUSH1 0x4 ADD PUSH2 0x1092 SWAP1 PUSH2 0x4642 JUMP JUMPDEST PUSH1 0x40 MLOAD DUP1 SWAP2 SUB SWAP1 REVERT JUMPDEST DUP1 TIMESTAMP PUSH2 0x10A7 SWAP2 SWAP1 PUSH2 0x4522 JUMP JUMPDEST PUSH1 0xB PUSH1 0x0 DUP5 DUP2 MSTORE PUSH1 0x20 ADD SWAP1 DUP2 MSTORE PUSH1 0x20 ADD PUSH1 0x0 KECCAK256 DUP2 SWAP1 SSTORE POP POP POP JUMP JUMPDEST PUSH1 0x0 PUSH1 0x8 PUSH1 0x0 DUP8 DUP2 MSTORE PUSH1 0x20 ADD SWAP1 DUP2 MSTORE PUSH1 0x20 ADD PUSH1 0x0 KECCAK256 PUSH1 0x1 ADD SLOAD EQ PUSH2 0x111B JUMPI PUSH1 0x40 MLOAD PUSH32 0x8C379A000000000000000000000000000000000000000000000000000000000 DUP2 MSTORE PUSH1 0x4 ADD PUSH2 0x1112 SWAP1 PUSH2 0x46AE JUMP JUMPDEST PUSH1 0x40 MLOAD DUP1 SWAP2 SUB SWAP1 REVERT JUMPDEST CALLER PUSH20 0xFFFFFFFFFFFFFFFFFFFFFFFFFFFFFFFFFFFFFFFF AND DUP8 PUSH20 0xFFFFFFFFFFFFFFFFFFFFFFFFFFFFFFFFFFFFFFFF AND EQ PUSH2 0x1189 JUMPI PUSH1 0x40 MLOAD PUSH32 0x8C379A000000000000000000000000000000000000000000000000000000000 DUP2 MSTORE PUSH1 0x4 ADD PUSH2 0x1180 SWAP1 PUSH2 0x471A JUMP JUMPDEST PUSH1 0x40 MLOAD DUP1 SWAP2 SUB SWAP1 REVERT JUMPDEST PUSH1 0x0 PUSH1 0x40 MLOAD DUP1 PUSH1 0x40 ADD PUSH1 0x40 MSTORE DUP1 PUSH1 0x13 DUP2 MSTORE PUSH1 0x20 ADD PUSH32 0x66756E6464696E67206973207365636365737300000000000000000000000000 DUP2 MSTORE POP SWAP1 POP PUSH1 0x0 PUSH2 0x11D1 DUP10 DUP8 DUP8 DUP8 PUSH2 0x27A3 JUMP JUMPDEST SWAP1 POP DUP1 PUSH1 0x8 PUSH1 0x0 DUP10 DUP2 MSTORE PUSH1 0x20 ADD SWAP1 DUP2 MSTORE PUSH1 0x20 ADD PUSH1 0x0 KECCAK256 PUSH1 0x0 DUP3 ADD MLOAD DUP2 PUSH1 0x0 ADD PUSH1 0x0 PUSH2 0x100 EXP DUP2 SLOAD DUP2 PUSH20 0xFFFFFFFFFFFFFFFFFFFFFFFFFFFFFFFFFFFFFFFF MUL NOT AND SWAP1 DUP4 PUSH20 0xFFFFFFFFFFFFFFFFFFFFFFFFFFFFFFFFFFFFFFFF AND MUL OR SWAP1 SSTORE POP PUSH1 0x20 DUP3 ADD MLOAD DUP2 PUSH1 0x1 ADD SSTORE PUSH1 0x40 DUP3 ADD MLOAD DUP2 PUSH1 0x2 ADD SSTORE PUSH1 0x60 DUP3 ADD MLOAD DUP2 PUSH1 0x3 ADD SSTORE PUSH1 0x80 DUP3 ADD MLOAD DUP2 PUSH1 0x4 ADD SSTORE PUSH1 0xA0 DUP3 ADD MLOAD DUP2 PUSH1 0x5 ADD PUSH1 0x0 PUSH2 0x100 EXP DUP2 SLOAD DUP2 PUSH1 0xFF MUL NOT AND SWAP1 DUP4 ISZERO ISZERO MUL OR SWAP1 SSTORE POP SWAP1 POP POP PUSH2 0x1294 DUP10 DUP9 DUP9 PUSH1 0x40 MLOAD DUP1 PUSH1 0x20 ADD PUSH1 0x40 MSTORE DUP1 PUSH1 0x0 DUP2 MSTORE POP PUSH2 0x2880 JUMP JUMPDEST PUSH2 0x129F DUP9 PUSH1 0x1 PUSH2 0x1335 JUMP JUMPDEST PUSH1 0x4 DUP8 SWAP1 DUP1 PUSH1 0x1 DUP2 SLOAD ADD DUP1 DUP3 SSTORE DUP1 SWAP2 POP POP PUSH1 0x1 SWAP1 SUB SWAP1 PUSH1 0x0 MSTORE PUSH1 0x20 PUSH1 0x0 KECCAK256 ADD PUSH1 0x0 SWAP1 SWAP2 SWAP1 SWAP2 SWAP1 SWAP2 POP SSTORE DUP3 PUSH1 0xC PUSH1 0x0 DUP10 DUP2 MSTORE PUSH1 0x20 ADD SWAP1 DUP2 MSTORE PUSH1 0x20 ADD PUSH1 0x0 KECCAK256 SWAP1 DUP2 PUSH2 0x12E8 SWAP2 SWAP1 PUSH2 0x48DC JUMP JUMPDEST POP PUSH32 0x8BDC0347739A882305E00B5FA613E8629B5DA77A48ABAC45661315C45619C548 CALLER DUP9 DUP9 DUP9 DUP9 DUP8 PUSH1 0x40 MLOAD PUSH2 0x1322 SWAP7 SWAP6 SWAP5 SWAP4 SWAP3 SWAP2 SWAP1 PUSH2 0x49AE JUMP JUMPDEST PUSH1 0x40 MLOAD DUP1 SWAP2 SUB SWAP1 LOG1 POP POP POP POP POP POP POP POP POP JUMP JUMPDEST PUSH2 0x1347 PUSH2 0x1340 PUSH2 0x20F0 JUMP JUMPDEST DUP4 DUP4 PUSH2 0x2A30 JUMP JUMPDEST POP POP JUMP JUMPDEST PUSH1 0x0 PUSH1 0xA PUSH1 0x0 DUP4 DUP2 MSTORE PUSH1 0x20 ADD SWAP1 DUP2 MSTORE PUSH1 0x20 ADD PUSH1 0x0 KECCAK256 SLOAD SWAP1 POP SWAP2 SWAP1 POP JUMP JUMPDEST PUSH1 0x0 PUSH2 0x13AA PUSH1 0x8 PUSH1 0x0 DUP5 DUP2 MSTORE PUSH1 0x20 ADD SWAP1 DUP2 MSTORE PUSH1 0x20 ADD PUSH1 0x0 KECCAK256 PUSH1 0x0 ADD PUSH1 0x0 SWAP1 SLOAD SWAP1 PUSH2 0x100 EXP SWAP1 DIV PUSH20 0xFFFFFFFFFFFFFFFFFFFFFFFFFFFFFFFFFFFFFFFF AND DUP4 PUSH2 0x1FBE JUMP JUMPDEST EQ PUSH2 0x13EA JUMPI PUSH1 0x40 MLOAD PUSH32 0x8C379A000000000000000000000000000000000000000000000000000000000 DUP2 MSTORE PUSH1 0x4 ADD PUSH2 0x13E1 SWAP1 PUSH2 0x4A62 JUMP JUMPDEST PUSH1 0x40 MLOAD DUP1 SWAP2 SUB SWAP1 REVERT JUMPDEST PUSH1 0x8 PUSH1 0x0 DUP3 DUP2 MSTORE PUSH1 0x20 ADD SWAP1 DUP2 MSTORE PUSH1 0x20 ADD PUSH1 0x0 KECCAK256 PUSH1 0x1 ADD SLOAD PUSH1 0x6 PUSH1 0x0 SWAP1 SLOAD SWAP1 PUSH2 0x100 EXP SWAP1 DIV PUSH20 0xFFFFFFFFFFFFFFFFFFFFFFFFFFFFFFFFFFFFFFFF AND PUSH20 0xFFFFFFFFFFFFFFFFFFFFFFFFFFFFFFFFFFFFFFFF AND PUSH4 0x49E5465C DUP4 PUSH1 0x40 MLOAD DUP3 PUSH4 0xFFFFFFFF AND PUSH1 0xE0 SHL DUP2 MSTORE PUSH1 0x4 ADD PUSH2 0x145C SWAP2 SWAP1 PUSH2 0x3410 JUMP JUMPDEST PUSH1 0x20 PUSH1 0x40 MLOAD DUP1 DUP4 SUB DUP2 DUP7 GAS STATICCALL ISZERO DUP1 ISZERO PUSH2 0x1479 JUMPI RETURNDATASIZE PUSH1 0x0 DUP1 RETURNDATACOPY RETURNDATASIZE PUSH1 0x0 REVERT JUMPDEST POP POP POP POP PUSH1 0x40 MLOAD RETURNDATASIZE PUSH1 0x1F NOT PUSH1 0x1F DUP3 ADD AND DUP3 ADD DUP1 PUSH1 0x40 MSTORE POP DUP2 ADD SWAP1 PUSH2 0x149D SWAP2 SWAP1 PUSH2 0x421F JUMP JUMPDEST EQ PUSH2 0x14A7 JUMPI PUSH1 0x0 DUP1 REVERT JUMPDEST PUSH1 0x1 PUSH1 0x8 PUSH1 0x0 DUP4 DUP2 MSTORE PUSH1 0x20 ADD SWAP1 DUP2 MSTORE PUSH1 0x20 ADD PUSH1 0x0 KECCAK256 PUSH1 0x5 ADD PUSH1 0x0 PUSH2 0x100 EXP DUP2 SLOAD DUP2 PUSH1 0xFF MUL NOT AND SWAP1 DUP4 ISZERO ISZERO MUL OR SWAP1 SSTORE POP POP JUMP JUMPDEST PUSH1 0x60 PUSH1 0xC PUSH1 0x0 DUP4 DUP2 MSTORE PUSH1 0x20 ADD SWAP1 DUP2 MSTORE PUSH1 0x20 ADD PUSH1 0x0 KECCAK256 DUP1 SLOAD PUSH2 0x14F9 SWAP1 PUSH2 0x416D JUMP JUMPDEST DUP1 PUSH1 0x1F ADD PUSH1 0x20 DUP1 SWAP2 DIV MUL PUSH1 0x20 ADD PUSH1 0x40 MLOAD SWAP1 DUP2 ADD PUSH1 0x40 MSTORE DUP1 SWAP3 SWAP2 SWAP1 DUP2 DUP2 MSTORE PUSH1 0x20 ADD DUP3 DUP1 SLOAD PUSH2 0x1525 SWAP1 PUSH2 0x416D JUMP JUMPDEST DUP1 ISZERO PUSH2 0x1572 JUMPI DUP1 PUSH1 0x1F LT PUSH2 0x1547 JUMPI PUSH2 0x100 DUP1 DUP4 SLOAD DIV MUL DUP4 MSTORE SWAP2 PUSH1 0x20 ADD SWAP2 PUSH2 0x1572 JUMP JUMPDEST DUP3 ADD SWAP2 SWAP1 PUSH1 0x0 MSTORE PUSH1 0x20 PUSH1 0x0 KECCAK256 SWAP1 JUMPDEST DUP2 SLOAD DUP2 MSTORE SWAP1 PUSH1 0x1 ADD SWAP1 PUSH1 0x20 ADD DUP1 DUP4 GT PUSH2 0x1555 JUMPI DUP3 SWAP1 SUB PUSH1 0x1F AND DUP3 ADD SWAP2 JUMPDEST POP POP POP POP POP SWAP1 POP SWAP2 SWAP1 POP JUMP JUMPDEST PUSH1 0x9 PUSH1 0x20 MSTORE DUP2 PUSH1 0x0 MSTORE PUSH1 0x40 PUSH1 0x0 KECCAK256 PUSH1 0x20 MSTORE DUP1 PUSH1 0x0 MSTORE PUSH1 0x40 PUSH1 0x0 KECCAK256 PUSH1 0x0 SWAP2 POP SWAP2 POP POP DUP1 PUSH1 0x0 ADD PUSH1 0x0 SWAP1 SLOAD SWAP1 PUSH2 0x100 EXP SWAP1 DIV PUSH20 0xFFFFFFFFFFFFFFFFFFFFFFFFFFFFFFFFFFFFFFFF AND SWAP1 DUP1 PUSH1 0x1 ADD SLOAD SWAP1 DUP1 PUSH1 0x2 ADD PUSH1 0x0 SWAP1 SLOAD SWAP1 PUSH2 0x100 EXP SWAP1 DIV PUSH1 0xFF AND SWAP1 POP DUP4 JUMP JUMPDEST TIMESTAMP PUSH1 0xB PUSH1 0x0 DUP5 DUP2 MSTORE PUSH1 0x20 ADD SWAP1 DUP2 MSTORE PUSH1 0x20 ADD PUSH1 0x0 KECCAK256 SLOAD LT PUSH2 0x1637 JUMPI PUSH1 0x40 MLOAD PUSH32 0x8C379A000000000000000000000000000000000000000000000000000000000 DUP2 MSTORE PUSH1 0x4 ADD PUSH2 0x162E SWAP1 PUSH2 0x4ACE JUMP JUMPDEST PUSH1 0x40 MLOAD DUP1 SWAP2 SUB SWAP1 REVERT JUMPDEST PUSH1 0x0 PUSH2 0x1643 CALLER DUP5 PUSH2 0x1FBE JUMP JUMPDEST SUB PUSH2 0x1683 JUMPI PUSH1 0x40 MLOAD PUSH32 0x8C379A000000000000000000000000000000000000000000000000000000000 DUP2 MSTORE PUSH1 0x4 ADD PUSH2 0x167A SWAP1 PUSH2 0x4B3A JUMP JUMPDEST PUSH1 0x40 MLOAD DUP1 SWAP2 SUB SWAP1 REVERT JUMPDEST PUSH1 0x1 ISZERO ISZERO PUSH1 0x8 PUSH1 0x0 DUP5 DUP2 MSTORE PUSH1 0x20 ADD SWAP1 DUP2 MSTORE PUSH1 0x20 ADD PUSH1 0x0 KECCAK256 PUSH1 0x5 ADD PUSH1 0x0 SWAP1 SLOAD SWAP1 PUSH2 0x100 EXP SWAP1 DIV PUSH1 0xFF AND ISZERO ISZERO SUB PUSH2 0x16ED JUMPI PUSH1 0x40 MLOAD PUSH32 0x8C379A000000000000000000000000000000000000000000000000000000000 DUP2 MSTORE PUSH1 0x4 ADD PUSH2 0x16E4 SWAP1 PUSH2 0x4BA6 JUMP JUMPDEST PUSH1 0x40 MLOAD DUP1 SWAP2 SUB SWAP1 REVERT JUMPDEST PUSH1 0x1 ISZERO ISZERO DUP2 ISZERO ISZERO SUB PUSH2 0x1739 JUMPI PUSH3 0x127500 PUSH1 0x8 PUSH1 0x0 DUP5 DUP2 MSTORE PUSH1 0x20 ADD SWAP1 DUP2 MSTORE PUSH1 0x20 ADD PUSH1 0x0 KECCAK256 PUSH1 0x4 ADD SLOAD PUSH2 0x171E SWAP2 SWAP1 PUSH2 0x4BC6 JUMP JUMPDEST PUSH1 0x8 PUSH1 0x0 DUP5 DUP2 MSTORE PUSH1 0x20 ADD SWAP1 DUP2 MSTORE PUSH1 0x20 ADD PUSH1 0x0 KECCAK256 PUSH1 0x4 ADD DUP2 SWAP1 SSTORE POP JUMPDEST POP POP JUMP JUMPDEST PUSH1 0xA PUSH1 0x20 MSTORE DUP1 PUSH1 0x0 MSTORE PUSH1 0x40 PUSH1 0x0 KECCAK256 PUSH1 0x0 SWAP2 POP SWAP1 POP SLOAD DUP2 JUMP JUMPDEST CALLER PUSH20 0xFFFFFFFFFFFFFFFFFFFFFFFFFFFFFFFFFFFFFFFF AND DUP2 PUSH20 0xFFFFFFFFFFFFFFFFFFFFFFFFFFFFFFFFFFFFFFFF AND EQ PUSH2 0x17C3 JUMPI PUSH1 0x40 MLOAD PUSH32 0x8C379A000000000000000000000000000000000000000000000000000000000 DUP2 MSTORE PUSH1 0x4 ADD PUSH2 0x17BA SWAP1 PUSH2 0x4C46 JUMP JUMPDEST PUSH1 0x40 MLOAD DUP1 SWAP2 SUB SWAP1 REVERT JUMPDEST PUSH1 0x0 PUSH20 0xFFFFFFFFFFFFFFFFFFFFFFFFFFFFFFFFFFFFFFFF AND PUSH1 0x5 PUSH1 0x0 SWAP1 SLOAD SWAP1 PUSH2 0x100 EXP SWAP1 DIV PUSH20 0xFFFFFFFFFFFFFFFFFFFFFFFFFFFFFFFFFFFFFFFF AND PUSH20 0xFFFFFFFFFFFFFFFFFFFFFFFFFFFFFFFFFFFFFFFF AND EQ PUSH2 0x1854 JUMPI PUSH1 0x40 MLOAD PUSH32 0x8C379A000000000000000000000000000000000000000000000000000000000 DUP2 MSTORE PUSH1 0x4 ADD PUSH2 0x184B SWAP1 PUSH2 0x4CB2 JUMP JUMPDEST PUSH1 0x40 MLOAD DUP1 SWAP2 SUB SWAP1 REVERT JUMPDEST DUP1 PUSH1 0x5 PUSH1 0x0 PUSH2 0x100 EXP DUP2 SLOAD DUP2 PUSH20 0xFFFFFFFFFFFFFFFFFFFFFFFFFFFFFFFFFFFFFFFF MUL NOT AND SWAP1 DUP4 PUSH20 0xFFFFFFFFFFFFFFFFFFFFFFFFFFFFFFFFFFFFFFFF AND MUL OR SWAP1 SSTORE POP DUP1 PUSH1 0x6 PUSH1 0x0 PUSH2 0x100 EXP DUP2 SLOAD DUP2 PUSH20 0xFFFFFFFFFFFFFFFFFFFFFFFFFFFFFFFFFFFFFFFF MUL NOT AND SWAP1 DUP4 PUSH20 0xFFFFFFFFFFFFFFFFFFFFFFFFFFFFFFFFFFFFFFFF AND MUL OR SWAP1 SSTORE POP POP JUMP JUMPDEST PUSH1 0x0 PUSH1 0x1 PUSH1 0x0 DUP5 PUSH20 0xFFFFFFFFFFFFFFFFFFFFFFFFFFFFFFFFFFFFFFFF AND PUSH20 0xFFFFFFFFFFFFFFFFFFFFFFFFFFFFFFFFFFFFFFFF AND DUP2 MSTORE PUSH1 0x20 ADD SWAP1 DUP2 MSTORE PUSH1 0x20 ADD PUSH1 0x0 KECCAK256 PUSH1 0x0 DUP4 PUSH20 0xFFFFFFFFFFFFFFFFFFFFFFFFFFFFFFFFFFFFFFFF AND PUSH20 0xFFFFFFFFFFFFFFFFFFFFFFFFFFFFFFFFFFFFFFFF AND DUP2 MSTORE PUSH1 0x20 ADD SWAP1 DUP2 MSTORE PUSH1 0x20 ADD PUSH1 0x0 KECCAK256 PUSH1 0x0 SWAP1 SLOAD SWAP1 PUSH2 0x100 EXP SWAP1 DIV PUSH1 0xFF AND SWAP1 POP SWAP3 SWAP2 POP POP JUMP JUMPDEST PUSH2 0x1975 PUSH2 0x20F0 JUMP JUMPDEST PUSH20 0xFFFFFFFFFFFFFFFFFFFFFFFFFFFFFFFFFFFFFFFF AND DUP6 PUSH20 0xFFFFFFFFFFFFFFFFFFFFFFFFFFFFFFFFFFFFFFFF AND EQ DUP1 PUSH2 0x19BB JUMPI POP PUSH2 0x19BA DUP6 PUSH2 0x19B5 PUSH2 0x20F0 JUMP JUMPDEST PUSH2 0x18D9 JUMP JUMPDEST JUMPDEST PUSH2 0x19FA JUMPI PUSH1 0x40 MLOAD PUSH32 0x8C379A000000000000000000000000000000000000000000000000000000000 DUP2 MSTORE PUSH1 0x4 ADD PUSH2 0x19F1 SWAP1 PUSH2 0x42BE JUMP JUMPDEST PUSH1 0x40 MLOAD DUP1 SWAP2 SUB SWAP1 REVERT JUMPDEST PUSH2 0x1A07 DUP6 DUP6 DUP6 DUP6 DUP6 PUSH2 0x2B9C JUMP JUMPDEST POP POP POP POP POP JUMP JUMPDEST PUSH2 0x1A16 PUSH2 0x2419 JUMP JUMPDEST PUSH1 0x0 PUSH20 0xFFFFFFFFFFFFFFFFFFFFFFFFFFFFFFFFFFFFFFFF AND DUP2 PUSH20 0xFFFFFFFFFFFFFFFFFFFFFFFFFFFFFFFFFFFFFFFF AND SUB PUSH2 0x1A85 JUMPI PUSH1 0x40 MLOAD PUSH32 0x8C379A000000000000000000000000000000000000000000000000000000000 DUP2 MSTORE PUSH1 0x4 ADD PUSH2 0x1A7C SWAP1 PUSH2 0x4D44 JUMP JUMPDEST PUSH1 0x40 MLOAD DUP1 SWAP2 SUB SWAP1 REVERT JUMPDEST PUSH2 0x1A8E DUP2 PUSH2 0x2497 JUMP JUMPDEST POP JUMP JUMPDEST PUSH1 0x7 PUSH1 0x0 SWAP1 SLOAD SWAP1 PUSH2 0x100 EXP SWAP1 DIV PUSH20 0xFFFFFFFFFFFFFFFFFFFFFFFFFFFFFFFFFFFFFFFF AND PUSH20 0xFFFFFFFFFFFFFFFFFFFFFFFFFFFFFFFFFFFFFFFF AND PUSH4 0x23DC2E65 CALLER DUP6 DUP6 DUP6 PUSH1 0x40 MLOAD DUP6 PUSH4 0xFFFFFFFF AND PUSH1 0xE0 SHL DUP2 MSTORE PUSH1 0x4 ADD PUSH2 0x1AF2 SWAP5 SWAP4 SWAP3 SWAP2 SWAP1 PUSH2 0x4D64 JUMP JUMPDEST PUSH1 0x0 PUSH1 0x40 MLOAD DUP1 DUP4 SUB DUP2 PUSH1 0x0 DUP8 DUP1 EXTCODESIZE ISZERO DUP1 ISZERO PUSH2 0x1B0C JUMPI PUSH1 0x0 DUP1 REVERT JUMPDEST POP GAS CALL ISZERO DUP1 ISZERO PUSH2 0x1B20 JUMPI RETURNDATASIZE PUSH1 0x0 DUP1 RETURNDATACOPY RETURNDATASIZE PUSH1 0x0 REVERT JUMPDEST POP POP POP POP PUSH2 0x1B2F DUP5 PUSH1 0x1 PUSH2 0x1335 JUMP JUMPDEST POP POP POP POP JUMP JUMPDEST PUSH1 0x8 PUSH1 0x20 MSTORE DUP1 PUSH1 0x0 MSTORE PUSH1 0x40 PUSH1 0x0 KECCAK256 PUSH1 0x0 SWAP2 POP SWAP1 POP DUP1 PUSH1 0x0 ADD PUSH1 0x0 SWAP1 SLOAD SWAP1 PUSH2 0x100 EXP SWAP1 DIV PUSH20 0xFFFFFFFFFFFFFFFFFFFFFFFFFFFFFFFFFFFFFFFF AND SWAP1 DUP1 PUSH1 0x1 ADD SLOAD SWAP1 DUP1 PUSH1 0x2 ADD SLOAD SWAP1 DUP1 PUSH1 0x3 ADD SLOAD SWAP1 DUP1 PUSH1 0x4 ADD SLOAD SWAP1 DUP1 PUSH1 0x5 ADD PUSH1 0x0 SWAP1 SLOAD SWAP1 PUSH2 0x100 EXP SWAP1 DIV PUSH1 0xFF AND SWAP1 POP DUP7 JUMP JUMPDEST PUSH1 0x4 DUP2 DUP2 SLOAD DUP2 LT PUSH2 0x1BAE JUMPI PUSH1 0x0 DUP1 REVERT JUMPDEST SWAP1 PUSH1 0x0 MSTORE PUSH1 0x20 PUSH1 0x0 KECCAK256 ADD PUSH1 0x0 SWAP2 POP SWAP1 POP SLOAD DUP2 JUMP JUMPDEST PUSH1 0x0 PUSH2 0x1BCE CALLER DUP5 PUSH2 0x1FBE JUMP JUMPDEST SUB PUSH2 0x1C0E JUMPI PUSH1 0x40 MLOAD PUSH32 0x8C379A000000000000000000000000000000000000000000000000000000000 DUP2 MSTORE PUSH1 0x4 ADD PUSH2 0x1C05 SWAP1 PUSH2 0x4B3A JUMP JUMPDEST PUSH1 0x40 MLOAD DUP1 SWAP2 SUB SWAP1 REVERT JUMPDEST PUSH1 0xB PUSH1 0x0 DUP4 DUP2 MSTORE PUSH1 0x20 ADD SWAP1 DUP2 MSTORE PUSH1 0x20 ADD PUSH1 0x0 KECCAK256 SLOAD TIMESTAMP GT ISZERO PUSH2 0x1C64 JUMPI PUSH1 0x40 MLOAD PUSH32 0x8C379A000000000000000000000000000000000000000000000000000000000 DUP2 MSTORE PUSH1 0x4 ADD PUSH2 0x1C5B SWAP1 PUSH2 0x4DF5 JUMP JUMPDEST PUSH1 0x40 MLOAD DUP1 SWAP2 SUB SWAP1 REVERT JUMPDEST CALLER PUSH20 0xFFFFFFFFFFFFFFFFFFFFFFFFFFFFFFFFFFFFFFFF AND PUSH1 0x8 PUSH1 0x0 DUP5 DUP2 MSTORE PUSH1 0x20 ADD SWAP1 DUP2 MSTORE PUSH1 0x20 ADD PUSH1 0x0 KECCAK256 PUSH1 0x0 ADD PUSH1 0x0 SWAP1 SLOAD SWAP1 PUSH2 0x100 EXP SWAP1 DIV PUSH20 0xFFFFFFFFFFFFFFFFFFFFFFFFFFFFFFFFFFFFFFFF AND PUSH20 0xFFFFFFFFFFFFFFFFFFFFFFFFFFFFFFFFFFFFFFFF AND SUB PUSH2 0x1D08 JUMPI PUSH1 0x40 MLOAD PUSH32 0x8C379A000000000000000000000000000000000000000000000000000000000 DUP2 MSTORE PUSH1 0x4 ADD PUSH2 0x1CFF SWAP1 PUSH2 0x4E87 JUMP JUMPDEST PUSH1 0x40 MLOAD DUP1 SWAP2 SUB SWAP1 REVERT JUMPDEST PUSH1 0x0 PUSH2 0x1D14 CALLER DUP5 PUSH2 0x1FBE JUMP JUMPDEST SWAP1 POP PUSH1 0x0 DUP1 PUSH1 0x1 SWAP1 POP JUMPDEST PUSH1 0xA PUSH1 0x0 DUP7 DUP2 MSTORE PUSH1 0x20 ADD SWAP1 DUP2 MSTORE PUSH1 0x20 ADD PUSH1 0x0 KECCAK256 SLOAD DUP2 GT PUSH2 0x1E95 JUMPI CALLER PUSH20 0xFFFFFFFFFFFFFFFFFFFFFFFFFFFFFFFFFFFFFFFF AND PUSH1 0x9 PUSH1 0x0 DUP8 DUP2 MSTORE PUSH1 0x20 ADD SWAP1 DUP2 MSTORE PUSH1 0x20 ADD PUSH1 0x0 KECCAK256 PUSH1 0x0 DUP4 DUP2 MSTORE PUSH1 0x20 ADD SWAP1 DUP2 MSTORE PUSH1 0x20 ADD PUSH1 0x0 KECCAK256 PUSH1 0x0 ADD PUSH1 0x0 SWAP1 SLOAD SWAP1 PUSH2 0x100 EXP SWAP1 DIV PUSH20 0xFFFFFFFFFFFFFFFFFFFFFFFFFFFFFFFFFFFFFFFF AND PUSH20 0xFFFFFFFFFFFFFFFFFFFFFFFFFFFFFFFFFFFFFFFF AND SUB PUSH2 0x1E82 JUMPI PUSH1 0x40 MLOAD DUP1 PUSH1 0x60 ADD PUSH1 0x40 MSTORE DUP1 CALLER PUSH20 0xFFFFFFFFFFFFFFFFFFFFFFFFFFFFFFFFFFFFFFFF AND DUP2 MSTORE PUSH1 0x20 ADD DUP5 DUP2 MSTORE PUSH1 0x20 ADD DUP6 ISZERO ISZERO DUP2 MSTORE POP PUSH1 0x9 PUSH1 0x0 DUP8 DUP2 MSTORE PUSH1 0x20 ADD SWAP1 DUP2 MSTORE PUSH1 0x20 ADD PUSH1 0x0 KECCAK256 PUSH1 0x0 DUP4 DUP2 MSTORE PUSH1 0x20 ADD SWAP1 DUP2 MSTORE PUSH1 0x20 ADD PUSH1 0x0 KECCAK256 PUSH1 0x0 DUP3 ADD MLOAD DUP2 PUSH1 0x0 ADD PUSH1 0x0 PUSH2 0x100 EXP DUP2 SLOAD DUP2 PUSH20 0xFFFFFFFFFFFFFFFFFFFFFFFFFFFFFFFFFFFFFFFF MUL NOT AND SWAP1 DUP4 PUSH20 0xFFFFFFFFFFFFFFFFFFFFFFFFFFFFFFFFFFFFFFFF AND MUL OR SWAP1 SSTORE POP PUSH1 0x20 DUP3 ADD MLOAD DUP2 PUSH1 0x1 ADD SSTORE PUSH1 0x40 DUP3 ADD MLOAD DUP2 PUSH1 0x2 ADD PUSH1 0x0 PUSH2 0x100 EXP DUP2 SLOAD DUP2 PUSH1 0xFF MUL NOT AND SWAP1 DUP4 ISZERO ISZERO MUL OR SWAP1 SSTORE POP SWAP1 POP POP PUSH1 0x1 SWAP2 POP JUMPDEST DUP1 DUP1 PUSH2 0x1E8D SWAP1 PUSH2 0x443A JUMP JUMPDEST SWAP2 POP POP PUSH2 0x1D1E JUMP JUMPDEST POP PUSH1 0x0 ISZERO ISZERO DUP2 ISZERO ISZERO SUB PUSH2 0x1FB8 JUMPI PUSH1 0x1 PUSH1 0xA PUSH1 0x0 DUP7 DUP2 MSTORE PUSH1 0x20 ADD SWAP1 DUP2 MSTORE PUSH1 0x20 ADD PUSH1 0x0 KECCAK256 SLOAD PUSH2 0x1EC2 SWAP2 SWAP1 PUSH2 0x4BC6 JUMP JUMPDEST PUSH1 0xA PUSH1 0x0 DUP7 DUP2 MSTORE PUSH1 0x20 ADD SWAP1 DUP2 MSTORE PUSH1 0x20 ADD PUSH1 0x0 KECCAK256 DUP2 SWAP1 SSTORE POP PUSH1 0x40 MLOAD DUP1 PUSH1 0x60 ADD PUSH1 0x40 MSTORE DUP1 CALLER PUSH20 0xFFFFFFFFFFFFFFFFFFFFFFFFFFFFFFFFFFFFFFFF AND DUP2 MSTORE PUSH1 0x20 ADD DUP4 DUP2 MSTORE PUSH1 0x20 ADD DUP5 ISZERO ISZERO DUP2 MSTORE POP PUSH1 0x9 PUSH1 0x0 DUP7 DUP2 MSTORE PUSH1 0x20 ADD SWAP1 DUP2 MSTORE PUSH1 0x20 ADD PUSH1 0x0 KECCAK256 PUSH1 0x0 PUSH1 0xA PUSH1 0x0 DUP9 DUP2 MSTORE PUSH1 0x20 ADD SWAP1 DUP2 MSTORE PUSH1 0x20 ADD PUSH1 0x0 KECCAK256 SLOAD DUP2 MSTORE PUSH1 0x20 ADD SWAP1 DUP2 MSTORE PUSH1 0x20 ADD PUSH1 0x0 KECCAK256 PUSH1 0x0 DUP3 ADD MLOAD DUP2 PUSH1 0x0 ADD PUSH1 0x0 PUSH2 0x100 EXP DUP2 SLOAD DUP2 PUSH20 0xFFFFFFFFFFFFFFFFFFFFFFFFFFFFFFFFFFFFFFFF MUL NOT AND SWAP1 DUP4 PUSH20 0xFFFFFFFFFFFFFFFFFFFFFFFFFFFFFFFFFFFFFFFF AND MUL OR SWAP1 SSTORE POP PUSH1 0x20 DUP3 ADD MLOAD DUP2 PUSH1 0x1 ADD SSTORE PUSH1 0x40 DUP3 ADD MLOAD DUP2 PUSH1 0x2 ADD PUSH1 0x0 PUSH2 0x100 EXP DUP2 SLOAD DUP2 PUSH1 0xFF MUL NOT AND SWAP1 DUP4 ISZERO ISZERO MUL OR SWAP1 SSTORE POP SWAP1 POP POP JUMPDEST POP POP POP POP JUMP JUMPDEST PUSH1 0x0 DUP1 PUSH20 0xFFFFFFFFFFFFFFFFFFFFFFFFFFFFFFFFFFFFFFFF AND DUP4 PUSH20 0xFFFFFFFFFFFFFFFFFFFFFFFFFFFFFFFFFFFFFFFF AND SUB PUSH2 0x202E JUMPI PUSH1 0x40 MLOAD PUSH32 0x8C379A000000000000000000000000000000000000000000000000000000000 DUP2 MSTORE PUSH1 0x4 ADD PUSH2 0x2025 SWAP1 PUSH2 0x4F19 JUMP JUMPDEST PUSH1 0x40 MLOAD DUP1 SWAP2 SUB SWAP1 REVERT JUMPDEST PUSH1 0x0 DUP1 DUP4 DUP2 MSTORE PUSH1 0x20 ADD SWAP1 DUP2 MSTORE PUSH1 0x20 ADD PUSH1 0x0 KECCAK256 PUSH1 0x0 DUP5 PUSH20 0xFFFFFFFFFFFFFFFFFFFFFFFFFFFFFFFFFFFFFFFF AND PUSH20 0xFFFFFFFFFFFFFFFFFFFFFFFFFFFFFFFFFFFFFFFF AND DUP2 MSTORE PUSH1 0x20 ADD SWAP1 DUP2 MSTORE PUSH1 0x20 ADD PUSH1 0x0 KECCAK256 SLOAD SWAP1 POP SWAP3 SWAP2 POP POP JUMP JUMPDEST PUSH1 0x0 PUSH32 0x1FFC9A700000000000000000000000000000000000000000000000000000000 PUSH28 0xFFFFFFFFFFFFFFFFFFFFFFFFFFFFFFFFFFFFFFFFFFFFFFFFFFFFFFFF NOT AND DUP3 PUSH28 0xFFFFFFFFFFFFFFFFFFFFFFFFFFFFFFFFFFFFFFFFFFFFFFFFFFFFFFFF NOT AND EQ SWAP1 POP SWAP2 SWAP1 POP JUMP JUMPDEST PUSH1 0x0 CALLER SWAP1 POP SWAP1 JUMP JUMPDEST DUP2 MLOAD DUP4 MLOAD EQ PUSH2 0x213C JUMPI PUSH1 0x40 MLOAD PUSH32 0x8C379A000000000000000000000000000000000000000000000000000000000 DUP2 MSTORE PUSH1 0x4 ADD PUSH2 0x2133 SWAP1 PUSH2 0x4FAB JUMP JUMPDEST PUSH1 0x40 MLOAD DUP1 SWAP2 SUB SWAP1 REVERT JUMPDEST PUSH1 0x0 PUSH20 0xFFFFFFFFFFFFFFFFFFFFFFFFFFFFFFFFFFFFFFFF AND DUP5 PUSH20 0xFFFFFFFFFFFFFFFFFFFFFFFFFFFFFFFFFFFFFFFF AND SUB PUSH2 0x21AB JUMPI PUSH1 0x40 MLOAD PUSH32 0x8C379A000000000000000000000000000000000000000000000000000000000 DUP2 MSTORE PUSH1 0x4 ADD PUSH2 0x21A2 SWAP1 PUSH2 0x503D JUMP JUMPDEST PUSH1 0x40 MLOAD DUP1 SWAP2 SUB SWAP1 REVERT JUMPDEST PUSH1 0x0 PUSH2 0x21B5 PUSH2 0x20F0 JUMP JUMPDEST SWAP1 POP PUSH2 0x21C5 DUP2 DUP8 DUP8 DUP8 DUP8 DUP8 PUSH2 0x2E37 JUMP JUMPDEST PUSH1 0x0 JUMPDEST DUP5 MLOAD DUP2 LT ISZERO PUSH2 0x2376 JUMPI PUSH1 0x0 DUP6 DUP3 DUP2 MLOAD DUP2 LT PUSH2 0x21E6 JUMPI PUSH2 0x21E5 PUSH2 0x43DC JUMP JUMPDEST JUMPDEST PUSH1 0x20 MUL PUSH1 0x20 ADD ADD MLOAD SWAP1 POP PUSH1 0x0 DUP6 DUP4 DUP2 MLOAD DUP2 LT PUSH2 0x2205 JUMPI PUSH2 0x2204 PUSH2 0x43DC JUMP JUMPDEST JUMPDEST PUSH1 0x20 MUL PUSH1 0x20 ADD ADD MLOAD SWAP1 POP PUSH1 0x0 DUP1 PUSH1 0x0 DUP5 DUP2 MSTORE PUSH1 0x20 ADD SWAP1 DUP2 MSTORE PUSH1 0x20 ADD PUSH1 0x0 KECCAK256 PUSH1 0x0 DUP12 PUSH20 0xFFFFFFFFFFFFFFFFFFFFFFFFFFFFFFFFFFFFFFFF AND PUSH20 0xFFFFFFFFFFFFFFFFFFFFFFFFFFFFFFFFFFFFFFFF AND DUP2 MSTORE PUSH1 0x20 ADD SWAP1 DUP2 MSTORE PUSH1 0x20 ADD PUSH1 0x0 KECCAK256 SLOAD SWAP1 POP DUP2 DUP2 LT ISZERO PUSH2 0x22A6 JUMPI PUSH1 0x40 MLOAD PUSH32 0x8C379A000000000000000000000000000000000000000000000000000000000 DUP2 MSTORE PUSH1 0x4 ADD PUSH2 0x229D SWAP1 PUSH2 0x50CF JUMP JUMPDEST PUSH1 0x40 MLOAD DUP1 SWAP2 SUB SWAP1 REVERT JUMPDEST DUP2 DUP2 SUB PUSH1 0x0 DUP1 DUP6 DUP2 MSTORE PUSH1 0x20 ADD SWAP1 DUP2 MSTORE PUSH1 0x20 ADD PUSH1 0x0 KECCAK256 PUSH1 0x0 DUP13 PUSH20 0xFFFFFFFFFFFFFFFFFFFFFFFFFFFFFFFFFFFFFFFF AND PUSH20 0xFFFFFFFFFFFFFFFFFFFFFFFFFFFFFFFFFFFFFFFF AND DUP2 MSTORE PUSH1 0x20 ADD SWAP1 DUP2 MSTORE PUSH1 0x20 ADD PUSH1 0x0 KECCAK256 DUP2 SWAP1 SSTORE POP DUP2 PUSH1 0x0 DUP1 DUP6 DUP2 MSTORE PUSH1 0x20 ADD SWAP1 DUP2 MSTORE PUSH1 0x20 ADD PUSH1 0x0 KECCAK256 PUSH1 0x0 DUP12 PUSH20 0xFFFFFFFFFFFFFFFFFFFFFFFFFFFFFFFFFFFFFFFF AND PUSH20 0xFFFFFFFFFFFFFFFFFFFFFFFFFFFFFFFFFFFFFFFF AND DUP2 MSTORE PUSH1 0x20 ADD SWAP1 DUP2 MSTORE PUSH1 0x20 ADD PUSH1 0x0 KECCAK256 PUSH1 0x0 DUP3 DUP3 SLOAD PUSH2 0x235B SWAP2 SWAP1 PUSH2 0x4BC6 JUMP JUMPDEST SWAP3 POP POP DUP2 SWAP1 SSTORE POP POP POP POP DUP1 PUSH2 0x236F SWAP1 PUSH2 0x443A JUMP JUMPDEST SWAP1 POP PUSH2 0x21C8 JUMP JUMPDEST POP DUP5 PUSH20 0xFFFFFFFFFFFFFFFFFFFFFFFFFFFFFFFFFFFFFFFF AND DUP7 PUSH20 0xFFFFFFFFFFFFFFFFFFFFFFFFFFFFFFFFFFFFFFFF AND DUP3 PUSH20 0xFFFFFFFFFFFFFFFFFFFFFFFFFFFFFFFFFFFFFFFF AND PUSH32 0x4A39DC06D4C0DBC64B70AF90FD698A233A518AA5D07E595D983B8C0526C8F7FB DUP8 DUP8 PUSH1 0x40 MLOAD PUSH2 0x23ED SWAP3 SWAP2 SWAP1 PUSH2 0x50EF JUMP JUMPDEST PUSH1 0x40 MLOAD DUP1 SWAP2 SUB SWAP1 LOG4 PUSH2 0x2403 DUP2 DUP8 DUP8 DUP8 DUP8 DUP8 PUSH2 0x2E3F JUMP JUMPDEST PUSH2 0x2411 DUP2 DUP8 DUP8 DUP8 DUP8 DUP8 PUSH2 0x2E47 JUMP JUMPDEST POP POP POP POP POP POP JUMP JUMPDEST PUSH2 0x2421 PUSH2 0x20F0 JUMP JUMPDEST PUSH20 0xFFFFFFFFFFFFFFFFFFFFFFFFFFFFFFFFFFFFFFFF AND PUSH2 0x243F PUSH2 0xF5E JUMP JUMPDEST PUSH20 0xFFFFFFFFFFFFFFFFFFFFFFFFFFFFFFFFFFFFFFFF AND EQ PUSH2 0x2495 JUMPI PUSH1 0x40 MLOAD PUSH32 0x8C379A000000000000000000000000000000000000000000000000000000000 DUP2 MSTORE PUSH1 0x4 ADD PUSH2 0x248C SWAP1 PUSH2 0x5172 JUMP JUMPDEST PUSH1 0x40 MLOAD DUP1 SWAP2 SUB SWAP1 REVERT JUMPDEST JUMP JUMPDEST PUSH1 0x0 PUSH1 0x3 PUSH1 0x0 SWAP1 SLOAD SWAP1 PUSH2 0x100 EXP SWAP1 DIV PUSH20 0xFFFFFFFFFFFFFFFFFFFFFFFFFFFFFFFFFFFFFFFF AND SWAP1 POP DUP2 PUSH1 0x3 PUSH1 0x0 PUSH2 0x100 EXP DUP2 SLOAD DUP2 PUSH20 0xFFFFFFFFFFFFFFFFFFFFFFFFFFFFFFFFFFFFFFFF MUL NOT AND SWAP1 DUP4 PUSH20 0xFFFFFFFFFFFFFFFFFFFFFFFFFFFFFFFFFFFFFFFF AND MUL OR SWAP1 SSTORE POP DUP2 PUSH20 0xFFFFFFFFFFFFFFFFFFFFFFFFFFFFFFFFFFFFFFFF AND DUP2 PUSH20 0xFFFFFFFFFFFFFFFFFFFFFFFFFFFFFFFFFFFFFFFF AND PUSH32 0x8BE0079C531659141344CD1FD0A4F28419497F9722A3DAAFE3B4186F6B6457E0 PUSH1 0x40 MLOAD PUSH1 0x40 MLOAD DUP1 SWAP2 SUB SWAP1 LOG3 POP POP JUMP JUMPDEST PUSH1 0x0 PUSH20 0xFFFFFFFFFFFFFFFFFFFFFFFFFFFFFFFFFFFFFFFF AND DUP4 PUSH20 0xFFFFFFFFFFFFFFFFFFFFFFFFFFFFFFFFFFFFFFFF AND SUB PUSH2 0x25CC JUMPI PUSH1 0x40 MLOAD PUSH32 0x8C379A000000000000000000000000000000000000000000000000000000000 DUP2 MSTORE PUSH1 0x4 ADD PUSH2 0x25C3 SWAP1 PUSH2 0x5204 JUMP JUMPDEST PUSH1 0x40 MLOAD DUP1 SWAP2 SUB SWAP1 REVERT JUMPDEST PUSH1 0x0 PUSH2 0x25D6 PUSH2 0x20F0 JUMP JUMPDEST SWAP1 POP PUSH1 0x0 PUSH2 0x25E3 DUP5 PUSH2 0x301E JUMP JUMPDEST SWAP1 POP PUSH1 0x0 PUSH2 0x25F0 DUP5 PUSH2 0x301E JUMP JUMPDEST SWAP1 POP PUSH2 0x2610 DUP4 DUP8 PUSH1 0x0 DUP6 DUP6 PUSH1 0x40 MLOAD DUP1 PUSH1 0x20 ADD PUSH1 0x40 MSTORE DUP1 PUSH1 0x0 DUP2 MSTORE POP PUSH2 0x2E37 JUMP JUMPDEST PUSH1 0x0 DUP1 PUSH1 0x0 DUP8 DUP2 MSTORE PUSH1 0x20 ADD SWAP1 DUP2 MSTORE PUSH1 0x20 ADD PUSH1 0x0 KECCAK256 PUSH1 0x0 DUP9 PUSH20 0xFFFFFFFFFFFFFFFFFFFFFFFFFFFFFFFFFFFFFFFF AND PUSH20 0xFFFFFFFFFFFFFFFFFFFFFFFFFFFFFFFFFFFFFFFF AND DUP2 MSTORE PUSH1 0x20 ADD SWAP1 DUP2 MSTORE PUSH1 0x20 ADD PUSH1 0x0 KECCAK256 SLOAD SWAP1 POP DUP5 DUP2 LT ISZERO PUSH2 0x26A7 JUMPI PUSH1 0x40 MLOAD PUSH32 0x8C379A000000000000000000000000000000000000000000000000000000000 DUP2 MSTORE PUSH1 0x4 ADD PUSH2 0x269E SWAP1 PUSH2 0x5296 JUMP JUMPDEST PUSH1 0x40 MLOAD DUP1 SWAP2 SUB SWAP1 REVERT JUMPDEST DUP5 DUP2 SUB PUSH1 0x0 DUP1 DUP9 DUP2 MSTORE PUSH1 0x20 ADD SWAP1 DUP2 MSTORE PUSH1 0x20 ADD PUSH1 0x0 KECCAK256 PUSH1 0x0 DUP10 PUSH20 0xFFFFFFFFFFFFFFFFFFFFFFFFFFFFFFFFFFFFFFFF AND PUSH20 0xFFFFFFFFFFFFFFFFFFFFFFFFFFFFFFFFFFFFFFFF AND DUP2 MSTORE PUSH1 0x20 ADD SWAP1 DUP2 MSTORE PUSH1 0x20 ADD PUSH1 0x0 KECCAK256 DUP2 SWAP1 SSTORE POP PUSH1 0x0 PUSH20 0xFFFFFFFFFFFFFFFFFFFFFFFFFFFFFFFFFFFFFFFF AND DUP8 PUSH20 0xFFFFFFFFFFFFFFFFFFFFFFFFFFFFFFFFFFFFFFFF AND DUP6 PUSH20 0xFFFFFFFFFFFFFFFFFFFFFFFFFFFFFFFFFFFFFFFF AND PUSH32 0xC3D58168C5AE7397731D063D5BBF3D657854427343F4C083240F7AACAA2D0F62 DUP10 DUP10 PUSH1 0x40 MLOAD PUSH2 0x2774 SWAP3 SWAP2 SWAP1 PUSH2 0x52B6 JUMP JUMPDEST PUSH1 0x40 MLOAD DUP1 SWAP2 SUB SWAP1 LOG4 PUSH2 0x279A DUP5 DUP9 PUSH1 0x0 DUP7 DUP7 PUSH1 0x40 MLOAD DUP1 PUSH1 0x20 ADD PUSH1 0x40 MSTORE DUP1 PUSH1 0x0 DUP2 MSTORE POP PUSH2 0x2E3F JUMP JUMPDEST POP POP POP POP POP POP POP JUMP JUMPDEST PUSH2 0x27AB PUSH2 0x32CB JUMP JUMPDEST PUSH2 0x27B3 PUSH2 0x32CB JUMP JUMPDEST PUSH1 0x0 DUP6 PUSH8 0xDE0B6B3A7640000 DUP7 PUSH2 0x27CA SWAP2 SWAP1 PUSH2 0x4522 JUMP JUMPDEST PUSH2 0x27D4 SWAP2 SWAP1 PUSH2 0x530E JUMP JUMPDEST SWAP1 POP DUP7 DUP3 PUSH1 0x0 ADD SWAP1 PUSH20 0xFFFFFFFFFFFFFFFFFFFFFFFFFFFFFFFFFFFFFFFF AND SWAP1 DUP2 PUSH20 0xFFFFFFFFFFFFFFFFFFFFFFFFFFFFFFFFFFFFFFFF AND DUP2 MSTORE POP POP DUP6 DUP3 PUSH1 0x20 ADD DUP2 DUP2 MSTORE POP POP PUSH8 0xDE0B6B3A7640000 DUP6 PUSH2 0x282C SWAP2 SWAP1 PUSH2 0x4522 JUMP JUMPDEST DUP3 PUSH1 0x40 ADD DUP2 DUP2 MSTORE POP POP DUP1 DUP3 PUSH1 0x60 ADD DUP2 DUP2 MSTORE POP POP DUP4 PUSH3 0x15180 PUSH2 0x284E SWAP2 SWAP1 PUSH2 0x4522 JUMP JUMPDEST TIMESTAMP PUSH2 0x2859 SWAP2 SWAP1 PUSH2 0x4BC6 JUMP JUMPDEST DUP3 PUSH1 0x80 ADD DUP2 DUP2 MSTORE POP POP PUSH1 0x0 DUP3 PUSH1 0xA0 ADD SWAP1 ISZERO ISZERO SWAP1 DUP2 ISZERO ISZERO DUP2 MSTORE POP POP DUP2 SWAP3 POP POP POP SWAP5 SWAP4 POP POP POP POP JUMP JUMPDEST PUSH1 0x0 PUSH20 0xFFFFFFFFFFFFFFFFFFFFFFFFFFFFFFFFFFFFFFFF AND DUP5 PUSH20 0xFFFFFFFFFFFFFFFFFFFFFFFFFFFFFFFFFFFFFFFF AND SUB PUSH2 0x28EF JUMPI PUSH1 0x40 MLOAD PUSH32 0x8C379A000000000000000000000000000000000000000000000000000000000 DUP2 MSTORE PUSH1 0x4 ADD PUSH2 0x28E6 SWAP1 PUSH2 0x53B1 JUMP JUMPDEST PUSH1 0x40 MLOAD DUP1 SWAP2 SUB SWAP1 REVERT JUMPDEST PUSH1 0x0 PUSH2 0x28F9 PUSH2 0x20F0 JUMP JUMPDEST SWAP1 POP PUSH1 0x0 PUSH2 0x2906 DUP6 PUSH2 0x301E JUMP JUMPDEST SWAP1 POP PUSH1 0x0 PUSH2 0x2913 DUP6 PUSH2 0x301E JUMP JUMPDEST SWAP1 POP PUSH2 0x2924 DUP4 PUSH1 0x0 DUP10 DUP6 DUP6 DUP10 PUSH2 0x2E37 JUMP JUMPDEST DUP5 PUSH1 0x0 DUP1 DUP9 DUP2 MSTORE PUSH1 0x20 ADD SWAP1 DUP2 MSTORE PUSH1 0x20 ADD PUSH1 0x0 KECCAK256 PUSH1 0x0 DUP10 PUSH20 0xFFFFFFFFFFFFFFFFFFFFFFFFFFFFFFFFFFFFFFFF AND PUSH20 0xFFFFFFFFFFFFFFFFFFFFFFFFFFFFFFFFFFFFFFFF AND DUP2 MSTORE PUSH1 0x20 ADD SWAP1 DUP2 MSTORE PUSH1 0x20 ADD PUSH1 0x0 KECCAK256 PUSH1 0x0 DUP3 DUP3 SLOAD PUSH2 0x2983 SWAP2 SWAP1 PUSH2 0x4BC6 JUMP JUMPDEST SWAP3 POP POP DUP2 SWAP1 SSTORE POP DUP7 PUSH20 0xFFFFFFFFFFFFFFFFFFFFFFFFFFFFFFFFFFFFFFFF AND PUSH1 0x0 PUSH20 0xFFFFFFFFFFFFFFFFFFFFFFFFFFFFFFFFFFFFFFFF AND DUP5 PUSH20 0xFFFFFFFFFFFFFFFFFFFFFFFFFFFFFFFFFFFFFFFF AND PUSH32 0xC3D58168C5AE7397731D063D5BBF3D657854427343F4C083240F7AACAA2D0F62 DUP10 DUP10 PUSH1 0x40 MLOAD PUSH2 0x2A01 SWAP3 SWAP2 SWAP1 PUSH2 0x52B6 JUMP JUMPDEST PUSH1 0x40 MLOAD DUP1 SWAP2 SUB SWAP1 LOG4 PUSH2 0x2A18 DUP4 PUSH1 0x0 DUP10 DUP6 DUP6 DUP10 PUSH2 0x2E3F JUMP JUMPDEST PUSH2 0x2A27 DUP4 PUSH1 0x0 DUP10 DUP10 DUP10 DUP10 PUSH2 0x3098 JUMP JUMPDEST POP POP POP POP POP POP POP JUMP JUMPDEST DUP2 PUSH20 0xFFFFFFFFFFFFFFFFFFFFFFFFFFFFFFFFFFFFFFFF AND DUP4 PUSH20 0xFFFFFFFFFFFFFFFFFFFFFFFFFFFFFFFFFFFFFFFF AND SUB PUSH2 0x2A9E JUMPI PUSH1 0x40 MLOAD PUSH32 0x8C379A000000000000000000000000000000000000000000000000000000000 DUP2 MSTORE PUSH1 0x4 ADD PUSH2 0x2A95 SWAP1 PUSH2 0x5443 JUMP JUMPDEST PUSH1 0x40 MLOAD DUP1 SWAP2 SUB SWAP1 REVERT JUMPDEST DUP1 PUSH1 0x1 PUSH1 0x0 DUP6 PUSH20 0xFFFFFFFFFFFFFFFFFFFFFFFFFFFFFFFFFFFFFFFF AND PUSH20 0xFFFFFFFFFFFFFFFFFFFFFFFFFFFFFFFFFFFFFFFF AND DUP2 MSTORE PUSH1 0x20 ADD SWAP1 DUP2 MSTORE PUSH1 0x20 ADD PUSH1 0x0 KECCAK256 PUSH1 0x0 DUP5 PUSH20 0xFFFFFFFFFFFFFFFFFFFFFFFFFFFFFFFFFFFFFFFF AND PUSH20 0xFFFFFFFFFFFFFFFFFFFFFFFFFFFFFFFFFFFFFFFF AND DUP2 MSTORE PUSH1 0x20 ADD SWAP1 DUP2 MSTORE PUSH1 0x20 ADD PUSH1 0x0 KECCAK256 PUSH1 0x0 PUSH2 0x100 EXP DUP2 SLOAD DUP2 PUSH1 0xFF MUL NOT AND SWAP1 DUP4 ISZERO ISZERO MUL OR SWAP1 SSTORE POP DUP2 PUSH20 0xFFFFFFFFFFFFFFFFFFFFFFFFFFFFFFFFFFFFFFFF AND DUP4 PUSH20 0xFFFFFFFFFFFFFFFFFFFFFFFFFFFFFFFFFFFFFFFF AND PUSH32 0x17307EAB39AB6107E8899845AD3D59BD9653F200F220920489CA2B5937696C31 DUP4 PUSH1 0x40 MLOAD PUSH2 0x2B8F SWAP2 SWAP1 PUSH2 0x34CB JUMP JUMPDEST PUSH1 0x40 MLOAD DUP1 SWAP2 SUB SWAP1 LOG3 POP POP POP JUMP JUMPDEST PUSH1 0x0 PUSH20 0xFFFFFFFFFFFFFFFFFFFFFFFFFFFFFFFFFFFFFFFF AND DUP5 PUSH20 0xFFFFFFFFFFFFFFFFFFFFFFFFFFFFFFFFFFFFFFFF AND SUB PUSH2 0x2C0B JUMPI PUSH1 0x40 MLOAD PUSH32 0x8C379A000000000000000000000000000000000000000000000000000000000 DUP2 MSTORE PUSH1 0x4 ADD PUSH2 0x2C02 SWAP1 PUSH2 0x503D JUMP JUMPDEST PUSH1 0x40 MLOAD DUP1 SWAP2 SUB SWAP1 REVERT JUMPDEST PUSH1 0x0 PUSH2 0x2C15 PUSH2 0x20F0 JUMP JUMPDEST SWAP1 POP PUSH1 0x0 PUSH2 0x2C22 DUP6 PUSH2 0x301E JUMP JUMPDEST SWAP1 POP PUSH1 0x0 PUSH2 0x2C2F DUP6 PUSH2 0x301E JUMP JUMPDEST SWAP1 POP PUSH2 0x2C3F DUP4 DUP10 DUP10 DUP6 DUP6 DUP10 PUSH2 0x2E37 JUMP JUMPDEST PUSH1 0x0 DUP1 PUSH1 0x0 DUP9 DUP2 MSTORE PUSH1 0x20 ADD SWAP1 DUP2 MSTORE PUSH1 0x20 ADD PUSH1 0x0 KECCAK256 PUSH1 0x0 DUP11 PUSH20 0xFFFFFFFFFFFFFFFFFFFFFFFFFFFFFFFFFFFFFFFF AND PUSH20 0xFFFFFFFFFFFFFFFFFFFFFFFFFFFFFFFFFFFFFFFF AND DUP2 MSTORE PUSH1 0x20 ADD SWAP1 DUP2 MSTORE PUSH1 0x20 ADD PUSH1 0x0 KECCAK256 SLOAD SWAP1 POP DUP6 DUP2 LT ISZERO PUSH2 0x2CD6 JUMPI PUSH1 0x40 MLOAD PUSH32 0x8C379A000000000000000000000000000000000000000000000000000000000 DUP2 MSTORE PUSH1 0x4 ADD PUSH2 0x2CCD SWAP1 PUSH2 0x50CF JUMP JUMPDEST PUSH1 0x40 MLOAD DUP1 SWAP2 SUB SWAP1 REVERT JUMPDEST DUP6 DUP2 SUB PUSH1 0x0 DUP1 DUP10 DUP2 MSTORE PUSH1 0x20 ADD SWAP1 DUP2 MSTORE PUSH1 0x20 ADD PUSH1 0x0 KECCAK256 PUSH1 0x0 DUP12 PUSH20 0xFFFFFFFFFFFFFFFFFFFFFFFFFFFFFFFFFFFFFFFF AND PUSH20 0xFFFFFFFFFFFFFFFFFFFFFFFFFFFFFFFFFFFFFFFF AND DUP2 MSTORE PUSH1 0x20 ADD SWAP1 DUP2 MSTORE PUSH1 0x20 ADD PUSH1 0x0 KECCAK256 DUP2 SWAP1 SSTORE POP DUP6 PUSH1 0x0 DUP1 DUP10 DUP2 MSTORE PUSH1 0x20 ADD SWAP1 DUP2 MSTORE PUSH1 0x20 ADD PUSH1 0x0 KECCAK256 PUSH1 0x0 DUP11 PUSH20 0xFFFFFFFFFFFFFFFFFFFFFFFFFFFFFFFFFFFFFFFF AND PUSH20 0xFFFFFFFFFFFFFFFFFFFFFFFFFFFFFFFFFFFFFFFF AND DUP2 MSTORE PUSH1 0x20 ADD SWAP1 DUP2 MSTORE PUSH1 0x20 ADD PUSH1 0x0 KECCAK256 PUSH1 0x0 DUP3 DUP3 SLOAD PUSH2 0x2D8B SWAP2 SWAP1 PUSH2 0x4BC6 JUMP JUMPDEST SWAP3 POP POP DUP2 SWAP1 SSTORE POP DUP8 PUSH20 0xFFFFFFFFFFFFFFFFFFFFFFFFFFFFFFFFFFFFFFFF AND DUP10 PUSH20 0xFFFFFFFFFFFFFFFFFFFFFFFFFFFFFFFFFFFFFFFF AND DUP6 PUSH20 0xFFFFFFFFFFFFFFFFFFFFFFFFFFFFFFFFFFFFFFFF AND PUSH32 0xC3D58168C5AE7397731D063D5BBF3D657854427343F4C083240F7AACAA2D0F62 DUP11 DUP11 PUSH1 0x40 MLOAD PUSH2 0x2E08 SWAP3 SWAP2 SWAP1 PUSH2 0x52B6 JUMP JUMPDEST PUSH1 0x40 MLOAD DUP1 SWAP2 SUB SWAP1 LOG4 PUSH2 0x2E1E DUP5 DUP11 DUP11 DUP7 DUP7 DUP11 PUSH2 0x2E3F JUMP JUMPDEST PUSH2 0x2E2C DUP5 DUP11 DUP11 DUP11 DUP11 DUP11 PUSH2 0x3098 JUMP JUMPDEST POP POP POP POP POP POP POP POP POP JUMP JUMPDEST POP POP POP POP POP POP JUMP JUMPDEST POP POP POP POP POP POP JUMP JUMPDEST PUSH2 0x2E66 DUP5 PUSH20 0xFFFFFFFFFFFFFFFFFFFFFFFFFFFFFFFFFFFFFFFF AND PUSH2 0x326F JUMP JUMPDEST ISZERO PUSH2 0x3016 JUMPI DUP4 PUSH20 0xFFFFFFFFFFFFFFFFFFFFFFFFFFFFFFFFFFFFFFFF AND PUSH4 0xBC197C81 DUP8 DUP8 DUP7 DUP7 DUP7 PUSH1 0x40 MLOAD DUP7 PUSH4 0xFFFFFFFF AND PUSH1 0xE0 SHL DUP2 MSTORE PUSH1 0x4 ADD PUSH2 0x2EAC SWAP6 SWAP5 SWAP4 SWAP3 SWAP2 SWAP1 PUSH2 0x54B8 JUMP JUMPDEST PUSH1 0x20 PUSH1 0x40 MLOAD DUP1 DUP4 SUB DUP2 PUSH1 0x0 DUP8 GAS CALL SWAP3 POP POP POP DUP1 ISZERO PUSH2 0x2EE8 JUMPI POP PUSH1 0x40 MLOAD RETURNDATASIZE PUSH1 0x1F NOT PUSH1 0x1F DUP3 ADD AND DUP3 ADD DUP1 PUSH1 0x40 MSTORE POP DUP2 ADD SWAP1 PUSH2 0x2EE5 SWAP2 SWAP1 PUSH2 0x5535 JUMP JUMPDEST PUSH1 0x1 JUMPDEST PUSH2 0x2F8D JUMPI PUSH2 0x2EF4 PUSH2 0x556F JUMP JUMPDEST DUP1 PUSH4 0x8C379A0 SUB PUSH2 0x2F50 JUMPI POP PUSH2 0x2F08 PUSH2 0x5591 JUMP JUMPDEST DUP1 PUSH2 0x2F13 JUMPI POP PUSH2 0x2F52 JUMP JUMPDEST DUP1 PUSH1 0x40 MLOAD PUSH32 0x8C379A000000000000000000000000000000000000000000000000000000000 DUP2 MSTORE PUSH1 0x4 ADD PUSH2 0x2F47 SWAP2 SWAP1 PUSH2 0x35A3 JUMP JUMPDEST PUSH1 0x40 MLOAD DUP1 SWAP2 SUB SWAP1 REVERT JUMPDEST POP JUMPDEST PUSH1 0x40 MLOAD PUSH32 0x8C379A000000000000000000000000000000000000000000000000000000000 DUP2 MSTORE PUSH1 0x4 ADD PUSH2 0x2F84 SWAP1 PUSH2 0x5693 JUMP JUMPDEST PUSH1 0x40 MLOAD DUP1 SWAP2 SUB SWAP1 REVERT JUMPDEST PUSH4 0xBC197C81 PUSH1 0xE0 SHL PUSH28 0xFFFFFFFFFFFFFFFFFFFFFFFFFFFFFFFFFFFFFFFFFFFFFFFFFFFFFFFF NOT AND DUP2 PUSH28 0xFFFFFFFFFFFFFFFFFFFFFFFFFFFFFFFFFFFFFFFFFFFFFFFFFFFFFFFF NOT AND EQ PUSH2 0x3014 JUMPI PUSH1 0x40 MLOAD PUSH32 0x8C379A000000000000000000000000000000000000000000000000000000000 DUP2 MSTORE PUSH1 0x4 ADD PUSH2 0x300B SWAP1 PUSH2 0x5725 JUMP JUMPDEST PUSH1 0x40 MLOAD DUP1 SWAP2 SUB SWAP1 REVERT JUMPDEST POP JUMPDEST POP POP POP POP POP POP JUMP JUMPDEST PUSH1 0x60 PUSH1 0x0 PUSH1 0x1 PUSH8 0xFFFFFFFFFFFFFFFF DUP2 GT ISZERO PUSH2 0x303D JUMPI PUSH2 0x303C PUSH2 0x35CA JUMP JUMPDEST JUMPDEST PUSH1 0x40 MLOAD SWAP1 DUP1 DUP3 MSTORE DUP1 PUSH1 0x20 MUL PUSH1 0x20 ADD DUP3 ADD PUSH1 0x40 MSTORE DUP1 ISZERO PUSH2 0x306B JUMPI DUP2 PUSH1 0x20 ADD PUSH1 0x20 DUP3 MUL DUP1 CALLDATASIZE DUP4 CALLDATACOPY DUP1 DUP3 ADD SWAP2 POP POP SWAP1 POP JUMPDEST POP SWAP1 POP DUP3 DUP2 PUSH1 0x0 DUP2 MLOAD DUP2 LT PUSH2 0x3083 JUMPI PUSH2 0x3082 PUSH2 0x43DC JUMP JUMPDEST JUMPDEST PUSH1 0x20 MUL PUSH1 0x20 ADD ADD DUP2 DUP2 MSTORE POP POP DUP1 SWAP2 POP POP SWAP2 SWAP1 POP JUMP JUMPDEST PUSH2 0x30B7 DUP5 PUSH20 0xFFFFFFFFFFFFFFFFFFFFFFFFFFFFFFFFFFFFFFFF AND PUSH2 0x326F JUMP JUMPDEST ISZERO PUSH2 0x3267 JUMPI DUP4 PUSH20 0xFFFFFFFFFFFFFFFFFFFFFFFFFFFFFFFFFFFFFFFF AND PUSH4 0xF23A6E61 DUP8 DUP8 DUP7 DUP7 DUP7 PUSH1 0x40 MLOAD DUP7 PUSH4 0xFFFFFFFF AND PUSH1 0xE0 SHL DUP2 MSTORE PUSH1 0x4 ADD PUSH2 0x30FD SWAP6 SWAP5 SWAP4 SWAP3 SWAP2 SWAP1 PUSH2 0x5745 JUMP JUMPDEST PUSH1 0x20 PUSH1 0x40 MLOAD DUP1 DUP4 SUB DUP2 PUSH1 0x0 DUP8 GAS CALL SWAP3 POP POP POP DUP1 ISZERO PUSH2 0x3139 JUMPI POP PUSH1 0x40 MLOAD RETURNDATASIZE PUSH1 0x1F NOT PUSH1 0x1F DUP3 ADD AND DUP3 ADD DUP1 PUSH1 0x40 MSTORE POP DUP2 ADD SWAP1 PUSH2 0x3136 SWAP2 SWAP1 PUSH2 0x5535 JUMP JUMPDEST PUSH1 0x1 JUMPDEST PUSH2 0x31DE JUMPI PUSH2 0x3145 PUSH2 0x556F JUMP JUMPDEST DUP1 PUSH4 0x8C379A0 SUB PUSH2 0x31A1 JUMPI POP PUSH2 0x3159 PUSH2 0x5591 JUMP JUMPDEST DUP1 PUSH2 0x3164 JUMPI POP PUSH2 0x31A3 JUMP JUMPDEST DUP1 PUSH1 0x40 MLOAD PUSH32 0x8C379A000000000000000000000000000000000000000000000000000000000 DUP2 MSTORE PUSH1 0x4 ADD PUSH2 0x3198 SWAP2 SWAP1 PUSH2 0x35A3 JUMP JUMPDEST PUSH1 0x40 MLOAD DUP1 SWAP2 SUB SWAP1 REVERT JUMPDEST POP JUMPDEST PUSH1 0x40 MLOAD PUSH32 0x8C379A000000000000000000000000000000000000000000000000000000000 DUP2 MSTORE PUSH1 0x4 ADD PUSH2 0x31D5 SWAP1 PUSH2 0x5693 JUMP JUMPDEST PUSH1 0x40 MLOAD DUP1 SWAP2 SUB SWAP1 REVERT JUMPDEST PUSH4 0xF23A6E61 PUSH1 0xE0 SHL PUSH28 0xFFFFFFFFFFFFFFFFFFFFFFFFFFFFFFFFFFFFFFFFFFFFFFFFFFFFFFFF NOT AND DUP2 PUSH28 0xFFFFFFFFFFFFFFFFFFFFFFFFFFFFFFFFFFFFFFFFFFFFFFFFFFFFFFFF NOT AND EQ PUSH2 0x3265 JUMPI PUSH1 0x40 MLOAD PUSH32 0x8C379A000000000000000000000000000000000000000000000000000000000 DUP2 MSTORE PUSH1 0x4 ADD PUSH2 0x325C SWAP1 PUSH2 0x5725 JUMP JUMPDEST PUSH1 0x40 MLOAD DUP1 SWAP2 SUB SWAP1 REVERT JUMPDEST POP JUMPDEST POP POP POP POP POP POP JUMP JUMPDEST PUSH1 0x0 DUP1 DUP3 PUSH20 0xFFFFFFFFFFFFFFFFFFFFFFFFFFFFFFFFFFFFFFFF AND EXTCODESIZE GT SWAP1 POP SWAP2 SWAP1 POP JUMP JUMPDEST PUSH1 0x40 MLOAD DUP1 PUSH1 0x60 ADD PUSH1 0x40 MSTORE DUP1 PUSH1 0x0 PUSH20 0xFFFFFFFFFFFFFFFFFFFFFFFFFFFFFFFFFFFFFFFF AND DUP2 MSTORE PUSH1 0x20 ADD PUSH1 0x0 DUP2 MSTORE PUSH1 0x20 ADD PUSH1 0x0 ISZERO ISZERO DUP2 MSTORE POP SWAP1 JUMP JUMPDEST PUSH1 0x40 MLOAD DUP1 PUSH1 0xC0 ADD PUSH1 0x40 MSTORE DUP1 PUSH1 0x0 PUSH20 0xFFFFFFFFFFFFFFFFFFFFFFFFFFFFFFFFFFFFFFFF AND DUP2 MSTORE PUSH1 0x20 ADD PUSH1 0x0 DUP2 MSTORE PUSH1 0x20 ADD PUSH1 0x0 DUP2 MSTORE PUSH1 0x20 ADD PUSH1 0x0 DUP2 MSTORE PUSH1 0x20 ADD PUSH1 0x0 DUP2 MSTORE PUSH1 0x20 ADD PUSH1 0x0 ISZERO ISZERO DUP2 MSTORE POP SWAP1 JUMP JUMPDEST PUSH1 0x0 PUSH1 0x40 MLOAD SWAP1 POP SWAP1 JUMP JUMPDEST PUSH1 0x0 DUP1 REVERT JUMPDEST PUSH1 0x0 DUP1 REVERT JUMPDEST PUSH1 0x0 PUSH20 0xFFFFFFFFFFFFFFFFFFFFFFFFFFFFFFFFFFFFFFFF DUP3 AND SWAP1 POP SWAP2 SWAP1 POP JUMP JUMPDEST PUSH1 0x0 PUSH2 0x3358 DUP3 PUSH2 0x332D JUMP JUMPDEST SWAP1 POP SWAP2 SWAP1 POP JUMP JUMPDEST PUSH2 0x3368 DUP2 PUSH2 0x334D JUMP JUMPDEST DUP2 EQ PUSH2 0x3373 JUMPI PUSH1 0x0 DUP1 REVERT JUMPDEST POP JUMP JUMPDEST PUSH1 0x0 DUP2 CALLDATALOAD SWAP1 POP PUSH2 0x3385 DUP2 PUSH2 0x335F JUMP JUMPDEST SWAP3 SWAP2 POP POP JUMP JUMPDEST PUSH1 0x0 DUP2 SWAP1 POP SWAP2 SWAP1 POP JUMP JUMPDEST PUSH2 0x339E DUP2 PUSH2 0x338B JUMP JUMPDEST DUP2 EQ PUSH2 0x33A9 JUMPI PUSH1 0x0 DUP1 REVERT JUMPDEST POP JUMP JUMPDEST PUSH1 0x0 DUP2 CALLDATALOAD SWAP1 POP PUSH2 0x33BB DUP2 PUSH2 0x3395 JUMP JUMPDEST SWAP3 SWAP2 POP POP JUMP JUMPDEST PUSH1 0x0 DUP1 PUSH1 0x40 DUP4 DUP6 SUB SLT ISZERO PUSH2 0x33D8 JUMPI PUSH2 0x33D7 PUSH2 0x3323 JUMP JUMPDEST JUMPDEST PUSH1 0x0 PUSH2 0x33E6 DUP6 DUP3 DUP7 ADD PUSH2 0x3376 JUMP JUMPDEST SWAP3 POP POP PUSH1 0x20 PUSH2 0x33F7 DUP6 DUP3 DUP7 ADD PUSH2 0x33AC JUMP JUMPDEST SWAP2 POP POP SWAP3 POP SWAP3 SWAP1 POP JUMP JUMPDEST PUSH2 0x340A DUP2 PUSH2 0x338B JUMP JUMPDEST DUP3 MSTORE POP POP JUMP JUMPDEST PUSH1 0x0 PUSH1 0x20 DUP3 ADD SWAP1 POP PUSH2 0x3425 PUSH1 0x0 DUP4 ADD DUP5 PUSH2 0x3401 JUMP JUMPDEST SWAP3 SWAP2 POP POP JUMP JUMPDEST PUSH1 0x0 PUSH32 0xFFFFFFFF00000000000000000000000000000000000000000000000000000000 DUP3 AND SWAP1 POP SWAP2 SWAP1 POP JUMP JUMPDEST PUSH2 0x3460 DUP2 PUSH2 0x342B JUMP JUMPDEST DUP2 EQ PUSH2 0x346B JUMPI PUSH1 0x0 DUP1 REVERT JUMPDEST POP JUMP JUMPDEST PUSH1 0x0 DUP2 CALLDATALOAD SWAP1 POP PUSH2 0x347D DUP2 PUSH2 0x3457 JUMP JUMPDEST SWAP3 SWAP2 POP POP JUMP JUMPDEST PUSH1 0x0 PUSH1 0x20 DUP3 DUP5 SUB SLT ISZERO PUSH2 0x3499 JUMPI PUSH2 0x3498 PUSH2 0x3323 JUMP JUMPDEST JUMPDEST PUSH1 0x0 PUSH2 0x34A7 DUP5 DUP3 DUP6 ADD PUSH2 0x346E JUMP JUMPDEST SWAP2 POP POP SWAP3 SWAP2 POP POP JUMP JUMPDEST PUSH1 0x0 DUP2 ISZERO ISZERO SWAP1 POP SWAP2 SWAP1 POP JUMP JUMPDEST PUSH2 0x34C5 DUP2 PUSH2 0x34B0 JUMP JUMPDEST DUP3 MSTORE POP POP JUMP JUMPDEST PUSH1 0x0 PUSH1 0x20 DUP3 ADD SWAP1 POP PUSH2 0x34E0 PUSH1 0x0 DUP4 ADD DUP5 PUSH2 0x34BC JUMP JUMPDEST SWAP3 SWAP2 POP POP JUMP JUMPDEST PUSH1 0x0 PUSH1 0x20 DUP3 DUP5 SUB SLT ISZERO PUSH2 0x34FC JUMPI PUSH2 0x34FB PUSH2 0x3323 JUMP JUMPDEST JUMPDEST PUSH1 0x0 PUSH2 0x350A DUP5 DUP3 DUP6 ADD PUSH2 0x33AC JUMP JUMPDEST SWAP2 POP POP SWAP3 SWAP2 POP POP JUMP JUMPDEST PUSH1 0x0 DUP2 MLOAD SWAP1 POP SWAP2 SWAP1 POP JUMP JUMPDEST PUSH1 0x0 DUP3 DUP3 MSTORE PUSH1 0x20 DUP3 ADD SWAP1 POP SWAP3 SWAP2 POP POP JUMP JUMPDEST PUSH1 0x0 JUMPDEST DUP4 DUP2 LT ISZERO PUSH2 0x354D JUMPI DUP1 DUP3 ADD MLOAD DUP2 DUP5 ADD MSTORE PUSH1 0x20 DUP2 ADD SWAP1 POP PUSH2 0x3532 JUMP JUMPDEST PUSH1 0x0 DUP5 DUP5 ADD MSTORE POP POP POP POP JUMP JUMPDEST PUSH1 0x0 PUSH1 0x1F NOT PUSH1 0x1F DUP4 ADD AND SWAP1 POP SWAP2 SWAP1 POP JUMP JUMPDEST PUSH1 0x0 PUSH2 0x3575 DUP3 PUSH2 0x3513 JUMP JUMPDEST PUSH2 0x357F DUP2 DUP6 PUSH2 0x351E JUMP JUMPDEST SWAP4 POP PUSH2 0x358F DUP2 DUP6 PUSH1 0x20 DUP7 ADD PUSH2 0x352F JUMP JUMPDEST PUSH2 0x3598 DUP2 PUSH2 0x3559 JUMP JUMPDEST DUP5 ADD SWAP2 POP POP SWAP3 SWAP2 POP POP JUMP JUMPDEST PUSH1 0x0 PUSH1 0x20 DUP3 ADD SWAP1 POP DUP2 DUP2 SUB PUSH1 0x0 DUP4 ADD MSTORE PUSH2 0x35BD DUP2 DUP5 PUSH2 0x356A JUMP JUMPDEST SWAP1 POP SWAP3 SWAP2 POP POP JUMP JUMPDEST PUSH1 0x0 DUP1 REVERT JUMPDEST PUSH32 0x4E487B7100000000000000000000000000000000000000000000000000000000 PUSH1 0x0 MSTORE PUSH1 0x41 PUSH1 0x4 MSTORE PUSH1 0x24 PUSH1 0x0 REVERT JUMPDEST PUSH2 0x3602 DUP3 PUSH2 0x3559 JUMP JUMPDEST DUP2 ADD DUP2 DUP2 LT PUSH8 0xFFFFFFFFFFFFFFFF DUP3 GT OR ISZERO PUSH2 0x3621 JUMPI PUSH2 0x3620 PUSH2 0x35CA JUMP JUMPDEST JUMPDEST DUP1 PUSH1 0x40 MSTORE POP POP POP JUMP JUMPDEST PUSH1 0x0 PUSH2 0x3634 PUSH2 0x3319 JUMP JUMPDEST SWAP1 POP PUSH2 0x3640 DUP3 DUP3 PUSH2 0x35F9 JUMP JUMPDEST SWAP2 SWAP1 POP JUMP JUMPDEST PUSH1 0x0 PUSH8 0xFFFFFFFFFFFFFFFF DUP3 GT ISZERO PUSH2 0x3660 JUMPI PUSH2 0x365F PUSH2 0x35CA JUMP JUMPDEST JUMPDEST PUSH1 0x20 DUP3 MUL SWAP1 POP PUSH1 0x20 DUP2 ADD SWAP1 POP SWAP2 SWAP1 POP JUMP JUMPDEST PUSH1 0x0 DUP1 REVERT JUMPDEST PUSH1 0x0 PUSH2 0x3689 PUSH2 0x3684 DUP5 PUSH2 0x3645 JUMP JUMPDEST PUSH2 0x362A JUMP JUMPDEST SWAP1 POP DUP1 DUP4 DUP3 MSTORE PUSH1 0x20 DUP3 ADD SWAP1 POP PUSH1 0x20 DUP5 MUL DUP4 ADD DUP6 DUP2 GT ISZERO PUSH2 0x36AC JUMPI PUSH2 0x36AB PUSH2 0x3671 JUMP JUMPDEST JUMPDEST DUP4 JUMPDEST DUP2 DUP2 LT ISZERO PUSH2 0x36D5 JUMPI DUP1 PUSH2 0x36C1 DUP9 DUP3 PUSH2 0x33AC JUMP JUMPDEST DUP5 MSTORE PUSH1 0x20 DUP5 ADD SWAP4 POP POP PUSH1 0x20 DUP2 ADD SWAP1 POP PUSH2 0x36AE JUMP JUMPDEST POP POP POP SWAP4 SWAP3 POP POP POP JUMP JUMPDEST PUSH1 0x0 DUP3 PUSH1 0x1F DUP4 ADD SLT PUSH2 0x36F4 JUMPI PUSH2 0x36F3 PUSH2 0x35C5 JUMP JUMPDEST JUMPDEST DUP2 CALLDATALOAD PUSH2 0x3704 DUP5 DUP3 PUSH1 0x20 DUP7 ADD PUSH2 0x3676 JUMP JUMPDEST SWAP2 POP POP SWAP3 SWAP2 POP POP JUMP JUMPDEST PUSH1 0x0 DUP1 REVERT JUMPDEST PUSH1 0x0 PUSH8 0xFFFFFFFFFFFFFFFF DUP3 GT ISZERO PUSH2 0x372D JUMPI PUSH2 0x372C PUSH2 0x35CA JUMP JUMPDEST JUMPDEST PUSH2 0x3736 DUP3 PUSH2 0x3559 JUMP JUMPDEST SWAP1 POP PUSH1 0x20 DUP2 ADD SWAP1 POP SWAP2 SWAP1 POP JUMP JUMPDEST DUP3 DUP2 DUP4 CALLDATACOPY PUSH1 0x0 DUP4 DUP4 ADD MSTORE POP POP POP JUMP JUMPDEST PUSH1 0x0 PUSH2 0x3765 PUSH2 0x3760 DUP5 PUSH2 0x3712 JUMP JUMPDEST PUSH2 0x362A JUMP JUMPDEST SWAP1 POP DUP3 DUP2 MSTORE PUSH1 0x20 DUP2 ADD DUP5 DUP5 DUP5 ADD GT ISZERO PUSH2 0x3781 JUMPI PUSH2 0x3780 PUSH2 0x370D JUMP JUMPDEST JUMPDEST PUSH2 0x378C DUP5 DUP3 DUP6 PUSH2 0x3743 JUMP JUMPDEST POP SWAP4 SWAP3 POP POP POP JUMP JUMPDEST PUSH1 0x0 DUP3 PUSH1 0x1F DUP4 ADD SLT PUSH2 0x37A9 JUMPI PUSH2 0x37A8 PUSH2 0x35C5 JUMP JUMPDEST JUMPDEST DUP2 CALLDATALOAD PUSH2 0x37B9 DUP5 DUP3 PUSH1 0x20 DUP7 ADD PUSH2 0x3752 JUMP JUMPDEST SWAP2 POP POP SWAP3 SWAP2 POP POP JUMP JUMPDEST PUSH1 0x0 DUP1 PUSH1 0x0 DUP1 PUSH1 0x0 PUSH1 0xA0 DUP7 DUP9 SUB SLT ISZERO PUSH2 0x37DE JUMPI PUSH2 0x37DD PUSH2 0x3323 JUMP JUMPDEST JUMPDEST PUSH1 0x0 PUSH2 0x37EC DUP9 DUP3 DUP10 ADD PUSH2 0x3376 JUMP JUMPDEST SWAP6 POP POP PUSH1 0x20 PUSH2 0x37FD DUP9 DUP3 DUP10 ADD PUSH2 0x3376 JUMP JUMPDEST SWAP5 POP POP PUSH1 0x40 DUP7 ADD CALLDATALOAD PUSH8 0xFFFFFFFFFFFFFFFF DUP2 GT ISZERO PUSH2 0x381E JUMPI PUSH2 0x381D PUSH2 0x3328 JUMP JUMPDEST JUMPDEST PUSH2 0x382A DUP9 DUP3 DUP10 ADD PUSH2 0x36DF JUMP JUMPDEST SWAP4 POP POP PUSH1 0x60 DUP7 ADD CALLDATALOAD PUSH8 0xFFFFFFFFFFFFFFFF DUP2 GT ISZERO PUSH2 0x384B JUMPI PUSH2 0x384A PUSH2 0x3328 JUMP JUMPDEST JUMPDEST PUSH2 0x3857 DUP9 DUP3 DUP10 ADD PUSH2 0x36DF JUMP JUMPDEST SWAP3 POP POP PUSH1 0x80 DUP7 ADD CALLDATALOAD PUSH8 0xFFFFFFFFFFFFFFFF DUP2 GT ISZERO PUSH2 0x3878 JUMPI PUSH2 0x3877 PUSH2 0x3328 JUMP JUMPDEST JUMPDEST PUSH2 0x3884 DUP9 DUP3 DUP10 ADD PUSH2 0x3794 JUMP JUMPDEST SWAP2 POP POP SWAP3 SWAP6 POP SWAP3 SWAP6 SWAP1 SWAP4 POP JUMP JUMPDEST PUSH1 0x0 DUP2 SWAP1 POP SWAP2 SWAP1 POP JUMP JUMPDEST PUSH1 0x0 PUSH2 0x38B6 PUSH2 0x38B1 PUSH2 0x38AC DUP5 PUSH2 0x332D JUMP JUMPDEST PUSH2 0x3891 JUMP JUMPDEST PUSH2 0x332D JUMP JUMPDEST SWAP1 POP SWAP2 SWAP1 POP JUMP JUMPDEST PUSH1 0x0 PUSH2 0x38C8 DUP3 PUSH2 0x389B JUMP JUMPDEST SWAP1 POP SWAP2 SWAP1 POP JUMP JUMPDEST PUSH1 0x0 PUSH2 0x38DA DUP3 PUSH2 0x38BD JUMP JUMPDEST SWAP1 POP SWAP2 SWAP1 POP JUMP JUMPDEST PUSH2 0x38EA DUP2 PUSH2 0x38CF JUMP JUMPDEST DUP3 MSTORE POP POP JUMP JUMPDEST PUSH1 0x0 PUSH1 0x20 DUP3 ADD SWAP1 POP PUSH2 0x3905 PUSH1 0x0 DUP4 ADD DUP5 PUSH2 0x38E1 JUMP JUMPDEST SWAP3 SWAP2 POP POP JUMP JUMPDEST PUSH1 0x0 PUSH1 0x20 DUP3 DUP5 SUB SLT ISZERO PUSH2 0x3921 JUMPI PUSH2 0x3920 PUSH2 0x3323 JUMP JUMPDEST JUMPDEST PUSH1 0x0 PUSH2 0x392F DUP5 DUP3 DUP6 ADD PUSH2 0x3376 JUMP JUMPDEST SWAP2 POP POP SWAP3 SWAP2 POP POP JUMP JUMPDEST PUSH1 0x0 DUP1 PUSH1 0x40 DUP4 DUP6 SUB SLT ISZERO PUSH2 0x394F JUMPI PUSH2 0x394E PUSH2 0x3323 JUMP JUMPDEST JUMPDEST PUSH1 0x0 PUSH2 0x395D DUP6 DUP3 DUP7 ADD PUSH2 0x33AC JUMP JUMPDEST SWAP3 POP POP PUSH1 0x20 PUSH2 0x396E DUP6 DUP3 DUP7 ADD PUSH2 0x33AC JUMP JUMPDEST SWAP2 POP POP SWAP3 POP SWAP3 SWAP1 POP JUMP JUMPDEST PUSH2 0x3981 DUP2 PUSH2 0x334D JUMP JUMPDEST DUP3 MSTORE POP POP JUMP JUMPDEST PUSH2 0x3990 DUP2 PUSH2 0x338B JUMP JUMPDEST DUP3 MSTORE POP POP JUMP JUMPDEST PUSH2 0x399F DUP2 PUSH2 0x34B0 JUMP JUMPDEST DUP3 MSTORE POP POP JUMP JUMPDEST PUSH1 0x60 DUP3 ADD PUSH1 0x0 DUP3 ADD MLOAD PUSH2 0x39BB PUSH1 0x0 DUP6 ADD DUP3 PUSH2 0x3978 JUMP JUMPDEST POP PUSH1 0x20 DUP3 ADD MLOAD PUSH2 0x39CE PUSH1 0x20 DUP6 ADD DUP3 PUSH2 0x3987 JUMP JUMPDEST POP PUSH1 0x40 DUP3 ADD MLOAD PUSH2 0x39E1 PUSH1 0x40 DUP6 ADD DUP3 PUSH2 0x3996 JUMP JUMPDEST POP POP POP POP JUMP JUMPDEST PUSH1 0x0 PUSH1 0x60 DUP3 ADD SWAP1 POP PUSH2 0x39FC PUSH1 0x0 DUP4 ADD DUP5 PUSH2 0x39A5 JUMP JUMPDEST SWAP3 SWAP2 POP POP JUMP JUMPDEST PUSH1 0x0 PUSH8 0xFFFFFFFFFFFFFFFF DUP3 GT ISZERO PUSH2 0x3A1D JUMPI PUSH2 0x3A1C PUSH2 0x35CA JUMP JUMPDEST JUMPDEST PUSH1 0x20 DUP3 MUL SWAP1 POP PUSH1 0x20 DUP2 ADD SWAP1 POP SWAP2 SWAP1 POP JUMP JUMPDEST PUSH1 0x0 PUSH2 0x3A41 PUSH2 0x3A3C DUP5 PUSH2 0x3A02 JUMP JUMPDEST PUSH2 0x362A JUMP JUMPDEST SWAP1 POP DUP1 DUP4 DUP3 MSTORE PUSH1 0x20 DUP3 ADD SWAP1 POP PUSH1 0x20 DUP5 MUL DUP4 ADD DUP6 DUP2 GT ISZERO PUSH2 0x3A64 JUMPI PUSH2 0x3A63 PUSH2 0x3671 JUMP JUMPDEST JUMPDEST DUP4 JUMPDEST DUP2 DUP2 LT ISZERO PUSH2 0x3A8D JUMPI DUP1 PUSH2 0x3A79 DUP9 DUP3 PUSH2 0x3376 JUMP JUMPDEST DUP5 MSTORE PUSH1 0x20 DUP5 ADD SWAP4 POP POP PUSH1 0x20 DUP2 ADD SWAP1 POP PUSH2 0x3A66 JUMP JUMPDEST POP POP POP SWAP4 SWAP3 POP POP POP JUMP JUMPDEST PUSH1 0x0 DUP3 PUSH1 0x1F DUP4 ADD SLT PUSH2 0x3AAC JUMPI PUSH2 0x3AAB PUSH2 0x35C5 JUMP JUMPDEST JUMPDEST DUP2 CALLDATALOAD PUSH2 0x3ABC DUP5 DUP3 PUSH1 0x20 DUP7 ADD PUSH2 0x3A2E JUMP JUMPDEST SWAP2 POP POP SWAP3 SWAP2 POP POP JUMP JUMPDEST PUSH1 0x0 DUP1 PUSH1 0x40 DUP4 DUP6 SUB SLT ISZERO PUSH2 0x3ADC JUMPI PUSH2 0x3ADB PUSH2 0x3323 JUMP JUMPDEST JUMPDEST PUSH1 0x0 DUP4 ADD CALLDATALOAD PUSH8 0xFFFFFFFFFFFFFFFF DUP2 GT ISZERO PUSH2 0x3AFA JUMPI PUSH2 0x3AF9 PUSH2 0x3328 JUMP JUMPDEST JUMPDEST PUSH2 0x3B06 DUP6 DUP3 DUP7 ADD PUSH2 0x3A97 JUMP JUMPDEST SWAP3 POP POP PUSH1 0x20 DUP4 ADD CALLDATALOAD PUSH8 0xFFFFFFFFFFFFFFFF DUP2 GT ISZERO PUSH2 0x3B27 JUMPI PUSH2 0x3B26 PUSH2 0x3328 JUMP JUMPDEST JUMPDEST PUSH2 0x3B33 DUP6 DUP3 DUP7 ADD PUSH2 0x36DF JUMP JUMPDEST SWAP2 POP POP SWAP3 POP SWAP3 SWAP1 POP JUMP JUMPDEST PUSH1 0x0 DUP2 MLOAD SWAP1 POP SWAP2 SWAP1 POP JUMP JUMPDEST PUSH1 0x0 DUP3 DUP3 MSTORE PUSH1 0x20 DUP3 ADD SWAP1 POP SWAP3 SWAP2 POP POP JUMP JUMPDEST PUSH1 0x0 DUP2 SWAP1 POP PUSH1 0x20 DUP3 ADD SWAP1 POP SWAP2 SWAP1 POP JUMP JUMPDEST PUSH1 0x0 PUSH2 0x3B75 DUP4 DUP4 PUSH2 0x3987 JUMP JUMPDEST PUSH1 0x20 DUP4 ADD SWAP1 POP SWAP3 SWAP2 POP POP JUMP JUMPDEST PUSH1 0x0 PUSH1 0x20 DUP3 ADD SWAP1 POP SWAP2 SWAP1 POP JUMP JUMPDEST PUSH1 0x0 PUSH2 0x3B99 DUP3 PUSH2 0x3B3D JUMP JUMPDEST PUSH2 0x3BA3 DUP2 DUP6 PUSH2 0x3B48 JUMP JUMPDEST SWAP4 POP PUSH2 0x3BAE DUP4 PUSH2 0x3B59 JUMP JUMPDEST DUP1 PUSH1 0x0 JUMPDEST DUP4 DUP2 LT ISZERO PUSH2 0x3BDF JUMPI DUP2 MLOAD PUSH2 0x3BC6 DUP9 DUP3 PUSH2 0x3B69 JUMP JUMPDEST SWAP8 POP PUSH2 0x3BD1 DUP4 PUSH2 0x3B81 JUMP JUMPDEST SWAP3 POP POP PUSH1 0x1 DUP2 ADD SWAP1 POP PUSH2 0x3BB2 JUMP JUMPDEST POP DUP6 SWAP4 POP POP POP POP SWAP3 SWAP2 POP POP JUMP JUMPDEST PUSH1 0x0 PUSH1 0x20 DUP3 ADD SWAP1 POP DUP2 DUP2 SUB PUSH1 0x0 DUP4 ADD MSTORE PUSH2 0x3C06 DUP2 DUP5 PUSH2 0x3B8E JUMP JUMPDEST SWAP1 POP SWAP3 SWAP2 POP POP JUMP JUMPDEST PUSH1 0x0 PUSH2 0x3C19 DUP3 PUSH2 0x38BD JUMP JUMPDEST SWAP1 POP SWAP2 SWAP1 POP JUMP JUMPDEST PUSH2 0x3C29 DUP2 PUSH2 0x3C0E JUMP JUMPDEST DUP3 MSTORE POP POP JUMP JUMPDEST PUSH1 0x0 PUSH1 0x20 DUP3 ADD SWAP1 POP PUSH2 0x3C44 PUSH1 0x0 DUP4 ADD DUP5 PUSH2 0x3C20 JUMP JUMPDEST SWAP3 SWAP2 POP POP JUMP JUMPDEST PUSH1 0x0 DUP1 PUSH1 0x0 PUSH1 0x60 DUP5 DUP7 SUB SLT ISZERO PUSH2 0x3C63 JUMPI PUSH2 0x3C62 PUSH2 0x3323 JUMP JUMPDEST JUMPDEST PUSH1 0x0 PUSH2 0x3C71 DUP7 DUP3 DUP8 ADD PUSH2 0x3376 JUMP JUMPDEST SWAP4 POP POP PUSH1 0x20 PUSH2 0x3C82 DUP7 DUP3 DUP8 ADD PUSH2 0x33AC JUMP JUMPDEST SWAP3 POP POP PUSH1 0x40 PUSH2 0x3C93 DUP7 DUP3 DUP8 ADD PUSH2 0x33AC JUMP JUMPDEST SWAP2 POP POP SWAP3 POP SWAP3 POP SWAP3 JUMP JUMPDEST PUSH1 0xC0 DUP3 ADD PUSH1 0x0 DUP3 ADD MLOAD PUSH2 0x3CB3 PUSH1 0x0 DUP6 ADD DUP3 PUSH2 0x3978 JUMP JUMPDEST POP PUSH1 0x20 DUP3 ADD MLOAD PUSH2 0x3CC6 PUSH1 0x20 DUP6 ADD DUP3 PUSH2 0x3987 JUMP JUMPDEST POP PUSH1 0x40 DUP3 ADD MLOAD PUSH2 0x3CD9 PUSH1 0x40 DUP6 ADD DUP3 PUSH2 0x3987 JUMP JUMPDEST POP PUSH1 0x60 DUP3 ADD MLOAD PUSH2 0x3CEC PUSH1 0x60 DUP6 ADD DUP3 PUSH2 0x3987 JUMP JUMPDEST POP PUSH1 0x80 DUP3 ADD MLOAD PUSH2 0x3CFF PUSH1 0x80 DUP6 ADD DUP3 PUSH2 0x3987 JUMP JUMPDEST POP PUSH1 0xA0 DUP3 ADD MLOAD PUSH2 0x3D12 PUSH1 0xA0 DUP6 ADD DUP3 PUSH2 0x3996 JUMP JUMPDEST POP POP POP POP JUMP JUMPDEST PUSH1 0x0 PUSH1 0xC0 DUP3 ADD SWAP1 POP PUSH2 0x3D2D PUSH1 0x0 DUP4 ADD DUP5 PUSH2 0x3C9D JUMP JUMPDEST SWAP3 SWAP2 POP POP JUMP JUMPDEST PUSH2 0x3D3C DUP2 PUSH2 0x334D JUMP JUMPDEST DUP3 MSTORE POP POP JUMP JUMPDEST PUSH1 0x0 PUSH1 0x20 DUP3 ADD SWAP1 POP PUSH2 0x3D57 PUSH1 0x0 DUP4 ADD DUP5 PUSH2 0x3D33 JUMP JUMPDEST SWAP3 SWAP2 POP POP JUMP JUMPDEST PUSH1 0x0 PUSH8 0xFFFFFFFFFFFFFFFF DUP3 GT ISZERO PUSH2 0x3D78 JUMPI PUSH2 0x3D77 PUSH2 0x35CA JUMP JUMPDEST JUMPDEST PUSH2 0x3D81 DUP3 PUSH2 0x3559 JUMP JUMPDEST SWAP1 POP PUSH1 0x20 DUP2 ADD SWAP1 POP SWAP2 SWAP1 POP JUMP JUMPDEST PUSH1 0x0 PUSH2 0x3DA1 PUSH2 0x3D9C DUP5 PUSH2 0x3D5D JUMP JUMPDEST PUSH2 0x362A JUMP JUMPDEST SWAP1 POP DUP3 DUP2 MSTORE PUSH1 0x20 DUP2 ADD DUP5 DUP5 DUP5 ADD GT ISZERO PUSH2 0x3DBD JUMPI PUSH2 0x3DBC PUSH2 0x370D JUMP JUMPDEST JUMPDEST PUSH2 0x3DC8 DUP5 DUP3 DUP6 PUSH2 0x3743 JUMP JUMPDEST POP SWAP4 SWAP3 POP POP POP JUMP JUMPDEST PUSH1 0x0 DUP3 PUSH1 0x1F DUP4 ADD SLT PUSH2 0x3DE5 JUMPI PUSH2 0x3DE4 PUSH2 0x35C5 JUMP JUMPDEST JUMPDEST DUP2 CALLDATALOAD PUSH2 0x3DF5 DUP5 DUP3 PUSH1 0x20 DUP7 ADD PUSH2 0x3D8E JUMP JUMPDEST SWAP2 POP POP SWAP3 SWAP2 POP POP JUMP JUMPDEST PUSH1 0x0 DUP1 PUSH1 0x0 DUP1 PUSH1 0x0 DUP1 PUSH1 0x0 PUSH1 0xE0 DUP9 DUP11 SUB SLT ISZERO PUSH2 0x3E1D JUMPI PUSH2 0x3E1C PUSH2 0x3323 JUMP JUMPDEST JUMPDEST PUSH1 0x0 PUSH2 0x3E2B DUP11 DUP3 DUP12 ADD PUSH2 0x3376 JUMP JUMPDEST SWAP8 POP POP PUSH1 0x20 PUSH2 0x3E3C DUP11 DUP3 DUP12 ADD PUSH2 0x3376 JUMP JUMPDEST SWAP7 POP POP PUSH1 0x40 PUSH2 0x3E4D DUP11 DUP3 DUP12 ADD PUSH2 0x33AC JUMP JUMPDEST SWAP6 POP POP PUSH1 0x60 PUSH2 0x3E5E DUP11 DUP3 DUP12 ADD PUSH2 0x33AC JUMP JUMPDEST SWAP5 POP POP PUSH1 0x80 PUSH2 0x3E6F DUP11 DUP3 DUP12 ADD PUSH2 0x33AC JUMP JUMPDEST SWAP4 POP POP PUSH1 0xA0 PUSH2 0x3E80 DUP11 DUP3 DUP12 ADD PUSH2 0x33AC JUMP JUMPDEST SWAP3 POP POP PUSH1 0xC0 DUP9 ADD CALLDATALOAD PUSH8 0xFFFFFFFFFFFFFFFF DUP2 GT ISZERO PUSH2 0x3EA1 JUMPI PUSH2 0x3EA0 PUSH2 0x3328 JUMP JUMPDEST JUMPDEST PUSH2 0x3EAD DUP11 DUP3 DUP12 ADD PUSH2 0x3DD0 JUMP JUMPDEST SWAP2 POP POP SWAP3 SWAP6 SWAP9 SWAP2 SWAP5 SWAP8 POP SWAP3 SWAP6 POP JUMP JUMPDEST PUSH2 0x3EC5 DUP2 PUSH2 0x34B0 JUMP JUMPDEST DUP2 EQ PUSH2 0x3ED0 JUMPI PUSH1 0x0 DUP1 REVERT JUMPDEST POP JUMP JUMPDEST PUSH1 0x0 DUP2 CALLDATALOAD SWAP1 POP PUSH2 0x3EE2 DUP2 PUSH2 0x3EBC JUMP JUMPDEST SWAP3 SWAP2 POP POP JUMP JUMPDEST PUSH1 0x0 DUP1 PUSH1 0x40 DUP4 DUP6 SUB SLT ISZERO PUSH2 0x3EFF JUMPI PUSH2 0x3EFE PUSH2 0x3323 JUMP JUMPDEST JUMPDEST PUSH1 0x0 PUSH2 0x3F0D DUP6 DUP3 DUP7 ADD PUSH2 0x3376 JUMP JUMPDEST SWAP3 POP POP PUSH1 0x20 PUSH2 0x3F1E DUP6 DUP3 DUP7 ADD PUSH2 0x3ED3 JUMP JUMPDEST SWAP2 POP POP SWAP3 POP SWAP3 SWAP1 POP JUMP JUMPDEST PUSH1 0x0 PUSH1 0x60 DUP3 ADD SWAP1 POP PUSH2 0x3F3D PUSH1 0x0 DUP4 ADD DUP7 PUSH2 0x3D33 JUMP JUMPDEST PUSH2 0x3F4A PUSH1 0x20 DUP4 ADD DUP6 PUSH2 0x3401 JUMP JUMPDEST PUSH2 0x3F57 PUSH1 0x40 DUP4 ADD DUP5 PUSH2 0x34BC JUMP JUMPDEST SWAP5 SWAP4 POP POP POP POP JUMP JUMPDEST PUSH1 0x0 DUP1 PUSH1 0x40 DUP4 DUP6 SUB SLT ISZERO PUSH2 0x3F76 JUMPI PUSH2 0x3F75 PUSH2 0x3323 JUMP JUMPDEST JUMPDEST PUSH1 0x0 PUSH2 0x3F84 DUP6 DUP3 DUP7 ADD PUSH2 0x33AC JUMP JUMPDEST SWAP3 POP POP PUSH1 0x20 PUSH2 0x3F95 DUP6 DUP3 DUP7 ADD PUSH2 0x3ED3 JUMP JUMPDEST SWAP2 POP POP SWAP3 POP SWAP3 SWAP1 POP JUMP JUMPDEST PUSH1 0x0 DUP1 PUSH1 0x40 DUP4 DUP6 SUB SLT ISZERO PUSH2 0x3FB6 JUMPI PUSH2 0x3FB5 PUSH2 0x3323 JUMP JUMPDEST JUMPDEST PUSH1 0x0 PUSH2 0x3FC4 DUP6 DUP3 DUP7 ADD PUSH2 0x3376 JUMP JUMPDEST SWAP3 POP POP PUSH1 0x20 PUSH2 0x3FD5 DUP6 DUP3 DUP7 ADD PUSH2 0x3376 JUMP JUMPDEST SWAP2 POP POP SWAP3 POP SWAP3 SWAP1 POP JUMP JUMPDEST PUSH1 0x0 DUP1 PUSH1 0x0 DUP1 PUSH1 0x0 PUSH1 0xA0 DUP7 DUP9 SUB SLT ISZERO PUSH2 0x3FFB JUMPI PUSH2 0x3FFA PUSH2 0x3323 JUMP JUMPDEST JUMPDEST PUSH1 0x0 PUSH2 0x4009 DUP9 DUP3 DUP10 ADD PUSH2 0x3376 JUMP JUMPDEST SWAP6 POP POP PUSH1 0x20 PUSH2 0x401A DUP9 DUP3 DUP10 ADD PUSH2 0x3376 JUMP JUMPDEST SWAP5 POP POP PUSH1 0x40 PUSH2 0x402B DUP9 DUP3 DUP10 ADD PUSH2 0x33AC JUMP JUMPDEST SWAP4 POP POP PUSH1 0x60 PUSH2 0x403C DUP9 DUP3 DUP10 ADD PUSH2 0x33AC JUMP JUMPDEST SWAP3 POP POP PUSH1 0x80 DUP7 ADD CALLDATALOAD PUSH8 0xFFFFFFFFFFFFFFFF DUP2 GT ISZERO PUSH2 0x405D JUMPI PUSH2 0x405C PUSH2 0x3328 JUMP JUMPDEST JUMPDEST PUSH2 0x4069 DUP9 DUP3 DUP10 ADD PUSH2 0x3794 JUMP JUMPDEST SWAP2 POP POP SWAP3 SWAP6 POP SWAP3 SWAP6 SWAP1 SWAP4 POP JUMP JUMPDEST PUSH1 0x0 DUP1 PUSH1 0x0 DUP1 PUSH1 0x80 DUP6 DUP8 SUB SLT ISZERO PUSH2 0x4090 JUMPI PUSH2 0x408F PUSH2 0x3323 JUMP JUMPDEST JUMPDEST PUSH1 0x0 PUSH2 0x409E DUP8 DUP3 DUP9 ADD PUSH2 0x3376 JUMP JUMPDEST SWAP5 POP POP PUSH1 0x20 PUSH2 0x40AF DUP8 DUP3 DUP9 ADD PUSH2 0x33AC JUMP JUMPDEST SWAP4 POP POP PUSH1 0x40 PUSH2 0x40C0 DUP8 DUP3 DUP9 ADD PUSH2 0x33AC JUMP JUMPDEST SWAP3 POP POP PUSH1 0x60 PUSH2 0x40D1 DUP8 DUP3 DUP9 ADD PUSH2 0x33AC JUMP JUMPDEST SWAP2 POP POP SWAP3 SWAP6 SWAP2 SWAP5 POP SWAP3 POP JUMP JUMPDEST PUSH1 0x0 PUSH1 0xC0 DUP3 ADD SWAP1 POP PUSH2 0x40F2 PUSH1 0x0 DUP4 ADD DUP10 PUSH2 0x3D33 JUMP JUMPDEST PUSH2 0x40FF PUSH1 0x20 DUP4 ADD DUP9 PUSH2 0x3401 JUMP JUMPDEST PUSH2 0x410C PUSH1 0x40 DUP4 ADD DUP8 PUSH2 0x3401 JUMP JUMPDEST PUSH2 0x4119 PUSH1 0x60 DUP4 ADD DUP7 PUSH2 0x3401 JUMP JUMPDEST PUSH2 0x4126 PUSH1 0x80 DUP4 ADD DUP6 PUSH2 0x3401 JUMP JUMPDEST PUSH2 0x4133 PUSH1 0xA0 DUP4 ADD DUP5 PUSH2 0x34BC JUMP JUMPDEST SWAP8 SWAP7 POP POP POP POP POP POP POP JUMP JUMPDEST PUSH32 0x4E487B7100000000000000000000000000000000000000000000000000000000 PUSH1 0x0 MSTORE PUSH1 0x22 PUSH1 0x4 MSTORE PUSH1 0x24 PUSH1 0x0 REVERT JUMPDEST PUSH1 0x0 PUSH1 0x2 DUP3 DIV SWAP1 POP PUSH1 0x1 DUP3 AND DUP1 PUSH2 0x4185 JUMPI PUSH1 0x7F DUP3 AND SWAP2 POP JUMPDEST PUSH1 0x20 DUP3 LT DUP2 SUB PUSH2 0x4198 JUMPI PUSH2 0x4197 PUSH2 0x413E JUMP JUMPDEST JUMPDEST POP SWAP2 SWAP1 POP JUMP JUMPDEST PUSH32 0x4973206974206E6F7420736F6C64206F75743F00000000000000000000000000 PUSH1 0x0 DUP3 ADD MSTORE POP JUMP JUMPDEST PUSH1 0x0 PUSH2 0x41D4 PUSH1 0x13 DUP4 PUSH2 0x351E JUMP JUMPDEST SWAP2 POP PUSH2 0x41DF DUP3 PUSH2 0x419E JUMP JUMPDEST PUSH1 0x20 DUP3 ADD SWAP1 POP SWAP2 SWAP1 POP JUMP JUMPDEST PUSH1 0x0 PUSH1 0x20 DUP3 ADD SWAP1 POP DUP2 DUP2 SUB PUSH1 0x0 DUP4 ADD MSTORE PUSH2 0x4203 DUP2 PUSH2 0x41C7 JUMP JUMPDEST SWAP1 POP SWAP2 SWAP1 POP JUMP JUMPDEST PUSH1 0x0 DUP2 MLOAD SWAP1 POP PUSH2 0x4219 DUP2 PUSH2 0x3395 JUMP JUMPDEST SWAP3 SWAP2 POP POP JUMP JUMPDEST PUSH1 0x0 PUSH1 0x20 DUP3 DUP5 SUB SLT ISZERO PUSH2 0x4235 JUMPI PUSH2 0x4234 PUSH2 0x3323 JUMP JUMPDEST JUMPDEST PUSH1 0x0 PUSH2 0x4243 DUP5 DUP3 DUP6 ADD PUSH2 0x420A JUMP JUMPDEST SWAP2 POP POP SWAP3 SWAP2 POP POP JUMP JUMPDEST PUSH32 0x455243313135353A2063616C6C6572206973206E6F7420746F6B656E206F776E PUSH1 0x0 DUP3 ADD MSTORE PUSH32 0x6572206F7220617070726F766564000000000000000000000000000000000000 PUSH1 0x20 DUP3 ADD MSTORE POP JUMP JUMPDEST PUSH1 0x0 PUSH2 0x42A8 PUSH1 0x2E DUP4 PUSH2 0x351E JUMP JUMPDEST SWAP2 POP PUSH2 0x42B3 DUP3 PUSH2 0x424C JUMP JUMPDEST PUSH1 0x40 DUP3 ADD SWAP1 POP SWAP2 SWAP1 POP JUMP JUMPDEST PUSH1 0x0 PUSH1 0x20 DUP3 ADD SWAP1 POP DUP2 DUP2 SUB PUSH1 0x0 DUP4 ADD MSTORE PUSH2 0x42D7 DUP2 PUSH2 0x429B JUMP JUMPDEST SWAP1 POP SWAP2 SWAP1 POP JUMP JUMPDEST PUSH32 0x53616C6543413F3F3F3F00000000000000000000000000000000000000000000 PUSH1 0x0 DUP3 ADD MSTORE POP JUMP JUMPDEST PUSH1 0x0 PUSH2 0x4314 PUSH1 0xA DUP4 PUSH2 0x351E JUMP JUMPDEST SWAP2 POP PUSH2 0x431F DUP3 PUSH2 0x42DE JUMP JUMPDEST PUSH1 0x20 DUP3 ADD SWAP1 POP SWAP2 SWAP1 POP JUMP JUMPDEST PUSH1 0x0 PUSH1 0x20 DUP3 ADD SWAP1 POP DUP2 DUP2 SUB PUSH1 0x0 DUP4 ADD MSTORE PUSH2 0x4343 DUP2 PUSH2 0x4307 JUMP JUMPDEST SWAP1 POP SWAP2 SWAP1 POP JUMP JUMPDEST PUSH32 0x455243313135353A206163636F756E747320616E6420696473206C656E677468 PUSH1 0x0 DUP3 ADD MSTORE PUSH32 0x206D69736D617463680000000000000000000000000000000000000000000000 PUSH1 0x20 DUP3 ADD MSTORE POP JUMP JUMPDEST PUSH1 0x0 PUSH2 0x43A6 PUSH1 0x29 DUP4 PUSH2 0x351E JUMP JUMPDEST SWAP2 POP PUSH2 0x43B1 DUP3 PUSH2 0x434A JUMP JUMPDEST PUSH1 0x40 DUP3 ADD SWAP1 POP SWAP2 SWAP1 POP JUMP JUMPDEST PUSH1 0x0 PUSH1 0x20 DUP3 ADD SWAP1 POP DUP2 DUP2 SUB PUSH1 0x0 DUP4 ADD MSTORE PUSH2 0x43D5 DUP2 PUSH2 0x4399 JUMP JUMPDEST SWAP1 POP SWAP2 SWAP1 POP JUMP JUMPDEST PUSH32 0x4E487B7100000000000000000000000000000000000000000000000000000000 PUSH1 0x0 MSTORE PUSH1 0x32 PUSH1 0x4 MSTORE PUSH1 0x24 PUSH1 0x0 REVERT JUMPDEST PUSH32 0x4E487B7100000000000000000000000000000000000000000000000000000000 PUSH1 0x0 MSTORE PUSH1 0x11 PUSH1 0x4 MSTORE PUSH1 0x24 PUSH1 0x0 REVERT JUMPDEST PUSH1 0x0 PUSH2 0x4445 DUP3 PUSH2 0x338B JUMP JUMPDEST SWAP2 POP PUSH32 0xFFFFFFFFFFFFFFFFFFFFFFFFFFFFFFFFFFFFFFFFFFFFFFFFFFFFFFFFFFFFFFFF DUP3 SUB PUSH2 0x4477 JUMPI PUSH2 0x4476 PUSH2 0x440B JUMP JUMPDEST JUMPDEST PUSH1 0x1 DUP3 ADD SWAP1 POP SWAP2 SWAP1 POP JUMP JUMPDEST PUSH32 0x6E6F20616D6F756E742E00000000000000000000000000000000000000000000 PUSH1 0x0 DUP3 ADD MSTORE POP JUMP JUMPDEST PUSH1 0x0 PUSH2 0x44B8 PUSH1 0xA DUP4 PUSH2 0x351E JUMP JUMPDEST SWAP2 POP PUSH2 0x44C3 DUP3 PUSH2 0x4482 JUMP JUMPDEST PUSH1 0x20 DUP3 ADD SWAP1 POP SWAP2 SWAP1 POP JUMP JUMPDEST PUSH1 0x0 PUSH1 0x20 DUP3 ADD SWAP1 POP DUP2 DUP2 SUB PUSH1 0x0 DUP4 ADD MSTORE PUSH2 0x44E7 DUP2 PUSH2 0x44AB JUMP JUMPDEST SWAP1 POP SWAP2 SWAP1 POP JUMP JUMPDEST PUSH1 0x0 PUSH2 0x44F9 DUP3 PUSH2 0x338B JUMP JUMPDEST SWAP2 POP PUSH2 0x4504 DUP4 PUSH2 0x338B JUMP JUMPDEST SWAP3 POP DUP3 DUP3 SUB SWAP1 POP DUP2 DUP2 GT ISZERO PUSH2 0x451C JUMPI PUSH2 0x451B PUSH2 0x440B JUMP JUMPDEST JUMPDEST SWAP3 SWAP2 POP POP JUMP JUMPDEST PUSH1 0x0 PUSH2 0x452D DUP3 PUSH2 0x338B JUMP JUMPDEST SWAP2 POP PUSH2 0x4538 DUP4 PUSH2 0x338B JUMP JUMPDEST SWAP3 POP DUP3 DUP3 MUL PUSH2 0x4546 DUP2 PUSH2 0x338B JUMP JUMPDEST SWAP2 POP DUP3 DUP3 DIV DUP5 EQ DUP4 ISZERO OR PUSH2 0x455D JUMPI PUSH2 0x455C PUSH2 0x440B JUMP JUMPDEST JUMPDEST POP SWAP3 SWAP2 POP POP JUMP JUMPDEST PUSH32 0x54686520766F74696E6720706572696F64206973206D6178696D756D20756E74 PUSH1 0x0 DUP3 ADD MSTORE PUSH32 0x696C206F6E6520646179206265666F72652E0000000000000000000000000000 PUSH1 0x20 DUP3 ADD MSTORE POP JUMP JUMPDEST PUSH1 0x0 PUSH2 0x45C0 PUSH1 0x32 DUP4 PUSH2 0x351E JUMP JUMPDEST SWAP2 POP PUSH2 0x45CB DUP3 PUSH2 0x4564 JUMP JUMPDEST PUSH1 0x40 DUP3 ADD SWAP1 POP SWAP2 SWAP1 POP JUMP JUMPDEST PUSH1 0x0 PUSH1 0x20 DUP3 ADD SWAP1 POP DUP2 DUP2 SUB PUSH1 0x0 DUP4 ADD MSTORE PUSH2 0x45EF DUP2 PUSH2 0x45B3 JUMP JUMPDEST SWAP1 POP SWAP2 SWAP1 POP JUMP JUMPDEST PUSH32 0x546865726520697320616C7265616479206120766F74652E0000000000000000 PUSH1 0x0 DUP3 ADD MSTORE POP JUMP JUMPDEST PUSH1 0x0 PUSH2 0x462C PUSH1 0x18 DUP4 PUSH2 0x351E JUMP JUMPDEST SWAP2 POP PUSH2 0x4637 DUP3 PUSH2 0x45F6 JUMP JUMPDEST PUSH1 0x20 DUP3 ADD SWAP1 POP SWAP2 SWAP1 POP JUMP JUMPDEST PUSH1 0x0 PUSH1 0x20 DUP3 ADD SWAP1 POP DUP2 DUP2 SUB PUSH1 0x0 DUP4 ADD MSTORE PUSH2 0x465B DUP2 PUSH2 0x461F JUMP JUMPDEST SWAP1 POP SWAP2 SWAP1 POP JUMP JUMPDEST PUSH32 0x6861766520616C7265616479206265656E206973737565640000000000000000 PUSH1 0x0 DUP3 ADD MSTORE POP JUMP JUMPDEST PUSH1 0x0 PUSH2 0x4698 PUSH1 0x18 DUP4 PUSH2 0x351E JUMP JUMPDEST SWAP2 POP PUSH2 0x46A3 DUP3 PUSH2 0x4662 JUMP JUMPDEST PUSH1 0x20 DUP3 ADD SWAP1 POP SWAP2 SWAP1 POP JUMP JUMPDEST PUSH1 0x0 PUSH1 0x20 DUP3 ADD SWAP1 POP DUP2 DUP2 SUB PUSH1 0x0 DUP4 ADD MSTORE PUSH2 0x46C7 DUP2 PUSH2 0x468B JUMP JUMPDEST SWAP1 POP SWAP2 SWAP1 POP JUMP JUMPDEST PUSH32 0x49742773206E6F7420796F752E00000000000000000000000000000000000000 PUSH1 0x0 DUP3 ADD MSTORE POP JUMP JUMPDEST PUSH1 0x0 PUSH2 0x4704 PUSH1 0xD DUP4 PUSH2 0x351E JUMP JUMPDEST SWAP2 POP PUSH2 0x470F DUP3 PUSH2 0x46CE JUMP JUMPDEST PUSH1 0x20 DUP3 ADD SWAP1 POP SWAP2 SWAP1 POP JUMP JUMPDEST PUSH1 0x0 PUSH1 0x20 DUP3 ADD SWAP1 POP DUP2 DUP2 SUB PUSH1 0x0 DUP4 ADD MSTORE PUSH2 0x4733 DUP2 PUSH2 0x46F7 JUMP JUMPDEST SWAP1 POP SWAP2 SWAP1 POP JUMP JUMPDEST PUSH1 0x0 DUP2 SWAP1 POP DUP2 PUSH1 0x0 MSTORE PUSH1 0x20 PUSH1 0x0 KECCAK256 SWAP1 POP SWAP2 SWAP1 POP JUMP JUMPDEST PUSH1 0x0 PUSH1 0x20 PUSH1 0x1F DUP4 ADD DIV SWAP1 POP SWAP2 SWAP1 POP JUMP JUMPDEST PUSH1 0x0 DUP3 DUP3 SHL SWAP1 POP SWAP3 SWAP2 POP POP JUMP JUMPDEST PUSH1 0x0 PUSH1 0x8 DUP4 MUL PUSH2 0x479C PUSH32 0xFFFFFFFFFFFFFFFFFFFFFFFFFFFFFFFFFFFFFFFFFFFFFFFFFFFFFFFFFFFFFFFF DUP3 PUSH2 0x475F JUMP JUMPDEST PUSH2 0x47A6 DUP7 DUP4 PUSH2 0x475F JUMP JUMPDEST SWAP6 POP DUP1 NOT DUP5 AND SWAP4 POP DUP1 DUP7 AND DUP5 OR SWAP3 POP POP POP SWAP4 SWAP3 POP POP POP JUMP JUMPDEST PUSH1 0x0 PUSH2 0x47D9 PUSH2 0x47D4 PUSH2 0x47CF DUP5 PUSH2 0x338B JUMP JUMPDEST PUSH2 0x3891 JUMP JUMPDEST PUSH2 0x338B JUMP JUMPDEST SWAP1 POP SWAP2 SWAP1 POP JUMP JUMPDEST PUSH1 0x0 DUP2 SWAP1 POP SWAP2 SWAP1 POP JUMP JUMPDEST PUSH2 0x47F3 DUP4 PUSH2 0x47BE JUMP JUMPDEST PUSH2 0x4807 PUSH2 0x47FF DUP3 PUSH2 0x47E0 JUMP JUMPDEST DUP5 DUP5 SLOAD PUSH2 0x476C JUMP JUMPDEST DUP3 SSTORE POP POP POP POP JUMP JUMPDEST PUSH1 0x0 SWAP1 JUMP JUMPDEST PUSH2 0x481C PUSH2 0x480F JUMP JUMPDEST PUSH2 0x4827 DUP2 DUP5 DUP5 PUSH2 0x47EA JUMP JUMPDEST POP POP POP JUMP JUMPDEST JUMPDEST DUP2 DUP2 LT ISZERO PUSH2 0x484B JUMPI PUSH2 0x4840 PUSH1 0x0 DUP3 PUSH2 0x4814 JUMP JUMPDEST PUSH1 0x1 DUP2 ADD SWAP1 POP PUSH2 0x482D JUMP JUMPDEST POP POP JUMP JUMPDEST PUSH1 0x1F DUP3 GT ISZERO PUSH2 0x4890 JUMPI PUSH2 0x4861 DUP2 PUSH2 0x473A JUMP JUMPDEST PUSH2 0x486A DUP5 PUSH2 0x474F JUMP JUMPDEST DUP2 ADD PUSH1 0x20 DUP6 LT ISZERO PUSH2 0x4879 JUMPI DUP2 SWAP1 POP JUMPDEST PUSH2 0x488D PUSH2 0x4885 DUP6 PUSH2 0x474F JUMP JUMPDEST DUP4 ADD DUP3 PUSH2 0x482C JUMP JUMPDEST POP POP JUMPDEST POP POP POP JUMP JUMPDEST PUSH1 0x0 DUP3 DUP3 SHR SWAP1 POP SWAP3 SWAP2 POP POP JUMP JUMPDEST PUSH1 0x0 PUSH2 0x48B3 PUSH1 0x0 NOT DUP5 PUSH1 0x8 MUL PUSH2 0x4895 JUMP JUMPDEST NOT DUP1 DUP4 AND SWAP2 POP POP SWAP3 SWAP2 POP POP JUMP JUMPDEST PUSH1 0x0 PUSH2 0x48CC DUP4 DUP4 PUSH2 0x48A2 JUMP JUMPDEST SWAP2 POP DUP3 PUSH1 0x2 MUL DUP3 OR SWAP1 POP SWAP3 SWAP2 POP POP JUMP JUMPDEST PUSH2 0x48E5 DUP3 PUSH2 0x3513 JUMP JUMPDEST PUSH8 0xFFFFFFFFFFFFFFFF DUP2 GT ISZERO PUSH2 0x48FE JUMPI PUSH2 0x48FD PUSH2 0x35CA JUMP JUMPDEST JUMPDEST PUSH2 0x4908 DUP3 SLOAD PUSH2 0x416D JUMP JUMPDEST PUSH2 0x4913 DUP3 DUP3 DUP6 PUSH2 0x484F JUMP JUMPDEST PUSH1 0x0 PUSH1 0x20 SWAP1 POP PUSH1 0x1F DUP4 GT PUSH1 0x1 DUP2 EQ PUSH2 0x4946 JUMPI PUSH1 0x0 DUP5 ISZERO PUSH2 0x4934 JUMPI DUP3 DUP8 ADD MLOAD SWAP1 POP JUMPDEST PUSH2 0x493E DUP6 DUP3 PUSH2 0x48C0 JUMP JUMPDEST DUP7 SSTORE POP PUSH2 0x49A6 JUMP JUMPDEST PUSH1 0x1F NOT DUP5 AND PUSH2 0x4954 DUP7 PUSH2 0x473A JUMP JUMPDEST PUSH1 0x0 JUMPDEST DUP3 DUP2 LT ISZERO PUSH2 0x497C JUMPI DUP5 DUP10 ADD MLOAD DUP3 SSTORE PUSH1 0x1 DUP3 ADD SWAP2 POP PUSH1 0x20 DUP6 ADD SWAP5 POP PUSH1 0x20 DUP2 ADD SWAP1 POP PUSH2 0x4957 JUMP JUMPDEST DUP7 DUP4 LT ISZERO PUSH2 0x4999 JUMPI DUP5 DUP10 ADD MLOAD PUSH2 0x4995 PUSH1 0x1F DUP10 AND DUP3 PUSH2 0x48A2 JUMP JUMPDEST DUP4 SSTORE POP JUMPDEST PUSH1 0x1 PUSH1 0x2 DUP9 MUL ADD DUP9 SSTORE POP POP POP JUMPDEST POP POP POP POP POP POP JUMP JUMPDEST PUSH1 0x0 PUSH1 0xC0 DUP3 ADD SWAP1 POP PUSH2 0x49C3 PUSH1 0x0 DUP4 ADD DUP10 PUSH2 0x3D33 JUMP JUMPDEST PUSH2 0x49D0 PUSH1 0x20 DUP4 ADD DUP9 PUSH2 0x3401 JUMP JUMPDEST PUSH2 0x49DD PUSH1 0x40 DUP4 ADD DUP8 PUSH2 0x3401 JUMP JUMPDEST PUSH2 0x49EA PUSH1 0x60 DUP4 ADD DUP7 PUSH2 0x3401 JUMP JUMPDEST PUSH2 0x49F7 PUSH1 0x80 DUP4 ADD DUP6 PUSH2 0x3401 JUMP JUMPDEST DUP2 DUP2 SUB PUSH1 0xA0 DUP4 ADD MSTORE PUSH2 0x4A09 DUP2 DUP5 PUSH2 0x356A JUMP JUMPDEST SWAP1 POP SWAP8 SWAP7 POP POP POP POP POP POP POP JUMP JUMPDEST PUSH32 0x497320697420736F6C64206F75743F0000000000000000000000000000000000 PUSH1 0x0 DUP3 ADD MSTORE POP JUMP JUMPDEST PUSH1 0x0 PUSH2 0x4A4C PUSH1 0xF DUP4 PUSH2 0x351E JUMP JUMPDEST SWAP2 POP PUSH2 0x4A57 DUP3 PUSH2 0x4A16 JUMP JUMPDEST PUSH1 0x20 DUP3 ADD SWAP1 POP SWAP2 SWAP1 POP JUMP JUMPDEST PUSH1 0x0 PUSH1 0x20 DUP3 ADD SWAP1 POP DUP2 DUP2 SUB PUSH1 0x0 DUP4 ADD MSTORE PUSH2 0x4A7B DUP2 PUSH2 0x4A3F JUMP JUMPDEST SWAP1 POP SWAP2 SWAP1 POP JUMP JUMPDEST PUSH32 0x54696D65204F75743F0000000000000000000000000000000000000000000000 PUSH1 0x0 DUP3 ADD MSTORE POP JUMP JUMPDEST PUSH1 0x0 PUSH2 0x4AB8 PUSH1 0x9 DUP4 PUSH2 0x351E JUMP JUMPDEST SWAP2 POP PUSH2 0x4AC3 DUP3 PUSH2 0x4A82 JUMP JUMPDEST PUSH1 0x20 DUP3 ADD SWAP1 POP SWAP2 SWAP1 POP JUMP JUMPDEST PUSH1 0x0 PUSH1 0x20 DUP3 ADD SWAP1 POP DUP2 DUP2 SUB PUSH1 0x0 DUP4 ADD MSTORE PUSH2 0x4AE7 DUP2 PUSH2 0x4AAB JUMP JUMPDEST SWAP1 POP SWAP2 SWAP1 POP JUMP JUMPDEST PUSH32 0x6E6F20616D6F756E740000000000000000000000000000000000000000000000 PUSH1 0x0 DUP3 ADD MSTORE POP JUMP JUMPDEST PUSH1 0x0 PUSH2 0x4B24 PUSH1 0x9 DUP4 PUSH2 0x351E JUMP JUMPDEST SWAP2 POP PUSH2 0x4B2F DUP3 PUSH2 0x4AEE JUMP JUMPDEST PUSH1 0x20 DUP3 ADD SWAP1 POP SWAP2 SWAP1 POP JUMP JUMPDEST PUSH1 0x0 PUSH1 0x20 DUP3 ADD SWAP1 POP DUP2 DUP2 SUB PUSH1 0x0 DUP4 ADD MSTORE PUSH2 0x4B53 DUP2 PUSH2 0x4B17 JUMP JUMPDEST SWAP1 POP SWAP2 SWAP1 POP JUMP JUMPDEST PUSH32 0x656E642046756E6464696E673F00000000000000000000000000000000000000 PUSH1 0x0 DUP3 ADD MSTORE POP JUMP JUMPDEST PUSH1 0x0 PUSH2 0x4B90 PUSH1 0xD DUP4 PUSH2 0x351E JUMP JUMPDEST SWAP2 POP PUSH2 0x4B9B DUP3 PUSH2 0x4B5A JUMP JUMPDEST PUSH1 0x20 DUP3 ADD SWAP1 POP SWAP2 SWAP1 POP JUMP JUMPDEST PUSH1 0x0 PUSH1 0x20 DUP3 ADD SWAP1 POP DUP2 DUP2 SUB PUSH1 0x0 DUP4 ADD MSTORE PUSH2 0x4BBF DUP2 PUSH2 0x4B83 JUMP JUMPDEST SWAP1 POP SWAP2 SWAP1 POP JUMP JUMPDEST PUSH1 0x0 PUSH2 0x4BD1 DUP3 PUSH2 0x338B JUMP JUMPDEST SWAP2 POP PUSH2 0x4BDC DUP4 PUSH2 0x338B JUMP JUMPDEST SWAP3 POP DUP3 DUP3 ADD SWAP1 POP DUP1 DUP3 GT ISZERO PUSH2 0x4BF4 JUMPI PUSH2 0x4BF3 PUSH2 0x440B JUMP JUMPDEST JUMPDEST SWAP3 SWAP2 POP POP JUMP JUMPDEST PUSH32 0x46756E6464696E6743413F3F3F3F000000000000000000000000000000000000 PUSH1 0x0 DUP3 ADD MSTORE POP JUMP JUMPDEST PUSH1 0x0 PUSH2 0x4C30 PUSH1 0xE DUP4 PUSH2 0x351E JUMP JUMPDEST SWAP2 POP PUSH2 0x4C3B DUP3 PUSH2 0x4BFA JUMP JUMPDEST PUSH1 0x20 DUP3 ADD SWAP1 POP SWAP2 SWAP1 POP JUMP JUMPDEST PUSH1 0x0 PUSH1 0x20 DUP3 ADD SWAP1 POP DUP2 DUP2 SUB PUSH1 0x0 DUP4 ADD MSTORE PUSH2 0x4C5F DUP2 PUSH2 0x4C23 JUMP JUMPDEST SWAP1 POP SWAP2 SWAP1 POP JUMP JUMPDEST PUSH32 0x52756E206F6E6365206F6E6C7920696E2074686520626567696E6E696E670000 PUSH1 0x0 DUP3 ADD MSTORE POP JUMP JUMPDEST PUSH1 0x0 PUSH2 0x4C9C PUSH1 0x1E DUP4 PUSH2 0x351E JUMP JUMPDEST SWAP2 POP PUSH2 0x4CA7 DUP3 PUSH2 0x4C66 JUMP JUMPDEST PUSH1 0x20 DUP3 ADD SWAP1 POP SWAP2 SWAP1 POP JUMP JUMPDEST PUSH1 0x0 PUSH1 0x20 DUP3 ADD SWAP1 POP DUP2 DUP2 SUB PUSH1 0x0 DUP4 ADD MSTORE PUSH2 0x4CCB DUP2 PUSH2 0x4C8F JUMP JUMPDEST SWAP1 POP SWAP2 SWAP1 POP JUMP JUMPDEST PUSH32 0x4F776E61626C653A206E6577206F776E657220697320746865207A65726F2061 PUSH1 0x0 DUP3 ADD MSTORE PUSH32 0x6464726573730000000000000000000000000000000000000000000000000000 PUSH1 0x20 DUP3 ADD MSTORE POP JUMP JUMPDEST PUSH1 0x0 PUSH2 0x4D2E PUSH1 0x26 DUP4 PUSH2 0x351E JUMP JUMPDEST SWAP2 POP PUSH2 0x4D39 DUP3 PUSH2 0x4CD2 JUMP JUMPDEST PUSH1 0x40 DUP3 ADD SWAP1 POP SWAP2 SWAP1 POP JUMP JUMPDEST PUSH1 0x0 PUSH1 0x20 DUP3 ADD SWAP1 POP DUP2 DUP2 SUB PUSH1 0x0 DUP4 ADD MSTORE PUSH2 0x4D5D DUP2 PUSH2 0x4D21 JUMP JUMPDEST SWAP1 POP SWAP2 SWAP1 POP JUMP JUMPDEST PUSH1 0x0 PUSH1 0x80 DUP3 ADD SWAP1 POP PUSH2 0x4D79 PUSH1 0x0 DUP4 ADD DUP8 PUSH2 0x3D33 JUMP JUMPDEST PUSH2 0x4D86 PUSH1 0x20 DUP4 ADD DUP7 PUSH2 0x3401 JUMP JUMPDEST PUSH2 0x4D93 PUSH1 0x40 DUP4 ADD DUP6 PUSH2 0x3401 JUMP JUMPDEST PUSH2 0x4DA0 PUSH1 0x60 DUP4 ADD DUP5 PUSH2 0x3401 JUMP JUMPDEST SWAP6 SWAP5 POP POP POP POP POP JUMP JUMPDEST PUSH32 0x54696D65204F7574000000000000000000000000000000000000000000000000 PUSH1 0x0 DUP3 ADD MSTORE POP JUMP JUMPDEST PUSH1 0x0 PUSH2 0x4DDF PUSH1 0x8 DUP4 PUSH2 0x351E JUMP JUMPDEST SWAP2 POP PUSH2 0x4DEA DUP3 PUSH2 0x4DA9 JUMP JUMPDEST PUSH1 0x20 DUP3 ADD SWAP1 POP SWAP2 SWAP1 POP JUMP JUMPDEST PUSH1 0x0 PUSH1 0x20 DUP3 ADD SWAP1 POP DUP2 DUP2 SUB PUSH1 0x0 DUP4 ADD MSTORE PUSH2 0x4E0E DUP2 PUSH2 0x4DD2 JUMP JUMPDEST SWAP1 POP SWAP2 SWAP1 POP JUMP JUMPDEST PUSH32 0x43726561746F727320617265206E6F7420616C6C6F77656420746F2070617274 PUSH1 0x0 DUP3 ADD MSTORE PUSH32 0x6963697061746500000000000000000000000000000000000000000000000000 PUSH1 0x20 DUP3 ADD MSTORE POP JUMP JUMPDEST PUSH1 0x0 PUSH2 0x4E71 PUSH1 0x27 DUP4 PUSH2 0x351E JUMP JUMPDEST SWAP2 POP PUSH2 0x4E7C DUP3 PUSH2 0x4E15 JUMP JUMPDEST PUSH1 0x40 DUP3 ADD SWAP1 POP SWAP2 SWAP1 POP JUMP JUMPDEST PUSH1 0x0 PUSH1 0x20 DUP3 ADD SWAP1 POP DUP2 DUP2 SUB PUSH1 0x0 DUP4 ADD MSTORE PUSH2 0x4EA0 DUP2 PUSH2 0x4E64 JUMP JUMPDEST SWAP1 POP SWAP2 SWAP1 POP JUMP JUMPDEST PUSH32 0x455243313135353A2061646472657373207A65726F206973206E6F7420612076 PUSH1 0x0 DUP3 ADD MSTORE PUSH32 0x616C6964206F776E657200000000000000000000000000000000000000000000 PUSH1 0x20 DUP3 ADD MSTORE POP JUMP JUMPDEST PUSH1 0x0 PUSH2 0x4F03 PUSH1 0x2A DUP4 PUSH2 0x351E JUMP JUMPDEST SWAP2 POP PUSH2 0x4F0E DUP3 PUSH2 0x4EA7 JUMP JUMPDEST PUSH1 0x40 DUP3 ADD SWAP1 POP SWAP2 SWAP1 POP JUMP JUMPDEST PUSH1 0x0 PUSH1 0x20 DUP3 ADD SWAP1 POP DUP2 DUP2 SUB PUSH1 0x0 DUP4 ADD MSTORE PUSH2 0x4F32 DUP2 PUSH2 0x4EF6 JUMP JUMPDEST SWAP1 POP SWAP2 SWAP1 POP JUMP JUMPDEST PUSH32 0x455243313135353A2069647320616E6420616D6F756E7473206C656E67746820 PUSH1 0x0 DUP3 ADD MSTORE PUSH32 0x6D69736D61746368000000000000000000000000000000000000000000000000 PUSH1 0x20 DUP3 ADD MSTORE POP JUMP JUMPDEST PUSH1 0x0 PUSH2 0x4F95 PUSH1 0x28 DUP4 PUSH2 0x351E JUMP JUMPDEST SWAP2 POP PUSH2 0x4FA0 DUP3 PUSH2 0x4F39 JUMP JUMPDEST PUSH1 0x40 DUP3 ADD SWAP1 POP SWAP2 SWAP1 POP JUMP JUMPDEST PUSH1 0x0 PUSH1 0x20 DUP3 ADD SWAP1 POP DUP2 DUP2 SUB PUSH1 0x0 DUP4 ADD MSTORE PUSH2 0x4FC4 DUP2 PUSH2 0x4F88 JUMP JUMPDEST SWAP1 POP SWAP2 SWAP1 POP JUMP JUMPDEST PUSH32 0x455243313135353A207472616E7366657220746F20746865207A65726F206164 PUSH1 0x0 DUP3 ADD MSTORE PUSH32 0x6472657373000000000000000000000000000000000000000000000000000000 PUSH1 0x20 DUP3 ADD MSTORE POP JUMP JUMPDEST PUSH1 0x0 PUSH2 0x5027 PUSH1 0x25 DUP4 PUSH2 0x351E JUMP JUMPDEST SWAP2 POP PUSH2 0x5032 DUP3 PUSH2 0x4FCB JUMP JUMPDEST PUSH1 0x40 DUP3 ADD SWAP1 POP SWAP2 SWAP1 POP JUMP JUMPDEST PUSH1 0x0 PUSH1 0x20 DUP3 ADD SWAP1 POP DUP2 DUP2 SUB PUSH1 0x0 DUP4 ADD MSTORE PUSH2 0x5056 DUP2 PUSH2 0x501A JUMP JUMPDEST SWAP1 POP SWAP2 SWAP1 POP JUMP JUMPDEST PUSH32 0x455243313135353A20696E73756666696369656E742062616C616E636520666F PUSH1 0x0 DUP3 ADD MSTORE PUSH32 0x72207472616E7366657200000000000000000000000000000000000000000000 PUSH1 0x20 DUP3 ADD MSTORE POP JUMP JUMPDEST PUSH1 0x0 PUSH2 0x50B9 PUSH1 0x2A DUP4 PUSH2 0x351E JUMP JUMPDEST SWAP2 POP PUSH2 0x50C4 DUP3 PUSH2 0x505D JUMP JUMPDEST PUSH1 0x40 DUP3 ADD SWAP1 POP SWAP2 SWAP1 POP JUMP JUMPDEST PUSH1 0x0 PUSH1 0x20 DUP3 ADD SWAP1 POP DUP2 DUP2 SUB PUSH1 0x0 DUP4 ADD MSTORE PUSH2 0x50E8 DUP2 PUSH2 0x50AC JUMP JUMPDEST SWAP1 POP SWAP2 SWAP1 POP JUMP JUMPDEST PUSH1 0x0 PUSH1 0x40 DUP3 ADD SWAP1 POP DUP2 DUP2 SUB PUSH1 0x0 DUP4 ADD MSTORE PUSH2 0x5109 DUP2 DUP6 PUSH2 0x3B8E JUMP JUMPDEST SWAP1 POP DUP2 DUP2 SUB PUSH1 0x20 DUP4 ADD MSTORE PUSH2 0x511D DUP2 DUP5 PUSH2 0x3B8E JUMP JUMPDEST SWAP1 POP SWAP4 SWAP3 POP POP POP JUMP JUMPDEST PUSH32 0x4F776E61626C653A2063616C6C6572206973206E6F7420746865206F776E6572 PUSH1 0x0 DUP3 ADD MSTORE POP JUMP JUMPDEST PUSH1 0x0 PUSH2 0x515C PUSH1 0x20 DUP4 PUSH2 0x351E JUMP JUMPDEST SWAP2 POP PUSH2 0x5167 DUP3 PUSH2 0x5126 JUMP JUMPDEST PUSH1 0x20 DUP3 ADD SWAP1 POP SWAP2 SWAP1 POP JUMP JUMPDEST PUSH1 0x0 PUSH1 0x20 DUP3 ADD SWAP1 POP DUP2 DUP2 SUB PUSH1 0x0 DUP4 ADD MSTORE PUSH2 0x518B DUP2 PUSH2 0x514F JUMP JUMPDEST SWAP1 POP SWAP2 SWAP1 POP JUMP JUMPDEST PUSH32 0x455243313135353A206275726E2066726F6D20746865207A65726F2061646472 PUSH1 0x0 DUP3 ADD MSTORE PUSH32 0x6573730000000000000000000000000000000000000000000000000000000000 PUSH1 0x20 DUP3 ADD MSTORE POP JUMP JUMPDEST PUSH1 0x0 PUSH2 0x51EE PUSH1 0x23 DUP4 PUSH2 0x351E JUMP JUMPDEST SWAP2 POP PUSH2 0x51F9 DUP3 PUSH2 0x5192 JUMP JUMPDEST PUSH1 0x40 DUP3 ADD SWAP1 POP SWAP2 SWAP1 POP JUMP JUMPDEST PUSH1 0x0 PUSH1 0x20 DUP3 ADD SWAP1 POP DUP2 DUP2 SUB PUSH1 0x0 DUP4 ADD MSTORE PUSH2 0x521D DUP2 PUSH2 0x51E1 JUMP JUMPDEST SWAP1 POP SWAP2 SWAP1 POP JUMP JUMPDEST PUSH32 0x455243313135353A206275726E20616D6F756E7420657863656564732062616C PUSH1 0x0 DUP3 ADD MSTORE PUSH32 0x616E636500000000000000000000000000000000000000000000000000000000 PUSH1 0x20 DUP3 ADD MSTORE POP JUMP JUMPDEST PUSH1 0x0 PUSH2 0x5280 PUSH1 0x24 DUP4 PUSH2 0x351E JUMP JUMPDEST SWAP2 POP PUSH2 0x528B DUP3 PUSH2 0x5224 JUMP JUMPDEST PUSH1 0x40 DUP3 ADD SWAP1 POP SWAP2 SWAP1 POP JUMP JUMPDEST PUSH1 0x0 PUSH1 0x20 DUP3 ADD SWAP1 POP DUP2 DUP2 SUB PUSH1 0x0 DUP4 ADD MSTORE PUSH2 0x52AF DUP2 PUSH2 0x5273 JUMP JUMPDEST SWAP1 POP SWAP2 SWAP1 POP JUMP JUMPDEST PUSH1 0x0 PUSH1 0x40 DUP3 ADD SWAP1 POP PUSH2 0x52CB PUSH1 0x0 DUP4 ADD DUP6 PUSH2 0x3401 JUMP JUMPDEST PUSH2 0x52D8 PUSH1 0x20 DUP4 ADD DUP5 PUSH2 0x3401 JUMP JUMPDEST SWAP4 SWAP3 POP POP POP JUMP JUMPDEST PUSH32 0x4E487B7100000000000000000000000000000000000000000000000000000000 PUSH1 0x0 MSTORE PUSH1 0x12 PUSH1 0x4 MSTORE PUSH1 0x24 PUSH1 0x0 REVERT JUMPDEST PUSH1 0x0 PUSH2 0x5319 DUP3 PUSH2 0x338B JUMP JUMPDEST SWAP2 POP PUSH2 0x5324 DUP4 PUSH2 0x338B JUMP JUMPDEST SWAP3 POP DUP3 PUSH2 0x5334 JUMPI PUSH2 0x5333 PUSH2 0x52DF JUMP JUMPDEST JUMPDEST DUP3 DUP3 DIV SWAP1 POP SWAP3 SWAP2 POP POP JUMP JUMPDEST PUSH32 0x455243313135353A206D696E7420746F20746865207A65726F20616464726573 PUSH1 0x0 DUP3 ADD MSTORE PUSH32 0x7300000000000000000000000000000000000000000000000000000000000000 PUSH1 0x20 DUP3 ADD MSTORE POP JUMP JUMPDEST PUSH1 0x0 PUSH2 0x539B PUSH1 0x21 DUP4 PUSH2 0x351E JUMP JUMPDEST SWAP2 POP PUSH2 0x53A6 DUP3 PUSH2 0x533F JUMP JUMPDEST PUSH1 0x40 DUP3 ADD SWAP1 POP SWAP2 SWAP1 POP JUMP JUMPDEST PUSH1 0x0 PUSH1 0x20 DUP3 ADD SWAP1 POP DUP2 DUP2 SUB PUSH1 0x0 DUP4 ADD MSTORE PUSH2 0x53CA DUP2 PUSH2 0x538E JUMP JUMPDEST SWAP1 POP SWAP2 SWAP1 POP JUMP JUMPDEST PUSH32 0x455243313135353A2073657474696E6720617070726F76616C20737461747573 PUSH1 0x0 DUP3 ADD MSTORE PUSH32 0x20666F722073656C660000000000000000000000000000000000000000000000 PUSH1 0x20 DUP3 ADD MSTORE POP JUMP JUMPDEST PUSH1 0x0 PUSH2 0x542D PUSH1 0x29 DUP4 PUSH2 0x351E JUMP JUMPDEST SWAP2 POP PUSH2 0x5438 DUP3 PUSH2 0x53D1 JUMP JUMPDEST PUSH1 0x40 DUP3 ADD SWAP1 POP SWAP2 SWAP1 POP JUMP JUMPDEST PUSH1 0x0 PUSH1 0x20 DUP3 ADD SWAP1 POP DUP2 DUP2 SUB PUSH1 0x0 DUP4 ADD MSTORE PUSH2 0x545C DUP2 PUSH2 0x5420 JUMP JUMPDEST SWAP1 POP SWAP2 SWAP1 POP JUMP JUMPDEST PUSH1 0x0 DUP2 MLOAD SWAP1 POP SWAP2 SWAP1 POP JUMP JUMPDEST PUSH1 0x0 DUP3 DUP3 MSTORE PUSH1 0x20 DUP3 ADD SWAP1 POP SWAP3 SWAP2 POP POP JUMP JUMPDEST PUSH1 0x0 PUSH2 0x548A DUP3 PUSH2 0x5463 JUMP JUMPDEST PUSH2 0x5494 DUP2 DUP6 PUSH2 0x546E JUMP JUMPDEST SWAP4 POP PUSH2 0x54A4 DUP2 DUP6 PUSH1 0x20 DUP7 ADD PUSH2 0x352F JUMP JUMPDEST PUSH2 0x54AD DUP2 PUSH2 0x3559 JUMP JUMPDEST DUP5 ADD SWAP2 POP POP SWAP3 SWAP2 POP POP JUMP JUMPDEST PUSH1 0x0 PUSH1 0xA0 DUP3 ADD SWAP1 POP PUSH2 0x54CD PUSH1 0x0 DUP4 ADD DUP9 PUSH2 0x3D33 JUMP JUMPDEST PUSH2 0x54DA PUSH1 0x20 DUP4 ADD DUP8 PUSH2 0x3D33 JUMP JUMPDEST DUP2 DUP2 SUB PUSH1 0x40 DUP4 ADD MSTORE PUSH2 0x54EC DUP2 DUP7 PUSH2 0x3B8E JUMP JUMPDEST SWAP1 POP DUP2 DUP2 SUB PUSH1 0x60 DUP4 ADD MSTORE PUSH2 0x5500 DUP2 DUP6 PUSH2 0x3B8E JUMP JUMPDEST SWAP1 POP DUP2 DUP2 SUB PUSH1 0x80 DUP4 ADD MSTORE PUSH2 0x5514 DUP2 DUP5 PUSH2 0x547F JUMP JUMPDEST SWAP1 POP SWAP7 SWAP6 POP POP POP POP POP POP JUMP JUMPDEST PUSH1 0x0 DUP2 MLOAD SWAP1 POP PUSH2 0x552F DUP2 PUSH2 0x3457 JUMP JUMPDEST SWAP3 SWAP2 POP POP JUMP JUMPDEST PUSH1 0x0 PUSH1 0x20 DUP3 DUP5 SUB SLT ISZERO PUSH2 0x554B JUMPI PUSH2 0x554A PUSH2 0x3323 JUMP JUMPDEST JUMPDEST PUSH1 0x0 PUSH2 0x5559 DUP5 DUP3 DUP6 ADD PUSH2 0x5520 JUMP JUMPDEST SWAP2 POP POP SWAP3 SWAP2 POP POP JUMP JUMPDEST PUSH1 0x0 DUP2 PUSH1 0xE0 SHR SWAP1 POP SWAP2 SWAP1 POP JUMP JUMPDEST PUSH1 0x0 PUSH1 0x3 RETURNDATASIZE GT ISZERO PUSH2 0x558E JUMPI PUSH1 0x4 PUSH1 0x0 DUP1 RETURNDATACOPY PUSH2 0x558B PUSH1 0x0 MLOAD PUSH2 0x5562 JUMP JUMPDEST SWAP1 POP JUMPDEST SWAP1 JUMP JUMPDEST PUSH1 0x0 PUSH1 0x44 RETURNDATASIZE LT PUSH2 0x561E JUMPI PUSH2 0x55A3 PUSH2 0x3319 JUMP JUMPDEST PUSH1 0x4 RETURNDATASIZE SUB PUSH1 0x4 DUP3 RETURNDATACOPY DUP1 MLOAD RETURNDATASIZE PUSH1 0x24 DUP3 ADD GT PUSH8 0xFFFFFFFFFFFFFFFF DUP3 GT OR ISZERO PUSH2 0x55CB JUMPI POP POP PUSH2 0x561E JUMP JUMPDEST DUP1 DUP3 ADD DUP1 MLOAD PUSH8 0xFFFFFFFFFFFFFFFF DUP2 GT ISZERO PUSH2 0x55E9 JUMPI POP POP POP POP PUSH2 0x561E JUMP JUMPDEST DUP1 PUSH1 0x20 DUP4 ADD ADD PUSH1 0x4 RETURNDATASIZE SUB DUP6 ADD DUP2 GT ISZERO PUSH2 0x5606 JUMPI POP POP POP POP POP PUSH2 0x561E JUMP JUMPDEST PUSH2 0x5615 DUP3 PUSH1 0x20 ADD DUP6 ADD DUP7 PUSH2 0x35F9 JUMP JUMPDEST DUP3 SWAP6 POP POP POP POP POP POP JUMPDEST SWAP1 JUMP JUMPDEST PUSH32 0x455243313135353A207472616E7366657220746F206E6F6E2D45524331313535 PUSH1 0x0 DUP3 ADD MSTORE PUSH32 0x526563656976657220696D706C656D656E746572000000000000000000000000 PUSH1 0x20 DUP3 ADD MSTORE POP JUMP JUMPDEST PUSH1 0x0 PUSH2 0x567D PUSH1 0x34 DUP4 PUSH2 0x351E JUMP JUMPDEST SWAP2 POP PUSH2 0x5688 DUP3 PUSH2 0x5621 JUMP JUMPDEST PUSH1 0x40 DUP3 ADD SWAP1 POP SWAP2 SWAP1 POP JUMP JUMPDEST PUSH1 0x0 PUSH1 0x20 DUP3 ADD SWAP1 POP DUP2 DUP2 SUB PUSH1 0x0 DUP4 ADD MSTORE PUSH2 0x56AC DUP2 PUSH2 0x5670 JUMP JUMPDEST SWAP1 POP SWAP2 SWAP1 POP JUMP JUMPDEST PUSH32 0x455243313135353A204552433131353552656365697665722072656A65637465 PUSH1 0x0 DUP3 ADD MSTORE PUSH32 0x6420746F6B656E73000000000000000000000000000000000000000000000000 PUSH1 0x20 DUP3 ADD MSTORE POP JUMP JUMPDEST PUSH1 0x0 PUSH2 0x570F PUSH1 0x28 DUP4 PUSH2 0x351E JUMP JUMPDEST SWAP2 POP PUSH2 0x571A DUP3 PUSH2 0x56B3 JUMP JUMPDEST PUSH1 0x40 DUP3 ADD SWAP1 POP SWAP2 SWAP1 POP JUMP JUMPDEST PUSH1 0x0 PUSH1 0x20 DUP3 ADD SWAP1 POP DUP2 DUP2 SUB PUSH1 0x0 DUP4 ADD MSTORE PUSH2 0x573E DUP2 PUSH2 0x5702 JUMP JUMPDEST SWAP1 POP SWAP2 SWAP1 POP JUMP JUMPDEST PUSH1 0x0 PUSH1 0xA0 DUP3 ADD SWAP1 POP PUSH2 0x575A PUSH1 0x0 DUP4 ADD DUP9 PUSH2 0x3D33 JUMP JUMPDEST PUSH2 0x5767 PUSH1 0x20 DUP4 ADD DUP8 PUSH2 0x3D33 JUMP JUMPDEST PUSH2 0x5774 PUSH1 0x40 DUP4 ADD DUP7 PUSH2 0x3401 JUMP JUMPDEST PUSH2 0x5781 PUSH1 0x60 DUP4 ADD DUP6 PUSH2 0x3401 JUMP JUMPDEST DUP2 DUP2 SUB PUSH1 0x80 DUP4 ADD MSTORE PUSH2 0x5793 DUP2 DUP5 PUSH2 0x547F JUMP JUMPDEST SWAP1 POP SWAP7 SWAP6 POP POP POP POP POP POP JUMP INVALID LOG2 PUSH5 0x6970667358 0x22 SLT KECCAK256 0xF6 SHR PUSH21 0x1C8DE30DA2BA5F4CB97DD705D35734BE1065826938 OR SLT TIMESTAMP 0xB1 0xB9 PUSH30 0x7A664736F6C634300081100330000000000000000000000000000000000 "
		},
		"gasEstimates": {
			"creation": {
				"codeDepositCost": "4497000",
				"executionCost": "infinite",
				"totalCost": "infinite"
			},
			"external": {
				"Ftoken()": "infinite",
				"Stoken()": "infinite",
				"balanceOf(address,uint256)": "infinite",
				"balanceOfBatch(address[],uint256[])": "infinite",
				"endVoting(uint256,bool)": "infinite",
				"faildBurn(address,uint256,uint256)": "infinite",
				"getTokenOwnerData(uint256)": "infinite",
				"getVoting(uint256,uint256)": "infinite",
				"getVotingCount(uint256)": "infinite",
				"getVotingDate(uint256)": "infinite",
				"ids(uint256)": "infinite",
				"idsView()": "infinite",
				"isApprovedForAll(address,address)": "infinite",
				"isFunddingCA(address)": "51261",
				"isFunddingFalsed(uint256)": "infinite",
				"isFunddingSuccess(uint256)": "infinite",
				"isSaleCA(address)": "24868",
				"isSalesToken(address,uint256,uint256,uint256)": "infinite",
				"isVoting(uint256,bool)": "infinite",
				"mintFundding(address,address,uint256,uint256,uint256,uint256,string)": "infinite",
				"owner()": "2568",
				"renounceOwnership()": "30465",
				"safeBatchTransferFrom(address,address,uint256[],uint256[],bytes)": "infinite",
				"safeTransferFrom(address,address,uint256,uint256,bytes)": "infinite",
				"saleApprovalFalse(address)": "27077",
				"setApprovalForAll(address,bool)": "infinite",
				"startVoting(uint256,uint256)": "infinite",
				"supportsInterface(bytes4)": "842",
				"tokenOwners(uint256)": "infinite",
				"tokenURI(uint256)": "infinite",
				"transferOwnership(address)": "30788",
				"uri(uint256)": "infinite",
				"voting(uint256,uint256)": "infinite",
				"votingCount(uint256)": "infinite",
				"votingDate(uint256)": "infinite"
			},
			"internal": {
				"_getFunddingData(address,uint256,uint256,uint256)": "infinite"
			}
		},
		"methodIdentifiers": {
			"Ftoken()": "325d20c4",
			"Stoken()": "61b1b23c",
			"balanceOf(address,uint256)": "00fdd58e",
			"balanceOfBatch(address[],uint256[])": "4e1273f4",
			"endVoting(uint256,bool)": "d198cc01",
			"faildBurn(address,uint256,uint256)": "77379082",
			"getTokenOwnerData(uint256)": "8d63193d",
			"getVoting(uint256,uint256)": "46a0d50a",
			"getVotingCount(uint256)": "aee4a42a",
			"getVotingDate(uint256)": "4f4eacd8",
			"ids(uint256)": "fac333ac",
			"idsView()": "7abfee42",
			"isApprovedForAll(address,address)": "e985e9c5",
			"isFunddingCA(address)": "e29be1a1",
			"isFunddingFalsed(uint256)": "2374fdcf",
			"isFunddingSuccess(uint256)": "c31f4b58",
			"isSaleCA(address)": "4672a602",
			"isSalesToken(address,uint256,uint256,uint256)": "f4a3a92b",
			"isVoting(uint256,bool)": "fcc1ff5c",
			"mintFundding(address,address,uint256,uint256,uint256,uint256,string)": "9d835c5f",
			"owner()": "8da5cb5b",
			"renounceOwnership()": "715018a6",
			"safeBatchTransferFrom(address,address,uint256[],uint256[],bytes)": "2eb2c2d6",
			"safeTransferFrom(address,address,uint256,uint256,bytes)": "f242432a",
			"saleApprovalFalse(address)": "4b77f8d0",
			"setApprovalForAll(address,bool)": "a22cb465",
			"startVoting(uint256,uint256)": "90fe5609",
			"supportsInterface(bytes4)": "01ffc9a7",
			"tokenOwners(uint256)": "f8a14f46",
			"tokenURI(uint256)": "c87b56dd",
			"transferOwnership(address)": "f2fde38b",
			"uri(uint256)": "0e89341c",
			"voting(uint256,uint256)": "cfaad27c",
			"votingCount(uint256)": "d68ad7a0",
			"votingDate(uint256)": "0fe2a68d"
		}
	},
	"abi": [
		{
			"inputs": [],
			"stateMutability": "nonpayable",
			"type": "constructor"
		},
		{
			"anonymous": false,
			"inputs": [
				{
					"indexed": true,
					"internalType": "address",
					"name": "account",
					"type": "address"
				},
				{
					"indexed": true,
					"internalType": "address",
					"name": "operator",
					"type": "address"
				},
				{
					"indexed": false,
					"internalType": "bool",
					"name": "approved",
					"type": "bool"
				}
			],
			"name": "ApprovalForAll",
			"type": "event"
		},
		{
			"anonymous": false,
			"inputs": [
				{
					"indexed": true,
					"internalType": "address",
					"name": "previousOwner",
					"type": "address"
				},
				{
					"indexed": true,
					"internalType": "address",
					"name": "newOwner",
					"type": "address"
				}
			],
			"name": "OwnershipTransferred",
			"type": "event"
		},
		{
			"anonymous": false,
			"inputs": [
				{
					"indexed": true,
					"internalType": "address",
					"name": "operator",
					"type": "address"
				},
				{
					"indexed": true,
					"internalType": "address",
					"name": "from",
					"type": "address"
				},
				{
					"indexed": true,
					"internalType": "address",
					"name": "to",
					"type": "address"
				},
				{
					"indexed": false,
					"internalType": "uint256[]",
					"name": "ids",
					"type": "uint256[]"
				},
				{
					"indexed": false,
					"internalType": "uint256[]",
					"name": "values",
					"type": "uint256[]"
				}
			],
			"name": "TransferBatch",
			"type": "event"
		},
		{
			"anonymous": false,
			"inputs": [
				{
					"indexed": true,
					"internalType": "address",
					"name": "operator",
					"type": "address"
				},
				{
					"indexed": true,
					"internalType": "address",
					"name": "from",
					"type": "address"
				},
				{
					"indexed": true,
					"internalType": "address",
					"name": "to",
					"type": "address"
				},
				{
					"indexed": false,
					"internalType": "uint256",
					"name": "id",
					"type": "uint256"
				},
				{
					"indexed": false,
					"internalType": "uint256",
					"name": "value",
					"type": "uint256"
				}
			],
			"name": "TransferSingle",
			"type": "event"
		},
		{
			"anonymous": false,
			"inputs": [
				{
					"indexed": false,
					"internalType": "string",
					"name": "value",
					"type": "string"
				},
				{
					"indexed": true,
					"internalType": "uint256",
					"name": "id",
					"type": "uint256"
				}
			],
			"name": "URI",
			"type": "event"
		},
		{
			"anonymous": false,
			"inputs": [
				{
					"indexed": false,
					"internalType": "address",
					"name": "account",
					"type": "address"
				},
				{
					"indexed": false,
					"internalType": "uint256",
					"name": "tokenId",
					"type": "uint256"
				},
				{
					"indexed": false,
					"internalType": "uint256",
					"name": "amount",
					"type": "uint256"
				},
				{
					"indexed": false,
					"internalType": "uint256",
					"name": "totalPrice",
					"type": "uint256"
				},
				{
					"indexed": false,
					"internalType": "uint256",
					"name": "getTime",
					"type": "uint256"
				},
				{
					"indexed": false,
					"internalType": "string",
					"name": "result",
					"type": "string"
				}
			],
			"name": "seccessFundding",
			"type": "event"
		},
		{
			"inputs": [],
			"name": "Ftoken",
			"outputs": [
				{
					"internalType": "contract FunddingToken",
					"name": "",
					"type": "address"
				}
			],
			"stateMutability": "view",
			"type": "function"
		},
		{
			"inputs": [],
			"name": "Stoken",
			"outputs": [
				{
					"internalType": "contract SaleToken",
					"name": "",
					"type": "address"
				}
			],
			"stateMutability": "view",
			"type": "function"
		},
		{
			"inputs": [
				{
					"internalType": "address",
					"name": "account",
					"type": "address"
				},
				{
					"internalType": "uint256",
					"name": "tokenId",
					"type": "uint256"
				}
			],
			"name": "balanceOf",
			"outputs": [
				{
					"internalType": "uint256",
					"name": "",
					"type": "uint256"
				}
			],
			"stateMutability": "view",
			"type": "function"
		},
		{
			"inputs": [
				{
					"internalType": "address[]",
					"name": "accounts",
					"type": "address[]"
				},
				{
					"internalType": "uint256[]",
					"name": "ids",
					"type": "uint256[]"
				}
			],
			"name": "balanceOfBatch",
			"outputs": [
				{
					"internalType": "uint256[]",
					"name": "",
					"type": "uint256[]"
				}
			],
			"stateMutability": "view",
			"type": "function"
		},
		{
			"inputs": [
				{
					"internalType": "uint256",
					"name": "tokenId",
					"type": "uint256"
				},
				{
					"internalType": "bool",
					"name": "result",
					"type": "bool"
				}
			],
			"name": "endVoting",
			"outputs": [],
			"stateMutability": "nonpayable",
			"type": "function"
		},
		{
			"inputs": [
				{
					"internalType": "address",
					"name": "account",
					"type": "address"
				},
				{
					"internalType": "uint256",
					"name": "tokenId",
					"type": "uint256"
				},
				{
					"internalType": "uint256",
					"name": "amount",
					"type": "uint256"
				}
			],
			"name": "faildBurn",
			"outputs": [],
			"stateMutability": "nonpayable",
			"type": "function"
		},
		{
			"inputs": [
				{
					"internalType": "uint256",
					"name": "tokenId",
					"type": "uint256"
				}
			],
			"name": "getTokenOwnerData",
			"outputs": [
				{
					"components": [
						{
							"internalType": "address",
							"name": "Creater",
							"type": "address"
						},
						{
							"internalType": "uint256",
							"name": "NftAmount",
							"type": "uint256"
						},
						{
							"internalType": "uint256",
							"name": "TotalPrice",
							"type": "uint256"
						},
						{
							"internalType": "uint256",
							"name": "UnitPrice",
							"type": "uint256"
						},
						{
							"internalType": "uint256",
							"name": "EndTime",
							"type": "uint256"
						},
						{
							"internalType": "bool",
							"name": "isSuccess",
							"type": "bool"
						}
					],
					"internalType": "struct DtsToken.tokenOwnerData",
					"name": "",
					"type": "tuple"
				}
			],
			"stateMutability": "view",
			"type": "function"
		},
		{
			"inputs": [
				{
					"internalType": "uint256",
					"name": "tokenId",
					"type": "uint256"
				},
				{
					"internalType": "uint256",
					"name": "votingNum",
					"type": "uint256"
				}
			],
			"name": "getVoting",
			"outputs": [
				{
					"components": [
						{
							"internalType": "address",
							"name": "account",
							"type": "address"
						},
						{
							"internalType": "uint256",
							"name": "Amount",
							"type": "uint256"
						},
						{
							"internalType": "bool",
							"name": "result",
							"type": "bool"
						}
					],
					"internalType": "struct DtsToken.votingdata",
					"name": "",
					"type": "tuple"
				}
			],
			"stateMutability": "view",
			"type": "function"
		},
		{
			"inputs": [
				{
					"internalType": "uint256",
					"name": "tokenId",
					"type": "uint256"
				}
			],
			"name": "getVotingCount",
			"outputs": [
				{
					"internalType": "uint256",
					"name": "",
					"type": "uint256"
				}
			],
			"stateMutability": "view",
			"type": "function"
		},
		{
			"inputs": [
				{
					"internalType": "uint256",
					"name": "tokenId",
					"type": "uint256"
				}
			],
			"name": "getVotingDate",
			"outputs": [
				{
					"internalType": "uint256",
					"name": "",
					"type": "uint256"
				}
			],
			"stateMutability": "view",
			"type": "function"
		},
		{
			"inputs": [
				{
					"internalType": "uint256",
					"name": "",
					"type": "uint256"
				}
			],
			"name": "ids",
			"outputs": [
				{
					"internalType": "uint256",
					"name": "",
					"type": "uint256"
				}
			],
			"stateMutability": "view",
			"type": "function"
		},
		{
			"inputs": [],
			"name": "idsView",
			"outputs": [
				{
					"internalType": "uint256[]",
					"name": "",
					"type": "uint256[]"
				}
			],
			"stateMutability": "view",
			"type": "function"
		},
		{
			"inputs": [
				{
					"internalType": "address",
					"name": "account",
					"type": "address"
				},
				{
					"internalType": "address",
					"name": "operator",
					"type": "address"
				}
			],
			"name": "isApprovedForAll",
			"outputs": [
				{
					"internalType": "bool",
					"name": "",
					"type": "bool"
				}
			],
			"stateMutability": "view",
			"type": "function"
		},
		{
			"inputs": [
				{
					"internalType": "address",
					"name": "account",
					"type": "address"
				}
			],
			"name": "isFunddingCA",
			"outputs": [],
			"stateMutability": "nonpayable",
			"type": "function"
		},
		{
			"inputs": [
				{
					"internalType": "uint256",
					"name": "tokenId",
					"type": "uint256"
				}
			],
			"name": "isFunddingFalsed",
			"outputs": [],
			"stateMutability": "nonpayable",
			"type": "function"
		},
		{
			"inputs": [
				{
					"internalType": "uint256",
					"name": "tokenId",
					"type": "uint256"
				}
			],
			"name": "isFunddingSuccess",
			"outputs": [],
			"stateMutability": "nonpayable",
			"type": "function"
		},
		{
			"inputs": [
				{
					"internalType": "address",
					"name": "account",
					"type": "address"
				}
			],
			"name": "isSaleCA",
			"outputs": [],
			"stateMutability": "nonpayable",
			"type": "function"
		},
		{
			"inputs": [
				{
					"internalType": "address",
					"name": "saleCA",
					"type": "address"
				},
				{
					"internalType": "uint256",
					"name": "tokenId",
					"type": "uint256"
				},
				{
					"internalType": "uint256",
					"name": "amount",
					"type": "uint256"
				},
				{
					"internalType": "uint256",
					"name": "price",
					"type": "uint256"
				}
			],
			"name": "isSalesToken",
			"outputs": [],
			"stateMutability": "nonpayable",
			"type": "function"
		},
		{
			"inputs": [
				{
					"internalType": "uint256",
					"name": "tokenId",
					"type": "uint256"
				},
				{
					"internalType": "bool",
					"name": "governance",
					"type": "bool"
				}
			],
			"name": "isVoting",
			"outputs": [],
			"stateMutability": "nonpayable",
			"type": "function"
		},
		{
			"inputs": [
				{
					"internalType": "address",
					"name": "account",
					"type": "address"
				},
				{
					"internalType": "address",
					"name": "funddingTokenCA",
					"type": "address"
				},
				{
					"internalType": "uint256",
					"name": "tokenId",
					"type": "uint256"
				},
				{
					"internalType": "uint256",
					"name": "amount",
					"type": "uint256"
				},
				{
					"internalType": "uint256",
					"name": "totalPrice",
					"type": "uint256"
				},
				{
					"internalType": "uint256",
					"name": "getTime",
					"type": "uint256"
				},
				{
					"internalType": "string",
					"name": "metadata",
					"type": "string"
				}
			],
			"name": "mintFundding",
			"outputs": [],
			"stateMutability": "nonpayable",
			"type": "function"
		},
		{
			"inputs": [],
			"name": "owner",
			"outputs": [
				{
					"internalType": "address",
					"name": "",
					"type": "address"
				}
			],
			"stateMutability": "view",
			"type": "function"
		},
		{
			"inputs": [],
			"name": "renounceOwnership",
			"outputs": [],
			"stateMutability": "nonpayable",
			"type": "function"
		},
		{
			"inputs": [
				{
					"internalType": "address",
					"name": "from",
					"type": "address"
				},
				{
					"internalType": "address",
					"name": "to",
					"type": "address"
				},
				{
					"internalType": "uint256[]",
					"name": "ids",
					"type": "uint256[]"
				},
				{
					"internalType": "uint256[]",
					"name": "amounts",
					"type": "uint256[]"
				},
				{
					"internalType": "bytes",
					"name": "data",
					"type": "bytes"
				}
			],
			"name": "safeBatchTransferFrom",
			"outputs": [],
			"stateMutability": "nonpayable",
			"type": "function"
		},
		{
			"inputs": [
				{
					"internalType": "address",
					"name": "from",
					"type": "address"
				},
				{
					"internalType": "address",
					"name": "to",
					"type": "address"
				},
				{
					"internalType": "uint256",
					"name": "id",
					"type": "uint256"
				},
				{
					"internalType": "uint256",
					"name": "amount",
					"type": "uint256"
				},
				{
					"internalType": "bytes",
					"name": "data",
					"type": "bytes"
				}
			],
			"name": "safeTransferFrom",
			"outputs": [],
			"stateMutability": "nonpayable",
			"type": "function"
		},
		{
			"inputs": [
				{
					"internalType": "address",
					"name": "saleCA",
					"type": "address"
				}
			],
			"name": "saleApprovalFalse",
			"outputs": [],
			"stateMutability": "nonpayable",
			"type": "function"
		},
		{
			"inputs": [
				{
					"internalType": "address",
					"name": "operator",
					"type": "address"
				},
				{
					"internalType": "bool",
					"name": "approved",
					"type": "bool"
				}
			],
			"name": "setApprovalForAll",
			"outputs": [],
			"stateMutability": "nonpayable",
			"type": "function"
		},
		{
			"inputs": [
				{
					"internalType": "uint256",
					"name": "tokenId",
					"type": "uint256"
				},
				{
					"internalType": "uint256",
					"name": "date",
					"type": "uint256"
				}
			],
			"name": "startVoting",
			"outputs": [],
			"stateMutability": "nonpayable",
			"type": "function"
		},
		{
			"inputs": [
				{
					"internalType": "bytes4",
					"name": "interfaceId",
					"type": "bytes4"
				}
			],
			"name": "supportsInterface",
			"outputs": [
				{
					"internalType": "bool",
					"name": "",
					"type": "bool"
				}
			],
			"stateMutability": "view",
			"type": "function"
		},
		{
			"inputs": [
				{
					"internalType": "uint256",
					"name": "",
					"type": "uint256"
				}
			],
			"name": "tokenOwners",
			"outputs": [
				{
					"internalType": "address",
					"name": "Creater",
					"type": "address"
				},
				{
					"internalType": "uint256",
					"name": "NftAmount",
					"type": "uint256"
				},
				{
					"internalType": "uint256",
					"name": "TotalPrice",
					"type": "uint256"
				},
				{
					"internalType": "uint256",
					"name": "UnitPrice",
					"type": "uint256"
				},
				{
					"internalType": "uint256",
					"name": "EndTime",
					"type": "uint256"
				},
				{
					"internalType": "bool",
					"name": "isSuccess",
					"type": "bool"
				}
			],
			"stateMutability": "view",
			"type": "function"
		},
		{
			"inputs": [
				{
					"internalType": "uint256",
					"name": "tokenId",
					"type": "uint256"
				}
			],
			"name": "tokenURI",
			"outputs": [
				{
					"internalType": "string",
					"name": "",
					"type": "string"
				}
			],
			"stateMutability": "view",
			"type": "function"
		},
		{
			"inputs": [
				{
					"internalType": "address",
					"name": "newOwner",
					"type": "address"
				}
			],
			"name": "transferOwnership",
			"outputs": [],
			"stateMutability": "nonpayable",
			"type": "function"
		},
		{
			"inputs": [
				{
					"internalType": "uint256",
					"name": "",
					"type": "uint256"
				}
			],
			"name": "uri",
			"outputs": [
				{
					"internalType": "string",
					"name": "",
					"type": "string"
				}
			],
			"stateMutability": "view",
			"type": "function"
		},
		{
			"inputs": [
				{
					"internalType": "uint256",
					"name": "",
					"type": "uint256"
				},
				{
					"internalType": "uint256",
					"name": "",
					"type": "uint256"
				}
			],
			"name": "voting",
			"outputs": [
				{
					"internalType": "address",
					"name": "account",
					"type": "address"
				},
				{
					"internalType": "uint256",
					"name": "Amount",
					"type": "uint256"
				},
				{
					"internalType": "bool",
					"name": "result",
					"type": "bool"
				}
			],
			"stateMutability": "view",
			"type": "function"
		},
		{
			"inputs": [
				{
					"internalType": "uint256",
					"name": "",
					"type": "uint256"
				}
			],
			"name": "votingCount",
			"outputs": [
				{
					"internalType": "uint256",
					"name": "",
					"type": "uint256"
				}
			],
			"stateMutability": "view",
			"type": "function"
		},
		{
			"inputs": [
				{
					"internalType": "uint256",
					"name": "",
					"type": "uint256"
				}
			],
			"name": "votingDate",
			"outputs": [
				{
					"internalType": "uint256",
					"name": "",
					"type": "uint256"
				}
			],
			"stateMutability": "view",
			"type": "function"
		}
	]
}