{
	"data": {
		"bytecode": {
			"linkReferences": {},
			"object": "60806040523480156200001157600080fd5b5060405162005a6138038062005a6183398181016040528101906200003791906200020e565b604051806020016040528060008152506200005881620000c160201b60201c565b50620000796200006d620000d660201b60201c565b620000de60201b60201c565b80600860006101000a81548173ffffffffffffffffffffffffffffffffffffffff021916908373ffffffffffffffffffffffffffffffffffffffff16021790555050620005a1565b8060029081620000d29190620004ba565b5050565b600033905090565b6000600360009054906101000a900473ffffffffffffffffffffffffffffffffffffffff16905081600360006101000a81548173ffffffffffffffffffffffffffffffffffffffff021916908373ffffffffffffffffffffffffffffffffffffffff1602179055508173ffffffffffffffffffffffffffffffffffffffff168173ffffffffffffffffffffffffffffffffffffffff167f8be0079c531659141344cd1fd0a4f28419497f9722a3daafe3b4186f6b6457e060405160405180910390a35050565b600080fd5b600073ffffffffffffffffffffffffffffffffffffffff82169050919050565b6000620001d682620001a9565b9050919050565b620001e881620001c9565b8114620001f457600080fd5b50565b6000815190506200020881620001dd565b92915050565b600060208284031215620002275762000226620001a4565b5b60006200023784828501620001f7565b91505092915050565b600081519050919050565b7f4e487b7100000000000000000000000000000000000000000000000000000000600052604160045260246000fd5b7f4e487b7100000000000000000000000000000000000000000000000000000000600052602260045260246000fd5b60006002820490506001821680620002c257607f821691505b602082108103620002d857620002d76200027a565b5b50919050565b60008190508160005260206000209050919050565b60006020601f8301049050919050565b600082821b905092915050565b600060088302620003427fffffffffffffffffffffffffffffffffffffffffffffffffffffffffffffffff8262000303565b6200034e868362000303565b95508019841693508086168417925050509392505050565b6000819050919050565b6000819050919050565b60006200039b620003956200038f8462000366565b62000370565b62000366565b9050919050565b6000819050919050565b620003b7836200037a565b620003cf620003c682620003a2565b84845462000310565b825550505050565b600090565b620003e6620003d7565b620003f3818484620003ac565b505050565b5b818110156200041b576200040f600082620003dc565b600181019050620003f9565b5050565b601f8211156200046a576200043481620002de565b6200043f84620002f3565b810160208510156200044f578190505b620004676200045e85620002f3565b830182620003f8565b50505b505050565b600082821c905092915050565b60006200048f600019846008026200046f565b1980831691505092915050565b6000620004aa83836200047c565b9150826002028217905092915050565b620004c58262000240565b67ffffffffffffffff811115620004e157620004e06200024b565b5b620004ed8254620002a9565b620004fa8282856200041f565b600060209050601f8311600181146200053257600084156200051d578287015190505b6200052985826200049c565b86555062000599565b601f1984166200054286620002de565b60005b828110156200056c5784890151825560018201915060208501945060208101905062000545565b868310156200058c578489015162000588601f8916826200047c565b8355505b6001600288020188555050505b505050505050565b6154b080620005b16000396000f3fe6080604052600436106101b65760003560e01c80638d63193d116100ec578063d0ed81c91161008a578063f242432a11610064578063f242432a1461061c578063f2fde38b14610645578063f8a14f461461066e578063fac333ac146106b0576101b6565b8063d0ed81c914610579578063d8aadba3146105b6578063e985e9c5146105df576101b6565b8063a22cb465116100c6578063a22cb465146104c1578063a2f256ee146104ea578063ad216fb614610527578063c31f4b5814610550576101b6565b80638d63193d1461043d5780638da5cb5b1461047a5780638f148033146104a5576101b6565b80634b77f8d011610159578063715018a611610133578063715018a6146103a957806377379082146103c05780637abfee42146103e95780638497f29a14610414576101b6565b80634b77f8d01461031a5780634e1273f4146103435780636f0ea03814610380576101b6565b806319c5b89c1161019557806319c5b89c146102725780632eb2c2d61461029d578063325d20c4146102c6578063422b71d7146102f1576101b6565b8062fdd58e146101bb57806301ffc9a7146101f85780630e89341c14610235575b600080fd5b3480156101c757600080fd5b506101e260048036038101906101dd91906132bf565b6106ed565b6040516101ef919061330e565b60405180910390f35b34801561020457600080fd5b5061021f600480360381019061021a9190613381565b610701565b60405161022c91906133c9565b60405180910390f35b34801561024157600080fd5b5061025c600480360381019061025791906133e4565b6107e3565b60405161026991906134a1565b60405180910390f35b34801561027e57600080fd5b50610287610877565b6040516102949190613522565b60405180910390f35b3480156102a957600080fd5b506102c460048036038101906102bf919061373a565b61089d565b005b3480156102d257600080fd5b506102db61093e565b6040516102e8919061382a565b60405180910390f35b3480156102fd57600080fd5b50610318600480360381019061031391906133e4565b610964565b005b34801561032657600080fd5b50610341600480360381019061033c9190613845565b610aac565b005b34801561034f57600080fd5b5061036a60048036038101906103659190613935565b610aba565b6040516103779190613a6b565b60405180910390f35b34801561038c57600080fd5b506103a760048036038101906103a29190613a8d565b610bd3565b005b3480156103b557600080fd5b506103be610e24565b005b3480156103cc57600080fd5b506103e760048036038101906103e29190613b1a565b610e38565b005b3480156103f557600080fd5b506103fe610ea2565b60405161040b9190613a6b565b60405180910390f35b34801561042057600080fd5b5061043b60048036038101906104369190613845565b610efa565b005b34801561044957600080fd5b50610464600480360381019061045f91906133e4565b610f08565b6040516104719190613c06565b60405180910390f35b34801561048657600080fd5b5061048f610fce565b60405161049c9190613c30565b60405180910390f35b6104bf60048036038101906104ba9190613c89565b610ff8565b005b3480156104cd57600080fd5b506104e860048036038101906104e39190613d1c565b611303565b005b3480156104f657600080fd5b50610511600480360381019061050c91906133e4565b611319565b60405161051e919061330e565b60405180910390f35b34801561053357600080fd5b5061054e60048036038101906105499190613845565b611336565b005b34801561055c57600080fd5b50610577600480360381019061057291906133e4565b611429565b005b34801561058557600080fd5b506105a0600480360381019061059b9190613d5c565b61159a565b6040516105ad9190613df1565b60405180910390f35b3480156105c257600080fd5b506105dd60048036038101906105d89190613e0c565b61164d565b005b3480156105eb57600080fd5b5061060660048036038101906106019190613e5f565b611bc2565b60405161061391906133c9565b60405180910390f35b34801561062857600080fd5b50610643600480360381019061063e9190613e9f565b611c56565b005b34801561065157600080fd5b5061066c60048036038101906106679190613845565b611cf7565b005b34801561067a57600080fd5b50610695600480360381019061069091906133e4565b611d7a565b6040516106a796959493929190613f36565b60405180910390f35b3480156106bc57600080fd5b506106d760048036038101906106d291906133e4565b611de3565b6040516106e4919061330e565b60405180910390f35b60006106f98383611e07565b905092915050565b60007fd9b67a26000000000000000000000000000000000000000000000000000000007bffffffffffffffffffffffffffffffffffffffffffffffffffffffff1916827bffffffffffffffffffffffffffffffffffffffffffffffffffffffff191614806107cc57507f0e89341c000000000000000000000000000000000000000000000000000000007bffffffffffffffffffffffffffffffffffffffffffffffffffffffff1916827bffffffffffffffffffffffffffffffffffffffffffffffffffffffff1916145b806107dc57506107db82611ecf565b5b9050919050565b6060600280546107f290613fc6565b80601f016020809104026020016040519081016040528092919081815260200182805461081e90613fc6565b801561086b5780601f106108405761010080835404028352916020019161086b565b820191906000526020600020905b81548152906001019060200180831161084e57829003601f168201915b50505050509050919050565b600860009054906101000a900473ffffffffffffffffffffffffffffffffffffffff1681565b6108a5611f39565b73ffffffffffffffffffffffffffffffffffffffff168573ffffffffffffffffffffffffffffffffffffffff1614806108eb57506108ea856108e5611f39565b611bc2565b5b61092a576040517f08c379a000000000000000000000000000000000000000000000000000000000815260040161092190614069565b60405180910390fd5b6109378585858585611f41565b5050505050565b600660009054906101000a900473ffffffffffffffffffffffffffffffffffffffff1681565b60006009600083815260200190815260200160002054905060005b818111610a6e573373ffffffffffffffffffffffffffffffffffffffff16600a6000858152602001908152602001600020600083815260200190815260200160002060000160009054906101000a900473ffffffffffffffffffffffffffffffffffffffff1673ffffffffffffffffffffffffffffffffffffffff1603610a5b576000600a60008581526020019081526020016000206000838152602001908152602001600020600101819055506000600a60008581526020019081526020016000206000838152602001908152602001600020600201819055505b8080610a66906140b8565b91505061097f565b507fb37fa1584b5a559c3935a3e74265f473fc90b084d550e9b389c91be5a69fcfa93383604051610aa0929190614100565b60405180910390a15050565b610ab7816000611303565b50565b60608151835114610b00576040517f08c379a0000000000000000000000000000000000000000000000000000000008152600401610af79061419b565b60405180910390fd5b6000835167ffffffffffffffff811115610b1d57610b1c613542565b5b604051908082528060200260200182016040528015610b4b5781602001602082028036833780820191505090505b50905060005b8451811015610bc857610b98858281518110610b7057610b6f6141bb565b5b6020026020010151858381518110610b8b57610b8a6141bb565b5b60200260200101516106ed565b828281518110610bab57610baa6141bb565b5b60200260200101818152505080610bc1906140b8565b9050610b51565b508091505092915050565b6000600760008681526020019081526020016000206001015414610c2c576040517f08c379a0000000000000000000000000000000000000000000000000000000008152600401610c2390614236565b60405180910390fd5b3373ffffffffffffffffffffffffffffffffffffffff168673ffffffffffffffffffffffffffffffffffffffff1614610c9a576040517f08c379a0000000000000000000000000000000000000000000000000000000008152600401610c91906142a2565b60405180910390fd5b60006040518060400160405280601381526020017f66756e6464696e6720697320736563636573730000000000000000000000000081525090506000610ce288868686612262565b9050806007600088815260200190815260200160002060008201518160000160006101000a81548173ffffffffffffffffffffffffffffffffffffffff021916908373ffffffffffffffffffffffffffffffffffffffff1602179055506020820151816001015560408201518160020155606082015181600301556080820151816004015560a08201518160050160006101000a81548160ff021916908315150217905550905050610da58887876040518060200160405280600081525061233e565b610db0876001611303565b60048690806001815401808255809150506001900390600052602060002001600090919091909150557f8bdc0347739a882305e00b5fa613e8629b5da77a48abac45661315c45619c548338787878787604051610e12969594939291906142c2565b60405180910390a15050505050505050565b610e2c6124ee565b610e36600061256c565b565b600560009054906101000a900473ffffffffffffffffffffffffffffffffffffffff1673ffffffffffffffffffffffffffffffffffffffff163373ffffffffffffffffffffffffffffffffffffffff1614610e9257600080fd5b610e9d838383612632565b505050565b60606004805480602002602001604051908101604052809291908181526020018280548015610ef057602002820191906000526020600020905b815481526020019060010190808311610edc575b5050505050905090565b610f05816001611303565b50565b610f1061318b565b600760008381526020019081526020016000206040518060c00160405290816000820160009054906101000a900473ffffffffffffffffffffffffffffffffffffffff1673ffffffffffffffffffffffffffffffffffffffff1673ffffffffffffffffffffffffffffffffffffffff168152602001600182015481526020016002820154815260200160038201548152602001600482015481526020016005820160009054906101000a900460ff1615151515815250509050919050565b6000600360009054906101000a900473ffffffffffffffffffffffffffffffffffffffff16905090565b3373ffffffffffffffffffffffffffffffffffffffff16600a6000858152602001908152602001600020600083815260200190815260200160002060000160009054906101000a900473ffffffffffffffffffffffffffffffffffffffff1673ffffffffffffffffffffffffffffffffffffffff16036110ad576040517f08c379a00000000000000000000000000000000000000000000000000000000081526004016110a490614376565b60405180910390fd5b6000821180156110e45750600a60008481526020019081526020016000206000828152602001908152602001600020600101548211155b611123576040517f08c379a000000000000000000000000000000000000000000000000000000000815260040161111a906143e2565b60405180910390fd5b34600a6000858152602001908152602001600020600083815260200190815260200160002060020154836111579190614402565b14611197576040517f08c379a000000000000000000000000000000000000000000000000000000000815260040161118e90614490565b60405180910390fd5b60006111b76111b0600a3461287890919063ffffffff16565b606461288e565b90508473ffffffffffffffffffffffffffffffffffffffff166108fc82346111df91906144b0565b9081150290604051600060405180830381858888f1935050505015801561120a573d6000803e3d6000fd5b5082600a600086815260200190815260200160002060008481526020019081526020016000206001015461123e91906144b0565b600a6000868152602001908152602001600020600084815260200190815260200160002060010181905550600860009054906101000a900473ffffffffffffffffffffffffffffffffffffffff1673ffffffffffffffffffffffffffffffffffffffff1663f242432a863387876040518563ffffffff1660e01b81526004016112ca949392919061453c565b600060405180830381600087803b1580156112e457600080fd5b505af11580156112f8573d6000803e3d6000fd5b505050505050505050565b61131561130e611f39565b83836128a4565b5050565b600060096000838152602001908152602001600020549050919050565b3373ffffffffffffffffffffffffffffffffffffffff168173ffffffffffffffffffffffffffffffffffffffff16146113a4576040517f08c379a000000000000000000000000000000000000000000000000000000000815260040161139b906145e0565b60405180910390fd5b80600560006101000a81548173ffffffffffffffffffffffffffffffffffffffff021916908373ffffffffffffffffffffffffffffffffffffffff16021790555080600660006101000a81548173ffffffffffffffffffffffffffffffffffffffff021916908373ffffffffffffffffffffffffffffffffffffffff16021790555050565b600061146b6007600084815260200190815260200160002060000160009054906101000a900473ffffffffffffffffffffffffffffffffffffffff1683611e07565b146114ab576040517f08c379a00000000000000000000000000000000000000000000000000000000081526004016114a29061464c565b60405180910390fd5b6007600082815260200190815260200160002060010154600660009054906101000a900473ffffffffffffffffffffffffffffffffffffffff1673ffffffffffffffffffffffffffffffffffffffff166349e5465c836040518263ffffffff1660e01b815260040161151d919061330e565b602060405180830381865afa15801561153a573d6000803e3d6000fd5b505050506040513d601f19601f8201168201806040525081019061155e9190614681565b1461156857600080fd5b60016007600083815260200190815260200160002060050160006101000a81548160ff02191690831515021790555050565b6115a26131d9565b600a600084815260200190815260200160002060008381526020019081526020016000206040518060800160405290816000820160009054906101000a900473ffffffffffffffffffffffffffffffffffffffff1673ffffffffffffffffffffffffffffffffffffffff1673ffffffffffffffffffffffffffffffffffffffff1681526020016001820154815260200160028201548152602001600382015481525050905092915050565b8260006009600083815260200190815260200160002054905060005b81811161176d576000600a60008581526020019081526020016000206000838152602001908152602001600020600101541415801561171a57503373ffffffffffffffffffffffffffffffffffffffff16600a6000858152602001908152602001600020600083815260200190815260200160002060000160009054906101000a900473ffffffffffffffffffffffffffffffffffffffff1673ffffffffffffffffffffffffffffffffffffffff16145b1561175a576040517f08c379a0000000000000000000000000000000000000000000000000000000008152600401611751906146fa565b60405180910390fd5b8080611765906140b8565b915050611669565b5083600860009054906101000a900473ffffffffffffffffffffffffffffffffffffffff1673ffffffffffffffffffffffffffffffffffffffff1662fdd58e33886040518363ffffffff1660e01b81526004016117cb929190614100565b602060405180830381865afa1580156117e8573d6000803e3d6000fd5b505050506040513d601f19601f8201168201806040525081019061180c9190614681565b101561184d576040517f08c379a000000000000000000000000000000000000000000000000000000000815260040161184490614766565b60405180910390fd5b60008311611890576040517f08c379a0000000000000000000000000000000000000000000000000000000008152600401611887906147d2565b60405180910390fd5b600084116118d3576040517f08c379a00000000000000000000000000000000000000000000000000000000081526004016118ca9061483e565b60405180910390fd5b600860009054906101000a900473ffffffffffffffffffffffffffffffffffffffff1673ffffffffffffffffffffffffffffffffffffffff1663e985e9c533306040518363ffffffff1660e01b815260040161193092919061485e565b602060405180830381865afa15801561194d573d6000803e3d6000fd5b505050506040513d601f19601f82011682018060405250810190611971919061489c565b6119b0576040517f08c379a00000000000000000000000000000000000000000000000000000000081526004016119a790614915565b60405180910390fd5b60011515600860009054906101000a900473ffffffffffffffffffffffffffffffffffffffff1673ffffffffffffffffffffffffffffffffffffffff16638d63193d876040518263ffffffff1660e01b8152600401611a0f919061330e565b60c060405180830381865afa158015611a2c573d6000803e3d6000fd5b505050506040513d601f19601f82011682018060405250810190611a5091906149ef565b60a00151151514611a96576040517f08c379a0000000000000000000000000000000000000000000000000000000008152600401611a8d90614a68565b60405180910390fd5b6000611aa433878787612a10565b905080600a60008881526020019081526020016000206000600960008a815260200190815260200160002054815260200190815260200160002060008201518160000160006101000a81548173ffffffffffffffffffffffffffffffffffffffff021916908373ffffffffffffffffffffffffffffffffffffffff16021790555060208201518160010155604082015181600201556060820151816003015590505060016009600088815260200190815260200160002054611b669190614a88565b60096000888152602001908152602001600020819055507ffd993c5a8b6fac3440f45a4aa08e8d39fc18d59f8d66435d7c2d108508035db433878787604051611bb29493929190614abc565b60405180910390a1505050505050565b6000600160008473ffffffffffffffffffffffffffffffffffffffff1673ffffffffffffffffffffffffffffffffffffffff16815260200190815260200160002060008373ffffffffffffffffffffffffffffffffffffffff1673ffffffffffffffffffffffffffffffffffffffff16815260200190815260200160002060009054906101000a900460ff16905092915050565b611c5e611f39565b73ffffffffffffffffffffffffffffffffffffffff168573ffffffffffffffffffffffffffffffffffffffff161480611ca45750611ca385611c9e611f39565b611bc2565b5b611ce3576040517f08c379a0000000000000000000000000000000000000000000000000000000008152600401611cda90614069565b60405180910390fd5b611cf08585858585612a95565b5050505050565b611cff6124ee565b600073ffffffffffffffffffffffffffffffffffffffff168173ffffffffffffffffffffffffffffffffffffffff1603611d6e576040517f08c379a0000000000000000000000000000000000000000000000000000000008152600401611d6590614b73565b60405180910390fd5b611d778161256c565b50565b60076020528060005260406000206000915090508060000160009054906101000a900473ffffffffffffffffffffffffffffffffffffffff16908060010154908060020154908060030154908060040154908060050160009054906101000a900460ff16905086565b60048181548110611df357600080fd5b906000526020600020016000915090505481565b60008073ffffffffffffffffffffffffffffffffffffffff168373ffffffffffffffffffffffffffffffffffffffff1603611e77576040517f08c379a0000000000000000000000000000000000000000000000000000000008152600401611e6e90614c05565b60405180910390fd5b60008083815260200190815260200160002060008473ffffffffffffffffffffffffffffffffffffffff1673ffffffffffffffffffffffffffffffffffffffff16815260200190815260200160002054905092915050565b60007f01ffc9a7000000000000000000000000000000000000000000000000000000007bffffffffffffffffffffffffffffffffffffffffffffffffffffffff1916827bffffffffffffffffffffffffffffffffffffffffffffffffffffffff1916149050919050565b600033905090565b8151835114611f85576040517f08c379a0000000000000000000000000000000000000000000000000000000008152600401611f7c90614c97565b60405180910390fd5b600073ffffffffffffffffffffffffffffffffffffffff168473ffffffffffffffffffffffffffffffffffffffff1603611ff4576040517f08c379a0000000000000000000000000000000000000000000000000000000008152600401611feb90614d29565b60405180910390fd5b6000611ffe611f39565b905061200e818787878787612d30565b60005b84518110156121bf57600085828151811061202f5761202e6141bb565b5b60200260200101519050600085838151811061204e5761204d6141bb565b5b60200260200101519050600080600084815260200190815260200160002060008b73ffffffffffffffffffffffffffffffffffffffff1673ffffffffffffffffffffffffffffffffffffffff168152602001908152602001600020549050818110156120ef576040517f08c379a00000000000000000000000000000000000000000000000000000000081526004016120e690614dbb565b60405180910390fd5b81810360008085815260200190815260200160002060008c73ffffffffffffffffffffffffffffffffffffffff1673ffffffffffffffffffffffffffffffffffffffff168152602001908152602001600020819055508160008085815260200190815260200160002060008b73ffffffffffffffffffffffffffffffffffffffff1673ffffffffffffffffffffffffffffffffffffffff16815260200190815260200160002060008282546121a49190614a88565b92505081905550505050806121b8906140b8565b9050612011565b508473ffffffffffffffffffffffffffffffffffffffff168673ffffffffffffffffffffffffffffffffffffffff168273ffffffffffffffffffffffffffffffffffffffff167f4a39dc06d4c0dbc64b70af90fd698a233a518aa5d07e595d983b8c0526c8f7fb8787604051612236929190614ddb565b60405180910390a461224c818787878787612d38565b61225a818787878787612d40565b505050505050565b61226a61318b565b61227261318b565b600085670de0b6b3a7640000866122899190614402565b6122939190614e41565b905086826000019073ffffffffffffffffffffffffffffffffffffffff16908173ffffffffffffffffffffffffffffffffffffffff168152505085826020018181525050670de0b6b3a7640000856122eb9190614402565b82604001818152505080826060018181525050836121c061230c9190614402565b426123179190614a88565b82608001818152505060008260a00190151590811515815250508192505050949350505050565b600073ffffffffffffffffffffffffffffffffffffffff168473ffffffffffffffffffffffffffffffffffffffff16036123ad576040517f08c379a00000000000000000000000000000000000000000000000000000000081526004016123a490614ee4565b60405180910390fd5b60006123b7611f39565b905060006123c485612f17565b905060006123d185612f17565b90506123e283600089858589612d30565b8460008088815260200190815260200160002060008973ffffffffffffffffffffffffffffffffffffffff1673ffffffffffffffffffffffffffffffffffffffff16815260200190815260200160002060008282546124419190614a88565b925050819055508673ffffffffffffffffffffffffffffffffffffffff16600073ffffffffffffffffffffffffffffffffffffffff168473ffffffffffffffffffffffffffffffffffffffff167fc3d58168c5ae7397731d063d5bbf3d657854427343f4c083240f7aacaa2d0f6289896040516124bf929190614f04565b60405180910390a46124d683600089858589612d38565b6124e583600089898989612f91565b50505050505050565b6124f6611f39565b73ffffffffffffffffffffffffffffffffffffffff16612514610fce565b73ffffffffffffffffffffffffffffffffffffffff161461256a576040517f08c379a000000000000000000000000000000000000000000000000000000000815260040161256190614f79565b60405180910390fd5b565b6000600360009054906101000a900473ffffffffffffffffffffffffffffffffffffffff16905081600360006101000a81548173ffffffffffffffffffffffffffffffffffffffff021916908373ffffffffffffffffffffffffffffffffffffffff1602179055508173ffffffffffffffffffffffffffffffffffffffff168173ffffffffffffffffffffffffffffffffffffffff167f8be0079c531659141344cd1fd0a4f28419497f9722a3daafe3b4186f6b6457e060405160405180910390a35050565b600073ffffffffffffffffffffffffffffffffffffffff168373ffffffffffffffffffffffffffffffffffffffff16036126a1576040517f08c379a00000000000000000000000000000000000000000000000000000000081526004016126989061500b565b60405180910390fd5b60006126ab611f39565b905060006126b884612f17565b905060006126c584612f17565b90506126e583876000858560405180602001604052806000815250612d30565b600080600087815260200190815260200160002060008873ffffffffffffffffffffffffffffffffffffffff1673ffffffffffffffffffffffffffffffffffffffff1681526020019081526020016000205490508481101561277c576040517f08c379a00000000000000000000000000000000000000000000000000000000081526004016127739061509d565b60405180910390fd5b84810360008088815260200190815260200160002060008973ffffffffffffffffffffffffffffffffffffffff1673ffffffffffffffffffffffffffffffffffffffff16815260200190815260200160002081905550600073ffffffffffffffffffffffffffffffffffffffff168773ffffffffffffffffffffffffffffffffffffffff168573ffffffffffffffffffffffffffffffffffffffff167fc3d58168c5ae7397731d063d5bbf3d657854427343f4c083240f7aacaa2d0f628989604051612849929190614f04565b60405180910390a461286f84886000868660405180602001604052806000815250612d38565b50505050505050565b600081836128869190614402565b905092915050565b6000818361289c9190614e41565b905092915050565b8173ffffffffffffffffffffffffffffffffffffffff168373ffffffffffffffffffffffffffffffffffffffff1603612912576040517f08c379a00000000000000000000000000000000000000000000000000000000081526004016129099061512f565b60405180910390fd5b80600160008573ffffffffffffffffffffffffffffffffffffffff1673ffffffffffffffffffffffffffffffffffffffff16815260200190815260200160002060008473ffffffffffffffffffffffffffffffffffffffff1673ffffffffffffffffffffffffffffffffffffffff16815260200190815260200160002060006101000a81548160ff0219169083151502179055508173ffffffffffffffffffffffffffffffffffffffff168373ffffffffffffffffffffffffffffffffffffffff167f17307eab39ab6107e8899845ad3d59bd9653f200f220920489ca2b5937696c3183604051612a0391906133c9565b60405180910390a3505050565b612a186131d9565b612a206131d9565b85816000019073ffffffffffffffffffffffffffffffffffffffff16908173ffffffffffffffffffffffffffffffffffffffff16815250508381602001818152505082816040018181525050600960008681526020019081526020016000205481606001818152505080915050949350505050565b600073ffffffffffffffffffffffffffffffffffffffff168473ffffffffffffffffffffffffffffffffffffffff1603612b04576040517f08c379a0000000000000000000000000000000000000000000000000000000008152600401612afb90614d29565b60405180910390fd5b6000612b0e611f39565b90506000612b1b85612f17565b90506000612b2885612f17565b9050612b38838989858589612d30565b600080600088815260200190815260200160002060008a73ffffffffffffffffffffffffffffffffffffffff1673ffffffffffffffffffffffffffffffffffffffff16815260200190815260200160002054905085811015612bcf576040517f08c379a0000000000000000000000000000000000000000000000000000000008152600401612bc690614dbb565b60405180910390fd5b85810360008089815260200190815260200160002060008b73ffffffffffffffffffffffffffffffffffffffff1673ffffffffffffffffffffffffffffffffffffffff168152602001908152602001600020819055508560008089815260200190815260200160002060008a73ffffffffffffffffffffffffffffffffffffffff1673ffffffffffffffffffffffffffffffffffffffff1681526020019081526020016000206000828254612c849190614a88565b925050819055508773ffffffffffffffffffffffffffffffffffffffff168973ffffffffffffffffffffffffffffffffffffffff168573ffffffffffffffffffffffffffffffffffffffff167fc3d58168c5ae7397731d063d5bbf3d657854427343f4c083240f7aacaa2d0f628a8a604051612d01929190614f04565b60405180910390a4612d17848a8a86868a612d38565b612d25848a8a8a8a8a612f91565b505050505050505050565b505050505050565b505050505050565b612d5f8473ffffffffffffffffffffffffffffffffffffffff16613168565b15612f0f578373ffffffffffffffffffffffffffffffffffffffff1663bc197c8187878686866040518663ffffffff1660e01b8152600401612da5959493929190615193565b6020604051808303816000875af1925050508015612de157506040513d601f19601f82011682018060405250810190612dde9190615210565b60015b612e8657612ded61524a565b806308c379a003612e495750612e0161526c565b80612e0c5750612e4b565b806040517f08c379a0000000000000000000000000000000000000000000000000000000008152600401612e4091906134a1565b60405180910390fd5b505b6040517f08c379a0000000000000000000000000000000000000000000000000000000008152600401612e7d9061536e565b60405180910390fd5b63bc197c8160e01b7bffffffffffffffffffffffffffffffffffffffffffffffffffffffff1916817bffffffffffffffffffffffffffffffffffffffffffffffffffffffff191614612f0d576040517f08c379a0000000000000000000000000000000000000000000000000000000008152600401612f0490615400565b60405180910390fd5b505b505050505050565b60606000600167ffffffffffffffff811115612f3657612f35613542565b5b604051908082528060200260200182016040528015612f645781602001602082028036833780820191505090505b5090508281600081518110612f7c57612f7b6141bb565b5b60200260200101818152505080915050919050565b612fb08473ffffffffffffffffffffffffffffffffffffffff16613168565b15613160578373ffffffffffffffffffffffffffffffffffffffff1663f23a6e6187878686866040518663ffffffff1660e01b8152600401612ff6959493929190615420565b6020604051808303816000875af192505050801561303257506040513d601f19601f8201168201806040525081019061302f9190615210565b60015b6130d75761303e61524a565b806308c379a00361309a575061305261526c565b8061305d575061309c565b806040517f08c379a000000000000000000000000000000000000000000000000000000000815260040161309191906134a1565b60405180910390fd5b505b6040517f08c379a00000000000000000000000000000000000000000000000000000000081526004016130ce9061536e565b60405180910390fd5b63f23a6e6160e01b7bffffffffffffffffffffffffffffffffffffffffffffffffffffffff1916817bffffffffffffffffffffffffffffffffffffffffffffffffffffffff19161461315e576040517f08c379a000000000000000000000000000000000000000000000000000000000815260040161315590615400565b60405180910390fd5b505b505050505050565b6000808273ffffffffffffffffffffffffffffffffffffffff163b119050919050565b6040518060c00160405280600073ffffffffffffffffffffffffffffffffffffffff168152602001600081526020016000815260200160008152602001600081526020016000151581525090565b6040518060800160405280600073ffffffffffffffffffffffffffffffffffffffff1681526020016000815260200160008152602001600081525090565b6000604051905090565b600080fd5b600080fd5b600073ffffffffffffffffffffffffffffffffffffffff82169050919050565b60006132568261322b565b9050919050565b6132668161324b565b811461327157600080fd5b50565b6000813590506132838161325d565b92915050565b6000819050919050565b61329c81613289565b81146132a757600080fd5b50565b6000813590506132b981613293565b92915050565b600080604083850312156132d6576132d5613221565b5b60006132e485828601613274565b92505060206132f5858286016132aa565b9150509250929050565b61330881613289565b82525050565b600060208201905061332360008301846132ff565b92915050565b60007fffffffff0000000000000000000000000000000000000000000000000000000082169050919050565b61335e81613329565b811461336957600080fd5b50565b60008135905061337b81613355565b92915050565b60006020828403121561339757613396613221565b5b60006133a58482850161336c565b91505092915050565b60008115159050919050565b6133c3816133ae565b82525050565b60006020820190506133de60008301846133ba565b92915050565b6000602082840312156133fa576133f9613221565b5b6000613408848285016132aa565b91505092915050565b600081519050919050565b600082825260208201905092915050565b60005b8381101561344b578082015181840152602081019050613430565b60008484015250505050565b6000601f19601f8301169050919050565b600061347382613411565b61347d818561341c565b935061348d81856020860161342d565b61349681613457565b840191505092915050565b600060208201905081810360008301526134bb8184613468565b905092915050565b6000819050919050565b60006134e86134e36134de8461322b565b6134c3565b61322b565b9050919050565b60006134fa826134cd565b9050919050565b600061350c826134ef565b9050919050565b61351c81613501565b82525050565b60006020820190506135376000830184613513565b92915050565b600080fd5b7f4e487b7100000000000000000000000000000000000000000000000000000000600052604160045260246000fd5b61357a82613457565b810181811067ffffffffffffffff8211171561359957613598613542565b5b80604052505050565b60006135ac613217565b90506135b88282613571565b919050565b600067ffffffffffffffff8211156135d8576135d7613542565b5b602082029050602081019050919050565b600080fd5b60006136016135fc846135bd565b6135a2565b90508083825260208201905060208402830185811115613624576136236135e9565b5b835b8181101561364d578061363988826132aa565b845260208401935050602081019050613626565b5050509392505050565b600082601f83011261366c5761366b61353d565b5b813561367c8482602086016135ee565b91505092915050565b600080fd5b600067ffffffffffffffff8211156136a5576136a4613542565b5b6136ae82613457565b9050602081019050919050565b82818337600083830152505050565b60006136dd6136d88461368a565b6135a2565b9050828152602081018484840111156136f9576136f8613685565b5b6137048482856136bb565b509392505050565b600082601f8301126137215761372061353d565b5b81356137318482602086016136ca565b91505092915050565b600080600080600060a0868803121561375657613755613221565b5b600061376488828901613274565b955050602061377588828901613274565b945050604086013567ffffffffffffffff81111561379657613795613226565b5b6137a288828901613657565b935050606086013567ffffffffffffffff8111156137c3576137c2613226565b5b6137cf88828901613657565b925050608086013567ffffffffffffffff8111156137f0576137ef613226565b5b6137fc8882890161370c565b9150509295509295909350565b6000613814826134ef565b9050919050565b61382481613809565b82525050565b600060208201905061383f600083018461381b565b92915050565b60006020828403121561385b5761385a613221565b5b600061386984828501613274565b91505092915050565b600067ffffffffffffffff82111561388d5761388c613542565b5b602082029050602081019050919050565b60006138b16138ac84613872565b6135a2565b905080838252602082019050602084028301858111156138d4576138d36135e9565b5b835b818110156138fd57806138e98882613274565b8452602084019350506020810190506138d6565b5050509392505050565b600082601f83011261391c5761391b61353d565b5b813561392c84826020860161389e565b91505092915050565b6000806040838503121561394c5761394b613221565b5b600083013567ffffffffffffffff81111561396a57613969613226565b5b61397685828601613907565b925050602083013567ffffffffffffffff81111561399757613996613226565b5b6139a385828601613657565b9150509250929050565b600081519050919050565b600082825260208201905092915050565b6000819050602082019050919050565b6139e281613289565b82525050565b60006139f483836139d9565b60208301905092915050565b6000602082019050919050565b6000613a18826139ad565b613a2281856139b8565b9350613a2d836139c9565b8060005b83811015613a5e578151613a4588826139e8565b9750613a5083613a00565b925050600181019050613a31565b5085935050505092915050565b60006020820190508181036000830152613a858184613a0d565b905092915050565b60008060008060008060c08789031215613aaa57613aa9613221565b5b6000613ab889828a01613274565b9650506020613ac989828a01613274565b9550506040613ada89828a016132aa565b9450506060613aeb89828a016132aa565b9350506080613afc89828a016132aa565b92505060a0613b0d89828a016132aa565b9150509295509295509295565b600080600060608486031215613b3357613b32613221565b5b6000613b4186828701613274565b9350506020613b52868287016132aa565b9250506040613b63868287016132aa565b9150509250925092565b613b768161324b565b82525050565b613b85816133ae565b82525050565b60c082016000820151613ba16000850182613b6d565b506020820151613bb460208501826139d9565b506040820151613bc760408501826139d9565b506060820151613bda60608501826139d9565b506080820151613bed60808501826139d9565b5060a0820151613c0060a0850182613b7c565b50505050565b600060c082019050613c1b6000830184613b8b565b92915050565b613c2a8161324b565b82525050565b6000602082019050613c456000830184613c21565b92915050565b6000613c568261322b565b9050919050565b613c6681613c4b565b8114613c7157600080fd5b50565b600081359050613c8381613c5d565b92915050565b60008060008060808587031215613ca357613ca2613221565b5b6000613cb187828801613c74565b9450506020613cc2878288016132aa565b9350506040613cd3878288016132aa565b9250506060613ce4878288016132aa565b91505092959194509250565b613cf9816133ae565b8114613d0457600080fd5b50565b600081359050613d1681613cf0565b92915050565b60008060408385031215613d3357613d32613221565b5b6000613d4185828601613274565b9250506020613d5285828601613d07565b9150509250929050565b60008060408385031215613d7357613d72613221565b5b6000613d81858286016132aa565b9250506020613d92858286016132aa565b9150509250929050565b608082016000820151613db26000850182613b6d565b506020820151613dc560208501826139d9565b506040820151613dd860408501826139d9565b506060820151613deb60608501826139d9565b50505050565b6000608082019050613e066000830184613d9c565b92915050565b600080600060608486031215613e2557613e24613221565b5b6000613e33868287016132aa565b9350506020613e44868287016132aa565b9250506040613e55868287016132aa565b9150509250925092565b60008060408385031215613e7657613e75613221565b5b6000613e8485828601613274565b9250506020613e9585828601613274565b9150509250929050565b600080600080600060a08688031215613ebb57613eba613221565b5b6000613ec988828901613274565b9550506020613eda88828901613274565b9450506040613eeb888289016132aa565b9350506060613efc888289016132aa565b925050608086013567ffffffffffffffff811115613f1d57613f1c613226565b5b613f298882890161370c565b9150509295509295909350565b600060c082019050613f4b6000830189613c21565b613f5860208301886132ff565b613f6560408301876132ff565b613f7260608301866132ff565b613f7f60808301856132ff565b613f8c60a08301846133ba565b979650505050505050565b7f4e487b7100000000000000000000000000000000000000000000000000000000600052602260045260246000fd5b60006002820490506001821680613fde57607f821691505b602082108103613ff157613ff0613f97565b5b50919050565b7f455243313135353a2063616c6c6572206973206e6f7420746f6b656e206f776e60008201527f6572206f7220617070726f766564000000000000000000000000000000000000602082015250565b6000614053602e8361341c565b915061405e82613ff7565b604082019050919050565b6000602082019050818103600083015261408281614046565b9050919050565b7f4e487b7100000000000000000000000000000000000000000000000000000000600052601160045260246000fd5b60006140c382613289565b91507fffffffffffffffffffffffffffffffffffffffffffffffffffffffffffffffff82036140f5576140f4614089565b5b600182019050919050565b60006040820190506141156000830185613c21565b61412260208301846132ff565b9392505050565b7f455243313135353a206163636f756e747320616e6420696473206c656e67746860008201527f206d69736d617463680000000000000000000000000000000000000000000000602082015250565b600061418560298361341c565b915061419082614129565b604082019050919050565b600060208201905081810360008301526141b481614178565b9050919050565b7f4e487b7100000000000000000000000000000000000000000000000000000000600052603260045260246000fd5b7f6861766520616c7265616479206265656e206973737565640000000000000000600082015250565b600061422060188361341c565b915061422b826141ea565b602082019050919050565b6000602082019050818103600083015261424f81614213565b9050919050565b7f49742773206e6f7420796f752e00000000000000000000000000000000000000600082015250565b600061428c600d8361341c565b915061429782614256565b602082019050919050565b600060208201905081810360008301526142bb8161427f565b9050919050565b600060c0820190506142d76000830189613c21565b6142e460208301886132ff565b6142f160408301876132ff565b6142fe60608301866132ff565b61430b60808301856132ff565b81810360a083015261431d8184613468565b9050979650505050505050565b7f492063616e277420627579206d7973656c662e00000000000000000000000000600082015250565b600061436060138361341c565b915061436b8261432a565b602082019050919050565b6000602082019050818103600083015261438f81614353565b9050919050565b7f436865636b20616d6f756e740000000000000000000000000000000000000000600082015250565b60006143cc600c8361341c565b91506143d782614396565b602082019050919050565b600060208201905081810360008301526143fb816143bf565b9050919050565b600061440d82613289565b915061441883613289565b925082820261442681613289565b9150828204841483151761443d5761443c614089565b5b5092915050565b7f436865636b20746865206d6f6e657920616761696e2e00000000000000000000600082015250565b600061447a60168361341c565b915061448582614444565b602082019050919050565b600060208201905081810360008301526144a98161446d565b9050919050565b60006144bb82613289565b91506144c683613289565b92508282039050818111156144de576144dd614089565b5b92915050565b60006144ef826134ef565b9050919050565b6144ff816144e4565b82525050565b600082825260208201905092915050565b50565b6000614526600083614505565b915061453182614516565b600082019050919050565b600060a08201905061455160008301876144f6565b61455e6020830186613c21565b61456b60408301856132ff565b61457860608301846132ff565b818103608083015261458981614519565b905095945050505050565b7f3f3f3f3f00000000000000000000000000000000000000000000000000000000600082015250565b60006145ca60048361341c565b91506145d582614594565b602082019050919050565b600060208201905081810360008301526145f9816145bd565b9050919050565b7f497320697420736f6c64206f75743f0000000000000000000000000000000000600082015250565b6000614636600f8361341c565b915061464182614600565b602082019050919050565b6000602082019050818103600083015261466581614629565b9050919050565b60008151905061467b81613293565b92915050565b60006020828403121561469757614696613221565b5b60006146a58482850161466c565b91505092915050565b7f43616e63656c207468652073616c6573206f726465722e000000000000000000600082015250565b60006146e460178361341c565b91506146ef826146ae565b602082019050919050565b60006020820190508181036000830152614713816146d7565b9050919050565b7f506c6561736520656e74657220746865206578616374207175616e746974792e600082015250565b600061475060208361341c565b915061475b8261471a565b602082019050919050565b6000602082019050818103600083015261477f81614743565b9050919050565b7f506c6561736520656e7465722074686520636f72726563742070726963652e00600082015250565b60006147bc601f8361341c565b91506147c782614786565b602082019050919050565b600060208201905081810360008301526147eb816147af565b9050919050565b7f506c6561736520656e7465722074686520636f727265637420616d6f756e742e600082015250565b600061482860208361341c565b9150614833826147f2565b602082019050919050565b600060208201905081810360008301526148578161481b565b9050919050565b60006040820190506148736000830185613c21565b6148806020830184613c21565b9392505050565b60008151905061489681613cf0565b92915050565b6000602082840312156148b2576148b1613221565b5b60006148c084828501614887565b91505092915050565b7f6265206e6f7420617070726f7665640000000000000000000000000000000000600082015250565b60006148ff600f8361341c565b915061490a826148c9565b602082019050919050565b6000602082019050818103600083015261492e816148f2565b9050919050565b600080fd5b6000815190506149498161325d565b92915050565b600060c0828403121561496557614964614935565b5b61496f60c06135a2565b9050600061497f8482850161493a565b60008301525060206149938482850161466c565b60208301525060406149a78482850161466c565b60408301525060606149bb8482850161466c565b60608301525060806149cf8482850161466c565b60808301525060a06149e384828501614887565b60a08301525092915050565b600060c08284031215614a0557614a04613221565b5b6000614a138482850161494f565b91505092915050565b7f697320537563636573733f000000000000000000000000000000000000000000600082015250565b6000614a52600b8361341c565b9150614a5d82614a1c565b602082019050919050565b60006020820190508181036000830152614a8181614a45565b9050919050565b6000614a9382613289565b9150614a9e83613289565b9250828201905080821115614ab657614ab5614089565b5b92915050565b6000608082019050614ad16000830187613c21565b614ade60208301866132ff565b614aeb60408301856132ff565b614af860608301846132ff565b95945050505050565b7f4f776e61626c653a206e6577206f776e657220697320746865207a65726f206160008201527f6464726573730000000000000000000000000000000000000000000000000000602082015250565b6000614b5d60268361341c565b9150614b6882614b01565b604082019050919050565b60006020820190508181036000830152614b8c81614b50565b9050919050565b7f455243313135353a2061646472657373207a65726f206973206e6f742061207660008201527f616c6964206f776e657200000000000000000000000000000000000000000000602082015250565b6000614bef602a8361341c565b9150614bfa82614b93565b604082019050919050565b60006020820190508181036000830152614c1e81614be2565b9050919050565b7f455243313135353a2069647320616e6420616d6f756e7473206c656e6774682060008201527f6d69736d61746368000000000000000000000000000000000000000000000000602082015250565b6000614c8160288361341c565b9150614c8c82614c25565b604082019050919050565b60006020820190508181036000830152614cb081614c74565b9050919050565b7f455243313135353a207472616e7366657220746f20746865207a65726f20616460008201527f6472657373000000000000000000000000000000000000000000000000000000602082015250565b6000614d1360258361341c565b9150614d1e82614cb7565b604082019050919050565b60006020820190508181036000830152614d4281614d06565b9050919050565b7f455243313135353a20696e73756666696369656e742062616c616e636520666f60008201527f72207472616e7366657200000000000000000000000000000000000000000000602082015250565b6000614da5602a8361341c565b9150614db082614d49565b604082019050919050565b60006020820190508181036000830152614dd481614d98565b9050919050565b60006040820190508181036000830152614df58185613a0d565b90508181036020830152614e098184613a0d565b90509392505050565b7f4e487b7100000000000000000000000000000000000000000000000000000000600052601260045260246000fd5b6000614e4c82613289565b9150614e5783613289565b925082614e6757614e66614e12565b5b828204905092915050565b7f455243313135353a206d696e7420746f20746865207a65726f2061646472657360008201527f7300000000000000000000000000000000000000000000000000000000000000602082015250565b6000614ece60218361341c565b9150614ed982614e72565b604082019050919050565b60006020820190508181036000830152614efd81614ec1565b9050919050565b6000604082019050614f1960008301856132ff565b614f2660208301846132ff565b9392505050565b7f4f776e61626c653a2063616c6c6572206973206e6f7420746865206f776e6572600082015250565b6000614f6360208361341c565b9150614f6e82614f2d565b602082019050919050565b60006020820190508181036000830152614f9281614f56565b9050919050565b7f455243313135353a206275726e2066726f6d20746865207a65726f206164647260008201527f6573730000000000000000000000000000000000000000000000000000000000602082015250565b6000614ff560238361341c565b915061500082614f99565b604082019050919050565b6000602082019050818103600083015261502481614fe8565b9050919050565b7f455243313135353a206275726e20616d6f756e7420657863656564732062616c60008201527f616e636500000000000000000000000000000000000000000000000000000000602082015250565b600061508760248361341c565b91506150928261502b565b604082019050919050565b600060208201905081810360008301526150b68161507a565b9050919050565b7f455243313135353a2073657474696e6720617070726f76616c2073746174757360008201527f20666f722073656c660000000000000000000000000000000000000000000000602082015250565b600061511960298361341c565b9150615124826150bd565b604082019050919050565b600060208201905081810360008301526151488161510c565b9050919050565b600081519050919050565b60006151658261514f565b61516f8185614505565b935061517f81856020860161342d565b61518881613457565b840191505092915050565b600060a0820190506151a86000830188613c21565b6151b56020830187613c21565b81810360408301526151c78186613a0d565b905081810360608301526151db8185613a0d565b905081810360808301526151ef818461515a565b90509695505050505050565b60008151905061520a81613355565b92915050565b60006020828403121561522657615225613221565b5b6000615234848285016151fb565b91505092915050565b60008160e01c9050919050565b600060033d11156152695760046000803e61526660005161523d565b90505b90565b600060443d106152f95761527e613217565b60043d036004823e80513d602482011167ffffffffffffffff821117156152a65750506152f9565b808201805167ffffffffffffffff8111156152c457505050506152f9565b80602083010160043d0385018111156152e15750505050506152f9565b6152f082602001850186613571565b82955050505050505b90565b7f455243313135353a207472616e7366657220746f206e6f6e2d4552433131353560008201527f526563656976657220696d706c656d656e746572000000000000000000000000602082015250565b600061535860348361341c565b9150615363826152fc565b604082019050919050565b600060208201905081810360008301526153878161534b565b9050919050565b7f455243313135353a204552433131353552656365697665722072656a6563746560008201527f6420746f6b656e73000000000000000000000000000000000000000000000000602082015250565b60006153ea60288361341c565b91506153f58261538e565b604082019050919050565b60006020820190508181036000830152615419816153dd565b9050919050565b600060a0820190506154356000830188613c21565b6154426020830187613c21565b61544f60408301866132ff565b61545c60608301856132ff565b818103608083015261546e818461515a565b9050969550505050505056fea264697066735822122003b5a683011ceb33b40da054084a6c840774a6783a69e50a2dcb87f70a1e6cf564736f6c63430008120033",
			"opcodes": "PUSH1 0x80 PUSH1 0x40 MSTORE CALLVALUE DUP1 ISZERO PUSH3 0x11 JUMPI PUSH1 0x0 DUP1 REVERT JUMPDEST POP PUSH1 0x40 MLOAD PUSH3 0x5A61 CODESIZE SUB DUP1 PUSH3 0x5A61 DUP4 CODECOPY DUP2 DUP2 ADD PUSH1 0x40 MSTORE DUP2 ADD SWAP1 PUSH3 0x37 SWAP2 SWAP1 PUSH3 0x20E JUMP JUMPDEST PUSH1 0x40 MLOAD DUP1 PUSH1 0x20 ADD PUSH1 0x40 MSTORE DUP1 PUSH1 0x0 DUP2 MSTORE POP PUSH3 0x58 DUP2 PUSH3 0xC1 PUSH1 0x20 SHL PUSH1 0x20 SHR JUMP JUMPDEST POP PUSH3 0x79 PUSH3 0x6D PUSH3 0xD6 PUSH1 0x20 SHL PUSH1 0x20 SHR JUMP JUMPDEST PUSH3 0xDE PUSH1 0x20 SHL PUSH1 0x20 SHR JUMP JUMPDEST DUP1 PUSH1 0x8 PUSH1 0x0 PUSH2 0x100 EXP DUP2 SLOAD DUP2 PUSH20 0xFFFFFFFFFFFFFFFFFFFFFFFFFFFFFFFFFFFFFFFF MUL NOT AND SWAP1 DUP4 PUSH20 0xFFFFFFFFFFFFFFFFFFFFFFFFFFFFFFFFFFFFFFFF AND MUL OR SWAP1 SSTORE POP POP PUSH3 0x5A1 JUMP JUMPDEST DUP1 PUSH1 0x2 SWAP1 DUP2 PUSH3 0xD2 SWAP2 SWAP1 PUSH3 0x4BA JUMP JUMPDEST POP POP JUMP JUMPDEST PUSH1 0x0 CALLER SWAP1 POP SWAP1 JUMP JUMPDEST PUSH1 0x0 PUSH1 0x3 PUSH1 0x0 SWAP1 SLOAD SWAP1 PUSH2 0x100 EXP SWAP1 DIV PUSH20 0xFFFFFFFFFFFFFFFFFFFFFFFFFFFFFFFFFFFFFFFF AND SWAP1 POP DUP2 PUSH1 0x3 PUSH1 0x0 PUSH2 0x100 EXP DUP2 SLOAD DUP2 PUSH20 0xFFFFFFFFFFFFFFFFFFFFFFFFFFFFFFFFFFFFFFFF MUL NOT AND SWAP1 DUP4 PUSH20 0xFFFFFFFFFFFFFFFFFFFFFFFFFFFFFFFFFFFFFFFF AND MUL OR SWAP1 SSTORE POP DUP2 PUSH20 0xFFFFFFFFFFFFFFFFFFFFFFFFFFFFFFFFFFFFFFFF AND DUP2 PUSH20 0xFFFFFFFFFFFFFFFFFFFFFFFFFFFFFFFFFFFFFFFF AND PUSH32 0x8BE0079C531659141344CD1FD0A4F28419497F9722A3DAAFE3B4186F6B6457E0 PUSH1 0x40 MLOAD PUSH1 0x40 MLOAD DUP1 SWAP2 SUB SWAP1 LOG3 POP POP JUMP JUMPDEST PUSH1 0x0 DUP1 REVERT JUMPDEST PUSH1 0x0 PUSH20 0xFFFFFFFFFFFFFFFFFFFFFFFFFFFFFFFFFFFFFFFF DUP3 AND SWAP1 POP SWAP2 SWAP1 POP JUMP JUMPDEST PUSH1 0x0 PUSH3 0x1D6 DUP3 PUSH3 0x1A9 JUMP JUMPDEST SWAP1 POP SWAP2 SWAP1 POP JUMP JUMPDEST PUSH3 0x1E8 DUP2 PUSH3 0x1C9 JUMP JUMPDEST DUP2 EQ PUSH3 0x1F4 JUMPI PUSH1 0x0 DUP1 REVERT JUMPDEST POP JUMP JUMPDEST PUSH1 0x0 DUP2 MLOAD SWAP1 POP PUSH3 0x208 DUP2 PUSH3 0x1DD JUMP JUMPDEST SWAP3 SWAP2 POP POP JUMP JUMPDEST PUSH1 0x0 PUSH1 0x20 DUP3 DUP5 SUB SLT ISZERO PUSH3 0x227 JUMPI PUSH3 0x226 PUSH3 0x1A4 JUMP JUMPDEST JUMPDEST PUSH1 0x0 PUSH3 0x237 DUP5 DUP3 DUP6 ADD PUSH3 0x1F7 JUMP JUMPDEST SWAP2 POP POP SWAP3 SWAP2 POP POP JUMP JUMPDEST PUSH1 0x0 DUP2 MLOAD SWAP1 POP SWAP2 SWAP1 POP JUMP JUMPDEST PUSH32 0x4E487B7100000000000000000000000000000000000000000000000000000000 PUSH1 0x0 MSTORE PUSH1 0x41 PUSH1 0x4 MSTORE PUSH1 0x24 PUSH1 0x0 REVERT JUMPDEST PUSH32 0x4E487B7100000000000000000000000000000000000000000000000000000000 PUSH1 0x0 MSTORE PUSH1 0x22 PUSH1 0x4 MSTORE PUSH1 0x24 PUSH1 0x0 REVERT JUMPDEST PUSH1 0x0 PUSH1 0x2 DUP3 DIV SWAP1 POP PUSH1 0x1 DUP3 AND DUP1 PUSH3 0x2C2 JUMPI PUSH1 0x7F DUP3 AND SWAP2 POP JUMPDEST PUSH1 0x20 DUP3 LT DUP2 SUB PUSH3 0x2D8 JUMPI PUSH3 0x2D7 PUSH3 0x27A JUMP JUMPDEST JUMPDEST POP SWAP2 SWAP1 POP JUMP JUMPDEST PUSH1 0x0 DUP2 SWAP1 POP DUP2 PUSH1 0x0 MSTORE PUSH1 0x20 PUSH1 0x0 KECCAK256 SWAP1 POP SWAP2 SWAP1 POP JUMP JUMPDEST PUSH1 0x0 PUSH1 0x20 PUSH1 0x1F DUP4 ADD DIV SWAP1 POP SWAP2 SWAP1 POP JUMP JUMPDEST PUSH1 0x0 DUP3 DUP3 SHL SWAP1 POP SWAP3 SWAP2 POP POP JUMP JUMPDEST PUSH1 0x0 PUSH1 0x8 DUP4 MUL PUSH3 0x342 PUSH32 0xFFFFFFFFFFFFFFFFFFFFFFFFFFFFFFFFFFFFFFFFFFFFFFFFFFFFFFFFFFFFFFFF DUP3 PUSH3 0x303 JUMP JUMPDEST PUSH3 0x34E DUP7 DUP4 PUSH3 0x303 JUMP JUMPDEST SWAP6 POP DUP1 NOT DUP5 AND SWAP4 POP DUP1 DUP7 AND DUP5 OR SWAP3 POP POP POP SWAP4 SWAP3 POP POP POP JUMP JUMPDEST PUSH1 0x0 DUP2 SWAP1 POP SWAP2 SWAP1 POP JUMP JUMPDEST PUSH1 0x0 DUP2 SWAP1 POP SWAP2 SWAP1 POP JUMP JUMPDEST PUSH1 0x0 PUSH3 0x39B PUSH3 0x395 PUSH3 0x38F DUP5 PUSH3 0x366 JUMP JUMPDEST PUSH3 0x370 JUMP JUMPDEST PUSH3 0x366 JUMP JUMPDEST SWAP1 POP SWAP2 SWAP1 POP JUMP JUMPDEST PUSH1 0x0 DUP2 SWAP1 POP SWAP2 SWAP1 POP JUMP JUMPDEST PUSH3 0x3B7 DUP4 PUSH3 0x37A JUMP JUMPDEST PUSH3 0x3CF PUSH3 0x3C6 DUP3 PUSH3 0x3A2 JUMP JUMPDEST DUP5 DUP5 SLOAD PUSH3 0x310 JUMP JUMPDEST DUP3 SSTORE POP POP POP POP JUMP JUMPDEST PUSH1 0x0 SWAP1 JUMP JUMPDEST PUSH3 0x3E6 PUSH3 0x3D7 JUMP JUMPDEST PUSH3 0x3F3 DUP2 DUP5 DUP5 PUSH3 0x3AC JUMP JUMPDEST POP POP POP JUMP JUMPDEST JUMPDEST DUP2 DUP2 LT ISZERO PUSH3 0x41B JUMPI PUSH3 0x40F PUSH1 0x0 DUP3 PUSH3 0x3DC JUMP JUMPDEST PUSH1 0x1 DUP2 ADD SWAP1 POP PUSH3 0x3F9 JUMP JUMPDEST POP POP JUMP JUMPDEST PUSH1 0x1F DUP3 GT ISZERO PUSH3 0x46A JUMPI PUSH3 0x434 DUP2 PUSH3 0x2DE JUMP JUMPDEST PUSH3 0x43F DUP5 PUSH3 0x2F3 JUMP JUMPDEST DUP2 ADD PUSH1 0x20 DUP6 LT ISZERO PUSH3 0x44F JUMPI DUP2 SWAP1 POP JUMPDEST PUSH3 0x467 PUSH3 0x45E DUP6 PUSH3 0x2F3 JUMP JUMPDEST DUP4 ADD DUP3 PUSH3 0x3F8 JUMP JUMPDEST POP POP JUMPDEST POP POP POP JUMP JUMPDEST PUSH1 0x0 DUP3 DUP3 SHR SWAP1 POP SWAP3 SWAP2 POP POP JUMP JUMPDEST PUSH1 0x0 PUSH3 0x48F PUSH1 0x0 NOT DUP5 PUSH1 0x8 MUL PUSH3 0x46F JUMP JUMPDEST NOT DUP1 DUP4 AND SWAP2 POP POP SWAP3 SWAP2 POP POP JUMP JUMPDEST PUSH1 0x0 PUSH3 0x4AA DUP4 DUP4 PUSH3 0x47C JUMP JUMPDEST SWAP2 POP DUP3 PUSH1 0x2 MUL DUP3 OR SWAP1 POP SWAP3 SWAP2 POP POP JUMP JUMPDEST PUSH3 0x4C5 DUP3 PUSH3 0x240 JUMP JUMPDEST PUSH8 0xFFFFFFFFFFFFFFFF DUP2 GT ISZERO PUSH3 0x4E1 JUMPI PUSH3 0x4E0 PUSH3 0x24B JUMP JUMPDEST JUMPDEST PUSH3 0x4ED DUP3 SLOAD PUSH3 0x2A9 JUMP JUMPDEST PUSH3 0x4FA DUP3 DUP3 DUP6 PUSH3 0x41F JUMP JUMPDEST PUSH1 0x0 PUSH1 0x20 SWAP1 POP PUSH1 0x1F DUP4 GT PUSH1 0x1 DUP2 EQ PUSH3 0x532 JUMPI PUSH1 0x0 DUP5 ISZERO PUSH3 0x51D JUMPI DUP3 DUP8 ADD MLOAD SWAP1 POP JUMPDEST PUSH3 0x529 DUP6 DUP3 PUSH3 0x49C JUMP JUMPDEST DUP7 SSTORE POP PUSH3 0x599 JUMP JUMPDEST PUSH1 0x1F NOT DUP5 AND PUSH3 0x542 DUP7 PUSH3 0x2DE JUMP JUMPDEST PUSH1 0x0 JUMPDEST DUP3 DUP2 LT ISZERO PUSH3 0x56C JUMPI DUP5 DUP10 ADD MLOAD DUP3 SSTORE PUSH1 0x1 DUP3 ADD SWAP2 POP PUSH1 0x20 DUP6 ADD SWAP5 POP PUSH1 0x20 DUP2 ADD SWAP1 POP PUSH3 0x545 JUMP JUMPDEST DUP7 DUP4 LT ISZERO PUSH3 0x58C JUMPI DUP5 DUP10 ADD MLOAD PUSH3 0x588 PUSH1 0x1F DUP10 AND DUP3 PUSH3 0x47C JUMP JUMPDEST DUP4 SSTORE POP JUMPDEST PUSH1 0x1 PUSH1 0x2 DUP9 MUL ADD DUP9 SSTORE POP POP POP JUMPDEST POP POP POP POP POP POP JUMP JUMPDEST PUSH2 0x54B0 DUP1 PUSH3 0x5B1 PUSH1 0x0 CODECOPY PUSH1 0x0 RETURN INVALID PUSH1 0x80 PUSH1 0x40 MSTORE PUSH1 0x4 CALLDATASIZE LT PUSH2 0x1B6 JUMPI PUSH1 0x0 CALLDATALOAD PUSH1 0xE0 SHR DUP1 PUSH4 0x8D63193D GT PUSH2 0xEC JUMPI DUP1 PUSH4 0xD0ED81C9 GT PUSH2 0x8A JUMPI DUP1 PUSH4 0xF242432A GT PUSH2 0x64 JUMPI DUP1 PUSH4 0xF242432A EQ PUSH2 0x61C JUMPI DUP1 PUSH4 0xF2FDE38B EQ PUSH2 0x645 JUMPI DUP1 PUSH4 0xF8A14F46 EQ PUSH2 0x66E JUMPI DUP1 PUSH4 0xFAC333AC EQ PUSH2 0x6B0 JUMPI PUSH2 0x1B6 JUMP JUMPDEST DUP1 PUSH4 0xD0ED81C9 EQ PUSH2 0x579 JUMPI DUP1 PUSH4 0xD8AADBA3 EQ PUSH2 0x5B6 JUMPI DUP1 PUSH4 0xE985E9C5 EQ PUSH2 0x5DF JUMPI PUSH2 0x1B6 JUMP JUMPDEST DUP1 PUSH4 0xA22CB465 GT PUSH2 0xC6 JUMPI DUP1 PUSH4 0xA22CB465 EQ PUSH2 0x4C1 JUMPI DUP1 PUSH4 0xA2F256EE EQ PUSH2 0x4EA JUMPI DUP1 PUSH4 0xAD216FB6 EQ PUSH2 0x527 JUMPI DUP1 PUSH4 0xC31F4B58 EQ PUSH2 0x550 JUMPI PUSH2 0x1B6 JUMP JUMPDEST DUP1 PUSH4 0x8D63193D EQ PUSH2 0x43D JUMPI DUP1 PUSH4 0x8DA5CB5B EQ PUSH2 0x47A JUMPI DUP1 PUSH4 0x8F148033 EQ PUSH2 0x4A5 JUMPI PUSH2 0x1B6 JUMP JUMPDEST DUP1 PUSH4 0x4B77F8D0 GT PUSH2 0x159 JUMPI DUP1 PUSH4 0x715018A6 GT PUSH2 0x133 JUMPI DUP1 PUSH4 0x715018A6 EQ PUSH2 0x3A9 JUMPI DUP1 PUSH4 0x77379082 EQ PUSH2 0x3C0 JUMPI DUP1 PUSH4 0x7ABFEE42 EQ PUSH2 0x3E9 JUMPI DUP1 PUSH4 0x8497F29A EQ PUSH2 0x414 JUMPI PUSH2 0x1B6 JUMP JUMPDEST DUP1 PUSH4 0x4B77F8D0 EQ PUSH2 0x31A JUMPI DUP1 PUSH4 0x4E1273F4 EQ PUSH2 0x343 JUMPI DUP1 PUSH4 0x6F0EA038 EQ PUSH2 0x380 JUMPI PUSH2 0x1B6 JUMP JUMPDEST DUP1 PUSH4 0x19C5B89C GT PUSH2 0x195 JUMPI DUP1 PUSH4 0x19C5B89C EQ PUSH2 0x272 JUMPI DUP1 PUSH4 0x2EB2C2D6 EQ PUSH2 0x29D JUMPI DUP1 PUSH4 0x325D20C4 EQ PUSH2 0x2C6 JUMPI DUP1 PUSH4 0x422B71D7 EQ PUSH2 0x2F1 JUMPI PUSH2 0x1B6 JUMP JUMPDEST DUP1 PUSH3 0xFDD58E EQ PUSH2 0x1BB JUMPI DUP1 PUSH4 0x1FFC9A7 EQ PUSH2 0x1F8 JUMPI DUP1 PUSH4 0xE89341C EQ PUSH2 0x235 JUMPI JUMPDEST PUSH1 0x0 DUP1 REVERT JUMPDEST CALLVALUE DUP1 ISZERO PUSH2 0x1C7 JUMPI PUSH1 0x0 DUP1 REVERT JUMPDEST POP PUSH2 0x1E2 PUSH1 0x4 DUP1 CALLDATASIZE SUB DUP2 ADD SWAP1 PUSH2 0x1DD SWAP2 SWAP1 PUSH2 0x32BF JUMP JUMPDEST PUSH2 0x6ED JUMP JUMPDEST PUSH1 0x40 MLOAD PUSH2 0x1EF SWAP2 SWAP1 PUSH2 0x330E JUMP JUMPDEST PUSH1 0x40 MLOAD DUP1 SWAP2 SUB SWAP1 RETURN JUMPDEST CALLVALUE DUP1 ISZERO PUSH2 0x204 JUMPI PUSH1 0x0 DUP1 REVERT JUMPDEST POP PUSH2 0x21F PUSH1 0x4 DUP1 CALLDATASIZE SUB DUP2 ADD SWAP1 PUSH2 0x21A SWAP2 SWAP1 PUSH2 0x3381 JUMP JUMPDEST PUSH2 0x701 JUMP JUMPDEST PUSH1 0x40 MLOAD PUSH2 0x22C SWAP2 SWAP1 PUSH2 0x33C9 JUMP JUMPDEST PUSH1 0x40 MLOAD DUP1 SWAP2 SUB SWAP1 RETURN JUMPDEST CALLVALUE DUP1 ISZERO PUSH2 0x241 JUMPI PUSH1 0x0 DUP1 REVERT JUMPDEST POP PUSH2 0x25C PUSH1 0x4 DUP1 CALLDATASIZE SUB DUP2 ADD SWAP1 PUSH2 0x257 SWAP2 SWAP1 PUSH2 0x33E4 JUMP JUMPDEST PUSH2 0x7E3 JUMP JUMPDEST PUSH1 0x40 MLOAD PUSH2 0x269 SWAP2 SWAP1 PUSH2 0x34A1 JUMP JUMPDEST PUSH1 0x40 MLOAD DUP1 SWAP2 SUB SWAP1 RETURN JUMPDEST CALLVALUE DUP1 ISZERO PUSH2 0x27E JUMPI PUSH1 0x0 DUP1 REVERT JUMPDEST POP PUSH2 0x287 PUSH2 0x877 JUMP JUMPDEST PUSH1 0x40 MLOAD PUSH2 0x294 SWAP2 SWAP1 PUSH2 0x3522 JUMP JUMPDEST PUSH1 0x40 MLOAD DUP1 SWAP2 SUB SWAP1 RETURN JUMPDEST CALLVALUE DUP1 ISZERO PUSH2 0x2A9 JUMPI PUSH1 0x0 DUP1 REVERT JUMPDEST POP PUSH2 0x2C4 PUSH1 0x4 DUP1 CALLDATASIZE SUB DUP2 ADD SWAP1 PUSH2 0x2BF SWAP2 SWAP1 PUSH2 0x373A JUMP JUMPDEST PUSH2 0x89D JUMP JUMPDEST STOP JUMPDEST CALLVALUE DUP1 ISZERO PUSH2 0x2D2 JUMPI PUSH1 0x0 DUP1 REVERT JUMPDEST POP PUSH2 0x2DB PUSH2 0x93E JUMP JUMPDEST PUSH1 0x40 MLOAD PUSH2 0x2E8 SWAP2 SWAP1 PUSH2 0x382A JUMP JUMPDEST PUSH1 0x40 MLOAD DUP1 SWAP2 SUB SWAP1 RETURN JUMPDEST CALLVALUE DUP1 ISZERO PUSH2 0x2FD JUMPI PUSH1 0x0 DUP1 REVERT JUMPDEST POP PUSH2 0x318 PUSH1 0x4 DUP1 CALLDATASIZE SUB DUP2 ADD SWAP1 PUSH2 0x313 SWAP2 SWAP1 PUSH2 0x33E4 JUMP JUMPDEST PUSH2 0x964 JUMP JUMPDEST STOP JUMPDEST CALLVALUE DUP1 ISZERO PUSH2 0x326 JUMPI PUSH1 0x0 DUP1 REVERT JUMPDEST POP PUSH2 0x341 PUSH1 0x4 DUP1 CALLDATASIZE SUB DUP2 ADD SWAP1 PUSH2 0x33C SWAP2 SWAP1 PUSH2 0x3845 JUMP JUMPDEST PUSH2 0xAAC JUMP JUMPDEST STOP JUMPDEST CALLVALUE DUP1 ISZERO PUSH2 0x34F JUMPI PUSH1 0x0 DUP1 REVERT JUMPDEST POP PUSH2 0x36A PUSH1 0x4 DUP1 CALLDATASIZE SUB DUP2 ADD SWAP1 PUSH2 0x365 SWAP2 SWAP1 PUSH2 0x3935 JUMP JUMPDEST PUSH2 0xABA JUMP JUMPDEST PUSH1 0x40 MLOAD PUSH2 0x377 SWAP2 SWAP1 PUSH2 0x3A6B JUMP JUMPDEST PUSH1 0x40 MLOAD DUP1 SWAP2 SUB SWAP1 RETURN JUMPDEST CALLVALUE DUP1 ISZERO PUSH2 0x38C JUMPI PUSH1 0x0 DUP1 REVERT JUMPDEST POP PUSH2 0x3A7 PUSH1 0x4 DUP1 CALLDATASIZE SUB DUP2 ADD SWAP1 PUSH2 0x3A2 SWAP2 SWAP1 PUSH2 0x3A8D JUMP JUMPDEST PUSH2 0xBD3 JUMP JUMPDEST STOP JUMPDEST CALLVALUE DUP1 ISZERO PUSH2 0x3B5 JUMPI PUSH1 0x0 DUP1 REVERT JUMPDEST POP PUSH2 0x3BE PUSH2 0xE24 JUMP JUMPDEST STOP JUMPDEST CALLVALUE DUP1 ISZERO PUSH2 0x3CC JUMPI PUSH1 0x0 DUP1 REVERT JUMPDEST POP PUSH2 0x3E7 PUSH1 0x4 DUP1 CALLDATASIZE SUB DUP2 ADD SWAP1 PUSH2 0x3E2 SWAP2 SWAP1 PUSH2 0x3B1A JUMP JUMPDEST PUSH2 0xE38 JUMP JUMPDEST STOP JUMPDEST CALLVALUE DUP1 ISZERO PUSH2 0x3F5 JUMPI PUSH1 0x0 DUP1 REVERT JUMPDEST POP PUSH2 0x3FE PUSH2 0xEA2 JUMP JUMPDEST PUSH1 0x40 MLOAD PUSH2 0x40B SWAP2 SWAP1 PUSH2 0x3A6B JUMP JUMPDEST PUSH1 0x40 MLOAD DUP1 SWAP2 SUB SWAP1 RETURN JUMPDEST CALLVALUE DUP1 ISZERO PUSH2 0x420 JUMPI PUSH1 0x0 DUP1 REVERT JUMPDEST POP PUSH2 0x43B PUSH1 0x4 DUP1 CALLDATASIZE SUB DUP2 ADD SWAP1 PUSH2 0x436 SWAP2 SWAP1 PUSH2 0x3845 JUMP JUMPDEST PUSH2 0xEFA JUMP JUMPDEST STOP JUMPDEST CALLVALUE DUP1 ISZERO PUSH2 0x449 JUMPI PUSH1 0x0 DUP1 REVERT JUMPDEST POP PUSH2 0x464 PUSH1 0x4 DUP1 CALLDATASIZE SUB DUP2 ADD SWAP1 PUSH2 0x45F SWAP2 SWAP1 PUSH2 0x33E4 JUMP JUMPDEST PUSH2 0xF08 JUMP JUMPDEST PUSH1 0x40 MLOAD PUSH2 0x471 SWAP2 SWAP1 PUSH2 0x3C06 JUMP JUMPDEST PUSH1 0x40 MLOAD DUP1 SWAP2 SUB SWAP1 RETURN JUMPDEST CALLVALUE DUP1 ISZERO PUSH2 0x486 JUMPI PUSH1 0x0 DUP1 REVERT JUMPDEST POP PUSH2 0x48F PUSH2 0xFCE JUMP JUMPDEST PUSH1 0x40 MLOAD PUSH2 0x49C SWAP2 SWAP1 PUSH2 0x3C30 JUMP JUMPDEST PUSH1 0x40 MLOAD DUP1 SWAP2 SUB SWAP1 RETURN JUMPDEST PUSH2 0x4BF PUSH1 0x4 DUP1 CALLDATASIZE SUB DUP2 ADD SWAP1 PUSH2 0x4BA SWAP2 SWAP1 PUSH2 0x3C89 JUMP JUMPDEST PUSH2 0xFF8 JUMP JUMPDEST STOP JUMPDEST CALLVALUE DUP1 ISZERO PUSH2 0x4CD JUMPI PUSH1 0x0 DUP1 REVERT JUMPDEST POP PUSH2 0x4E8 PUSH1 0x4 DUP1 CALLDATASIZE SUB DUP2 ADD SWAP1 PUSH2 0x4E3 SWAP2 SWAP1 PUSH2 0x3D1C JUMP JUMPDEST PUSH2 0x1303 JUMP JUMPDEST STOP JUMPDEST CALLVALUE DUP1 ISZERO PUSH2 0x4F6 JUMPI PUSH1 0x0 DUP1 REVERT JUMPDEST POP PUSH2 0x511 PUSH1 0x4 DUP1 CALLDATASIZE SUB DUP2 ADD SWAP1 PUSH2 0x50C SWAP2 SWAP1 PUSH2 0x33E4 JUMP JUMPDEST PUSH2 0x1319 JUMP JUMPDEST PUSH1 0x40 MLOAD PUSH2 0x51E SWAP2 SWAP1 PUSH2 0x330E JUMP JUMPDEST PUSH1 0x40 MLOAD DUP1 SWAP2 SUB SWAP1 RETURN JUMPDEST CALLVALUE DUP1 ISZERO PUSH2 0x533 JUMPI PUSH1 0x0 DUP1 REVERT JUMPDEST POP PUSH2 0x54E PUSH1 0x4 DUP1 CALLDATASIZE SUB DUP2 ADD SWAP1 PUSH2 0x549 SWAP2 SWAP1 PUSH2 0x3845 JUMP JUMPDEST PUSH2 0x1336 JUMP JUMPDEST STOP JUMPDEST CALLVALUE DUP1 ISZERO PUSH2 0x55C JUMPI PUSH1 0x0 DUP1 REVERT JUMPDEST POP PUSH2 0x577 PUSH1 0x4 DUP1 CALLDATASIZE SUB DUP2 ADD SWAP1 PUSH2 0x572 SWAP2 SWAP1 PUSH2 0x33E4 JUMP JUMPDEST PUSH2 0x1429 JUMP JUMPDEST STOP JUMPDEST CALLVALUE DUP1 ISZERO PUSH2 0x585 JUMPI PUSH1 0x0 DUP1 REVERT JUMPDEST POP PUSH2 0x5A0 PUSH1 0x4 DUP1 CALLDATASIZE SUB DUP2 ADD SWAP1 PUSH2 0x59B SWAP2 SWAP1 PUSH2 0x3D5C JUMP JUMPDEST PUSH2 0x159A JUMP JUMPDEST PUSH1 0x40 MLOAD PUSH2 0x5AD SWAP2 SWAP1 PUSH2 0x3DF1 JUMP JUMPDEST PUSH1 0x40 MLOAD DUP1 SWAP2 SUB SWAP1 RETURN JUMPDEST CALLVALUE DUP1 ISZERO PUSH2 0x5C2 JUMPI PUSH1 0x0 DUP1 REVERT JUMPDEST POP PUSH2 0x5DD PUSH1 0x4 DUP1 CALLDATASIZE SUB DUP2 ADD SWAP1 PUSH2 0x5D8 SWAP2 SWAP1 PUSH2 0x3E0C JUMP JUMPDEST PUSH2 0x164D JUMP JUMPDEST STOP JUMPDEST CALLVALUE DUP1 ISZERO PUSH2 0x5EB JUMPI PUSH1 0x0 DUP1 REVERT JUMPDEST POP PUSH2 0x606 PUSH1 0x4 DUP1 CALLDATASIZE SUB DUP2 ADD SWAP1 PUSH2 0x601 SWAP2 SWAP1 PUSH2 0x3E5F JUMP JUMPDEST PUSH2 0x1BC2 JUMP JUMPDEST PUSH1 0x40 MLOAD PUSH2 0x613 SWAP2 SWAP1 PUSH2 0x33C9 JUMP JUMPDEST PUSH1 0x40 MLOAD DUP1 SWAP2 SUB SWAP1 RETURN JUMPDEST CALLVALUE DUP1 ISZERO PUSH2 0x628 JUMPI PUSH1 0x0 DUP1 REVERT JUMPDEST POP PUSH2 0x643 PUSH1 0x4 DUP1 CALLDATASIZE SUB DUP2 ADD SWAP1 PUSH2 0x63E SWAP2 SWAP1 PUSH2 0x3E9F JUMP JUMPDEST PUSH2 0x1C56 JUMP JUMPDEST STOP JUMPDEST CALLVALUE DUP1 ISZERO PUSH2 0x651 JUMPI PUSH1 0x0 DUP1 REVERT JUMPDEST POP PUSH2 0x66C PUSH1 0x4 DUP1 CALLDATASIZE SUB DUP2 ADD SWAP1 PUSH2 0x667 SWAP2 SWAP1 PUSH2 0x3845 JUMP JUMPDEST PUSH2 0x1CF7 JUMP JUMPDEST STOP JUMPDEST CALLVALUE DUP1 ISZERO PUSH2 0x67A JUMPI PUSH1 0x0 DUP1 REVERT JUMPDEST POP PUSH2 0x695 PUSH1 0x4 DUP1 CALLDATASIZE SUB DUP2 ADD SWAP1 PUSH2 0x690 SWAP2 SWAP1 PUSH2 0x33E4 JUMP JUMPDEST PUSH2 0x1D7A JUMP JUMPDEST PUSH1 0x40 MLOAD PUSH2 0x6A7 SWAP7 SWAP6 SWAP5 SWAP4 SWAP3 SWAP2 SWAP1 PUSH2 0x3F36 JUMP JUMPDEST PUSH1 0x40 MLOAD DUP1 SWAP2 SUB SWAP1 RETURN JUMPDEST CALLVALUE DUP1 ISZERO PUSH2 0x6BC JUMPI PUSH1 0x0 DUP1 REVERT JUMPDEST POP PUSH2 0x6D7 PUSH1 0x4 DUP1 CALLDATASIZE SUB DUP2 ADD SWAP1 PUSH2 0x6D2 SWAP2 SWAP1 PUSH2 0x33E4 JUMP JUMPDEST PUSH2 0x1DE3 JUMP JUMPDEST PUSH1 0x40 MLOAD PUSH2 0x6E4 SWAP2 SWAP1 PUSH2 0x330E JUMP JUMPDEST PUSH1 0x40 MLOAD DUP1 SWAP2 SUB SWAP1 RETURN JUMPDEST PUSH1 0x0 PUSH2 0x6F9 DUP4 DUP4 PUSH2 0x1E07 JUMP JUMPDEST SWAP1 POP SWAP3 SWAP2 POP POP JUMP JUMPDEST PUSH1 0x0 PUSH32 0xD9B67A2600000000000000000000000000000000000000000000000000000000 PUSH28 0xFFFFFFFFFFFFFFFFFFFFFFFFFFFFFFFFFFFFFFFFFFFFFFFFFFFFFFFF NOT AND DUP3 PUSH28 0xFFFFFFFFFFFFFFFFFFFFFFFFFFFFFFFFFFFFFFFFFFFFFFFFFFFFFFFF NOT AND EQ DUP1 PUSH2 0x7CC JUMPI POP PUSH32 0xE89341C00000000000000000000000000000000000000000000000000000000 PUSH28 0xFFFFFFFFFFFFFFFFFFFFFFFFFFFFFFFFFFFFFFFFFFFFFFFFFFFFFFFF NOT AND DUP3 PUSH28 0xFFFFFFFFFFFFFFFFFFFFFFFFFFFFFFFFFFFFFFFFFFFFFFFFFFFFFFFF NOT AND EQ JUMPDEST DUP1 PUSH2 0x7DC JUMPI POP PUSH2 0x7DB DUP3 PUSH2 0x1ECF JUMP JUMPDEST JUMPDEST SWAP1 POP SWAP2 SWAP1 POP JUMP JUMPDEST PUSH1 0x60 PUSH1 0x2 DUP1 SLOAD PUSH2 0x7F2 SWAP1 PUSH2 0x3FC6 JUMP JUMPDEST DUP1 PUSH1 0x1F ADD PUSH1 0x20 DUP1 SWAP2 DIV MUL PUSH1 0x20 ADD PUSH1 0x40 MLOAD SWAP1 DUP2 ADD PUSH1 0x40 MSTORE DUP1 SWAP3 SWAP2 SWAP1 DUP2 DUP2 MSTORE PUSH1 0x20 ADD DUP3 DUP1 SLOAD PUSH2 0x81E SWAP1 PUSH2 0x3FC6 JUMP JUMPDEST DUP1 ISZERO PUSH2 0x86B JUMPI DUP1 PUSH1 0x1F LT PUSH2 0x840 JUMPI PUSH2 0x100 DUP1 DUP4 SLOAD DIV MUL DUP4 MSTORE SWAP2 PUSH1 0x20 ADD SWAP2 PUSH2 0x86B JUMP JUMPDEST DUP3 ADD SWAP2 SWAP1 PUSH1 0x0 MSTORE PUSH1 0x20 PUSH1 0x0 KECCAK256 SWAP1 JUMPDEST DUP2 SLOAD DUP2 MSTORE SWAP1 PUSH1 0x1 ADD SWAP1 PUSH1 0x20 ADD DUP1 DUP4 GT PUSH2 0x84E JUMPI DUP3 SWAP1 SUB PUSH1 0x1F AND DUP3 ADD SWAP2 JUMPDEST POP POP POP POP POP SWAP1 POP SWAP2 SWAP1 POP JUMP JUMPDEST PUSH1 0x8 PUSH1 0x0 SWAP1 SLOAD SWAP1 PUSH2 0x100 EXP SWAP1 DIV PUSH20 0xFFFFFFFFFFFFFFFFFFFFFFFFFFFFFFFFFFFFFFFF AND DUP2 JUMP JUMPDEST PUSH2 0x8A5 PUSH2 0x1F39 JUMP JUMPDEST PUSH20 0xFFFFFFFFFFFFFFFFFFFFFFFFFFFFFFFFFFFFFFFF AND DUP6 PUSH20 0xFFFFFFFFFFFFFFFFFFFFFFFFFFFFFFFFFFFFFFFF AND EQ DUP1 PUSH2 0x8EB JUMPI POP PUSH2 0x8EA DUP6 PUSH2 0x8E5 PUSH2 0x1F39 JUMP JUMPDEST PUSH2 0x1BC2 JUMP JUMPDEST JUMPDEST PUSH2 0x92A JUMPI PUSH1 0x40 MLOAD PUSH32 0x8C379A000000000000000000000000000000000000000000000000000000000 DUP2 MSTORE PUSH1 0x4 ADD PUSH2 0x921 SWAP1 PUSH2 0x4069 JUMP JUMPDEST PUSH1 0x40 MLOAD DUP1 SWAP2 SUB SWAP1 REVERT JUMPDEST PUSH2 0x937 DUP6 DUP6 DUP6 DUP6 DUP6 PUSH2 0x1F41 JUMP JUMPDEST POP POP POP POP POP JUMP JUMPDEST PUSH1 0x6 PUSH1 0x0 SWAP1 SLOAD SWAP1 PUSH2 0x100 EXP SWAP1 DIV PUSH20 0xFFFFFFFFFFFFFFFFFFFFFFFFFFFFFFFFFFFFFFFF AND DUP2 JUMP JUMPDEST PUSH1 0x0 PUSH1 0x9 PUSH1 0x0 DUP4 DUP2 MSTORE PUSH1 0x20 ADD SWAP1 DUP2 MSTORE PUSH1 0x20 ADD PUSH1 0x0 KECCAK256 SLOAD SWAP1 POP PUSH1 0x0 JUMPDEST DUP2 DUP2 GT PUSH2 0xA6E JUMPI CALLER PUSH20 0xFFFFFFFFFFFFFFFFFFFFFFFFFFFFFFFFFFFFFFFF AND PUSH1 0xA PUSH1 0x0 DUP6 DUP2 MSTORE PUSH1 0x20 ADD SWAP1 DUP2 MSTORE PUSH1 0x20 ADD PUSH1 0x0 KECCAK256 PUSH1 0x0 DUP4 DUP2 MSTORE PUSH1 0x20 ADD SWAP1 DUP2 MSTORE PUSH1 0x20 ADD PUSH1 0x0 KECCAK256 PUSH1 0x0 ADD PUSH1 0x0 SWAP1 SLOAD SWAP1 PUSH2 0x100 EXP SWAP1 DIV PUSH20 0xFFFFFFFFFFFFFFFFFFFFFFFFFFFFFFFFFFFFFFFF AND PUSH20 0xFFFFFFFFFFFFFFFFFFFFFFFFFFFFFFFFFFFFFFFF AND SUB PUSH2 0xA5B JUMPI PUSH1 0x0 PUSH1 0xA PUSH1 0x0 DUP6 DUP2 MSTORE PUSH1 0x20 ADD SWAP1 DUP2 MSTORE PUSH1 0x20 ADD PUSH1 0x0 KECCAK256 PUSH1 0x0 DUP4 DUP2 MSTORE PUSH1 0x20 ADD SWAP1 DUP2 MSTORE PUSH1 0x20 ADD PUSH1 0x0 KECCAK256 PUSH1 0x1 ADD DUP2 SWAP1 SSTORE POP PUSH1 0x0 PUSH1 0xA PUSH1 0x0 DUP6 DUP2 MSTORE PUSH1 0x20 ADD SWAP1 DUP2 MSTORE PUSH1 0x20 ADD PUSH1 0x0 KECCAK256 PUSH1 0x0 DUP4 DUP2 MSTORE PUSH1 0x20 ADD SWAP1 DUP2 MSTORE PUSH1 0x20 ADD PUSH1 0x0 KECCAK256 PUSH1 0x2 ADD DUP2 SWAP1 SSTORE POP JUMPDEST DUP1 DUP1 PUSH2 0xA66 SWAP1 PUSH2 0x40B8 JUMP JUMPDEST SWAP2 POP POP PUSH2 0x97F JUMP JUMPDEST POP PUSH32 0xB37FA1584B5A559C3935A3E74265F473FC90B084D550E9B389C91BE5A69FCFA9 CALLER DUP4 PUSH1 0x40 MLOAD PUSH2 0xAA0 SWAP3 SWAP2 SWAP1 PUSH2 0x4100 JUMP JUMPDEST PUSH1 0x40 MLOAD DUP1 SWAP2 SUB SWAP1 LOG1 POP POP JUMP JUMPDEST PUSH2 0xAB7 DUP2 PUSH1 0x0 PUSH2 0x1303 JUMP JUMPDEST POP JUMP JUMPDEST PUSH1 0x60 DUP2 MLOAD DUP4 MLOAD EQ PUSH2 0xB00 JUMPI PUSH1 0x40 MLOAD PUSH32 0x8C379A000000000000000000000000000000000000000000000000000000000 DUP2 MSTORE PUSH1 0x4 ADD PUSH2 0xAF7 SWAP1 PUSH2 0x419B JUMP JUMPDEST PUSH1 0x40 MLOAD DUP1 SWAP2 SUB SWAP1 REVERT JUMPDEST PUSH1 0x0 DUP4 MLOAD PUSH8 0xFFFFFFFFFFFFFFFF DUP2 GT ISZERO PUSH2 0xB1D JUMPI PUSH2 0xB1C PUSH2 0x3542 JUMP JUMPDEST JUMPDEST PUSH1 0x40 MLOAD SWAP1 DUP1 DUP3 MSTORE DUP1 PUSH1 0x20 MUL PUSH1 0x20 ADD DUP3 ADD PUSH1 0x40 MSTORE DUP1 ISZERO PUSH2 0xB4B JUMPI DUP2 PUSH1 0x20 ADD PUSH1 0x20 DUP3 MUL DUP1 CALLDATASIZE DUP4 CALLDATACOPY DUP1 DUP3 ADD SWAP2 POP POP SWAP1 POP JUMPDEST POP SWAP1 POP PUSH1 0x0 JUMPDEST DUP5 MLOAD DUP2 LT ISZERO PUSH2 0xBC8 JUMPI PUSH2 0xB98 DUP6 DUP3 DUP2 MLOAD DUP2 LT PUSH2 0xB70 JUMPI PUSH2 0xB6F PUSH2 0x41BB JUMP JUMPDEST JUMPDEST PUSH1 0x20 MUL PUSH1 0x20 ADD ADD MLOAD DUP6 DUP4 DUP2 MLOAD DUP2 LT PUSH2 0xB8B JUMPI PUSH2 0xB8A PUSH2 0x41BB JUMP JUMPDEST JUMPDEST PUSH1 0x20 MUL PUSH1 0x20 ADD ADD MLOAD PUSH2 0x6ED JUMP JUMPDEST DUP3 DUP3 DUP2 MLOAD DUP2 LT PUSH2 0xBAB JUMPI PUSH2 0xBAA PUSH2 0x41BB JUMP JUMPDEST JUMPDEST PUSH1 0x20 MUL PUSH1 0x20 ADD ADD DUP2 DUP2 MSTORE POP POP DUP1 PUSH2 0xBC1 SWAP1 PUSH2 0x40B8 JUMP JUMPDEST SWAP1 POP PUSH2 0xB51 JUMP JUMPDEST POP DUP1 SWAP2 POP POP SWAP3 SWAP2 POP POP JUMP JUMPDEST PUSH1 0x0 PUSH1 0x7 PUSH1 0x0 DUP7 DUP2 MSTORE PUSH1 0x20 ADD SWAP1 DUP2 MSTORE PUSH1 0x20 ADD PUSH1 0x0 KECCAK256 PUSH1 0x1 ADD SLOAD EQ PUSH2 0xC2C JUMPI PUSH1 0x40 MLOAD PUSH32 0x8C379A000000000000000000000000000000000000000000000000000000000 DUP2 MSTORE PUSH1 0x4 ADD PUSH2 0xC23 SWAP1 PUSH2 0x4236 JUMP JUMPDEST PUSH1 0x40 MLOAD DUP1 SWAP2 SUB SWAP1 REVERT JUMPDEST CALLER PUSH20 0xFFFFFFFFFFFFFFFFFFFFFFFFFFFFFFFFFFFFFFFF AND DUP7 PUSH20 0xFFFFFFFFFFFFFFFFFFFFFFFFFFFFFFFFFFFFFFFF AND EQ PUSH2 0xC9A JUMPI PUSH1 0x40 MLOAD PUSH32 0x8C379A000000000000000000000000000000000000000000000000000000000 DUP2 MSTORE PUSH1 0x4 ADD PUSH2 0xC91 SWAP1 PUSH2 0x42A2 JUMP JUMPDEST PUSH1 0x40 MLOAD DUP1 SWAP2 SUB SWAP1 REVERT JUMPDEST PUSH1 0x0 PUSH1 0x40 MLOAD DUP1 PUSH1 0x40 ADD PUSH1 0x40 MSTORE DUP1 PUSH1 0x13 DUP2 MSTORE PUSH1 0x20 ADD PUSH32 0x66756E6464696E67206973207365636365737300000000000000000000000000 DUP2 MSTORE POP SWAP1 POP PUSH1 0x0 PUSH2 0xCE2 DUP9 DUP7 DUP7 DUP7 PUSH2 0x2262 JUMP JUMPDEST SWAP1 POP DUP1 PUSH1 0x7 PUSH1 0x0 DUP9 DUP2 MSTORE PUSH1 0x20 ADD SWAP1 DUP2 MSTORE PUSH1 0x20 ADD PUSH1 0x0 KECCAK256 PUSH1 0x0 DUP3 ADD MLOAD DUP2 PUSH1 0x0 ADD PUSH1 0x0 PUSH2 0x100 EXP DUP2 SLOAD DUP2 PUSH20 0xFFFFFFFFFFFFFFFFFFFFFFFFFFFFFFFFFFFFFFFF MUL NOT AND SWAP1 DUP4 PUSH20 0xFFFFFFFFFFFFFFFFFFFFFFFFFFFFFFFFFFFFFFFF AND MUL OR SWAP1 SSTORE POP PUSH1 0x20 DUP3 ADD MLOAD DUP2 PUSH1 0x1 ADD SSTORE PUSH1 0x40 DUP3 ADD MLOAD DUP2 PUSH1 0x2 ADD SSTORE PUSH1 0x60 DUP3 ADD MLOAD DUP2 PUSH1 0x3 ADD SSTORE PUSH1 0x80 DUP3 ADD MLOAD DUP2 PUSH1 0x4 ADD SSTORE PUSH1 0xA0 DUP3 ADD MLOAD DUP2 PUSH1 0x5 ADD PUSH1 0x0 PUSH2 0x100 EXP DUP2 SLOAD DUP2 PUSH1 0xFF MUL NOT AND SWAP1 DUP4 ISZERO ISZERO MUL OR SWAP1 SSTORE POP SWAP1 POP POP PUSH2 0xDA5 DUP9 DUP8 DUP8 PUSH1 0x40 MLOAD DUP1 PUSH1 0x20 ADD PUSH1 0x40 MSTORE DUP1 PUSH1 0x0 DUP2 MSTORE POP PUSH2 0x233E JUMP JUMPDEST PUSH2 0xDB0 DUP8 PUSH1 0x1 PUSH2 0x1303 JUMP JUMPDEST PUSH1 0x4 DUP7 SWAP1 DUP1 PUSH1 0x1 DUP2 SLOAD ADD DUP1 DUP3 SSTORE DUP1 SWAP2 POP POP PUSH1 0x1 SWAP1 SUB SWAP1 PUSH1 0x0 MSTORE PUSH1 0x20 PUSH1 0x0 KECCAK256 ADD PUSH1 0x0 SWAP1 SWAP2 SWAP1 SWAP2 SWAP1 SWAP2 POP SSTORE PUSH32 0x8BDC0347739A882305E00B5FA613E8629B5DA77A48ABAC45661315C45619C548 CALLER DUP8 DUP8 DUP8 DUP8 DUP8 PUSH1 0x40 MLOAD PUSH2 0xE12 SWAP7 SWAP6 SWAP5 SWAP4 SWAP3 SWAP2 SWAP1 PUSH2 0x42C2 JUMP JUMPDEST PUSH1 0x40 MLOAD DUP1 SWAP2 SUB SWAP1 LOG1 POP POP POP POP POP POP POP POP JUMP JUMPDEST PUSH2 0xE2C PUSH2 0x24EE JUMP JUMPDEST PUSH2 0xE36 PUSH1 0x0 PUSH2 0x256C JUMP JUMPDEST JUMP JUMPDEST PUSH1 0x5 PUSH1 0x0 SWAP1 SLOAD SWAP1 PUSH2 0x100 EXP SWAP1 DIV PUSH20 0xFFFFFFFFFFFFFFFFFFFFFFFFFFFFFFFFFFFFFFFF AND PUSH20 0xFFFFFFFFFFFFFFFFFFFFFFFFFFFFFFFFFFFFFFFF AND CALLER PUSH20 0xFFFFFFFFFFFFFFFFFFFFFFFFFFFFFFFFFFFFFFFF AND EQ PUSH2 0xE92 JUMPI PUSH1 0x0 DUP1 REVERT JUMPDEST PUSH2 0xE9D DUP4 DUP4 DUP4 PUSH2 0x2632 JUMP JUMPDEST POP POP POP JUMP JUMPDEST PUSH1 0x60 PUSH1 0x4 DUP1 SLOAD DUP1 PUSH1 0x20 MUL PUSH1 0x20 ADD PUSH1 0x40 MLOAD SWAP1 DUP2 ADD PUSH1 0x40 MSTORE DUP1 SWAP3 SWAP2 SWAP1 DUP2 DUP2 MSTORE PUSH1 0x20 ADD DUP3 DUP1 SLOAD DUP1 ISZERO PUSH2 0xEF0 JUMPI PUSH1 0x20 MUL DUP3 ADD SWAP2 SWAP1 PUSH1 0x0 MSTORE PUSH1 0x20 PUSH1 0x0 KECCAK256 SWAP1 JUMPDEST DUP2 SLOAD DUP2 MSTORE PUSH1 0x20 ADD SWAP1 PUSH1 0x1 ADD SWAP1 DUP1 DUP4 GT PUSH2 0xEDC JUMPI JUMPDEST POP POP POP POP POP SWAP1 POP SWAP1 JUMP JUMPDEST PUSH2 0xF05 DUP2 PUSH1 0x1 PUSH2 0x1303 JUMP JUMPDEST POP JUMP JUMPDEST PUSH2 0xF10 PUSH2 0x318B JUMP JUMPDEST PUSH1 0x7 PUSH1 0x0 DUP4 DUP2 MSTORE PUSH1 0x20 ADD SWAP1 DUP2 MSTORE PUSH1 0x20 ADD PUSH1 0x0 KECCAK256 PUSH1 0x40 MLOAD DUP1 PUSH1 0xC0 ADD PUSH1 0x40 MSTORE SWAP1 DUP2 PUSH1 0x0 DUP3 ADD PUSH1 0x0 SWAP1 SLOAD SWAP1 PUSH2 0x100 EXP SWAP1 DIV PUSH20 0xFFFFFFFFFFFFFFFFFFFFFFFFFFFFFFFFFFFFFFFF AND PUSH20 0xFFFFFFFFFFFFFFFFFFFFFFFFFFFFFFFFFFFFFFFF AND PUSH20 0xFFFFFFFFFFFFFFFFFFFFFFFFFFFFFFFFFFFFFFFF AND DUP2 MSTORE PUSH1 0x20 ADD PUSH1 0x1 DUP3 ADD SLOAD DUP2 MSTORE PUSH1 0x20 ADD PUSH1 0x2 DUP3 ADD SLOAD DUP2 MSTORE PUSH1 0x20 ADD PUSH1 0x3 DUP3 ADD SLOAD DUP2 MSTORE PUSH1 0x20 ADD PUSH1 0x4 DUP3 ADD SLOAD DUP2 MSTORE PUSH1 0x20 ADD PUSH1 0x5 DUP3 ADD PUSH1 0x0 SWAP1 SLOAD SWAP1 PUSH2 0x100 EXP SWAP1 DIV PUSH1 0xFF AND ISZERO ISZERO ISZERO ISZERO DUP2 MSTORE POP POP SWAP1 POP SWAP2 SWAP1 POP JUMP JUMPDEST PUSH1 0x0 PUSH1 0x3 PUSH1 0x0 SWAP1 SLOAD SWAP1 PUSH2 0x100 EXP SWAP1 DIV PUSH20 0xFFFFFFFFFFFFFFFFFFFFFFFFFFFFFFFFFFFFFFFF AND SWAP1 POP SWAP1 JUMP JUMPDEST CALLER PUSH20 0xFFFFFFFFFFFFFFFFFFFFFFFFFFFFFFFFFFFFFFFF AND PUSH1 0xA PUSH1 0x0 DUP6 DUP2 MSTORE PUSH1 0x20 ADD SWAP1 DUP2 MSTORE PUSH1 0x20 ADD PUSH1 0x0 KECCAK256 PUSH1 0x0 DUP4 DUP2 MSTORE PUSH1 0x20 ADD SWAP1 DUP2 MSTORE PUSH1 0x20 ADD PUSH1 0x0 KECCAK256 PUSH1 0x0 ADD PUSH1 0x0 SWAP1 SLOAD SWAP1 PUSH2 0x100 EXP SWAP1 DIV PUSH20 0xFFFFFFFFFFFFFFFFFFFFFFFFFFFFFFFFFFFFFFFF AND PUSH20 0xFFFFFFFFFFFFFFFFFFFFFFFFFFFFFFFFFFFFFFFF AND SUB PUSH2 0x10AD JUMPI PUSH1 0x40 MLOAD PUSH32 0x8C379A000000000000000000000000000000000000000000000000000000000 DUP2 MSTORE PUSH1 0x4 ADD PUSH2 0x10A4 SWAP1 PUSH2 0x4376 JUMP JUMPDEST PUSH1 0x40 MLOAD DUP1 SWAP2 SUB SWAP1 REVERT JUMPDEST PUSH1 0x0 DUP3 GT DUP1 ISZERO PUSH2 0x10E4 JUMPI POP PUSH1 0xA PUSH1 0x0 DUP5 DUP2 MSTORE PUSH1 0x20 ADD SWAP1 DUP2 MSTORE PUSH1 0x20 ADD PUSH1 0x0 KECCAK256 PUSH1 0x0 DUP3 DUP2 MSTORE PUSH1 0x20 ADD SWAP1 DUP2 MSTORE PUSH1 0x20 ADD PUSH1 0x0 KECCAK256 PUSH1 0x1 ADD SLOAD DUP3 GT ISZERO JUMPDEST PUSH2 0x1123 JUMPI PUSH1 0x40 MLOAD PUSH32 0x8C379A000000000000000000000000000000000000000000000000000000000 DUP2 MSTORE PUSH1 0x4 ADD PUSH2 0x111A SWAP1 PUSH2 0x43E2 JUMP JUMPDEST PUSH1 0x40 MLOAD DUP1 SWAP2 SUB SWAP1 REVERT JUMPDEST CALLVALUE PUSH1 0xA PUSH1 0x0 DUP6 DUP2 MSTORE PUSH1 0x20 ADD SWAP1 DUP2 MSTORE PUSH1 0x20 ADD PUSH1 0x0 KECCAK256 PUSH1 0x0 DUP4 DUP2 MSTORE PUSH1 0x20 ADD SWAP1 DUP2 MSTORE PUSH1 0x20 ADD PUSH1 0x0 KECCAK256 PUSH1 0x2 ADD SLOAD DUP4 PUSH2 0x1157 SWAP2 SWAP1 PUSH2 0x4402 JUMP JUMPDEST EQ PUSH2 0x1197 JUMPI PUSH1 0x40 MLOAD PUSH32 0x8C379A000000000000000000000000000000000000000000000000000000000 DUP2 MSTORE PUSH1 0x4 ADD PUSH2 0x118E SWAP1 PUSH2 0x4490 JUMP JUMPDEST PUSH1 0x40 MLOAD DUP1 SWAP2 SUB SWAP1 REVERT JUMPDEST PUSH1 0x0 PUSH2 0x11B7 PUSH2 0x11B0 PUSH1 0xA CALLVALUE PUSH2 0x2878 SWAP1 SWAP2 SWAP1 PUSH4 0xFFFFFFFF AND JUMP JUMPDEST PUSH1 0x64 PUSH2 0x288E JUMP JUMPDEST SWAP1 POP DUP5 PUSH20 0xFFFFFFFFFFFFFFFFFFFFFFFFFFFFFFFFFFFFFFFF AND PUSH2 0x8FC DUP3 CALLVALUE PUSH2 0x11DF SWAP2 SWAP1 PUSH2 0x44B0 JUMP JUMPDEST SWAP1 DUP2 ISZERO MUL SWAP1 PUSH1 0x40 MLOAD PUSH1 0x0 PUSH1 0x40 MLOAD DUP1 DUP4 SUB DUP2 DUP6 DUP9 DUP9 CALL SWAP4 POP POP POP POP ISZERO DUP1 ISZERO PUSH2 0x120A JUMPI RETURNDATASIZE PUSH1 0x0 DUP1 RETURNDATACOPY RETURNDATASIZE PUSH1 0x0 REVERT JUMPDEST POP DUP3 PUSH1 0xA PUSH1 0x0 DUP7 DUP2 MSTORE PUSH1 0x20 ADD SWAP1 DUP2 MSTORE PUSH1 0x20 ADD PUSH1 0x0 KECCAK256 PUSH1 0x0 DUP5 DUP2 MSTORE PUSH1 0x20 ADD SWAP1 DUP2 MSTORE PUSH1 0x20 ADD PUSH1 0x0 KECCAK256 PUSH1 0x1 ADD SLOAD PUSH2 0x123E SWAP2 SWAP1 PUSH2 0x44B0 JUMP JUMPDEST PUSH1 0xA PUSH1 0x0 DUP7 DUP2 MSTORE PUSH1 0x20 ADD SWAP1 DUP2 MSTORE PUSH1 0x20 ADD PUSH1 0x0 KECCAK256 PUSH1 0x0 DUP5 DUP2 MSTORE PUSH1 0x20 ADD SWAP1 DUP2 MSTORE PUSH1 0x20 ADD PUSH1 0x0 KECCAK256 PUSH1 0x1 ADD DUP2 SWAP1 SSTORE POP PUSH1 0x8 PUSH1 0x0 SWAP1 SLOAD SWAP1 PUSH2 0x100 EXP SWAP1 DIV PUSH20 0xFFFFFFFFFFFFFFFFFFFFFFFFFFFFFFFFFFFFFFFF AND PUSH20 0xFFFFFFFFFFFFFFFFFFFFFFFFFFFFFFFFFFFFFFFF AND PUSH4 0xF242432A DUP7 CALLER DUP8 DUP8 PUSH1 0x40 MLOAD DUP6 PUSH4 0xFFFFFFFF AND PUSH1 0xE0 SHL DUP2 MSTORE PUSH1 0x4 ADD PUSH2 0x12CA SWAP5 SWAP4 SWAP3 SWAP2 SWAP1 PUSH2 0x453C JUMP JUMPDEST PUSH1 0x0 PUSH1 0x40 MLOAD DUP1 DUP4 SUB DUP2 PUSH1 0x0 DUP8 DUP1 EXTCODESIZE ISZERO DUP1 ISZERO PUSH2 0x12E4 JUMPI PUSH1 0x0 DUP1 REVERT JUMPDEST POP GAS CALL ISZERO DUP1 ISZERO PUSH2 0x12F8 JUMPI RETURNDATASIZE PUSH1 0x0 DUP1 RETURNDATACOPY RETURNDATASIZE PUSH1 0x0 REVERT JUMPDEST POP POP POP POP POP POP POP POP POP JUMP JUMPDEST PUSH2 0x1315 PUSH2 0x130E PUSH2 0x1F39 JUMP JUMPDEST DUP4 DUP4 PUSH2 0x28A4 JUMP JUMPDEST POP POP JUMP JUMPDEST PUSH1 0x0 PUSH1 0x9 PUSH1 0x0 DUP4 DUP2 MSTORE PUSH1 0x20 ADD SWAP1 DUP2 MSTORE PUSH1 0x20 ADD PUSH1 0x0 KECCAK256 SLOAD SWAP1 POP SWAP2 SWAP1 POP JUMP JUMPDEST CALLER PUSH20 0xFFFFFFFFFFFFFFFFFFFFFFFFFFFFFFFFFFFFFFFF AND DUP2 PUSH20 0xFFFFFFFFFFFFFFFFFFFFFFFFFFFFFFFFFFFFFFFF AND EQ PUSH2 0x13A4 JUMPI PUSH1 0x40 MLOAD PUSH32 0x8C379A000000000000000000000000000000000000000000000000000000000 DUP2 MSTORE PUSH1 0x4 ADD PUSH2 0x139B SWAP1 PUSH2 0x45E0 JUMP JUMPDEST PUSH1 0x40 MLOAD DUP1 SWAP2 SUB SWAP1 REVERT JUMPDEST DUP1 PUSH1 0x5 PUSH1 0x0 PUSH2 0x100 EXP DUP2 SLOAD DUP2 PUSH20 0xFFFFFFFFFFFFFFFFFFFFFFFFFFFFFFFFFFFFFFFF MUL NOT AND SWAP1 DUP4 PUSH20 0xFFFFFFFFFFFFFFFFFFFFFFFFFFFFFFFFFFFFFFFF AND MUL OR SWAP1 SSTORE POP DUP1 PUSH1 0x6 PUSH1 0x0 PUSH2 0x100 EXP DUP2 SLOAD DUP2 PUSH20 0xFFFFFFFFFFFFFFFFFFFFFFFFFFFFFFFFFFFFFFFF MUL NOT AND SWAP1 DUP4 PUSH20 0xFFFFFFFFFFFFFFFFFFFFFFFFFFFFFFFFFFFFFFFF AND MUL OR SWAP1 SSTORE POP POP JUMP JUMPDEST PUSH1 0x0 PUSH2 0x146B PUSH1 0x7 PUSH1 0x0 DUP5 DUP2 MSTORE PUSH1 0x20 ADD SWAP1 DUP2 MSTORE PUSH1 0x20 ADD PUSH1 0x0 KECCAK256 PUSH1 0x0 ADD PUSH1 0x0 SWAP1 SLOAD SWAP1 PUSH2 0x100 EXP SWAP1 DIV PUSH20 0xFFFFFFFFFFFFFFFFFFFFFFFFFFFFFFFFFFFFFFFF AND DUP4 PUSH2 0x1E07 JUMP JUMPDEST EQ PUSH2 0x14AB JUMPI PUSH1 0x40 MLOAD PUSH32 0x8C379A000000000000000000000000000000000000000000000000000000000 DUP2 MSTORE PUSH1 0x4 ADD PUSH2 0x14A2 SWAP1 PUSH2 0x464C JUMP JUMPDEST PUSH1 0x40 MLOAD DUP1 SWAP2 SUB SWAP1 REVERT JUMPDEST PUSH1 0x7 PUSH1 0x0 DUP3 DUP2 MSTORE PUSH1 0x20 ADD SWAP1 DUP2 MSTORE PUSH1 0x20 ADD PUSH1 0x0 KECCAK256 PUSH1 0x1 ADD SLOAD PUSH1 0x6 PUSH1 0x0 SWAP1 SLOAD SWAP1 PUSH2 0x100 EXP SWAP1 DIV PUSH20 0xFFFFFFFFFFFFFFFFFFFFFFFFFFFFFFFFFFFFFFFF AND PUSH20 0xFFFFFFFFFFFFFFFFFFFFFFFFFFFFFFFFFFFFFFFF AND PUSH4 0x49E5465C DUP4 PUSH1 0x40 MLOAD DUP3 PUSH4 0xFFFFFFFF AND PUSH1 0xE0 SHL DUP2 MSTORE PUSH1 0x4 ADD PUSH2 0x151D SWAP2 SWAP1 PUSH2 0x330E JUMP JUMPDEST PUSH1 0x20 PUSH1 0x40 MLOAD DUP1 DUP4 SUB DUP2 DUP7 GAS STATICCALL ISZERO DUP1 ISZERO PUSH2 0x153A JUMPI RETURNDATASIZE PUSH1 0x0 DUP1 RETURNDATACOPY RETURNDATASIZE PUSH1 0x0 REVERT JUMPDEST POP POP POP POP PUSH1 0x40 MLOAD RETURNDATASIZE PUSH1 0x1F NOT PUSH1 0x1F DUP3 ADD AND DUP3 ADD DUP1 PUSH1 0x40 MSTORE POP DUP2 ADD SWAP1 PUSH2 0x155E SWAP2 SWAP1 PUSH2 0x4681 JUMP JUMPDEST EQ PUSH2 0x1568 JUMPI PUSH1 0x0 DUP1 REVERT JUMPDEST PUSH1 0x1 PUSH1 0x7 PUSH1 0x0 DUP4 DUP2 MSTORE PUSH1 0x20 ADD SWAP1 DUP2 MSTORE PUSH1 0x20 ADD PUSH1 0x0 KECCAK256 PUSH1 0x5 ADD PUSH1 0x0 PUSH2 0x100 EXP DUP2 SLOAD DUP2 PUSH1 0xFF MUL NOT AND SWAP1 DUP4 ISZERO ISZERO MUL OR SWAP1 SSTORE POP POP JUMP JUMPDEST PUSH2 0x15A2 PUSH2 0x31D9 JUMP JUMPDEST PUSH1 0xA PUSH1 0x0 DUP5 DUP2 MSTORE PUSH1 0x20 ADD SWAP1 DUP2 MSTORE PUSH1 0x20 ADD PUSH1 0x0 KECCAK256 PUSH1 0x0 DUP4 DUP2 MSTORE PUSH1 0x20 ADD SWAP1 DUP2 MSTORE PUSH1 0x20 ADD PUSH1 0x0 KECCAK256 PUSH1 0x40 MLOAD DUP1 PUSH1 0x80 ADD PUSH1 0x40 MSTORE SWAP1 DUP2 PUSH1 0x0 DUP3 ADD PUSH1 0x0 SWAP1 SLOAD SWAP1 PUSH2 0x100 EXP SWAP1 DIV PUSH20 0xFFFFFFFFFFFFFFFFFFFFFFFFFFFFFFFFFFFFFFFF AND PUSH20 0xFFFFFFFFFFFFFFFFFFFFFFFFFFFFFFFFFFFFFFFF AND PUSH20 0xFFFFFFFFFFFFFFFFFFFFFFFFFFFFFFFFFFFFFFFF AND DUP2 MSTORE PUSH1 0x20 ADD PUSH1 0x1 DUP3 ADD SLOAD DUP2 MSTORE PUSH1 0x20 ADD PUSH1 0x2 DUP3 ADD SLOAD DUP2 MSTORE PUSH1 0x20 ADD PUSH1 0x3 DUP3 ADD SLOAD DUP2 MSTORE POP POP SWAP1 POP SWAP3 SWAP2 POP POP JUMP JUMPDEST DUP3 PUSH1 0x0 PUSH1 0x9 PUSH1 0x0 DUP4 DUP2 MSTORE PUSH1 0x20 ADD SWAP1 DUP2 MSTORE PUSH1 0x20 ADD PUSH1 0x0 KECCAK256 SLOAD SWAP1 POP PUSH1 0x0 JUMPDEST DUP2 DUP2 GT PUSH2 0x176D JUMPI PUSH1 0x0 PUSH1 0xA PUSH1 0x0 DUP6 DUP2 MSTORE PUSH1 0x20 ADD SWAP1 DUP2 MSTORE PUSH1 0x20 ADD PUSH1 0x0 KECCAK256 PUSH1 0x0 DUP4 DUP2 MSTORE PUSH1 0x20 ADD SWAP1 DUP2 MSTORE PUSH1 0x20 ADD PUSH1 0x0 KECCAK256 PUSH1 0x1 ADD SLOAD EQ ISZERO DUP1 ISZERO PUSH2 0x171A JUMPI POP CALLER PUSH20 0xFFFFFFFFFFFFFFFFFFFFFFFFFFFFFFFFFFFFFFFF AND PUSH1 0xA PUSH1 0x0 DUP6 DUP2 MSTORE PUSH1 0x20 ADD SWAP1 DUP2 MSTORE PUSH1 0x20 ADD PUSH1 0x0 KECCAK256 PUSH1 0x0 DUP4 DUP2 MSTORE PUSH1 0x20 ADD SWAP1 DUP2 MSTORE PUSH1 0x20 ADD PUSH1 0x0 KECCAK256 PUSH1 0x0 ADD PUSH1 0x0 SWAP1 SLOAD SWAP1 PUSH2 0x100 EXP SWAP1 DIV PUSH20 0xFFFFFFFFFFFFFFFFFFFFFFFFFFFFFFFFFFFFFFFF AND PUSH20 0xFFFFFFFFFFFFFFFFFFFFFFFFFFFFFFFFFFFFFFFF AND EQ JUMPDEST ISZERO PUSH2 0x175A JUMPI PUSH1 0x40 MLOAD PUSH32 0x8C379A000000000000000000000000000000000000000000000000000000000 DUP2 MSTORE PUSH1 0x4 ADD PUSH2 0x1751 SWAP1 PUSH2 0x46FA JUMP JUMPDEST PUSH1 0x40 MLOAD DUP1 SWAP2 SUB SWAP1 REVERT JUMPDEST DUP1 DUP1 PUSH2 0x1765 SWAP1 PUSH2 0x40B8 JUMP JUMPDEST SWAP2 POP POP PUSH2 0x1669 JUMP JUMPDEST POP DUP4 PUSH1 0x8 PUSH1 0x0 SWAP1 SLOAD SWAP1 PUSH2 0x100 EXP SWAP1 DIV PUSH20 0xFFFFFFFFFFFFFFFFFFFFFFFFFFFFFFFFFFFFFFFF AND PUSH20 0xFFFFFFFFFFFFFFFFFFFFFFFFFFFFFFFFFFFFFFFF AND PUSH3 0xFDD58E CALLER DUP9 PUSH1 0x40 MLOAD DUP4 PUSH4 0xFFFFFFFF AND PUSH1 0xE0 SHL DUP2 MSTORE PUSH1 0x4 ADD PUSH2 0x17CB SWAP3 SWAP2 SWAP1 PUSH2 0x4100 JUMP JUMPDEST PUSH1 0x20 PUSH1 0x40 MLOAD DUP1 DUP4 SUB DUP2 DUP7 GAS STATICCALL ISZERO DUP1 ISZERO PUSH2 0x17E8 JUMPI RETURNDATASIZE PUSH1 0x0 DUP1 RETURNDATACOPY RETURNDATASIZE PUSH1 0x0 REVERT JUMPDEST POP POP POP POP PUSH1 0x40 MLOAD RETURNDATASIZE PUSH1 0x1F NOT PUSH1 0x1F DUP3 ADD AND DUP3 ADD DUP1 PUSH1 0x40 MSTORE POP DUP2 ADD SWAP1 PUSH2 0x180C SWAP2 SWAP1 PUSH2 0x4681 JUMP JUMPDEST LT ISZERO PUSH2 0x184D JUMPI PUSH1 0x40 MLOAD PUSH32 0x8C379A000000000000000000000000000000000000000000000000000000000 DUP2 MSTORE PUSH1 0x4 ADD PUSH2 0x1844 SWAP1 PUSH2 0x4766 JUMP JUMPDEST PUSH1 0x40 MLOAD DUP1 SWAP2 SUB SWAP1 REVERT JUMPDEST PUSH1 0x0 DUP4 GT PUSH2 0x1890 JUMPI PUSH1 0x40 MLOAD PUSH32 0x8C379A000000000000000000000000000000000000000000000000000000000 DUP2 MSTORE PUSH1 0x4 ADD PUSH2 0x1887 SWAP1 PUSH2 0x47D2 JUMP JUMPDEST PUSH1 0x40 MLOAD DUP1 SWAP2 SUB SWAP1 REVERT JUMPDEST PUSH1 0x0 DUP5 GT PUSH2 0x18D3 JUMPI PUSH1 0x40 MLOAD PUSH32 0x8C379A000000000000000000000000000000000000000000000000000000000 DUP2 MSTORE PUSH1 0x4 ADD PUSH2 0x18CA SWAP1 PUSH2 0x483E JUMP JUMPDEST PUSH1 0x40 MLOAD DUP1 SWAP2 SUB SWAP1 REVERT JUMPDEST PUSH1 0x8 PUSH1 0x0 SWAP1 SLOAD SWAP1 PUSH2 0x100 EXP SWAP1 DIV PUSH20 0xFFFFFFFFFFFFFFFFFFFFFFFFFFFFFFFFFFFFFFFF AND PUSH20 0xFFFFFFFFFFFFFFFFFFFFFFFFFFFFFFFFFFFFFFFF AND PUSH4 0xE985E9C5 CALLER ADDRESS PUSH1 0x40 MLOAD DUP4 PUSH4 0xFFFFFFFF AND PUSH1 0xE0 SHL DUP2 MSTORE PUSH1 0x4 ADD PUSH2 0x1930 SWAP3 SWAP2 SWAP1 PUSH2 0x485E JUMP JUMPDEST PUSH1 0x20 PUSH1 0x40 MLOAD DUP1 DUP4 SUB DUP2 DUP7 GAS STATICCALL ISZERO DUP1 ISZERO PUSH2 0x194D JUMPI RETURNDATASIZE PUSH1 0x0 DUP1 RETURNDATACOPY RETURNDATASIZE PUSH1 0x0 REVERT JUMPDEST POP POP POP POP PUSH1 0x40 MLOAD RETURNDATASIZE PUSH1 0x1F NOT PUSH1 0x1F DUP3 ADD AND DUP3 ADD DUP1 PUSH1 0x40 MSTORE POP DUP2 ADD SWAP1 PUSH2 0x1971 SWAP2 SWAP1 PUSH2 0x489C JUMP JUMPDEST PUSH2 0x19B0 JUMPI PUSH1 0x40 MLOAD PUSH32 0x8C379A000000000000000000000000000000000000000000000000000000000 DUP2 MSTORE PUSH1 0x4 ADD PUSH2 0x19A7 SWAP1 PUSH2 0x4915 JUMP JUMPDEST PUSH1 0x40 MLOAD DUP1 SWAP2 SUB SWAP1 REVERT JUMPDEST PUSH1 0x1 ISZERO ISZERO PUSH1 0x8 PUSH1 0x0 SWAP1 SLOAD SWAP1 PUSH2 0x100 EXP SWAP1 DIV PUSH20 0xFFFFFFFFFFFFFFFFFFFFFFFFFFFFFFFFFFFFFFFF AND PUSH20 0xFFFFFFFFFFFFFFFFFFFFFFFFFFFFFFFFFFFFFFFF AND PUSH4 0x8D63193D DUP8 PUSH1 0x40 MLOAD DUP3 PUSH4 0xFFFFFFFF AND PUSH1 0xE0 SHL DUP2 MSTORE PUSH1 0x4 ADD PUSH2 0x1A0F SWAP2 SWAP1 PUSH2 0x330E JUMP JUMPDEST PUSH1 0xC0 PUSH1 0x40 MLOAD DUP1 DUP4 SUB DUP2 DUP7 GAS STATICCALL ISZERO DUP1 ISZERO PUSH2 0x1A2C JUMPI RETURNDATASIZE PUSH1 0x0 DUP1 RETURNDATACOPY RETURNDATASIZE PUSH1 0x0 REVERT JUMPDEST POP POP POP POP PUSH1 0x40 MLOAD RETURNDATASIZE PUSH1 0x1F NOT PUSH1 0x1F DUP3 ADD AND DUP3 ADD DUP1 PUSH1 0x40 MSTORE POP DUP2 ADD SWAP1 PUSH2 0x1A50 SWAP2 SWAP1 PUSH2 0x49EF JUMP JUMPDEST PUSH1 0xA0 ADD MLOAD ISZERO ISZERO EQ PUSH2 0x1A96 JUMPI PUSH1 0x40 MLOAD PUSH32 0x8C379A000000000000000000000000000000000000000000000000000000000 DUP2 MSTORE PUSH1 0x4 ADD PUSH2 0x1A8D SWAP1 PUSH2 0x4A68 JUMP JUMPDEST PUSH1 0x40 MLOAD DUP1 SWAP2 SUB SWAP1 REVERT JUMPDEST PUSH1 0x0 PUSH2 0x1AA4 CALLER DUP8 DUP8 DUP8 PUSH2 0x2A10 JUMP JUMPDEST SWAP1 POP DUP1 PUSH1 0xA PUSH1 0x0 DUP9 DUP2 MSTORE PUSH1 0x20 ADD SWAP1 DUP2 MSTORE PUSH1 0x20 ADD PUSH1 0x0 KECCAK256 PUSH1 0x0 PUSH1 0x9 PUSH1 0x0 DUP11 DUP2 MSTORE PUSH1 0x20 ADD SWAP1 DUP2 MSTORE PUSH1 0x20 ADD PUSH1 0x0 KECCAK256 SLOAD DUP2 MSTORE PUSH1 0x20 ADD SWAP1 DUP2 MSTORE PUSH1 0x20 ADD PUSH1 0x0 KECCAK256 PUSH1 0x0 DUP3 ADD MLOAD DUP2 PUSH1 0x0 ADD PUSH1 0x0 PUSH2 0x100 EXP DUP2 SLOAD DUP2 PUSH20 0xFFFFFFFFFFFFFFFFFFFFFFFFFFFFFFFFFFFFFFFF MUL NOT AND SWAP1 DUP4 PUSH20 0xFFFFFFFFFFFFFFFFFFFFFFFFFFFFFFFFFFFFFFFF AND MUL OR SWAP1 SSTORE POP PUSH1 0x20 DUP3 ADD MLOAD DUP2 PUSH1 0x1 ADD SSTORE PUSH1 0x40 DUP3 ADD MLOAD DUP2 PUSH1 0x2 ADD SSTORE PUSH1 0x60 DUP3 ADD MLOAD DUP2 PUSH1 0x3 ADD SSTORE SWAP1 POP POP PUSH1 0x1 PUSH1 0x9 PUSH1 0x0 DUP9 DUP2 MSTORE PUSH1 0x20 ADD SWAP1 DUP2 MSTORE PUSH1 0x20 ADD PUSH1 0x0 KECCAK256 SLOAD PUSH2 0x1B66 SWAP2 SWAP1 PUSH2 0x4A88 JUMP JUMPDEST PUSH1 0x9 PUSH1 0x0 DUP9 DUP2 MSTORE PUSH1 0x20 ADD SWAP1 DUP2 MSTORE PUSH1 0x20 ADD PUSH1 0x0 KECCAK256 DUP2 SWAP1 SSTORE POP PUSH32 0xFD993C5A8B6FAC3440F45A4AA08E8D39FC18D59F8D66435D7C2D108508035DB4 CALLER DUP8 DUP8 DUP8 PUSH1 0x40 MLOAD PUSH2 0x1BB2 SWAP5 SWAP4 SWAP3 SWAP2 SWAP1 PUSH2 0x4ABC JUMP JUMPDEST PUSH1 0x40 MLOAD DUP1 SWAP2 SUB SWAP1 LOG1 POP POP POP POP POP POP JUMP JUMPDEST PUSH1 0x0 PUSH1 0x1 PUSH1 0x0 DUP5 PUSH20 0xFFFFFFFFFFFFFFFFFFFFFFFFFFFFFFFFFFFFFFFF AND PUSH20 0xFFFFFFFFFFFFFFFFFFFFFFFFFFFFFFFFFFFFFFFF AND DUP2 MSTORE PUSH1 0x20 ADD SWAP1 DUP2 MSTORE PUSH1 0x20 ADD PUSH1 0x0 KECCAK256 PUSH1 0x0 DUP4 PUSH20 0xFFFFFFFFFFFFFFFFFFFFFFFFFFFFFFFFFFFFFFFF AND PUSH20 0xFFFFFFFFFFFFFFFFFFFFFFFFFFFFFFFFFFFFFFFF AND DUP2 MSTORE PUSH1 0x20 ADD SWAP1 DUP2 MSTORE PUSH1 0x20 ADD PUSH1 0x0 KECCAK256 PUSH1 0x0 SWAP1 SLOAD SWAP1 PUSH2 0x100 EXP SWAP1 DIV PUSH1 0xFF AND SWAP1 POP SWAP3 SWAP2 POP POP JUMP JUMPDEST PUSH2 0x1C5E PUSH2 0x1F39 JUMP JUMPDEST PUSH20 0xFFFFFFFFFFFFFFFFFFFFFFFFFFFFFFFFFFFFFFFF AND DUP6 PUSH20 0xFFFFFFFFFFFFFFFFFFFFFFFFFFFFFFFFFFFFFFFF AND EQ DUP1 PUSH2 0x1CA4 JUMPI POP PUSH2 0x1CA3 DUP6 PUSH2 0x1C9E PUSH2 0x1F39 JUMP JUMPDEST PUSH2 0x1BC2 JUMP JUMPDEST JUMPDEST PUSH2 0x1CE3 JUMPI PUSH1 0x40 MLOAD PUSH32 0x8C379A000000000000000000000000000000000000000000000000000000000 DUP2 MSTORE PUSH1 0x4 ADD PUSH2 0x1CDA SWAP1 PUSH2 0x4069 JUMP JUMPDEST PUSH1 0x40 MLOAD DUP1 SWAP2 SUB SWAP1 REVERT JUMPDEST PUSH2 0x1CF0 DUP6 DUP6 DUP6 DUP6 DUP6 PUSH2 0x2A95 JUMP JUMPDEST POP POP POP POP POP JUMP JUMPDEST PUSH2 0x1CFF PUSH2 0x24EE JUMP JUMPDEST PUSH1 0x0 PUSH20 0xFFFFFFFFFFFFFFFFFFFFFFFFFFFFFFFFFFFFFFFF AND DUP2 PUSH20 0xFFFFFFFFFFFFFFFFFFFFFFFFFFFFFFFFFFFFFFFF AND SUB PUSH2 0x1D6E JUMPI PUSH1 0x40 MLOAD PUSH32 0x8C379A000000000000000000000000000000000000000000000000000000000 DUP2 MSTORE PUSH1 0x4 ADD PUSH2 0x1D65 SWAP1 PUSH2 0x4B73 JUMP JUMPDEST PUSH1 0x40 MLOAD DUP1 SWAP2 SUB SWAP1 REVERT JUMPDEST PUSH2 0x1D77 DUP2 PUSH2 0x256C JUMP JUMPDEST POP JUMP JUMPDEST PUSH1 0x7 PUSH1 0x20 MSTORE DUP1 PUSH1 0x0 MSTORE PUSH1 0x40 PUSH1 0x0 KECCAK256 PUSH1 0x0 SWAP2 POP SWAP1 POP DUP1 PUSH1 0x0 ADD PUSH1 0x0 SWAP1 SLOAD SWAP1 PUSH2 0x100 EXP SWAP1 DIV PUSH20 0xFFFFFFFFFFFFFFFFFFFFFFFFFFFFFFFFFFFFFFFF AND SWAP1 DUP1 PUSH1 0x1 ADD SLOAD SWAP1 DUP1 PUSH1 0x2 ADD SLOAD SWAP1 DUP1 PUSH1 0x3 ADD SLOAD SWAP1 DUP1 PUSH1 0x4 ADD SLOAD SWAP1 DUP1 PUSH1 0x5 ADD PUSH1 0x0 SWAP1 SLOAD SWAP1 PUSH2 0x100 EXP SWAP1 DIV PUSH1 0xFF AND SWAP1 POP DUP7 JUMP JUMPDEST PUSH1 0x4 DUP2 DUP2 SLOAD DUP2 LT PUSH2 0x1DF3 JUMPI PUSH1 0x0 DUP1 REVERT JUMPDEST SWAP1 PUSH1 0x0 MSTORE PUSH1 0x20 PUSH1 0x0 KECCAK256 ADD PUSH1 0x0 SWAP2 POP SWAP1 POP SLOAD DUP2 JUMP JUMPDEST PUSH1 0x0 DUP1 PUSH20 0xFFFFFFFFFFFFFFFFFFFFFFFFFFFFFFFFFFFFFFFF AND DUP4 PUSH20 0xFFFFFFFFFFFFFFFFFFFFFFFFFFFFFFFFFFFFFFFF AND SUB PUSH2 0x1E77 JUMPI PUSH1 0x40 MLOAD PUSH32 0x8C379A000000000000000000000000000000000000000000000000000000000 DUP2 MSTORE PUSH1 0x4 ADD PUSH2 0x1E6E SWAP1 PUSH2 0x4C05 JUMP JUMPDEST PUSH1 0x40 MLOAD DUP1 SWAP2 SUB SWAP1 REVERT JUMPDEST PUSH1 0x0 DUP1 DUP4 DUP2 MSTORE PUSH1 0x20 ADD SWAP1 DUP2 MSTORE PUSH1 0x20 ADD PUSH1 0x0 KECCAK256 PUSH1 0x0 DUP5 PUSH20 0xFFFFFFFFFFFFFFFFFFFFFFFFFFFFFFFFFFFFFFFF AND PUSH20 0xFFFFFFFFFFFFFFFFFFFFFFFFFFFFFFFFFFFFFFFF AND DUP2 MSTORE PUSH1 0x20 ADD SWAP1 DUP2 MSTORE PUSH1 0x20 ADD PUSH1 0x0 KECCAK256 SLOAD SWAP1 POP SWAP3 SWAP2 POP POP JUMP JUMPDEST PUSH1 0x0 PUSH32 0x1FFC9A700000000000000000000000000000000000000000000000000000000 PUSH28 0xFFFFFFFFFFFFFFFFFFFFFFFFFFFFFFFFFFFFFFFFFFFFFFFFFFFFFFFF NOT AND DUP3 PUSH28 0xFFFFFFFFFFFFFFFFFFFFFFFFFFFFFFFFFFFFFFFFFFFFFFFFFFFFFFFF NOT AND EQ SWAP1 POP SWAP2 SWAP1 POP JUMP JUMPDEST PUSH1 0x0 CALLER SWAP1 POP SWAP1 JUMP JUMPDEST DUP2 MLOAD DUP4 MLOAD EQ PUSH2 0x1F85 JUMPI PUSH1 0x40 MLOAD PUSH32 0x8C379A000000000000000000000000000000000000000000000000000000000 DUP2 MSTORE PUSH1 0x4 ADD PUSH2 0x1F7C SWAP1 PUSH2 0x4C97 JUMP JUMPDEST PUSH1 0x40 MLOAD DUP1 SWAP2 SUB SWAP1 REVERT JUMPDEST PUSH1 0x0 PUSH20 0xFFFFFFFFFFFFFFFFFFFFFFFFFFFFFFFFFFFFFFFF AND DUP5 PUSH20 0xFFFFFFFFFFFFFFFFFFFFFFFFFFFFFFFFFFFFFFFF AND SUB PUSH2 0x1FF4 JUMPI PUSH1 0x40 MLOAD PUSH32 0x8C379A000000000000000000000000000000000000000000000000000000000 DUP2 MSTORE PUSH1 0x4 ADD PUSH2 0x1FEB SWAP1 PUSH2 0x4D29 JUMP JUMPDEST PUSH1 0x40 MLOAD DUP1 SWAP2 SUB SWAP1 REVERT JUMPDEST PUSH1 0x0 PUSH2 0x1FFE PUSH2 0x1F39 JUMP JUMPDEST SWAP1 POP PUSH2 0x200E DUP2 DUP8 DUP8 DUP8 DUP8 DUP8 PUSH2 0x2D30 JUMP JUMPDEST PUSH1 0x0 JUMPDEST DUP5 MLOAD DUP2 LT ISZERO PUSH2 0x21BF JUMPI PUSH1 0x0 DUP6 DUP3 DUP2 MLOAD DUP2 LT PUSH2 0x202F JUMPI PUSH2 0x202E PUSH2 0x41BB JUMP JUMPDEST JUMPDEST PUSH1 0x20 MUL PUSH1 0x20 ADD ADD MLOAD SWAP1 POP PUSH1 0x0 DUP6 DUP4 DUP2 MLOAD DUP2 LT PUSH2 0x204E JUMPI PUSH2 0x204D PUSH2 0x41BB JUMP JUMPDEST JUMPDEST PUSH1 0x20 MUL PUSH1 0x20 ADD ADD MLOAD SWAP1 POP PUSH1 0x0 DUP1 PUSH1 0x0 DUP5 DUP2 MSTORE PUSH1 0x20 ADD SWAP1 DUP2 MSTORE PUSH1 0x20 ADD PUSH1 0x0 KECCAK256 PUSH1 0x0 DUP12 PUSH20 0xFFFFFFFFFFFFFFFFFFFFFFFFFFFFFFFFFFFFFFFF AND PUSH20 0xFFFFFFFFFFFFFFFFFFFFFFFFFFFFFFFFFFFFFFFF AND DUP2 MSTORE PUSH1 0x20 ADD SWAP1 DUP2 MSTORE PUSH1 0x20 ADD PUSH1 0x0 KECCAK256 SLOAD SWAP1 POP DUP2 DUP2 LT ISZERO PUSH2 0x20EF JUMPI PUSH1 0x40 MLOAD PUSH32 0x8C379A000000000000000000000000000000000000000000000000000000000 DUP2 MSTORE PUSH1 0x4 ADD PUSH2 0x20E6 SWAP1 PUSH2 0x4DBB JUMP JUMPDEST PUSH1 0x40 MLOAD DUP1 SWAP2 SUB SWAP1 REVERT JUMPDEST DUP2 DUP2 SUB PUSH1 0x0 DUP1 DUP6 DUP2 MSTORE PUSH1 0x20 ADD SWAP1 DUP2 MSTORE PUSH1 0x20 ADD PUSH1 0x0 KECCAK256 PUSH1 0x0 DUP13 PUSH20 0xFFFFFFFFFFFFFFFFFFFFFFFFFFFFFFFFFFFFFFFF AND PUSH20 0xFFFFFFFFFFFFFFFFFFFFFFFFFFFFFFFFFFFFFFFF AND DUP2 MSTORE PUSH1 0x20 ADD SWAP1 DUP2 MSTORE PUSH1 0x20 ADD PUSH1 0x0 KECCAK256 DUP2 SWAP1 SSTORE POP DUP2 PUSH1 0x0 DUP1 DUP6 DUP2 MSTORE PUSH1 0x20 ADD SWAP1 DUP2 MSTORE PUSH1 0x20 ADD PUSH1 0x0 KECCAK256 PUSH1 0x0 DUP12 PUSH20 0xFFFFFFFFFFFFFFFFFFFFFFFFFFFFFFFFFFFFFFFF AND PUSH20 0xFFFFFFFFFFFFFFFFFFFFFFFFFFFFFFFFFFFFFFFF AND DUP2 MSTORE PUSH1 0x20 ADD SWAP1 DUP2 MSTORE PUSH1 0x20 ADD PUSH1 0x0 KECCAK256 PUSH1 0x0 DUP3 DUP3 SLOAD PUSH2 0x21A4 SWAP2 SWAP1 PUSH2 0x4A88 JUMP JUMPDEST SWAP3 POP POP DUP2 SWAP1 SSTORE POP POP POP POP DUP1 PUSH2 0x21B8 SWAP1 PUSH2 0x40B8 JUMP JUMPDEST SWAP1 POP PUSH2 0x2011 JUMP JUMPDEST POP DUP5 PUSH20 0xFFFFFFFFFFFFFFFFFFFFFFFFFFFFFFFFFFFFFFFF AND DUP7 PUSH20 0xFFFFFFFFFFFFFFFFFFFFFFFFFFFFFFFFFFFFFFFF AND DUP3 PUSH20 0xFFFFFFFFFFFFFFFFFFFFFFFFFFFFFFFFFFFFFFFF AND PUSH32 0x4A39DC06D4C0DBC64B70AF90FD698A233A518AA5D07E595D983B8C0526C8F7FB DUP8 DUP8 PUSH1 0x40 MLOAD PUSH2 0x2236 SWAP3 SWAP2 SWAP1 PUSH2 0x4DDB JUMP JUMPDEST PUSH1 0x40 MLOAD DUP1 SWAP2 SUB SWAP1 LOG4 PUSH2 0x224C DUP2 DUP8 DUP8 DUP8 DUP8 DUP8 PUSH2 0x2D38 JUMP JUMPDEST PUSH2 0x225A DUP2 DUP8 DUP8 DUP8 DUP8 DUP8 PUSH2 0x2D40 JUMP JUMPDEST POP POP POP POP POP POP JUMP JUMPDEST PUSH2 0x226A PUSH2 0x318B JUMP JUMPDEST PUSH2 0x2272 PUSH2 0x318B JUMP JUMPDEST PUSH1 0x0 DUP6 PUSH8 0xDE0B6B3A7640000 DUP7 PUSH2 0x2289 SWAP2 SWAP1 PUSH2 0x4402 JUMP JUMPDEST PUSH2 0x2293 SWAP2 SWAP1 PUSH2 0x4E41 JUMP JUMPDEST SWAP1 POP DUP7 DUP3 PUSH1 0x0 ADD SWAP1 PUSH20 0xFFFFFFFFFFFFFFFFFFFFFFFFFFFFFFFFFFFFFFFF AND SWAP1 DUP2 PUSH20 0xFFFFFFFFFFFFFFFFFFFFFFFFFFFFFFFFFFFFFFFF AND DUP2 MSTORE POP POP DUP6 DUP3 PUSH1 0x20 ADD DUP2 DUP2 MSTORE POP POP PUSH8 0xDE0B6B3A7640000 DUP6 PUSH2 0x22EB SWAP2 SWAP1 PUSH2 0x4402 JUMP JUMPDEST DUP3 PUSH1 0x40 ADD DUP2 DUP2 MSTORE POP POP DUP1 DUP3 PUSH1 0x60 ADD DUP2 DUP2 MSTORE POP POP DUP4 PUSH2 0x21C0 PUSH2 0x230C SWAP2 SWAP1 PUSH2 0x4402 JUMP JUMPDEST TIMESTAMP PUSH2 0x2317 SWAP2 SWAP1 PUSH2 0x4A88 JUMP JUMPDEST DUP3 PUSH1 0x80 ADD DUP2 DUP2 MSTORE POP POP PUSH1 0x0 DUP3 PUSH1 0xA0 ADD SWAP1 ISZERO ISZERO SWAP1 DUP2 ISZERO ISZERO DUP2 MSTORE POP POP DUP2 SWAP3 POP POP POP SWAP5 SWAP4 POP POP POP POP JUMP JUMPDEST PUSH1 0x0 PUSH20 0xFFFFFFFFFFFFFFFFFFFFFFFFFFFFFFFFFFFFFFFF AND DUP5 PUSH20 0xFFFFFFFFFFFFFFFFFFFFFFFFFFFFFFFFFFFFFFFF AND SUB PUSH2 0x23AD JUMPI PUSH1 0x40 MLOAD PUSH32 0x8C379A000000000000000000000000000000000000000000000000000000000 DUP2 MSTORE PUSH1 0x4 ADD PUSH2 0x23A4 SWAP1 PUSH2 0x4EE4 JUMP JUMPDEST PUSH1 0x40 MLOAD DUP1 SWAP2 SUB SWAP1 REVERT JUMPDEST PUSH1 0x0 PUSH2 0x23B7 PUSH2 0x1F39 JUMP JUMPDEST SWAP1 POP PUSH1 0x0 PUSH2 0x23C4 DUP6 PUSH2 0x2F17 JUMP JUMPDEST SWAP1 POP PUSH1 0x0 PUSH2 0x23D1 DUP6 PUSH2 0x2F17 JUMP JUMPDEST SWAP1 POP PUSH2 0x23E2 DUP4 PUSH1 0x0 DUP10 DUP6 DUP6 DUP10 PUSH2 0x2D30 JUMP JUMPDEST DUP5 PUSH1 0x0 DUP1 DUP9 DUP2 MSTORE PUSH1 0x20 ADD SWAP1 DUP2 MSTORE PUSH1 0x20 ADD PUSH1 0x0 KECCAK256 PUSH1 0x0 DUP10 PUSH20 0xFFFFFFFFFFFFFFFFFFFFFFFFFFFFFFFFFFFFFFFF AND PUSH20 0xFFFFFFFFFFFFFFFFFFFFFFFFFFFFFFFFFFFFFFFF AND DUP2 MSTORE PUSH1 0x20 ADD SWAP1 DUP2 MSTORE PUSH1 0x20 ADD PUSH1 0x0 KECCAK256 PUSH1 0x0 DUP3 DUP3 SLOAD PUSH2 0x2441 SWAP2 SWAP1 PUSH2 0x4A88 JUMP JUMPDEST SWAP3 POP POP DUP2 SWAP1 SSTORE POP DUP7 PUSH20 0xFFFFFFFFFFFFFFFFFFFFFFFFFFFFFFFFFFFFFFFF AND PUSH1 0x0 PUSH20 0xFFFFFFFFFFFFFFFFFFFFFFFFFFFFFFFFFFFFFFFF AND DUP5 PUSH20 0xFFFFFFFFFFFFFFFFFFFFFFFFFFFFFFFFFFFFFFFF AND PUSH32 0xC3D58168C5AE7397731D063D5BBF3D657854427343F4C083240F7AACAA2D0F62 DUP10 DUP10 PUSH1 0x40 MLOAD PUSH2 0x24BF SWAP3 SWAP2 SWAP1 PUSH2 0x4F04 JUMP JUMPDEST PUSH1 0x40 MLOAD DUP1 SWAP2 SUB SWAP1 LOG4 PUSH2 0x24D6 DUP4 PUSH1 0x0 DUP10 DUP6 DUP6 DUP10 PUSH2 0x2D38 JUMP JUMPDEST PUSH2 0x24E5 DUP4 PUSH1 0x0 DUP10 DUP10 DUP10 DUP10 PUSH2 0x2F91 JUMP JUMPDEST POP POP POP POP POP POP POP JUMP JUMPDEST PUSH2 0x24F6 PUSH2 0x1F39 JUMP JUMPDEST PUSH20 0xFFFFFFFFFFFFFFFFFFFFFFFFFFFFFFFFFFFFFFFF AND PUSH2 0x2514 PUSH2 0xFCE JUMP JUMPDEST PUSH20 0xFFFFFFFFFFFFFFFFFFFFFFFFFFFFFFFFFFFFFFFF AND EQ PUSH2 0x256A JUMPI PUSH1 0x40 MLOAD PUSH32 0x8C379A000000000000000000000000000000000000000000000000000000000 DUP2 MSTORE PUSH1 0x4 ADD PUSH2 0x2561 SWAP1 PUSH2 0x4F79 JUMP JUMPDEST PUSH1 0x40 MLOAD DUP1 SWAP2 SUB SWAP1 REVERT JUMPDEST JUMP JUMPDEST PUSH1 0x0 PUSH1 0x3 PUSH1 0x0 SWAP1 SLOAD SWAP1 PUSH2 0x100 EXP SWAP1 DIV PUSH20 0xFFFFFFFFFFFFFFFFFFFFFFFFFFFFFFFFFFFFFFFF AND SWAP1 POP DUP2 PUSH1 0x3 PUSH1 0x0 PUSH2 0x100 EXP DUP2 SLOAD DUP2 PUSH20 0xFFFFFFFFFFFFFFFFFFFFFFFFFFFFFFFFFFFFFFFF MUL NOT AND SWAP1 DUP4 PUSH20 0xFFFFFFFFFFFFFFFFFFFFFFFFFFFFFFFFFFFFFFFF AND MUL OR SWAP1 SSTORE POP DUP2 PUSH20 0xFFFFFFFFFFFFFFFFFFFFFFFFFFFFFFFFFFFFFFFF AND DUP2 PUSH20 0xFFFFFFFFFFFFFFFFFFFFFFFFFFFFFFFFFFFFFFFF AND PUSH32 0x8BE0079C531659141344CD1FD0A4F28419497F9722A3DAAFE3B4186F6B6457E0 PUSH1 0x40 MLOAD PUSH1 0x40 MLOAD DUP1 SWAP2 SUB SWAP1 LOG3 POP POP JUMP JUMPDEST PUSH1 0x0 PUSH20 0xFFFFFFFFFFFFFFFFFFFFFFFFFFFFFFFFFFFFFFFF AND DUP4 PUSH20 0xFFFFFFFFFFFFFFFFFFFFFFFFFFFFFFFFFFFFFFFF AND SUB PUSH2 0x26A1 JUMPI PUSH1 0x40 MLOAD PUSH32 0x8C379A000000000000000000000000000000000000000000000000000000000 DUP2 MSTORE PUSH1 0x4 ADD PUSH2 0x2698 SWAP1 PUSH2 0x500B JUMP JUMPDEST PUSH1 0x40 MLOAD DUP1 SWAP2 SUB SWAP1 REVERT JUMPDEST PUSH1 0x0 PUSH2 0x26AB PUSH2 0x1F39 JUMP JUMPDEST SWAP1 POP PUSH1 0x0 PUSH2 0x26B8 DUP5 PUSH2 0x2F17 JUMP JUMPDEST SWAP1 POP PUSH1 0x0 PUSH2 0x26C5 DUP5 PUSH2 0x2F17 JUMP JUMPDEST SWAP1 POP PUSH2 0x26E5 DUP4 DUP8 PUSH1 0x0 DUP6 DUP6 PUSH1 0x40 MLOAD DUP1 PUSH1 0x20 ADD PUSH1 0x40 MSTORE DUP1 PUSH1 0x0 DUP2 MSTORE POP PUSH2 0x2D30 JUMP JUMPDEST PUSH1 0x0 DUP1 PUSH1 0x0 DUP8 DUP2 MSTORE PUSH1 0x20 ADD SWAP1 DUP2 MSTORE PUSH1 0x20 ADD PUSH1 0x0 KECCAK256 PUSH1 0x0 DUP9 PUSH20 0xFFFFFFFFFFFFFFFFFFFFFFFFFFFFFFFFFFFFFFFF AND PUSH20 0xFFFFFFFFFFFFFFFFFFFFFFFFFFFFFFFFFFFFFFFF AND DUP2 MSTORE PUSH1 0x20 ADD SWAP1 DUP2 MSTORE PUSH1 0x20 ADD PUSH1 0x0 KECCAK256 SLOAD SWAP1 POP DUP5 DUP2 LT ISZERO PUSH2 0x277C JUMPI PUSH1 0x40 MLOAD PUSH32 0x8C379A000000000000000000000000000000000000000000000000000000000 DUP2 MSTORE PUSH1 0x4 ADD PUSH2 0x2773 SWAP1 PUSH2 0x509D JUMP JUMPDEST PUSH1 0x40 MLOAD DUP1 SWAP2 SUB SWAP1 REVERT JUMPDEST DUP5 DUP2 SUB PUSH1 0x0 DUP1 DUP9 DUP2 MSTORE PUSH1 0x20 ADD SWAP1 DUP2 MSTORE PUSH1 0x20 ADD PUSH1 0x0 KECCAK256 PUSH1 0x0 DUP10 PUSH20 0xFFFFFFFFFFFFFFFFFFFFFFFFFFFFFFFFFFFFFFFF AND PUSH20 0xFFFFFFFFFFFFFFFFFFFFFFFFFFFFFFFFFFFFFFFF AND DUP2 MSTORE PUSH1 0x20 ADD SWAP1 DUP2 MSTORE PUSH1 0x20 ADD PUSH1 0x0 KECCAK256 DUP2 SWAP1 SSTORE POP PUSH1 0x0 PUSH20 0xFFFFFFFFFFFFFFFFFFFFFFFFFFFFFFFFFFFFFFFF AND DUP8 PUSH20 0xFFFFFFFFFFFFFFFFFFFFFFFFFFFFFFFFFFFFFFFF AND DUP6 PUSH20 0xFFFFFFFFFFFFFFFFFFFFFFFFFFFFFFFFFFFFFFFF AND PUSH32 0xC3D58168C5AE7397731D063D5BBF3D657854427343F4C083240F7AACAA2D0F62 DUP10 DUP10 PUSH1 0x40 MLOAD PUSH2 0x2849 SWAP3 SWAP2 SWAP1 PUSH2 0x4F04 JUMP JUMPDEST PUSH1 0x40 MLOAD DUP1 SWAP2 SUB SWAP1 LOG4 PUSH2 0x286F DUP5 DUP9 PUSH1 0x0 DUP7 DUP7 PUSH1 0x40 MLOAD DUP1 PUSH1 0x20 ADD PUSH1 0x40 MSTORE DUP1 PUSH1 0x0 DUP2 MSTORE POP PUSH2 0x2D38 JUMP JUMPDEST POP POP POP POP POP POP POP JUMP JUMPDEST PUSH1 0x0 DUP2 DUP4 PUSH2 0x2886 SWAP2 SWAP1 PUSH2 0x4402 JUMP JUMPDEST SWAP1 POP SWAP3 SWAP2 POP POP JUMP JUMPDEST PUSH1 0x0 DUP2 DUP4 PUSH2 0x289C SWAP2 SWAP1 PUSH2 0x4E41 JUMP JUMPDEST SWAP1 POP SWAP3 SWAP2 POP POP JUMP JUMPDEST DUP2 PUSH20 0xFFFFFFFFFFFFFFFFFFFFFFFFFFFFFFFFFFFFFFFF AND DUP4 PUSH20 0xFFFFFFFFFFFFFFFFFFFFFFFFFFFFFFFFFFFFFFFF AND SUB PUSH2 0x2912 JUMPI PUSH1 0x40 MLOAD PUSH32 0x8C379A000000000000000000000000000000000000000000000000000000000 DUP2 MSTORE PUSH1 0x4 ADD PUSH2 0x2909 SWAP1 PUSH2 0x512F JUMP JUMPDEST PUSH1 0x40 MLOAD DUP1 SWAP2 SUB SWAP1 REVERT JUMPDEST DUP1 PUSH1 0x1 PUSH1 0x0 DUP6 PUSH20 0xFFFFFFFFFFFFFFFFFFFFFFFFFFFFFFFFFFFFFFFF AND PUSH20 0xFFFFFFFFFFFFFFFFFFFFFFFFFFFFFFFFFFFFFFFF AND DUP2 MSTORE PUSH1 0x20 ADD SWAP1 DUP2 MSTORE PUSH1 0x20 ADD PUSH1 0x0 KECCAK256 PUSH1 0x0 DUP5 PUSH20 0xFFFFFFFFFFFFFFFFFFFFFFFFFFFFFFFFFFFFFFFF AND PUSH20 0xFFFFFFFFFFFFFFFFFFFFFFFFFFFFFFFFFFFFFFFF AND DUP2 MSTORE PUSH1 0x20 ADD SWAP1 DUP2 MSTORE PUSH1 0x20 ADD PUSH1 0x0 KECCAK256 PUSH1 0x0 PUSH2 0x100 EXP DUP2 SLOAD DUP2 PUSH1 0xFF MUL NOT AND SWAP1 DUP4 ISZERO ISZERO MUL OR SWAP1 SSTORE POP DUP2 PUSH20 0xFFFFFFFFFFFFFFFFFFFFFFFFFFFFFFFFFFFFFFFF AND DUP4 PUSH20 0xFFFFFFFFFFFFFFFFFFFFFFFFFFFFFFFFFFFFFFFF AND PUSH32 0x17307EAB39AB6107E8899845AD3D59BD9653F200F220920489CA2B5937696C31 DUP4 PUSH1 0x40 MLOAD PUSH2 0x2A03 SWAP2 SWAP1 PUSH2 0x33C9 JUMP JUMPDEST PUSH1 0x40 MLOAD DUP1 SWAP2 SUB SWAP1 LOG3 POP POP POP JUMP JUMPDEST PUSH2 0x2A18 PUSH2 0x31D9 JUMP JUMPDEST PUSH2 0x2A20 PUSH2 0x31D9 JUMP JUMPDEST DUP6 DUP2 PUSH1 0x0 ADD SWAP1 PUSH20 0xFFFFFFFFFFFFFFFFFFFFFFFFFFFFFFFFFFFFFFFF AND SWAP1 DUP2 PUSH20 0xFFFFFFFFFFFFFFFFFFFFFFFFFFFFFFFFFFFFFFFF AND DUP2 MSTORE POP POP DUP4 DUP2 PUSH1 0x20 ADD DUP2 DUP2 MSTORE POP POP DUP3 DUP2 PUSH1 0x40 ADD DUP2 DUP2 MSTORE POP POP PUSH1 0x9 PUSH1 0x0 DUP7 DUP2 MSTORE PUSH1 0x20 ADD SWAP1 DUP2 MSTORE PUSH1 0x20 ADD PUSH1 0x0 KECCAK256 SLOAD DUP2 PUSH1 0x60 ADD DUP2 DUP2 MSTORE POP POP DUP1 SWAP2 POP POP SWAP5 SWAP4 POP POP POP POP JUMP JUMPDEST PUSH1 0x0 PUSH20 0xFFFFFFFFFFFFFFFFFFFFFFFFFFFFFFFFFFFFFFFF AND DUP5 PUSH20 0xFFFFFFFFFFFFFFFFFFFFFFFFFFFFFFFFFFFFFFFF AND SUB PUSH2 0x2B04 JUMPI PUSH1 0x40 MLOAD PUSH32 0x8C379A000000000000000000000000000000000000000000000000000000000 DUP2 MSTORE PUSH1 0x4 ADD PUSH2 0x2AFB SWAP1 PUSH2 0x4D29 JUMP JUMPDEST PUSH1 0x40 MLOAD DUP1 SWAP2 SUB SWAP1 REVERT JUMPDEST PUSH1 0x0 PUSH2 0x2B0E PUSH2 0x1F39 JUMP JUMPDEST SWAP1 POP PUSH1 0x0 PUSH2 0x2B1B DUP6 PUSH2 0x2F17 JUMP JUMPDEST SWAP1 POP PUSH1 0x0 PUSH2 0x2B28 DUP6 PUSH2 0x2F17 JUMP JUMPDEST SWAP1 POP PUSH2 0x2B38 DUP4 DUP10 DUP10 DUP6 DUP6 DUP10 PUSH2 0x2D30 JUMP JUMPDEST PUSH1 0x0 DUP1 PUSH1 0x0 DUP9 DUP2 MSTORE PUSH1 0x20 ADD SWAP1 DUP2 MSTORE PUSH1 0x20 ADD PUSH1 0x0 KECCAK256 PUSH1 0x0 DUP11 PUSH20 0xFFFFFFFFFFFFFFFFFFFFFFFFFFFFFFFFFFFFFFFF AND PUSH20 0xFFFFFFFFFFFFFFFFFFFFFFFFFFFFFFFFFFFFFFFF AND DUP2 MSTORE PUSH1 0x20 ADD SWAP1 DUP2 MSTORE PUSH1 0x20 ADD PUSH1 0x0 KECCAK256 SLOAD SWAP1 POP DUP6 DUP2 LT ISZERO PUSH2 0x2BCF JUMPI PUSH1 0x40 MLOAD PUSH32 0x8C379A000000000000000000000000000000000000000000000000000000000 DUP2 MSTORE PUSH1 0x4 ADD PUSH2 0x2BC6 SWAP1 PUSH2 0x4DBB JUMP JUMPDEST PUSH1 0x40 MLOAD DUP1 SWAP2 SUB SWAP1 REVERT JUMPDEST DUP6 DUP2 SUB PUSH1 0x0 DUP1 DUP10 DUP2 MSTORE PUSH1 0x20 ADD SWAP1 DUP2 MSTORE PUSH1 0x20 ADD PUSH1 0x0 KECCAK256 PUSH1 0x0 DUP12 PUSH20 0xFFFFFFFFFFFFFFFFFFFFFFFFFFFFFFFFFFFFFFFF AND PUSH20 0xFFFFFFFFFFFFFFFFFFFFFFFFFFFFFFFFFFFFFFFF AND DUP2 MSTORE PUSH1 0x20 ADD SWAP1 DUP2 MSTORE PUSH1 0x20 ADD PUSH1 0x0 KECCAK256 DUP2 SWAP1 SSTORE POP DUP6 PUSH1 0x0 DUP1 DUP10 DUP2 MSTORE PUSH1 0x20 ADD SWAP1 DUP2 MSTORE PUSH1 0x20 ADD PUSH1 0x0 KECCAK256 PUSH1 0x0 DUP11 PUSH20 0xFFFFFFFFFFFFFFFFFFFFFFFFFFFFFFFFFFFFFFFF AND PUSH20 0xFFFFFFFFFFFFFFFFFFFFFFFFFFFFFFFFFFFFFFFF AND DUP2 MSTORE PUSH1 0x20 ADD SWAP1 DUP2 MSTORE PUSH1 0x20 ADD PUSH1 0x0 KECCAK256 PUSH1 0x0 DUP3 DUP3 SLOAD PUSH2 0x2C84 SWAP2 SWAP1 PUSH2 0x4A88 JUMP JUMPDEST SWAP3 POP POP DUP2 SWAP1 SSTORE POP DUP8 PUSH20 0xFFFFFFFFFFFFFFFFFFFFFFFFFFFFFFFFFFFFFFFF AND DUP10 PUSH20 0xFFFFFFFFFFFFFFFFFFFFFFFFFFFFFFFFFFFFFFFF AND DUP6 PUSH20 0xFFFFFFFFFFFFFFFFFFFFFFFFFFFFFFFFFFFFFFFF AND PUSH32 0xC3D58168C5AE7397731D063D5BBF3D657854427343F4C083240F7AACAA2D0F62 DUP11 DUP11 PUSH1 0x40 MLOAD PUSH2 0x2D01 SWAP3 SWAP2 SWAP1 PUSH2 0x4F04 JUMP JUMPDEST PUSH1 0x40 MLOAD DUP1 SWAP2 SUB SWAP1 LOG4 PUSH2 0x2D17 DUP5 DUP11 DUP11 DUP7 DUP7 DUP11 PUSH2 0x2D38 JUMP JUMPDEST PUSH2 0x2D25 DUP5 DUP11 DUP11 DUP11 DUP11 DUP11 PUSH2 0x2F91 JUMP JUMPDEST POP POP POP POP POP POP POP POP POP JUMP JUMPDEST POP POP POP POP POP POP JUMP JUMPDEST POP POP POP POP POP POP JUMP JUMPDEST PUSH2 0x2D5F DUP5 PUSH20 0xFFFFFFFFFFFFFFFFFFFFFFFFFFFFFFFFFFFFFFFF AND PUSH2 0x3168 JUMP JUMPDEST ISZERO PUSH2 0x2F0F JUMPI DUP4 PUSH20 0xFFFFFFFFFFFFFFFFFFFFFFFFFFFFFFFFFFFFFFFF AND PUSH4 0xBC197C81 DUP8 DUP8 DUP7 DUP7 DUP7 PUSH1 0x40 MLOAD DUP7 PUSH4 0xFFFFFFFF AND PUSH1 0xE0 SHL DUP2 MSTORE PUSH1 0x4 ADD PUSH2 0x2DA5 SWAP6 SWAP5 SWAP4 SWAP3 SWAP2 SWAP1 PUSH2 0x5193 JUMP JUMPDEST PUSH1 0x20 PUSH1 0x40 MLOAD DUP1 DUP4 SUB DUP2 PUSH1 0x0 DUP8 GAS CALL SWAP3 POP POP POP DUP1 ISZERO PUSH2 0x2DE1 JUMPI POP PUSH1 0x40 MLOAD RETURNDATASIZE PUSH1 0x1F NOT PUSH1 0x1F DUP3 ADD AND DUP3 ADD DUP1 PUSH1 0x40 MSTORE POP DUP2 ADD SWAP1 PUSH2 0x2DDE SWAP2 SWAP1 PUSH2 0x5210 JUMP JUMPDEST PUSH1 0x1 JUMPDEST PUSH2 0x2E86 JUMPI PUSH2 0x2DED PUSH2 0x524A JUMP JUMPDEST DUP1 PUSH4 0x8C379A0 SUB PUSH2 0x2E49 JUMPI POP PUSH2 0x2E01 PUSH2 0x526C JUMP JUMPDEST DUP1 PUSH2 0x2E0C JUMPI POP PUSH2 0x2E4B JUMP JUMPDEST DUP1 PUSH1 0x40 MLOAD PUSH32 0x8C379A000000000000000000000000000000000000000000000000000000000 DUP2 MSTORE PUSH1 0x4 ADD PUSH2 0x2E40 SWAP2 SWAP1 PUSH2 0x34A1 JUMP JUMPDEST PUSH1 0x40 MLOAD DUP1 SWAP2 SUB SWAP1 REVERT JUMPDEST POP JUMPDEST PUSH1 0x40 MLOAD PUSH32 0x8C379A000000000000000000000000000000000000000000000000000000000 DUP2 MSTORE PUSH1 0x4 ADD PUSH2 0x2E7D SWAP1 PUSH2 0x536E JUMP JUMPDEST PUSH1 0x40 MLOAD DUP1 SWAP2 SUB SWAP1 REVERT JUMPDEST PUSH4 0xBC197C81 PUSH1 0xE0 SHL PUSH28 0xFFFFFFFFFFFFFFFFFFFFFFFFFFFFFFFFFFFFFFFFFFFFFFFFFFFFFFFF NOT AND DUP2 PUSH28 0xFFFFFFFFFFFFFFFFFFFFFFFFFFFFFFFFFFFFFFFFFFFFFFFFFFFFFFFF NOT AND EQ PUSH2 0x2F0D JUMPI PUSH1 0x40 MLOAD PUSH32 0x8C379A000000000000000000000000000000000000000000000000000000000 DUP2 MSTORE PUSH1 0x4 ADD PUSH2 0x2F04 SWAP1 PUSH2 0x5400 JUMP JUMPDEST PUSH1 0x40 MLOAD DUP1 SWAP2 SUB SWAP1 REVERT JUMPDEST POP JUMPDEST POP POP POP POP POP POP JUMP JUMPDEST PUSH1 0x60 PUSH1 0x0 PUSH1 0x1 PUSH8 0xFFFFFFFFFFFFFFFF DUP2 GT ISZERO PUSH2 0x2F36 JUMPI PUSH2 0x2F35 PUSH2 0x3542 JUMP JUMPDEST JUMPDEST PUSH1 0x40 MLOAD SWAP1 DUP1 DUP3 MSTORE DUP1 PUSH1 0x20 MUL PUSH1 0x20 ADD DUP3 ADD PUSH1 0x40 MSTORE DUP1 ISZERO PUSH2 0x2F64 JUMPI DUP2 PUSH1 0x20 ADD PUSH1 0x20 DUP3 MUL DUP1 CALLDATASIZE DUP4 CALLDATACOPY DUP1 DUP3 ADD SWAP2 POP POP SWAP1 POP JUMPDEST POP SWAP1 POP DUP3 DUP2 PUSH1 0x0 DUP2 MLOAD DUP2 LT PUSH2 0x2F7C JUMPI PUSH2 0x2F7B PUSH2 0x41BB JUMP JUMPDEST JUMPDEST PUSH1 0x20 MUL PUSH1 0x20 ADD ADD DUP2 DUP2 MSTORE POP POP DUP1 SWAP2 POP POP SWAP2 SWAP1 POP JUMP JUMPDEST PUSH2 0x2FB0 DUP5 PUSH20 0xFFFFFFFFFFFFFFFFFFFFFFFFFFFFFFFFFFFFFFFF AND PUSH2 0x3168 JUMP JUMPDEST ISZERO PUSH2 0x3160 JUMPI DUP4 PUSH20 0xFFFFFFFFFFFFFFFFFFFFFFFFFFFFFFFFFFFFFFFF AND PUSH4 0xF23A6E61 DUP8 DUP8 DUP7 DUP7 DUP7 PUSH1 0x40 MLOAD DUP7 PUSH4 0xFFFFFFFF AND PUSH1 0xE0 SHL DUP2 MSTORE PUSH1 0x4 ADD PUSH2 0x2FF6 SWAP6 SWAP5 SWAP4 SWAP3 SWAP2 SWAP1 PUSH2 0x5420 JUMP JUMPDEST PUSH1 0x20 PUSH1 0x40 MLOAD DUP1 DUP4 SUB DUP2 PUSH1 0x0 DUP8 GAS CALL SWAP3 POP POP POP DUP1 ISZERO PUSH2 0x3032 JUMPI POP PUSH1 0x40 MLOAD RETURNDATASIZE PUSH1 0x1F NOT PUSH1 0x1F DUP3 ADD AND DUP3 ADD DUP1 PUSH1 0x40 MSTORE POP DUP2 ADD SWAP1 PUSH2 0x302F SWAP2 SWAP1 PUSH2 0x5210 JUMP JUMPDEST PUSH1 0x1 JUMPDEST PUSH2 0x30D7 JUMPI PUSH2 0x303E PUSH2 0x524A JUMP JUMPDEST DUP1 PUSH4 0x8C379A0 SUB PUSH2 0x309A JUMPI POP PUSH2 0x3052 PUSH2 0x526C JUMP JUMPDEST DUP1 PUSH2 0x305D JUMPI POP PUSH2 0x309C JUMP JUMPDEST DUP1 PUSH1 0x40 MLOAD PUSH32 0x8C379A000000000000000000000000000000000000000000000000000000000 DUP2 MSTORE PUSH1 0x4 ADD PUSH2 0x3091 SWAP2 SWAP1 PUSH2 0x34A1 JUMP JUMPDEST PUSH1 0x40 MLOAD DUP1 SWAP2 SUB SWAP1 REVERT JUMPDEST POP JUMPDEST PUSH1 0x40 MLOAD PUSH32 0x8C379A000000000000000000000000000000000000000000000000000000000 DUP2 MSTORE PUSH1 0x4 ADD PUSH2 0x30CE SWAP1 PUSH2 0x536E JUMP JUMPDEST PUSH1 0x40 MLOAD DUP1 SWAP2 SUB SWAP1 REVERT JUMPDEST PUSH4 0xF23A6E61 PUSH1 0xE0 SHL PUSH28 0xFFFFFFFFFFFFFFFFFFFFFFFFFFFFFFFFFFFFFFFFFFFFFFFFFFFFFFFF NOT AND DUP2 PUSH28 0xFFFFFFFFFFFFFFFFFFFFFFFFFFFFFFFFFFFFFFFFFFFFFFFFFFFFFFFF NOT AND EQ PUSH2 0x315E JUMPI PUSH1 0x40 MLOAD PUSH32 0x8C379A000000000000000000000000000000000000000000000000000000000 DUP2 MSTORE PUSH1 0x4 ADD PUSH2 0x3155 SWAP1 PUSH2 0x5400 JUMP JUMPDEST PUSH1 0x40 MLOAD DUP1 SWAP2 SUB SWAP1 REVERT JUMPDEST POP JUMPDEST POP POP POP POP POP POP JUMP JUMPDEST PUSH1 0x0 DUP1 DUP3 PUSH20 0xFFFFFFFFFFFFFFFFFFFFFFFFFFFFFFFFFFFFFFFF AND EXTCODESIZE GT SWAP1 POP SWAP2 SWAP1 POP JUMP JUMPDEST PUSH1 0x40 MLOAD DUP1 PUSH1 0xC0 ADD PUSH1 0x40 MSTORE DUP1 PUSH1 0x0 PUSH20 0xFFFFFFFFFFFFFFFFFFFFFFFFFFFFFFFFFFFFFFFF AND DUP2 MSTORE PUSH1 0x20 ADD PUSH1 0x0 DUP2 MSTORE PUSH1 0x20 ADD PUSH1 0x0 DUP2 MSTORE PUSH1 0x20 ADD PUSH1 0x0 DUP2 MSTORE PUSH1 0x20 ADD PUSH1 0x0 DUP2 MSTORE PUSH1 0x20 ADD PUSH1 0x0 ISZERO ISZERO DUP2 MSTORE POP SWAP1 JUMP JUMPDEST PUSH1 0x40 MLOAD DUP1 PUSH1 0x80 ADD PUSH1 0x40 MSTORE DUP1 PUSH1 0x0 PUSH20 0xFFFFFFFFFFFFFFFFFFFFFFFFFFFFFFFFFFFFFFFF AND DUP2 MSTORE PUSH1 0x20 ADD PUSH1 0x0 DUP2 MSTORE PUSH1 0x20 ADD PUSH1 0x0 DUP2 MSTORE PUSH1 0x20 ADD PUSH1 0x0 DUP2 MSTORE POP SWAP1 JUMP JUMPDEST PUSH1 0x0 PUSH1 0x40 MLOAD SWAP1 POP SWAP1 JUMP JUMPDEST PUSH1 0x0 DUP1 REVERT JUMPDEST PUSH1 0x0 DUP1 REVERT JUMPDEST PUSH1 0x0 PUSH20 0xFFFFFFFFFFFFFFFFFFFFFFFFFFFFFFFFFFFFFFFF DUP3 AND SWAP1 POP SWAP2 SWAP1 POP JUMP JUMPDEST PUSH1 0x0 PUSH2 0x3256 DUP3 PUSH2 0x322B JUMP JUMPDEST SWAP1 POP SWAP2 SWAP1 POP JUMP JUMPDEST PUSH2 0x3266 DUP2 PUSH2 0x324B JUMP JUMPDEST DUP2 EQ PUSH2 0x3271 JUMPI PUSH1 0x0 DUP1 REVERT JUMPDEST POP JUMP JUMPDEST PUSH1 0x0 DUP2 CALLDATALOAD SWAP1 POP PUSH2 0x3283 DUP2 PUSH2 0x325D JUMP JUMPDEST SWAP3 SWAP2 POP POP JUMP JUMPDEST PUSH1 0x0 DUP2 SWAP1 POP SWAP2 SWAP1 POP JUMP JUMPDEST PUSH2 0x329C DUP2 PUSH2 0x3289 JUMP JUMPDEST DUP2 EQ PUSH2 0x32A7 JUMPI PUSH1 0x0 DUP1 REVERT JUMPDEST POP JUMP JUMPDEST PUSH1 0x0 DUP2 CALLDATALOAD SWAP1 POP PUSH2 0x32B9 DUP2 PUSH2 0x3293 JUMP JUMPDEST SWAP3 SWAP2 POP POP JUMP JUMPDEST PUSH1 0x0 DUP1 PUSH1 0x40 DUP4 DUP6 SUB SLT ISZERO PUSH2 0x32D6 JUMPI PUSH2 0x32D5 PUSH2 0x3221 JUMP JUMPDEST JUMPDEST PUSH1 0x0 PUSH2 0x32E4 DUP6 DUP3 DUP7 ADD PUSH2 0x3274 JUMP JUMPDEST SWAP3 POP POP PUSH1 0x20 PUSH2 0x32F5 DUP6 DUP3 DUP7 ADD PUSH2 0x32AA JUMP JUMPDEST SWAP2 POP POP SWAP3 POP SWAP3 SWAP1 POP JUMP JUMPDEST PUSH2 0x3308 DUP2 PUSH2 0x3289 JUMP JUMPDEST DUP3 MSTORE POP POP JUMP JUMPDEST PUSH1 0x0 PUSH1 0x20 DUP3 ADD SWAP1 POP PUSH2 0x3323 PUSH1 0x0 DUP4 ADD DUP5 PUSH2 0x32FF JUMP JUMPDEST SWAP3 SWAP2 POP POP JUMP JUMPDEST PUSH1 0x0 PUSH32 0xFFFFFFFF00000000000000000000000000000000000000000000000000000000 DUP3 AND SWAP1 POP SWAP2 SWAP1 POP JUMP JUMPDEST PUSH2 0x335E DUP2 PUSH2 0x3329 JUMP JUMPDEST DUP2 EQ PUSH2 0x3369 JUMPI PUSH1 0x0 DUP1 REVERT JUMPDEST POP JUMP JUMPDEST PUSH1 0x0 DUP2 CALLDATALOAD SWAP1 POP PUSH2 0x337B DUP2 PUSH2 0x3355 JUMP JUMPDEST SWAP3 SWAP2 POP POP JUMP JUMPDEST PUSH1 0x0 PUSH1 0x20 DUP3 DUP5 SUB SLT ISZERO PUSH2 0x3397 JUMPI PUSH2 0x3396 PUSH2 0x3221 JUMP JUMPDEST JUMPDEST PUSH1 0x0 PUSH2 0x33A5 DUP5 DUP3 DUP6 ADD PUSH2 0x336C JUMP JUMPDEST SWAP2 POP POP SWAP3 SWAP2 POP POP JUMP JUMPDEST PUSH1 0x0 DUP2 ISZERO ISZERO SWAP1 POP SWAP2 SWAP1 POP JUMP JUMPDEST PUSH2 0x33C3 DUP2 PUSH2 0x33AE JUMP JUMPDEST DUP3 MSTORE POP POP JUMP JUMPDEST PUSH1 0x0 PUSH1 0x20 DUP3 ADD SWAP1 POP PUSH2 0x33DE PUSH1 0x0 DUP4 ADD DUP5 PUSH2 0x33BA JUMP JUMPDEST SWAP3 SWAP2 POP POP JUMP JUMPDEST PUSH1 0x0 PUSH1 0x20 DUP3 DUP5 SUB SLT ISZERO PUSH2 0x33FA JUMPI PUSH2 0x33F9 PUSH2 0x3221 JUMP JUMPDEST JUMPDEST PUSH1 0x0 PUSH2 0x3408 DUP5 DUP3 DUP6 ADD PUSH2 0x32AA JUMP JUMPDEST SWAP2 POP POP SWAP3 SWAP2 POP POP JUMP JUMPDEST PUSH1 0x0 DUP2 MLOAD SWAP1 POP SWAP2 SWAP1 POP JUMP JUMPDEST PUSH1 0x0 DUP3 DUP3 MSTORE PUSH1 0x20 DUP3 ADD SWAP1 POP SWAP3 SWAP2 POP POP JUMP JUMPDEST PUSH1 0x0 JUMPDEST DUP4 DUP2 LT ISZERO PUSH2 0x344B JUMPI DUP1 DUP3 ADD MLOAD DUP2 DUP5 ADD MSTORE PUSH1 0x20 DUP2 ADD SWAP1 POP PUSH2 0x3430 JUMP JUMPDEST PUSH1 0x0 DUP5 DUP5 ADD MSTORE POP POP POP POP JUMP JUMPDEST PUSH1 0x0 PUSH1 0x1F NOT PUSH1 0x1F DUP4 ADD AND SWAP1 POP SWAP2 SWAP1 POP JUMP JUMPDEST PUSH1 0x0 PUSH2 0x3473 DUP3 PUSH2 0x3411 JUMP JUMPDEST PUSH2 0x347D DUP2 DUP6 PUSH2 0x341C JUMP JUMPDEST SWAP4 POP PUSH2 0x348D DUP2 DUP6 PUSH1 0x20 DUP7 ADD PUSH2 0x342D JUMP JUMPDEST PUSH2 0x3496 DUP2 PUSH2 0x3457 JUMP JUMPDEST DUP5 ADD SWAP2 POP POP SWAP3 SWAP2 POP POP JUMP JUMPDEST PUSH1 0x0 PUSH1 0x20 DUP3 ADD SWAP1 POP DUP2 DUP2 SUB PUSH1 0x0 DUP4 ADD MSTORE PUSH2 0x34BB DUP2 DUP5 PUSH2 0x3468 JUMP JUMPDEST SWAP1 POP SWAP3 SWAP2 POP POP JUMP JUMPDEST PUSH1 0x0 DUP2 SWAP1 POP SWAP2 SWAP1 POP JUMP JUMPDEST PUSH1 0x0 PUSH2 0x34E8 PUSH2 0x34E3 PUSH2 0x34DE DUP5 PUSH2 0x322B JUMP JUMPDEST PUSH2 0x34C3 JUMP JUMPDEST PUSH2 0x322B JUMP JUMPDEST SWAP1 POP SWAP2 SWAP1 POP JUMP JUMPDEST PUSH1 0x0 PUSH2 0x34FA DUP3 PUSH2 0x34CD JUMP JUMPDEST SWAP1 POP SWAP2 SWAP1 POP JUMP JUMPDEST PUSH1 0x0 PUSH2 0x350C DUP3 PUSH2 0x34EF JUMP JUMPDEST SWAP1 POP SWAP2 SWAP1 POP JUMP JUMPDEST PUSH2 0x351C DUP2 PUSH2 0x3501 JUMP JUMPDEST DUP3 MSTORE POP POP JUMP JUMPDEST PUSH1 0x0 PUSH1 0x20 DUP3 ADD SWAP1 POP PUSH2 0x3537 PUSH1 0x0 DUP4 ADD DUP5 PUSH2 0x3513 JUMP JUMPDEST SWAP3 SWAP2 POP POP JUMP JUMPDEST PUSH1 0x0 DUP1 REVERT JUMPDEST PUSH32 0x4E487B7100000000000000000000000000000000000000000000000000000000 PUSH1 0x0 MSTORE PUSH1 0x41 PUSH1 0x4 MSTORE PUSH1 0x24 PUSH1 0x0 REVERT JUMPDEST PUSH2 0x357A DUP3 PUSH2 0x3457 JUMP JUMPDEST DUP2 ADD DUP2 DUP2 LT PUSH8 0xFFFFFFFFFFFFFFFF DUP3 GT OR ISZERO PUSH2 0x3599 JUMPI PUSH2 0x3598 PUSH2 0x3542 JUMP JUMPDEST JUMPDEST DUP1 PUSH1 0x40 MSTORE POP POP POP JUMP JUMPDEST PUSH1 0x0 PUSH2 0x35AC PUSH2 0x3217 JUMP JUMPDEST SWAP1 POP PUSH2 0x35B8 DUP3 DUP3 PUSH2 0x3571 JUMP JUMPDEST SWAP2 SWAP1 POP JUMP JUMPDEST PUSH1 0x0 PUSH8 0xFFFFFFFFFFFFFFFF DUP3 GT ISZERO PUSH2 0x35D8 JUMPI PUSH2 0x35D7 PUSH2 0x3542 JUMP JUMPDEST JUMPDEST PUSH1 0x20 DUP3 MUL SWAP1 POP PUSH1 0x20 DUP2 ADD SWAP1 POP SWAP2 SWAP1 POP JUMP JUMPDEST PUSH1 0x0 DUP1 REVERT JUMPDEST PUSH1 0x0 PUSH2 0x3601 PUSH2 0x35FC DUP5 PUSH2 0x35BD JUMP JUMPDEST PUSH2 0x35A2 JUMP JUMPDEST SWAP1 POP DUP1 DUP4 DUP3 MSTORE PUSH1 0x20 DUP3 ADD SWAP1 POP PUSH1 0x20 DUP5 MUL DUP4 ADD DUP6 DUP2 GT ISZERO PUSH2 0x3624 JUMPI PUSH2 0x3623 PUSH2 0x35E9 JUMP JUMPDEST JUMPDEST DUP4 JUMPDEST DUP2 DUP2 LT ISZERO PUSH2 0x364D JUMPI DUP1 PUSH2 0x3639 DUP9 DUP3 PUSH2 0x32AA JUMP JUMPDEST DUP5 MSTORE PUSH1 0x20 DUP5 ADD SWAP4 POP POP PUSH1 0x20 DUP2 ADD SWAP1 POP PUSH2 0x3626 JUMP JUMPDEST POP POP POP SWAP4 SWAP3 POP POP POP JUMP JUMPDEST PUSH1 0x0 DUP3 PUSH1 0x1F DUP4 ADD SLT PUSH2 0x366C JUMPI PUSH2 0x366B PUSH2 0x353D JUMP JUMPDEST JUMPDEST DUP2 CALLDATALOAD PUSH2 0x367C DUP5 DUP3 PUSH1 0x20 DUP7 ADD PUSH2 0x35EE JUMP JUMPDEST SWAP2 POP POP SWAP3 SWAP2 POP POP JUMP JUMPDEST PUSH1 0x0 DUP1 REVERT JUMPDEST PUSH1 0x0 PUSH8 0xFFFFFFFFFFFFFFFF DUP3 GT ISZERO PUSH2 0x36A5 JUMPI PUSH2 0x36A4 PUSH2 0x3542 JUMP JUMPDEST JUMPDEST PUSH2 0x36AE DUP3 PUSH2 0x3457 JUMP JUMPDEST SWAP1 POP PUSH1 0x20 DUP2 ADD SWAP1 POP SWAP2 SWAP1 POP JUMP JUMPDEST DUP3 DUP2 DUP4 CALLDATACOPY PUSH1 0x0 DUP4 DUP4 ADD MSTORE POP POP POP JUMP JUMPDEST PUSH1 0x0 PUSH2 0x36DD PUSH2 0x36D8 DUP5 PUSH2 0x368A JUMP JUMPDEST PUSH2 0x35A2 JUMP JUMPDEST SWAP1 POP DUP3 DUP2 MSTORE PUSH1 0x20 DUP2 ADD DUP5 DUP5 DUP5 ADD GT ISZERO PUSH2 0x36F9 JUMPI PUSH2 0x36F8 PUSH2 0x3685 JUMP JUMPDEST JUMPDEST PUSH2 0x3704 DUP5 DUP3 DUP6 PUSH2 0x36BB JUMP JUMPDEST POP SWAP4 SWAP3 POP POP POP JUMP JUMPDEST PUSH1 0x0 DUP3 PUSH1 0x1F DUP4 ADD SLT PUSH2 0x3721 JUMPI PUSH2 0x3720 PUSH2 0x353D JUMP JUMPDEST JUMPDEST DUP2 CALLDATALOAD PUSH2 0x3731 DUP5 DUP3 PUSH1 0x20 DUP7 ADD PUSH2 0x36CA JUMP JUMPDEST SWAP2 POP POP SWAP3 SWAP2 POP POP JUMP JUMPDEST PUSH1 0x0 DUP1 PUSH1 0x0 DUP1 PUSH1 0x0 PUSH1 0xA0 DUP7 DUP9 SUB SLT ISZERO PUSH2 0x3756 JUMPI PUSH2 0x3755 PUSH2 0x3221 JUMP JUMPDEST JUMPDEST PUSH1 0x0 PUSH2 0x3764 DUP9 DUP3 DUP10 ADD PUSH2 0x3274 JUMP JUMPDEST SWAP6 POP POP PUSH1 0x20 PUSH2 0x3775 DUP9 DUP3 DUP10 ADD PUSH2 0x3274 JUMP JUMPDEST SWAP5 POP POP PUSH1 0x40 DUP7 ADD CALLDATALOAD PUSH8 0xFFFFFFFFFFFFFFFF DUP2 GT ISZERO PUSH2 0x3796 JUMPI PUSH2 0x3795 PUSH2 0x3226 JUMP JUMPDEST JUMPDEST PUSH2 0x37A2 DUP9 DUP3 DUP10 ADD PUSH2 0x3657 JUMP JUMPDEST SWAP4 POP POP PUSH1 0x60 DUP7 ADD CALLDATALOAD PUSH8 0xFFFFFFFFFFFFFFFF DUP2 GT ISZERO PUSH2 0x37C3 JUMPI PUSH2 0x37C2 PUSH2 0x3226 JUMP JUMPDEST JUMPDEST PUSH2 0x37CF DUP9 DUP3 DUP10 ADD PUSH2 0x3657 JUMP JUMPDEST SWAP3 POP POP PUSH1 0x80 DUP7 ADD CALLDATALOAD PUSH8 0xFFFFFFFFFFFFFFFF DUP2 GT ISZERO PUSH2 0x37F0 JUMPI PUSH2 0x37EF PUSH2 0x3226 JUMP JUMPDEST JUMPDEST PUSH2 0x37FC DUP9 DUP3 DUP10 ADD PUSH2 0x370C JUMP JUMPDEST SWAP2 POP POP SWAP3 SWAP6 POP SWAP3 SWAP6 SWAP1 SWAP4 POP JUMP JUMPDEST PUSH1 0x0 PUSH2 0x3814 DUP3 PUSH2 0x34EF JUMP JUMPDEST SWAP1 POP SWAP2 SWAP1 POP JUMP JUMPDEST PUSH2 0x3824 DUP2 PUSH2 0x3809 JUMP JUMPDEST DUP3 MSTORE POP POP JUMP JUMPDEST PUSH1 0x0 PUSH1 0x20 DUP3 ADD SWAP1 POP PUSH2 0x383F PUSH1 0x0 DUP4 ADD DUP5 PUSH2 0x381B JUMP JUMPDEST SWAP3 SWAP2 POP POP JUMP JUMPDEST PUSH1 0x0 PUSH1 0x20 DUP3 DUP5 SUB SLT ISZERO PUSH2 0x385B JUMPI PUSH2 0x385A PUSH2 0x3221 JUMP JUMPDEST JUMPDEST PUSH1 0x0 PUSH2 0x3869 DUP5 DUP3 DUP6 ADD PUSH2 0x3274 JUMP JUMPDEST SWAP2 POP POP SWAP3 SWAP2 POP POP JUMP JUMPDEST PUSH1 0x0 PUSH8 0xFFFFFFFFFFFFFFFF DUP3 GT ISZERO PUSH2 0x388D JUMPI PUSH2 0x388C PUSH2 0x3542 JUMP JUMPDEST JUMPDEST PUSH1 0x20 DUP3 MUL SWAP1 POP PUSH1 0x20 DUP2 ADD SWAP1 POP SWAP2 SWAP1 POP JUMP JUMPDEST PUSH1 0x0 PUSH2 0x38B1 PUSH2 0x38AC DUP5 PUSH2 0x3872 JUMP JUMPDEST PUSH2 0x35A2 JUMP JUMPDEST SWAP1 POP DUP1 DUP4 DUP3 MSTORE PUSH1 0x20 DUP3 ADD SWAP1 POP PUSH1 0x20 DUP5 MUL DUP4 ADD DUP6 DUP2 GT ISZERO PUSH2 0x38D4 JUMPI PUSH2 0x38D3 PUSH2 0x35E9 JUMP JUMPDEST JUMPDEST DUP4 JUMPDEST DUP2 DUP2 LT ISZERO PUSH2 0x38FD JUMPI DUP1 PUSH2 0x38E9 DUP9 DUP3 PUSH2 0x3274 JUMP JUMPDEST DUP5 MSTORE PUSH1 0x20 DUP5 ADD SWAP4 POP POP PUSH1 0x20 DUP2 ADD SWAP1 POP PUSH2 0x38D6 JUMP JUMPDEST POP POP POP SWAP4 SWAP3 POP POP POP JUMP JUMPDEST PUSH1 0x0 DUP3 PUSH1 0x1F DUP4 ADD SLT PUSH2 0x391C JUMPI PUSH2 0x391B PUSH2 0x353D JUMP JUMPDEST JUMPDEST DUP2 CALLDATALOAD PUSH2 0x392C DUP5 DUP3 PUSH1 0x20 DUP7 ADD PUSH2 0x389E JUMP JUMPDEST SWAP2 POP POP SWAP3 SWAP2 POP POP JUMP JUMPDEST PUSH1 0x0 DUP1 PUSH1 0x40 DUP4 DUP6 SUB SLT ISZERO PUSH2 0x394C JUMPI PUSH2 0x394B PUSH2 0x3221 JUMP JUMPDEST JUMPDEST PUSH1 0x0 DUP4 ADD CALLDATALOAD PUSH8 0xFFFFFFFFFFFFFFFF DUP2 GT ISZERO PUSH2 0x396A JUMPI PUSH2 0x3969 PUSH2 0x3226 JUMP JUMPDEST JUMPDEST PUSH2 0x3976 DUP6 DUP3 DUP7 ADD PUSH2 0x3907 JUMP JUMPDEST SWAP3 POP POP PUSH1 0x20 DUP4 ADD CALLDATALOAD PUSH8 0xFFFFFFFFFFFFFFFF DUP2 GT ISZERO PUSH2 0x3997 JUMPI PUSH2 0x3996 PUSH2 0x3226 JUMP JUMPDEST JUMPDEST PUSH2 0x39A3 DUP6 DUP3 DUP7 ADD PUSH2 0x3657 JUMP JUMPDEST SWAP2 POP POP SWAP3 POP SWAP3 SWAP1 POP JUMP JUMPDEST PUSH1 0x0 DUP2 MLOAD SWAP1 POP SWAP2 SWAP1 POP JUMP JUMPDEST PUSH1 0x0 DUP3 DUP3 MSTORE PUSH1 0x20 DUP3 ADD SWAP1 POP SWAP3 SWAP2 POP POP JUMP JUMPDEST PUSH1 0x0 DUP2 SWAP1 POP PUSH1 0x20 DUP3 ADD SWAP1 POP SWAP2 SWAP1 POP JUMP JUMPDEST PUSH2 0x39E2 DUP2 PUSH2 0x3289 JUMP JUMPDEST DUP3 MSTORE POP POP JUMP JUMPDEST PUSH1 0x0 PUSH2 0x39F4 DUP4 DUP4 PUSH2 0x39D9 JUMP JUMPDEST PUSH1 0x20 DUP4 ADD SWAP1 POP SWAP3 SWAP2 POP POP JUMP JUMPDEST PUSH1 0x0 PUSH1 0x20 DUP3 ADD SWAP1 POP SWAP2 SWAP1 POP JUMP JUMPDEST PUSH1 0x0 PUSH2 0x3A18 DUP3 PUSH2 0x39AD JUMP JUMPDEST PUSH2 0x3A22 DUP2 DUP6 PUSH2 0x39B8 JUMP JUMPDEST SWAP4 POP PUSH2 0x3A2D DUP4 PUSH2 0x39C9 JUMP JUMPDEST DUP1 PUSH1 0x0 JUMPDEST DUP4 DUP2 LT ISZERO PUSH2 0x3A5E JUMPI DUP2 MLOAD PUSH2 0x3A45 DUP9 DUP3 PUSH2 0x39E8 JUMP JUMPDEST SWAP8 POP PUSH2 0x3A50 DUP4 PUSH2 0x3A00 JUMP JUMPDEST SWAP3 POP POP PUSH1 0x1 DUP2 ADD SWAP1 POP PUSH2 0x3A31 JUMP JUMPDEST POP DUP6 SWAP4 POP POP POP POP SWAP3 SWAP2 POP POP JUMP JUMPDEST PUSH1 0x0 PUSH1 0x20 DUP3 ADD SWAP1 POP DUP2 DUP2 SUB PUSH1 0x0 DUP4 ADD MSTORE PUSH2 0x3A85 DUP2 DUP5 PUSH2 0x3A0D JUMP JUMPDEST SWAP1 POP SWAP3 SWAP2 POP POP JUMP JUMPDEST PUSH1 0x0 DUP1 PUSH1 0x0 DUP1 PUSH1 0x0 DUP1 PUSH1 0xC0 DUP8 DUP10 SUB SLT ISZERO PUSH2 0x3AAA JUMPI PUSH2 0x3AA9 PUSH2 0x3221 JUMP JUMPDEST JUMPDEST PUSH1 0x0 PUSH2 0x3AB8 DUP10 DUP3 DUP11 ADD PUSH2 0x3274 JUMP JUMPDEST SWAP7 POP POP PUSH1 0x20 PUSH2 0x3AC9 DUP10 DUP3 DUP11 ADD PUSH2 0x3274 JUMP JUMPDEST SWAP6 POP POP PUSH1 0x40 PUSH2 0x3ADA DUP10 DUP3 DUP11 ADD PUSH2 0x32AA JUMP JUMPDEST SWAP5 POP POP PUSH1 0x60 PUSH2 0x3AEB DUP10 DUP3 DUP11 ADD PUSH2 0x32AA JUMP JUMPDEST SWAP4 POP POP PUSH1 0x80 PUSH2 0x3AFC DUP10 DUP3 DUP11 ADD PUSH2 0x32AA JUMP JUMPDEST SWAP3 POP POP PUSH1 0xA0 PUSH2 0x3B0D DUP10 DUP3 DUP11 ADD PUSH2 0x32AA JUMP JUMPDEST SWAP2 POP POP SWAP3 SWAP6 POP SWAP3 SWAP6 POP SWAP3 SWAP6 JUMP JUMPDEST PUSH1 0x0 DUP1 PUSH1 0x0 PUSH1 0x60 DUP5 DUP7 SUB SLT ISZERO PUSH2 0x3B33 JUMPI PUSH2 0x3B32 PUSH2 0x3221 JUMP JUMPDEST JUMPDEST PUSH1 0x0 PUSH2 0x3B41 DUP7 DUP3 DUP8 ADD PUSH2 0x3274 JUMP JUMPDEST SWAP4 POP POP PUSH1 0x20 PUSH2 0x3B52 DUP7 DUP3 DUP8 ADD PUSH2 0x32AA JUMP JUMPDEST SWAP3 POP POP PUSH1 0x40 PUSH2 0x3B63 DUP7 DUP3 DUP8 ADD PUSH2 0x32AA JUMP JUMPDEST SWAP2 POP POP SWAP3 POP SWAP3 POP SWAP3 JUMP JUMPDEST PUSH2 0x3B76 DUP2 PUSH2 0x324B JUMP JUMPDEST DUP3 MSTORE POP POP JUMP JUMPDEST PUSH2 0x3B85 DUP2 PUSH2 0x33AE JUMP JUMPDEST DUP3 MSTORE POP POP JUMP JUMPDEST PUSH1 0xC0 DUP3 ADD PUSH1 0x0 DUP3 ADD MLOAD PUSH2 0x3BA1 PUSH1 0x0 DUP6 ADD DUP3 PUSH2 0x3B6D JUMP JUMPDEST POP PUSH1 0x20 DUP3 ADD MLOAD PUSH2 0x3BB4 PUSH1 0x20 DUP6 ADD DUP3 PUSH2 0x39D9 JUMP JUMPDEST POP PUSH1 0x40 DUP3 ADD MLOAD PUSH2 0x3BC7 PUSH1 0x40 DUP6 ADD DUP3 PUSH2 0x39D9 JUMP JUMPDEST POP PUSH1 0x60 DUP3 ADD MLOAD PUSH2 0x3BDA PUSH1 0x60 DUP6 ADD DUP3 PUSH2 0x39D9 JUMP JUMPDEST POP PUSH1 0x80 DUP3 ADD MLOAD PUSH2 0x3BED PUSH1 0x80 DUP6 ADD DUP3 PUSH2 0x39D9 JUMP JUMPDEST POP PUSH1 0xA0 DUP3 ADD MLOAD PUSH2 0x3C00 PUSH1 0xA0 DUP6 ADD DUP3 PUSH2 0x3B7C JUMP JUMPDEST POP POP POP POP JUMP JUMPDEST PUSH1 0x0 PUSH1 0xC0 DUP3 ADD SWAP1 POP PUSH2 0x3C1B PUSH1 0x0 DUP4 ADD DUP5 PUSH2 0x3B8B JUMP JUMPDEST SWAP3 SWAP2 POP POP JUMP JUMPDEST PUSH2 0x3C2A DUP2 PUSH2 0x324B JUMP JUMPDEST DUP3 MSTORE POP POP JUMP JUMPDEST PUSH1 0x0 PUSH1 0x20 DUP3 ADD SWAP1 POP PUSH2 0x3C45 PUSH1 0x0 DUP4 ADD DUP5 PUSH2 0x3C21 JUMP JUMPDEST SWAP3 SWAP2 POP POP JUMP JUMPDEST PUSH1 0x0 PUSH2 0x3C56 DUP3 PUSH2 0x322B JUMP JUMPDEST SWAP1 POP SWAP2 SWAP1 POP JUMP JUMPDEST PUSH2 0x3C66 DUP2 PUSH2 0x3C4B JUMP JUMPDEST DUP2 EQ PUSH2 0x3C71 JUMPI PUSH1 0x0 DUP1 REVERT JUMPDEST POP JUMP JUMPDEST PUSH1 0x0 DUP2 CALLDATALOAD SWAP1 POP PUSH2 0x3C83 DUP2 PUSH2 0x3C5D JUMP JUMPDEST SWAP3 SWAP2 POP POP JUMP JUMPDEST PUSH1 0x0 DUP1 PUSH1 0x0 DUP1 PUSH1 0x80 DUP6 DUP8 SUB SLT ISZERO PUSH2 0x3CA3 JUMPI PUSH2 0x3CA2 PUSH2 0x3221 JUMP JUMPDEST JUMPDEST PUSH1 0x0 PUSH2 0x3CB1 DUP8 DUP3 DUP9 ADD PUSH2 0x3C74 JUMP JUMPDEST SWAP5 POP POP PUSH1 0x20 PUSH2 0x3CC2 DUP8 DUP3 DUP9 ADD PUSH2 0x32AA JUMP JUMPDEST SWAP4 POP POP PUSH1 0x40 PUSH2 0x3CD3 DUP8 DUP3 DUP9 ADD PUSH2 0x32AA JUMP JUMPDEST SWAP3 POP POP PUSH1 0x60 PUSH2 0x3CE4 DUP8 DUP3 DUP9 ADD PUSH2 0x32AA JUMP JUMPDEST SWAP2 POP POP SWAP3 SWAP6 SWAP2 SWAP5 POP SWAP3 POP JUMP JUMPDEST PUSH2 0x3CF9 DUP2 PUSH2 0x33AE JUMP JUMPDEST DUP2 EQ PUSH2 0x3D04 JUMPI PUSH1 0x0 DUP1 REVERT JUMPDEST POP JUMP JUMPDEST PUSH1 0x0 DUP2 CALLDATALOAD SWAP1 POP PUSH2 0x3D16 DUP2 PUSH2 0x3CF0 JUMP JUMPDEST SWAP3 SWAP2 POP POP JUMP JUMPDEST PUSH1 0x0 DUP1 PUSH1 0x40 DUP4 DUP6 SUB SLT ISZERO PUSH2 0x3D33 JUMPI PUSH2 0x3D32 PUSH2 0x3221 JUMP JUMPDEST JUMPDEST PUSH1 0x0 PUSH2 0x3D41 DUP6 DUP3 DUP7 ADD PUSH2 0x3274 JUMP JUMPDEST SWAP3 POP POP PUSH1 0x20 PUSH2 0x3D52 DUP6 DUP3 DUP7 ADD PUSH2 0x3D07 JUMP JUMPDEST SWAP2 POP POP SWAP3 POP SWAP3 SWAP1 POP JUMP JUMPDEST PUSH1 0x0 DUP1 PUSH1 0x40 DUP4 DUP6 SUB SLT ISZERO PUSH2 0x3D73 JUMPI PUSH2 0x3D72 PUSH2 0x3221 JUMP JUMPDEST JUMPDEST PUSH1 0x0 PUSH2 0x3D81 DUP6 DUP3 DUP7 ADD PUSH2 0x32AA JUMP JUMPDEST SWAP3 POP POP PUSH1 0x20 PUSH2 0x3D92 DUP6 DUP3 DUP7 ADD PUSH2 0x32AA JUMP JUMPDEST SWAP2 POP POP SWAP3 POP SWAP3 SWAP1 POP JUMP JUMPDEST PUSH1 0x80 DUP3 ADD PUSH1 0x0 DUP3 ADD MLOAD PUSH2 0x3DB2 PUSH1 0x0 DUP6 ADD DUP3 PUSH2 0x3B6D JUMP JUMPDEST POP PUSH1 0x20 DUP3 ADD MLOAD PUSH2 0x3DC5 PUSH1 0x20 DUP6 ADD DUP3 PUSH2 0x39D9 JUMP JUMPDEST POP PUSH1 0x40 DUP3 ADD MLOAD PUSH2 0x3DD8 PUSH1 0x40 DUP6 ADD DUP3 PUSH2 0x39D9 JUMP JUMPDEST POP PUSH1 0x60 DUP3 ADD MLOAD PUSH2 0x3DEB PUSH1 0x60 DUP6 ADD DUP3 PUSH2 0x39D9 JUMP JUMPDEST POP POP POP POP JUMP JUMPDEST PUSH1 0x0 PUSH1 0x80 DUP3 ADD SWAP1 POP PUSH2 0x3E06 PUSH1 0x0 DUP4 ADD DUP5 PUSH2 0x3D9C JUMP JUMPDEST SWAP3 SWAP2 POP POP JUMP JUMPDEST PUSH1 0x0 DUP1 PUSH1 0x0 PUSH1 0x60 DUP5 DUP7 SUB SLT ISZERO PUSH2 0x3E25 JUMPI PUSH2 0x3E24 PUSH2 0x3221 JUMP JUMPDEST JUMPDEST PUSH1 0x0 PUSH2 0x3E33 DUP7 DUP3 DUP8 ADD PUSH2 0x32AA JUMP JUMPDEST SWAP4 POP POP PUSH1 0x20 PUSH2 0x3E44 DUP7 DUP3 DUP8 ADD PUSH2 0x32AA JUMP JUMPDEST SWAP3 POP POP PUSH1 0x40 PUSH2 0x3E55 DUP7 DUP3 DUP8 ADD PUSH2 0x32AA JUMP JUMPDEST SWAP2 POP POP SWAP3 POP SWAP3 POP SWAP3 JUMP JUMPDEST PUSH1 0x0 DUP1 PUSH1 0x40 DUP4 DUP6 SUB SLT ISZERO PUSH2 0x3E76 JUMPI PUSH2 0x3E75 PUSH2 0x3221 JUMP JUMPDEST JUMPDEST PUSH1 0x0 PUSH2 0x3E84 DUP6 DUP3 DUP7 ADD PUSH2 0x3274 JUMP JUMPDEST SWAP3 POP POP PUSH1 0x20 PUSH2 0x3E95 DUP6 DUP3 DUP7 ADD PUSH2 0x3274 JUMP JUMPDEST SWAP2 POP POP SWAP3 POP SWAP3 SWAP1 POP JUMP JUMPDEST PUSH1 0x0 DUP1 PUSH1 0x0 DUP1 PUSH1 0x0 PUSH1 0xA0 DUP7 DUP9 SUB SLT ISZERO PUSH2 0x3EBB JUMPI PUSH2 0x3EBA PUSH2 0x3221 JUMP JUMPDEST JUMPDEST PUSH1 0x0 PUSH2 0x3EC9 DUP9 DUP3 DUP10 ADD PUSH2 0x3274 JUMP JUMPDEST SWAP6 POP POP PUSH1 0x20 PUSH2 0x3EDA DUP9 DUP3 DUP10 ADD PUSH2 0x3274 JUMP JUMPDEST SWAP5 POP POP PUSH1 0x40 PUSH2 0x3EEB DUP9 DUP3 DUP10 ADD PUSH2 0x32AA JUMP JUMPDEST SWAP4 POP POP PUSH1 0x60 PUSH2 0x3EFC DUP9 DUP3 DUP10 ADD PUSH2 0x32AA JUMP JUMPDEST SWAP3 POP POP PUSH1 0x80 DUP7 ADD CALLDATALOAD PUSH8 0xFFFFFFFFFFFFFFFF DUP2 GT ISZERO PUSH2 0x3F1D JUMPI PUSH2 0x3F1C PUSH2 0x3226 JUMP JUMPDEST JUMPDEST PUSH2 0x3F29 DUP9 DUP3 DUP10 ADD PUSH2 0x370C JUMP JUMPDEST SWAP2 POP POP SWAP3 SWAP6 POP SWAP3 SWAP6 SWAP1 SWAP4 POP JUMP JUMPDEST PUSH1 0x0 PUSH1 0xC0 DUP3 ADD SWAP1 POP PUSH2 0x3F4B PUSH1 0x0 DUP4 ADD DUP10 PUSH2 0x3C21 JUMP JUMPDEST PUSH2 0x3F58 PUSH1 0x20 DUP4 ADD DUP9 PUSH2 0x32FF JUMP JUMPDEST PUSH2 0x3F65 PUSH1 0x40 DUP4 ADD DUP8 PUSH2 0x32FF JUMP JUMPDEST PUSH2 0x3F72 PUSH1 0x60 DUP4 ADD DUP7 PUSH2 0x32FF JUMP JUMPDEST PUSH2 0x3F7F PUSH1 0x80 DUP4 ADD DUP6 PUSH2 0x32FF JUMP JUMPDEST PUSH2 0x3F8C PUSH1 0xA0 DUP4 ADD DUP5 PUSH2 0x33BA JUMP JUMPDEST SWAP8 SWAP7 POP POP POP POP POP POP POP JUMP JUMPDEST PUSH32 0x4E487B7100000000000000000000000000000000000000000000000000000000 PUSH1 0x0 MSTORE PUSH1 0x22 PUSH1 0x4 MSTORE PUSH1 0x24 PUSH1 0x0 REVERT JUMPDEST PUSH1 0x0 PUSH1 0x2 DUP3 DIV SWAP1 POP PUSH1 0x1 DUP3 AND DUP1 PUSH2 0x3FDE JUMPI PUSH1 0x7F DUP3 AND SWAP2 POP JUMPDEST PUSH1 0x20 DUP3 LT DUP2 SUB PUSH2 0x3FF1 JUMPI PUSH2 0x3FF0 PUSH2 0x3F97 JUMP JUMPDEST JUMPDEST POP SWAP2 SWAP1 POP JUMP JUMPDEST PUSH32 0x455243313135353A2063616C6C6572206973206E6F7420746F6B656E206F776E PUSH1 0x0 DUP3 ADD MSTORE PUSH32 0x6572206F7220617070726F766564000000000000000000000000000000000000 PUSH1 0x20 DUP3 ADD MSTORE POP JUMP JUMPDEST PUSH1 0x0 PUSH2 0x4053 PUSH1 0x2E DUP4 PUSH2 0x341C JUMP JUMPDEST SWAP2 POP PUSH2 0x405E DUP3 PUSH2 0x3FF7 JUMP JUMPDEST PUSH1 0x40 DUP3 ADD SWAP1 POP SWAP2 SWAP1 POP JUMP JUMPDEST PUSH1 0x0 PUSH1 0x20 DUP3 ADD SWAP1 POP DUP2 DUP2 SUB PUSH1 0x0 DUP4 ADD MSTORE PUSH2 0x4082 DUP2 PUSH2 0x4046 JUMP JUMPDEST SWAP1 POP SWAP2 SWAP1 POP JUMP JUMPDEST PUSH32 0x4E487B7100000000000000000000000000000000000000000000000000000000 PUSH1 0x0 MSTORE PUSH1 0x11 PUSH1 0x4 MSTORE PUSH1 0x24 PUSH1 0x0 REVERT JUMPDEST PUSH1 0x0 PUSH2 0x40C3 DUP3 PUSH2 0x3289 JUMP JUMPDEST SWAP2 POP PUSH32 0xFFFFFFFFFFFFFFFFFFFFFFFFFFFFFFFFFFFFFFFFFFFFFFFFFFFFFFFFFFFFFFFF DUP3 SUB PUSH2 0x40F5 JUMPI PUSH2 0x40F4 PUSH2 0x4089 JUMP JUMPDEST JUMPDEST PUSH1 0x1 DUP3 ADD SWAP1 POP SWAP2 SWAP1 POP JUMP JUMPDEST PUSH1 0x0 PUSH1 0x40 DUP3 ADD SWAP1 POP PUSH2 0x4115 PUSH1 0x0 DUP4 ADD DUP6 PUSH2 0x3C21 JUMP JUMPDEST PUSH2 0x4122 PUSH1 0x20 DUP4 ADD DUP5 PUSH2 0x32FF JUMP JUMPDEST SWAP4 SWAP3 POP POP POP JUMP JUMPDEST PUSH32 0x455243313135353A206163636F756E747320616E6420696473206C656E677468 PUSH1 0x0 DUP3 ADD MSTORE PUSH32 0x206D69736D617463680000000000000000000000000000000000000000000000 PUSH1 0x20 DUP3 ADD MSTORE POP JUMP JUMPDEST PUSH1 0x0 PUSH2 0x4185 PUSH1 0x29 DUP4 PUSH2 0x341C JUMP JUMPDEST SWAP2 POP PUSH2 0x4190 DUP3 PUSH2 0x4129 JUMP JUMPDEST PUSH1 0x40 DUP3 ADD SWAP1 POP SWAP2 SWAP1 POP JUMP JUMPDEST PUSH1 0x0 PUSH1 0x20 DUP3 ADD SWAP1 POP DUP2 DUP2 SUB PUSH1 0x0 DUP4 ADD MSTORE PUSH2 0x41B4 DUP2 PUSH2 0x4178 JUMP JUMPDEST SWAP1 POP SWAP2 SWAP1 POP JUMP JUMPDEST PUSH32 0x4E487B7100000000000000000000000000000000000000000000000000000000 PUSH1 0x0 MSTORE PUSH1 0x32 PUSH1 0x4 MSTORE PUSH1 0x24 PUSH1 0x0 REVERT JUMPDEST PUSH32 0x6861766520616C7265616479206265656E206973737565640000000000000000 PUSH1 0x0 DUP3 ADD MSTORE POP JUMP JUMPDEST PUSH1 0x0 PUSH2 0x4220 PUSH1 0x18 DUP4 PUSH2 0x341C JUMP JUMPDEST SWAP2 POP PUSH2 0x422B DUP3 PUSH2 0x41EA JUMP JUMPDEST PUSH1 0x20 DUP3 ADD SWAP1 POP SWAP2 SWAP1 POP JUMP JUMPDEST PUSH1 0x0 PUSH1 0x20 DUP3 ADD SWAP1 POP DUP2 DUP2 SUB PUSH1 0x0 DUP4 ADD MSTORE PUSH2 0x424F DUP2 PUSH2 0x4213 JUMP JUMPDEST SWAP1 POP SWAP2 SWAP1 POP JUMP JUMPDEST PUSH32 0x49742773206E6F7420796F752E00000000000000000000000000000000000000 PUSH1 0x0 DUP3 ADD MSTORE POP JUMP JUMPDEST PUSH1 0x0 PUSH2 0x428C PUSH1 0xD DUP4 PUSH2 0x341C JUMP JUMPDEST SWAP2 POP PUSH2 0x4297 DUP3 PUSH2 0x4256 JUMP JUMPDEST PUSH1 0x20 DUP3 ADD SWAP1 POP SWAP2 SWAP1 POP JUMP JUMPDEST PUSH1 0x0 PUSH1 0x20 DUP3 ADD SWAP1 POP DUP2 DUP2 SUB PUSH1 0x0 DUP4 ADD MSTORE PUSH2 0x42BB DUP2 PUSH2 0x427F JUMP JUMPDEST SWAP1 POP SWAP2 SWAP1 POP JUMP JUMPDEST PUSH1 0x0 PUSH1 0xC0 DUP3 ADD SWAP1 POP PUSH2 0x42D7 PUSH1 0x0 DUP4 ADD DUP10 PUSH2 0x3C21 JUMP JUMPDEST PUSH2 0x42E4 PUSH1 0x20 DUP4 ADD DUP9 PUSH2 0x32FF JUMP JUMPDEST PUSH2 0x42F1 PUSH1 0x40 DUP4 ADD DUP8 PUSH2 0x32FF JUMP JUMPDEST PUSH2 0x42FE PUSH1 0x60 DUP4 ADD DUP7 PUSH2 0x32FF JUMP JUMPDEST PUSH2 0x430B PUSH1 0x80 DUP4 ADD DUP6 PUSH2 0x32FF JUMP JUMPDEST DUP2 DUP2 SUB PUSH1 0xA0 DUP4 ADD MSTORE PUSH2 0x431D DUP2 DUP5 PUSH2 0x3468 JUMP JUMPDEST SWAP1 POP SWAP8 SWAP7 POP POP POP POP POP POP POP JUMP JUMPDEST PUSH32 0x492063616E277420627579206D7973656C662E00000000000000000000000000 PUSH1 0x0 DUP3 ADD MSTORE POP JUMP JUMPDEST PUSH1 0x0 PUSH2 0x4360 PUSH1 0x13 DUP4 PUSH2 0x341C JUMP JUMPDEST SWAP2 POP PUSH2 0x436B DUP3 PUSH2 0x432A JUMP JUMPDEST PUSH1 0x20 DUP3 ADD SWAP1 POP SWAP2 SWAP1 POP JUMP JUMPDEST PUSH1 0x0 PUSH1 0x20 DUP3 ADD SWAP1 POP DUP2 DUP2 SUB PUSH1 0x0 DUP4 ADD MSTORE PUSH2 0x438F DUP2 PUSH2 0x4353 JUMP JUMPDEST SWAP1 POP SWAP2 SWAP1 POP JUMP JUMPDEST PUSH32 0x436865636B20616D6F756E740000000000000000000000000000000000000000 PUSH1 0x0 DUP3 ADD MSTORE POP JUMP JUMPDEST PUSH1 0x0 PUSH2 0x43CC PUSH1 0xC DUP4 PUSH2 0x341C JUMP JUMPDEST SWAP2 POP PUSH2 0x43D7 DUP3 PUSH2 0x4396 JUMP JUMPDEST PUSH1 0x20 DUP3 ADD SWAP1 POP SWAP2 SWAP1 POP JUMP JUMPDEST PUSH1 0x0 PUSH1 0x20 DUP3 ADD SWAP1 POP DUP2 DUP2 SUB PUSH1 0x0 DUP4 ADD MSTORE PUSH2 0x43FB DUP2 PUSH2 0x43BF JUMP JUMPDEST SWAP1 POP SWAP2 SWAP1 POP JUMP JUMPDEST PUSH1 0x0 PUSH2 0x440D DUP3 PUSH2 0x3289 JUMP JUMPDEST SWAP2 POP PUSH2 0x4418 DUP4 PUSH2 0x3289 JUMP JUMPDEST SWAP3 POP DUP3 DUP3 MUL PUSH2 0x4426 DUP2 PUSH2 0x3289 JUMP JUMPDEST SWAP2 POP DUP3 DUP3 DIV DUP5 EQ DUP4 ISZERO OR PUSH2 0x443D JUMPI PUSH2 0x443C PUSH2 0x4089 JUMP JUMPDEST JUMPDEST POP SWAP3 SWAP2 POP POP JUMP JUMPDEST PUSH32 0x436865636B20746865206D6F6E657920616761696E2E00000000000000000000 PUSH1 0x0 DUP3 ADD MSTORE POP JUMP JUMPDEST PUSH1 0x0 PUSH2 0x447A PUSH1 0x16 DUP4 PUSH2 0x341C JUMP JUMPDEST SWAP2 POP PUSH2 0x4485 DUP3 PUSH2 0x4444 JUMP JUMPDEST PUSH1 0x20 DUP3 ADD SWAP1 POP SWAP2 SWAP1 POP JUMP JUMPDEST PUSH1 0x0 PUSH1 0x20 DUP3 ADD SWAP1 POP DUP2 DUP2 SUB PUSH1 0x0 DUP4 ADD MSTORE PUSH2 0x44A9 DUP2 PUSH2 0x446D JUMP JUMPDEST SWAP1 POP SWAP2 SWAP1 POP JUMP JUMPDEST PUSH1 0x0 PUSH2 0x44BB DUP3 PUSH2 0x3289 JUMP JUMPDEST SWAP2 POP PUSH2 0x44C6 DUP4 PUSH2 0x3289 JUMP JUMPDEST SWAP3 POP DUP3 DUP3 SUB SWAP1 POP DUP2 DUP2 GT ISZERO PUSH2 0x44DE JUMPI PUSH2 0x44DD PUSH2 0x4089 JUMP JUMPDEST JUMPDEST SWAP3 SWAP2 POP POP JUMP JUMPDEST PUSH1 0x0 PUSH2 0x44EF DUP3 PUSH2 0x34EF JUMP JUMPDEST SWAP1 POP SWAP2 SWAP1 POP JUMP JUMPDEST PUSH2 0x44FF DUP2 PUSH2 0x44E4 JUMP JUMPDEST DUP3 MSTORE POP POP JUMP JUMPDEST PUSH1 0x0 DUP3 DUP3 MSTORE PUSH1 0x20 DUP3 ADD SWAP1 POP SWAP3 SWAP2 POP POP JUMP JUMPDEST POP JUMP JUMPDEST PUSH1 0x0 PUSH2 0x4526 PUSH1 0x0 DUP4 PUSH2 0x4505 JUMP JUMPDEST SWAP2 POP PUSH2 0x4531 DUP3 PUSH2 0x4516 JUMP JUMPDEST PUSH1 0x0 DUP3 ADD SWAP1 POP SWAP2 SWAP1 POP JUMP JUMPDEST PUSH1 0x0 PUSH1 0xA0 DUP3 ADD SWAP1 POP PUSH2 0x4551 PUSH1 0x0 DUP4 ADD DUP8 PUSH2 0x44F6 JUMP JUMPDEST PUSH2 0x455E PUSH1 0x20 DUP4 ADD DUP7 PUSH2 0x3C21 JUMP JUMPDEST PUSH2 0x456B PUSH1 0x40 DUP4 ADD DUP6 PUSH2 0x32FF JUMP JUMPDEST PUSH2 0x4578 PUSH1 0x60 DUP4 ADD DUP5 PUSH2 0x32FF JUMP JUMPDEST DUP2 DUP2 SUB PUSH1 0x80 DUP4 ADD MSTORE PUSH2 0x4589 DUP2 PUSH2 0x4519 JUMP JUMPDEST SWAP1 POP SWAP6 SWAP5 POP POP POP POP POP JUMP JUMPDEST PUSH32 0x3F3F3F3F00000000000000000000000000000000000000000000000000000000 PUSH1 0x0 DUP3 ADD MSTORE POP JUMP JUMPDEST PUSH1 0x0 PUSH2 0x45CA PUSH1 0x4 DUP4 PUSH2 0x341C JUMP JUMPDEST SWAP2 POP PUSH2 0x45D5 DUP3 PUSH2 0x4594 JUMP JUMPDEST PUSH1 0x20 DUP3 ADD SWAP1 POP SWAP2 SWAP1 POP JUMP JUMPDEST PUSH1 0x0 PUSH1 0x20 DUP3 ADD SWAP1 POP DUP2 DUP2 SUB PUSH1 0x0 DUP4 ADD MSTORE PUSH2 0x45F9 DUP2 PUSH2 0x45BD JUMP JUMPDEST SWAP1 POP SWAP2 SWAP1 POP JUMP JUMPDEST PUSH32 0x497320697420736F6C64206F75743F0000000000000000000000000000000000 PUSH1 0x0 DUP3 ADD MSTORE POP JUMP JUMPDEST PUSH1 0x0 PUSH2 0x4636 PUSH1 0xF DUP4 PUSH2 0x341C JUMP JUMPDEST SWAP2 POP PUSH2 0x4641 DUP3 PUSH2 0x4600 JUMP JUMPDEST PUSH1 0x20 DUP3 ADD SWAP1 POP SWAP2 SWAP1 POP JUMP JUMPDEST PUSH1 0x0 PUSH1 0x20 DUP3 ADD SWAP1 POP DUP2 DUP2 SUB PUSH1 0x0 DUP4 ADD MSTORE PUSH2 0x4665 DUP2 PUSH2 0x4629 JUMP JUMPDEST SWAP1 POP SWAP2 SWAP1 POP JUMP JUMPDEST PUSH1 0x0 DUP2 MLOAD SWAP1 POP PUSH2 0x467B DUP2 PUSH2 0x3293 JUMP JUMPDEST SWAP3 SWAP2 POP POP JUMP JUMPDEST PUSH1 0x0 PUSH1 0x20 DUP3 DUP5 SUB SLT ISZERO PUSH2 0x4697 JUMPI PUSH2 0x4696 PUSH2 0x3221 JUMP JUMPDEST JUMPDEST PUSH1 0x0 PUSH2 0x46A5 DUP5 DUP3 DUP6 ADD PUSH2 0x466C JUMP JUMPDEST SWAP2 POP POP SWAP3 SWAP2 POP POP JUMP JUMPDEST PUSH32 0x43616E63656C207468652073616C6573206F726465722E000000000000000000 PUSH1 0x0 DUP3 ADD MSTORE POP JUMP JUMPDEST PUSH1 0x0 PUSH2 0x46E4 PUSH1 0x17 DUP4 PUSH2 0x341C JUMP JUMPDEST SWAP2 POP PUSH2 0x46EF DUP3 PUSH2 0x46AE JUMP JUMPDEST PUSH1 0x20 DUP3 ADD SWAP1 POP SWAP2 SWAP1 POP JUMP JUMPDEST PUSH1 0x0 PUSH1 0x20 DUP3 ADD SWAP1 POP DUP2 DUP2 SUB PUSH1 0x0 DUP4 ADD MSTORE PUSH2 0x4713 DUP2 PUSH2 0x46D7 JUMP JUMPDEST SWAP1 POP SWAP2 SWAP1 POP JUMP JUMPDEST PUSH32 0x506C6561736520656E74657220746865206578616374207175616E746974792E PUSH1 0x0 DUP3 ADD MSTORE POP JUMP JUMPDEST PUSH1 0x0 PUSH2 0x4750 PUSH1 0x20 DUP4 PUSH2 0x341C JUMP JUMPDEST SWAP2 POP PUSH2 0x475B DUP3 PUSH2 0x471A JUMP JUMPDEST PUSH1 0x20 DUP3 ADD SWAP1 POP SWAP2 SWAP1 POP JUMP JUMPDEST PUSH1 0x0 PUSH1 0x20 DUP3 ADD SWAP1 POP DUP2 DUP2 SUB PUSH1 0x0 DUP4 ADD MSTORE PUSH2 0x477F DUP2 PUSH2 0x4743 JUMP JUMPDEST SWAP1 POP SWAP2 SWAP1 POP JUMP JUMPDEST PUSH32 0x506C6561736520656E7465722074686520636F72726563742070726963652E00 PUSH1 0x0 DUP3 ADD MSTORE POP JUMP JUMPDEST PUSH1 0x0 PUSH2 0x47BC PUSH1 0x1F DUP4 PUSH2 0x341C JUMP JUMPDEST SWAP2 POP PUSH2 0x47C7 DUP3 PUSH2 0x4786 JUMP JUMPDEST PUSH1 0x20 DUP3 ADD SWAP1 POP SWAP2 SWAP1 POP JUMP JUMPDEST PUSH1 0x0 PUSH1 0x20 DUP3 ADD SWAP1 POP DUP2 DUP2 SUB PUSH1 0x0 DUP4 ADD MSTORE PUSH2 0x47EB DUP2 PUSH2 0x47AF JUMP JUMPDEST SWAP1 POP SWAP2 SWAP1 POP JUMP JUMPDEST PUSH32 0x506C6561736520656E7465722074686520636F727265637420616D6F756E742E PUSH1 0x0 DUP3 ADD MSTORE POP JUMP JUMPDEST PUSH1 0x0 PUSH2 0x4828 PUSH1 0x20 DUP4 PUSH2 0x341C JUMP JUMPDEST SWAP2 POP PUSH2 0x4833 DUP3 PUSH2 0x47F2 JUMP JUMPDEST PUSH1 0x20 DUP3 ADD SWAP1 POP SWAP2 SWAP1 POP JUMP JUMPDEST PUSH1 0x0 PUSH1 0x20 DUP3 ADD SWAP1 POP DUP2 DUP2 SUB PUSH1 0x0 DUP4 ADD MSTORE PUSH2 0x4857 DUP2 PUSH2 0x481B JUMP JUMPDEST SWAP1 POP SWAP2 SWAP1 POP JUMP JUMPDEST PUSH1 0x0 PUSH1 0x40 DUP3 ADD SWAP1 POP PUSH2 0x4873 PUSH1 0x0 DUP4 ADD DUP6 PUSH2 0x3C21 JUMP JUMPDEST PUSH2 0x4880 PUSH1 0x20 DUP4 ADD DUP5 PUSH2 0x3C21 JUMP JUMPDEST SWAP4 SWAP3 POP POP POP JUMP JUMPDEST PUSH1 0x0 DUP2 MLOAD SWAP1 POP PUSH2 0x4896 DUP2 PUSH2 0x3CF0 JUMP JUMPDEST SWAP3 SWAP2 POP POP JUMP JUMPDEST PUSH1 0x0 PUSH1 0x20 DUP3 DUP5 SUB SLT ISZERO PUSH2 0x48B2 JUMPI PUSH2 0x48B1 PUSH2 0x3221 JUMP JUMPDEST JUMPDEST PUSH1 0x0 PUSH2 0x48C0 DUP5 DUP3 DUP6 ADD PUSH2 0x4887 JUMP JUMPDEST SWAP2 POP POP SWAP3 SWAP2 POP POP JUMP JUMPDEST PUSH32 0x6265206E6F7420617070726F7665640000000000000000000000000000000000 PUSH1 0x0 DUP3 ADD MSTORE POP JUMP JUMPDEST PUSH1 0x0 PUSH2 0x48FF PUSH1 0xF DUP4 PUSH2 0x341C JUMP JUMPDEST SWAP2 POP PUSH2 0x490A DUP3 PUSH2 0x48C9 JUMP JUMPDEST PUSH1 0x20 DUP3 ADD SWAP1 POP SWAP2 SWAP1 POP JUMP JUMPDEST PUSH1 0x0 PUSH1 0x20 DUP3 ADD SWAP1 POP DUP2 DUP2 SUB PUSH1 0x0 DUP4 ADD MSTORE PUSH2 0x492E DUP2 PUSH2 0x48F2 JUMP JUMPDEST SWAP1 POP SWAP2 SWAP1 POP JUMP JUMPDEST PUSH1 0x0 DUP1 REVERT JUMPDEST PUSH1 0x0 DUP2 MLOAD SWAP1 POP PUSH2 0x4949 DUP2 PUSH2 0x325D JUMP JUMPDEST SWAP3 SWAP2 POP POP JUMP JUMPDEST PUSH1 0x0 PUSH1 0xC0 DUP3 DUP5 SUB SLT ISZERO PUSH2 0x4965 JUMPI PUSH2 0x4964 PUSH2 0x4935 JUMP JUMPDEST JUMPDEST PUSH2 0x496F PUSH1 0xC0 PUSH2 0x35A2 JUMP JUMPDEST SWAP1 POP PUSH1 0x0 PUSH2 0x497F DUP5 DUP3 DUP6 ADD PUSH2 0x493A JUMP JUMPDEST PUSH1 0x0 DUP4 ADD MSTORE POP PUSH1 0x20 PUSH2 0x4993 DUP5 DUP3 DUP6 ADD PUSH2 0x466C JUMP JUMPDEST PUSH1 0x20 DUP4 ADD MSTORE POP PUSH1 0x40 PUSH2 0x49A7 DUP5 DUP3 DUP6 ADD PUSH2 0x466C JUMP JUMPDEST PUSH1 0x40 DUP4 ADD MSTORE POP PUSH1 0x60 PUSH2 0x49BB DUP5 DUP3 DUP6 ADD PUSH2 0x466C JUMP JUMPDEST PUSH1 0x60 DUP4 ADD MSTORE POP PUSH1 0x80 PUSH2 0x49CF DUP5 DUP3 DUP6 ADD PUSH2 0x466C JUMP JUMPDEST PUSH1 0x80 DUP4 ADD MSTORE POP PUSH1 0xA0 PUSH2 0x49E3 DUP5 DUP3 DUP6 ADD PUSH2 0x4887 JUMP JUMPDEST PUSH1 0xA0 DUP4 ADD MSTORE POP SWAP3 SWAP2 POP POP JUMP JUMPDEST PUSH1 0x0 PUSH1 0xC0 DUP3 DUP5 SUB SLT ISZERO PUSH2 0x4A05 JUMPI PUSH2 0x4A04 PUSH2 0x3221 JUMP JUMPDEST JUMPDEST PUSH1 0x0 PUSH2 0x4A13 DUP5 DUP3 DUP6 ADD PUSH2 0x494F JUMP JUMPDEST SWAP2 POP POP SWAP3 SWAP2 POP POP JUMP JUMPDEST PUSH32 0x697320537563636573733F000000000000000000000000000000000000000000 PUSH1 0x0 DUP3 ADD MSTORE POP JUMP JUMPDEST PUSH1 0x0 PUSH2 0x4A52 PUSH1 0xB DUP4 PUSH2 0x341C JUMP JUMPDEST SWAP2 POP PUSH2 0x4A5D DUP3 PUSH2 0x4A1C JUMP JUMPDEST PUSH1 0x20 DUP3 ADD SWAP1 POP SWAP2 SWAP1 POP JUMP JUMPDEST PUSH1 0x0 PUSH1 0x20 DUP3 ADD SWAP1 POP DUP2 DUP2 SUB PUSH1 0x0 DUP4 ADD MSTORE PUSH2 0x4A81 DUP2 PUSH2 0x4A45 JUMP JUMPDEST SWAP1 POP SWAP2 SWAP1 POP JUMP JUMPDEST PUSH1 0x0 PUSH2 0x4A93 DUP3 PUSH2 0x3289 JUMP JUMPDEST SWAP2 POP PUSH2 0x4A9E DUP4 PUSH2 0x3289 JUMP JUMPDEST SWAP3 POP DUP3 DUP3 ADD SWAP1 POP DUP1 DUP3 GT ISZERO PUSH2 0x4AB6 JUMPI PUSH2 0x4AB5 PUSH2 0x4089 JUMP JUMPDEST JUMPDEST SWAP3 SWAP2 POP POP JUMP JUMPDEST PUSH1 0x0 PUSH1 0x80 DUP3 ADD SWAP1 POP PUSH2 0x4AD1 PUSH1 0x0 DUP4 ADD DUP8 PUSH2 0x3C21 JUMP JUMPDEST PUSH2 0x4ADE PUSH1 0x20 DUP4 ADD DUP7 PUSH2 0x32FF JUMP JUMPDEST PUSH2 0x4AEB PUSH1 0x40 DUP4 ADD DUP6 PUSH2 0x32FF JUMP JUMPDEST PUSH2 0x4AF8 PUSH1 0x60 DUP4 ADD DUP5 PUSH2 0x32FF JUMP JUMPDEST SWAP6 SWAP5 POP POP POP POP POP JUMP JUMPDEST PUSH32 0x4F776E61626C653A206E6577206F776E657220697320746865207A65726F2061 PUSH1 0x0 DUP3 ADD MSTORE PUSH32 0x6464726573730000000000000000000000000000000000000000000000000000 PUSH1 0x20 DUP3 ADD MSTORE POP JUMP JUMPDEST PUSH1 0x0 PUSH2 0x4B5D PUSH1 0x26 DUP4 PUSH2 0x341C JUMP JUMPDEST SWAP2 POP PUSH2 0x4B68 DUP3 PUSH2 0x4B01 JUMP JUMPDEST PUSH1 0x40 DUP3 ADD SWAP1 POP SWAP2 SWAP1 POP JUMP JUMPDEST PUSH1 0x0 PUSH1 0x20 DUP3 ADD SWAP1 POP DUP2 DUP2 SUB PUSH1 0x0 DUP4 ADD MSTORE PUSH2 0x4B8C DUP2 PUSH2 0x4B50 JUMP JUMPDEST SWAP1 POP SWAP2 SWAP1 POP JUMP JUMPDEST PUSH32 0x455243313135353A2061646472657373207A65726F206973206E6F7420612076 PUSH1 0x0 DUP3 ADD MSTORE PUSH32 0x616C6964206F776E657200000000000000000000000000000000000000000000 PUSH1 0x20 DUP3 ADD MSTORE POP JUMP JUMPDEST PUSH1 0x0 PUSH2 0x4BEF PUSH1 0x2A DUP4 PUSH2 0x341C JUMP JUMPDEST SWAP2 POP PUSH2 0x4BFA DUP3 PUSH2 0x4B93 JUMP JUMPDEST PUSH1 0x40 DUP3 ADD SWAP1 POP SWAP2 SWAP1 POP JUMP JUMPDEST PUSH1 0x0 PUSH1 0x20 DUP3 ADD SWAP1 POP DUP2 DUP2 SUB PUSH1 0x0 DUP4 ADD MSTORE PUSH2 0x4C1E DUP2 PUSH2 0x4BE2 JUMP JUMPDEST SWAP1 POP SWAP2 SWAP1 POP JUMP JUMPDEST PUSH32 0x455243313135353A2069647320616E6420616D6F756E7473206C656E67746820 PUSH1 0x0 DUP3 ADD MSTORE PUSH32 0x6D69736D61746368000000000000000000000000000000000000000000000000 PUSH1 0x20 DUP3 ADD MSTORE POP JUMP JUMPDEST PUSH1 0x0 PUSH2 0x4C81 PUSH1 0x28 DUP4 PUSH2 0x341C JUMP JUMPDEST SWAP2 POP PUSH2 0x4C8C DUP3 PUSH2 0x4C25 JUMP JUMPDEST PUSH1 0x40 DUP3 ADD SWAP1 POP SWAP2 SWAP1 POP JUMP JUMPDEST PUSH1 0x0 PUSH1 0x20 DUP3 ADD SWAP1 POP DUP2 DUP2 SUB PUSH1 0x0 DUP4 ADD MSTORE PUSH2 0x4CB0 DUP2 PUSH2 0x4C74 JUMP JUMPDEST SWAP1 POP SWAP2 SWAP1 POP JUMP JUMPDEST PUSH32 0x455243313135353A207472616E7366657220746F20746865207A65726F206164 PUSH1 0x0 DUP3 ADD MSTORE PUSH32 0x6472657373000000000000000000000000000000000000000000000000000000 PUSH1 0x20 DUP3 ADD MSTORE POP JUMP JUMPDEST PUSH1 0x0 PUSH2 0x4D13 PUSH1 0x25 DUP4 PUSH2 0x341C JUMP JUMPDEST SWAP2 POP PUSH2 0x4D1E DUP3 PUSH2 0x4CB7 JUMP JUMPDEST PUSH1 0x40 DUP3 ADD SWAP1 POP SWAP2 SWAP1 POP JUMP JUMPDEST PUSH1 0x0 PUSH1 0x20 DUP3 ADD SWAP1 POP DUP2 DUP2 SUB PUSH1 0x0 DUP4 ADD MSTORE PUSH2 0x4D42 DUP2 PUSH2 0x4D06 JUMP JUMPDEST SWAP1 POP SWAP2 SWAP1 POP JUMP JUMPDEST PUSH32 0x455243313135353A20696E73756666696369656E742062616C616E636520666F PUSH1 0x0 DUP3 ADD MSTORE PUSH32 0x72207472616E7366657200000000000000000000000000000000000000000000 PUSH1 0x20 DUP3 ADD MSTORE POP JUMP JUMPDEST PUSH1 0x0 PUSH2 0x4DA5 PUSH1 0x2A DUP4 PUSH2 0x341C JUMP JUMPDEST SWAP2 POP PUSH2 0x4DB0 DUP3 PUSH2 0x4D49 JUMP JUMPDEST PUSH1 0x40 DUP3 ADD SWAP1 POP SWAP2 SWAP1 POP JUMP JUMPDEST PUSH1 0x0 PUSH1 0x20 DUP3 ADD SWAP1 POP DUP2 DUP2 SUB PUSH1 0x0 DUP4 ADD MSTORE PUSH2 0x4DD4 DUP2 PUSH2 0x4D98 JUMP JUMPDEST SWAP1 POP SWAP2 SWAP1 POP JUMP JUMPDEST PUSH1 0x0 PUSH1 0x40 DUP3 ADD SWAP1 POP DUP2 DUP2 SUB PUSH1 0x0 DUP4 ADD MSTORE PUSH2 0x4DF5 DUP2 DUP6 PUSH2 0x3A0D JUMP JUMPDEST SWAP1 POP DUP2 DUP2 SUB PUSH1 0x20 DUP4 ADD MSTORE PUSH2 0x4E09 DUP2 DUP5 PUSH2 0x3A0D JUMP JUMPDEST SWAP1 POP SWAP4 SWAP3 POP POP POP JUMP JUMPDEST PUSH32 0x4E487B7100000000000000000000000000000000000000000000000000000000 PUSH1 0x0 MSTORE PUSH1 0x12 PUSH1 0x4 MSTORE PUSH1 0x24 PUSH1 0x0 REVERT JUMPDEST PUSH1 0x0 PUSH2 0x4E4C DUP3 PUSH2 0x3289 JUMP JUMPDEST SWAP2 POP PUSH2 0x4E57 DUP4 PUSH2 0x3289 JUMP JUMPDEST SWAP3 POP DUP3 PUSH2 0x4E67 JUMPI PUSH2 0x4E66 PUSH2 0x4E12 JUMP JUMPDEST JUMPDEST DUP3 DUP3 DIV SWAP1 POP SWAP3 SWAP2 POP POP JUMP JUMPDEST PUSH32 0x455243313135353A206D696E7420746F20746865207A65726F20616464726573 PUSH1 0x0 DUP3 ADD MSTORE PUSH32 0x7300000000000000000000000000000000000000000000000000000000000000 PUSH1 0x20 DUP3 ADD MSTORE POP JUMP JUMPDEST PUSH1 0x0 PUSH2 0x4ECE PUSH1 0x21 DUP4 PUSH2 0x341C JUMP JUMPDEST SWAP2 POP PUSH2 0x4ED9 DUP3 PUSH2 0x4E72 JUMP JUMPDEST PUSH1 0x40 DUP3 ADD SWAP1 POP SWAP2 SWAP1 POP JUMP JUMPDEST PUSH1 0x0 PUSH1 0x20 DUP3 ADD SWAP1 POP DUP2 DUP2 SUB PUSH1 0x0 DUP4 ADD MSTORE PUSH2 0x4EFD DUP2 PUSH2 0x4EC1 JUMP JUMPDEST SWAP1 POP SWAP2 SWAP1 POP JUMP JUMPDEST PUSH1 0x0 PUSH1 0x40 DUP3 ADD SWAP1 POP PUSH2 0x4F19 PUSH1 0x0 DUP4 ADD DUP6 PUSH2 0x32FF JUMP JUMPDEST PUSH2 0x4F26 PUSH1 0x20 DUP4 ADD DUP5 PUSH2 0x32FF JUMP JUMPDEST SWAP4 SWAP3 POP POP POP JUMP JUMPDEST PUSH32 0x4F776E61626C653A2063616C6C6572206973206E6F7420746865206F776E6572 PUSH1 0x0 DUP3 ADD MSTORE POP JUMP JUMPDEST PUSH1 0x0 PUSH2 0x4F63 PUSH1 0x20 DUP4 PUSH2 0x341C JUMP JUMPDEST SWAP2 POP PUSH2 0x4F6E DUP3 PUSH2 0x4F2D JUMP JUMPDEST PUSH1 0x20 DUP3 ADD SWAP1 POP SWAP2 SWAP1 POP JUMP JUMPDEST PUSH1 0x0 PUSH1 0x20 DUP3 ADD SWAP1 POP DUP2 DUP2 SUB PUSH1 0x0 DUP4 ADD MSTORE PUSH2 0x4F92 DUP2 PUSH2 0x4F56 JUMP JUMPDEST SWAP1 POP SWAP2 SWAP1 POP JUMP JUMPDEST PUSH32 0x455243313135353A206275726E2066726F6D20746865207A65726F2061646472 PUSH1 0x0 DUP3 ADD MSTORE PUSH32 0x6573730000000000000000000000000000000000000000000000000000000000 PUSH1 0x20 DUP3 ADD MSTORE POP JUMP JUMPDEST PUSH1 0x0 PUSH2 0x4FF5 PUSH1 0x23 DUP4 PUSH2 0x341C JUMP JUMPDEST SWAP2 POP PUSH2 0x5000 DUP3 PUSH2 0x4F99 JUMP JUMPDEST PUSH1 0x40 DUP3 ADD SWAP1 POP SWAP2 SWAP1 POP JUMP JUMPDEST PUSH1 0x0 PUSH1 0x20 DUP3 ADD SWAP1 POP DUP2 DUP2 SUB PUSH1 0x0 DUP4 ADD MSTORE PUSH2 0x5024 DUP2 PUSH2 0x4FE8 JUMP JUMPDEST SWAP1 POP SWAP2 SWAP1 POP JUMP JUMPDEST PUSH32 0x455243313135353A206275726E20616D6F756E7420657863656564732062616C PUSH1 0x0 DUP3 ADD MSTORE PUSH32 0x616E636500000000000000000000000000000000000000000000000000000000 PUSH1 0x20 DUP3 ADD MSTORE POP JUMP JUMPDEST PUSH1 0x0 PUSH2 0x5087 PUSH1 0x24 DUP4 PUSH2 0x341C JUMP JUMPDEST SWAP2 POP PUSH2 0x5092 DUP3 PUSH2 0x502B JUMP JUMPDEST PUSH1 0x40 DUP3 ADD SWAP1 POP SWAP2 SWAP1 POP JUMP JUMPDEST PUSH1 0x0 PUSH1 0x20 DUP3 ADD SWAP1 POP DUP2 DUP2 SUB PUSH1 0x0 DUP4 ADD MSTORE PUSH2 0x50B6 DUP2 PUSH2 0x507A JUMP JUMPDEST SWAP1 POP SWAP2 SWAP1 POP JUMP JUMPDEST PUSH32 0x455243313135353A2073657474696E6720617070726F76616C20737461747573 PUSH1 0x0 DUP3 ADD MSTORE PUSH32 0x20666F722073656C660000000000000000000000000000000000000000000000 PUSH1 0x20 DUP3 ADD MSTORE POP JUMP JUMPDEST PUSH1 0x0 PUSH2 0x5119 PUSH1 0x29 DUP4 PUSH2 0x341C JUMP JUMPDEST SWAP2 POP PUSH2 0x5124 DUP3 PUSH2 0x50BD JUMP JUMPDEST PUSH1 0x40 DUP3 ADD SWAP1 POP SWAP2 SWAP1 POP JUMP JUMPDEST PUSH1 0x0 PUSH1 0x20 DUP3 ADD SWAP1 POP DUP2 DUP2 SUB PUSH1 0x0 DUP4 ADD MSTORE PUSH2 0x5148 DUP2 PUSH2 0x510C JUMP JUMPDEST SWAP1 POP SWAP2 SWAP1 POP JUMP JUMPDEST PUSH1 0x0 DUP2 MLOAD SWAP1 POP SWAP2 SWAP1 POP JUMP JUMPDEST PUSH1 0x0 PUSH2 0x5165 DUP3 PUSH2 0x514F JUMP JUMPDEST PUSH2 0x516F DUP2 DUP6 PUSH2 0x4505 JUMP JUMPDEST SWAP4 POP PUSH2 0x517F DUP2 DUP6 PUSH1 0x20 DUP7 ADD PUSH2 0x342D JUMP JUMPDEST PUSH2 0x5188 DUP2 PUSH2 0x3457 JUMP JUMPDEST DUP5 ADD SWAP2 POP POP SWAP3 SWAP2 POP POP JUMP JUMPDEST PUSH1 0x0 PUSH1 0xA0 DUP3 ADD SWAP1 POP PUSH2 0x51A8 PUSH1 0x0 DUP4 ADD DUP9 PUSH2 0x3C21 JUMP JUMPDEST PUSH2 0x51B5 PUSH1 0x20 DUP4 ADD DUP8 PUSH2 0x3C21 JUMP JUMPDEST DUP2 DUP2 SUB PUSH1 0x40 DUP4 ADD MSTORE PUSH2 0x51C7 DUP2 DUP7 PUSH2 0x3A0D JUMP JUMPDEST SWAP1 POP DUP2 DUP2 SUB PUSH1 0x60 DUP4 ADD MSTORE PUSH2 0x51DB DUP2 DUP6 PUSH2 0x3A0D JUMP JUMPDEST SWAP1 POP DUP2 DUP2 SUB PUSH1 0x80 DUP4 ADD MSTORE PUSH2 0x51EF DUP2 DUP5 PUSH2 0x515A JUMP JUMPDEST SWAP1 POP SWAP7 SWAP6 POP POP POP POP POP POP JUMP JUMPDEST PUSH1 0x0 DUP2 MLOAD SWAP1 POP PUSH2 0x520A DUP2 PUSH2 0x3355 JUMP JUMPDEST SWAP3 SWAP2 POP POP JUMP JUMPDEST PUSH1 0x0 PUSH1 0x20 DUP3 DUP5 SUB SLT ISZERO PUSH2 0x5226 JUMPI PUSH2 0x5225 PUSH2 0x3221 JUMP JUMPDEST JUMPDEST PUSH1 0x0 PUSH2 0x5234 DUP5 DUP3 DUP6 ADD PUSH2 0x51FB JUMP JUMPDEST SWAP2 POP POP SWAP3 SWAP2 POP POP JUMP JUMPDEST PUSH1 0x0 DUP2 PUSH1 0xE0 SHR SWAP1 POP SWAP2 SWAP1 POP JUMP JUMPDEST PUSH1 0x0 PUSH1 0x3 RETURNDATASIZE GT ISZERO PUSH2 0x5269 JUMPI PUSH1 0x4 PUSH1 0x0 DUP1 RETURNDATACOPY PUSH2 0x5266 PUSH1 0x0 MLOAD PUSH2 0x523D JUMP JUMPDEST SWAP1 POP JUMPDEST SWAP1 JUMP JUMPDEST PUSH1 0x0 PUSH1 0x44 RETURNDATASIZE LT PUSH2 0x52F9 JUMPI PUSH2 0x527E PUSH2 0x3217 JUMP JUMPDEST PUSH1 0x4 RETURNDATASIZE SUB PUSH1 0x4 DUP3 RETURNDATACOPY DUP1 MLOAD RETURNDATASIZE PUSH1 0x24 DUP3 ADD GT PUSH8 0xFFFFFFFFFFFFFFFF DUP3 GT OR ISZERO PUSH2 0x52A6 JUMPI POP POP PUSH2 0x52F9 JUMP JUMPDEST DUP1 DUP3 ADD DUP1 MLOAD PUSH8 0xFFFFFFFFFFFFFFFF DUP2 GT ISZERO PUSH2 0x52C4 JUMPI POP POP POP POP PUSH2 0x52F9 JUMP JUMPDEST DUP1 PUSH1 0x20 DUP4 ADD ADD PUSH1 0x4 RETURNDATASIZE SUB DUP6 ADD DUP2 GT ISZERO PUSH2 0x52E1 JUMPI POP POP POP POP POP PUSH2 0x52F9 JUMP JUMPDEST PUSH2 0x52F0 DUP3 PUSH1 0x20 ADD DUP6 ADD DUP7 PUSH2 0x3571 JUMP JUMPDEST DUP3 SWAP6 POP POP POP POP POP POP JUMPDEST SWAP1 JUMP JUMPDEST PUSH32 0x455243313135353A207472616E7366657220746F206E6F6E2D45524331313535 PUSH1 0x0 DUP3 ADD MSTORE PUSH32 0x526563656976657220696D706C656D656E746572000000000000000000000000 PUSH1 0x20 DUP3 ADD MSTORE POP JUMP JUMPDEST PUSH1 0x0 PUSH2 0x5358 PUSH1 0x34 DUP4 PUSH2 0x341C JUMP JUMPDEST SWAP2 POP PUSH2 0x5363 DUP3 PUSH2 0x52FC JUMP JUMPDEST PUSH1 0x40 DUP3 ADD SWAP1 POP SWAP2 SWAP1 POP JUMP JUMPDEST PUSH1 0x0 PUSH1 0x20 DUP3 ADD SWAP1 POP DUP2 DUP2 SUB PUSH1 0x0 DUP4 ADD MSTORE PUSH2 0x5387 DUP2 PUSH2 0x534B JUMP JUMPDEST SWAP1 POP SWAP2 SWAP1 POP JUMP JUMPDEST PUSH32 0x455243313135353A204552433131353552656365697665722072656A65637465 PUSH1 0x0 DUP3 ADD MSTORE PUSH32 0x6420746F6B656E73000000000000000000000000000000000000000000000000 PUSH1 0x20 DUP3 ADD MSTORE POP JUMP JUMPDEST PUSH1 0x0 PUSH2 0x53EA PUSH1 0x28 DUP4 PUSH2 0x341C JUMP JUMPDEST SWAP2 POP PUSH2 0x53F5 DUP3 PUSH2 0x538E JUMP JUMPDEST PUSH1 0x40 DUP3 ADD SWAP1 POP SWAP2 SWAP1 POP JUMP JUMPDEST PUSH1 0x0 PUSH1 0x20 DUP3 ADD SWAP1 POP DUP2 DUP2 SUB PUSH1 0x0 DUP4 ADD MSTORE PUSH2 0x5419 DUP2 PUSH2 0x53DD JUMP JUMPDEST SWAP1 POP SWAP2 SWAP1 POP JUMP JUMPDEST PUSH1 0x0 PUSH1 0xA0 DUP3 ADD SWAP1 POP PUSH2 0x5435 PUSH1 0x0 DUP4 ADD DUP9 PUSH2 0x3C21 JUMP JUMPDEST PUSH2 0x5442 PUSH1 0x20 DUP4 ADD DUP8 PUSH2 0x3C21 JUMP JUMPDEST PUSH2 0x544F PUSH1 0x40 DUP4 ADD DUP7 PUSH2 0x32FF JUMP JUMPDEST PUSH2 0x545C PUSH1 0x60 DUP4 ADD DUP6 PUSH2 0x32FF JUMP JUMPDEST DUP2 DUP2 SUB PUSH1 0x80 DUP4 ADD MSTORE PUSH2 0x546E DUP2 DUP5 PUSH2 0x515A JUMP JUMPDEST SWAP1 POP SWAP7 SWAP6 POP POP POP POP POP POP JUMP INVALID LOG2 PUSH5 0x6970667358 0x22 SLT KECCAK256 SUB 0xB5 0xA6 DUP4 ADD SHR 0xEB CALLER 0xB4 0xD LOG0 SLOAD ADDMOD 0x4A PUSH13 0x840774A6783A69E50A2DCB87F7 EXP 0x1E PUSH13 0xF564736F6C6343000812003300 "
		},
		"gasEstimates": {
			"creation": {
				"codeDepositCost": "4336000",
				"executionCost": "infinite",
				"totalCost": "infinite"
			},
			"external": {
				"DToken()": "infinite",
				"Ftoken()": "infinite",
				"balanceOf(address,uint256)": "infinite",
				"balanceOfBatch(address[],uint256[])": "infinite",
				"cancelSalesToken(uint256)": "infinite",
				"faildBurn(address,uint256,uint256)": "infinite",
				"getSalesTokenListAll(uint256,uint256)": "infinite",
				"getTokenOwnerData(uint256)": "infinite",
				"ids(uint256)": "infinite",
				"idsView()": "infinite",
				"isApprovedForAll(address,address)": "infinite",
				"isChangedCA(address)": "49112",
				"isFunddingSuccess(uint256)": "infinite",
				"mintFundding(address,address,uint256,uint256,uint256,uint256)": "infinite",
				"owner()": "2590",
				"purchaseToken(address,uint256,uint256,uint256)": "infinite",
				"renounceOwnership()": "30443",
				"safeBatchTransferFrom(address,address,uint256[],uint256[],bytes)": "infinite",
				"safeTransferFrom(address,address,uint256,uint256,bytes)": "infinite",
				"saleApprovalFalse(address)": "27055",
				"saleApprovalTrue(address)": "27120",
				"saleNumberList(uint256)": "infinite",
				"salesToken(uint256,uint256,uint256)": "infinite",
				"setApprovalForAll(address,bool)": "infinite",
				"supportsInterface(bytes4)": "842",
				"tokenOwners(uint256)": "infinite",
				"transferOwnership(address)": "30810",
				"uri(uint256)": "infinite"
			},
			"internal": {
				"_getSalesTokenData(address,uint256,uint256,uint256)": "infinite"
			}
		},
		"methodIdentifiers": {
			"DToken()": "19c5b89c",
			"Ftoken()": "325d20c4",
			"balanceOf(address,uint256)": "00fdd58e",
			"balanceOfBatch(address[],uint256[])": "4e1273f4",
			"cancelSalesToken(uint256)": "422b71d7",
			"faildBurn(address,uint256,uint256)": "77379082",
			"getSalesTokenListAll(uint256,uint256)": "d0ed81c9",
			"getTokenOwnerData(uint256)": "8d63193d",
			"ids(uint256)": "fac333ac",
			"idsView()": "7abfee42",
			"isApprovedForAll(address,address)": "e985e9c5",
			"isChangedCA(address)": "ad216fb6",
			"isFunddingSuccess(uint256)": "c31f4b58",
			"mintFundding(address,address,uint256,uint256,uint256,uint256)": "6f0ea038",
			"owner()": "8da5cb5b",
			"purchaseToken(address,uint256,uint256,uint256)": "8f148033",
			"renounceOwnership()": "715018a6",
			"safeBatchTransferFrom(address,address,uint256[],uint256[],bytes)": "2eb2c2d6",
			"safeTransferFrom(address,address,uint256,uint256,bytes)": "f242432a",
			"saleApprovalFalse(address)": "4b77f8d0",
			"saleApprovalTrue(address)": "8497f29a",
			"saleNumberList(uint256)": "a2f256ee",
			"salesToken(uint256,uint256,uint256)": "d8aadba3",
			"setApprovalForAll(address,bool)": "a22cb465",
			"supportsInterface(bytes4)": "01ffc9a7",
			"tokenOwners(uint256)": "f8a14f46",
			"transferOwnership(address)": "f2fde38b",
			"uri(uint256)": "0e89341c"
		}
	},
	"abi": [
		{
			"inputs": [
				{
					"internalType": "address",
					"name": "DtsTokenCA",
					"type": "address"
				}
			],
			"stateMutability": "nonpayable",
			"type": "constructor"
		},
		{
			"anonymous": false,
			"inputs": [
				{
					"indexed": true,
					"internalType": "address",
					"name": "account",
					"type": "address"
				},
				{
					"indexed": true,
					"internalType": "address",
					"name": "operator",
					"type": "address"
				},
				{
					"indexed": false,
					"internalType": "bool",
					"name": "approved",
					"type": "bool"
				}
			],
			"name": "ApprovalForAll",
			"type": "event"
		},
		{
			"anonymous": false,
			"inputs": [
				{
					"indexed": false,
					"internalType": "address",
					"name": "account",
					"type": "address"
				},
				{
					"indexed": false,
					"internalType": "uint256",
					"name": "",
					"type": "uint256"
				}
			],
			"name": "CancelEvent",
			"type": "event"
		},
		{
			"anonymous": false,
			"inputs": [
				{
					"indexed": true,
					"internalType": "address",
					"name": "previousOwner",
					"type": "address"
				},
				{
					"indexed": true,
					"internalType": "address",
					"name": "newOwner",
					"type": "address"
				}
			],
			"name": "OwnershipTransferred",
			"type": "event"
		},
		{
			"anonymous": false,
			"inputs": [
				{
					"indexed": false,
					"internalType": "address",
					"name": "account",
					"type": "address"
				},
				{
					"indexed": false,
					"internalType": "uint256",
					"name": "tokenId",
					"type": "uint256"
				},
				{
					"indexed": false,
					"internalType": "uint256",
					"name": "amount",
					"type": "uint256"
				},
				{
					"indexed": false,
					"internalType": "uint256",
					"name": "price",
					"type": "uint256"
				}
			],
			"name": "SaleEvent",
			"type": "event"
		},
		{
			"anonymous": false,
			"inputs": [
				{
					"indexed": true,
					"internalType": "address",
					"name": "operator",
					"type": "address"
				},
				{
					"indexed": true,
					"internalType": "address",
					"name": "from",
					"type": "address"
				},
				{
					"indexed": true,
					"internalType": "address",
					"name": "to",
					"type": "address"
				},
				{
					"indexed": false,
					"internalType": "uint256[]",
					"name": "ids",
					"type": "uint256[]"
				},
				{
					"indexed": false,
					"internalType": "uint256[]",
					"name": "values",
					"type": "uint256[]"
				}
			],
			"name": "TransferBatch",
			"type": "event"
		},
		{
			"anonymous": false,
			"inputs": [
				{
					"indexed": true,
					"internalType": "address",
					"name": "operator",
					"type": "address"
				},
				{
					"indexed": true,
					"internalType": "address",
					"name": "from",
					"type": "address"
				},
				{
					"indexed": true,
					"internalType": "address",
					"name": "to",
					"type": "address"
				},
				{
					"indexed": false,
					"internalType": "uint256",
					"name": "id",
					"type": "uint256"
				},
				{
					"indexed": false,
					"internalType": "uint256",
					"name": "value",
					"type": "uint256"
				}
			],
			"name": "TransferSingle",
			"type": "event"
		},
		{
			"anonymous": false,
			"inputs": [
				{
					"indexed": false,
					"internalType": "string",
					"name": "value",
					"type": "string"
				},
				{
					"indexed": true,
					"internalType": "uint256",
					"name": "id",
					"type": "uint256"
				}
			],
			"name": "URI",
			"type": "event"
		},
		{
			"anonymous": false,
			"inputs": [
				{
					"indexed": false,
					"internalType": "address",
					"name": "account",
					"type": "address"
				},
				{
					"indexed": false,
					"internalType": "uint256",
					"name": "tokenId",
					"type": "uint256"
				},
				{
					"indexed": false,
					"internalType": "uint256",
					"name": "amount",
					"type": "uint256"
				},
				{
					"indexed": false,
					"internalType": "uint256",
					"name": "totalPrice",
					"type": "uint256"
				},
				{
					"indexed": false,
					"internalType": "uint256",
					"name": "getTime",
					"type": "uint256"
				},
				{
					"indexed": false,
					"internalType": "string",
					"name": "result",
					"type": "string"
				}
			],
			"name": "seccessFundding",
			"type": "event"
		},
		{
			"inputs": [],
			"name": "DToken",
			"outputs": [
				{
					"internalType": "contract DtsToken",
					"name": "",
					"type": "address"
				}
			],
			"stateMutability": "view",
			"type": "function"
		},
		{
			"inputs": [],
			"name": "Ftoken",
			"outputs": [
				{
					"internalType": "contract FunddingToken",
					"name": "",
					"type": "address"
				}
			],
			"stateMutability": "view",
			"type": "function"
		},
		{
			"inputs": [
				{
					"internalType": "address",
					"name": "account",
					"type": "address"
				},
				{
					"internalType": "uint256",
					"name": "tokenId",
					"type": "uint256"
				}
			],
			"name": "balanceOf",
			"outputs": [
				{
					"internalType": "uint256",
					"name": "",
					"type": "uint256"
				}
			],
			"stateMutability": "view",
			"type": "function"
		},
		{
			"inputs": [
				{
					"internalType": "address[]",
					"name": "accounts",
					"type": "address[]"
				},
				{
					"internalType": "uint256[]",
					"name": "ids",
					"type": "uint256[]"
				}
			],
			"name": "balanceOfBatch",
			"outputs": [
				{
					"internalType": "uint256[]",
					"name": "",
					"type": "uint256[]"
				}
			],
			"stateMutability": "view",
			"type": "function"
		},
		{
			"inputs": [
				{
					"internalType": "uint256",
					"name": "tokenId",
					"type": "uint256"
				}
			],
			"name": "cancelSalesToken",
			"outputs": [],
			"stateMutability": "nonpayable",
			"type": "function"
		},
		{
			"inputs": [
				{
					"internalType": "address",
					"name": "account",
					"type": "address"
				},
				{
					"internalType": "uint256",
					"name": "tokenId",
					"type": "uint256"
				},
				{
					"internalType": "uint256",
					"name": "amount",
					"type": "uint256"
				}
			],
			"name": "faildBurn",
			"outputs": [],
			"stateMutability": "nonpayable",
			"type": "function"
		},
		{
			"inputs": [
				{
					"internalType": "uint256",
					"name": "tokenId",
					"type": "uint256"
				},
				{
					"internalType": "uint256",
					"name": "saleNum",
					"type": "uint256"
				}
			],
			"name": "getSalesTokenListAll",
			"outputs": [
				{
					"components": [
						{
							"internalType": "address",
							"name": "account",
							"type": "address"
						},
						{
							"internalType": "uint256",
							"name": "amount",
							"type": "uint256"
						},
						{
							"internalType": "uint256",
							"name": "price",
							"type": "uint256"
						},
						{
							"internalType": "uint256",
							"name": "listId",
							"type": "uint256"
						}
					],
					"internalType": "struct SaleToken.SaleTokenInfo",
					"name": "",
					"type": "tuple"
				}
			],
			"stateMutability": "view",
			"type": "function"
		},
		{
			"inputs": [
				{
					"internalType": "uint256",
					"name": "tokenId",
					"type": "uint256"
				}
			],
			"name": "getTokenOwnerData",
			"outputs": [
				{
					"components": [
						{
							"internalType": "address",
							"name": "Creater",
							"type": "address"
						},
						{
							"internalType": "uint256",
							"name": "NftAmount",
							"type": "uint256"
						},
						{
							"internalType": "uint256",
							"name": "TotalPrice",
							"type": "uint256"
						},
						{
							"internalType": "uint256",
							"name": "UnitPrice",
							"type": "uint256"
						},
						{
							"internalType": "uint256",
							"name": "EndTime",
							"type": "uint256"
						},
						{
							"internalType": "bool",
							"name": "isSuccess",
							"type": "bool"
						}
					],
					"internalType": "struct DtsToken.tokenOwnerData",
					"name": "",
					"type": "tuple"
				}
			],
			"stateMutability": "view",
			"type": "function"
		},
		{
			"inputs": [
				{
					"internalType": "uint256",
					"name": "",
					"type": "uint256"
				}
			],
			"name": "ids",
			"outputs": [
				{
					"internalType": "uint256",
					"name": "",
					"type": "uint256"
				}
			],
			"stateMutability": "view",
			"type": "function"
		},
		{
			"inputs": [],
			"name": "idsView",
			"outputs": [
				{
					"internalType": "uint256[]",
					"name": "",
					"type": "uint256[]"
				}
			],
			"stateMutability": "view",
			"type": "function"
		},
		{
			"inputs": [
				{
					"internalType": "address",
					"name": "account",
					"type": "address"
				},
				{
					"internalType": "address",
					"name": "operator",
					"type": "address"
				}
			],
			"name": "isApprovedForAll",
			"outputs": [
				{
					"internalType": "bool",
					"name": "",
					"type": "bool"
				}
			],
			"stateMutability": "view",
			"type": "function"
		},
		{
			"inputs": [
				{
					"internalType": "address",
					"name": "account",
					"type": "address"
				}
			],
			"name": "isChangedCA",
			"outputs": [],
			"stateMutability": "nonpayable",
			"type": "function"
		},
		{
			"inputs": [
				{
					"internalType": "uint256",
					"name": "tokenId",
					"type": "uint256"
				}
			],
			"name": "isFunddingSuccess",
			"outputs": [],
			"stateMutability": "nonpayable",
			"type": "function"
		},
		{
			"inputs": [
				{
					"internalType": "address",
					"name": "account",
					"type": "address"
				},
				{
					"internalType": "address",
					"name": "funddingTokenCA",
					"type": "address"
				},
				{
					"internalType": "uint256",
					"name": "tokenId",
					"type": "uint256"
				},
				{
					"internalType": "uint256",
					"name": "amount",
					"type": "uint256"
				},
				{
					"internalType": "uint256",
					"name": "totalPrice",
					"type": "uint256"
				},
				{
					"internalType": "uint256",
					"name": "getTime",
					"type": "uint256"
				}
			],
			"name": "mintFundding",
			"outputs": [],
			"stateMutability": "nonpayable",
			"type": "function"
		},
		{
			"inputs": [],
			"name": "owner",
			"outputs": [
				{
					"internalType": "address",
					"name": "",
					"type": "address"
				}
			],
			"stateMutability": "view",
			"type": "function"
		},
		{
			"inputs": [
				{
					"internalType": "address payable",
					"name": "owner",
					"type": "address"
				},
				{
					"internalType": "uint256",
					"name": "tokenId",
					"type": "uint256"
				},
				{
					"internalType": "uint256",
					"name": "amount",
					"type": "uint256"
				},
				{
					"internalType": "uint256",
					"name": "listId",
					"type": "uint256"
				}
			],
			"name": "purchaseToken",
			"outputs": [],
			"stateMutability": "payable",
			"type": "function"
		},
		{
			"inputs": [],
			"name": "renounceOwnership",
			"outputs": [],
			"stateMutability": "nonpayable",
			"type": "function"
		},
		{
			"inputs": [
				{
					"internalType": "address",
					"name": "from",
					"type": "address"
				},
				{
					"internalType": "address",
					"name": "to",
					"type": "address"
				},
				{
					"internalType": "uint256[]",
					"name": "ids",
					"type": "uint256[]"
				},
				{
					"internalType": "uint256[]",
					"name": "amounts",
					"type": "uint256[]"
				},
				{
					"internalType": "bytes",
					"name": "data",
					"type": "bytes"
				}
			],
			"name": "safeBatchTransferFrom",
			"outputs": [],
			"stateMutability": "nonpayable",
			"type": "function"
		},
		{
			"inputs": [
				{
					"internalType": "address",
					"name": "from",
					"type": "address"
				},
				{
					"internalType": "address",
					"name": "to",
					"type": "address"
				},
				{
					"internalType": "uint256",
					"name": "id",
					"type": "uint256"
				},
				{
					"internalType": "uint256",
					"name": "amount",
					"type": "uint256"
				},
				{
					"internalType": "bytes",
					"name": "data",
					"type": "bytes"
				}
			],
			"name": "safeTransferFrom",
			"outputs": [],
			"stateMutability": "nonpayable",
			"type": "function"
		},
		{
			"inputs": [
				{
					"internalType": "address",
					"name": "saleCA",
					"type": "address"
				}
			],
			"name": "saleApprovalFalse",
			"outputs": [],
			"stateMutability": "nonpayable",
			"type": "function"
		},
		{
			"inputs": [
				{
					"internalType": "address",
					"name": "saleCA",
					"type": "address"
				}
			],
			"name": "saleApprovalTrue",
			"outputs": [],
			"stateMutability": "nonpayable",
			"type": "function"
		},
		{
			"inputs": [
				{
					"internalType": "uint256",
					"name": "tokenId",
					"type": "uint256"
				}
			],
			"name": "saleNumberList",
			"outputs": [
				{
					"internalType": "uint256",
					"name": "",
					"type": "uint256"
				}
			],
			"stateMutability": "view",
			"type": "function"
		},
		{
			"inputs": [
				{
					"internalType": "uint256",
					"name": "tokenId",
					"type": "uint256"
				},
				{
					"internalType": "uint256",
					"name": "amount",
					"type": "uint256"
				},
				{
					"internalType": "uint256",
					"name": "price",
					"type": "uint256"
				}
			],
			"name": "salesToken",
			"outputs": [],
			"stateMutability": "nonpayable",
			"type": "function"
		},
		{
			"inputs": [
				{
					"internalType": "address",
					"name": "operator",
					"type": "address"
				},
				{
					"internalType": "bool",
					"name": "approved",
					"type": "bool"
				}
			],
			"name": "setApprovalForAll",
			"outputs": [],
			"stateMutability": "nonpayable",
			"type": "function"
		},
		{
			"inputs": [
				{
					"internalType": "bytes4",
					"name": "interfaceId",
					"type": "bytes4"
				}
			],
			"name": "supportsInterface",
			"outputs": [
				{
					"internalType": "bool",
					"name": "",
					"type": "bool"
				}
			],
			"stateMutability": "view",
			"type": "function"
		},
		{
			"inputs": [
				{
					"internalType": "uint256",
					"name": "",
					"type": "uint256"
				}
			],
			"name": "tokenOwners",
			"outputs": [
				{
					"internalType": "address",
					"name": "Creater",
					"type": "address"
				},
				{
					"internalType": "uint256",
					"name": "NftAmount",
					"type": "uint256"
				},
				{
					"internalType": "uint256",
					"name": "TotalPrice",
					"type": "uint256"
				},
				{
					"internalType": "uint256",
					"name": "UnitPrice",
					"type": "uint256"
				},
				{
					"internalType": "uint256",
					"name": "EndTime",
					"type": "uint256"
				},
				{
					"internalType": "bool",
					"name": "isSuccess",
					"type": "bool"
				}
			],
			"stateMutability": "view",
			"type": "function"
		},
		{
			"inputs": [
				{
					"internalType": "address",
					"name": "newOwner",
					"type": "address"
				}
			],
			"name": "transferOwnership",
			"outputs": [],
			"stateMutability": "nonpayable",
			"type": "function"
		},
		{
			"inputs": [
				{
					"internalType": "uint256",
					"name": "",
					"type": "uint256"
				}
			],
			"name": "uri",
			"outputs": [
				{
					"internalType": "string",
					"name": "",
					"type": "string"
				}
			],
			"stateMutability": "view",
			"type": "function"
		}
	]
}