{
	"data": {
		"bytecode": {
			"linkReferences": {},
			"object": "6080604052600a6002553480156200001657600080fd5b506040516200215d3803806200215d83398181016040528101906200003c9190620001da565b6200005c62000050620000a460201b60201c565b620000ac60201b60201c565b80600160006101000a81548173ffffffffffffffffffffffffffffffffffffffff021916908373ffffffffffffffffffffffffffffffffffffffff160217905550506200020c565b600033905090565b60008060009054906101000a900473ffffffffffffffffffffffffffffffffffffffff169050816000806101000a81548173ffffffffffffffffffffffffffffffffffffffff021916908373ffffffffffffffffffffffffffffffffffffffff1602179055508173ffffffffffffffffffffffffffffffffffffffff168173ffffffffffffffffffffffffffffffffffffffff167f8be0079c531659141344cd1fd0a4f28419497f9722a3daafe3b4186f6b6457e060405160405180910390a35050565b600080fd5b600073ffffffffffffffffffffffffffffffffffffffff82169050919050565b6000620001a28262000175565b9050919050565b620001b48162000195565b8114620001c057600080fd5b50565b600081519050620001d481620001a9565b92915050565b600060208284031215620001f357620001f262000170565b5b60006200020384828501620001c3565b91505092915050565b611f41806200021c6000396000f3fe6080604052600436106100915760003560e01c8063715018a611610059578063715018a61461014d5780637323febe146101645780638da5cb5b146101a1578063aeaaf9f9146101cc578063f2fde38b146101e857610091565b806319c5b89c146100965780631a554d01146100c157806329c51d2b146100d857806349e5465c146100f457806350b9c73714610131575b600080fd5b3480156100a257600080fd5b506100ab610211565b6040516100b89190611530565b60405180910390f35b3480156100cd57600080fd5b506100d6610237565b005b6100f260048036038101906100ed9190611586565b6102ce565b005b34801561010057600080fd5b5061011b60048036038101906101169190611586565b6105bf565b60405161012891906115c2565b60405180910390f35b61014b600480360381019061014691906115dd565b6105dc565b005b34801561015957600080fd5b50610162610b9b565b005b34801561017057600080fd5b5061018b60048036038101906101869190611586565b610baf565b60405161019891906115c2565b60405180910390f35b3480156101ad57600080fd5b506101b6610d0c565b6040516101c3919061163e565b60405180910390f35b6101e660048036038101906101e19190611685565b610d35565b005b3480156101f457600080fd5b5061020f600480360381019061020a91906116c5565b6112e4565b005b600160009054906101000a900473ffffffffffffffffffffffffffffffffffffffff1681565b61023f611367565b600160009054906101000a900473ffffffffffffffffffffffffffffffffffffffff1673ffffffffffffffffffffffffffffffffffffffff1663ad216fb6306040518263ffffffff1660e01b815260040161029a919061163e565b600060405180830381600087803b1580156102b457600080fd5b505af11580156102c8573d6000803e3d6000fd5b50505050565b600160009054906101000a900473ffffffffffffffffffffffffffffffffffffffff1673ffffffffffffffffffffffffffffffffffffffff16631dbf4b74826040518263ffffffff1660e01b815260040161032991906115c2565b602060405180830381865afa158015610346573d6000803e3d6000fd5b505050506040513d601f19601f8201168201806040525081019061036a9190611707565b73ffffffffffffffffffffffffffffffffffffffff163373ffffffffffffffffffffffffffffffffffffffff16146103d7576040517f08c379a00000000000000000000000000000000000000000000000000000000081526004016103ce90611791565b60405180910390fd5b6003600082815260200190815260200160002054600160009054906101000a900473ffffffffffffffffffffffffffffffffffffffff1673ffffffffffffffffffffffffffffffffffffffff166391651932836040518263ffffffff1660e01b815260040161044691906115c2565b602060405180830381865afa158015610463573d6000803e3d6000fd5b505050506040513d601f19601f8201168201806040525081019061048791906117c6565b6104919190611822565b600160009054906101000a900473ffffffffffffffffffffffffffffffffffffffff1673ffffffffffffffffffffffffffffffffffffffff1663de269d2e836040518263ffffffff1660e01b81526004016104ec91906115c2565b602060405180830381865afa158015610509573d6000803e3d6000fd5b505050506040513d601f19601f8201168201806040525081019061052d91906117c6565b1461056d576040517f08c379a0000000000000000000000000000000000000000000000000000000008152600401610564906118b0565b60405180910390fd5b3373ffffffffffffffffffffffffffffffffffffffff166108fc670de0b6b3a76400009081150290604051600060405180830381858888f193505050501580156105bb573d6000803e3d6000fd5b5050565b600060036000838152602001908152602001600020549050919050565b6000600160009054906101000a900473ffffffffffffffffffffffffffffffffffffffff1673ffffffffffffffffffffffffffffffffffffffff16631dbf4b74846040518263ffffffff1660e01b815260040161063991906115c2565b602060405180830381865afa158015610656573d6000803e3d6000fd5b505050506040513d601f19601f8201168201806040525081019061067a9190611707565b905042600160009054906101000a900473ffffffffffffffffffffffffffffffffffffffff1673ffffffffffffffffffffffffffffffffffffffff1663c48a541e856040518263ffffffff1660e01b81526004016106d891906115c2565b602060405180830381865afa1580156106f5573d6000803e3d6000fd5b505050506040513d601f19601f8201168201806040525081019061071991906117c6565b11610759576040517f08c379a00000000000000000000000000000000000000000000000000000000081526004016107509061191c565b60405180910390fd5b8073ffffffffffffffffffffffffffffffffffffffff163373ffffffffffffffffffffffffffffffffffffffff16036107c7576040517f08c379a00000000000000000000000000000000000000000000000000000000081526004016107be90611988565b60405180910390fd5b6000340361080a576040517f08c379a0000000000000000000000000000000000000000000000000000000008152600401610801906119f4565b60405180910390fd5b81600160009054906101000a900473ffffffffffffffffffffffffffffffffffffffff1673ffffffffffffffffffffffffffffffffffffffff166391651932856040518263ffffffff1660e01b815260040161086691906115c2565b602060405180830381865afa158015610883573d6000803e3d6000fd5b505050506040513d601f19601f820116820180604052508101906108a791906117c6565b6108b19190611822565b34146108f2576040517f08c379a00000000000000000000000000000000000000000000000000000000081526004016108e990611a60565b60405180910390fd5b81600160009054906101000a900473ffffffffffffffffffffffffffffffffffffffff1673ffffffffffffffffffffffffffffffffffffffff1662fdd58e83866040518363ffffffff1660e01b815260040161094f929190611a80565b602060405180830381865afa15801561096c573d6000803e3d6000fd5b505050506040513d601f19601f8201168201806040525081019061099091906117c6565b10156109d1576040517f08c379a00000000000000000000000000000000000000000000000000000000081526004016109c890611af5565b60405180910390fd5b816003600085815260200190815260200160002054600160009054906101000a900473ffffffffffffffffffffffffffffffffffffffff1673ffffffffffffffffffffffffffffffffffffffff1663c78d462a866040518263ffffffff1660e01b8152600401610a4191906115c2565b602060405180830381865afa158015610a5e573d6000803e3d6000fd5b505050506040513d601f19601f82011682018060405250810190610a8291906117c6565b610a8c9190611b15565b1015610acd576040517f08c379a0000000000000000000000000000000000000000000000000000000008152600401610ac490611bbb565b60405180910390fd5b816003600085815260200190815260200160002054610aec9190611bdb565b6003600085815260200190815260200160002081905550600160009054906101000a900473ffffffffffffffffffffffffffffffffffffffff1673ffffffffffffffffffffffffffffffffffffffff1663f242432a823386866040518563ffffffff1660e01b8152600401610b649493929190611c46565b600060405180830381600087803b158015610b7e57600080fd5b505af1158015610b92573d6000803e3d6000fd5b50505050505050565b610ba3611367565b610bad60006113e5565b565b6000806002600160009054906101000a900473ffffffffffffffffffffffffffffffffffffffff1673ffffffffffffffffffffffffffffffffffffffff166391651932856040518263ffffffff1660e01b8152600401610c0f91906115c2565b602060405180830381865afa158015610c2c573d6000803e3d6000fd5b505050506040513d601f19601f82011682018060405250810190610c5091906117c6565b600160009054906101000a900473ffffffffffffffffffffffffffffffffffffffff1673ffffffffffffffffffffffffffffffffffffffff1662fdd58e33876040518363ffffffff1660e01b8152600401610cac929190611a80565b602060405180830381865afa158015610cc9573d6000803e3d6000fd5b505050506040513d601f19601f82011682018060405250810190610ced91906117c6565b610cf79190611822565b610d019190611ccd565b905080915050919050565b60008060009054906101000a900473ffffffffffffffffffffffffffffffffffffffff16905090565b8173ffffffffffffffffffffffffffffffffffffffff163373ffffffffffffffffffffffffffffffffffffffff1614610da3576040517f08c379a0000000000000000000000000000000000000000000000000000000008152600401610d9a90611791565b60405180910390fd5b6000600160009054906101000a900473ffffffffffffffffffffffffffffffffffffffff1673ffffffffffffffffffffffffffffffffffffffff1662fdd58e33846040518363ffffffff1660e01b8152600401610e01929190611a80565b602060405180830381865afa158015610e1e573d6000803e3d6000fd5b505050506040513d601f19601f82011682018060405250810190610e4291906117c6565b11610e82576040517f08c379a0000000000000000000000000000000000000000000000000000000008152600401610e7990611d4a565b60405180910390fd5b6003600082815260200190815260200160002054600160009054906101000a900473ffffffffffffffffffffffffffffffffffffffff1673ffffffffffffffffffffffffffffffffffffffff166391651932836040518263ffffffff1660e01b8152600401610ef191906115c2565b602060405180830381865afa158015610f0e573d6000803e3d6000fd5b505050506040513d601f19601f82011682018060405250810190610f3291906117c6565b610f3c9190611822565b600160009054906101000a900473ffffffffffffffffffffffffffffffffffffffff1673ffffffffffffffffffffffffffffffffffffffff1663de269d2e836040518263ffffffff1660e01b8152600401610f9791906115c2565b602060405180830381865afa158015610fb4573d6000803e3d6000fd5b505050506040513d601f19601f82011682018060405250810190610fd891906117c6565b11611018576040517f08c379a000000000000000000000000000000000000000000000000000000000815260040161100f90611db6565b60405180910390fd5b60006002600160009054906101000a900473ffffffffffffffffffffffffffffffffffffffff1673ffffffffffffffffffffffffffffffffffffffff166391651932846040518263ffffffff1660e01b815260040161107791906115c2565b602060405180830381865afa158015611094573d6000803e3d6000fd5b505050506040513d601f19601f820116820180604052508101906110b891906117c6565b600160009054906101000a900473ffffffffffffffffffffffffffffffffffffffff1673ffffffffffffffffffffffffffffffffffffffff1662fdd58e33866040518363ffffffff1660e01b8152600401611114929190611a80565b602060405180830381865afa158015611131573d6000803e3d6000fd5b505050506040513d601f19601f8201168201806040525081019061115591906117c6565b61115f9190611822565b6111699190611ccd565b90503373ffffffffffffffffffffffffffffffffffffffff166108fc829081150290604051600060405180830381858888f193505050501580156111b1573d6000803e3d6000fd5b50600160009054906101000a900473ffffffffffffffffffffffffffffffffffffffff1673ffffffffffffffffffffffffffffffffffffffff1663773790823384600160009054906101000a900473ffffffffffffffffffffffffffffffffffffffff1673ffffffffffffffffffffffffffffffffffffffff1662fdd58e33886040518363ffffffff1660e01b815260040161124e929190611a80565b602060405180830381865afa15801561126b573d6000803e3d6000fd5b505050506040513d601f19601f8201168201806040525081019061128f91906117c6565b6040518463ffffffff1660e01b81526004016112ad93929190611dd6565b600060405180830381600087803b1580156112c757600080fd5b505af11580156112db573d6000803e3d6000fd5b50505050505050565b6112ec611367565b600073ffffffffffffffffffffffffffffffffffffffff168173ffffffffffffffffffffffffffffffffffffffff160361135b576040517f08c379a000000000000000000000000000000000000000000000000000000000815260040161135290611e7f565b60405180910390fd5b611364816113e5565b50565b61136f6114a9565b73ffffffffffffffffffffffffffffffffffffffff1661138d610d0c565b73ffffffffffffffffffffffffffffffffffffffff16146113e3576040517f08c379a00000000000000000000000000000000000000000000000000000000081526004016113da90611eeb565b60405180910390fd5b565b60008060009054906101000a900473ffffffffffffffffffffffffffffffffffffffff169050816000806101000a81548173ffffffffffffffffffffffffffffffffffffffff021916908373ffffffffffffffffffffffffffffffffffffffff1602179055508173ffffffffffffffffffffffffffffffffffffffff168173ffffffffffffffffffffffffffffffffffffffff167f8be0079c531659141344cd1fd0a4f28419497f9722a3daafe3b4186f6b6457e060405160405180910390a35050565b600033905090565b600073ffffffffffffffffffffffffffffffffffffffff82169050919050565b6000819050919050565b60006114f66114f16114ec846114b1565b6114d1565b6114b1565b9050919050565b6000611508826114db565b9050919050565b600061151a826114fd565b9050919050565b61152a8161150f565b82525050565b60006020820190506115456000830184611521565b92915050565b600080fd5b6000819050919050565b61156381611550565b811461156e57600080fd5b50565b6000813590506115808161155a565b92915050565b60006020828403121561159c5761159b61154b565b5b60006115aa84828501611571565b91505092915050565b6115bc81611550565b82525050565b60006020820190506115d760008301846115b3565b92915050565b600080604083850312156115f4576115f361154b565b5b600061160285828601611571565b925050602061161385828601611571565b9150509250929050565b6000611628826114b1565b9050919050565b6116388161161d565b82525050565b6000602082019050611653600083018461162f565b92915050565b6116628161161d565b811461166d57600080fd5b50565b60008135905061167f81611659565b92915050565b6000806040838503121561169c5761169b61154b565b5b60006116aa85828601611670565b92505060206116bb85828601611571565b9150509250929050565b6000602082840312156116db576116da61154b565b5b60006116e984828501611670565b91505092915050565b60008151905061170181611659565b92915050565b60006020828403121561171d5761171c61154b565b5b600061172b848285016116f2565b91505092915050565b600082825260208201905092915050565b7f4973207468617420796f75722077616c6c65743f000000000000000000000000600082015250565b600061177b601483611734565b915061178682611745565b602082019050919050565b600060208201905081810360008301526117aa8161176e565b9050919050565b6000815190506117c08161155a565b92915050565b6000602082840312156117dc576117db61154b565b5b60006117ea848285016117b1565b91505092915050565b7f4e487b7100000000000000000000000000000000000000000000000000000000600052601160045260246000fd5b600061182d82611550565b915061183883611550565b925082820261184681611550565b9150828204841483151761185d5761185c6117f3565b5b5092915050565b7f46756e64696e672073656363657373203f000000000000000000000000000000600082015250565b600061189a601183611734565b91506118a582611864565b602082019050919050565b600060208201905081810360008301526118c98161188d565b9050919050565b7f54696d65204f7665720000000000000000000000000000000000000000000000600082015250565b6000611906600983611734565b9150611911826118d0565b602082019050919050565b60006020820190508181036000830152611935816118f9565b9050919050565b7f637265617465722063616e277420627579000000000000000000000000000000600082015250565b6000611972601183611734565b915061197d8261193c565b602082019050919050565b600060208201905081810360008301526119a181611965565b9050919050565b7f68617665206e6f206d6f6e65792073656e740000000000000000000000000000600082015250565b60006119de601283611734565b91506119e9826119a8565b602082019050919050565b60006020820190508181036000830152611a0d816119d1565b9050919050565b7f54686520707269636520646f65736e2774206d617463682e0000000000000000600082015250565b6000611a4a601883611734565b9150611a5582611a14565b602082019050919050565b60006020820190508181036000830152611a7981611a3d565b9050919050565b6000604082019050611a95600083018561162f565b611aa260208301846115b3565b9392505050565b7f63616e277420627579207468696e67732e000000000000000000000000000000600082015250565b6000611adf601183611734565b9150611aea82611aa9565b602082019050919050565b60006020820190508181036000830152611b0e81611ad2565b9050919050565b6000611b2082611550565b9150611b2b83611550565b9250828203905081811115611b4357611b426117f3565b5b92915050565b7f6265206f7574206f662073746f636b20616e6420756e61626c6520746f20627560008201527f7920676f6f647300000000000000000000000000000000000000000000000000602082015250565b6000611ba5602783611734565b9150611bb082611b49565b604082019050919050565b60006020820190508181036000830152611bd481611b98565b9050919050565b6000611be682611550565b9150611bf183611550565b9250828201905080821115611c0957611c086117f3565b5b92915050565b600082825260208201905092915050565b50565b6000611c30600083611c0f565b9150611c3b82611c20565b600082019050919050565b600060a082019050611c5b600083018761162f565b611c68602083018661162f565b611c7560408301856115b3565b611c8260608301846115b3565b8181036080830152611c9381611c23565b905095945050505050565b7f4e487b7100000000000000000000000000000000000000000000000000000000600052601260045260246000fd5b6000611cd882611550565b9150611ce383611550565b925082611cf357611cf2611c9e565b5b828204905092915050565b7f49732069742061206275796572203f0000000000000000000000000000000000600082015250565b6000611d34600f83611734565b9150611d3f82611cfe565b602082019050919050565b60006020820190508181036000830152611d6381611d27565b9050919050565b7f46756e64696e67206661696c6564203f00000000000000000000000000000000600082015250565b6000611da0601083611734565b9150611dab82611d6a565b602082019050919050565b60006020820190508181036000830152611dcf81611d93565b9050919050565b6000606082019050611deb600083018661162f565b611df860208301856115b3565b611e0560408301846115b3565b949350505050565b7f4f776e61626c653a206e6577206f776e657220697320746865207a65726f206160008201527f6464726573730000000000000000000000000000000000000000000000000000602082015250565b6000611e69602683611734565b9150611e7482611e0d565b604082019050919050565b60006020820190508181036000830152611e9881611e5c565b9050919050565b7f4f776e61626c653a2063616c6c6572206973206e6f7420746865206f776e6572600082015250565b6000611ed5602083611734565b9150611ee082611e9f565b602082019050919050565b60006020820190508181036000830152611f0481611ec8565b905091905056fea2646970667358221220fedcb8c9dcf9f40cc57eef0e0ff951d894770dbf4c5982f780365dfdf1ffedfa64736f6c63430008110033",
			"opcodes": "PUSH1 0x80 PUSH1 0x40 MSTORE PUSH1 0xA PUSH1 0x2 SSTORE CALLVALUE DUP1 ISZERO PUSH3 0x16 JUMPI PUSH1 0x0 DUP1 REVERT JUMPDEST POP PUSH1 0x40 MLOAD PUSH3 0x215D CODESIZE SUB DUP1 PUSH3 0x215D DUP4 CODECOPY DUP2 DUP2 ADD PUSH1 0x40 MSTORE DUP2 ADD SWAP1 PUSH3 0x3C SWAP2 SWAP1 PUSH3 0x1DA JUMP JUMPDEST PUSH3 0x5C PUSH3 0x50 PUSH3 0xA4 PUSH1 0x20 SHL PUSH1 0x20 SHR JUMP JUMPDEST PUSH3 0xAC PUSH1 0x20 SHL PUSH1 0x20 SHR JUMP JUMPDEST DUP1 PUSH1 0x1 PUSH1 0x0 PUSH2 0x100 EXP DUP2 SLOAD DUP2 PUSH20 0xFFFFFFFFFFFFFFFFFFFFFFFFFFFFFFFFFFFFFFFF MUL NOT AND SWAP1 DUP4 PUSH20 0xFFFFFFFFFFFFFFFFFFFFFFFFFFFFFFFFFFFFFFFF AND MUL OR SWAP1 SSTORE POP POP PUSH3 0x20C JUMP JUMPDEST PUSH1 0x0 CALLER SWAP1 POP SWAP1 JUMP JUMPDEST PUSH1 0x0 DUP1 PUSH1 0x0 SWAP1 SLOAD SWAP1 PUSH2 0x100 EXP SWAP1 DIV PUSH20 0xFFFFFFFFFFFFFFFFFFFFFFFFFFFFFFFFFFFFFFFF AND SWAP1 POP DUP2 PUSH1 0x0 DUP1 PUSH2 0x100 EXP DUP2 SLOAD DUP2 PUSH20 0xFFFFFFFFFFFFFFFFFFFFFFFFFFFFFFFFFFFFFFFF MUL NOT AND SWAP1 DUP4 PUSH20 0xFFFFFFFFFFFFFFFFFFFFFFFFFFFFFFFFFFFFFFFF AND MUL OR SWAP1 SSTORE POP DUP2 PUSH20 0xFFFFFFFFFFFFFFFFFFFFFFFFFFFFFFFFFFFFFFFF AND DUP2 PUSH20 0xFFFFFFFFFFFFFFFFFFFFFFFFFFFFFFFFFFFFFFFF AND PUSH32 0x8BE0079C531659141344CD1FD0A4F28419497F9722A3DAAFE3B4186F6B6457E0 PUSH1 0x40 MLOAD PUSH1 0x40 MLOAD DUP1 SWAP2 SUB SWAP1 LOG3 POP POP JUMP JUMPDEST PUSH1 0x0 DUP1 REVERT JUMPDEST PUSH1 0x0 PUSH20 0xFFFFFFFFFFFFFFFFFFFFFFFFFFFFFFFFFFFFFFFF DUP3 AND SWAP1 POP SWAP2 SWAP1 POP JUMP JUMPDEST PUSH1 0x0 PUSH3 0x1A2 DUP3 PUSH3 0x175 JUMP JUMPDEST SWAP1 POP SWAP2 SWAP1 POP JUMP JUMPDEST PUSH3 0x1B4 DUP2 PUSH3 0x195 JUMP JUMPDEST DUP2 EQ PUSH3 0x1C0 JUMPI PUSH1 0x0 DUP1 REVERT JUMPDEST POP JUMP JUMPDEST PUSH1 0x0 DUP2 MLOAD SWAP1 POP PUSH3 0x1D4 DUP2 PUSH3 0x1A9 JUMP JUMPDEST SWAP3 SWAP2 POP POP JUMP JUMPDEST PUSH1 0x0 PUSH1 0x20 DUP3 DUP5 SUB SLT ISZERO PUSH3 0x1F3 JUMPI PUSH3 0x1F2 PUSH3 0x170 JUMP JUMPDEST JUMPDEST PUSH1 0x0 PUSH3 0x203 DUP5 DUP3 DUP6 ADD PUSH3 0x1C3 JUMP JUMPDEST SWAP2 POP POP SWAP3 SWAP2 POP POP JUMP JUMPDEST PUSH2 0x1F41 DUP1 PUSH3 0x21C PUSH1 0x0 CODECOPY PUSH1 0x0 RETURN INVALID PUSH1 0x80 PUSH1 0x40 MSTORE PUSH1 0x4 CALLDATASIZE LT PUSH2 0x91 JUMPI PUSH1 0x0 CALLDATALOAD PUSH1 0xE0 SHR DUP1 PUSH4 0x715018A6 GT PUSH2 0x59 JUMPI DUP1 PUSH4 0x715018A6 EQ PUSH2 0x14D JUMPI DUP1 PUSH4 0x7323FEBE EQ PUSH2 0x164 JUMPI DUP1 PUSH4 0x8DA5CB5B EQ PUSH2 0x1A1 JUMPI DUP1 PUSH4 0xAEAAF9F9 EQ PUSH2 0x1CC JUMPI DUP1 PUSH4 0xF2FDE38B EQ PUSH2 0x1E8 JUMPI PUSH2 0x91 JUMP JUMPDEST DUP1 PUSH4 0x19C5B89C EQ PUSH2 0x96 JUMPI DUP1 PUSH4 0x1A554D01 EQ PUSH2 0xC1 JUMPI DUP1 PUSH4 0x29C51D2B EQ PUSH2 0xD8 JUMPI DUP1 PUSH4 0x49E5465C EQ PUSH2 0xF4 JUMPI DUP1 PUSH4 0x50B9C737 EQ PUSH2 0x131 JUMPI JUMPDEST PUSH1 0x0 DUP1 REVERT JUMPDEST CALLVALUE DUP1 ISZERO PUSH2 0xA2 JUMPI PUSH1 0x0 DUP1 REVERT JUMPDEST POP PUSH2 0xAB PUSH2 0x211 JUMP JUMPDEST PUSH1 0x40 MLOAD PUSH2 0xB8 SWAP2 SWAP1 PUSH2 0x1530 JUMP JUMPDEST PUSH1 0x40 MLOAD DUP1 SWAP2 SUB SWAP1 RETURN JUMPDEST CALLVALUE DUP1 ISZERO PUSH2 0xCD JUMPI PUSH1 0x0 DUP1 REVERT JUMPDEST POP PUSH2 0xD6 PUSH2 0x237 JUMP JUMPDEST STOP JUMPDEST PUSH2 0xF2 PUSH1 0x4 DUP1 CALLDATASIZE SUB DUP2 ADD SWAP1 PUSH2 0xED SWAP2 SWAP1 PUSH2 0x1586 JUMP JUMPDEST PUSH2 0x2CE JUMP JUMPDEST STOP JUMPDEST CALLVALUE DUP1 ISZERO PUSH2 0x100 JUMPI PUSH1 0x0 DUP1 REVERT JUMPDEST POP PUSH2 0x11B PUSH1 0x4 DUP1 CALLDATASIZE SUB DUP2 ADD SWAP1 PUSH2 0x116 SWAP2 SWAP1 PUSH2 0x1586 JUMP JUMPDEST PUSH2 0x5BF JUMP JUMPDEST PUSH1 0x40 MLOAD PUSH2 0x128 SWAP2 SWAP1 PUSH2 0x15C2 JUMP JUMPDEST PUSH1 0x40 MLOAD DUP1 SWAP2 SUB SWAP1 RETURN JUMPDEST PUSH2 0x14B PUSH1 0x4 DUP1 CALLDATASIZE SUB DUP2 ADD SWAP1 PUSH2 0x146 SWAP2 SWAP1 PUSH2 0x15DD JUMP JUMPDEST PUSH2 0x5DC JUMP JUMPDEST STOP JUMPDEST CALLVALUE DUP1 ISZERO PUSH2 0x159 JUMPI PUSH1 0x0 DUP1 REVERT JUMPDEST POP PUSH2 0x162 PUSH2 0xB9B JUMP JUMPDEST STOP JUMPDEST CALLVALUE DUP1 ISZERO PUSH2 0x170 JUMPI PUSH1 0x0 DUP1 REVERT JUMPDEST POP PUSH2 0x18B PUSH1 0x4 DUP1 CALLDATASIZE SUB DUP2 ADD SWAP1 PUSH2 0x186 SWAP2 SWAP1 PUSH2 0x1586 JUMP JUMPDEST PUSH2 0xBAF JUMP JUMPDEST PUSH1 0x40 MLOAD PUSH2 0x198 SWAP2 SWAP1 PUSH2 0x15C2 JUMP JUMPDEST PUSH1 0x40 MLOAD DUP1 SWAP2 SUB SWAP1 RETURN JUMPDEST CALLVALUE DUP1 ISZERO PUSH2 0x1AD JUMPI PUSH1 0x0 DUP1 REVERT JUMPDEST POP PUSH2 0x1B6 PUSH2 0xD0C JUMP JUMPDEST PUSH1 0x40 MLOAD PUSH2 0x1C3 SWAP2 SWAP1 PUSH2 0x163E JUMP JUMPDEST PUSH1 0x40 MLOAD DUP1 SWAP2 SUB SWAP1 RETURN JUMPDEST PUSH2 0x1E6 PUSH1 0x4 DUP1 CALLDATASIZE SUB DUP2 ADD SWAP1 PUSH2 0x1E1 SWAP2 SWAP1 PUSH2 0x1685 JUMP JUMPDEST PUSH2 0xD35 JUMP JUMPDEST STOP JUMPDEST CALLVALUE DUP1 ISZERO PUSH2 0x1F4 JUMPI PUSH1 0x0 DUP1 REVERT JUMPDEST POP PUSH2 0x20F PUSH1 0x4 DUP1 CALLDATASIZE SUB DUP2 ADD SWAP1 PUSH2 0x20A SWAP2 SWAP1 PUSH2 0x16C5 JUMP JUMPDEST PUSH2 0x12E4 JUMP JUMPDEST STOP JUMPDEST PUSH1 0x1 PUSH1 0x0 SWAP1 SLOAD SWAP1 PUSH2 0x100 EXP SWAP1 DIV PUSH20 0xFFFFFFFFFFFFFFFFFFFFFFFFFFFFFFFFFFFFFFFF AND DUP2 JUMP JUMPDEST PUSH2 0x23F PUSH2 0x1367 JUMP JUMPDEST PUSH1 0x1 PUSH1 0x0 SWAP1 SLOAD SWAP1 PUSH2 0x100 EXP SWAP1 DIV PUSH20 0xFFFFFFFFFFFFFFFFFFFFFFFFFFFFFFFFFFFFFFFF AND PUSH20 0xFFFFFFFFFFFFFFFFFFFFFFFFFFFFFFFFFFFFFFFF AND PUSH4 0xAD216FB6 ADDRESS PUSH1 0x40 MLOAD DUP3 PUSH4 0xFFFFFFFF AND PUSH1 0xE0 SHL DUP2 MSTORE PUSH1 0x4 ADD PUSH2 0x29A SWAP2 SWAP1 PUSH2 0x163E JUMP JUMPDEST PUSH1 0x0 PUSH1 0x40 MLOAD DUP1 DUP4 SUB DUP2 PUSH1 0x0 DUP8 DUP1 EXTCODESIZE ISZERO DUP1 ISZERO PUSH2 0x2B4 JUMPI PUSH1 0x0 DUP1 REVERT JUMPDEST POP GAS CALL ISZERO DUP1 ISZERO PUSH2 0x2C8 JUMPI RETURNDATASIZE PUSH1 0x0 DUP1 RETURNDATACOPY RETURNDATASIZE PUSH1 0x0 REVERT JUMPDEST POP POP POP POP JUMP JUMPDEST PUSH1 0x1 PUSH1 0x0 SWAP1 SLOAD SWAP1 PUSH2 0x100 EXP SWAP1 DIV PUSH20 0xFFFFFFFFFFFFFFFFFFFFFFFFFFFFFFFFFFFFFFFF AND PUSH20 0xFFFFFFFFFFFFFFFFFFFFFFFFFFFFFFFFFFFFFFFF AND PUSH4 0x1DBF4B74 DUP3 PUSH1 0x40 MLOAD DUP3 PUSH4 0xFFFFFFFF AND PUSH1 0xE0 SHL DUP2 MSTORE PUSH1 0x4 ADD PUSH2 0x329 SWAP2 SWAP1 PUSH2 0x15C2 JUMP JUMPDEST PUSH1 0x20 PUSH1 0x40 MLOAD DUP1 DUP4 SUB DUP2 DUP7 GAS STATICCALL ISZERO DUP1 ISZERO PUSH2 0x346 JUMPI RETURNDATASIZE PUSH1 0x0 DUP1 RETURNDATACOPY RETURNDATASIZE PUSH1 0x0 REVERT JUMPDEST POP POP POP POP PUSH1 0x40 MLOAD RETURNDATASIZE PUSH1 0x1F NOT PUSH1 0x1F DUP3 ADD AND DUP3 ADD DUP1 PUSH1 0x40 MSTORE POP DUP2 ADD SWAP1 PUSH2 0x36A SWAP2 SWAP1 PUSH2 0x1707 JUMP JUMPDEST PUSH20 0xFFFFFFFFFFFFFFFFFFFFFFFFFFFFFFFFFFFFFFFF AND CALLER PUSH20 0xFFFFFFFFFFFFFFFFFFFFFFFFFFFFFFFFFFFFFFFF AND EQ PUSH2 0x3D7 JUMPI PUSH1 0x40 MLOAD PUSH32 0x8C379A000000000000000000000000000000000000000000000000000000000 DUP2 MSTORE PUSH1 0x4 ADD PUSH2 0x3CE SWAP1 PUSH2 0x1791 JUMP JUMPDEST PUSH1 0x40 MLOAD DUP1 SWAP2 SUB SWAP1 REVERT JUMPDEST PUSH1 0x3 PUSH1 0x0 DUP3 DUP2 MSTORE PUSH1 0x20 ADD SWAP1 DUP2 MSTORE PUSH1 0x20 ADD PUSH1 0x0 KECCAK256 SLOAD PUSH1 0x1 PUSH1 0x0 SWAP1 SLOAD SWAP1 PUSH2 0x100 EXP SWAP1 DIV PUSH20 0xFFFFFFFFFFFFFFFFFFFFFFFFFFFFFFFFFFFFFFFF AND PUSH20 0xFFFFFFFFFFFFFFFFFFFFFFFFFFFFFFFFFFFFFFFF AND PUSH4 0x91651932 DUP4 PUSH1 0x40 MLOAD DUP3 PUSH4 0xFFFFFFFF AND PUSH1 0xE0 SHL DUP2 MSTORE PUSH1 0x4 ADD PUSH2 0x446 SWAP2 SWAP1 PUSH2 0x15C2 JUMP JUMPDEST PUSH1 0x20 PUSH1 0x40 MLOAD DUP1 DUP4 SUB DUP2 DUP7 GAS STATICCALL ISZERO DUP1 ISZERO PUSH2 0x463 JUMPI RETURNDATASIZE PUSH1 0x0 DUP1 RETURNDATACOPY RETURNDATASIZE PUSH1 0x0 REVERT JUMPDEST POP POP POP POP PUSH1 0x40 MLOAD RETURNDATASIZE PUSH1 0x1F NOT PUSH1 0x1F DUP3 ADD AND DUP3 ADD DUP1 PUSH1 0x40 MSTORE POP DUP2 ADD SWAP1 PUSH2 0x487 SWAP2 SWAP1 PUSH2 0x17C6 JUMP JUMPDEST PUSH2 0x491 SWAP2 SWAP1 PUSH2 0x1822 JUMP JUMPDEST PUSH1 0x1 PUSH1 0x0 SWAP1 SLOAD SWAP1 PUSH2 0x100 EXP SWAP1 DIV PUSH20 0xFFFFFFFFFFFFFFFFFFFFFFFFFFFFFFFFFFFFFFFF AND PUSH20 0xFFFFFFFFFFFFFFFFFFFFFFFFFFFFFFFFFFFFFFFF AND PUSH4 0xDE269D2E DUP4 PUSH1 0x40 MLOAD DUP3 PUSH4 0xFFFFFFFF AND PUSH1 0xE0 SHL DUP2 MSTORE PUSH1 0x4 ADD PUSH2 0x4EC SWAP2 SWAP1 PUSH2 0x15C2 JUMP JUMPDEST PUSH1 0x20 PUSH1 0x40 MLOAD DUP1 DUP4 SUB DUP2 DUP7 GAS STATICCALL ISZERO DUP1 ISZERO PUSH2 0x509 JUMPI RETURNDATASIZE PUSH1 0x0 DUP1 RETURNDATACOPY RETURNDATASIZE PUSH1 0x0 REVERT JUMPDEST POP POP POP POP PUSH1 0x40 MLOAD RETURNDATASIZE PUSH1 0x1F NOT PUSH1 0x1F DUP3 ADD AND DUP3 ADD DUP1 PUSH1 0x40 MSTORE POP DUP2 ADD SWAP1 PUSH2 0x52D SWAP2 SWAP1 PUSH2 0x17C6 JUMP JUMPDEST EQ PUSH2 0x56D JUMPI PUSH1 0x40 MLOAD PUSH32 0x8C379A000000000000000000000000000000000000000000000000000000000 DUP2 MSTORE PUSH1 0x4 ADD PUSH2 0x564 SWAP1 PUSH2 0x18B0 JUMP JUMPDEST PUSH1 0x40 MLOAD DUP1 SWAP2 SUB SWAP1 REVERT JUMPDEST CALLER PUSH20 0xFFFFFFFFFFFFFFFFFFFFFFFFFFFFFFFFFFFFFFFF AND PUSH2 0x8FC PUSH8 0xDE0B6B3A7640000 SWAP1 DUP2 ISZERO MUL SWAP1 PUSH1 0x40 MLOAD PUSH1 0x0 PUSH1 0x40 MLOAD DUP1 DUP4 SUB DUP2 DUP6 DUP9 DUP9 CALL SWAP4 POP POP POP POP ISZERO DUP1 ISZERO PUSH2 0x5BB JUMPI RETURNDATASIZE PUSH1 0x0 DUP1 RETURNDATACOPY RETURNDATASIZE PUSH1 0x0 REVERT JUMPDEST POP POP JUMP JUMPDEST PUSH1 0x0 PUSH1 0x3 PUSH1 0x0 DUP4 DUP2 MSTORE PUSH1 0x20 ADD SWAP1 DUP2 MSTORE PUSH1 0x20 ADD PUSH1 0x0 KECCAK256 SLOAD SWAP1 POP SWAP2 SWAP1 POP JUMP JUMPDEST PUSH1 0x0 PUSH1 0x1 PUSH1 0x0 SWAP1 SLOAD SWAP1 PUSH2 0x100 EXP SWAP1 DIV PUSH20 0xFFFFFFFFFFFFFFFFFFFFFFFFFFFFFFFFFFFFFFFF AND PUSH20 0xFFFFFFFFFFFFFFFFFFFFFFFFFFFFFFFFFFFFFFFF AND PUSH4 0x1DBF4B74 DUP5 PUSH1 0x40 MLOAD DUP3 PUSH4 0xFFFFFFFF AND PUSH1 0xE0 SHL DUP2 MSTORE PUSH1 0x4 ADD PUSH2 0x639 SWAP2 SWAP1 PUSH2 0x15C2 JUMP JUMPDEST PUSH1 0x20 PUSH1 0x40 MLOAD DUP1 DUP4 SUB DUP2 DUP7 GAS STATICCALL ISZERO DUP1 ISZERO PUSH2 0x656 JUMPI RETURNDATASIZE PUSH1 0x0 DUP1 RETURNDATACOPY RETURNDATASIZE PUSH1 0x0 REVERT JUMPDEST POP POP POP POP PUSH1 0x40 MLOAD RETURNDATASIZE PUSH1 0x1F NOT PUSH1 0x1F DUP3 ADD AND DUP3 ADD DUP1 PUSH1 0x40 MSTORE POP DUP2 ADD SWAP1 PUSH2 0x67A SWAP2 SWAP1 PUSH2 0x1707 JUMP JUMPDEST SWAP1 POP TIMESTAMP PUSH1 0x1 PUSH1 0x0 SWAP1 SLOAD SWAP1 PUSH2 0x100 EXP SWAP1 DIV PUSH20 0xFFFFFFFFFFFFFFFFFFFFFFFFFFFFFFFFFFFFFFFF AND PUSH20 0xFFFFFFFFFFFFFFFFFFFFFFFFFFFFFFFFFFFFFFFF AND PUSH4 0xC48A541E DUP6 PUSH1 0x40 MLOAD DUP3 PUSH4 0xFFFFFFFF AND PUSH1 0xE0 SHL DUP2 MSTORE PUSH1 0x4 ADD PUSH2 0x6D8 SWAP2 SWAP1 PUSH2 0x15C2 JUMP JUMPDEST PUSH1 0x20 PUSH1 0x40 MLOAD DUP1 DUP4 SUB DUP2 DUP7 GAS STATICCALL ISZERO DUP1 ISZERO PUSH2 0x6F5 JUMPI RETURNDATASIZE PUSH1 0x0 DUP1 RETURNDATACOPY RETURNDATASIZE PUSH1 0x0 REVERT JUMPDEST POP POP POP POP PUSH1 0x40 MLOAD RETURNDATASIZE PUSH1 0x1F NOT PUSH1 0x1F DUP3 ADD AND DUP3 ADD DUP1 PUSH1 0x40 MSTORE POP DUP2 ADD SWAP1 PUSH2 0x719 SWAP2 SWAP1 PUSH2 0x17C6 JUMP JUMPDEST GT PUSH2 0x759 JUMPI PUSH1 0x40 MLOAD PUSH32 0x8C379A000000000000000000000000000000000000000000000000000000000 DUP2 MSTORE PUSH1 0x4 ADD PUSH2 0x750 SWAP1 PUSH2 0x191C JUMP JUMPDEST PUSH1 0x40 MLOAD DUP1 SWAP2 SUB SWAP1 REVERT JUMPDEST DUP1 PUSH20 0xFFFFFFFFFFFFFFFFFFFFFFFFFFFFFFFFFFFFFFFF AND CALLER PUSH20 0xFFFFFFFFFFFFFFFFFFFFFFFFFFFFFFFFFFFFFFFF AND SUB PUSH2 0x7C7 JUMPI PUSH1 0x40 MLOAD PUSH32 0x8C379A000000000000000000000000000000000000000000000000000000000 DUP2 MSTORE PUSH1 0x4 ADD PUSH2 0x7BE SWAP1 PUSH2 0x1988 JUMP JUMPDEST PUSH1 0x40 MLOAD DUP1 SWAP2 SUB SWAP1 REVERT JUMPDEST PUSH1 0x0 CALLVALUE SUB PUSH2 0x80A JUMPI PUSH1 0x40 MLOAD PUSH32 0x8C379A000000000000000000000000000000000000000000000000000000000 DUP2 MSTORE PUSH1 0x4 ADD PUSH2 0x801 SWAP1 PUSH2 0x19F4 JUMP JUMPDEST PUSH1 0x40 MLOAD DUP1 SWAP2 SUB SWAP1 REVERT JUMPDEST DUP2 PUSH1 0x1 PUSH1 0x0 SWAP1 SLOAD SWAP1 PUSH2 0x100 EXP SWAP1 DIV PUSH20 0xFFFFFFFFFFFFFFFFFFFFFFFFFFFFFFFFFFFFFFFF AND PUSH20 0xFFFFFFFFFFFFFFFFFFFFFFFFFFFFFFFFFFFFFFFF AND PUSH4 0x91651932 DUP6 PUSH1 0x40 MLOAD DUP3 PUSH4 0xFFFFFFFF AND PUSH1 0xE0 SHL DUP2 MSTORE PUSH1 0x4 ADD PUSH2 0x866 SWAP2 SWAP1 PUSH2 0x15C2 JUMP JUMPDEST PUSH1 0x20 PUSH1 0x40 MLOAD DUP1 DUP4 SUB DUP2 DUP7 GAS STATICCALL ISZERO DUP1 ISZERO PUSH2 0x883 JUMPI RETURNDATASIZE PUSH1 0x0 DUP1 RETURNDATACOPY RETURNDATASIZE PUSH1 0x0 REVERT JUMPDEST POP POP POP POP PUSH1 0x40 MLOAD RETURNDATASIZE PUSH1 0x1F NOT PUSH1 0x1F DUP3 ADD AND DUP3 ADD DUP1 PUSH1 0x40 MSTORE POP DUP2 ADD SWAP1 PUSH2 0x8A7 SWAP2 SWAP1 PUSH2 0x17C6 JUMP JUMPDEST PUSH2 0x8B1 SWAP2 SWAP1 PUSH2 0x1822 JUMP JUMPDEST CALLVALUE EQ PUSH2 0x8F2 JUMPI PUSH1 0x40 MLOAD PUSH32 0x8C379A000000000000000000000000000000000000000000000000000000000 DUP2 MSTORE PUSH1 0x4 ADD PUSH2 0x8E9 SWAP1 PUSH2 0x1A60 JUMP JUMPDEST PUSH1 0x40 MLOAD DUP1 SWAP2 SUB SWAP1 REVERT JUMPDEST DUP2 PUSH1 0x1 PUSH1 0x0 SWAP1 SLOAD SWAP1 PUSH2 0x100 EXP SWAP1 DIV PUSH20 0xFFFFFFFFFFFFFFFFFFFFFFFFFFFFFFFFFFFFFFFF AND PUSH20 0xFFFFFFFFFFFFFFFFFFFFFFFFFFFFFFFFFFFFFFFF AND PUSH3 0xFDD58E DUP4 DUP7 PUSH1 0x40 MLOAD DUP4 PUSH4 0xFFFFFFFF AND PUSH1 0xE0 SHL DUP2 MSTORE PUSH1 0x4 ADD PUSH2 0x94F SWAP3 SWAP2 SWAP1 PUSH2 0x1A80 JUMP JUMPDEST PUSH1 0x20 PUSH1 0x40 MLOAD DUP1 DUP4 SUB DUP2 DUP7 GAS STATICCALL ISZERO DUP1 ISZERO PUSH2 0x96C JUMPI RETURNDATASIZE PUSH1 0x0 DUP1 RETURNDATACOPY RETURNDATASIZE PUSH1 0x0 REVERT JUMPDEST POP POP POP POP PUSH1 0x40 MLOAD RETURNDATASIZE PUSH1 0x1F NOT PUSH1 0x1F DUP3 ADD AND DUP3 ADD DUP1 PUSH1 0x40 MSTORE POP DUP2 ADD SWAP1 PUSH2 0x990 SWAP2 SWAP1 PUSH2 0x17C6 JUMP JUMPDEST LT ISZERO PUSH2 0x9D1 JUMPI PUSH1 0x40 MLOAD PUSH32 0x8C379A000000000000000000000000000000000000000000000000000000000 DUP2 MSTORE PUSH1 0x4 ADD PUSH2 0x9C8 SWAP1 PUSH2 0x1AF5 JUMP JUMPDEST PUSH1 0x40 MLOAD DUP1 SWAP2 SUB SWAP1 REVERT JUMPDEST DUP2 PUSH1 0x3 PUSH1 0x0 DUP6 DUP2 MSTORE PUSH1 0x20 ADD SWAP1 DUP2 MSTORE PUSH1 0x20 ADD PUSH1 0x0 KECCAK256 SLOAD PUSH1 0x1 PUSH1 0x0 SWAP1 SLOAD SWAP1 PUSH2 0x100 EXP SWAP1 DIV PUSH20 0xFFFFFFFFFFFFFFFFFFFFFFFFFFFFFFFFFFFFFFFF AND PUSH20 0xFFFFFFFFFFFFFFFFFFFFFFFFFFFFFFFFFFFFFFFF AND PUSH4 0xC78D462A DUP7 PUSH1 0x40 MLOAD DUP3 PUSH4 0xFFFFFFFF AND PUSH1 0xE0 SHL DUP2 MSTORE PUSH1 0x4 ADD PUSH2 0xA41 SWAP2 SWAP1 PUSH2 0x15C2 JUMP JUMPDEST PUSH1 0x20 PUSH1 0x40 MLOAD DUP1 DUP4 SUB DUP2 DUP7 GAS STATICCALL ISZERO DUP1 ISZERO PUSH2 0xA5E JUMPI RETURNDATASIZE PUSH1 0x0 DUP1 RETURNDATACOPY RETURNDATASIZE PUSH1 0x0 REVERT JUMPDEST POP POP POP POP PUSH1 0x40 MLOAD RETURNDATASIZE PUSH1 0x1F NOT PUSH1 0x1F DUP3 ADD AND DUP3 ADD DUP1 PUSH1 0x40 MSTORE POP DUP2 ADD SWAP1 PUSH2 0xA82 SWAP2 SWAP1 PUSH2 0x17C6 JUMP JUMPDEST PUSH2 0xA8C SWAP2 SWAP1 PUSH2 0x1B15 JUMP JUMPDEST LT ISZERO PUSH2 0xACD JUMPI PUSH1 0x40 MLOAD PUSH32 0x8C379A000000000000000000000000000000000000000000000000000000000 DUP2 MSTORE PUSH1 0x4 ADD PUSH2 0xAC4 SWAP1 PUSH2 0x1BBB JUMP JUMPDEST PUSH1 0x40 MLOAD DUP1 SWAP2 SUB SWAP1 REVERT JUMPDEST DUP2 PUSH1 0x3 PUSH1 0x0 DUP6 DUP2 MSTORE PUSH1 0x20 ADD SWAP1 DUP2 MSTORE PUSH1 0x20 ADD PUSH1 0x0 KECCAK256 SLOAD PUSH2 0xAEC SWAP2 SWAP1 PUSH2 0x1BDB JUMP JUMPDEST PUSH1 0x3 PUSH1 0x0 DUP6 DUP2 MSTORE PUSH1 0x20 ADD SWAP1 DUP2 MSTORE PUSH1 0x20 ADD PUSH1 0x0 KECCAK256 DUP2 SWAP1 SSTORE POP PUSH1 0x1 PUSH1 0x0 SWAP1 SLOAD SWAP1 PUSH2 0x100 EXP SWAP1 DIV PUSH20 0xFFFFFFFFFFFFFFFFFFFFFFFFFFFFFFFFFFFFFFFF AND PUSH20 0xFFFFFFFFFFFFFFFFFFFFFFFFFFFFFFFFFFFFFFFF AND PUSH4 0xF242432A DUP3 CALLER DUP7 DUP7 PUSH1 0x40 MLOAD DUP6 PUSH4 0xFFFFFFFF AND PUSH1 0xE0 SHL DUP2 MSTORE PUSH1 0x4 ADD PUSH2 0xB64 SWAP5 SWAP4 SWAP3 SWAP2 SWAP1 PUSH2 0x1C46 JUMP JUMPDEST PUSH1 0x0 PUSH1 0x40 MLOAD DUP1 DUP4 SUB DUP2 PUSH1 0x0 DUP8 DUP1 EXTCODESIZE ISZERO DUP1 ISZERO PUSH2 0xB7E JUMPI PUSH1 0x0 DUP1 REVERT JUMPDEST POP GAS CALL ISZERO DUP1 ISZERO PUSH2 0xB92 JUMPI RETURNDATASIZE PUSH1 0x0 DUP1 RETURNDATACOPY RETURNDATASIZE PUSH1 0x0 REVERT JUMPDEST POP POP POP POP POP POP POP JUMP JUMPDEST PUSH2 0xBA3 PUSH2 0x1367 JUMP JUMPDEST PUSH2 0xBAD PUSH1 0x0 PUSH2 0x13E5 JUMP JUMPDEST JUMP JUMPDEST PUSH1 0x0 DUP1 PUSH1 0x2 PUSH1 0x1 PUSH1 0x0 SWAP1 SLOAD SWAP1 PUSH2 0x100 EXP SWAP1 DIV PUSH20 0xFFFFFFFFFFFFFFFFFFFFFFFFFFFFFFFFFFFFFFFF AND PUSH20 0xFFFFFFFFFFFFFFFFFFFFFFFFFFFFFFFFFFFFFFFF AND PUSH4 0x91651932 DUP6 PUSH1 0x40 MLOAD DUP3 PUSH4 0xFFFFFFFF AND PUSH1 0xE0 SHL DUP2 MSTORE PUSH1 0x4 ADD PUSH2 0xC0F SWAP2 SWAP1 PUSH2 0x15C2 JUMP JUMPDEST PUSH1 0x20 PUSH1 0x40 MLOAD DUP1 DUP4 SUB DUP2 DUP7 GAS STATICCALL ISZERO DUP1 ISZERO PUSH2 0xC2C JUMPI RETURNDATASIZE PUSH1 0x0 DUP1 RETURNDATACOPY RETURNDATASIZE PUSH1 0x0 REVERT JUMPDEST POP POP POP POP PUSH1 0x40 MLOAD RETURNDATASIZE PUSH1 0x1F NOT PUSH1 0x1F DUP3 ADD AND DUP3 ADD DUP1 PUSH1 0x40 MSTORE POP DUP2 ADD SWAP1 PUSH2 0xC50 SWAP2 SWAP1 PUSH2 0x17C6 JUMP JUMPDEST PUSH1 0x1 PUSH1 0x0 SWAP1 SLOAD SWAP1 PUSH2 0x100 EXP SWAP1 DIV PUSH20 0xFFFFFFFFFFFFFFFFFFFFFFFFFFFFFFFFFFFFFFFF AND PUSH20 0xFFFFFFFFFFFFFFFFFFFFFFFFFFFFFFFFFFFFFFFF AND PUSH3 0xFDD58E CALLER DUP8 PUSH1 0x40 MLOAD DUP4 PUSH4 0xFFFFFFFF AND PUSH1 0xE0 SHL DUP2 MSTORE PUSH1 0x4 ADD PUSH2 0xCAC SWAP3 SWAP2 SWAP1 PUSH2 0x1A80 JUMP JUMPDEST PUSH1 0x20 PUSH1 0x40 MLOAD DUP1 DUP4 SUB DUP2 DUP7 GAS STATICCALL ISZERO DUP1 ISZERO PUSH2 0xCC9 JUMPI RETURNDATASIZE PUSH1 0x0 DUP1 RETURNDATACOPY RETURNDATASIZE PUSH1 0x0 REVERT JUMPDEST POP POP POP POP PUSH1 0x40 MLOAD RETURNDATASIZE PUSH1 0x1F NOT PUSH1 0x1F DUP3 ADD AND DUP3 ADD DUP1 PUSH1 0x40 MSTORE POP DUP2 ADD SWAP1 PUSH2 0xCED SWAP2 SWAP1 PUSH2 0x17C6 JUMP JUMPDEST PUSH2 0xCF7 SWAP2 SWAP1 PUSH2 0x1822 JUMP JUMPDEST PUSH2 0xD01 SWAP2 SWAP1 PUSH2 0x1CCD JUMP JUMPDEST SWAP1 POP DUP1 SWAP2 POP POP SWAP2 SWAP1 POP JUMP JUMPDEST PUSH1 0x0 DUP1 PUSH1 0x0 SWAP1 SLOAD SWAP1 PUSH2 0x100 EXP SWAP1 DIV PUSH20 0xFFFFFFFFFFFFFFFFFFFFFFFFFFFFFFFFFFFFFFFF AND SWAP1 POP SWAP1 JUMP JUMPDEST DUP2 PUSH20 0xFFFFFFFFFFFFFFFFFFFFFFFFFFFFFFFFFFFFFFFF AND CALLER PUSH20 0xFFFFFFFFFFFFFFFFFFFFFFFFFFFFFFFFFFFFFFFF AND EQ PUSH2 0xDA3 JUMPI PUSH1 0x40 MLOAD PUSH32 0x8C379A000000000000000000000000000000000000000000000000000000000 DUP2 MSTORE PUSH1 0x4 ADD PUSH2 0xD9A SWAP1 PUSH2 0x1791 JUMP JUMPDEST PUSH1 0x40 MLOAD DUP1 SWAP2 SUB SWAP1 REVERT JUMPDEST PUSH1 0x0 PUSH1 0x1 PUSH1 0x0 SWAP1 SLOAD SWAP1 PUSH2 0x100 EXP SWAP1 DIV PUSH20 0xFFFFFFFFFFFFFFFFFFFFFFFFFFFFFFFFFFFFFFFF AND PUSH20 0xFFFFFFFFFFFFFFFFFFFFFFFFFFFFFFFFFFFFFFFF AND PUSH3 0xFDD58E CALLER DUP5 PUSH1 0x40 MLOAD DUP4 PUSH4 0xFFFFFFFF AND PUSH1 0xE0 SHL DUP2 MSTORE PUSH1 0x4 ADD PUSH2 0xE01 SWAP3 SWAP2 SWAP1 PUSH2 0x1A80 JUMP JUMPDEST PUSH1 0x20 PUSH1 0x40 MLOAD DUP1 DUP4 SUB DUP2 DUP7 GAS STATICCALL ISZERO DUP1 ISZERO PUSH2 0xE1E JUMPI RETURNDATASIZE PUSH1 0x0 DUP1 RETURNDATACOPY RETURNDATASIZE PUSH1 0x0 REVERT JUMPDEST POP POP POP POP PUSH1 0x40 MLOAD RETURNDATASIZE PUSH1 0x1F NOT PUSH1 0x1F DUP3 ADD AND DUP3 ADD DUP1 PUSH1 0x40 MSTORE POP DUP2 ADD SWAP1 PUSH2 0xE42 SWAP2 SWAP1 PUSH2 0x17C6 JUMP JUMPDEST GT PUSH2 0xE82 JUMPI PUSH1 0x40 MLOAD PUSH32 0x8C379A000000000000000000000000000000000000000000000000000000000 DUP2 MSTORE PUSH1 0x4 ADD PUSH2 0xE79 SWAP1 PUSH2 0x1D4A JUMP JUMPDEST PUSH1 0x40 MLOAD DUP1 SWAP2 SUB SWAP1 REVERT JUMPDEST PUSH1 0x3 PUSH1 0x0 DUP3 DUP2 MSTORE PUSH1 0x20 ADD SWAP1 DUP2 MSTORE PUSH1 0x20 ADD PUSH1 0x0 KECCAK256 SLOAD PUSH1 0x1 PUSH1 0x0 SWAP1 SLOAD SWAP1 PUSH2 0x100 EXP SWAP1 DIV PUSH20 0xFFFFFFFFFFFFFFFFFFFFFFFFFFFFFFFFFFFFFFFF AND PUSH20 0xFFFFFFFFFFFFFFFFFFFFFFFFFFFFFFFFFFFFFFFF AND PUSH4 0x91651932 DUP4 PUSH1 0x40 MLOAD DUP3 PUSH4 0xFFFFFFFF AND PUSH1 0xE0 SHL DUP2 MSTORE PUSH1 0x4 ADD PUSH2 0xEF1 SWAP2 SWAP1 PUSH2 0x15C2 JUMP JUMPDEST PUSH1 0x20 PUSH1 0x40 MLOAD DUP1 DUP4 SUB DUP2 DUP7 GAS STATICCALL ISZERO DUP1 ISZERO PUSH2 0xF0E JUMPI RETURNDATASIZE PUSH1 0x0 DUP1 RETURNDATACOPY RETURNDATASIZE PUSH1 0x0 REVERT JUMPDEST POP POP POP POP PUSH1 0x40 MLOAD RETURNDATASIZE PUSH1 0x1F NOT PUSH1 0x1F DUP3 ADD AND DUP3 ADD DUP1 PUSH1 0x40 MSTORE POP DUP2 ADD SWAP1 PUSH2 0xF32 SWAP2 SWAP1 PUSH2 0x17C6 JUMP JUMPDEST PUSH2 0xF3C SWAP2 SWAP1 PUSH2 0x1822 JUMP JUMPDEST PUSH1 0x1 PUSH1 0x0 SWAP1 SLOAD SWAP1 PUSH2 0x100 EXP SWAP1 DIV PUSH20 0xFFFFFFFFFFFFFFFFFFFFFFFFFFFFFFFFFFFFFFFF AND PUSH20 0xFFFFFFFFFFFFFFFFFFFFFFFFFFFFFFFFFFFFFFFF AND PUSH4 0xDE269D2E DUP4 PUSH1 0x40 MLOAD DUP3 PUSH4 0xFFFFFFFF AND PUSH1 0xE0 SHL DUP2 MSTORE PUSH1 0x4 ADD PUSH2 0xF97 SWAP2 SWAP1 PUSH2 0x15C2 JUMP JUMPDEST PUSH1 0x20 PUSH1 0x40 MLOAD DUP1 DUP4 SUB DUP2 DUP7 GAS STATICCALL ISZERO DUP1 ISZERO PUSH2 0xFB4 JUMPI RETURNDATASIZE PUSH1 0x0 DUP1 RETURNDATACOPY RETURNDATASIZE PUSH1 0x0 REVERT JUMPDEST POP POP POP POP PUSH1 0x40 MLOAD RETURNDATASIZE PUSH1 0x1F NOT PUSH1 0x1F DUP3 ADD AND DUP3 ADD DUP1 PUSH1 0x40 MSTORE POP DUP2 ADD SWAP1 PUSH2 0xFD8 SWAP2 SWAP1 PUSH2 0x17C6 JUMP JUMPDEST GT PUSH2 0x1018 JUMPI PUSH1 0x40 MLOAD PUSH32 0x8C379A000000000000000000000000000000000000000000000000000000000 DUP2 MSTORE PUSH1 0x4 ADD PUSH2 0x100F SWAP1 PUSH2 0x1DB6 JUMP JUMPDEST PUSH1 0x40 MLOAD DUP1 SWAP2 SUB SWAP1 REVERT JUMPDEST PUSH1 0x0 PUSH1 0x2 PUSH1 0x1 PUSH1 0x0 SWAP1 SLOAD SWAP1 PUSH2 0x100 EXP SWAP1 DIV PUSH20 0xFFFFFFFFFFFFFFFFFFFFFFFFFFFFFFFFFFFFFFFF AND PUSH20 0xFFFFFFFFFFFFFFFFFFFFFFFFFFFFFFFFFFFFFFFF AND PUSH4 0x91651932 DUP5 PUSH1 0x40 MLOAD DUP3 PUSH4 0xFFFFFFFF AND PUSH1 0xE0 SHL DUP2 MSTORE PUSH1 0x4 ADD PUSH2 0x1077 SWAP2 SWAP1 PUSH2 0x15C2 JUMP JUMPDEST PUSH1 0x20 PUSH1 0x40 MLOAD DUP1 DUP4 SUB DUP2 DUP7 GAS STATICCALL ISZERO DUP1 ISZERO PUSH2 0x1094 JUMPI RETURNDATASIZE PUSH1 0x0 DUP1 RETURNDATACOPY RETURNDATASIZE PUSH1 0x0 REVERT JUMPDEST POP POP POP POP PUSH1 0x40 MLOAD RETURNDATASIZE PUSH1 0x1F NOT PUSH1 0x1F DUP3 ADD AND DUP3 ADD DUP1 PUSH1 0x40 MSTORE POP DUP2 ADD SWAP1 PUSH2 0x10B8 SWAP2 SWAP1 PUSH2 0x17C6 JUMP JUMPDEST PUSH1 0x1 PUSH1 0x0 SWAP1 SLOAD SWAP1 PUSH2 0x100 EXP SWAP1 DIV PUSH20 0xFFFFFFFFFFFFFFFFFFFFFFFFFFFFFFFFFFFFFFFF AND PUSH20 0xFFFFFFFFFFFFFFFFFFFFFFFFFFFFFFFFFFFFFFFF AND PUSH3 0xFDD58E CALLER DUP7 PUSH1 0x40 MLOAD DUP4 PUSH4 0xFFFFFFFF AND PUSH1 0xE0 SHL DUP2 MSTORE PUSH1 0x4 ADD PUSH2 0x1114 SWAP3 SWAP2 SWAP1 PUSH2 0x1A80 JUMP JUMPDEST PUSH1 0x20 PUSH1 0x40 MLOAD DUP1 DUP4 SUB DUP2 DUP7 GAS STATICCALL ISZERO DUP1 ISZERO PUSH2 0x1131 JUMPI RETURNDATASIZE PUSH1 0x0 DUP1 RETURNDATACOPY RETURNDATASIZE PUSH1 0x0 REVERT JUMPDEST POP POP POP POP PUSH1 0x40 MLOAD RETURNDATASIZE PUSH1 0x1F NOT PUSH1 0x1F DUP3 ADD AND DUP3 ADD DUP1 PUSH1 0x40 MSTORE POP DUP2 ADD SWAP1 PUSH2 0x1155 SWAP2 SWAP1 PUSH2 0x17C6 JUMP JUMPDEST PUSH2 0x115F SWAP2 SWAP1 PUSH2 0x1822 JUMP JUMPDEST PUSH2 0x1169 SWAP2 SWAP1 PUSH2 0x1CCD JUMP JUMPDEST SWAP1 POP CALLER PUSH20 0xFFFFFFFFFFFFFFFFFFFFFFFFFFFFFFFFFFFFFFFF AND PUSH2 0x8FC DUP3 SWAP1 DUP2 ISZERO MUL SWAP1 PUSH1 0x40 MLOAD PUSH1 0x0 PUSH1 0x40 MLOAD DUP1 DUP4 SUB DUP2 DUP6 DUP9 DUP9 CALL SWAP4 POP POP POP POP ISZERO DUP1 ISZERO PUSH2 0x11B1 JUMPI RETURNDATASIZE PUSH1 0x0 DUP1 RETURNDATACOPY RETURNDATASIZE PUSH1 0x0 REVERT JUMPDEST POP PUSH1 0x1 PUSH1 0x0 SWAP1 SLOAD SWAP1 PUSH2 0x100 EXP SWAP1 DIV PUSH20 0xFFFFFFFFFFFFFFFFFFFFFFFFFFFFFFFFFFFFFFFF AND PUSH20 0xFFFFFFFFFFFFFFFFFFFFFFFFFFFFFFFFFFFFFFFF AND PUSH4 0x77379082 CALLER DUP5 PUSH1 0x1 PUSH1 0x0 SWAP1 SLOAD SWAP1 PUSH2 0x100 EXP SWAP1 DIV PUSH20 0xFFFFFFFFFFFFFFFFFFFFFFFFFFFFFFFFFFFFFFFF AND PUSH20 0xFFFFFFFFFFFFFFFFFFFFFFFFFFFFFFFFFFFFFFFF AND PUSH3 0xFDD58E CALLER DUP9 PUSH1 0x40 MLOAD DUP4 PUSH4 0xFFFFFFFF AND PUSH1 0xE0 SHL DUP2 MSTORE PUSH1 0x4 ADD PUSH2 0x124E SWAP3 SWAP2 SWAP1 PUSH2 0x1A80 JUMP JUMPDEST PUSH1 0x20 PUSH1 0x40 MLOAD DUP1 DUP4 SUB DUP2 DUP7 GAS STATICCALL ISZERO DUP1 ISZERO PUSH2 0x126B JUMPI RETURNDATASIZE PUSH1 0x0 DUP1 RETURNDATACOPY RETURNDATASIZE PUSH1 0x0 REVERT JUMPDEST POP POP POP POP PUSH1 0x40 MLOAD RETURNDATASIZE PUSH1 0x1F NOT PUSH1 0x1F DUP3 ADD AND DUP3 ADD DUP1 PUSH1 0x40 MSTORE POP DUP2 ADD SWAP1 PUSH2 0x128F SWAP2 SWAP1 PUSH2 0x17C6 JUMP JUMPDEST PUSH1 0x40 MLOAD DUP5 PUSH4 0xFFFFFFFF AND PUSH1 0xE0 SHL DUP2 MSTORE PUSH1 0x4 ADD PUSH2 0x12AD SWAP4 SWAP3 SWAP2 SWAP1 PUSH2 0x1DD6 JUMP JUMPDEST PUSH1 0x0 PUSH1 0x40 MLOAD DUP1 DUP4 SUB DUP2 PUSH1 0x0 DUP8 DUP1 EXTCODESIZE ISZERO DUP1 ISZERO PUSH2 0x12C7 JUMPI PUSH1 0x0 DUP1 REVERT JUMPDEST POP GAS CALL ISZERO DUP1 ISZERO PUSH2 0x12DB JUMPI RETURNDATASIZE PUSH1 0x0 DUP1 RETURNDATACOPY RETURNDATASIZE PUSH1 0x0 REVERT JUMPDEST POP POP POP POP POP POP POP JUMP JUMPDEST PUSH2 0x12EC PUSH2 0x1367 JUMP JUMPDEST PUSH1 0x0 PUSH20 0xFFFFFFFFFFFFFFFFFFFFFFFFFFFFFFFFFFFFFFFF AND DUP2 PUSH20 0xFFFFFFFFFFFFFFFFFFFFFFFFFFFFFFFFFFFFFFFF AND SUB PUSH2 0x135B JUMPI PUSH1 0x40 MLOAD PUSH32 0x8C379A000000000000000000000000000000000000000000000000000000000 DUP2 MSTORE PUSH1 0x4 ADD PUSH2 0x1352 SWAP1 PUSH2 0x1E7F JUMP JUMPDEST PUSH1 0x40 MLOAD DUP1 SWAP2 SUB SWAP1 REVERT JUMPDEST PUSH2 0x1364 DUP2 PUSH2 0x13E5 JUMP JUMPDEST POP JUMP JUMPDEST PUSH2 0x136F PUSH2 0x14A9 JUMP JUMPDEST PUSH20 0xFFFFFFFFFFFFFFFFFFFFFFFFFFFFFFFFFFFFFFFF AND PUSH2 0x138D PUSH2 0xD0C JUMP JUMPDEST PUSH20 0xFFFFFFFFFFFFFFFFFFFFFFFFFFFFFFFFFFFFFFFF AND EQ PUSH2 0x13E3 JUMPI PUSH1 0x40 MLOAD PUSH32 0x8C379A000000000000000000000000000000000000000000000000000000000 DUP2 MSTORE PUSH1 0x4 ADD PUSH2 0x13DA SWAP1 PUSH2 0x1EEB JUMP JUMPDEST PUSH1 0x40 MLOAD DUP1 SWAP2 SUB SWAP1 REVERT JUMPDEST JUMP JUMPDEST PUSH1 0x0 DUP1 PUSH1 0x0 SWAP1 SLOAD SWAP1 PUSH2 0x100 EXP SWAP1 DIV PUSH20 0xFFFFFFFFFFFFFFFFFFFFFFFFFFFFFFFFFFFFFFFF AND SWAP1 POP DUP2 PUSH1 0x0 DUP1 PUSH2 0x100 EXP DUP2 SLOAD DUP2 PUSH20 0xFFFFFFFFFFFFFFFFFFFFFFFFFFFFFFFFFFFFFFFF MUL NOT AND SWAP1 DUP4 PUSH20 0xFFFFFFFFFFFFFFFFFFFFFFFFFFFFFFFFFFFFFFFF AND MUL OR SWAP1 SSTORE POP DUP2 PUSH20 0xFFFFFFFFFFFFFFFFFFFFFFFFFFFFFFFFFFFFFFFF AND DUP2 PUSH20 0xFFFFFFFFFFFFFFFFFFFFFFFFFFFFFFFFFFFFFFFF AND PUSH32 0x8BE0079C531659141344CD1FD0A4F28419497F9722A3DAAFE3B4186F6B6457E0 PUSH1 0x40 MLOAD PUSH1 0x40 MLOAD DUP1 SWAP2 SUB SWAP1 LOG3 POP POP JUMP JUMPDEST PUSH1 0x0 CALLER SWAP1 POP SWAP1 JUMP JUMPDEST PUSH1 0x0 PUSH20 0xFFFFFFFFFFFFFFFFFFFFFFFFFFFFFFFFFFFFFFFF DUP3 AND SWAP1 POP SWAP2 SWAP1 POP JUMP JUMPDEST PUSH1 0x0 DUP2 SWAP1 POP SWAP2 SWAP1 POP JUMP JUMPDEST PUSH1 0x0 PUSH2 0x14F6 PUSH2 0x14F1 PUSH2 0x14EC DUP5 PUSH2 0x14B1 JUMP JUMPDEST PUSH2 0x14D1 JUMP JUMPDEST PUSH2 0x14B1 JUMP JUMPDEST SWAP1 POP SWAP2 SWAP1 POP JUMP JUMPDEST PUSH1 0x0 PUSH2 0x1508 DUP3 PUSH2 0x14DB JUMP JUMPDEST SWAP1 POP SWAP2 SWAP1 POP JUMP JUMPDEST PUSH1 0x0 PUSH2 0x151A DUP3 PUSH2 0x14FD JUMP JUMPDEST SWAP1 POP SWAP2 SWAP1 POP JUMP JUMPDEST PUSH2 0x152A DUP2 PUSH2 0x150F JUMP JUMPDEST DUP3 MSTORE POP POP JUMP JUMPDEST PUSH1 0x0 PUSH1 0x20 DUP3 ADD SWAP1 POP PUSH2 0x1545 PUSH1 0x0 DUP4 ADD DUP5 PUSH2 0x1521 JUMP JUMPDEST SWAP3 SWAP2 POP POP JUMP JUMPDEST PUSH1 0x0 DUP1 REVERT JUMPDEST PUSH1 0x0 DUP2 SWAP1 POP SWAP2 SWAP1 POP JUMP JUMPDEST PUSH2 0x1563 DUP2 PUSH2 0x1550 JUMP JUMPDEST DUP2 EQ PUSH2 0x156E JUMPI PUSH1 0x0 DUP1 REVERT JUMPDEST POP JUMP JUMPDEST PUSH1 0x0 DUP2 CALLDATALOAD SWAP1 POP PUSH2 0x1580 DUP2 PUSH2 0x155A JUMP JUMPDEST SWAP3 SWAP2 POP POP JUMP JUMPDEST PUSH1 0x0 PUSH1 0x20 DUP3 DUP5 SUB SLT ISZERO PUSH2 0x159C JUMPI PUSH2 0x159B PUSH2 0x154B JUMP JUMPDEST JUMPDEST PUSH1 0x0 PUSH2 0x15AA DUP5 DUP3 DUP6 ADD PUSH2 0x1571 JUMP JUMPDEST SWAP2 POP POP SWAP3 SWAP2 POP POP JUMP JUMPDEST PUSH2 0x15BC DUP2 PUSH2 0x1550 JUMP JUMPDEST DUP3 MSTORE POP POP JUMP JUMPDEST PUSH1 0x0 PUSH1 0x20 DUP3 ADD SWAP1 POP PUSH2 0x15D7 PUSH1 0x0 DUP4 ADD DUP5 PUSH2 0x15B3 JUMP JUMPDEST SWAP3 SWAP2 POP POP JUMP JUMPDEST PUSH1 0x0 DUP1 PUSH1 0x40 DUP4 DUP6 SUB SLT ISZERO PUSH2 0x15F4 JUMPI PUSH2 0x15F3 PUSH2 0x154B JUMP JUMPDEST JUMPDEST PUSH1 0x0 PUSH2 0x1602 DUP6 DUP3 DUP7 ADD PUSH2 0x1571 JUMP JUMPDEST SWAP3 POP POP PUSH1 0x20 PUSH2 0x1613 DUP6 DUP3 DUP7 ADD PUSH2 0x1571 JUMP JUMPDEST SWAP2 POP POP SWAP3 POP SWAP3 SWAP1 POP JUMP JUMPDEST PUSH1 0x0 PUSH2 0x1628 DUP3 PUSH2 0x14B1 JUMP JUMPDEST SWAP1 POP SWAP2 SWAP1 POP JUMP JUMPDEST PUSH2 0x1638 DUP2 PUSH2 0x161D JUMP JUMPDEST DUP3 MSTORE POP POP JUMP JUMPDEST PUSH1 0x0 PUSH1 0x20 DUP3 ADD SWAP1 POP PUSH2 0x1653 PUSH1 0x0 DUP4 ADD DUP5 PUSH2 0x162F JUMP JUMPDEST SWAP3 SWAP2 POP POP JUMP JUMPDEST PUSH2 0x1662 DUP2 PUSH2 0x161D JUMP JUMPDEST DUP2 EQ PUSH2 0x166D JUMPI PUSH1 0x0 DUP1 REVERT JUMPDEST POP JUMP JUMPDEST PUSH1 0x0 DUP2 CALLDATALOAD SWAP1 POP PUSH2 0x167F DUP2 PUSH2 0x1659 JUMP JUMPDEST SWAP3 SWAP2 POP POP JUMP JUMPDEST PUSH1 0x0 DUP1 PUSH1 0x40 DUP4 DUP6 SUB SLT ISZERO PUSH2 0x169C JUMPI PUSH2 0x169B PUSH2 0x154B JUMP JUMPDEST JUMPDEST PUSH1 0x0 PUSH2 0x16AA DUP6 DUP3 DUP7 ADD PUSH2 0x1670 JUMP JUMPDEST SWAP3 POP POP PUSH1 0x20 PUSH2 0x16BB DUP6 DUP3 DUP7 ADD PUSH2 0x1571 JUMP JUMPDEST SWAP2 POP POP SWAP3 POP SWAP3 SWAP1 POP JUMP JUMPDEST PUSH1 0x0 PUSH1 0x20 DUP3 DUP5 SUB SLT ISZERO PUSH2 0x16DB JUMPI PUSH2 0x16DA PUSH2 0x154B JUMP JUMPDEST JUMPDEST PUSH1 0x0 PUSH2 0x16E9 DUP5 DUP3 DUP6 ADD PUSH2 0x1670 JUMP JUMPDEST SWAP2 POP POP SWAP3 SWAP2 POP POP JUMP JUMPDEST PUSH1 0x0 DUP2 MLOAD SWAP1 POP PUSH2 0x1701 DUP2 PUSH2 0x1659 JUMP JUMPDEST SWAP3 SWAP2 POP POP JUMP JUMPDEST PUSH1 0x0 PUSH1 0x20 DUP3 DUP5 SUB SLT ISZERO PUSH2 0x171D JUMPI PUSH2 0x171C PUSH2 0x154B JUMP JUMPDEST JUMPDEST PUSH1 0x0 PUSH2 0x172B DUP5 DUP3 DUP6 ADD PUSH2 0x16F2 JUMP JUMPDEST SWAP2 POP POP SWAP3 SWAP2 POP POP JUMP JUMPDEST PUSH1 0x0 DUP3 DUP3 MSTORE PUSH1 0x20 DUP3 ADD SWAP1 POP SWAP3 SWAP2 POP POP JUMP JUMPDEST PUSH32 0x4973207468617420796F75722077616C6C65743F000000000000000000000000 PUSH1 0x0 DUP3 ADD MSTORE POP JUMP JUMPDEST PUSH1 0x0 PUSH2 0x177B PUSH1 0x14 DUP4 PUSH2 0x1734 JUMP JUMPDEST SWAP2 POP PUSH2 0x1786 DUP3 PUSH2 0x1745 JUMP JUMPDEST PUSH1 0x20 DUP3 ADD SWAP1 POP SWAP2 SWAP1 POP JUMP JUMPDEST PUSH1 0x0 PUSH1 0x20 DUP3 ADD SWAP1 POP DUP2 DUP2 SUB PUSH1 0x0 DUP4 ADD MSTORE PUSH2 0x17AA DUP2 PUSH2 0x176E JUMP JUMPDEST SWAP1 POP SWAP2 SWAP1 POP JUMP JUMPDEST PUSH1 0x0 DUP2 MLOAD SWAP1 POP PUSH2 0x17C0 DUP2 PUSH2 0x155A JUMP JUMPDEST SWAP3 SWAP2 POP POP JUMP JUMPDEST PUSH1 0x0 PUSH1 0x20 DUP3 DUP5 SUB SLT ISZERO PUSH2 0x17DC JUMPI PUSH2 0x17DB PUSH2 0x154B JUMP JUMPDEST JUMPDEST PUSH1 0x0 PUSH2 0x17EA DUP5 DUP3 DUP6 ADD PUSH2 0x17B1 JUMP JUMPDEST SWAP2 POP POP SWAP3 SWAP2 POP POP JUMP JUMPDEST PUSH32 0x4E487B7100000000000000000000000000000000000000000000000000000000 PUSH1 0x0 MSTORE PUSH1 0x11 PUSH1 0x4 MSTORE PUSH1 0x24 PUSH1 0x0 REVERT JUMPDEST PUSH1 0x0 PUSH2 0x182D DUP3 PUSH2 0x1550 JUMP JUMPDEST SWAP2 POP PUSH2 0x1838 DUP4 PUSH2 0x1550 JUMP JUMPDEST SWAP3 POP DUP3 DUP3 MUL PUSH2 0x1846 DUP2 PUSH2 0x1550 JUMP JUMPDEST SWAP2 POP DUP3 DUP3 DIV DUP5 EQ DUP4 ISZERO OR PUSH2 0x185D JUMPI PUSH2 0x185C PUSH2 0x17F3 JUMP JUMPDEST JUMPDEST POP SWAP3 SWAP2 POP POP JUMP JUMPDEST PUSH32 0x46756E64696E672073656363657373203F000000000000000000000000000000 PUSH1 0x0 DUP3 ADD MSTORE POP JUMP JUMPDEST PUSH1 0x0 PUSH2 0x189A PUSH1 0x11 DUP4 PUSH2 0x1734 JUMP JUMPDEST SWAP2 POP PUSH2 0x18A5 DUP3 PUSH2 0x1864 JUMP JUMPDEST PUSH1 0x20 DUP3 ADD SWAP1 POP SWAP2 SWAP1 POP JUMP JUMPDEST PUSH1 0x0 PUSH1 0x20 DUP3 ADD SWAP1 POP DUP2 DUP2 SUB PUSH1 0x0 DUP4 ADD MSTORE PUSH2 0x18C9 DUP2 PUSH2 0x188D JUMP JUMPDEST SWAP1 POP SWAP2 SWAP1 POP JUMP JUMPDEST PUSH32 0x54696D65204F7665720000000000000000000000000000000000000000000000 PUSH1 0x0 DUP3 ADD MSTORE POP JUMP JUMPDEST PUSH1 0x0 PUSH2 0x1906 PUSH1 0x9 DUP4 PUSH2 0x1734 JUMP JUMPDEST SWAP2 POP PUSH2 0x1911 DUP3 PUSH2 0x18D0 JUMP JUMPDEST PUSH1 0x20 DUP3 ADD SWAP1 POP SWAP2 SWAP1 POP JUMP JUMPDEST PUSH1 0x0 PUSH1 0x20 DUP3 ADD SWAP1 POP DUP2 DUP2 SUB PUSH1 0x0 DUP4 ADD MSTORE PUSH2 0x1935 DUP2 PUSH2 0x18F9 JUMP JUMPDEST SWAP1 POP SWAP2 SWAP1 POP JUMP JUMPDEST PUSH32 0x637265617465722063616E277420627579000000000000000000000000000000 PUSH1 0x0 DUP3 ADD MSTORE POP JUMP JUMPDEST PUSH1 0x0 PUSH2 0x1972 PUSH1 0x11 DUP4 PUSH2 0x1734 JUMP JUMPDEST SWAP2 POP PUSH2 0x197D DUP3 PUSH2 0x193C JUMP JUMPDEST PUSH1 0x20 DUP3 ADD SWAP1 POP SWAP2 SWAP1 POP JUMP JUMPDEST PUSH1 0x0 PUSH1 0x20 DUP3 ADD SWAP1 POP DUP2 DUP2 SUB PUSH1 0x0 DUP4 ADD MSTORE PUSH2 0x19A1 DUP2 PUSH2 0x1965 JUMP JUMPDEST SWAP1 POP SWAP2 SWAP1 POP JUMP JUMPDEST PUSH32 0x68617665206E6F206D6F6E65792073656E740000000000000000000000000000 PUSH1 0x0 DUP3 ADD MSTORE POP JUMP JUMPDEST PUSH1 0x0 PUSH2 0x19DE PUSH1 0x12 DUP4 PUSH2 0x1734 JUMP JUMPDEST SWAP2 POP PUSH2 0x19E9 DUP3 PUSH2 0x19A8 JUMP JUMPDEST PUSH1 0x20 DUP3 ADD SWAP1 POP SWAP2 SWAP1 POP JUMP JUMPDEST PUSH1 0x0 PUSH1 0x20 DUP3 ADD SWAP1 POP DUP2 DUP2 SUB PUSH1 0x0 DUP4 ADD MSTORE PUSH2 0x1A0D DUP2 PUSH2 0x19D1 JUMP JUMPDEST SWAP1 POP SWAP2 SWAP1 POP JUMP JUMPDEST PUSH32 0x54686520707269636520646F65736E2774206D617463682E0000000000000000 PUSH1 0x0 DUP3 ADD MSTORE POP JUMP JUMPDEST PUSH1 0x0 PUSH2 0x1A4A PUSH1 0x18 DUP4 PUSH2 0x1734 JUMP JUMPDEST SWAP2 POP PUSH2 0x1A55 DUP3 PUSH2 0x1A14 JUMP JUMPDEST PUSH1 0x20 DUP3 ADD SWAP1 POP SWAP2 SWAP1 POP JUMP JUMPDEST PUSH1 0x0 PUSH1 0x20 DUP3 ADD SWAP1 POP DUP2 DUP2 SUB PUSH1 0x0 DUP4 ADD MSTORE PUSH2 0x1A79 DUP2 PUSH2 0x1A3D JUMP JUMPDEST SWAP1 POP SWAP2 SWAP1 POP JUMP JUMPDEST PUSH1 0x0 PUSH1 0x40 DUP3 ADD SWAP1 POP PUSH2 0x1A95 PUSH1 0x0 DUP4 ADD DUP6 PUSH2 0x162F JUMP JUMPDEST PUSH2 0x1AA2 PUSH1 0x20 DUP4 ADD DUP5 PUSH2 0x15B3 JUMP JUMPDEST SWAP4 SWAP3 POP POP POP JUMP JUMPDEST PUSH32 0x63616E277420627579207468696E67732E000000000000000000000000000000 PUSH1 0x0 DUP3 ADD MSTORE POP JUMP JUMPDEST PUSH1 0x0 PUSH2 0x1ADF PUSH1 0x11 DUP4 PUSH2 0x1734 JUMP JUMPDEST SWAP2 POP PUSH2 0x1AEA DUP3 PUSH2 0x1AA9 JUMP JUMPDEST PUSH1 0x20 DUP3 ADD SWAP1 POP SWAP2 SWAP1 POP JUMP JUMPDEST PUSH1 0x0 PUSH1 0x20 DUP3 ADD SWAP1 POP DUP2 DUP2 SUB PUSH1 0x0 DUP4 ADD MSTORE PUSH2 0x1B0E DUP2 PUSH2 0x1AD2 JUMP JUMPDEST SWAP1 POP SWAP2 SWAP1 POP JUMP JUMPDEST PUSH1 0x0 PUSH2 0x1B20 DUP3 PUSH2 0x1550 JUMP JUMPDEST SWAP2 POP PUSH2 0x1B2B DUP4 PUSH2 0x1550 JUMP JUMPDEST SWAP3 POP DUP3 DUP3 SUB SWAP1 POP DUP2 DUP2 GT ISZERO PUSH2 0x1B43 JUMPI PUSH2 0x1B42 PUSH2 0x17F3 JUMP JUMPDEST JUMPDEST SWAP3 SWAP2 POP POP JUMP JUMPDEST PUSH32 0x6265206F7574206F662073746F636B20616E6420756E61626C6520746F206275 PUSH1 0x0 DUP3 ADD MSTORE PUSH32 0x7920676F6F647300000000000000000000000000000000000000000000000000 PUSH1 0x20 DUP3 ADD MSTORE POP JUMP JUMPDEST PUSH1 0x0 PUSH2 0x1BA5 PUSH1 0x27 DUP4 PUSH2 0x1734 JUMP JUMPDEST SWAP2 POP PUSH2 0x1BB0 DUP3 PUSH2 0x1B49 JUMP JUMPDEST PUSH1 0x40 DUP3 ADD SWAP1 POP SWAP2 SWAP1 POP JUMP JUMPDEST PUSH1 0x0 PUSH1 0x20 DUP3 ADD SWAP1 POP DUP2 DUP2 SUB PUSH1 0x0 DUP4 ADD MSTORE PUSH2 0x1BD4 DUP2 PUSH2 0x1B98 JUMP JUMPDEST SWAP1 POP SWAP2 SWAP1 POP JUMP JUMPDEST PUSH1 0x0 PUSH2 0x1BE6 DUP3 PUSH2 0x1550 JUMP JUMPDEST SWAP2 POP PUSH2 0x1BF1 DUP4 PUSH2 0x1550 JUMP JUMPDEST SWAP3 POP DUP3 DUP3 ADD SWAP1 POP DUP1 DUP3 GT ISZERO PUSH2 0x1C09 JUMPI PUSH2 0x1C08 PUSH2 0x17F3 JUMP JUMPDEST JUMPDEST SWAP3 SWAP2 POP POP JUMP JUMPDEST PUSH1 0x0 DUP3 DUP3 MSTORE PUSH1 0x20 DUP3 ADD SWAP1 POP SWAP3 SWAP2 POP POP JUMP JUMPDEST POP JUMP JUMPDEST PUSH1 0x0 PUSH2 0x1C30 PUSH1 0x0 DUP4 PUSH2 0x1C0F JUMP JUMPDEST SWAP2 POP PUSH2 0x1C3B DUP3 PUSH2 0x1C20 JUMP JUMPDEST PUSH1 0x0 DUP3 ADD SWAP1 POP SWAP2 SWAP1 POP JUMP JUMPDEST PUSH1 0x0 PUSH1 0xA0 DUP3 ADD SWAP1 POP PUSH2 0x1C5B PUSH1 0x0 DUP4 ADD DUP8 PUSH2 0x162F JUMP JUMPDEST PUSH2 0x1C68 PUSH1 0x20 DUP4 ADD DUP7 PUSH2 0x162F JUMP JUMPDEST PUSH2 0x1C75 PUSH1 0x40 DUP4 ADD DUP6 PUSH2 0x15B3 JUMP JUMPDEST PUSH2 0x1C82 PUSH1 0x60 DUP4 ADD DUP5 PUSH2 0x15B3 JUMP JUMPDEST DUP2 DUP2 SUB PUSH1 0x80 DUP4 ADD MSTORE PUSH2 0x1C93 DUP2 PUSH2 0x1C23 JUMP JUMPDEST SWAP1 POP SWAP6 SWAP5 POP POP POP POP POP JUMP JUMPDEST PUSH32 0x4E487B7100000000000000000000000000000000000000000000000000000000 PUSH1 0x0 MSTORE PUSH1 0x12 PUSH1 0x4 MSTORE PUSH1 0x24 PUSH1 0x0 REVERT JUMPDEST PUSH1 0x0 PUSH2 0x1CD8 DUP3 PUSH2 0x1550 JUMP JUMPDEST SWAP2 POP PUSH2 0x1CE3 DUP4 PUSH2 0x1550 JUMP JUMPDEST SWAP3 POP DUP3 PUSH2 0x1CF3 JUMPI PUSH2 0x1CF2 PUSH2 0x1C9E JUMP JUMPDEST JUMPDEST DUP3 DUP3 DIV SWAP1 POP SWAP3 SWAP2 POP POP JUMP JUMPDEST PUSH32 0x49732069742061206275796572203F0000000000000000000000000000000000 PUSH1 0x0 DUP3 ADD MSTORE POP JUMP JUMPDEST PUSH1 0x0 PUSH2 0x1D34 PUSH1 0xF DUP4 PUSH2 0x1734 JUMP JUMPDEST SWAP2 POP PUSH2 0x1D3F DUP3 PUSH2 0x1CFE JUMP JUMPDEST PUSH1 0x20 DUP3 ADD SWAP1 POP SWAP2 SWAP1 POP JUMP JUMPDEST PUSH1 0x0 PUSH1 0x20 DUP3 ADD SWAP1 POP DUP2 DUP2 SUB PUSH1 0x0 DUP4 ADD MSTORE PUSH2 0x1D63 DUP2 PUSH2 0x1D27 JUMP JUMPDEST SWAP1 POP SWAP2 SWAP1 POP JUMP JUMPDEST PUSH32 0x46756E64696E67206661696C6564203F00000000000000000000000000000000 PUSH1 0x0 DUP3 ADD MSTORE POP JUMP JUMPDEST PUSH1 0x0 PUSH2 0x1DA0 PUSH1 0x10 DUP4 PUSH2 0x1734 JUMP JUMPDEST SWAP2 POP PUSH2 0x1DAB DUP3 PUSH2 0x1D6A JUMP JUMPDEST PUSH1 0x20 DUP3 ADD SWAP1 POP SWAP2 SWAP1 POP JUMP JUMPDEST PUSH1 0x0 PUSH1 0x20 DUP3 ADD SWAP1 POP DUP2 DUP2 SUB PUSH1 0x0 DUP4 ADD MSTORE PUSH2 0x1DCF DUP2 PUSH2 0x1D93 JUMP JUMPDEST SWAP1 POP SWAP2 SWAP1 POP JUMP JUMPDEST PUSH1 0x0 PUSH1 0x60 DUP3 ADD SWAP1 POP PUSH2 0x1DEB PUSH1 0x0 DUP4 ADD DUP7 PUSH2 0x162F JUMP JUMPDEST PUSH2 0x1DF8 PUSH1 0x20 DUP4 ADD DUP6 PUSH2 0x15B3 JUMP JUMPDEST PUSH2 0x1E05 PUSH1 0x40 DUP4 ADD DUP5 PUSH2 0x15B3 JUMP JUMPDEST SWAP5 SWAP4 POP POP POP POP JUMP JUMPDEST PUSH32 0x4F776E61626C653A206E6577206F776E657220697320746865207A65726F2061 PUSH1 0x0 DUP3 ADD MSTORE PUSH32 0x6464726573730000000000000000000000000000000000000000000000000000 PUSH1 0x20 DUP3 ADD MSTORE POP JUMP JUMPDEST PUSH1 0x0 PUSH2 0x1E69 PUSH1 0x26 DUP4 PUSH2 0x1734 JUMP JUMPDEST SWAP2 POP PUSH2 0x1E74 DUP3 PUSH2 0x1E0D JUMP JUMPDEST PUSH1 0x40 DUP3 ADD SWAP1 POP SWAP2 SWAP1 POP JUMP JUMPDEST PUSH1 0x0 PUSH1 0x20 DUP3 ADD SWAP1 POP DUP2 DUP2 SUB PUSH1 0x0 DUP4 ADD MSTORE PUSH2 0x1E98 DUP2 PUSH2 0x1E5C JUMP JUMPDEST SWAP1 POP SWAP2 SWAP1 POP JUMP JUMPDEST PUSH32 0x4F776E61626C653A2063616C6C6572206973206E6F7420746865206F776E6572 PUSH1 0x0 DUP3 ADD MSTORE POP JUMP JUMPDEST PUSH1 0x0 PUSH2 0x1ED5 PUSH1 0x20 DUP4 PUSH2 0x1734 JUMP JUMPDEST SWAP2 POP PUSH2 0x1EE0 DUP3 PUSH2 0x1E9F JUMP JUMPDEST PUSH1 0x20 DUP3 ADD SWAP1 POP SWAP2 SWAP1 POP JUMP JUMPDEST PUSH1 0x0 PUSH1 0x20 DUP3 ADD SWAP1 POP DUP2 DUP2 SUB PUSH1 0x0 DUP4 ADD MSTORE PUSH2 0x1F04 DUP2 PUSH2 0x1EC8 JUMP JUMPDEST SWAP1 POP SWAP2 SWAP1 POP JUMP INVALID LOG2 PUSH5 0x6970667358 0x22 SLT KECCAK256 INVALID 0xDC 0xB8 0xC9 0xDC 0xF9 DELEGATECALL 0xC 0xC5 PUSH31 0xEF0E0FF951D894770DBF4C5982F780365DFDF1FFEDFA64736F6C6343000811 STOP CALLER "
		},
		"gasEstimates": {
			"creation": {
				"codeDepositCost": "1600200",
				"executionCost": "infinite",
				"totalCost": "infinite"
			},
			"external": {
				"DToken()": "infinite",
				"aa(uint256)": "infinite",
				"changedCA()": "infinite",
				"isFuckingFundding(address,uint256)": "infinite",
				"isSuccessFundding(uint256)": "infinite",
				"owner()": "2566",
				"priceCheck(uint256)": "infinite",
				"renounceOwnership()": "30398",
				"transferOwnership(address)": "30832",
				"userFundding(uint256,uint256)": "infinite"
			}
		},
		"methodIdentifiers": {
			"DToken()": "19c5b89c",
			"aa(uint256)": "7323febe",
			"changedCA()": "1a554d01",
			"isFuckingFundding(address,uint256)": "aeaaf9f9",
			"isSuccessFundding(uint256)": "29c51d2b",
			"owner()": "8da5cb5b",
			"priceCheck(uint256)": "49e5465c",
			"renounceOwnership()": "715018a6",
			"transferOwnership(address)": "f2fde38b",
			"userFundding(uint256,uint256)": "50b9c737"
		}
	},
	"abi": [
		{
			"inputs": [
				{
					"internalType": "address",
					"name": "DtsTokenCA",
					"type": "address"
				}
			],
			"stateMutability": "nonpayable",
			"type": "constructor"
		},
		{
			"anonymous": false,
			"inputs": [
				{
					"indexed": true,
					"internalType": "address",
					"name": "previousOwner",
					"type": "address"
				},
				{
					"indexed": true,
					"internalType": "address",
					"name": "newOwner",
					"type": "address"
				}
			],
			"name": "OwnershipTransferred",
			"type": "event"
		},
		{
			"inputs": [],
			"name": "DToken",
			"outputs": [
				{
					"internalType": "contract DtsToken",
					"name": "",
					"type": "address"
				}
			],
			"stateMutability": "view",
			"type": "function"
		},
		{
			"inputs": [
				{
					"internalType": "uint256",
					"name": "tokenId",
					"type": "uint256"
				}
			],
			"name": "aa",
			"outputs": [
				{
					"internalType": "uint256",
					"name": "",
					"type": "uint256"
				}
			],
			"stateMutability": "view",
			"type": "function"
		},
		{
			"inputs": [],
			"name": "changedCA",
			"outputs": [],
			"stateMutability": "nonpayable",
			"type": "function"
		},
		{
			"inputs": [
				{
					"internalType": "address",
					"name": "uWallet",
					"type": "address"
				},
				{
					"internalType": "uint256",
					"name": "tokenId",
					"type": "uint256"
				}
			],
			"name": "isFuckingFundding",
			"outputs": [],
			"stateMutability": "payable",
			"type": "function"
		},
		{
			"inputs": [
				{
					"internalType": "uint256",
					"name": "tokenId",
					"type": "uint256"
				}
			],
			"name": "isSuccessFundding",
			"outputs": [],
			"stateMutability": "payable",
			"type": "function"
		},
		{
			"inputs": [],
			"name": "owner",
			"outputs": [
				{
					"internalType": "address",
					"name": "",
					"type": "address"
				}
			],
			"stateMutability": "view",
			"type": "function"
		},
		{
			"inputs": [
				{
					"internalType": "uint256",
					"name": "tokenId",
					"type": "uint256"
				}
			],
			"name": "priceCheck",
			"outputs": [
				{
					"internalType": "uint256",
					"name": "",
					"type": "uint256"
				}
			],
			"stateMutability": "view",
			"type": "function"
		},
		{
			"inputs": [],
			"name": "renounceOwnership",
			"outputs": [],
			"stateMutability": "nonpayable",
			"type": "function"
		},
		{
			"inputs": [
				{
					"internalType": "address",
					"name": "newOwner",
					"type": "address"
				}
			],
			"name": "transferOwnership",
			"outputs": [],
			"stateMutability": "nonpayable",
			"type": "function"
		},
		{
			"inputs": [
				{
					"internalType": "uint256",
					"name": "tokenId",
					"type": "uint256"
				},
				{
					"internalType": "uint256",
					"name": "amount",
					"type": "uint256"
				}
			],
			"name": "userFundding",
			"outputs": [],
			"stateMutability": "payable",
			"type": "function"
		}
	]
}