{
  "contractName": "DtsToken",
  "abi": [
    {
      "inputs": [],
      "stateMutability": "nonpayable",
      "type": "constructor"
    },
    {
      "anonymous": false,
      "inputs": [
        {
          "indexed": true,
          "internalType": "address",
          "name": "account",
          "type": "address"
        },
        {
          "indexed": true,
          "internalType": "address",
          "name": "operator",
          "type": "address"
        },
        {
          "indexed": false,
          "internalType": "bool",
          "name": "approved",
          "type": "bool"
        }
      ],
      "name": "ApprovalForAll",
      "type": "event"
    },
    {
      "anonymous": false,
      "inputs": [
        {
          "indexed": true,
          "internalType": "address",
          "name": "previousOwner",
          "type": "address"
        },
        {
          "indexed": true,
          "internalType": "address",
          "name": "newOwner",
          "type": "address"
        }
      ],
      "name": "OwnershipTransferred",
      "type": "event"
    },
    {
      "anonymous": false,
      "inputs": [
        {
          "indexed": true,
          "internalType": "address",
          "name": "operator",
          "type": "address"
        },
        {
          "indexed": true,
          "internalType": "address",
          "name": "from",
          "type": "address"
        },
        {
          "indexed": true,
          "internalType": "address",
          "name": "to",
          "type": "address"
        },
        {
          "indexed": false,
          "internalType": "uint256[]",
          "name": "ids",
          "type": "uint256[]"
        },
        {
          "indexed": false,
          "internalType": "uint256[]",
          "name": "values",
          "type": "uint256[]"
        }
      ],
      "name": "TransferBatch",
      "type": "event"
    },
    {
      "anonymous": false,
      "inputs": [
        {
          "indexed": true,
          "internalType": "address",
          "name": "operator",
          "type": "address"
        },
        {
          "indexed": true,
          "internalType": "address",
          "name": "from",
          "type": "address"
        },
        {
          "indexed": true,
          "internalType": "address",
          "name": "to",
          "type": "address"
        },
        {
          "indexed": false,
          "internalType": "uint256",
          "name": "id",
          "type": "uint256"
        },
        {
          "indexed": false,
          "internalType": "uint256",
          "name": "value",
          "type": "uint256"
        }
      ],
      "name": "TransferSingle",
      "type": "event"
    },
    {
      "anonymous": false,
      "inputs": [
        {
          "indexed": false,
          "internalType": "string",
          "name": "value",
          "type": "string"
        },
        {
          "indexed": true,
          "internalType": "uint256",
          "name": "id",
          "type": "uint256"
        }
      ],
      "name": "URI",
      "type": "event"
    },
    {
      "anonymous": false,
      "inputs": [
        {
          "indexed": false,
          "internalType": "address",
          "name": "account",
          "type": "address"
        },
        {
          "indexed": false,
          "internalType": "uint256",
          "name": "tokenId",
          "type": "uint256"
        },
        {
          "indexed": false,
          "internalType": "uint256",
          "name": "amount",
          "type": "uint256"
        },
        {
          "indexed": false,
          "internalType": "uint256",
          "name": "totalPrice",
          "type": "uint256"
        },
        {
          "indexed": false,
          "internalType": "uint256",
          "name": "getTime",
          "type": "uint256"
        },
        {
          "indexed": false,
          "internalType": "string",
          "name": "result",
          "type": "string"
        }
      ],
      "name": "seccessFundding",
      "type": "event"
    },
    {
      "inputs": [],
      "name": "Ftoken",
      "outputs": [
        {
          "internalType": "contract FunddingToken",
          "name": "",
          "type": "address"
        }
      ],
      "stateMutability": "view",
      "type": "function",
      "constant": true
    },
    {
      "inputs": [
        {
          "internalType": "address[]",
          "name": "accounts",
          "type": "address[]"
        },
        {
          "internalType": "uint256[]",
          "name": "ids",
          "type": "uint256[]"
        }
      ],
      "name": "balanceOfBatch",
      "outputs": [
        {
          "internalType": "uint256[]",
          "name": "",
          "type": "uint256[]"
        }
      ],
      "stateMutability": "view",
      "type": "function",
      "constant": true
    },
    {
      "inputs": [
        {
          "internalType": "uint256",
          "name": "",
          "type": "uint256"
        }
      ],
      "name": "ids",
      "outputs": [
        {
          "internalType": "uint256",
          "name": "",
          "type": "uint256"
        }
      ],
      "stateMutability": "view",
      "type": "function",
      "constant": true
    },
    {
      "inputs": [
        {
          "internalType": "address",
          "name": "account",
          "type": "address"
        },
        {
          "internalType": "address",
          "name": "operator",
          "type": "address"
        }
      ],
      "name": "isApprovedForAll",
      "outputs": [
        {
          "internalType": "bool",
          "name": "",
          "type": "bool"
        }
      ],
      "stateMutability": "view",
      "type": "function",
      "constant": true
    },
    {
      "inputs": [],
      "name": "owner",
      "outputs": [
        {
          "internalType": "address",
          "name": "",
          "type": "address"
        }
      ],
      "stateMutability": "view",
      "type": "function",
      "constant": true
    },
    {
      "inputs": [],
      "name": "renounceOwnership",
      "outputs": [],
      "stateMutability": "nonpayable",
      "type": "function"
    },
    {
      "inputs": [
        {
          "internalType": "address",
          "name": "from",
          "type": "address"
        },
        {
          "internalType": "address",
          "name": "to",
          "type": "address"
        },
        {
          "internalType": "uint256[]",
          "name": "ids",
          "type": "uint256[]"
        },
        {
          "internalType": "uint256[]",
          "name": "amounts",
          "type": "uint256[]"
        },
        {
          "internalType": "bytes",
          "name": "data",
          "type": "bytes"
        }
      ],
      "name": "safeBatchTransferFrom",
      "outputs": [],
      "stateMutability": "nonpayable",
      "type": "function"
    },
    {
      "inputs": [
        {
          "internalType": "address",
          "name": "from",
          "type": "address"
        },
        {
          "internalType": "address",
          "name": "to",
          "type": "address"
        },
        {
          "internalType": "uint256",
          "name": "id",
          "type": "uint256"
        },
        {
          "internalType": "uint256",
          "name": "amount",
          "type": "uint256"
        },
        {
          "internalType": "bytes",
          "name": "data",
          "type": "bytes"
        }
      ],
      "name": "safeTransferFrom",
      "outputs": [],
      "stateMutability": "nonpayable",
      "type": "function"
    },
    {
      "inputs": [
        {
          "internalType": "address",
          "name": "operator",
          "type": "address"
        },
        {
          "internalType": "bool",
          "name": "approved",
          "type": "bool"
        }
      ],
      "name": "setApprovalForAll",
      "outputs": [],
      "stateMutability": "nonpayable",
      "type": "function"
    },
    {
      "inputs": [
        {
          "internalType": "bytes4",
          "name": "interfaceId",
          "type": "bytes4"
        }
      ],
      "name": "supportsInterface",
      "outputs": [
        {
          "internalType": "bool",
          "name": "",
          "type": "bool"
        }
      ],
      "stateMutability": "view",
      "type": "function",
      "constant": true
    },
    {
      "inputs": [
        {
          "internalType": "uint256",
          "name": "",
          "type": "uint256"
        }
      ],
      "name": "tokenOwners",
      "outputs": [
        {
          "internalType": "address",
          "name": "Creater",
          "type": "address"
        },
        {
          "internalType": "uint256",
          "name": "NftAmount",
          "type": "uint256"
        },
        {
          "internalType": "uint256",
          "name": "TotalPrice",
          "type": "uint256"
        },
        {
          "internalType": "uint256",
          "name": "UnitPrice",
          "type": "uint256"
        },
        {
          "internalType": "uint256",
          "name": "EndTime",
          "type": "uint256"
        },
        {
          "internalType": "bool",
          "name": "isSuccess",
          "type": "bool"
        }
      ],
      "stateMutability": "view",
      "type": "function",
      "constant": true
    },
    {
      "inputs": [
        {
          "internalType": "address",
          "name": "newOwner",
          "type": "address"
        }
      ],
      "name": "transferOwnership",
      "outputs": [],
      "stateMutability": "nonpayable",
      "type": "function"
    },
    {
      "inputs": [
        {
          "internalType": "uint256",
          "name": "",
          "type": "uint256"
        }
      ],
      "name": "uri",
      "outputs": [
        {
          "internalType": "string",
          "name": "",
          "type": "string"
        }
      ],
      "stateMutability": "view",
      "type": "function",
      "constant": true
    },
    {
      "inputs": [
        {
          "internalType": "uint256",
          "name": "",
          "type": "uint256"
        },
        {
          "internalType": "address",
          "name": "",
          "type": "address"
        }
      ],
      "name": "voting",
      "outputs": [
        {
          "internalType": "bool",
          "name": "",
          "type": "bool"
        }
      ],
      "stateMutability": "view",
      "type": "function",
      "constant": true
    },
    {
      "inputs": [
        {
          "internalType": "uint256",
          "name": "",
          "type": "uint256"
        }
      ],
      "name": "votingTime",
      "outputs": [
        {
          "internalType": "uint256",
          "name": "",
          "type": "uint256"
        }
      ],
      "stateMutability": "view",
      "type": "function",
      "constant": true
    },
    {
      "inputs": [
        {
          "internalType": "address",
          "name": "account",
          "type": "address"
        },
        {
          "internalType": "uint256",
          "name": "tokenId",
          "type": "uint256"
        }
      ],
      "name": "balanceOf",
      "outputs": [
        {
          "internalType": "uint256",
          "name": "",
          "type": "uint256"
        }
      ],
      "stateMutability": "view",
      "type": "function",
      "constant": true
    },
    {
      "inputs": [],
      "name": "idsView",
      "outputs": [
        {
          "internalType": "uint256[]",
          "name": "",
          "type": "uint256[]"
        }
      ],
      "stateMutability": "view",
      "type": "function",
      "constant": true
    },
    {
      "inputs": [
        {
          "internalType": "address",
          "name": "account",
          "type": "address"
        },
        {
          "internalType": "address",
          "name": "funddingTokenCA",
          "type": "address"
        },
        {
          "internalType": "uint256",
          "name": "tokenId",
          "type": "uint256"
        },
        {
          "internalType": "uint256",
          "name": "amount",
          "type": "uint256"
        },
        {
          "internalType": "uint256",
          "name": "totalPrice",
          "type": "uint256"
        },
        {
          "internalType": "uint256",
          "name": "getTime",
          "type": "uint256"
        }
      ],
      "name": "mintFundding",
      "outputs": [],
      "stateMutability": "nonpayable",
      "type": "function"
    },
    {
      "inputs": [
        {
          "internalType": "uint256",
          "name": "tokenId",
          "type": "uint256"
        },
        {
          "internalType": "bool",
          "name": "",
          "type": "bool"
        }
      ],
      "name": "getvoting",
      "outputs": [],
      "stateMutability": "nonpayable",
      "type": "function"
    },
    {
      "inputs": [
        {
          "internalType": "uint256",
          "name": "tokenId",
          "type": "uint256"
        }
      ],
      "name": "getTokenOwnerData",
      "outputs": [
        {
          "components": [
            {
              "internalType": "address",
              "name": "Creater",
              "type": "address"
            },
            {
              "internalType": "uint256",
              "name": "NftAmount",
              "type": "uint256"
            },
            {
              "internalType": "uint256",
              "name": "TotalPrice",
              "type": "uint256"
            },
            {
              "internalType": "uint256",
              "name": "UnitPrice",
              "type": "uint256"
            },
            {
              "internalType": "uint256",
              "name": "EndTime",
              "type": "uint256"
            },
            {
              "internalType": "bool",
              "name": "isSuccess",
              "type": "bool"
            }
          ],
          "internalType": "struct DtsToken.tokenOwnerData",
          "name": "",
          "type": "tuple"
        }
      ],
      "stateMutability": "view",
      "type": "function",
      "constant": true
    },
    {
      "inputs": [
        {
          "internalType": "uint256",
          "name": "tokenId",
          "type": "uint256"
        }
      ],
      "name": "isFunddingSuccess",
      "outputs": [],
      "stateMutability": "nonpayable",
      "type": "function"
    },
    {
      "inputs": [
        {
          "internalType": "address",
          "name": "saleCA",
          "type": "address"
        }
      ],
      "name": "saleApprovalTrue",
      "outputs": [],
      "stateMutability": "nonpayable",
      "type": "function"
    },
    {
      "inputs": [
        {
          "internalType": "address",
          "name": "saleCA",
          "type": "address"
        }
      ],
      "name": "saleApprovalFalse",
      "outputs": [],
      "stateMutability": "nonpayable",
      "type": "function"
    },
    {
      "inputs": [
        {
          "internalType": "address",
          "name": "account",
          "type": "address"
        },
        {
          "internalType": "uint256",
          "name": "tokenId",
          "type": "uint256"
        },
        {
          "internalType": "uint256",
          "name": "amount",
          "type": "uint256"
        }
      ],
      "name": "faildBurn",
      "outputs": [],
      "stateMutability": "nonpayable",
      "type": "function"
    },
    {
      "inputs": [
        {
          "internalType": "address",
          "name": "account",
          "type": "address"
        }
      ],
      "name": "isChangedCA",
      "outputs": [],
      "stateMutability": "nonpayable",
      "type": "function"
    }
  ],
  "bytecode": "0x60806040523480156200001157600080fd5b506040518060200160405280600081525062000033816200005a60201b60201c565b5062000054620000486200006f60201b60201c565b6200007760201b60201c565b6200049e565b80600290816200006b9190620003b7565b5050565b600033905090565b6000600360009054906101000a900473ffffffffffffffffffffffffffffffffffffffff16905081600360006101000a81548173ffffffffffffffffffffffffffffffffffffffff021916908373ffffffffffffffffffffffffffffffffffffffff1602179055508173ffffffffffffffffffffffffffffffffffffffff168173ffffffffffffffffffffffffffffffffffffffff167f8be0079c531659141344cd1fd0a4f28419497f9722a3daafe3b4186f6b6457e060405160405180910390a35050565b600081519050919050565b7f4e487b7100000000000000000000000000000000000000000000000000000000600052604160045260246000fd5b7f4e487b7100000000000000000000000000000000000000000000000000000000600052602260045260246000fd5b60006002820490506001821680620001bf57607f821691505b602082108103620001d557620001d462000177565b5b50919050565b60008190508160005260206000209050919050565b60006020601f8301049050919050565b600082821b905092915050565b6000600883026200023f7fffffffffffffffffffffffffffffffffffffffffffffffffffffffffffffffff8262000200565b6200024b868362000200565b95508019841693508086168417925050509392505050565b6000819050919050565b6000819050919050565b600062000298620002926200028c8462000263565b6200026d565b62000263565b9050919050565b6000819050919050565b620002b48362000277565b620002cc620002c3826200029f565b8484546200020d565b825550505050565b600090565b620002e3620002d4565b620002f0818484620002a9565b505050565b5b8181101562000318576200030c600082620002d9565b600181019050620002f6565b5050565b601f82111562000367576200033181620001db565b6200033c84620001f0565b810160208510156200034c578190505b620003646200035b85620001f0565b830182620002f5565b50505b505050565b600082821c905092915050565b60006200038c600019846008026200036c565b1980831691505092915050565b6000620003a7838362000379565b9150826002028217905092915050565b620003c2826200013d565b67ffffffffffffffff811115620003de57620003dd62000148565b5b620003ea8254620001a6565b620003f78282856200031c565b600060209050601f8311600181146200042f57600084156200041a578287015190505b62000426858262000399565b86555062000496565b601f1984166200043f86620001db565b60005b82811015620004695784890151825560018201915060208501945060208101905062000442565b8683101562000489578489015162000485601f89168262000379565b8355505b6001600288020188555050505b505050505050565b61408e80620004ae6000396000f3fe608060405234801561001057600080fd5b50600436106101725760003560e01c806384527a69116100de578063c31f4b5811610097578063f2fde38b11610071578063f2fde38b14610457578063f7a6dc7214610473578063f8a14f461461048f578063fac333ac146104c457610172565b8063c31f4b58146103ef578063e985e9c51461040b578063f242432a1461043b57610172565b806384527a691461031d5780638497f29a1461034d5780638d63193d146103695780638da5cb5b14610399578063a22cb465146103b7578063ad216fb6146103d357610172565b80634b77f8d0116101305780634b77f8d0146102715780634e1273f41461028d5780636f0ea038146102bd578063715018a6146102d957806377379082146102e35780637abfee42146102ff57610172565b8062fdd58e1461017757806301ffc9a7146101a75780630e89341c146101d75780632eb2c2d6146102075780633017a1d814610223578063325d20c414610253575b600080fd5b610191600480360381019061018c91906125ce565b6104f4565b60405161019e919061261d565b60405180910390f35b6101c160048036038101906101bc9190612690565b610508565b6040516101ce91906126d8565b60405180910390f35b6101f160048036038101906101ec91906126f3565b6105ea565b6040516101fe91906127b0565b60405180910390f35b610221600480360381019061021c91906129cf565b61067e565b005b61023d60048036038101906102389190612a9e565b61071f565b60405161024a91906126d8565b60405180910390f35b61025b61074e565b6040516102689190612b3d565b60405180910390f35b61028b60048036038101906102869190612b58565b610774565b005b6102a760048036038101906102a29190612c48565b610782565b6040516102b49190612d7e565b60405180910390f35b6102d760048036038101906102d29190612da0565b61089b565b005b6102e1610aec565b005b6102fd60048036038101906102f89190612e2d565b610b74565b005b610307610bde565b6040516103149190612d7e565b60405180910390f35b610337600480360381019061033291906126f3565b610c36565b604051610344919061261d565b60405180910390f35b61036760048036038101906103629190612b58565b610c4e565b005b610383600480360381019061037e91906126f3565b610c5c565b6040516103909190612f19565b60405180910390f35b6103a1610d22565b6040516103ae9190612f43565b60405180910390f35b6103d160048036038101906103cc9190612f8a565b610d4c565b005b6103ed60048036038101906103e89190612b58565b610d62565b005b610409600480360381019061040491906126f3565b610e55565b005b61042560048036038101906104209190612fca565b610fc6565b60405161043291906126d8565b60405180910390f35b6104556004803603810190610450919061300a565b61105a565b005b610471600480360381019061046c9190612b58565b6110fb565b005b61048d600480360381019061048891906130a1565b6111f2565b005b6104a960048036038101906104a491906126f3565b6111f6565b6040516104bb969594939291906130e1565b60405180910390f35b6104de60048036038101906104d991906126f3565b61125f565b6040516104eb919061261d565b60405180910390f35b60006105008383611283565b905092915050565b60007fd9b67a26000000000000000000000000000000000000000000000000000000007bffffffffffffffffffffffffffffffffffffffffffffffffffffffff1916827bffffffffffffffffffffffffffffffffffffffffffffffffffffffff191614806105d357507f0e89341c000000000000000000000000000000000000000000000000000000007bffffffffffffffffffffffffffffffffffffffffffffffffffffffff1916827bffffffffffffffffffffffffffffffffffffffffffffffffffffffff1916145b806105e357506105e28261134b565b5b9050919050565b6060600280546105f990613171565b80601f016020809104026020016040519081016040528092919081815260200182805461062590613171565b80156106725780601f1061064757610100808354040283529160200191610672565b820191906000526020600020905b81548152906001019060200180831161065557829003601f168201915b50505050509050919050565b6106866113b5565b73ffffffffffffffffffffffffffffffffffffffff168573ffffffffffffffffffffffffffffffffffffffff1614806106cc57506106cb856106c66113b5565b610fc6565b5b61070b576040517f08c379a000000000000000000000000000000000000000000000000000000000815260040161070290613214565b60405180910390fd5b61071885858585856113bd565b5050505050565b60086020528160005260406000206020528060005260406000206000915091509054906101000a900460ff1681565b600660009054906101000a900473ffffffffffffffffffffffffffffffffffffffff1681565b61077f816000610d4c565b50565b606081518351146107c8576040517f08c379a00000000000000000000000000000000000000000000000000000000081526004016107bf906132a6565b60405180910390fd5b6000835167ffffffffffffffff8111156107e5576107e46127d7565b5b6040519080825280602002602001820160405280156108135781602001602082028036833780820191505090505b50905060005b845181101561089057610860858281518110610838576108376132c6565b5b6020026020010151858381518110610853576108526132c6565b5b60200260200101516104f4565b828281518110610873576108726132c6565b5b6020026020010181815250508061088990613324565b9050610819565b508091505092915050565b60006007600086815260200190815260200160002060010154146108f4576040517f08c379a00000000000000000000000000000000000000000000000000000000081526004016108eb906133b8565b60405180910390fd5b3373ffffffffffffffffffffffffffffffffffffffff168673ffffffffffffffffffffffffffffffffffffffff1614610962576040517f08c379a000000000000000000000000000000000000000000000000000000000815260040161095990613424565b60405180910390fd5b60006040518060400160405280601381526020017f66756e6464696e67206973207365636365737300000000000000000000000000815250905060006109aa888686866116de565b9050806007600088815260200190815260200160002060008201518160000160006101000a81548173ffffffffffffffffffffffffffffffffffffffff021916908373ffffffffffffffffffffffffffffffffffffffff1602179055506020820151816001015560408201518160020155606082015181600301556080820151816004015560a08201518160050160006101000a81548160ff021916908315150217905550905050610a6d888787604051806020016040528060008152506117ba565b610a78876001610d4c565b60048690806001815401808255809150506001900390600052602060002001600090919091909150557f8bdc0347739a882305e00b5fa613e8629b5da77a48abac45661315c45619c548338787878787604051610ada96959493929190613444565b60405180910390a15050505050505050565b610af46113b5565b73ffffffffffffffffffffffffffffffffffffffff16610b12610d22565b73ffffffffffffffffffffffffffffffffffffffff1614610b68576040517f08c379a0000000000000000000000000000000000000000000000000000000008152600401610b5f906134f8565b60405180910390fd5b610b72600061196a565b565b600560009054906101000a900473ffffffffffffffffffffffffffffffffffffffff1673ffffffffffffffffffffffffffffffffffffffff163373ffffffffffffffffffffffffffffffffffffffff1614610bce57600080fd5b610bd9838383611a30565b505050565b60606004805480602002602001604051908101604052809291908181526020018280548015610c2c57602002820191906000526020600020905b815481526020019060010190808311610c18575b5050505050905090565b60096020528060005260406000206000915090505481565b610c59816001610d4c565b50565b610c646124d8565b600760008381526020019081526020016000206040518060c00160405290816000820160009054906101000a900473ffffffffffffffffffffffffffffffffffffffff1673ffffffffffffffffffffffffffffffffffffffff1673ffffffffffffffffffffffffffffffffffffffff168152602001600182015481526020016002820154815260200160038201548152602001600482015481526020016005820160009054906101000a900460ff1615151515815250509050919050565b6000600360009054906101000a900473ffffffffffffffffffffffffffffffffffffffff16905090565b610d5e610d576113b5565b8383611c76565b5050565b3373ffffffffffffffffffffffffffffffffffffffff168173ffffffffffffffffffffffffffffffffffffffff1614610dd0576040517f08c379a0000000000000000000000000000000000000000000000000000000008152600401610dc790613564565b60405180910390fd5b80600560006101000a81548173ffffffffffffffffffffffffffffffffffffffff021916908373ffffffffffffffffffffffffffffffffffffffff16021790555080600660006101000a81548173ffffffffffffffffffffffffffffffffffffffff021916908373ffffffffffffffffffffffffffffffffffffffff16021790555050565b6000610e976007600084815260200190815260200160002060000160009054906101000a900473ffffffffffffffffffffffffffffffffffffffff1683611283565b14610ed7576040517f08c379a0000000000000000000000000000000000000000000000000000000008152600401610ece906135d0565b60405180910390fd5b6007600082815260200190815260200160002060010154600660009054906101000a900473ffffffffffffffffffffffffffffffffffffffff1673ffffffffffffffffffffffffffffffffffffffff166349e5465c836040518263ffffffff1660e01b8152600401610f49919061261d565b602060405180830381865afa158015610f66573d6000803e3d6000fd5b505050506040513d601f19601f82011682018060405250810190610f8a9190613605565b14610f9457600080fd5b60016007600083815260200190815260200160002060050160006101000a81548160ff02191690831515021790555050565b6000600160008473ffffffffffffffffffffffffffffffffffffffff1673ffffffffffffffffffffffffffffffffffffffff16815260200190815260200160002060008373ffffffffffffffffffffffffffffffffffffffff1673ffffffffffffffffffffffffffffffffffffffff16815260200190815260200160002060009054906101000a900460ff16905092915050565b6110626113b5565b73ffffffffffffffffffffffffffffffffffffffff168573ffffffffffffffffffffffffffffffffffffffff1614806110a857506110a7856110a26113b5565b610fc6565b5b6110e7576040517f08c379a00000000000000000000000000000000000000000000000000000000081526004016110de906136a4565b60405180910390fd5b6110f48585858585611de2565b5050505050565b6111036113b5565b73ffffffffffffffffffffffffffffffffffffffff16611121610d22565b73ffffffffffffffffffffffffffffffffffffffff1614611177576040517f08c379a000000000000000000000000000000000000000000000000000000000815260040161116e906134f8565b60405180910390fd5b600073ffffffffffffffffffffffffffffffffffffffff168173ffffffffffffffffffffffffffffffffffffffff16036111e6576040517f08c379a00000000000000000000000000000000000000000000000000000000081526004016111dd90613736565b60405180910390fd5b6111ef8161196a565b50565b5050565b60076020528060005260406000206000915090508060000160009054906101000a900473ffffffffffffffffffffffffffffffffffffffff16908060010154908060020154908060030154908060040154908060050160009054906101000a900460ff16905086565b6004818154811061126f57600080fd5b906000526020600020016000915090505481565b60008073ffffffffffffffffffffffffffffffffffffffff168373ffffffffffffffffffffffffffffffffffffffff16036112f3576040517f08c379a00000000000000000000000000000000000000000000000000000000081526004016112ea906137c8565b60405180910390fd5b60008083815260200190815260200160002060008473ffffffffffffffffffffffffffffffffffffffff1673ffffffffffffffffffffffffffffffffffffffff16815260200190815260200160002054905092915050565b60007f01ffc9a7000000000000000000000000000000000000000000000000000000007bffffffffffffffffffffffffffffffffffffffffffffffffffffffff1916827bffffffffffffffffffffffffffffffffffffffffffffffffffffffff1916149050919050565b600033905090565b8151835114611401576040517f08c379a00000000000000000000000000000000000000000000000000000000081526004016113f89061385a565b60405180910390fd5b600073ffffffffffffffffffffffffffffffffffffffff168473ffffffffffffffffffffffffffffffffffffffff1603611470576040517f08c379a0000000000000000000000000000000000000000000000000000000008152600401611467906138ec565b60405180910390fd5b600061147a6113b5565b905061148a81878787878761207d565b60005b845181101561163b5760008582815181106114ab576114aa6132c6565b5b6020026020010151905060008583815181106114ca576114c96132c6565b5b60200260200101519050600080600084815260200190815260200160002060008b73ffffffffffffffffffffffffffffffffffffffff1673ffffffffffffffffffffffffffffffffffffffff1681526020019081526020016000205490508181101561156b576040517f08c379a00000000000000000000000000000000000000000000000000000000081526004016115629061397e565b60405180910390fd5b81810360008085815260200190815260200160002060008c73ffffffffffffffffffffffffffffffffffffffff1673ffffffffffffffffffffffffffffffffffffffff168152602001908152602001600020819055508160008085815260200190815260200160002060008b73ffffffffffffffffffffffffffffffffffffffff1673ffffffffffffffffffffffffffffffffffffffff1681526020019081526020016000206000828254611620919061399e565b925050819055505050508061163490613324565b905061148d565b508473ffffffffffffffffffffffffffffffffffffffff168673ffffffffffffffffffffffffffffffffffffffff168273ffffffffffffffffffffffffffffffffffffffff167f4a39dc06d4c0dbc64b70af90fd698a233a518aa5d07e595d983b8c0526c8f7fb87876040516116b29291906139d2565b60405180910390a46116c8818787878787612085565b6116d681878787878761208d565b505050505050565b6116e66124d8565b6116ee6124d8565b600085670de0b6b3a7640000866117059190613a09565b61170f9190613a7a565b905086826000019073ffffffffffffffffffffffffffffffffffffffff16908173ffffffffffffffffffffffffffffffffffffffff168152505085826020018181525050670de0b6b3a7640000856117679190613a09565b82604001818152505080826060018181525050836121c06117889190613a09565b42611793919061399e565b82608001818152505060008260a00190151590811515815250508192505050949350505050565b600073ffffffffffffffffffffffffffffffffffffffff168473ffffffffffffffffffffffffffffffffffffffff1603611829576040517f08c379a000000000000000000000000000000000000000000000000000000000815260040161182090613b1d565b60405180910390fd5b60006118336113b5565b9050600061184085612264565b9050600061184d85612264565b905061185e8360008985858961207d565b8460008088815260200190815260200160002060008973ffffffffffffffffffffffffffffffffffffffff1673ffffffffffffffffffffffffffffffffffffffff16815260200190815260200160002060008282546118bd919061399e565b925050819055508673ffffffffffffffffffffffffffffffffffffffff16600073ffffffffffffffffffffffffffffffffffffffff168473ffffffffffffffffffffffffffffffffffffffff167fc3d58168c5ae7397731d063d5bbf3d657854427343f4c083240f7aacaa2d0f62898960405161193b929190613b3d565b60405180910390a461195283600089858589612085565b611961836000898989896122de565b50505050505050565b6000600360009054906101000a900473ffffffffffffffffffffffffffffffffffffffff16905081600360006101000a81548173ffffffffffffffffffffffffffffffffffffffff021916908373ffffffffffffffffffffffffffffffffffffffff1602179055508173ffffffffffffffffffffffffffffffffffffffff168173ffffffffffffffffffffffffffffffffffffffff167f8be0079c531659141344cd1fd0a4f28419497f9722a3daafe3b4186f6b6457e060405160405180910390a35050565b600073ffffffffffffffffffffffffffffffffffffffff168373ffffffffffffffffffffffffffffffffffffffff1603611a9f576040517f08c379a0000000000000000000000000000000000000000000000000000000008152600401611a9690613bd8565b60405180910390fd5b6000611aa96113b5565b90506000611ab684612264565b90506000611ac384612264565b9050611ae38387600085856040518060200160405280600081525061207d565b600080600087815260200190815260200160002060008873ffffffffffffffffffffffffffffffffffffffff1673ffffffffffffffffffffffffffffffffffffffff16815260200190815260200160002054905084811015611b7a576040517f08c379a0000000000000000000000000000000000000000000000000000000008152600401611b7190613c6a565b60405180910390fd5b84810360008088815260200190815260200160002060008973ffffffffffffffffffffffffffffffffffffffff1673ffffffffffffffffffffffffffffffffffffffff16815260200190815260200160002081905550600073ffffffffffffffffffffffffffffffffffffffff168773ffffffffffffffffffffffffffffffffffffffff168573ffffffffffffffffffffffffffffffffffffffff167fc3d58168c5ae7397731d063d5bbf3d657854427343f4c083240f7aacaa2d0f628989604051611c47929190613b3d565b60405180910390a4611c6d84886000868660405180602001604052806000815250612085565b50505050505050565b8173ffffffffffffffffffffffffffffffffffffffff168373ffffffffffffffffffffffffffffffffffffffff1603611ce4576040517f08c379a0000000000000000000000000000000000000000000000000000000008152600401611cdb90613cfc565b60405180910390fd5b80600160008573ffffffffffffffffffffffffffffffffffffffff1673ffffffffffffffffffffffffffffffffffffffff16815260200190815260200160002060008473ffffffffffffffffffffffffffffffffffffffff1673ffffffffffffffffffffffffffffffffffffffff16815260200190815260200160002060006101000a81548160ff0219169083151502179055508173ffffffffffffffffffffffffffffffffffffffff168373ffffffffffffffffffffffffffffffffffffffff167f17307eab39ab6107e8899845ad3d59bd9653f200f220920489ca2b5937696c3183604051611dd591906126d8565b60405180910390a3505050565b600073ffffffffffffffffffffffffffffffffffffffff168473ffffffffffffffffffffffffffffffffffffffff1603611e51576040517f08c379a0000000000000000000000000000000000000000000000000000000008152600401611e48906138ec565b60405180910390fd5b6000611e5b6113b5565b90506000611e6885612264565b90506000611e7585612264565b9050611e8583898985858961207d565b600080600088815260200190815260200160002060008a73ffffffffffffffffffffffffffffffffffffffff1673ffffffffffffffffffffffffffffffffffffffff16815260200190815260200160002054905085811015611f1c576040517f08c379a0000000000000000000000000000000000000000000000000000000008152600401611f139061397e565b60405180910390fd5b85810360008089815260200190815260200160002060008b73ffffffffffffffffffffffffffffffffffffffff1673ffffffffffffffffffffffffffffffffffffffff168152602001908152602001600020819055508560008089815260200190815260200160002060008a73ffffffffffffffffffffffffffffffffffffffff1673ffffffffffffffffffffffffffffffffffffffff1681526020019081526020016000206000828254611fd1919061399e565b925050819055508773ffffffffffffffffffffffffffffffffffffffff168973ffffffffffffffffffffffffffffffffffffffff168573ffffffffffffffffffffffffffffffffffffffff167fc3d58168c5ae7397731d063d5bbf3d657854427343f4c083240f7aacaa2d0f628a8a60405161204e929190613b3d565b60405180910390a4612064848a8a86868a612085565b612072848a8a8a8a8a6122de565b505050505050505050565b505050505050565b505050505050565b6120ac8473ffffffffffffffffffffffffffffffffffffffff166124b5565b1561225c578373ffffffffffffffffffffffffffffffffffffffff1663bc197c8187878686866040518663ffffffff1660e01b81526004016120f2959493929190613d71565b6020604051808303816000875af192505050801561212e57506040513d601f19601f8201168201806040525081019061212b9190613dee565b60015b6121d35761213a613e28565b806308c379a003612196575061214e613e4a565b806121595750612198565b806040517f08c379a000000000000000000000000000000000000000000000000000000000815260040161218d91906127b0565b60405180910390fd5b505b6040517f08c379a00000000000000000000000000000000000000000000000000000000081526004016121ca90613f4c565b60405180910390fd5b63bc197c8160e01b7bffffffffffffffffffffffffffffffffffffffffffffffffffffffff1916817bffffffffffffffffffffffffffffffffffffffffffffffffffffffff19161461225a576040517f08c379a000000000000000000000000000000000000000000000000000000000815260040161225190613fde565b60405180910390fd5b505b505050505050565b60606000600167ffffffffffffffff811115612283576122826127d7565b5b6040519080825280602002602001820160405280156122b15781602001602082028036833780820191505090505b50905082816000815181106122c9576122c86132c6565b5b60200260200101818152505080915050919050565b6122fd8473ffffffffffffffffffffffffffffffffffffffff166124b5565b156124ad578373ffffffffffffffffffffffffffffffffffffffff1663f23a6e6187878686866040518663ffffffff1660e01b8152600401612343959493929190613ffe565b6020604051808303816000875af192505050801561237f57506040513d601f19601f8201168201806040525081019061237c9190613dee565b60015b6124245761238b613e28565b806308c379a0036123e7575061239f613e4a565b806123aa57506123e9565b806040517f08c379a00000000000000000000000000000000000000000000000000000000081526004016123de91906127b0565b60405180910390fd5b505b6040517f08c379a000000000000000000000000000000000000000000000000000000000815260040161241b90613f4c565b60405180910390fd5b63f23a6e6160e01b7bffffffffffffffffffffffffffffffffffffffffffffffffffffffff1916817bffffffffffffffffffffffffffffffffffffffffffffffffffffffff1916146124ab576040517f08c379a00000000000000000000000000000000000000000000000000000000081526004016124a290613fde565b60405180910390fd5b505b505050505050565b6000808273ffffffffffffffffffffffffffffffffffffffff163b119050919050565b6040518060c00160405280600073ffffffffffffffffffffffffffffffffffffffff168152602001600081526020016000815260200160008152602001600081526020016000151581525090565b6000604051905090565b600080fd5b600080fd5b600073ffffffffffffffffffffffffffffffffffffffff82169050919050565b60006125658261253a565b9050919050565b6125758161255a565b811461258057600080fd5b50565b6000813590506125928161256c565b92915050565b6000819050919050565b6125ab81612598565b81146125b657600080fd5b50565b6000813590506125c8816125a2565b92915050565b600080604083850312156125e5576125e4612530565b5b60006125f385828601612583565b9250506020612604858286016125b9565b9150509250929050565b61261781612598565b82525050565b6000602082019050612632600083018461260e565b92915050565b60007fffffffff0000000000000000000000000000000000000000000000000000000082169050919050565b61266d81612638565b811461267857600080fd5b50565b60008135905061268a81612664565b92915050565b6000602082840312156126a6576126a5612530565b5b60006126b48482850161267b565b91505092915050565b60008115159050919050565b6126d2816126bd565b82525050565b60006020820190506126ed60008301846126c9565b92915050565b60006020828403121561270957612708612530565b5b6000612717848285016125b9565b91505092915050565b600081519050919050565b600082825260208201905092915050565b60005b8381101561275a57808201518184015260208101905061273f565b60008484015250505050565b6000601f19601f8301169050919050565b600061278282612720565b61278c818561272b565b935061279c81856020860161273c565b6127a581612766565b840191505092915050565b600060208201905081810360008301526127ca8184612777565b905092915050565b600080fd5b7f4e487b7100000000000000000000000000000000000000000000000000000000600052604160045260246000fd5b61280f82612766565b810181811067ffffffffffffffff8211171561282e5761282d6127d7565b5b80604052505050565b6000612841612526565b905061284d8282612806565b919050565b600067ffffffffffffffff82111561286d5761286c6127d7565b5b602082029050602081019050919050565b600080fd5b600061289661289184612852565b612837565b905080838252602082019050602084028301858111156128b9576128b861287e565b5b835b818110156128e257806128ce88826125b9565b8452602084019350506020810190506128bb565b5050509392505050565b600082601f830112612901576129006127d2565b5b8135612911848260208601612883565b91505092915050565b600080fd5b600067ffffffffffffffff82111561293a576129396127d7565b5b61294382612766565b9050602081019050919050565b82818337600083830152505050565b600061297261296d8461291f565b612837565b90508281526020810184848401111561298e5761298d61291a565b5b612999848285612950565b509392505050565b600082601f8301126129b6576129b56127d2565b5b81356129c684826020860161295f565b91505092915050565b600080600080600060a086880312156129eb576129ea612530565b5b60006129f988828901612583565b9550506020612a0a88828901612583565b945050604086013567ffffffffffffffff811115612a2b57612a2a612535565b5b612a37888289016128ec565b935050606086013567ffffffffffffffff811115612a5857612a57612535565b5b612a64888289016128ec565b925050608086013567ffffffffffffffff811115612a8557612a84612535565b5b612a91888289016129a1565b9150509295509295909350565b60008060408385031215612ab557612ab4612530565b5b6000612ac3858286016125b9565b9250506020612ad485828601612583565b9150509250929050565b6000819050919050565b6000612b03612afe612af98461253a565b612ade565b61253a565b9050919050565b6000612b1582612ae8565b9050919050565b6000612b2782612b0a565b9050919050565b612b3781612b1c565b82525050565b6000602082019050612b526000830184612b2e565b92915050565b600060208284031215612b6e57612b6d612530565b5b6000612b7c84828501612583565b91505092915050565b600067ffffffffffffffff821115612ba057612b9f6127d7565b5b602082029050602081019050919050565b6000612bc4612bbf84612b85565b612837565b90508083825260208201905060208402830185811115612be757612be661287e565b5b835b81811015612c105780612bfc8882612583565b845260208401935050602081019050612be9565b5050509392505050565b600082601f830112612c2f57612c2e6127d2565b5b8135612c3f848260208601612bb1565b91505092915050565b60008060408385031215612c5f57612c5e612530565b5b600083013567ffffffffffffffff811115612c7d57612c7c612535565b5b612c8985828601612c1a565b925050602083013567ffffffffffffffff811115612caa57612ca9612535565b5b612cb6858286016128ec565b9150509250929050565b600081519050919050565b600082825260208201905092915050565b6000819050602082019050919050565b612cf581612598565b82525050565b6000612d078383612cec565b60208301905092915050565b6000602082019050919050565b6000612d2b82612cc0565b612d358185612ccb565b9350612d4083612cdc565b8060005b83811015612d71578151612d588882612cfb565b9750612d6383612d13565b925050600181019050612d44565b5085935050505092915050565b60006020820190508181036000830152612d988184612d20565b905092915050565b60008060008060008060c08789031215612dbd57612dbc612530565b5b6000612dcb89828a01612583565b9650506020612ddc89828a01612583565b9550506040612ded89828a016125b9565b9450506060612dfe89828a016125b9565b9350506080612e0f89828a016125b9565b92505060a0612e2089828a016125b9565b9150509295509295509295565b600080600060608486031215612e4657612e45612530565b5b6000612e5486828701612583565b9350506020612e65868287016125b9565b9250506040612e76868287016125b9565b9150509250925092565b612e898161255a565b82525050565b612e98816126bd565b82525050565b60c082016000820151612eb46000850182612e80565b506020820151612ec76020850182612cec565b506040820151612eda6040850182612cec565b506060820151612eed6060850182612cec565b506080820151612f006080850182612cec565b5060a0820151612f1360a0850182612e8f565b50505050565b600060c082019050612f2e6000830184612e9e565b92915050565b612f3d8161255a565b82525050565b6000602082019050612f586000830184612f34565b92915050565b612f67816126bd565b8114612f7257600080fd5b50565b600081359050612f8481612f5e565b92915050565b60008060408385031215612fa157612fa0612530565b5b6000612faf85828601612583565b9250506020612fc085828601612f75565b9150509250929050565b60008060408385031215612fe157612fe0612530565b5b6000612fef85828601612583565b925050602061300085828601612583565b9150509250929050565b600080600080600060a0868803121561302657613025612530565b5b600061303488828901612583565b955050602061304588828901612583565b9450506040613056888289016125b9565b9350506060613067888289016125b9565b925050608086013567ffffffffffffffff81111561308857613087612535565b5b613094888289016129a1565b9150509295509295909350565b600080604083850312156130b8576130b7612530565b5b60006130c6858286016125b9565b92505060206130d785828601612f75565b9150509250929050565b600060c0820190506130f66000830189612f34565b613103602083018861260e565b613110604083018761260e565b61311d606083018661260e565b61312a608083018561260e565b61313760a08301846126c9565b979650505050505050565b7f4e487b7100000000000000000000000000000000000000000000000000000000600052602260045260246000fd5b6000600282049050600182168061318957607f821691505b60208210810361319c5761319b613142565b5b50919050565b7f455243313135353a207472616e736665722063616c6c6572206973206e6f742060008201527f6f776e6572206e6f7220617070726f7665640000000000000000000000000000602082015250565b60006131fe60328361272b565b9150613209826131a2565b604082019050919050565b6000602082019050818103600083015261322d816131f1565b9050919050565b7f455243313135353a206163636f756e747320616e6420696473206c656e67746860008201527f206d69736d617463680000000000000000000000000000000000000000000000602082015250565b600061329060298361272b565b915061329b82613234565b604082019050919050565b600060208201905081810360008301526132bf81613283565b9050919050565b7f4e487b7100000000000000000000000000000000000000000000000000000000600052603260045260246000fd5b7f4e487b7100000000000000000000000000000000000000000000000000000000600052601160045260246000fd5b600061332f82612598565b91507fffffffffffffffffffffffffffffffffffffffffffffffffffffffffffffffff8203613361576133606132f5565b5b600182019050919050565b7f6861766520616c7265616479206265656e206973737565640000000000000000600082015250565b60006133a260188361272b565b91506133ad8261336c565b602082019050919050565b600060208201905081810360008301526133d181613395565b9050919050565b7f49742773206e6f7420796f752e00000000000000000000000000000000000000600082015250565b600061340e600d8361272b565b9150613419826133d8565b602082019050919050565b6000602082019050818103600083015261343d81613401565b9050919050565b600060c0820190506134596000830189612f34565b613466602083018861260e565b613473604083018761260e565b613480606083018661260e565b61348d608083018561260e565b81810360a083015261349f8184612777565b9050979650505050505050565b7f4f776e61626c653a2063616c6c6572206973206e6f7420746865206f776e6572600082015250565b60006134e260208361272b565b91506134ed826134ac565b602082019050919050565b60006020820190508181036000830152613511816134d5565b9050919050565b7f3f3f3f3f00000000000000000000000000000000000000000000000000000000600082015250565b600061354e60048361272b565b915061355982613518565b602082019050919050565b6000602082019050818103600083015261357d81613541565b9050919050565b7f497320697420736f6c64206f75743f0000000000000000000000000000000000600082015250565b60006135ba600f8361272b565b91506135c582613584565b602082019050919050565b600060208201905081810360008301526135e9816135ad565b9050919050565b6000815190506135ff816125a2565b92915050565b60006020828403121561361b5761361a612530565b5b6000613629848285016135f0565b91505092915050565b7f455243313135353a2063616c6c6572206973206e6f74206f776e6572206e6f7260008201527f20617070726f7665640000000000000000000000000000000000000000000000602082015250565b600061368e60298361272b565b915061369982613632565b604082019050919050565b600060208201905081810360008301526136bd81613681565b9050919050565b7f4f776e61626c653a206e6577206f776e657220697320746865207a65726f206160008201527f6464726573730000000000000000000000000000000000000000000000000000602082015250565b600061372060268361272b565b915061372b826136c4565b604082019050919050565b6000602082019050818103600083015261374f81613713565b9050919050565b7f455243313135353a2062616c616e636520717565727920666f7220746865207a60008201527f65726f2061646472657373000000000000000000000000000000000000000000602082015250565b60006137b2602b8361272b565b91506137bd82613756565b604082019050919050565b600060208201905081810360008301526137e1816137a5565b9050919050565b7f455243313135353a2069647320616e6420616d6f756e7473206c656e6774682060008201527f6d69736d61746368000000000000000000000000000000000000000000000000602082015250565b600061384460288361272b565b915061384f826137e8565b604082019050919050565b6000602082019050818103600083015261387381613837565b9050919050565b7f455243313135353a207472616e7366657220746f20746865207a65726f20616460008201527f6472657373000000000000000000000000000000000000000000000000000000602082015250565b60006138d660258361272b565b91506138e18261387a565b604082019050919050565b60006020820190508181036000830152613905816138c9565b9050919050565b7f455243313135353a20696e73756666696369656e742062616c616e636520666f60008201527f72207472616e7366657200000000000000000000000000000000000000000000602082015250565b6000613968602a8361272b565b91506139738261390c565b604082019050919050565b600060208201905081810360008301526139978161395b565b9050919050565b60006139a982612598565b91506139b483612598565b92508282019050808211156139cc576139cb6132f5565b5b92915050565b600060408201905081810360008301526139ec8185612d20565b90508181036020830152613a008184612d20565b90509392505050565b6000613a1482612598565b9150613a1f83612598565b9250828202613a2d81612598565b91508282048414831517613a4457613a436132f5565b5b5092915050565b7f4e487b7100000000000000000000000000000000000000000000000000000000600052601260045260246000fd5b6000613a8582612598565b9150613a9083612598565b925082613aa057613a9f613a4b565b5b828204905092915050565b7f455243313135353a206d696e7420746f20746865207a65726f2061646472657360008201527f7300000000000000000000000000000000000000000000000000000000000000602082015250565b6000613b0760218361272b565b9150613b1282613aab565b604082019050919050565b60006020820190508181036000830152613b3681613afa565b9050919050565b6000604082019050613b52600083018561260e565b613b5f602083018461260e565b9392505050565b7f455243313135353a206275726e2066726f6d20746865207a65726f206164647260008201527f6573730000000000000000000000000000000000000000000000000000000000602082015250565b6000613bc260238361272b565b9150613bcd82613b66565b604082019050919050565b60006020820190508181036000830152613bf181613bb5565b9050919050565b7f455243313135353a206275726e20616d6f756e7420657863656564732062616c60008201527f616e636500000000000000000000000000000000000000000000000000000000602082015250565b6000613c5460248361272b565b9150613c5f82613bf8565b604082019050919050565b60006020820190508181036000830152613c8381613c47565b9050919050565b7f455243313135353a2073657474696e6720617070726f76616c2073746174757360008201527f20666f722073656c660000000000000000000000000000000000000000000000602082015250565b6000613ce660298361272b565b9150613cf182613c8a565b604082019050919050565b60006020820190508181036000830152613d1581613cd9565b9050919050565b600081519050919050565b600082825260208201905092915050565b6000613d4382613d1c565b613d4d8185613d27565b9350613d5d81856020860161273c565b613d6681612766565b840191505092915050565b600060a082019050613d866000830188612f34565b613d936020830187612f34565b8181036040830152613da58186612d20565b90508181036060830152613db98185612d20565b90508181036080830152613dcd8184613d38565b90509695505050505050565b600081519050613de881612664565b92915050565b600060208284031215613e0457613e03612530565b5b6000613e1284828501613dd9565b91505092915050565b60008160e01c9050919050565b600060033d1115613e475760046000803e613e44600051613e1b565b90505b90565b600060443d10613ed757613e5c612526565b60043d036004823e80513d602482011167ffffffffffffffff82111715613e84575050613ed7565b808201805167ffffffffffffffff811115613ea25750505050613ed7565b80602083010160043d038501811115613ebf575050505050613ed7565b613ece82602001850186612806565b82955050505050505b90565b7f455243313135353a207472616e7366657220746f206e6f6e204552433131353560008201527f526563656976657220696d706c656d656e746572000000000000000000000000602082015250565b6000613f3660348361272b565b9150613f4182613eda565b604082019050919050565b60006020820190508181036000830152613f6581613f29565b9050919050565b7f455243313135353a204552433131353552656365697665722072656a6563746560008201527f6420746f6b656e73000000000000000000000000000000000000000000000000602082015250565b6000613fc860288361272b565b9150613fd382613f6c565b604082019050919050565b60006020820190508181036000830152613ff781613fbb565b9050919050565b600060a0820190506140136000830188612f34565b6140206020830187612f34565b61402d604083018661260e565b61403a606083018561260e565b818103608083015261404c8184613d38565b9050969550505050505056fea264697066735822122070f343e2db4d336b02e96bb8bf83fa948e624e7676cd0fa22b4d85dcf4688f0b64736f6c63430008110033",
  "immutableReferences": {},
  "source": "// SPDX-License-Identifier: MIT\r\npragma solidity ^0.8.17;\r\n\r\n// import \"../node_modules/openzeppelin-solidity/contracts/token/ERC1155/extensions/ERC1155Burnable.sol\";\r\nimport \"../node_modules/openzeppelin-solidity/contracts/token/ERC1155/ERC1155.sol\";\r\nimport \"../node_modules/openzeppelin-solidity/contracts/access/Ownable.sol\";\r\n// import \"@openzeppelin/contracts/token/ERC1155/extensions/ERC1155Burnable.sol\";\r\n// import \"@openzeppelin/contracts/token/ERC1155/ERC1155.sol\";\r\n// import \"@openzeppelin/contracts/access/Ownable.sol\";\r\n\r\nimport \"./FunddingToken.sol\";\r\n\r\n//     owner    EOA  .\r\n\r\ncontract DtsToken is ERC1155, Ownable{\r\n\r\n    constructor() ERC1155(\"\"){\r\n    \r\n    }\r\n\r\n    // // json metadata URI;\r\n    // string public metadataURI;\r\n\r\n    //      \r\n    struct tokenOwnerData{\r\n        //  \r\n        address Creater;\r\n        // nft \r\n        uint256 NftAmount;\r\n        //   ;\r\n        uint256 TotalPrice;\r\n        // nft  \r\n        uint256 UnitPrice;\r\n        //  \r\n        uint256 EndTime;\r\n        //   \r\n        bool isSuccess;\r\n    }\r\n\r\n    struct votindata{\r\n        //  \r\n        address account;\r\n        // \r\n        uint256 votinAmount;\r\n        //  \r\n        // bool chan\r\n    }\r\n\r\n    //    nft  \r\n    // ids[]    .       balance. \r\n    uint256[] public ids;\r\n\r\n    // FunddingTokenCA  \r\n    address private _funddingCA;\r\n\r\n    FunddingToken public Ftoken;\r\n\r\n    //     ,  , , NFT ,      \r\n    mapping(uint256 => tokenOwnerData) public tokenOwners;\r\n\r\n    //   \r\n    mapping(uint => mapping(address => bool)) public voting;\r\n\r\n    //   \r\n    mapping (uint => uint) public votingTime;\r\n\r\n    //    \r\n    event seccessFundding(address account, uint256 tokenId, uint256 amount, uint256 totalPrice, uint256 getTime, string result);\r\n\r\n    //  nft \r\n    function balanceOf(address account, uint256 tokenId) public view override returns (uint) {\r\n        return ERC1155.balanceOf(account, tokenId);\r\n    }\r\n\r\n    //    nft tokenId    \r\n    function idsView() public view returns(uint256[] memory){\r\n        return ids;\r\n    }\r\n    \r\n    //   NFT    \r\n    // msg.sender       CA         .\r\n    function mintFundding(address account, address funddingTokenCA, uint256 tokenId, uint256 amount, uint256 totalPrice, uint256 getTime) public{\r\n        // nft    \r\n        require(tokenOwners[tokenId].NftAmount == 0, \"have already been issued\");\r\n        //     .\r\n        require(account == msg.sender, \"It's not you.\");\r\n        //    \r\n        string memory result = \"fundding is seccess\";\r\n        \r\n        //     .\r\n        tokenOwnerData memory data = _getFunddingData(account,amount,totalPrice,getTime);\r\n        //     Id .\r\n        tokenOwners[tokenId] = data;\r\n        // nft \r\n        ERC1155._mint(account, tokenId, amount, \"\");\r\n        //   NFT  CA .\r\n        ERC1155.setApprovalForAll(funddingTokenCA, true);\r\n        ids.push(tokenId);\r\n        // mintFundding  \r\n        emit seccessFundding(msg.sender, tokenId, amount, totalPrice, getTime, result);\r\n    }\r\n\r\n    //      \r\n    function _getFunddingData(address _account, uint256 _amount, uint256 _totalPrice, uint256 _getTime) private view returns(tokenOwnerData memory){\r\n        tokenOwnerData memory data;\r\n        uint256 _unitPrice = (_totalPrice * (10 ** 18)) /  _amount;\r\n        data.Creater = _account;\r\n        data.NftAmount = _amount;\r\n        data.TotalPrice = _totalPrice *(10 ** 18);\r\n        data.UnitPrice = _unitPrice;\r\n        data.EndTime = block.timestamp + (8640 * _getTime);\r\n        data.isSuccess = false;\r\n        \r\n        return data;\r\n    }\r\n\r\n    //    \r\n    function getvoting(uint256 tokenId, bool ) public {\r\n\r\n    }\r\n    \r\n    //     \r\n    function getTokenOwnerData(uint256 tokenId) public view returns(tokenOwnerData memory){\r\n        return tokenOwners[tokenId];\r\n    }\r\n\r\n    //        true;\r\n    function isFunddingSuccess(uint256 tokenId) external{\r\n        require(ERC1155.balanceOf(tokenOwners[tokenId].Creater, tokenId) == 0, \"Is it sold out?\");\r\n        require(Ftoken.priceCheck(tokenId) == tokenOwners[tokenId].NftAmount);\r\n        tokenOwners[tokenId].isSuccess = true;\r\n    }\r\n\r\n    //      saleToken   .\r\n    function saleApprovalTrue(address saleCA) public{\r\n        ERC1155.setApprovalForAll(saleCA, true);\r\n    }\r\n    // saleToken    \r\n    function saleApprovalFalse(address saleCA) public{\r\n        ERC1155.setApprovalForAll(saleCA, false);\r\n    }\r\n\r\n    //   .(FunddingOwnerOnly    SaleCA    . )\r\n    function faildBurn(address account, uint256 tokenId, uint256 amount) external FunddingOwnerOnly{\r\n        ERC1155._burn(account, tokenId, amount);\r\n    }\r\n\r\n    //    FunddingTokenCA  . (FunddingOwnerOnly     .)\r\n    function isChangedCA(address account) external {\r\n        require(account == msg.sender,\"????\");\r\n        _funddingCA = account;\r\n        //   FunddingToken CA  Ftoken  .\r\n        Ftoken = FunddingToken(account); \r\n    }\r\n\r\n    //   SaleCA   \r\n    modifier FunddingOwnerOnly() {\r\n        require(msg.sender == _funddingCA);\r\n        _;\r\n    }\r\n\r\n    // // URI      .\r\n    // function setURI(string memory newuri) public onlyOwner {\r\n    //     _setURI(newuri);\r\n    // }\r\n}",
  "sourcePath": "C:\\Users\\an\\Desktop\\DTS\\erc1155\\contracts\\DtsToken.sol",
  "compiler": {
    "name": "solc",
    "version": "0.8.17+commit.8df45f5f.Emscripten.clang"
  },
  "schemaVersion": "3.4.11",
  "updatedAt": "2023-02-06T02:00:49.430Z",
  "networkType": "ethereum",
  "devdoc": {
    "kind": "dev",
    "methods": {
      "balanceOfBatch(address[],uint256[])": {
        "details": "See {IERC1155-balanceOfBatch}. Requirements: - `accounts` and `ids` must have the same length."
      },
      "isApprovedForAll(address,address)": {
        "details": "See {IERC1155-isApprovedForAll}."
      },
      "owner()": {
        "details": "Returns the address of the current owner."
      },
      "renounceOwnership()": {
        "details": "Leaves the contract without owner. It will not be possible to call `onlyOwner` functions anymore. Can only be called by the current owner. NOTE: Renouncing ownership will leave the contract without an owner, thereby removing any functionality that is only available to the owner."
      },
      "safeBatchTransferFrom(address,address,uint256[],uint256[],bytes)": {
        "details": "See {IERC1155-safeBatchTransferFrom}."
      },
      "safeTransferFrom(address,address,uint256,uint256,bytes)": {
        "details": "See {IERC1155-safeTransferFrom}."
      },
      "setApprovalForAll(address,bool)": {
        "details": "See {IERC1155-setApprovalForAll}."
      },
      "supportsInterface(bytes4)": {
        "details": "See {IERC165-supportsInterface}."
      },
      "transferOwnership(address)": {
        "details": "Transfers ownership of the contract to a new account (`newOwner`). Can only be called by the current owner."
      },
      "uri(uint256)": {
        "details": "See {IERC1155MetadataURI-uri}. This implementation returns the same URI for *all* token types. It relies on the token type ID substitution mechanism https://eips.ethereum.org/EIPS/eip-1155#metadata[defined in the EIP]. Clients calling this function must replace the `\\{id\\}` substring with the actual token type ID."
      }
    },
    "version": 1
  },
  "userdoc": {
    "kind": "user",
    "methods": {},
    "version": 1
  }
}