{
  "contractName": "FunddingToken",
  "abi": [
    {
      "inputs": [
        {
          "internalType": "address",
          "name": "DtsTokenCA",
          "type": "address"
        }
      ],
      "stateMutability": "nonpayable",
      "type": "constructor"
    },
    {
      "anonymous": false,
      "inputs": [
        {
          "indexed": true,
          "internalType": "address",
          "name": "previousOwner",
          "type": "address"
        },
        {
          "indexed": true,
          "internalType": "address",
          "name": "newOwner",
          "type": "address"
        }
      ],
      "name": "OwnershipTransferred",
      "type": "event"
    },
    {
      "anonymous": false,
      "inputs": [
        {
          "indexed": false,
          "internalType": "address",
          "name": "account",
          "type": "address"
        },
        {
          "indexed": false,
          "internalType": "uint256",
          "name": "tokenId",
          "type": "uint256"
        },
        {
          "indexed": false,
          "internalType": "uint256",
          "name": "price",
          "type": "uint256"
        }
      ],
      "name": "isSuccessFunddingEvent",
      "type": "event"
    },
    {
      "anonymous": false,
      "inputs": [
        {
          "indexed": false,
          "internalType": "address",
          "name": "account",
          "type": "address"
        },
        {
          "indexed": false,
          "internalType": "uint256",
          "name": "tokenId",
          "type": "uint256"
        },
        {
          "indexed": false,
          "internalType": "uint256",
          "name": "price",
          "type": "uint256"
        }
      ],
      "name": "isfalsedFunddingEvnet",
      "type": "event"
    },
    {
      "anonymous": false,
      "inputs": [
        {
          "indexed": false,
          "internalType": "address",
          "name": "account",
          "type": "address"
        },
        {
          "indexed": false,
          "internalType": "uint256",
          "name": "price",
          "type": "uint256"
        }
      ],
      "name": "subscriptionBuyEvent",
      "type": "event"
    },
    {
      "anonymous": false,
      "inputs": [
        {
          "indexed": false,
          "internalType": "address",
          "name": "account",
          "type": "address"
        },
        {
          "indexed": false,
          "internalType": "uint256",
          "name": "tokenId",
          "type": "uint256"
        },
        {
          "indexed": false,
          "internalType": "uint256",
          "name": "amount",
          "type": "uint256"
        },
        {
          "indexed": false,
          "internalType": "uint256",
          "name": "price",
          "type": "uint256"
        }
      ],
      "name": "userFunddingEvent",
      "type": "event"
    },
    {
      "inputs": [],
      "name": "Dtoken",
      "outputs": [
        {
          "internalType": "contract DtsToken",
          "name": "",
          "type": "address"
        }
      ],
      "stateMutability": "view",
      "type": "function",
      "constant": true
    },
    {
      "inputs": [],
      "name": "owner",
      "outputs": [
        {
          "internalType": "address",
          "name": "",
          "type": "address"
        }
      ],
      "stateMutability": "view",
      "type": "function",
      "constant": true
    },
    {
      "inputs": [],
      "name": "renounceOwnership",
      "outputs": [],
      "stateMutability": "nonpayable",
      "type": "function"
    },
    {
      "inputs": [
        {
          "internalType": "address",
          "name": "",
          "type": "address"
        }
      ],
      "name": "timeOwner",
      "outputs": [
        {
          "internalType": "uint256",
          "name": "",
          "type": "uint256"
        }
      ],
      "stateMutability": "view",
      "type": "function",
      "constant": true
    },
    {
      "inputs": [
        {
          "internalType": "uint256",
          "name": "",
          "type": "uint256"
        }
      ],
      "name": "totalAmout",
      "outputs": [
        {
          "internalType": "uint256",
          "name": "",
          "type": "uint256"
        }
      ],
      "stateMutability": "view",
      "type": "function",
      "constant": true
    },
    {
      "inputs": [
        {
          "internalType": "address",
          "name": "newOwner",
          "type": "address"
        }
      ],
      "name": "transferOwnership",
      "outputs": [],
      "stateMutability": "nonpayable",
      "type": "function"
    },
    {
      "inputs": [],
      "name": "subscriptionBuy",
      "outputs": [],
      "stateMutability": "payable",
      "type": "function",
      "payable": true
    },
    {
      "inputs": [],
      "name": "streamingView",
      "outputs": [
        {
          "internalType": "uint256",
          "name": "",
          "type": "uint256"
        }
      ],
      "stateMutability": "view",
      "type": "function",
      "constant": true
    },
    {
      "inputs": [
        {
          "internalType": "uint256",
          "name": "tokenId",
          "type": "uint256"
        },
        {
          "internalType": "uint256",
          "name": "amount",
          "type": "uint256"
        }
      ],
      "name": "userFundding",
      "outputs": [],
      "stateMutability": "payable",
      "type": "function",
      "payable": true
    },
    {
      "inputs": [
        {
          "internalType": "uint256",
          "name": "tokenId",
          "type": "uint256"
        }
      ],
      "name": "isSuccessFundding",
      "outputs": [],
      "stateMutability": "payable",
      "type": "function",
      "payable": true
    },
    {
      "inputs": [
        {
          "internalType": "address",
          "name": "account",
          "type": "address"
        },
        {
          "internalType": "uint256",
          "name": "tokenId",
          "type": "uint256"
        }
      ],
      "name": "isfalsedFundding",
      "outputs": [],
      "stateMutability": "payable",
      "type": "function",
      "payable": true
    },
    {
      "inputs": [
        {
          "internalType": "uint256",
          "name": "tokenId",
          "type": "uint256"
        }
      ],
      "name": "priceCheck",
      "outputs": [
        {
          "internalType": "uint256",
          "name": "",
          "type": "uint256"
        }
      ],
      "stateMutability": "view",
      "type": "function",
      "constant": true
    }
  ],
  "bytecode": "0x6080604052600a6002553480156200001657600080fd5b5060405162002c8838038062002c8883398181016040528101906200003c91906200026b565b6200005c620000506200013560201b60201c565b6200013d60201b60201c565b80600160006101000a81548173ffffffffffffffffffffffffffffffffffffffff021916908373ffffffffffffffffffffffffffffffffffffffff160217905550600160009054906101000a900473ffffffffffffffffffffffffffffffffffffffff1673ffffffffffffffffffffffffffffffffffffffff1663e29be1a1306040518263ffffffff1660e01b8152600401620000fa9190620002ae565b600060405180830381600087803b1580156200011557600080fd5b505af11580156200012a573d6000803e3d6000fd5b5050505050620002cb565b600033905090565b60008060009054906101000a900473ffffffffffffffffffffffffffffffffffffffff169050816000806101000a81548173ffffffffffffffffffffffffffffffffffffffff021916908373ffffffffffffffffffffffffffffffffffffffff1602179055508173ffffffffffffffffffffffffffffffffffffffff168173ffffffffffffffffffffffffffffffffffffffff167f8be0079c531659141344cd1fd0a4f28419497f9722a3daafe3b4186f6b6457e060405160405180910390a35050565b600080fd5b600073ffffffffffffffffffffffffffffffffffffffff82169050919050565b6000620002338262000206565b9050919050565b620002458162000226565b81146200025157600080fd5b50565b60008151905062000265816200023a565b92915050565b60006020828403121562000284576200028362000201565b5b6000620002948482850162000254565b91505092915050565b620002a88162000226565b82525050565b6000602082019050620002c560008301846200029d565b92915050565b6129ad80620002db6000396000f3fe6080604052600436106100a75760003560e01c80638e13b063116100645780638e13b0631461016d5780639ddca16a14610189578063af75c382146101c6578063cc8a416b14610203578063eaf85b5c1461022e578063f2fde38b14610259576100a7565b806329c51d2b146100ac57806349e5465c146100c857806350b9c7371461010557806364bbd1f114610121578063715018a61461012b5780638da5cb5b14610142575b600080fd5b6100c660048036038101906100c19190611c10565b610282565b005b3480156100d457600080fd5b506100ef60048036038101906100ea9190611c10565b610736565b6040516100fc9190611c4c565b60405180910390f35b61011f600480360381019061011a9190611c67565b610753565b005b610129610f89565b005b34801561013757600080fd5b506101406111ad565b005b34801561014e57600080fd5b50610157611235565b6040516101649190611ce8565b60405180910390f35b61018760048036038101906101829190611d2f565b61125e565b005b34801561019557600080fd5b506101b060048036038101906101ab9190611c10565b611929565b6040516101bd9190611c4c565b60405180910390f35b3480156101d257600080fd5b506101ed60048036038101906101e89190611d6f565b611941565b6040516101fa9190611c4c565b60405180910390f35b34801561020f57600080fd5b50610218611959565b6040516102259190611dfb565b60405180910390f35b34801561023a57600080fd5b5061024361197f565b6040516102509190611c4c565b60405180910390f35b34801561026557600080fd5b50610280600480360381019061027b9190611d6f565b6119c6565b005b600160009054906101000a900473ffffffffffffffffffffffffffffffffffffffff1673ffffffffffffffffffffffffffffffffffffffff16638d63193d826040518263ffffffff1660e01b81526004016102dd9190611c4c565b60c060405180830381865afa1580156102fa573d6000803e3d6000fd5b505050506040513d601f19601f8201168201806040525081019061031e9190611fa9565b6000015173ffffffffffffffffffffffffffffffffffffffff163373ffffffffffffffffffffffffffffffffffffffff161461038f576040517f08c379a000000000000000000000000000000000000000000000000000000000815260040161038690612033565b60405180910390fd5b6003600082815260200190815260200160002054600160009054906101000a900473ffffffffffffffffffffffffffffffffffffffff1673ffffffffffffffffffffffffffffffffffffffff16638d63193d836040518263ffffffff1660e01b81526004016103fe9190611c4c565b60c060405180830381865afa15801561041b573d6000803e3d6000fd5b505050506040513d601f19601f8201168201806040525081019061043f9190611fa9565b6060015161044d9190612082565b600160009054906101000a900473ffffffffffffffffffffffffffffffffffffffff1673ffffffffffffffffffffffffffffffffffffffff16638d63193d836040518263ffffffff1660e01b81526004016104a89190611c4c565b60c060405180830381865afa1580156104c5573d6000803e3d6000fd5b505050506040513d601f19601f820116820180604052508101906104e99190611fa9565b604001511461052d576040517f08c379a000000000000000000000000000000000000000000000000000000000815260040161052490612110565b60405180910390fd5b60006105ed6105e6600254600160009054906101000a900473ffffffffffffffffffffffffffffffffffffffff1673ffffffffffffffffffffffffffffffffffffffff16638d63193d866040518263ffffffff1660e01b81526004016105939190611c4c565b60c060405180830381865afa1580156105b0573d6000803e3d6000fd5b505050506040513d601f19601f820116820180604052508101906105d49190611fa9565b60400151611abd90919063ffffffff16565b6064611ad3565b905060006106ad6106a683600160009054906101000a900473ffffffffffffffffffffffffffffffffffffffff1673ffffffffffffffffffffffffffffffffffffffff16638d63193d876040518263ffffffff1660e01b81526004016106539190611c4c565b60c060405180830381865afa158015610670573d6000803e3d6000fd5b505050506040513d601f19601f820116820180604052508101906106949190611fa9565b60400151611ae990919063ffffffff16565b6002611ad3565b90503373ffffffffffffffffffffffffffffffffffffffff166108fc829081150290604051600060405180830381858888f193505050501580156106f5573d6000803e3d6000fd5b507f7fffb0a8155fcfdc6d8e1d3be816bb80ed703df69e0c247d54d9fa85eb9c52e233848360405161072993929190612130565b60405180910390a1505050565b600060036000838152602001908152602001600020549050919050565b6000600160009054906101000a900473ffffffffffffffffffffffffffffffffffffffff1673ffffffffffffffffffffffffffffffffffffffff16638d63193d846040518263ffffffff1660e01b81526004016107b09190611c4c565b60c060405180830381865afa1580156107cd573d6000803e3d6000fd5b505050506040513d601f19601f820116820180604052508101906107f19190611fa9565b600001519050600082600160009054906101000a900473ffffffffffffffffffffffffffffffffffffffff1673ffffffffffffffffffffffffffffffffffffffff16638d63193d866040518263ffffffff1660e01b81526004016108559190611c4c565b60c060405180830381865afa158015610872573d6000803e3d6000fd5b505050506040513d601f19601f820116820180604052508101906108969190611fa9565b606001516108a49190612082565b905042600160009054906101000a900473ffffffffffffffffffffffffffffffffffffffff1673ffffffffffffffffffffffffffffffffffffffff16638d63193d866040518263ffffffff1660e01b81526004016109029190611c4c565b60c060405180830381865afa15801561091f573d6000803e3d6000fd5b505050506040513d601f19601f820116820180604052508101906109439190611fa9565b6080015111610987576040517f08c379a000000000000000000000000000000000000000000000000000000000815260040161097e906121b3565b60405180910390fd5b8173ffffffffffffffffffffffffffffffffffffffff163373ffffffffffffffffffffffffffffffffffffffff16036109f5576040517f08c379a00000000000000000000000000000000000000000000000000000000081526004016109ec9061221f565b60405180910390fd5b60003403610a38576040517f08c379a0000000000000000000000000000000000000000000000000000000008152600401610a2f9061228b565b60405180910390fd5b803414610a7a576040517f08c379a0000000000000000000000000000000000000000000000000000000008152600401610a71906122f7565b60405180910390fd5b82600160009054906101000a900473ffffffffffffffffffffffffffffffffffffffff1673ffffffffffffffffffffffffffffffffffffffff1662fdd58e84876040518363ffffffff1660e01b8152600401610ad7929190612317565b602060405180830381865afa158015610af4573d6000803e3d6000fd5b505050506040513d601f19601f82011682018060405250810190610b189190612340565b1015610b59576040517f08c379a0000000000000000000000000000000000000000000000000000000008152600401610b50906123b9565b60405180910390fd5b826003600086815260200190815260200160002054600160009054906101000a900473ffffffffffffffffffffffffffffffffffffffff1673ffffffffffffffffffffffffffffffffffffffff16638d63193d876040518263ffffffff1660e01b8152600401610bc99190611c4c565b60c060405180830381865afa158015610be6573d6000803e3d6000fd5b505050506040513d601f19601f82011682018060405250810190610c0a9190611fa9565b60200151610c1891906123d9565b1015610c59576040517f08c379a0000000000000000000000000000000000000000000000000000000008152600401610c509061247f565b60405180910390fd5b600160009054906101000a900473ffffffffffffffffffffffffffffffffffffffff1673ffffffffffffffffffffffffffffffffffffffff1663e985e9c583306040518363ffffffff1660e01b8152600401610cb692919061249f565b602060405180830381865afa158015610cd3573d6000803e3d6000fd5b505050506040513d601f19601f82011682018060405250810190610cf791906124c8565b610d36576040517f08c379a0000000000000000000000000000000000000000000000000000000008152600401610d2d90612541565b60405180910390fd5b826003600086815260200190815260200160002054610d559190612561565b6003600086815260200190815260200160002081905550600160009054906101000a900473ffffffffffffffffffffffffffffffffffffffff1673ffffffffffffffffffffffffffffffffffffffff1663f242432a833387876040518563ffffffff1660e01b8152600401610dcd94939291906125cc565b600060405180830381600087803b158015610de757600080fd5b505af1158015610dfb573d6000803e3d6000fd5b505050507fc27ec451630f6e9734830d857edaa8a7ec58f1a497a5d7f15fad6d0c2828d12e33858584604051610e349493929190612624565b60405180910390a1600160009054906101000a900473ffffffffffffffffffffffffffffffffffffffff1673ffffffffffffffffffffffffffffffffffffffff16638d63193d856040518263ffffffff1660e01b8152600401610e979190611c4c565b60c060405180830381865afa158015610eb4573d6000803e3d6000fd5b505050506040513d601f19601f82011682018060405250810190610ed89190611fa9565b60200151600360008681526020019081526020016000205403610f8357600160009054906101000a900473ffffffffffffffffffffffffffffffffffffffff1673ffffffffffffffffffffffffffffffffffffffff1663c31f4b58856040518263ffffffff1660e01b8152600401610f509190611c4c565b600060405180830381600087803b158015610f6a57600080fd5b505af1158015610f7e573d6000803e3d6000fd5b505050505b50505050565b42600460003373ffffffffffffffffffffffffffffffffffffffff1673ffffffffffffffffffffffffffffffffffffffff168152602001908152602001600020541061100a576040517f08c379a0000000000000000000000000000000000000000000000000000000008152600401611001906126b5565b60405180910390fd5b6706f05b59d3b200003414806110275750670de0b6b3a764000034145b806110395750671bc16d674ec8000034145b61104257600080fd5b6706f05b59d3b2000034036110a85762278d00426110609190612561565b600460003373ffffffffffffffffffffffffffffffffffffffff1673ffffffffffffffffffffffffffffffffffffffff16815260200190815260200160002081905550611172565b670de0b6b3a7640000340361110e576276a700426110c69190612561565b600460003373ffffffffffffffffffffffffffffffffffffffff1673ffffffffffffffffffffffffffffffffffffffff16815260200190815260200160002081905550611171565b671bc16d674ec8000034036111705762ed4e004261112c9190612561565b600460003373ffffffffffffffffffffffffffffffffffffffff1673ffffffffffffffffffffffffffffffffffffffff168152602001908152602001600020819055505b5b5b7f1dda25a2ed0441a546199a85560617835bb47cae2094881f568e27468604e0e133346040516111a3929190612317565b60405180910390a1565b6111b5611aff565b73ffffffffffffffffffffffffffffffffffffffff166111d3611235565b73ffffffffffffffffffffffffffffffffffffffff1614611229576040517f08c379a000000000000000000000000000000000000000000000000000000000815260040161122090612721565b60405180910390fd5b6112336000611b07565b565b60008060009054906101000a900473ffffffffffffffffffffffffffffffffffffffff16905090565b8173ffffffffffffffffffffffffffffffffffffffff163373ffffffffffffffffffffffffffffffffffffffff16146112cc576040517f08c379a00000000000000000000000000000000000000000000000000000000081526004016112c390612033565b60405180910390fd5b6000600160009054906101000a900473ffffffffffffffffffffffffffffffffffffffff1673ffffffffffffffffffffffffffffffffffffffff1662fdd58e33846040518363ffffffff1660e01b815260040161132a929190612317565b602060405180830381865afa158015611347573d6000803e3d6000fd5b505050506040513d601f19601f8201168201806040525081019061136b9190612340565b116113ab576040517f08c379a00000000000000000000000000000000000000000000000000000000081526004016113a29061278d565b60405180910390fd5b42600160009054906101000a900473ffffffffffffffffffffffffffffffffffffffff1673ffffffffffffffffffffffffffffffffffffffff16638d63193d836040518263ffffffff1660e01b81526004016114079190611c4c565b60c060405180830381865afa158015611424573d6000803e3d6000fd5b505050506040513d601f19601f820116820180604052508101906114489190611fa9565b608001511061148c576040517f08c379a0000000000000000000000000000000000000000000000000000000008152600401611483906127f9565b60405180910390fd5b6003600082815260200190815260200160002054600160009054906101000a900473ffffffffffffffffffffffffffffffffffffffff1673ffffffffffffffffffffffffffffffffffffffff16638d63193d836040518263ffffffff1660e01b81526004016114fb9190611c4c565b60c060405180830381865afa158015611518573d6000803e3d6000fd5b505050506040513d601f19601f8201168201806040525081019061153c9190611fa9565b6060015161154a9190612082565b600160009054906101000a900473ffffffffffffffffffffffffffffffffffffffff1673ffffffffffffffffffffffffffffffffffffffff16638d63193d836040518263ffffffff1660e01b81526004016115a59190611c4c565b60c060405180830381865afa1580156115c2573d6000803e3d6000fd5b505050506040513d601f19601f820116820180604052508101906115e69190611fa9565b604001511161162a576040517f08c379a000000000000000000000000000000000000000000000000000000000815260040161162190612865565b60405180910390fd5b6000600160009054906101000a900473ffffffffffffffffffffffffffffffffffffffff1673ffffffffffffffffffffffffffffffffffffffff16638d63193d836040518263ffffffff1660e01b81526004016116879190611c4c565b60c060405180830381865afa1580156116a4573d6000803e3d6000fd5b505050506040513d601f19601f820116820180604052508101906116c89190611fa9565b60600151600160009054906101000a900473ffffffffffffffffffffffffffffffffffffffff1673ffffffffffffffffffffffffffffffffffffffff1662fdd58e33856040518363ffffffff1660e01b8152600401611728929190612317565b602060405180830381865afa158015611745573d6000803e3d6000fd5b505050506040513d601f19601f820116820180604052508101906117699190612340565b6117739190612082565b90503373ffffffffffffffffffffffffffffffffffffffff166108fc829081150290604051600060405180830381858888f193505050501580156117bb573d6000803e3d6000fd5b50600160009054906101000a900473ffffffffffffffffffffffffffffffffffffffff1673ffffffffffffffffffffffffffffffffffffffff1663773790823384600160009054906101000a900473ffffffffffffffffffffffffffffffffffffffff1673ffffffffffffffffffffffffffffffffffffffff1662fdd58e33886040518363ffffffff1660e01b8152600401611858929190612317565b602060405180830381865afa158015611875573d6000803e3d6000fd5b505050506040513d601f19601f820116820180604052508101906118999190612340565b6040518463ffffffff1660e01b81526004016118b793929190612130565b600060405180830381600087803b1580156118d157600080fd5b505af11580156118e5573d6000803e3d6000fd5b505050507f951805d264d8848d533c4ccc957476a4271d9adb9c446cc7fb3d5f9808fab1c833838360405161191c93929190612130565b60405180910390a1505050565b60036020528060005260406000206000915090505481565b60046020528060005260406000206000915090505481565b600160009054906101000a900473ffffffffffffffffffffffffffffffffffffffff1681565b6000600460003373ffffffffffffffffffffffffffffffffffffffff1673ffffffffffffffffffffffffffffffffffffffff16815260200190815260200160002054905090565b6119ce611aff565b73ffffffffffffffffffffffffffffffffffffffff166119ec611235565b73ffffffffffffffffffffffffffffffffffffffff1614611a42576040517f08c379a0000000000000000000000000000000000000000000000000000000008152600401611a3990612721565b60405180910390fd5b600073ffffffffffffffffffffffffffffffffffffffff168173ffffffffffffffffffffffffffffffffffffffff1603611ab1576040517f08c379a0000000000000000000000000000000000000000000000000000000008152600401611aa8906128f7565b60405180910390fd5b611aba81611b07565b50565b60008183611acb9190612082565b905092915050565b60008183611ae19190612946565b905092915050565b60008183611af791906123d9565b905092915050565b600033905090565b60008060009054906101000a900473ffffffffffffffffffffffffffffffffffffffff169050816000806101000a81548173ffffffffffffffffffffffffffffffffffffffff021916908373ffffffffffffffffffffffffffffffffffffffff1602179055508173ffffffffffffffffffffffffffffffffffffffff168173ffffffffffffffffffffffffffffffffffffffff167f8be0079c531659141344cd1fd0a4f28419497f9722a3daafe3b4186f6b6457e060405160405180910390a35050565b6000604051905090565b600080fd5b6000819050919050565b611bed81611bda565b8114611bf857600080fd5b50565b600081359050611c0a81611be4565b92915050565b600060208284031215611c2657611c25611bd5565b5b6000611c3484828501611bfb565b91505092915050565b611c4681611bda565b82525050565b6000602082019050611c616000830184611c3d565b92915050565b60008060408385031215611c7e57611c7d611bd5565b5b6000611c8c85828601611bfb565b9250506020611c9d85828601611bfb565b9150509250929050565b600073ffffffffffffffffffffffffffffffffffffffff82169050919050565b6000611cd282611ca7565b9050919050565b611ce281611cc7565b82525050565b6000602082019050611cfd6000830184611cd9565b92915050565b611d0c81611cc7565b8114611d1757600080fd5b50565b600081359050611d2981611d03565b92915050565b60008060408385031215611d4657611d45611bd5565b5b6000611d5485828601611d1a565b9250506020611d6585828601611bfb565b9150509250929050565b600060208284031215611d8557611d84611bd5565b5b6000611d9384828501611d1a565b91505092915050565b6000819050919050565b6000611dc1611dbc611db784611ca7565b611d9c565b611ca7565b9050919050565b6000611dd382611da6565b9050919050565b6000611de582611dc8565b9050919050565b611df581611dda565b82525050565b6000602082019050611e106000830184611dec565b92915050565b600080fd5b6000601f19601f8301169050919050565b7f4e487b7100000000000000000000000000000000000000000000000000000000600052604160045260246000fd5b611e6482611e1b565b810181811067ffffffffffffffff82111715611e8357611e82611e2c565b5b80604052505050565b6000611e96611bcb565b9050611ea28282611e5b565b919050565b600081519050611eb681611d03565b92915050565b600081519050611ecb81611be4565b92915050565b60008115159050919050565b611ee681611ed1565b8114611ef157600080fd5b50565b600081519050611f0381611edd565b92915050565b600060c08284031215611f1f57611f1e611e16565b5b611f2960c0611e8c565b90506000611f3984828501611ea7565b6000830152506020611f4d84828501611ebc565b6020830152506040611f6184828501611ebc565b6040830152506060611f7584828501611ebc565b6060830152506080611f8984828501611ebc565b60808301525060a0611f9d84828501611ef4565b60a08301525092915050565b600060c08284031215611fbf57611fbe611bd5565b5b6000611fcd84828501611f09565b91505092915050565b600082825260208201905092915050565b7f4973207468617420796f75722077616c6c65743f000000000000000000000000600082015250565b600061201d601483611fd6565b915061202882611fe7565b602082019050919050565b6000602082019050818103600083015261204c81612010565b9050919050565b7f4e487b7100000000000000000000000000000000000000000000000000000000600052601160045260246000fd5b600061208d82611bda565b915061209883611bda565b92508282026120a681611bda565b915082820484148315176120bd576120bc612053565b5b5092915050565b7f46756e64696e672073656363657373203f000000000000000000000000000000600082015250565b60006120fa601183611fd6565b9150612105826120c4565b602082019050919050565b60006020820190508181036000830152612129816120ed565b9050919050565b60006060820190506121456000830186611cd9565b6121526020830185611c3d565b61215f6040830184611c3d565b949350505050565b7f54696d65204f7665720000000000000000000000000000000000000000000000600082015250565b600061219d600983611fd6565b91506121a882612167565b602082019050919050565b600060208201905081810360008301526121cc81612190565b9050919050565b7f637265617465722063616e277420627579000000000000000000000000000000600082015250565b6000612209601183611fd6565b9150612214826121d3565b602082019050919050565b60006020820190508181036000830152612238816121fc565b9050919050565b7f68617665206e6f206d6f6e65792073656e740000000000000000000000000000600082015250565b6000612275601283611fd6565b91506122808261223f565b602082019050919050565b600060208201905081810360008301526122a481612268565b9050919050565b7f54686520707269636520646f65736e2774206d617463682e0000000000000000600082015250565b60006122e1601883611fd6565b91506122ec826122ab565b602082019050919050565b60006020820190508181036000830152612310816122d4565b9050919050565b600060408201905061232c6000830185611cd9565b6123396020830184611c3d565b9392505050565b60006020828403121561235657612355611bd5565b5b600061236484828501611ebc565b91505092915050565b7f63616e277420627579207468696e67732e000000000000000000000000000000600082015250565b60006123a3601183611fd6565b91506123ae8261236d565b602082019050919050565b600060208201905081810360008301526123d281612396565b9050919050565b60006123e482611bda565b91506123ef83611bda565b925082820390508181111561240757612406612053565b5b92915050565b7f6265206f7574206f662073746f636b20616e6420756e61626c6520746f20627560008201527f7920676f6f647300000000000000000000000000000000000000000000000000602082015250565b6000612469602783611fd6565b91506124748261240d565b604082019050919050565b600060208201905081810360008301526124988161245c565b9050919050565b60006040820190506124b46000830185611cd9565b6124c16020830184611cd9565b9392505050565b6000602082840312156124de576124dd611bd5565b5b60006124ec84828501611ef4565b91505092915050565b7f6265206e6f7420617070726f7665640000000000000000000000000000000000600082015250565b600061252b600f83611fd6565b9150612536826124f5565b602082019050919050565b6000602082019050818103600083015261255a8161251e565b9050919050565b600061256c82611bda565b915061257783611bda565b925082820190508082111561258f5761258e612053565b5b92915050565b600082825260208201905092915050565b50565b60006125b6600083612595565b91506125c1826125a6565b600082019050919050565b600060a0820190506125e16000830187611cd9565b6125ee6020830186611cd9565b6125fb6040830185611c3d565b6126086060830184611c3d565b8181036080830152612619816125a9565b905095945050505050565b60006080820190506126396000830187611cd9565b6126466020830186611c3d565b6126536040830185611c3d565b6126606060830184611c3d565b95945050505050565b7f546865726520697320616c7265616479206120737562736372697074696f6e2e600082015250565b600061269f602083611fd6565b91506126aa82612669565b602082019050919050565b600060208201905081810360008301526126ce81612692565b9050919050565b7f4f776e61626c653a2063616c6c6572206973206e6f7420746865206f776e6572600082015250565b600061270b602083611fd6565b9150612716826126d5565b602082019050919050565b6000602082019050818103600083015261273a816126fe565b9050919050565b7f49732069742061206275796572203f0000000000000000000000000000000000600082015250565b6000612777600f83611fd6565b915061278282612741565b602082019050919050565b600060208201905081810360008301526127a68161276a565b9050919050565b7f54696d65204f766572203f000000000000000000000000000000000000000000600082015250565b60006127e3600b83611fd6565b91506127ee826127ad565b602082019050919050565b60006020820190508181036000830152612812816127d6565b9050919050565b7f46756e64696e67206661696c6564203f00000000000000000000000000000000600082015250565b600061284f601083611fd6565b915061285a82612819565b602082019050919050565b6000602082019050818103600083015261287e81612842565b9050919050565b7f4f776e61626c653a206e6577206f776e657220697320746865207a65726f206160008201527f6464726573730000000000000000000000000000000000000000000000000000602082015250565b60006128e1602683611fd6565b91506128ec82612885565b604082019050919050565b60006020820190508181036000830152612910816128d4565b9050919050565b7f4e487b7100000000000000000000000000000000000000000000000000000000600052601260045260246000fd5b600061295182611bda565b915061295c83611bda565b92508261296c5761296b612917565b5b82820490509291505056fea2646970667358221220f8a20036a60b00b21f63bbdec9a998a08237fe03022e9078605e4327a58bc1a264736f6c63430008110033",
  "immutableReferences": {},
  "source": "// SPDX-License-Identifier: MIT\r\npragma solidity ^0.8.17;\r\n\r\nimport \"../node_modules/openzeppelin-solidity/contracts/access/Ownable.sol\";\r\nimport \"../node_modules/openzeppelin-solidity/contracts/utils/math/SafeMath.sol\";\r\n// import \"@openzeppelin/contracts/access/Ownable.sol\";\r\n// import \"@openzeppelin/contracts/utils/math/SafeMath.sol\";\r\n\r\nimport \"./DtsToken.sol\";\r\n\r\ncontract FunddingToken is Ownable{\r\n\r\n    using SafeMath for uint256;\r\n    \r\n    // DtsToken.sol    \r\n    DtsToken public Dtoken;\r\n\r\n    constructor(address DtsTokenCA){\r\n        //   DtsToken CA  Dtoken  .\r\n        Dtoken = DtsToken(DtsTokenCA);\r\n        //     Dtoken FunddingTokenCA .\r\n        //            CA .\r\n        Dtoken.isFunddingCA(address(this));\r\n    }\r\n\r\n    //     \r\n    uint256 private _Fee = 10;\r\n    //           .\r\n    uint256 private constant _decimalPoint = 100;\r\n\r\n    //        \r\n    mapping(uint256 => uint256) public totalAmout;\r\n\r\n    //   \r\n    mapping (address => uint256) public timeOwner;\r\n\r\n    //    \r\n    event subscriptionBuyEvent(address account, uint256 price);\r\n    //     \r\n    event userFunddingEvent(address account, uint256 tokenId, uint256 amount, uint256 price);\r\n    //      \r\n    event isSuccessFunddingEvent(address account, uint256 tokenId, uint256 price);\r\n    //    \r\n    event isfalsedFunddingEvnet(address account, uint256 tokenId, uint256 price);\r\n\r\n\r\n    //   \r\n    function subscriptionBuy() public payable{\r\n        // //    \r\n        // require(msg.sender == account, \"Is it your wallet?\");\r\n        //         (   0    .)\r\n        require(timeOwner[msg.sender] < block.timestamp, \"There is already a subscription.\");\r\n        //   . 1 3 6   \r\n        require(msg.value == 0.5 ether || msg.value == 1 ether || msg.value == 2 ether);\r\n        if(msg.value == 0.5 ether){\r\n            timeOwner[msg.sender] = block.timestamp + (86400 * 30);\r\n        } else if(msg.value == 1 ether){\r\n            timeOwner[msg.sender] = block.timestamp + (86400 * 90);\r\n        } else if(msg.value == 2 ether){\r\n            timeOwner[msg.sender] = block.timestamp + (86400 * 180);\r\n        }\r\n        emit subscriptionBuyEvent(msg.sender, msg.value);\r\n    }\r\n\r\n    //      \r\n    function streamingView() public view returns(uint256) {\r\n        return timeOwner[msg.sender];\r\n    }\r\n\r\n    // //            . <<               .\r\n    // // DtsToken.sol SaleCA       .\r\n    // function changedCA() onlyOwner external{\r\n    //     Dtoken.isChangedCA(address(this));\r\n    // }\r\n\r\n    //     \r\n    function userFundding(uint256 tokenId, uint256 amount) public payable{\r\n        //    .\r\n        address owner = Dtoken.getTokenOwnerData(tokenId).Creater;\r\n        //       \r\n        uint256 price = Dtoken.getTokenOwnerData(tokenId).UnitPrice * amount;\r\n        //    .\r\n        require(Dtoken.getTokenOwnerData(tokenId).EndTime > block.timestamp, \"Time Over\");\r\n        //    nft  .\r\n        require(msg.sender != owner,\"creater can't buy\");\r\n        //   0 .\r\n        require(msg.value != 0, \"have no money sent\");\r\n        //       NFT   .\r\n        require(msg.value == price,\"The price doesn't match.\");\r\n        //    nft  . (    .)1\r\n        require(Dtoken.balanceOf(owner, tokenId) >=  amount, \"can't buy things.\");\r\n        //          .(    .)2\r\n        require(Dtoken.getTokenOwnerData(tokenId).NftAmount - totalAmout[tokenId] >= amount,\"be out of stock and unable to buy goods\");\r\n        //     saleCA   .\r\n        require(Dtoken.isApprovedForAll(owner,address(this)), \"be not approved\");\r\n        //      .\r\n        totalAmout[tokenId] = totalAmout[tokenId] + amount;\r\n        Dtoken.safeTransferFrom(owner, msg.sender, tokenId, amount, \"\");\r\n        //      \r\n        emit userFunddingEvent(msg.sender, tokenId, amount, price);\r\n        //     Dtoken._tokenOwners[tokenId].isSuccess false true .\r\n        if(totalAmout[tokenId] == Dtoken.getTokenOwnerData(tokenId).NftAmount){\r\n            Dtoken.isFunddingSuccess(tokenId);\r\n        }\r\n        // else if (totalAmout[tokenId] != Dtoken.getTokenOwnerData(tokenId).NftAmount){\r\n        //     Dtoken.isFunddingFalsed(tokenId);\r\n            \r\n        // }\r\n    }\r\n\r\n    //   \r\n    function isSuccessFundding(uint256 tokenId) public payable {\r\n        //      \r\n        require(msg.sender == Dtoken.getTokenOwnerData(tokenId).Creater, \"Is that your wallet?\");\r\n        //    \r\n        require(Dtoken.getTokenOwnerData(tokenId).TotalPrice == (Dtoken.getTokenOwnerData(tokenId).UnitPrice * totalAmout[tokenId]), \"Funding seccess ?\");\r\n        //   \r\n        uint256 Payment = SafeMath.div(Dtoken.getTokenOwnerData(tokenId).TotalPrice.mul(_Fee),_decimalPoint);\r\n        //       \r\n        uint256 reFund = SafeMath.div(Dtoken.getTokenOwnerData(tokenId).TotalPrice.sub(Payment),2);\r\n        // CA   \r\n        payable(msg.sender).transfer(reFund);\r\n        //       \r\n        emit isSuccessFunddingEvent(msg.sender, tokenId, reFund);\r\n    }\r\n\r\n    //   \r\n    function isfalsedFundding(address account, uint256 tokenId) public payable {\r\n        //    \r\n        require(msg.sender == account, \"Is that your wallet?\");\r\n        //    nft   \r\n        require(Dtoken.balanceOf(msg.sender, tokenId) > 0, \"Is it a buyer ?\");\r\n        //    \r\n        require(Dtoken.getTokenOwnerData(tokenId).EndTime < block.timestamp, \"Time Over ?\");\r\n        //    \r\n        require(Dtoken.getTokenOwnerData(tokenId).TotalPrice > (Dtoken.getTokenOwnerData(tokenId).UnitPrice * totalAmout[tokenId]), \"Funding failed ?\");\r\n        //    \r\n        uint256 reFund = Dtoken.balanceOf(msg.sender, tokenId) * Dtoken.getTokenOwnerData(tokenId).UnitPrice;\r\n        // CA   \r\n        payable(msg.sender).transfer(reFund);\r\n        //    nft \r\n        Dtoken.faildBurn(msg.sender, tokenId, Dtoken.balanceOf(msg.sender, tokenId));\r\n        emit isfalsedFunddingEvnet(msg.sender, tokenId, reFund);\r\n    }\r\n\r\n    //    \r\n    function priceCheck(uint256 tokenId) public view returns(uint256){\r\n        return totalAmout[tokenId];\r\n    }\r\n\r\n    //       CA .\r\n    //     await deployed.methods.buyFruit(appleBuy, bananaBuy, melonBuy).send({\r\n    //     from : account,\r\n    //     to : CA,\r\n    //     value : web3.utils.toWei(c, \"ether\")\r\n    // })\r\n}",
  "sourcePath": "C:\\Users\\an\\Desktop\\DTS\\erc1155\\contracts\\FunddingToken.sol",
  "compiler": {
    "name": "solc",
    "version": "0.8.17+commit.8df45f5f.Emscripten.clang"
  },
  "schemaVersion": "3.4.11",
  "updatedAt": "2023-02-12T10:03:05.310Z",
  "networkType": "ethereum",
  "devdoc": {
    "kind": "dev",
    "methods": {
      "owner()": {
        "details": "Returns the address of the current owner."
      },
      "renounceOwnership()": {
        "details": "Leaves the contract without owner. It will not be possible to call `onlyOwner` functions anymore. Can only be called by the current owner. NOTE: Renouncing ownership will leave the contract without an owner, thereby removing any functionality that is only available to the owner."
      },
      "transferOwnership(address)": {
        "details": "Transfers ownership of the contract to a new account (`newOwner`). Can only be called by the current owner."
      }
    },
    "version": 1
  },
  "userdoc": {
    "kind": "user",
    "methods": {},
    "version": 1
  }
}