{
  "contractName": "SaleToken",
  "abi": [
    {
      "inputs": [
        {
          "internalType": "address",
          "name": "DtsTokenCA",
          "type": "address"
        }
      ],
      "stateMutability": "nonpayable",
      "type": "constructor"
    },
    {
      "anonymous": false,
      "inputs": [
        {
          "indexed": false,
          "internalType": "address",
          "name": "account",
          "type": "address"
        },
        {
          "indexed": false,
          "internalType": "uint256",
          "name": "",
          "type": "uint256"
        }
      ],
      "name": "CancelEvent",
      "type": "event"
    },
    {
      "anonymous": false,
      "inputs": [
        {
          "indexed": false,
          "internalType": "address",
          "name": "account",
          "type": "address"
        },
        {
          "indexed": false,
          "internalType": "uint256",
          "name": "tokenId",
          "type": "uint256"
        },
        {
          "indexed": false,
          "internalType": "uint256",
          "name": "amount",
          "type": "uint256"
        },
        {
          "indexed": false,
          "internalType": "uint256",
          "name": "price",
          "type": "uint256"
        }
      ],
      "name": "SaleEvent",
      "type": "event"
    },
    {
      "anonymous": false,
      "inputs": [
        {
          "indexed": false,
          "internalType": "address",
          "name": "owner",
          "type": "address"
        },
        {
          "indexed": false,
          "internalType": "address",
          "name": "account",
          "type": "address"
        },
        {
          "indexed": false,
          "internalType": "uint256",
          "name": "tokenId",
          "type": "uint256"
        },
        {
          "indexed": false,
          "internalType": "uint256",
          "name": "amount",
          "type": "uint256"
        },
        {
          "indexed": false,
          "internalType": "uint256",
          "name": "price",
          "type": "uint256"
        }
      ],
      "name": "purchaseTokenEvnet",
      "type": "event"
    },
    {
      "inputs": [],
      "name": "Dtoken",
      "outputs": [
        {
          "internalType": "contract DtsToken",
          "name": "",
          "type": "address"
        }
      ],
      "stateMutability": "view",
      "type": "function",
      "constant": true
    },
    {
      "inputs": [
        {
          "internalType": "uint256",
          "name": "",
          "type": "uint256"
        }
      ],
      "name": "saleNumber",
      "outputs": [
        {
          "internalType": "uint256",
          "name": "",
          "type": "uint256"
        }
      ],
      "stateMutability": "view",
      "type": "function",
      "constant": true
    },
    {
      "inputs": [
        {
          "internalType": "uint256",
          "name": "",
          "type": "uint256"
        },
        {
          "internalType": "uint256",
          "name": "",
          "type": "uint256"
        }
      ],
      "name": "saleTokenList",
      "outputs": [
        {
          "internalType": "address",
          "name": "account",
          "type": "address"
        },
        {
          "internalType": "uint256",
          "name": "amount",
          "type": "uint256"
        },
        {
          "internalType": "uint256",
          "name": "price",
          "type": "uint256"
        },
        {
          "internalType": "uint256",
          "name": "listId",
          "type": "uint256"
        }
      ],
      "stateMutability": "view",
      "type": "function",
      "constant": true
    },
    {
      "inputs": [
        {
          "internalType": "address",
          "name": "account",
          "type": "address"
        },
        {
          "internalType": "uint256",
          "name": "tokenId",
          "type": "uint256"
        },
        {
          "internalType": "uint256",
          "name": "amount",
          "type": "uint256"
        },
        {
          "internalType": "uint256",
          "name": "price",
          "type": "uint256"
        }
      ],
      "name": "salesToken",
      "outputs": [],
      "stateMutability": "nonpayable",
      "type": "function"
    },
    {
      "inputs": [
        {
          "internalType": "uint256",
          "name": "tokenId",
          "type": "uint256"
        }
      ],
      "name": "cancelSalesToken",
      "outputs": [],
      "stateMutability": "nonpayable",
      "type": "function"
    },
    {
      "inputs": [
        {
          "internalType": "uint256",
          "name": "tokenId",
          "type": "uint256"
        }
      ],
      "name": "saleNumberList",
      "outputs": [
        {
          "internalType": "uint256",
          "name": "",
          "type": "uint256"
        }
      ],
      "stateMutability": "view",
      "type": "function",
      "constant": true
    },
    {
      "inputs": [
        {
          "internalType": "uint256",
          "name": "tokenId",
          "type": "uint256"
        },
        {
          "internalType": "uint256",
          "name": "saleNum",
          "type": "uint256"
        }
      ],
      "name": "getSalesTokenListAll",
      "outputs": [
        {
          "components": [
            {
              "internalType": "address",
              "name": "account",
              "type": "address"
            },
            {
              "internalType": "uint256",
              "name": "amount",
              "type": "uint256"
            },
            {
              "internalType": "uint256",
              "name": "price",
              "type": "uint256"
            },
            {
              "internalType": "uint256",
              "name": "listId",
              "type": "uint256"
            }
          ],
          "internalType": "struct SaleToken.SaleTokenInfo",
          "name": "",
          "type": "tuple"
        }
      ],
      "stateMutability": "view",
      "type": "function",
      "constant": true
    },
    {
      "inputs": [
        {
          "internalType": "address",
          "name": "owner",
          "type": "address"
        }
      ],
      "name": "aaaa",
      "outputs": [
        {
          "internalType": "bool",
          "name": "",
          "type": "bool"
        }
      ],
      "stateMutability": "view",
      "type": "function",
      "constant": true
    },
    {
      "inputs": [
        {
          "internalType": "address payable",
          "name": "owner",
          "type": "address"
        },
        {
          "internalType": "uint256",
          "name": "tokenId",
          "type": "uint256"
        },
        {
          "internalType": "uint256",
          "name": "amount",
          "type": "uint256"
        },
        {
          "internalType": "uint256",
          "name": "listId",
          "type": "uint256"
        }
      ],
      "name": "purchaseToken",
      "outputs": [],
      "stateMutability": "payable",
      "type": "function",
      "payable": true
    }
  ],
  "bytecode": "0x60806040523480156200001157600080fd5b506040516200205a3803806200205a833981810160405281019062000037919062000177565b806000806101000a81548173ffffffffffffffffffffffffffffffffffffffff021916908373ffffffffffffffffffffffffffffffffffffffff16021790555060008054906101000a900473ffffffffffffffffffffffffffffffffffffffff1673ffffffffffffffffffffffffffffffffffffffff16634672a602306040518263ffffffff1660e01b8152600401620000d29190620001ba565b600060405180830381600087803b158015620000ed57600080fd5b505af115801562000102573d6000803e3d6000fd5b5050505050620001d7565b600080fd5b600073ffffffffffffffffffffffffffffffffffffffff82169050919050565b60006200013f8262000112565b9050919050565b620001518162000132565b81146200015d57600080fd5b50565b600081519050620001718162000146565b92915050565b60006020828403121562000190576200018f6200010d565b5b6000620001a08482850162000160565b91505092915050565b620001b48162000132565b82525050565b6000602082019050620001d16000830184620001a9565b92915050565b611e7380620001e76000396000f3fe6080604052600436106100865760003560e01c8063a2f256ee11610059578063a2f256ee14610136578063ae20b85c14610173578063cc8a416b146101b0578063d0ed81c9146101db578063fdb149b21461021857610086565b806323dc2e651461008b578063422b71d7146100b457806345fbe2cc146100dd5780638f1480331461011a575b600080fd5b34801561009757600080fd5b506100b260048036038101906100ad91906111f1565b610258565b005b3480156100c057600080fd5b506100db60048036038101906100d69190611258565b61084d565b005b3480156100e957600080fd5b5061010460048036038101906100ff9190611258565b610995565b6040516101119190611294565b60405180910390f35b610134600480360381019061012f91906112ed565b6109ad565b005b34801561014257600080fd5b5061015d60048036038101906101589190611258565b610dd0565b60405161016a9190611294565b60405180910390f35b34801561017f57600080fd5b5061019a60048036038101906101959190611354565b610ded565b6040516101a7919061139c565b60405180910390f35b3480156101bc57600080fd5b506101c5610e93565b6040516101d29190611416565b60405180910390f35b3480156101e757600080fd5b5061020260048036038101906101fd9190611431565b610eb7565b60405161020f91906114e4565b60405180910390f35b34801561022457600080fd5b5061023f600480360381019061023a9190611431565b610f6a565b60405161024f949392919061150e565b60405180910390f35b83836000600190505b60016000838152602001908152602001600020548111610378576000600260008481526020019081526020016000206000838152602001908152602001600020600101541415801561032557508273ffffffffffffffffffffffffffffffffffffffff1660026000848152602001908152602001600020600083815260200190815260200160002060000160009054906101000a900473ffffffffffffffffffffffffffffffffffffffff1673ffffffffffffffffffffffffffffffffffffffff16145b15610365576040517f08c379a000000000000000000000000000000000000000000000000000000000815260040161035c906115b0565b60405180910390fd5b8080610370906115ff565b915050610261565b508360008054906101000a900473ffffffffffffffffffffffffffffffffffffffff1673ffffffffffffffffffffffffffffffffffffffff1662fdd58e88886040518363ffffffff1660e01b81526004016103d4929190611647565b602060405180830381865afa1580156103f1573d6000803e3d6000fd5b505050506040513d601f19601f820116820180604052508101906104159190611685565b1015610456576040517f08c379a000000000000000000000000000000000000000000000000000000000815260040161044d906116fe565b60405180910390fd5b60008311610499576040517f08c379a00000000000000000000000000000000000000000000000000000000081526004016104909061176a565b60405180910390fd5b600084116104dc576040517f08c379a00000000000000000000000000000000000000000000000000000000081526004016104d3906117d6565b60405180910390fd5b6001151560008054906101000a900473ffffffffffffffffffffffffffffffffffffffff1673ffffffffffffffffffffffffffffffffffffffff16638d63193d876040518263ffffffff1660e01b81526004016105399190611294565b60c060405180830381865afa158015610556573d6000803e3d6000fd5b505050506040513d601f19601f8201168201806040525081019061057a9190611968565b60a001511515146105c0576040517f08c379a00000000000000000000000000000000000000000000000000000000081526004016105b7906119e1565b60405180910390fd5b600080600190505b60016000888152602001908152602001600020548111610712578773ffffffffffffffffffffffffffffffffffffffff1660026000898152602001908152602001600020600083815260200190815260200160002060000160009054906101000a900473ffffffffffffffffffffffffffffffffffffffff1673ffffffffffffffffffffffffffffffffffffffff16036106ff57600061066a89888885610fc7565b905080600260008a8152602001908152602001600020600084815260200190815260200160002060008201518160000160006101000a81548173ffffffffffffffffffffffffffffffffffffffff021916908373ffffffffffffffffffffffffffffffffffffffff16021790555060208201518160010155604082015181600201556060820151816003015590505060019250505b808061070a906115ff565b9150506105c8565b5060001515811515036108075760018060008881526020019081526020016000205461073e9190611a01565b600160008881526020019081526020016000208190555060006107638888888861104c565b905080600260008981526020019081526020016000206000600160008b815260200190815260200160002054815260200190815260200160002060008201518160000160006101000a81548173ffffffffffffffffffffffffffffffffffffffff021916908373ffffffffffffffffffffffffffffffffffffffff160217905550602082015181600101556040820151816002015560608201518160030155905050505b7ffd993c5a8b6fac3440f45a4aa08e8d39fc18d59f8d66435d7c2d108508035db48787878760405161083c949392919061150e565b60405180910390a150505050505050565b60006001600083815260200190815260200160002054905060005b818111610957573373ffffffffffffffffffffffffffffffffffffffff1660026000858152602001908152602001600020600083815260200190815260200160002060000160009054906101000a900473ffffffffffffffffffffffffffffffffffffffff1673ffffffffffffffffffffffffffffffffffffffff1603610944576000600260008581526020019081526020016000206000838152602001908152602001600020600101819055506000600260008581526020019081526020016000206000838152602001908152602001600020600201819055505b808061094f906115ff565b915050610868565b507fb37fa1584b5a559c3935a3e74265f473fc90b084d550e9b389c91be5a69fcfa93383604051610989929190611647565b60405180910390a15050565b60016020528060005260406000206000915090505481565b3373ffffffffffffffffffffffffffffffffffffffff1660026000858152602001908152602001600020600083815260200190815260200160002060000160009054906101000a900473ffffffffffffffffffffffffffffffffffffffff1673ffffffffffffffffffffffffffffffffffffffff1603610a62576040517f08c379a0000000000000000000000000000000000000000000000000000000008152600401610a5990611a81565b60405180910390fd5b600082118015610a995750600260008481526020019081526020016000206000828152602001908152602001600020600101548211155b610ad8576040517f08c379a0000000000000000000000000000000000000000000000000000000008152600401610acf90611aed565b60405180910390fd5b346002600085815260200190815260200160002060008381526020019081526020016000206002015483610b0c9190611b0d565b14610b4c576040517f08c379a0000000000000000000000000000000000000000000000000000000008152600401610b4390611b9b565b60405180910390fd5b60008054906101000a900473ffffffffffffffffffffffffffffffffffffffff1673ffffffffffffffffffffffffffffffffffffffff1663e985e9c585306040518363ffffffff1660e01b8152600401610ba7929190611bdc565b602060405180830381865afa158015610bc4573d6000803e3d6000fd5b505050506040513d601f19601f82011682018060405250810190610be89190611c05565b610c27576040517f08c379a0000000000000000000000000000000000000000000000000000000008152600401610c1e90611c7e565b60405180910390fd5b6000610c47610c40600a346110e490919063ffffffff16565b60646110fa565b90508473ffffffffffffffffffffffffffffffffffffffff166108fc8234610c6f9190611c9e565b9081150290604051600060405180830381858888f19350505050158015610c9a573d6000803e3d6000fd5b508260026000868152602001908152602001600020600084815260200190815260200160002060010154610cce9190611c9e565b6002600086815260200190815260200160002060008481526020019081526020016000206001018190555060008054906101000a900473ffffffffffffffffffffffffffffffffffffffff1673ffffffffffffffffffffffffffffffffffffffff1663f242432a863387876040518563ffffffff1660e01b8152600401610d589493929190611d09565b600060405180830381600087803b158015610d7257600080fd5b505af1158015610d86573d6000803e3d6000fd5b505050507f2cfa9090082a87542ab829fb8d6a9203ce7fd926dced5cb9317f2c7371b47db08533868634604051610dc1959493929190611d61565b60405180910390a15050505050565b600060016000838152602001908152602001600020549050919050565b60008060009054906101000a900473ffffffffffffffffffffffffffffffffffffffff1673ffffffffffffffffffffffffffffffffffffffff1663e985e9c583306040518363ffffffff1660e01b8152600401610e4b929190611db4565b602060405180830381865afa158015610e68573d6000803e3d6000fd5b505050506040513d601f19601f82011682018060405250810190610e8c9190611c05565b9050919050565b60008054906101000a900473ffffffffffffffffffffffffffffffffffffffff1681565b610ebf611110565b6002600084815260200190815260200160002060008381526020019081526020016000206040518060800160405290816000820160009054906101000a900473ffffffffffffffffffffffffffffffffffffffff1673ffffffffffffffffffffffffffffffffffffffff1673ffffffffffffffffffffffffffffffffffffffff1681526020016001820154815260200160028201548152602001600382015481525050905092915050565b6002602052816000526040600020602052806000526040600020600091509150508060000160009054906101000a900473ffffffffffffffffffffffffffffffffffffffff16908060010154908060020154908060030154905084565b610fcf611110565b610fd7611110565b85816000019073ffffffffffffffffffffffffffffffffffffffff16908173ffffffffffffffffffffffffffffffffffffffff168152505084816020018181525050670de0b6b3a76400008461102d9190611b0d565b8160400181815250508281606001818152505080915050949350505050565b611054611110565b61105c611110565b85816000019073ffffffffffffffffffffffffffffffffffffffff16908173ffffffffffffffffffffffffffffffffffffffff168152505083816020018181525050670de0b6b3a7640000836110b29190611b0d565b816040018181525050600160008681526020019081526020016000205481606001818152505080915050949350505050565b600081836110f29190611b0d565b905092915050565b600081836111089190611e0c565b905092915050565b6040518060800160405280600073ffffffffffffffffffffffffffffffffffffffff1681526020016000815260200160008152602001600081525090565b6000604051905090565b600080fd5b600073ffffffffffffffffffffffffffffffffffffffff82169050919050565b60006111888261115d565b9050919050565b6111988161117d565b81146111a357600080fd5b50565b6000813590506111b58161118f565b92915050565b6000819050919050565b6111ce816111bb565b81146111d957600080fd5b50565b6000813590506111eb816111c5565b92915050565b6000806000806080858703121561120b5761120a611158565b5b6000611219878288016111a6565b945050602061122a878288016111dc565b935050604061123b878288016111dc565b925050606061124c878288016111dc565b91505092959194509250565b60006020828403121561126e5761126d611158565b5b600061127c848285016111dc565b91505092915050565b61128e816111bb565b82525050565b60006020820190506112a96000830184611285565b92915050565b60006112ba8261115d565b9050919050565b6112ca816112af565b81146112d557600080fd5b50565b6000813590506112e7816112c1565b92915050565b6000806000806080858703121561130757611306611158565b5b6000611315878288016112d8565b9450506020611326878288016111dc565b9350506040611337878288016111dc565b9250506060611348878288016111dc565b91505092959194509250565b60006020828403121561136a57611369611158565b5b6000611378848285016111a6565b91505092915050565b60008115159050919050565b61139681611381565b82525050565b60006020820190506113b1600083018461138d565b92915050565b6000819050919050565b60006113dc6113d76113d28461115d565b6113b7565b61115d565b9050919050565b60006113ee826113c1565b9050919050565b6000611400826113e3565b9050919050565b611410816113f5565b82525050565b600060208201905061142b6000830184611407565b92915050565b6000806040838503121561144857611447611158565b5b6000611456858286016111dc565b9250506020611467858286016111dc565b9150509250929050565b61147a8161117d565b82525050565b611489816111bb565b82525050565b6080820160008201516114a56000850182611471565b5060208201516114b86020850182611480565b5060408201516114cb6040850182611480565b5060608201516114de6060850182611480565b50505050565b60006080820190506114f9600083018461148f565b92915050565b6115088161117d565b82525050565b600060808201905061152360008301876114ff565b6115306020830186611285565b61153d6040830185611285565b61154a6060830184611285565b95945050505050565b600082825260208201905092915050565b7f43616e63656c207468652073616c6573206f726465722e000000000000000000600082015250565b600061159a601783611553565b91506115a582611564565b602082019050919050565b600060208201905081810360008301526115c98161158d565b9050919050565b7f4e487b7100000000000000000000000000000000000000000000000000000000600052601160045260246000fd5b600061160a826111bb565b91507fffffffffffffffffffffffffffffffffffffffffffffffffffffffffffffffff820361163c5761163b6115d0565b5b600182019050919050565b600060408201905061165c60008301856114ff565b6116696020830184611285565b9392505050565b60008151905061167f816111c5565b92915050565b60006020828403121561169b5761169a611158565b5b60006116a984828501611670565b91505092915050565b7f506c6561736520656e74657220746865206578616374207175616e746974792e600082015250565b60006116e8602083611553565b91506116f3826116b2565b602082019050919050565b60006020820190508181036000830152611717816116db565b9050919050565b7f506c6561736520656e7465722074686520636f72726563742070726963652e00600082015250565b6000611754601f83611553565b915061175f8261171e565b602082019050919050565b6000602082019050818103600083015261178381611747565b9050919050565b7f506c6561736520656e7465722074686520636f727265637420616d6f756e742e600082015250565b60006117c0602083611553565b91506117cb8261178a565b602082019050919050565b600060208201905081810360008301526117ef816117b3565b9050919050565b600080fd5b6000601f19601f8301169050919050565b7f4e487b7100000000000000000000000000000000000000000000000000000000600052604160045260246000fd5b611844826117fb565b810181811067ffffffffffffffff821117156118635761186261180c565b5b80604052505050565b600061187661114e565b9050611882828261183b565b919050565b6000815190506118968161118f565b92915050565b6118a581611381565b81146118b057600080fd5b50565b6000815190506118c28161189c565b92915050565b600060c082840312156118de576118dd6117f6565b5b6118e860c061186c565b905060006118f884828501611887565b600083015250602061190c84828501611670565b602083015250604061192084828501611670565b604083015250606061193484828501611670565b606083015250608061194884828501611670565b60808301525060a061195c848285016118b3565b60a08301525092915050565b600060c0828403121561197e5761197d611158565b5b600061198c848285016118c8565b91505092915050565b7f697320537563636573733f000000000000000000000000000000000000000000600082015250565b60006119cb600b83611553565b91506119d682611995565b602082019050919050565b600060208201905081810360008301526119fa816119be565b9050919050565b6000611a0c826111bb565b9150611a17836111bb565b9250828201905080821115611a2f57611a2e6115d0565b5b92915050565b7f492063616e277420627579206d7973656c662e00000000000000000000000000600082015250565b6000611a6b601383611553565b9150611a7682611a35565b602082019050919050565b60006020820190508181036000830152611a9a81611a5e565b9050919050565b7f436865636b20616d6f756e740000000000000000000000000000000000000000600082015250565b6000611ad7600c83611553565b9150611ae282611aa1565b602082019050919050565b60006020820190508181036000830152611b0681611aca565b9050919050565b6000611b18826111bb565b9150611b23836111bb565b9250828202611b31816111bb565b91508282048414831517611b4857611b476115d0565b5b5092915050565b7f436865636b20746865206d6f6e657920616761696e2e00000000000000000000600082015250565b6000611b85601683611553565b9150611b9082611b4f565b602082019050919050565b60006020820190508181036000830152611bb481611b78565b9050919050565b6000611bc6826113e3565b9050919050565b611bd681611bbb565b82525050565b6000604082019050611bf16000830185611bcd565b611bfe60208301846114ff565b9392505050565b600060208284031215611c1b57611c1a611158565b5b6000611c29848285016118b3565b91505092915050565b7f6265206e6f7420617070726f7665640000000000000000000000000000000000600082015250565b6000611c68600f83611553565b9150611c7382611c32565b602082019050919050565b60006020820190508181036000830152611c9781611c5b565b9050919050565b6000611ca9826111bb565b9150611cb4836111bb565b9250828203905081811115611ccc57611ccb6115d0565b5b92915050565b600082825260208201905092915050565b50565b6000611cf3600083611cd2565b9150611cfe82611ce3565b600082019050919050565b600060a082019050611d1e6000830187611bcd565b611d2b60208301866114ff565b611d386040830185611285565b611d456060830184611285565b8181036080830152611d5681611ce6565b905095945050505050565b600060a082019050611d766000830188611bcd565b611d8360208301876114ff565b611d906040830186611285565b611d9d6060830185611285565b611daa6080830184611285565b9695505050505050565b6000604082019050611dc960008301856114ff565b611dd660208301846114ff565b9392505050565b7f4e487b7100000000000000000000000000000000000000000000000000000000600052601260045260246000fd5b6000611e17826111bb565b9150611e22836111bb565b925082611e3257611e31611ddd565b5b82820490509291505056fea2646970667358221220325849762b8c8d54bb4d7fc6d48766d4f1d69fccd4f65914ed1153c7a9df7caa64736f6c63430008110033",
  "immutableReferences": {},
  "source": "// SPDX-License-Identifier: MIT\r\npragma solidity ^0.8.17;\r\n\r\nimport \"../node_modules/openzeppelin-solidity/contracts/utils/math/SafeMath.sol\";\r\n// import \"@openzeppelin/contracts/utils/math/SafeMath.sol\";\r\n\r\nimport \"./DtsToken.sol\";\r\n\r\ncontract SaleToken{\r\n\r\n    using SafeMath for uint256;\r\n\r\n    // DtsToken.sol    \r\n    DtsToken public Dtoken;\r\n\r\n    constructor(address DtsTokenCA){\r\n        //   DtsToken CA  Dtoken  .\r\n        Dtoken = DtsToken(DtsTokenCA);\r\n        //     Dtoken FunddingTokenCA .\r\n        // DtsToken SaleToken   \r\n        Dtoken.isSaleCA(address(this));\r\n    }\r\n\r\n    //  nft   \r\n    struct SaleTokenInfo{\r\n        //  \r\n        address account;\r\n        //  \r\n        uint256 amount;\r\n        //  \r\n        uint256 price;\r\n        //   Id (    id .)\r\n        uint256 listId;\r\n    }\r\n\r\n    //   id      \r\n    mapping (uint256 => uint256) public saleNumber;\r\n\r\n    //  Id        \r\n    mapping (uint256 => mapping (uint256 => SaleTokenInfo)) public saleTokenList;\r\n\r\n    // //        \r\n    // SaleTokenInfo[] private saleTokenList;\r\n\r\n    //    \r\n    event SaleEvent(address account, uint256 tokenId, uint256 amount, uint256 price);\r\n    //   \r\n    event CancelEvent(address account, uint256);\r\n    //  \r\n    event purchaseTokenEvnet(address owner, address account, uint256 tokenId, uint256 amount, uint256 price);\r\n\r\n    //   \r\n    function salesToken(address account, uint256 tokenId ,uint256 amount, uint256 price) public isSaleError(account,tokenId){\r\n        //        .\r\n        require(Dtoken.balanceOf(account, tokenId) >= amount, \"Please enter the exact quantity.\");\r\n        //   0   \r\n        require(price > 0,\"Please enter the correct price.\");\r\n        //   0   \r\n        require(amount > 0,\"Please enter the correct amount.\");\r\n        //    .\r\n        // require(Dtoken.isApprovedForAll(account,address(this)),\"be not approved\");\r\n        //    \r\n        require(Dtoken.getTokenOwnerData(tokenId).isSuccess == true,\"is Success?\");\r\n\r\n        bool result = false;\r\n        for(uint256 i = 1; i <= saleNumber[tokenId]; i++){\r\n            if(saleTokenList[tokenId][i].account == account){\r\n                SaleTokenInfo memory data1 = _getFirstSalesTokenData(account, amount, price, i);\r\n                saleTokenList[tokenId][i] = data1;\r\n                result = true;\r\n            }\r\n        }\r\n        if(result == false){\r\n        saleNumber[tokenId] = saleNumber[tokenId] + 1;\r\n        SaleTokenInfo memory data = _getSalesTokenData(account, tokenId, amount, price);\r\n        saleTokenList[tokenId][saleNumber[tokenId]] = data;\r\n        }\r\n \r\n        emit SaleEvent(account, tokenId, amount, price);\r\n    }\r\n\r\n    //    \r\n    function _getSalesTokenData(address _account,uint256 tokenId, uint256 _amount, uint256 _price) private view returns(SaleTokenInfo memory){\r\n        SaleTokenInfo memory data;\r\n\r\n        data.account = _account;\r\n        data.amount = _amount;\r\n        data.price = _price * (10 ** 18);\r\n        data.listId = saleNumber[tokenId];\r\n\r\n        return data;\r\n    }\r\n    //     \r\n    function _getFirstSalesTokenData(address _account, uint256 _amount, uint256 _price, uint256 i) private pure returns(SaleTokenInfo memory){\r\n        SaleTokenInfo memory data;\r\n\r\n        data.account = _account;\r\n        data.amount = _amount;\r\n        data.price = _price * (10 ** 18);\r\n        data.listId = i;\r\n\r\n        return data;\r\n    }\r\n\r\n    //   \r\n    function cancelSalesToken(uint256 tokenId) public {\r\n        uint256 saleNumberLength = saleNumber[tokenId];\r\n        for(uint256 i = 0; i <= saleNumberLength; i++){\r\n            if(saleTokenList[tokenId][i].account == msg.sender){\r\n               saleTokenList[tokenId][i].amount = 0;\r\n               saleTokenList[tokenId][i].price = 0;\r\n            }\r\n        }\r\n        emit CancelEvent(msg.sender,tokenId);\r\n    }\r\n\r\n    //     view \r\n    function saleNumberList(uint256 tokenId) public view returns(uint256){\r\n        return saleNumber[tokenId];\r\n    }\r\n\r\n    //     view\r\n    function getSalesTokenListAll(uint256 tokenId, uint256 saleNum) public view returns(SaleTokenInfo memory){\r\n        return saleTokenList[tokenId][saleNum];\r\n    }\r\n\r\n    function aaaa(address owner) public view returns(bool){\r\n        return Dtoken.isApprovedForAll(owner, address(this));\r\n    }\r\n\r\n    //  \r\n    function purchaseToken(address payable owner, uint256 tokenId, uint256 amount, uint256 listId) public payable {\r\n        //  nft   .\r\n        require(saleTokenList[tokenId][listId].account != msg.sender,\"I can't buy myself.\");\r\n        //    0      .\r\n        require(amount > 0 && amount <= saleTokenList[tokenId][listId].amount,\"Check amount\");\r\n        //      .\r\n        require(amount * saleTokenList[tokenId][listId].price == msg.value, \"Check the money again.\");\r\n        //    .\r\n        require(Dtoken.isApprovedForAll(owner,address(this)),\"be not approved\");\r\n        //    (10%)\r\n        uint256 Payment = SafeMath.div(msg.value.mul(10),100);\r\n        //      .\r\n        owner.transfer(msg.value - Payment);\r\n\r\n        //    \r\n        saleTokenList[tokenId][listId].amount = saleTokenList[tokenId][listId].amount - amount;\r\n\r\n        Dtoken.safeTransferFrom(owner, msg.sender, tokenId, amount, \"\");\r\n        //   \r\n        emit purchaseTokenEvnet(owner, msg.sender, tokenId, amount, msg.value);\r\n    }\r\n\r\n    //       .   amount 0      .\r\n    modifier isSaleError(address account, uint256 tokenId) {\r\n        for(uint256 i = 1; i <= saleNumber[tokenId]; i++){\r\n            if(saleTokenList[tokenId][i].amount != 0 && saleTokenList[tokenId][i].account == account){\r\n               revert(\"Cancel the sales order.\");\r\n            }\r\n        }\r\n        _;\r\n    }\r\n\r\n    // //    <<   ..   \r\n    // function cancelSalesToken(uint256 tokenId) public {\r\n    //     for (uint256 i = 0; i < saleTokenList.length; i++) {\r\n    //         if(saleTokenList[i].tokenId == tokenId && saleTokenList[i].account == msg.sender){\r\n    //             saleTokenList[i] = saleTokenList[saleTokenList.length -1];\r\n    //             saleTokenList.pop();\r\n    //             delete _saleToken[tokenId][msg.sender];\r\n    //         }\r\n    //     }\r\n    // }\r\n\r\n    // //      view <<     \r\n    // function getSalesTokenListAll(uint256 tokenId) public view returns(SaleTokenInfo[] memory){\r\n    //     //  list     id     .\r\n    //     SaleTokenInfo[] memory list = new SaleTokenInfo[](saleTokenList.length);\r\n    //     uint256 a = 0;\r\n    //     for (uint256 i = 0; i < saleTokenList.length; i++) {\r\n    //         if(saleTokenList[i].tokenId == tokenId){\r\n    //             list[a] = (saleTokenList[i]);\r\n    //             a++;\r\n    //         }\r\n    //     }\r\n    //     return list;\r\n    // }\r\n\r\n    // //          <<             ..\r\n    // function isSalesTokenList(address owner, uint256 tokenId) private view returns(SaleTokenInfo memory){\r\n    //     SaleTokenInfo memory data;\r\n    //     for (uint256 i = 0; i < saleTokenList.length; i++) {\r\n    //         if(saleTokenList[i].tokenId == tokenId && saleTokenList[i].account == owner){\r\n    //             data.account = saleTokenList[i].account;\r\n    //             data.tokenId = saleTokenList[i].tokenId;\r\n    //             data.amount = saleTokenList[i].amount;\r\n    //             data.price = saleTokenList[i].price;\r\n    //         }\r\n    //     }\r\n    //     return data;\r\n    // }\r\n}",
  "sourcePath": "C:\\Users\\an\\Desktop\\DTS\\erc1155\\contracts\\SaleToken.sol",
  "compiler": {
    "name": "solc",
    "version": "0.8.17+commit.8df45f5f.Emscripten.clang"
  },
  "schemaVersion": "3.4.11",
  "updatedAt": "2023-02-12T10:03:05.334Z",
  "networkType": "ethereum",
  "devdoc": {
    "kind": "dev",
    "methods": {},
    "version": 1
  },
  "userdoc": {
    "kind": "user",
    "methods": {},
    "version": 1
  }
}